{
	"SimpleSwap.sol": {
		"SimpleSwap": {
			"abi": [
				{
					"inputs": [],
					"name": "ReentrancyGuardReentrantCall",
					"type": "error"
				},
				{
					"anonymous": false,
					"inputs": [
						{
							"indexed": true,
							"internalType": "address",
							"name": "provider",
							"type": "address"
						},
						{
							"indexed": true,
							"internalType": "address",
							"name": "tokenA",
							"type": "address"
						},
						{
							"indexed": true,
							"internalType": "address",
							"name": "tokenB",
							"type": "address"
						},
						{
							"indexed": false,
							"internalType": "uint256",
							"name": "amountA",
							"type": "uint256"
						},
						{
							"indexed": false,
							"internalType": "uint256",
							"name": "amountB",
							"type": "uint256"
						},
						{
							"indexed": false,
							"internalType": "uint256",
							"name": "liquidityMinted",
							"type": "uint256"
						},
						{
							"indexed": false,
							"internalType": "uint256",
							"name": "timestamp",
							"type": "uint256"
						}
					],
					"name": "LiquidityAdded",
					"type": "event"
				},
				{
					"anonymous": false,
					"inputs": [
						{
							"indexed": true,
							"internalType": "address",
							"name": "provider",
							"type": "address"
						},
						{
							"indexed": false,
							"internalType": "uint256",
							"name": "amountA",
							"type": "uint256"
						},
						{
							"indexed": false,
							"internalType": "uint256",
							"name": "amountB",
							"type": "uint256"
						}
					],
					"name": "LiquidityRemoved",
					"type": "event"
				},
				{
					"anonymous": false,
					"inputs": [
						{
							"indexed": true,
							"internalType": "address",
							"name": "swapper",
							"type": "address"
						},
						{
							"indexed": true,
							"internalType": "address",
							"name": "tokenIn",
							"type": "address"
						},
						{
							"indexed": true,
							"internalType": "address",
							"name": "tokenOut",
							"type": "address"
						},
						{
							"indexed": false,
							"internalType": "uint256",
							"name": "amountIn",
							"type": "uint256"
						},
						{
							"indexed": false,
							"internalType": "uint256",
							"name": "amountOut",
							"type": "uint256"
						},
						{
							"indexed": false,
							"internalType": "uint256",
							"name": "timestamp",
							"type": "uint256"
						}
					],
					"name": "TokensSwapped",
					"type": "event"
				},
				{
					"inputs": [
						{
							"internalType": "address",
							"name": "tokenA",
							"type": "address"
						},
						{
							"internalType": "address",
							"name": "tokenB",
							"type": "address"
						},
						{
							"internalType": "uint256",
							"name": "amountADesired",
							"type": "uint256"
						},
						{
							"internalType": "uint256",
							"name": "amountBDesired",
							"type": "uint256"
						},
						{
							"internalType": "uint256",
							"name": "amountAMin",
							"type": "uint256"
						},
						{
							"internalType": "uint256",
							"name": "amountBMin",
							"type": "uint256"
						},
						{
							"internalType": "address",
							"name": "to",
							"type": "address"
						},
						{
							"internalType": "uint256",
							"name": "deadline",
							"type": "uint256"
						}
					],
					"name": "addLiquidity",
					"outputs": [
						{
							"internalType": "uint256",
							"name": "amountA",
							"type": "uint256"
						},
						{
							"internalType": "uint256",
							"name": "amountB",
							"type": "uint256"
						},
						{
							"internalType": "uint256",
							"name": "liquidity",
							"type": "uint256"
						}
					],
					"stateMutability": "nonpayable",
					"type": "function"
				},
				{
					"inputs": [
						{
							"internalType": "uint256",
							"name": "amountIn",
							"type": "uint256"
						},
						{
							"internalType": "uint256",
							"name": "reserveIn",
							"type": "uint256"
						},
						{
							"internalType": "uint256",
							"name": "reserveOut",
							"type": "uint256"
						}
					],
					"name": "getAmountOut",
					"outputs": [
						{
							"internalType": "uint256",
							"name": "amountOut",
							"type": "uint256"
						}
					],
					"stateMutability": "pure",
					"type": "function"
				},
				{
					"inputs": [
						{
							"internalType": "address",
							"name": "tokenA",
							"type": "address"
						},
						{
							"internalType": "address",
							"name": "tokenB",
							"type": "address"
						}
					],
					"name": "getPrice",
					"outputs": [
						{
							"internalType": "uint256",
							"name": "price",
							"type": "uint256"
						}
					],
					"stateMutability": "view",
					"type": "function"
				},
				{
					"inputs": [
						{
							"internalType": "address",
							"name": "tokenA",
							"type": "address"
						},
						{
							"internalType": "address",
							"name": "tokenB",
							"type": "address"
						},
						{
							"internalType": "uint256",
							"name": "liquidity",
							"type": "uint256"
						},
						{
							"internalType": "uint256",
							"name": "amountAMin",
							"type": "uint256"
						},
						{
							"internalType": "uint256",
							"name": "amountBMin",
							"type": "uint256"
						},
						{
							"internalType": "address",
							"name": "to",
							"type": "address"
						},
						{
							"internalType": "uint256",
							"name": "deadline",
							"type": "uint256"
						}
					],
					"name": "removeLiquidity",
					"outputs": [
						{
							"internalType": "uint256",
							"name": "amountA",
							"type": "uint256"
						},
						{
							"internalType": "uint256",
							"name": "amountB",
							"type": "uint256"
						}
					],
					"stateMutability": "nonpayable",
					"type": "function"
				},
				{
					"inputs": [
						{
							"internalType": "uint256",
							"name": "amountIn",
							"type": "uint256"
						},
						{
							"internalType": "uint256",
							"name": "amountOutMin",
							"type": "uint256"
						},
						{
							"internalType": "address[]",
							"name": "path",
							"type": "address[]"
						},
						{
							"internalType": "address",
							"name": "to",
							"type": "address"
						},
						{
							"internalType": "uint256",
							"name": "deadline",
							"type": "uint256"
						}
					],
					"name": "swapExactTokensForTokens",
					"outputs": [
						{
							"internalType": "uint256[]",
							"name": "amounts",
							"type": "uint256[]"
						}
					],
					"stateMutability": "nonpayable",
					"type": "function"
				}
			],
			"devdoc": {
				"errors": {
					"ReentrancyGuardReentrantCall()": [
						{
							"details": "Unauthorized reentrant call."
						}
					]
				},
				"kind": "dev",
				"methods": {},
				"version": 1
			},
			"evm": {
				"assembly": "    /* \"SimpleSwap.sol\":230:12141  contract SimpleSwap is ReentrancyGuard {... */\n  mstore(0x40, 0x80)\n  callvalue\n  dup1\n  iszero\n  tag_1\n  jumpi\n  revert(0x00, 0x00)\ntag_1:\n  pop\n    /* \"@openzeppelin/contracts/utils/ReentrancyGuard.sol\":1857:1858  1 */\n  0x01\n    /* \"@openzeppelin/contracts/utils/ReentrancyGuard.sol\":2061:2068  _status */\n  0x00\n    /* \"@openzeppelin/contracts/utils/ReentrancyGuard.sol\":2061:2082  _status = NOT_ENTERED */\n  dup2\n  swap1\n  sstore\n  pop\n    /* \"SimpleSwap.sol\":230:12141  contract SimpleSwap is ReentrancyGuard {... */\n  dataSize(sub_0)\n  dup1\n  dataOffset(sub_0)\n  0x00\n  codecopy\n  0x00\n  return\nstop\n\nsub_0: assembly {\n        /* \"SimpleSwap.sol\":230:12141  contract SimpleSwap is ReentrancyGuard {... */\n      mstore(0x40, 0x80)\n      callvalue\n      dup1\n      iszero\n      tag_1\n      jumpi\n      revert(0x00, 0x00)\n    tag_1:\n      pop\n      jumpi(tag_2, lt(calldatasize, 0x04))\n      shr(0xe0, calldataload(0x00))\n      dup1\n      0x054d50d4\n      eq\n      tag_3\n      jumpi\n      dup1\n      0x38ed1739\n      eq\n      tag_4\n      jumpi\n      dup1\n      0xac41865a\n      eq\n      tag_5\n      jumpi\n      dup1\n      0xbaa2abde\n      eq\n      tag_6\n      jumpi\n      dup1\n      0xe8e33700\n      eq\n      tag_7\n      jumpi\n    tag_2:\n      revert(0x00, 0x00)\n        /* \"SimpleSwap.sol\":11626:12139  function getAmountOut(... */\n    tag_3:\n      tag_8\n      0x04\n      dup1\n      calldatasize\n      sub\n      dup2\n      add\n      swap1\n      tag_9\n      swap2\n      swap1\n      tag_10\n      jump\t// in\n    tag_9:\n      tag_11\n      jump\t// in\n    tag_8:\n      mload(0x40)\n      tag_12\n      swap2\n      swap1\n      tag_13\n      jump\t// in\n    tag_12:\n      mload(0x40)\n      dup1\n      swap2\n      sub\n      swap1\n      return\n        /* \"SimpleSwap.sol\":9606:11048  function swapExactTokensForTokens(... */\n    tag_4:\n      tag_14\n      0x04\n      dup1\n      calldatasize\n      sub\n      dup2\n      add\n      swap1\n      tag_15\n      swap2\n      swap1\n      tag_16\n      jump\t// in\n    tag_15:\n      tag_17\n      jump\t// in\n    tag_14:\n      mload(0x40)\n      tag_18\n      swap2\n      swap1\n      tag_19\n      jump\t// in\n    tag_18:\n      mload(0x40)\n      dup1\n      swap2\n      sub\n      swap1\n      return\n        /* \"SimpleSwap.sol\":11054:11620  function getPrice(address tokenA, address tokenB)... */\n    tag_5:\n      tag_20\n      0x04\n      dup1\n      calldatasize\n      sub\n      dup2\n      add\n      swap1\n      tag_21\n      swap2\n      swap1\n      tag_22\n      jump\t// in\n    tag_21:\n      tag_23\n      jump\t// in\n    tag_20:\n      mload(0x40)\n      tag_24\n      swap2\n      swap1\n      tag_13\n      jump\t// in\n    tag_24:\n      mload(0x40)\n      dup1\n      swap2\n      sub\n      swap1\n      return\n        /* \"SimpleSwap.sol\":6853:8666  function removeLiquidity(... */\n    tag_6:\n      tag_25\n      0x04\n      dup1\n      calldatasize\n      sub\n      dup2\n      add\n      swap1\n      tag_26\n      swap2\n      swap1\n      tag_27\n      jump\t// in\n    tag_26:\n      tag_28\n      jump\t// in\n    tag_25:\n      mload(0x40)\n      tag_29\n      swap3\n      swap2\n      swap1\n      tag_30\n      jump\t// in\n    tag_29:\n      mload(0x40)\n      dup1\n      swap2\n      sub\n      swap1\n      return\n        /* \"SimpleSwap.sol\":5116:6847  function addLiquidity(... */\n    tag_7:\n      tag_31\n      0x04\n      dup1\n      calldatasize\n      sub\n      dup2\n      add\n      swap1\n      tag_32\n      swap2\n      swap1\n      tag_33\n      jump\t// in\n    tag_32:\n      tag_34\n      jump\t// in\n    tag_31:\n      mload(0x40)\n      tag_35\n      swap4\n      swap3\n      swap2\n      swap1\n      tag_36\n      jump\t// in\n    tag_35:\n      mload(0x40)\n      dup1\n      swap2\n      sub\n      swap1\n      return\n        /* \"SimpleSwap.sol\":11626:12139  function getAmountOut(... */\n    tag_11:\n        /* \"SimpleSwap.sol\":11756:11773  uint256 amountOut */\n      0x00\n        /* \"SimpleSwap.sol\":11817:11818  0 */\n      0x00\n        /* \"SimpleSwap.sol\":11806:11814  amountIn */\n      dup5\n        /* \"SimpleSwap.sol\":11806:11818  amountIn > 0 */\n      gt\n        /* \"SimpleSwap.sol\":11806:11835  amountIn > 0 && reserveIn > 0 */\n      dup1\n      iszero\n      tag_38\n      jumpi\n      pop\n        /* \"SimpleSwap.sol\":11834:11835  0 */\n      0x00\n        /* \"SimpleSwap.sol\":11822:11831  reserveIn */\n      dup4\n        /* \"SimpleSwap.sol\":11822:11835  reserveIn > 0 */\n      gt\n        /* \"SimpleSwap.sol\":11806:11835  amountIn > 0 && reserveIn > 0 */\n    tag_38:\n        /* \"SimpleSwap.sol\":11806:11853  amountIn > 0 && reserveIn > 0 && reserveOut > 0 */\n      dup1\n      iszero\n      tag_39\n      jumpi\n      pop\n        /* \"SimpleSwap.sol\":11852:11853  0 */\n      0x00\n        /* \"SimpleSwap.sol\":11839:11849  reserveOut */\n      dup3\n        /* \"SimpleSwap.sol\":11839:11853  reserveOut > 0 */\n      gt\n        /* \"SimpleSwap.sol\":11806:11853  amountIn > 0 && reserveIn > 0 && reserveOut > 0 */\n    tag_39:\n        /* \"SimpleSwap.sol\":11785:11898  require(... */\n      tag_40\n      jumpi\n      mload(0x40)\n      0x08c379a000000000000000000000000000000000000000000000000000000000\n      dup2\n      mstore\n      0x04\n      add\n      tag_41\n      swap1\n      tag_42\n      jump\t// in\n    tag_41:\n      mload(0x40)\n      dup1\n      swap2\n      sub\n      swap1\n      revert\n    tag_40:\n        /* \"SimpleSwap.sol\":11909:11932  uint256 amountInWithFee */\n      0x00\n        /* \"SimpleSwap.sol\":11946:11949  997 */\n      0x03e5\n        /* \"SimpleSwap.sol\":11935:11943  amountIn */\n      dup6\n        /* \"SimpleSwap.sol\":11935:11949  amountIn * 997 */\n      tag_43\n      swap2\n      swap1\n      tag_44\n      jump\t// in\n    tag_43:\n        /* \"SimpleSwap.sol\":11909:11949  uint256 amountInWithFee = amountIn * 997 */\n      swap1\n      pop\n        /* \"SimpleSwap.sol\":11971:11988  uint256 numerator */\n      0x00\n        /* \"SimpleSwap.sol\":12009:12019  reserveOut */\n      dup4\n        /* \"SimpleSwap.sol\":11991:12006  amountInWithFee */\n      dup3\n        /* \"SimpleSwap.sol\":11991:12019  amountInWithFee * reserveOut */\n      tag_45\n      swap2\n      swap1\n      tag_44\n      jump\t// in\n    tag_45:\n        /* \"SimpleSwap.sol\":11971:12019  uint256 numerator = amountInWithFee * reserveOut */\n      swap1\n      pop\n        /* \"SimpleSwap.sol\":12029:12048  uint256 denominator */\n      0x00\n        /* \"SimpleSwap.sol\":12072:12087  amountInWithFee */\n      dup3\n        /* \"SimpleSwap.sol\":12064:12068  1000 */\n      0x03e8\n        /* \"SimpleSwap.sol\":12052:12061  reserveIn */\n      dup8\n        /* \"SimpleSwap.sol\":12052:12068  reserveIn * 1000 */\n      tag_46\n      swap2\n      swap1\n      tag_44\n      jump\t// in\n    tag_46:\n        /* \"SimpleSwap.sol\":12051:12087  (reserveIn * 1000) + amountInWithFee */\n      tag_47\n      swap2\n      swap1\n      tag_48\n      jump\t// in\n    tag_47:\n        /* \"SimpleSwap.sol\":12029:12087  uint256 denominator = (reserveIn * 1000) + amountInWithFee */\n      swap1\n      pop\n        /* \"SimpleSwap.sol\":12121:12132  denominator */\n      dup1\n        /* \"SimpleSwap.sol\":12109:12118  numerator */\n      dup3\n        /* \"SimpleSwap.sol\":12109:12132  numerator / denominator */\n      tag_49\n      swap2\n      swap1\n      tag_50\n      jump\t// in\n    tag_49:\n        /* \"SimpleSwap.sol\":12097:12132  amountOut = numerator / denominator */\n      swap4\n      pop\n        /* \"SimpleSwap.sol\":11775:12139  {... */\n      pop\n      pop\n      pop\n        /* \"SimpleSwap.sol\":11626:12139  function getAmountOut(... */\n      swap4\n      swap3\n      pop\n      pop\n      pop\n      jump\t// out\n        /* \"SimpleSwap.sol\":9606:11048  function swapExactTokensForTokens(... */\n    tag_17:\n        /* \"SimpleSwap.sol\":9812:9836  uint256[] memory amounts */\n      0x60\n        /* \"@openzeppelin/contracts/utils/ReentrancyGuard.sol\":2500:2521  _nonReentrantBefore() */\n      tag_52\n        /* \"@openzeppelin/contracts/utils/ReentrancyGuard.sol\":2500:2519  _nonReentrantBefore */\n      tag_53\n        /* \"@openzeppelin/contracts/utils/ReentrancyGuard.sol\":2500:2521  _nonReentrantBefore() */\n      jump\t// in\n    tag_52:\n        /* \"SimpleSwap.sol\":9875:9883  deadline */\n      dup2\n        /* \"SimpleSwap.sol\":9856:9871  block.timestamp */\n      timestamp\n        /* \"SimpleSwap.sol\":9856:9883  block.timestamp <= deadline */\n      gt\n      iszero\n        /* \"SimpleSwap.sol\":9848:9907  require(block.timestamp <= deadline, \"Transaction expired\") */\n      tag_55\n      jumpi\n      mload(0x40)\n      0x08c379a000000000000000000000000000000000000000000000000000000000\n      dup2\n      mstore\n      0x04\n      add\n      tag_56\n      swap1\n      tag_57\n      jump\t// in\n    tag_56:\n      mload(0x40)\n      dup1\n      swap2\n      sub\n      swap1\n      revert\n    tag_55:\n        /* \"SimpleSwap.sol\":9940:9941  2 */\n      0x02\n        /* \"SimpleSwap.sol\":9925:9929  path */\n      dup6\n      dup6\n        /* \"SimpleSwap.sol\":9925:9936  path.length */\n      swap1\n      pop\n        /* \"SimpleSwap.sol\":9925:9941  path.length == 2 */\n      eq\n        /* \"SimpleSwap.sol\":9917:9964  require(path.length == 2, \"Only 1 hop allowed\") */\n      tag_58\n      jumpi\n      mload(0x40)\n      0x08c379a000000000000000000000000000000000000000000000000000000000\n      dup2\n      mstore\n      0x04\n      add\n      tag_59\n      swap1\n      tag_60\n      jump\t// in\n    tag_59:\n      mload(0x40)\n      dup1\n      swap2\n      sub\n      swap1\n      revert\n    tag_58:\n        /* \"SimpleSwap.sol\":9996:9997  0 */\n      0x00\n        /* \"SimpleSwap.sol\":9982:9998  to != address(0) */\n      0xffffffffffffffffffffffffffffffffffffffff\n      and\n        /* \"SimpleSwap.sol\":9982:9984  to */\n      dup4\n        /* \"SimpleSwap.sol\":9982:9998  to != address(0) */\n      0xffffffffffffffffffffffffffffffffffffffff\n      and\n      sub\n        /* \"SimpleSwap.sol\":9974:10023  require(to != address(0), \"Invalid 'to' address\") */\n      tag_61\n      jumpi\n      mload(0x40)\n      0x08c379a000000000000000000000000000000000000000000000000000000000\n      dup2\n      mstore\n      0x04\n      add\n      tag_62\n      swap1\n      tag_63\n      jump\t// in\n    tag_62:\n      mload(0x40)\n      dup1\n      swap2\n      sub\n      swap1\n      revert\n    tag_61:\n        /* \"SimpleSwap.sol\":10052:10053  0 */\n      0x00\n        /* \"SimpleSwap.sol\":10041:10049  amountIn */\n      dup8\n        /* \"SimpleSwap.sol\":10041:10053  amountIn > 0 */\n      gt\n        /* \"SimpleSwap.sol\":10033:10075  require(amountIn > 0, \"Input must be > 0\") */\n      tag_64\n      jumpi\n      mload(0x40)\n      0x08c379a000000000000000000000000000000000000000000000000000000000\n      dup2\n      mstore\n      0x04\n      add\n      tag_65\n      swap1\n      tag_66\n      jump\t// in\n    tag_65:\n      mload(0x40)\n      dup1\n      swap2\n      sub\n      swap1\n      revert\n    tag_64:\n        /* \"SimpleSwap.sol\":10086:10102  bytes32 pairHash */\n      0x00\n        /* \"SimpleSwap.sol\":10105:10135  _getPairHash(path[0], path[1]) */\n      tag_67\n        /* \"SimpleSwap.sol\":10118:10122  path */\n      dup7\n      dup7\n        /* \"SimpleSwap.sol\":10123:10124  0 */\n      0x00\n        /* \"SimpleSwap.sol\":10118:10125  path[0] */\n      dup2\n      dup2\n      lt\n      tag_68\n      jumpi\n      tag_69\n      tag_70\n      jump\t// in\n    tag_69:\n    tag_68:\n      swap1\n      pop\n      0x20\n      mul\n      add\n      0x20\n      dup2\n      add\n      swap1\n      tag_71\n      swap2\n      swap1\n      tag_72\n      jump\t// in\n    tag_71:\n        /* \"SimpleSwap.sol\":10127:10131  path */\n      dup8\n      dup8\n        /* \"SimpleSwap.sol\":10132:10133  1 */\n      0x01\n        /* \"SimpleSwap.sol\":10127:10134  path[1] */\n      dup2\n      dup2\n      lt\n      tag_73\n      jumpi\n      tag_74\n      tag_70\n      jump\t// in\n    tag_74:\n    tag_73:\n      swap1\n      pop\n      0x20\n      mul\n      add\n      0x20\n      dup2\n      add\n      swap1\n      tag_75\n      swap2\n      swap1\n      tag_72\n      jump\t// in\n    tag_75:\n        /* \"SimpleSwap.sol\":10105:10117  _getPairHash */\n      tag_76\n        /* \"SimpleSwap.sol\":10105:10135  _getPairHash(path[0], path[1]) */\n      jump\t// in\n    tag_67:\n        /* \"SimpleSwap.sol\":10086:10135  bytes32 pairHash = _getPairHash(path[0], path[1]) */\n      swap1\n      pop\n        /* \"SimpleSwap.sol\":10145:10162  Pool storage pool */\n      0x00\n        /* \"SimpleSwap.sol\":10165:10170  pools */\n      0x01\n        /* \"SimpleSwap.sol\":10165:10180  pools[pairHash] */\n      0x00\n        /* \"SimpleSwap.sol\":10171:10179  pairHash */\n      dup4\n        /* \"SimpleSwap.sol\":10165:10180  pools[pairHash] */\n      dup2\n      mstore\n      0x20\n      add\n      swap1\n      dup2\n      mstore\n      0x20\n      add\n      0x00\n      keccak256\n        /* \"SimpleSwap.sol\":10145:10180  Pool storage pool = pools[pairHash] */\n      swap1\n      pop\n        /* \"SimpleSwap.sol\":10192:10209  uint256 reserveIn */\n      0x00\n        /* \"SimpleSwap.sol\":10211:10229  uint256 reserveOut */\n      0x00\n        /* \"SimpleSwap.sol\":10233:10322  _getReservesForSwap(... */\n      tag_77\n        /* \"SimpleSwap.sol\":10266:10270  path */\n      dup10\n      dup10\n        /* \"SimpleSwap.sol\":10271:10272  0 */\n      0x00\n        /* \"SimpleSwap.sol\":10266:10273  path[0] */\n      dup2\n      dup2\n      lt\n      tag_78\n      jumpi\n      tag_79\n      tag_70\n      jump\t// in\n    tag_79:\n    tag_78:\n      swap1\n      pop\n      0x20\n      mul\n      add\n      0x20\n      dup2\n      add\n      swap1\n      tag_80\n      swap2\n      swap1\n      tag_72\n      jump\t// in\n    tag_80:\n        /* \"SimpleSwap.sol\":10287:10291  path */\n      dup11\n      dup11\n        /* \"SimpleSwap.sol\":10292:10293  1 */\n      0x01\n        /* \"SimpleSwap.sol\":10287:10294  path[1] */\n      dup2\n      dup2\n      lt\n      tag_81\n      jumpi\n      tag_82\n      tag_70\n      jump\t// in\n    tag_82:\n    tag_81:\n      swap1\n      pop\n      0x20\n      mul\n      add\n      0x20\n      dup2\n      add\n      swap1\n      tag_83\n      swap2\n      swap1\n      tag_72\n      jump\t// in\n    tag_83:\n        /* \"SimpleSwap.sol\":10308:10312  pool */\n      dup6\n        /* \"SimpleSwap.sol\":10233:10252  _getReservesForSwap */\n      tag_84\n        /* \"SimpleSwap.sol\":10233:10322  _getReservesForSwap(... */\n      jump\t// in\n    tag_77:\n        /* \"SimpleSwap.sol\":10191:10322  (uint256 reserveIn, uint256 reserveOut) = _getReservesForSwap(... */\n      swap2\n      pop\n      swap2\n      pop\n        /* \"SimpleSwap.sol\":10353:10354  0 */\n      0x00\n        /* \"SimpleSwap.sol\":10341:10350  reserveIn */\n      dup3\n        /* \"SimpleSwap.sol\":10341:10354  reserveIn > 0 */\n      gt\n        /* \"SimpleSwap.sol\":10341:10372  reserveIn > 0 && reserveOut > 0 */\n      dup1\n      iszero\n      tag_85\n      jumpi\n      pop\n        /* \"SimpleSwap.sol\":10371:10372  0 */\n      0x00\n        /* \"SimpleSwap.sol\":10358:10368  reserveOut */\n      dup2\n        /* \"SimpleSwap.sol\":10358:10372  reserveOut > 0 */\n      gt\n        /* \"SimpleSwap.sol\":10341:10372  reserveIn > 0 && reserveOut > 0 */\n    tag_85:\n        /* \"SimpleSwap.sol\":10333:10387  require(reserveIn > 0 && reserveOut > 0, \"Empty pool\") */\n      tag_86\n      jumpi\n      mload(0x40)\n      0x08c379a000000000000000000000000000000000000000000000000000000000\n      dup2\n      mstore\n      0x04\n      add\n      tag_87\n      swap1\n      tag_88\n      jump\t// in\n    tag_87:\n      mload(0x40)\n      dup1\n      swap2\n      sub\n      swap1\n      revert\n    tag_86:\n        /* \"SimpleSwap.sol\":10398:10415  uint256 amountOut */\n      0x00\n        /* \"SimpleSwap.sol\":10418:10463  getAmountOut(amountIn, reserveIn, reserveOut) */\n      tag_89\n        /* \"SimpleSwap.sol\":10431:10439  amountIn */\n      dup13\n        /* \"SimpleSwap.sol\":10441:10450  reserveIn */\n      dup5\n        /* \"SimpleSwap.sol\":10452:10462  reserveOut */\n      dup5\n        /* \"SimpleSwap.sol\":10418:10430  getAmountOut */\n      tag_11\n        /* \"SimpleSwap.sol\":10418:10463  getAmountOut(amountIn, reserveIn, reserveOut) */\n      jump\t// in\n    tag_89:\n        /* \"SimpleSwap.sol\":10398:10463  uint256 amountOut = getAmountOut(amountIn, reserveIn, reserveOut) */\n      swap1\n      pop\n        /* \"SimpleSwap.sol\":10494:10506  amountOutMin */\n      dup11\n        /* \"SimpleSwap.sol\":10481:10490  amountOut */\n      dup2\n        /* \"SimpleSwap.sol\":10481:10506  amountOut >= amountOutMin */\n      lt\n      iszero\n        /* \"SimpleSwap.sol\":10473:10529  require(amountOut >= amountOutMin, \"Excessive slippage\") */\n      tag_90\n      jumpi\n      mload(0x40)\n      0x08c379a000000000000000000000000000000000000000000000000000000000\n      dup2\n      mstore\n      0x04\n      add\n      tag_91\n      swap1\n      tag_92\n      jump\t// in\n    tag_91:\n      mload(0x40)\n      dup1\n      swap2\n      sub\n      swap1\n      revert\n    tag_90:\n        /* \"SimpleSwap.sol\":10555:10559  path */\n      dup10\n      dup10\n        /* \"SimpleSwap.sol\":10560:10561  0 */\n      0x00\n        /* \"SimpleSwap.sol\":10555:10562  path[0] */\n      dup2\n      dup2\n      lt\n      tag_93\n      jumpi\n      tag_94\n      tag_70\n      jump\t// in\n    tag_94:\n    tag_93:\n      swap1\n      pop\n      0x20\n      mul\n      add\n      0x20\n      dup2\n      add\n      swap1\n      tag_95\n      swap2\n      swap1\n      tag_72\n      jump\t// in\n    tag_95:\n        /* \"SimpleSwap.sol\":10548:10576  IERC20(path[0]).transferFrom */\n      0xffffffffffffffffffffffffffffffffffffffff\n      and\n      0x23b872dd\n        /* \"SimpleSwap.sol\":10577:10587  msg.sender */\n      caller\n        /* \"SimpleSwap.sol\":10597:10601  this */\n      address\n        /* \"SimpleSwap.sol\":10604:10612  amountIn */\n      dup16\n        /* \"SimpleSwap.sol\":10548:10613  IERC20(path[0]).transferFrom(msg.sender, address(this), amountIn) */\n      mload(0x40)\n      dup5\n      0xffffffff\n      and\n      0xe0\n      shl\n      dup2\n      mstore\n      0x04\n      add\n      tag_96\n      swap4\n      swap3\n      swap2\n      swap1\n      tag_97\n      jump\t// in\n    tag_96:\n      0x20\n      mload(0x40)\n      dup1\n      dup4\n      sub\n      dup2\n      0x00\n      dup8\n      gas\n      call\n      iszero\n      dup1\n      iszero\n      tag_99\n      jumpi\n      returndatacopy(0x00, 0x00, returndatasize)\n      revert(0x00, returndatasize)\n    tag_99:\n      pop\n      pop\n      pop\n      pop\n      mload(0x40)\n      returndatasize\n      not(0x1f)\n      0x1f\n      dup3\n      add\n      and\n      dup3\n      add\n      dup1\n      0x40\n      mstore\n      pop\n      dup2\n      add\n      swap1\n      tag_100\n      swap2\n      swap1\n      tag_101\n      jump\t// in\n    tag_100:\n      pop\n        /* \"SimpleSwap.sol\":10630:10634  path */\n      dup10\n      dup10\n        /* \"SimpleSwap.sol\":10635:10636  1 */\n      0x01\n        /* \"SimpleSwap.sol\":10630:10637  path[1] */\n      dup2\n      dup2\n      lt\n      tag_102\n      jumpi\n      tag_103\n      tag_70\n      jump\t// in\n    tag_103:\n    tag_102:\n      swap1\n      pop\n      0x20\n      mul\n      add\n      0x20\n      dup2\n      add\n      swap1\n      tag_104\n      swap2\n      swap1\n      tag_72\n      jump\t// in\n    tag_104:\n        /* \"SimpleSwap.sol\":10623:10647  IERC20(path[1]).transfer */\n      0xffffffffffffffffffffffffffffffffffffffff\n      and\n      0xa9059cbb\n        /* \"SimpleSwap.sol\":10648:10650  to */\n      dup10\n        /* \"SimpleSwap.sol\":10652:10661  amountOut */\n      dup4\n        /* \"SimpleSwap.sol\":10623:10662  IERC20(path[1]).transfer(to, amountOut) */\n      mload(0x40)\n      dup4\n      0xffffffff\n      and\n      0xe0\n      shl\n      dup2\n      mstore\n      0x04\n      add\n      tag_105\n      swap3\n      swap2\n      swap1\n      tag_106\n      jump\t// in\n    tag_105:\n      0x20\n      mload(0x40)\n      dup1\n      dup4\n      sub\n      dup2\n      0x00\n      dup8\n      gas\n      call\n      iszero\n      dup1\n      iszero\n      tag_108\n      jumpi\n      returndatacopy(0x00, 0x00, returndatasize)\n      revert(0x00, returndatasize)\n    tag_108:\n      pop\n      pop\n      pop\n      pop\n      mload(0x40)\n      returndatasize\n      not(0x1f)\n      0x1f\n      dup3\n      add\n      and\n      dup3\n      add\n      dup1\n      0x40\n      mstore\n      pop\n      dup2\n      add\n      swap1\n      tag_109\n      swap2\n      swap1\n      tag_101\n      jump\t// in\n    tag_109:\n      pop\n        /* \"SimpleSwap.sol\":10673:10737  _updatePoolReserves(path[0], path[1], pool, amountIn, amountOut) */\n      tag_110\n        /* \"SimpleSwap.sol\":10693:10697  path */\n      dup11\n      dup11\n        /* \"SimpleSwap.sol\":10698:10699  0 */\n      0x00\n        /* \"SimpleSwap.sol\":10693:10700  path[0] */\n      dup2\n      dup2\n      lt\n      tag_111\n      jumpi\n      tag_112\n      tag_70\n      jump\t// in\n    tag_112:\n    tag_111:\n      swap1\n      pop\n      0x20\n      mul\n      add\n      0x20\n      dup2\n      add\n      swap1\n      tag_113\n      swap2\n      swap1\n      tag_72\n      jump\t// in\n    tag_113:\n        /* \"SimpleSwap.sol\":10702:10706  path */\n      dup12\n      dup12\n        /* \"SimpleSwap.sol\":10707:10708  1 */\n      0x01\n        /* \"SimpleSwap.sol\":10702:10709  path[1] */\n      dup2\n      dup2\n      lt\n      tag_114\n      jumpi\n      tag_115\n      tag_70\n      jump\t// in\n    tag_115:\n    tag_114:\n      swap1\n      pop\n      0x20\n      mul\n      add\n      0x20\n      dup2\n      add\n      swap1\n      tag_116\n      swap2\n      swap1\n      tag_72\n      jump\t// in\n    tag_116:\n        /* \"SimpleSwap.sol\":10711:10715  pool */\n      dup7\n        /* \"SimpleSwap.sol\":10717:10725  amountIn */\n      dup16\n        /* \"SimpleSwap.sol\":10727:10736  amountOut */\n      dup6\n        /* \"SimpleSwap.sol\":10673:10692  _updatePoolReserves */\n      tag_117\n        /* \"SimpleSwap.sol\":10673:10737  _updatePoolReserves(path[0], path[1], pool, amountIn, amountOut) */\n      jump\t// in\n    tag_110:\n        /* \"SimpleSwap.sol\":10825:10829  path */\n      dup10\n      dup10\n        /* \"SimpleSwap.sol\":10830:10831  1 */\n      0x01\n        /* \"SimpleSwap.sol\":10825:10832  path[1] */\n      dup2\n      dup2\n      lt\n      tag_118\n      jumpi\n      tag_119\n      tag_70\n      jump\t// in\n    tag_119:\n    tag_118:\n      swap1\n      pop\n      0x20\n      mul\n      add\n      0x20\n      dup2\n      add\n      swap1\n      tag_120\n      swap2\n      swap1\n      tag_72\n      jump\t// in\n    tag_120:\n        /* \"SimpleSwap.sol\":10753:10916  TokensSwapped(... */\n      0xffffffffffffffffffffffffffffffffffffffff\n      and\n        /* \"SimpleSwap.sol\":10804:10808  path */\n      dup11\n      dup11\n        /* \"SimpleSwap.sol\":10809:10810  0 */\n      0x00\n        /* \"SimpleSwap.sol\":10804:10811  path[0] */\n      dup2\n      dup2\n      lt\n      tag_121\n      jumpi\n      tag_122\n      tag_70\n      jump\t// in\n    tag_122:\n    tag_121:\n      swap1\n      pop\n      0x20\n      mul\n      add\n      0x20\n      dup2\n      add\n      swap1\n      tag_123\n      swap2\n      swap1\n      tag_72\n      jump\t// in\n    tag_123:\n        /* \"SimpleSwap.sol\":10753:10916  TokensSwapped(... */\n      0xffffffffffffffffffffffffffffffffffffffff\n      and\n        /* \"SimpleSwap.sol\":10780:10790  msg.sender */\n      caller\n        /* \"SimpleSwap.sol\":10753:10916  TokensSwapped(... */\n      0xffffffffffffffffffffffffffffffffffffffff\n      and\n      0x78144de69c30989060d6bc0b4e6da9a31b6497866db952e683d0221e9cd20165\n        /* \"SimpleSwap.sol\":10846:10854  amountIn */\n      dup16\n        /* \"SimpleSwap.sol\":10868:10877  amountOut */\n      dup6\n        /* \"SimpleSwap.sol\":10891:10906  block.timestamp */\n      timestamp\n        /* \"SimpleSwap.sol\":10753:10916  TokensSwapped(... */\n      mload(0x40)\n      tag_124\n      swap4\n      swap3\n      swap2\n      swap1\n      tag_36\n      jump\t// in\n    tag_124:\n      mload(0x40)\n      dup1\n      swap2\n      sub\n      swap1\n      log4\n        /* \"SimpleSwap.sol\":10951:10952  2 */\n      0x02\n        /* \"SimpleSwap.sol\":10937:10953  new uint256[](2) */\n      0xffffffffffffffff\n      dup2\n      gt\n      iszero\n      tag_125\n      jumpi\n      tag_126\n      tag_127\n      jump\t// in\n    tag_126:\n    tag_125:\n      mload(0x40)\n      swap1\n      dup1\n      dup3\n      mstore\n      dup1\n      0x20\n      mul\n      0x20\n      add\n      dup3\n      add\n      0x40\n      mstore\n      dup1\n      iszero\n      tag_128\n      jumpi\n      dup2\n      0x20\n      add\n      0x20\n      dup3\n      mul\n      dup1\n      calldatasize\n      dup4\n      calldatacopy\n      dup1\n      dup3\n      add\n      swap2\n      pop\n      pop\n      swap1\n      pop\n    tag_128:\n      pop\n        /* \"SimpleSwap.sol\":10927:10953  amounts = new uint256[](2) */\n      swap6\n      pop\n        /* \"SimpleSwap.sol\":10976:10984  amountIn */\n      dup12\n        /* \"SimpleSwap.sol\":10963:10970  amounts */\n      dup7\n        /* \"SimpleSwap.sol\":10971:10972  0 */\n      0x00\n        /* \"SimpleSwap.sol\":10963:10973  amounts[0] */\n      dup2\n      mload\n      dup2\n      lt\n      tag_129\n      jumpi\n      tag_130\n      tag_70\n      jump\t// in\n    tag_130:\n    tag_129:\n      0x20\n      mul\n      0x20\n      add\n      add\n        /* \"SimpleSwap.sol\":10963:10984  amounts[0] = amountIn */\n      dup2\n      dup2\n      mstore\n      pop\n      pop\n        /* \"SimpleSwap.sol\":11007:11016  amountOut */\n      dup1\n        /* \"SimpleSwap.sol\":10994:11001  amounts */\n      dup7\n        /* \"SimpleSwap.sol\":11002:11003  1 */\n      0x01\n        /* \"SimpleSwap.sol\":10994:11004  amounts[1] */\n      dup2\n      mload\n      dup2\n      lt\n      tag_131\n      jumpi\n      tag_132\n      tag_70\n      jump\t// in\n    tag_132:\n    tag_131:\n      0x20\n      mul\n      0x20\n      add\n      add\n        /* \"SimpleSwap.sol\":10994:11016  amounts[1] = amountOut */\n      dup2\n      dup2\n      mstore\n      pop\n      pop\n        /* \"SimpleSwap.sol\":11027:11041  return amounts */\n      pop\n      pop\n      pop\n      pop\n      pop\n        /* \"@openzeppelin/contracts/utils/ReentrancyGuard.sol\":2542:2562  _nonReentrantAfter() */\n      tag_133\n        /* \"@openzeppelin/contracts/utils/ReentrancyGuard.sol\":2542:2560  _nonReentrantAfter */\n      tag_134\n        /* \"@openzeppelin/contracts/utils/ReentrancyGuard.sol\":2542:2562  _nonReentrantAfter() */\n      jump\t// in\n    tag_133:\n        /* \"SimpleSwap.sol\":9606:11048  function swapExactTokensForTokens(... */\n      swap7\n      swap6\n      pop\n      pop\n      pop\n      pop\n      pop\n      pop\n      jump\t// out\n        /* \"SimpleSwap.sol\":11054:11620  function getPrice(address tokenA, address tokenB)... */\n    tag_23:\n        /* \"SimpleSwap.sol\":11151:11164  uint256 price */\n      0x00\n        /* \"SimpleSwap.sol\":11206:11207  0 */\n      0x00\n        /* \"SimpleSwap.sol\":11188:11208  tokenA != address(0) */\n      0xffffffffffffffffffffffffffffffffffffffff\n      and\n        /* \"SimpleSwap.sol\":11188:11194  tokenA */\n      dup4\n        /* \"SimpleSwap.sol\":11188:11208  tokenA != address(0) */\n      0xffffffffffffffffffffffffffffffffffffffff\n      and\n      eq\n      iszero\n        /* \"SimpleSwap.sol\":11188:11232  tokenA != address(0) && tokenB != address(0) */\n      dup1\n      iszero\n      tag_136\n      jumpi\n      pop\n        /* \"SimpleSwap.sol\":11230:11231  0 */\n      0x00\n        /* \"SimpleSwap.sol\":11212:11232  tokenB != address(0) */\n      0xffffffffffffffffffffffffffffffffffffffff\n      and\n        /* \"SimpleSwap.sol\":11212:11218  tokenB */\n      dup3\n        /* \"SimpleSwap.sol\":11212:11232  tokenB != address(0) */\n      0xffffffffffffffffffffffffffffffffffffffff\n      and\n      eq\n      iszero\n        /* \"SimpleSwap.sol\":11188:11232  tokenA != address(0) && tokenB != address(0) */\n    tag_136:\n        /* \"SimpleSwap.sol\":11180:11251  require(tokenA != address(0) && tokenB != address(0), \"Invalid tokens\") */\n      tag_137\n      jumpi\n      mload(0x40)\n      0x08c379a000000000000000000000000000000000000000000000000000000000\n      dup2\n      mstore\n      0x04\n      add\n      tag_138\n      swap1\n      tag_139\n      jump\t// in\n    tag_138:\n      mload(0x40)\n      dup1\n      swap2\n      sub\n      swap1\n      revert\n    tag_137:\n        /* \"SimpleSwap.sol\":11262:11278  bytes32 pairHash */\n      0x00\n        /* \"SimpleSwap.sol\":11281:11309  _getPairHash(tokenA, tokenB) */\n      tag_140\n        /* \"SimpleSwap.sol\":11294:11300  tokenA */\n      dup5\n        /* \"SimpleSwap.sol\":11302:11308  tokenB */\n      dup5\n        /* \"SimpleSwap.sol\":11281:11293  _getPairHash */\n      tag_76\n        /* \"SimpleSwap.sol\":11281:11309  _getPairHash(tokenA, tokenB) */\n      jump\t// in\n    tag_140:\n        /* \"SimpleSwap.sol\":11262:11309  bytes32 pairHash = _getPairHash(tokenA, tokenB) */\n      swap1\n      pop\n        /* \"SimpleSwap.sol\":11319:11336  Pool storage pool */\n      0x00\n        /* \"SimpleSwap.sol\":11339:11344  pools */\n      0x01\n        /* \"SimpleSwap.sol\":11339:11354  pools[pairHash] */\n      0x00\n        /* \"SimpleSwap.sol\":11345:11353  pairHash */\n      dup4\n        /* \"SimpleSwap.sol\":11339:11354  pools[pairHash] */\n      dup2\n      mstore\n      0x20\n      add\n      swap1\n      dup2\n      mstore\n      0x20\n      add\n      0x00\n      keccak256\n        /* \"SimpleSwap.sol\":11319:11354  Pool storage pool = pools[pairHash] */\n      swap1\n      pop\n        /* \"SimpleSwap.sol\":11389:11390  0 */\n      0x00\n        /* \"SimpleSwap.sol\":11373:11377  pool */\n      dup2\n        /* \"SimpleSwap.sol\":11373:11386  pool.reserveA */\n      0x00\n      add\n      sload\n        /* \"SimpleSwap.sol\":11373:11390  pool.reserveA > 0 */\n      gt\n        /* \"SimpleSwap.sol\":11373:11411  pool.reserveA > 0 && pool.reserveB > 0 */\n      dup1\n      iszero\n      tag_141\n      jumpi\n      pop\n        /* \"SimpleSwap.sol\":11410:11411  0 */\n      0x00\n        /* \"SimpleSwap.sol\":11394:11398  pool */\n      dup2\n        /* \"SimpleSwap.sol\":11394:11407  pool.reserveB */\n      0x01\n      add\n      sload\n        /* \"SimpleSwap.sol\":11394:11411  pool.reserveB > 0 */\n      gt\n        /* \"SimpleSwap.sol\":11373:11411  pool.reserveA > 0 && pool.reserveB > 0 */\n    tag_141:\n        /* \"SimpleSwap.sol\":11365:11436  require(pool.reserveA > 0 && pool.reserveB > 0, \"No liquidity in pool\") */\n      tag_142\n      jumpi\n      mload(0x40)\n      0x08c379a000000000000000000000000000000000000000000000000000000000\n      dup2\n      mstore\n      0x04\n      add\n      tag_143\n      swap1\n      tag_144\n      jump\t// in\n    tag_143:\n      mload(0x40)\n      dup1\n      swap2\n      sub\n      swap1\n      revert\n    tag_142:\n        /* \"SimpleSwap.sol\":11460:11466  tokenB */\n      dup4\n        /* \"SimpleSwap.sol\":11451:11466  tokenA < tokenB */\n      0xffffffffffffffffffffffffffffffffffffffff\n      and\n        /* \"SimpleSwap.sol\":11451:11457  tokenA */\n      dup6\n        /* \"SimpleSwap.sol\":11451:11466  tokenA < tokenB */\n      0xffffffffffffffffffffffffffffffffffffffff\n      and\n      lt\n        /* \"SimpleSwap.sol\":11447:11614  if (tokenA < tokenB) {... */\n      iszero\n      tag_145\n      jumpi\n        /* \"SimpleSwap.sol\":11514:11518  pool */\n      dup1\n        /* \"SimpleSwap.sol\":11514:11527  pool.reserveA */\n      0x00\n      add\n      sload\n        /* \"SimpleSwap.sol\":11506:11510  1e18 */\n      0x0de0b6b3a7640000\n        /* \"SimpleSwap.sol\":11490:11494  pool */\n      dup3\n        /* \"SimpleSwap.sol\":11490:11503  pool.reserveB */\n      0x01\n      add\n      sload\n        /* \"SimpleSwap.sol\":11490:11510  pool.reserveB * 1e18 */\n      tag_146\n      swap2\n      swap1\n      tag_44\n      jump\t// in\n    tag_146:\n        /* \"SimpleSwap.sol\":11489:11527  (pool.reserveB * 1e18) / pool.reserveA */\n      tag_147\n      swap2\n      swap1\n      tag_50\n      jump\t// in\n    tag_147:\n        /* \"SimpleSwap.sol\":11482:11527  return (pool.reserveB * 1e18) / pool.reserveA */\n      swap3\n      pop\n      pop\n      pop\n      jump(tag_135)\n        /* \"SimpleSwap.sol\":11447:11614  if (tokenA < tokenB) {... */\n    tag_145:\n        /* \"SimpleSwap.sol\":11590:11594  pool */\n      dup1\n        /* \"SimpleSwap.sol\":11590:11603  pool.reserveB */\n      0x01\n      add\n      sload\n        /* \"SimpleSwap.sol\":11582:11586  1e18 */\n      0x0de0b6b3a7640000\n        /* \"SimpleSwap.sol\":11566:11570  pool */\n      dup3\n        /* \"SimpleSwap.sol\":11566:11579  pool.reserveA */\n      0x00\n      add\n      sload\n        /* \"SimpleSwap.sol\":11566:11586  pool.reserveA * 1e18 */\n      tag_149\n      swap2\n      swap1\n      tag_44\n      jump\t// in\n    tag_149:\n        /* \"SimpleSwap.sol\":11565:11603  (pool.reserveA * 1e18) / pool.reserveB */\n      tag_150\n      swap2\n      swap1\n      tag_50\n      jump\t// in\n    tag_150:\n        /* \"SimpleSwap.sol\":11558:11603  return (pool.reserveA * 1e18) / pool.reserveB */\n      swap3\n      pop\n      pop\n      pop\n        /* \"SimpleSwap.sol\":11054:11620  function getPrice(address tokenA, address tokenB)... */\n    tag_135:\n      swap3\n      swap2\n      pop\n      pop\n      jump\t// out\n        /* \"SimpleSwap.sol\":6853:8666  function removeLiquidity(... */\n    tag_28:\n        /* \"SimpleSwap.sol\":7092:7107  uint256 amountA */\n      0x00\n        /* \"SimpleSwap.sol\":7109:7124  uint256 amountB */\n      0x00\n        /* \"@openzeppelin/contracts/utils/ReentrancyGuard.sol\":2500:2521  _nonReentrantBefore() */\n      tag_152\n        /* \"@openzeppelin/contracts/utils/ReentrancyGuard.sol\":2500:2519  _nonReentrantBefore */\n      tag_53\n        /* \"@openzeppelin/contracts/utils/ReentrancyGuard.sol\":2500:2521  _nonReentrantBefore() */\n      jump\t// in\n    tag_152:\n        /* \"SimpleSwap.sol\":7163:7171  deadline */\n      dup3\n        /* \"SimpleSwap.sol\":7144:7159  block.timestamp */\n      timestamp\n        /* \"SimpleSwap.sol\":7144:7171  block.timestamp <= deadline */\n      gt\n      iszero\n        /* \"SimpleSwap.sol\":7136:7195  require(block.timestamp <= deadline, \"Transaction expired\") */\n      tag_154\n      jumpi\n      mload(0x40)\n      0x08c379a000000000000000000000000000000000000000000000000000000000\n      dup2\n      mstore\n      0x04\n      add\n      tag_155\n      swap1\n      tag_57\n      jump\t// in\n    tag_155:\n      mload(0x40)\n      dup1\n      swap2\n      sub\n      swap1\n      revert\n    tag_154:\n        /* \"SimpleSwap.sol\":7227:7228  0 */\n      0x00\n        /* \"SimpleSwap.sol\":7213:7229  to != address(0) */\n      0xffffffffffffffffffffffffffffffffffffffff\n      and\n        /* \"SimpleSwap.sol\":7213:7215  to */\n      dup5\n        /* \"SimpleSwap.sol\":7213:7229  to != address(0) */\n      0xffffffffffffffffffffffffffffffffffffffff\n      and\n      sub\n        /* \"SimpleSwap.sol\":7205:7254  require(to != address(0), \"Invalid 'to' address\") */\n      tag_156\n      jumpi\n      mload(0x40)\n      0x08c379a000000000000000000000000000000000000000000000000000000000\n      dup2\n      mstore\n      0x04\n      add\n      tag_157\n      swap1\n      tag_63\n      jump\t// in\n    tag_157:\n      mload(0x40)\n      dup1\n      swap2\n      sub\n      swap1\n      revert\n    tag_156:\n        /* \"SimpleSwap.sol\":7284:7285  0 */\n      0x00\n        /* \"SimpleSwap.sol\":7272:7281  liquidity */\n      dup8\n        /* \"SimpleSwap.sol\":7272:7285  liquidity > 0 */\n      gt\n        /* \"SimpleSwap.sol\":7264:7311  require(liquidity > 0, \"Liquidity must be > 0\") */\n      tag_158\n      jumpi\n      mload(0x40)\n      0x08c379a000000000000000000000000000000000000000000000000000000000\n      dup2\n      mstore\n      0x04\n      add\n      tag_159\n      swap1\n      tag_160\n      jump\t// in\n    tag_159:\n      mload(0x40)\n      dup1\n      swap2\n      sub\n      swap1\n      revert\n    tag_158:\n        /* \"SimpleSwap.sol\":7323:7337  address token0 */\n      0x00\n        /* \"SimpleSwap.sol\":7343:7370  _sortTokens(tokenA, tokenB) */\n      tag_161\n        /* \"SimpleSwap.sol\":7355:7361  tokenA */\n      dup11\n        /* \"SimpleSwap.sol\":7363:7369  tokenB */\n      dup11\n        /* \"SimpleSwap.sol\":7343:7354  _sortTokens */\n      tag_162\n        /* \"SimpleSwap.sol\":7343:7370  _sortTokens(tokenA, tokenB) */\n      jump\t// in\n    tag_161:\n        /* \"SimpleSwap.sol\":7322:7370  (address token0, ) = _sortTokens(tokenA, tokenB) */\n      pop\n      swap1\n      pop\n        /* \"SimpleSwap.sol\":7380:7396  bytes32 pairHash */\n      0x00\n        /* \"SimpleSwap.sol\":7399:7427  _getPairHash(tokenA, tokenB) */\n      tag_163\n        /* \"SimpleSwap.sol\":7412:7418  tokenA */\n      dup12\n        /* \"SimpleSwap.sol\":7420:7426  tokenB */\n      dup12\n        /* \"SimpleSwap.sol\":7399:7411  _getPairHash */\n      tag_76\n        /* \"SimpleSwap.sol\":7399:7427  _getPairHash(tokenA, tokenB) */\n      jump\t// in\n    tag_163:\n        /* \"SimpleSwap.sol\":7380:7427  bytes32 pairHash = _getPairHash(tokenA, tokenB) */\n      swap1\n      pop\n        /* \"SimpleSwap.sol\":7437:7454  Pool storage pool */\n      0x00\n        /* \"SimpleSwap.sol\":7457:7462  pools */\n      0x01\n        /* \"SimpleSwap.sol\":7457:7472  pools[pairHash] */\n      0x00\n        /* \"SimpleSwap.sol\":7463:7471  pairHash */\n      dup4\n        /* \"SimpleSwap.sol\":7457:7472  pools[pairHash] */\n      dup2\n      mstore\n      0x20\n      add\n      swap1\n      dup2\n      mstore\n      0x20\n      add\n      0x00\n      keccak256\n        /* \"SimpleSwap.sol\":7437:7472  Pool storage pool = pools[pairHash] */\n      swap1\n      pop\n        /* \"SimpleSwap.sol\":7542:7551  liquidity */\n      dup10\n        /* \"SimpleSwap.sol\":7504:7508  pool */\n      dup2\n        /* \"SimpleSwap.sol\":7504:7526  pool.liquidityProvided */\n      0x03\n      add\n        /* \"SimpleSwap.sol\":7504:7538  pool.liquidityProvided[msg.sender] */\n      0x00\n        /* \"SimpleSwap.sol\":7527:7537  msg.sender */\n      caller\n        /* \"SimpleSwap.sol\":7504:7538  pool.liquidityProvided[msg.sender] */\n      0xffffffffffffffffffffffffffffffffffffffff\n      and\n      0xffffffffffffffffffffffffffffffffffffffff\n      and\n      dup2\n      mstore\n      0x20\n      add\n      swap1\n      dup2\n      mstore\n      0x20\n      add\n      0x00\n      keccak256\n      sload\n        /* \"SimpleSwap.sol\":7504:7551  pool.liquidityProvided[msg.sender] >= liquidity */\n      lt\n      iszero\n        /* \"SimpleSwap.sol\":7483:7599  require(... */\n      tag_164\n      jumpi\n      mload(0x40)\n      0x08c379a000000000000000000000000000000000000000000000000000000000\n      dup2\n      mstore\n      0x04\n      add\n      tag_165\n      swap1\n      tag_166\n      jump\t// in\n    tag_165:\n      mload(0x40)\n      dup1\n      swap2\n      sub\n      swap1\n      revert\n    tag_164:\n        /* \"SimpleSwap.sol\":7639:7640  0 */\n      0x00\n        /* \"SimpleSwap.sol\":7617:7621  pool */\n      dup2\n        /* \"SimpleSwap.sol\":7617:7636  pool.totalLiquidity */\n      0x02\n      add\n      sload\n        /* \"SimpleSwap.sol\":7617:7640  pool.totalLiquidity > 0 */\n      gt\n        /* \"SimpleSwap.sol\":7609:7665  require(pool.totalLiquidity > 0, \"Empty liquidity pool\") */\n      tag_167\n      jumpi\n      mload(0x40)\n      0x08c379a000000000000000000000000000000000000000000000000000000000\n      dup2\n      mstore\n      0x04\n      add\n      tag_168\n      swap1\n      tag_169\n      jump\t// in\n    tag_168:\n      mload(0x40)\n      dup1\n      swap2\n      sub\n      swap1\n      revert\n    tag_167:\n        /* \"SimpleSwap.sol\":7676:7699  uint256 currentReserve0 */\n      0x00\n        /* \"SimpleSwap.sol\":7712:7718  token0 */\n      dup4\n        /* \"SimpleSwap.sol\":7702:7718  tokenA == token0 */\n      0xffffffffffffffffffffffffffffffffffffffff\n      and\n        /* \"SimpleSwap.sol\":7702:7708  tokenA */\n      dup14\n        /* \"SimpleSwap.sol\":7702:7718  tokenA == token0 */\n      0xffffffffffffffffffffffffffffffffffffffff\n      and\n      eq\n        /* \"SimpleSwap.sol\":7702:7774  tokenA == token0... */\n      tag_170\n      jumpi\n        /* \"SimpleSwap.sol\":7761:7765  pool */\n      dup2\n        /* \"SimpleSwap.sol\":7761:7774  pool.reserveB */\n      0x01\n      add\n      sload\n        /* \"SimpleSwap.sol\":7702:7774  tokenA == token0... */\n      jump(tag_171)\n    tag_170:\n        /* \"SimpleSwap.sol\":7733:7737  pool */\n      dup2\n        /* \"SimpleSwap.sol\":7733:7746  pool.reserveA */\n      0x00\n      add\n      sload\n        /* \"SimpleSwap.sol\":7702:7774  tokenA == token0... */\n    tag_171:\n        /* \"SimpleSwap.sol\":7676:7774  uint256 currentReserve0 = tokenA == token0... */\n      swap1\n      pop\n        /* \"SimpleSwap.sol\":7784:7807  uint256 currentReserve1 */\n      0x00\n        /* \"SimpleSwap.sol\":7820:7826  token0 */\n      dup5\n        /* \"SimpleSwap.sol\":7810:7826  tokenA == token0 */\n      0xffffffffffffffffffffffffffffffffffffffff\n      and\n        /* \"SimpleSwap.sol\":7810:7816  tokenA */\n      dup15\n        /* \"SimpleSwap.sol\":7810:7826  tokenA == token0 */\n      0xffffffffffffffffffffffffffffffffffffffff\n      and\n      eq\n        /* \"SimpleSwap.sol\":7810:7882  tokenA == token0... */\n      tag_172\n      jumpi\n        /* \"SimpleSwap.sol\":7869:7873  pool */\n      dup3\n        /* \"SimpleSwap.sol\":7869:7882  pool.reserveA */\n      0x00\n      add\n      sload\n        /* \"SimpleSwap.sol\":7810:7882  tokenA == token0... */\n      jump(tag_173)\n    tag_172:\n        /* \"SimpleSwap.sol\":7841:7845  pool */\n      dup3\n        /* \"SimpleSwap.sol\":7841:7854  pool.reserveB */\n      0x01\n      add\n      sload\n        /* \"SimpleSwap.sol\":7810:7882  tokenA == token0... */\n    tag_173:\n        /* \"SimpleSwap.sol\":7784:7882  uint256 currentReserve1 = tokenA == token0... */\n      swap1\n      pop\n        /* \"SimpleSwap.sol\":7935:7939  pool */\n      dup3\n        /* \"SimpleSwap.sol\":7935:7954  pool.totalLiquidity */\n      0x02\n      add\n      sload\n        /* \"SimpleSwap.sol\":7916:7931  currentReserve0 */\n      dup3\n        /* \"SimpleSwap.sol\":7904:7913  liquidity */\n      dup14\n        /* \"SimpleSwap.sol\":7904:7931  liquidity * currentReserve0 */\n      tag_174\n      swap2\n      swap1\n      tag_44\n      jump\t// in\n    tag_174:\n        /* \"SimpleSwap.sol\":7903:7954  (liquidity * currentReserve0) / pool.totalLiquidity */\n      tag_175\n      swap2\n      swap1\n      tag_50\n      jump\t// in\n    tag_175:\n        /* \"SimpleSwap.sol\":7893:7954  amountA = (liquidity * currentReserve0) / pool.totalLiquidity */\n      swap7\n      pop\n        /* \"SimpleSwap.sol\":8006:8010  pool */\n      dup3\n        /* \"SimpleSwap.sol\":8006:8025  pool.totalLiquidity */\n      0x02\n      add\n      sload\n        /* \"SimpleSwap.sol\":7987:8002  currentReserve1 */\n      dup2\n        /* \"SimpleSwap.sol\":7975:7984  liquidity */\n      dup14\n        /* \"SimpleSwap.sol\":7975:8002  liquidity * currentReserve1 */\n      tag_176\n      swap2\n      swap1\n      tag_44\n      jump\t// in\n    tag_176:\n        /* \"SimpleSwap.sol\":7974:8025  (liquidity * currentReserve1) / pool.totalLiquidity */\n      tag_177\n      swap2\n      swap1\n      tag_50\n      jump\t// in\n    tag_177:\n        /* \"SimpleSwap.sol\":7964:8025  amountB = (liquidity * currentReserve1) / pool.totalLiquidity */\n      swap6\n      pop\n        /* \"SimpleSwap.sol\":8055:8065  amountAMin */\n      dup11\n        /* \"SimpleSwap.sol\":8044:8051  amountA */\n      dup8\n        /* \"SimpleSwap.sol\":8044:8065  amountA >= amountAMin */\n      lt\n      iszero\n        /* \"SimpleSwap.sol\":8036:8091  require(amountA >= amountAMin, \"TokenA slippage error\") */\n      tag_178\n      jumpi\n      mload(0x40)\n      0x08c379a000000000000000000000000000000000000000000000000000000000\n      dup2\n      mstore\n      0x04\n      add\n      tag_179\n      swap1\n      tag_180\n      jump\t// in\n    tag_179:\n      mload(0x40)\n      dup1\n      swap2\n      sub\n      swap1\n      revert\n    tag_178:\n        /* \"SimpleSwap.sol\":8120:8130  amountBMin */\n      dup10\n        /* \"SimpleSwap.sol\":8109:8116  amountB */\n      dup7\n        /* \"SimpleSwap.sol\":8109:8130  amountB >= amountBMin */\n      lt\n      iszero\n        /* \"SimpleSwap.sol\":8101:8156  require(amountB >= amountBMin, \"TokenB slippage error\") */\n      tag_181\n      jumpi\n      mload(0x40)\n      0x08c379a000000000000000000000000000000000000000000000000000000000\n      dup2\n      mstore\n      0x04\n      add\n      tag_182\n      swap1\n      tag_183\n      jump\t// in\n    tag_182:\n      mload(0x40)\n      dup1\n      swap2\n      sub\n      swap1\n      revert\n    tag_181:\n        /* \"SimpleSwap.sol\":8190:8199  liquidity */\n      dup12\n        /* \"SimpleSwap.sol\":8167:8171  pool */\n      dup4\n        /* \"SimpleSwap.sol\":8167:8186  pool.totalLiquidity */\n      0x02\n      add\n      0x00\n        /* \"SimpleSwap.sol\":8167:8199  pool.totalLiquidity -= liquidity */\n      dup3\n      dup3\n      sload\n      tag_184\n      swap2\n      swap1\n      tag_185\n      jump\t// in\n    tag_184:\n      swap3\n      pop\n      pop\n      dup2\n      swap1\n      sstore\n      pop\n        /* \"SimpleSwap.sol\":8247:8256  liquidity */\n      dup12\n        /* \"SimpleSwap.sol\":8209:8213  pool */\n      dup4\n        /* \"SimpleSwap.sol\":8209:8231  pool.liquidityProvided */\n      0x03\n      add\n        /* \"SimpleSwap.sol\":8209:8243  pool.liquidityProvided[msg.sender] */\n      0x00\n        /* \"SimpleSwap.sol\":8232:8242  msg.sender */\n      caller\n        /* \"SimpleSwap.sol\":8209:8243  pool.liquidityProvided[msg.sender] */\n      0xffffffffffffffffffffffffffffffffffffffff\n      and\n      0xffffffffffffffffffffffffffffffffffffffff\n      and\n      dup2\n      mstore\n      0x20\n      add\n      swap1\n      dup2\n      mstore\n      0x20\n      add\n      0x00\n      keccak256\n      0x00\n        /* \"SimpleSwap.sol\":8209:8256  pool.liquidityProvided[msg.sender] -= liquidity */\n      dup3\n      dup3\n      sload\n      tag_186\n      swap2\n      swap1\n      tag_185\n      jump\t// in\n    tag_186:\n      swap3\n      pop\n      pop\n      dup2\n      swap1\n      sstore\n      pop\n        /* \"SimpleSwap.sol\":8281:8287  token0 */\n      dup5\n        /* \"SimpleSwap.sol\":8271:8287  tokenA == token0 */\n      0xffffffffffffffffffffffffffffffffffffffff\n      and\n        /* \"SimpleSwap.sol\":8271:8277  tokenA */\n      dup15\n        /* \"SimpleSwap.sol\":8271:8287  tokenA == token0 */\n      0xffffffffffffffffffffffffffffffffffffffff\n      and\n      sub\n        /* \"SimpleSwap.sol\":8267:8469  if (tokenA == token0) {... */\n      tag_187\n      jumpi\n        /* \"SimpleSwap.sol\":8320:8327  amountA */\n      dup7\n        /* \"SimpleSwap.sol\":8303:8307  pool */\n      dup4\n        /* \"SimpleSwap.sol\":8303:8316  pool.reserveA */\n      0x00\n      add\n      0x00\n        /* \"SimpleSwap.sol\":8303:8327  pool.reserveA -= amountA */\n      dup3\n      dup3\n      sload\n      tag_188\n      swap2\n      swap1\n      tag_185\n      jump\t// in\n    tag_188:\n      swap3\n      pop\n      pop\n      dup2\n      swap1\n      sstore\n      pop\n        /* \"SimpleSwap.sol\":8358:8365  amountB */\n      dup6\n        /* \"SimpleSwap.sol\":8341:8345  pool */\n      dup4\n        /* \"SimpleSwap.sol\":8341:8354  pool.reserveB */\n      0x01\n      add\n      0x00\n        /* \"SimpleSwap.sol\":8341:8365  pool.reserveB -= amountB */\n      dup3\n      dup3\n      sload\n      tag_189\n      swap2\n      swap1\n      tag_185\n      jump\t// in\n    tag_189:\n      swap3\n      pop\n      pop\n      dup2\n      swap1\n      sstore\n      pop\n        /* \"SimpleSwap.sol\":8267:8469  if (tokenA == token0) {... */\n      jump(tag_190)\n    tag_187:\n        /* \"SimpleSwap.sol\":8413:8420  amountB */\n      dup6\n        /* \"SimpleSwap.sol\":8396:8400  pool */\n      dup4\n        /* \"SimpleSwap.sol\":8396:8409  pool.reserveA */\n      0x00\n      add\n      0x00\n        /* \"SimpleSwap.sol\":8396:8420  pool.reserveA -= amountB */\n      dup3\n      dup3\n      sload\n      tag_191\n      swap2\n      swap1\n      tag_185\n      jump\t// in\n    tag_191:\n      swap3\n      pop\n      pop\n      dup2\n      swap1\n      sstore\n      pop\n        /* \"SimpleSwap.sol\":8451:8458  amountA */\n      dup7\n        /* \"SimpleSwap.sol\":8434:8438  pool */\n      dup4\n        /* \"SimpleSwap.sol\":8434:8447  pool.reserveB */\n      0x01\n      add\n      0x00\n        /* \"SimpleSwap.sol\":8434:8458  pool.reserveB -= amountA */\n      dup3\n      dup3\n      sload\n      tag_192\n      swap2\n      swap1\n      tag_185\n      jump\t// in\n    tag_192:\n      swap3\n      pop\n      pop\n      dup2\n      swap1\n      sstore\n      pop\n        /* \"SimpleSwap.sol\":8267:8469  if (tokenA == token0) {... */\n    tag_190:\n        /* \"SimpleSwap.sol\":8486:8492  tokenA */\n      dup14\n        /* \"SimpleSwap.sol\":8479:8502  IERC20(tokenA).transfer */\n      0xffffffffffffffffffffffffffffffffffffffff\n      and\n      0xa9059cbb\n        /* \"SimpleSwap.sol\":8503:8505  to */\n      dup11\n        /* \"SimpleSwap.sol\":8507:8514  amountA */\n      dup10\n        /* \"SimpleSwap.sol\":8479:8515  IERC20(tokenA).transfer(to, amountA) */\n      mload(0x40)\n      dup4\n      0xffffffff\n      and\n      0xe0\n      shl\n      dup2\n      mstore\n      0x04\n      add\n      tag_193\n      swap3\n      swap2\n      swap1\n      tag_106\n      jump\t// in\n    tag_193:\n      0x20\n      mload(0x40)\n      dup1\n      dup4\n      sub\n      dup2\n      0x00\n      dup8\n      gas\n      call\n      iszero\n      dup1\n      iszero\n      tag_195\n      jumpi\n      returndatacopy(0x00, 0x00, returndatasize)\n      revert(0x00, returndatasize)\n    tag_195:\n      pop\n      pop\n      pop\n      pop\n      mload(0x40)\n      returndatasize\n      not(0x1f)\n      0x1f\n      dup3\n      add\n      and\n      dup3\n      add\n      dup1\n      0x40\n      mstore\n      pop\n      dup2\n      add\n      swap1\n      tag_196\n      swap2\n      swap1\n      tag_101\n      jump\t// in\n    tag_196:\n      pop\n        /* \"SimpleSwap.sol\":8532:8538  tokenB */\n      dup13\n        /* \"SimpleSwap.sol\":8525:8548  IERC20(tokenB).transfer */\n      0xffffffffffffffffffffffffffffffffffffffff\n      and\n      0xa9059cbb\n        /* \"SimpleSwap.sol\":8549:8551  to */\n      dup11\n        /* \"SimpleSwap.sol\":8553:8560  amountB */\n      dup9\n        /* \"SimpleSwap.sol\":8525:8561  IERC20(tokenB).transfer(to, amountB) */\n      mload(0x40)\n      dup4\n      0xffffffff\n      and\n      0xe0\n      shl\n      dup2\n      mstore\n      0x04\n      add\n      tag_197\n      swap3\n      swap2\n      swap1\n      tag_106\n      jump\t// in\n    tag_197:\n      0x20\n      mload(0x40)\n      dup1\n      dup4\n      sub\n      dup2\n      0x00\n      dup8\n      gas\n      call\n      iszero\n      dup1\n      iszero\n      tag_199\n      jumpi\n      returndatacopy(0x00, 0x00, returndatasize)\n      revert(0x00, returndatasize)\n    tag_199:\n      pop\n      pop\n      pop\n      pop\n      mload(0x40)\n      returndatasize\n      not(0x1f)\n      0x1f\n      dup3\n      add\n      and\n      dup3\n      add\n      dup1\n      0x40\n      mstore\n      pop\n      dup2\n      add\n      swap1\n      tag_200\n      swap2\n      swap1\n      tag_101\n      jump\t// in\n    tag_200:\n      pop\n        /* \"SimpleSwap.sol\":8594:8604  msg.sender */\n      caller\n        /* \"SimpleSwap.sol\":8577:8623  LiquidityRemoved(msg.sender, amountA, amountB) */\n      0xffffffffffffffffffffffffffffffffffffffff\n      and\n      0x96cd817c6329656790ef8fba7675405193677d39619571282f5e21f3a98cd059\n        /* \"SimpleSwap.sol\":8606:8613  amountA */\n      dup9\n        /* \"SimpleSwap.sol\":8615:8622  amountB */\n      dup9\n        /* \"SimpleSwap.sol\":8577:8623  LiquidityRemoved(msg.sender, amountA, amountB) */\n      mload(0x40)\n      tag_201\n      swap3\n      swap2\n      swap1\n      tag_30\n      jump\t// in\n    tag_201:\n      mload(0x40)\n      dup1\n      swap2\n      sub\n      swap1\n      log2\n        /* \"SimpleSwap.sol\":8634:8659  return (amountA, amountB) */\n      pop\n      pop\n      pop\n      pop\n      pop\n        /* \"@openzeppelin/contracts/utils/ReentrancyGuard.sol\":2542:2562  _nonReentrantAfter() */\n      tag_202\n        /* \"@openzeppelin/contracts/utils/ReentrancyGuard.sol\":2542:2560  _nonReentrantAfter */\n      tag_134\n        /* \"@openzeppelin/contracts/utils/ReentrancyGuard.sol\":2542:2562  _nonReentrantAfter() */\n      jump\t// in\n    tag_202:\n        /* \"SimpleSwap.sol\":6853:8666  function removeLiquidity(... */\n      swap8\n      pop\n      swap8\n      swap6\n      pop\n      pop\n      pop\n      pop\n      pop\n      pop\n      jump\t// out\n        /* \"SimpleSwap.sol\":5116:6847  function addLiquidity(... */\n    tag_34:\n        /* \"SimpleSwap.sol\":5593:5608  uint256 amountA */\n      0x00\n        /* \"SimpleSwap.sol\":5622:5637  uint256 amountB */\n      0x00\n        /* \"SimpleSwap.sol\":5651:5668  uint256 liquidity */\n      0x00\n        /* \"@openzeppelin/contracts/utils/ReentrancyGuard.sol\":2500:2521  _nonReentrantBefore() */\n      tag_204\n        /* \"@openzeppelin/contracts/utils/ReentrancyGuard.sol\":2500:2519  _nonReentrantBefore */\n      tag_53\n        /* \"@openzeppelin/contracts/utils/ReentrancyGuard.sol\":2500:2521  _nonReentrantBefore() */\n      jump\t// in\n    tag_204:\n        /* \"SimpleSwap.sol\":5720:5728  deadline */\n      dup4\n        /* \"SimpleSwap.sol\":5701:5716  block.timestamp */\n      timestamp\n        /* \"SimpleSwap.sol\":5701:5728  block.timestamp <= deadline */\n      gt\n      iszero\n        /* \"SimpleSwap.sol\":5693:5752  require(block.timestamp <= deadline, \"Transaction expired\") */\n      tag_206\n      jumpi\n      mload(0x40)\n      0x08c379a000000000000000000000000000000000000000000000000000000000\n      dup2\n      mstore\n      0x04\n      add\n      tag_207\n      swap1\n      tag_57\n      jump\t// in\n    tag_207:\n      mload(0x40)\n      dup1\n      swap2\n      sub\n      swap1\n      revert\n    tag_206:\n        /* \"SimpleSwap.sol\":5784:5785  0 */\n      0x00\n        /* \"SimpleSwap.sol\":5770:5786  to != address(0) */\n      0xffffffffffffffffffffffffffffffffffffffff\n      and\n        /* \"SimpleSwap.sol\":5770:5772  to */\n      dup6\n        /* \"SimpleSwap.sol\":5770:5786  to != address(0) */\n      0xffffffffffffffffffffffffffffffffffffffff\n      and\n      sub\n        /* \"SimpleSwap.sol\":5762:5811  require(to != address(0), \"Invalid 'to' address\") */\n      tag_208\n      jumpi\n      mload(0x40)\n      0x08c379a000000000000000000000000000000000000000000000000000000000\n      dup2\n      mstore\n      0x04\n      add\n      tag_209\n      swap1\n      tag_63\n      jump\t// in\n    tag_209:\n      mload(0x40)\n      dup1\n      swap2\n      sub\n      swap1\n      revert\n    tag_208:\n        /* \"SimpleSwap.sol\":5823:5837  address token0 */\n      0x00\n        /* \"SimpleSwap.sol\":5843:5870  _sortTokens(tokenA, tokenB) */\n      tag_210\n        /* \"SimpleSwap.sol\":5855:5861  tokenA */\n      dup13\n        /* \"SimpleSwap.sol\":5863:5869  tokenB */\n      dup13\n        /* \"SimpleSwap.sol\":5843:5854  _sortTokens */\n      tag_162\n        /* \"SimpleSwap.sol\":5843:5870  _sortTokens(tokenA, tokenB) */\n      jump\t// in\n    tag_210:\n        /* \"SimpleSwap.sol\":5822:5870  (address token0, ) = _sortTokens(tokenA, tokenB) */\n      pop\n      swap1\n      pop\n        /* \"SimpleSwap.sol\":5880:5896  bytes32 pairHash */\n      0x00\n        /* \"SimpleSwap.sol\":5899:5927  _getPairHash(tokenA, tokenB) */\n      tag_211\n        /* \"SimpleSwap.sol\":5912:5918  tokenA */\n      dup14\n        /* \"SimpleSwap.sol\":5920:5926  tokenB */\n      dup14\n        /* \"SimpleSwap.sol\":5899:5911  _getPairHash */\n      tag_76\n        /* \"SimpleSwap.sol\":5899:5927  _getPairHash(tokenA, tokenB) */\n      jump\t// in\n    tag_211:\n        /* \"SimpleSwap.sol\":5880:5927  bytes32 pairHash = _getPairHash(tokenA, tokenB) */\n      swap1\n      pop\n        /* \"SimpleSwap.sol\":5937:5954  Pool storage pool */\n      0x00\n        /* \"SimpleSwap.sol\":5957:5962  pools */\n      0x01\n        /* \"SimpleSwap.sol\":5957:5972  pools[pairHash] */\n      0x00\n        /* \"SimpleSwap.sol\":5963:5971  pairHash */\n      dup4\n        /* \"SimpleSwap.sol\":5957:5972  pools[pairHash] */\n      dup2\n      mstore\n      0x20\n      add\n      swap1\n      dup2\n      mstore\n      0x20\n      add\n      0x00\n      keccak256\n        /* \"SimpleSwap.sol\":5937:5972  Pool storage pool = pools[pairHash] */\n      swap1\n      pop\n        /* \"SimpleSwap.sol\":6061:6274  _calculateAddLiquidityAmountsAndLiquidity(... */\n      tag_212\n        /* \"SimpleSwap.sol\":6116:6122  tokenA */\n      dup15\n        /* \"SimpleSwap.sol\":6136:6142  token0 */\n      dup5\n        /* \"SimpleSwap.sol\":6156:6170  amountADesired */\n      dup15\n        /* \"SimpleSwap.sol\":6184:6198  amountBDesired */\n      dup15\n        /* \"SimpleSwap.sol\":6212:6222  amountAMin */\n      dup15\n        /* \"SimpleSwap.sol\":6236:6246  amountBMin */\n      dup15\n        /* \"SimpleSwap.sol\":6260:6264  pool */\n      dup8\n        /* \"SimpleSwap.sol\":6061:6102  _calculateAddLiquidityAmountsAndLiquidity */\n      tag_213\n        /* \"SimpleSwap.sol\":6061:6274  _calculateAddLiquidityAmountsAndLiquidity(... */\n      jump\t// in\n    tag_212:\n        /* \"SimpleSwap.sol\":5983:6274  (... */\n      dup1\n      swap7\n      pop\n      dup2\n      swap8\n      pop\n      dup3\n      swap9\n      pop\n      pop\n      pop\n      pop\n        /* \"SimpleSwap.sol\":6292:6298  tokenA */\n      dup14\n        /* \"SimpleSwap.sol\":6285:6312  IERC20(tokenA).transferFrom */\n      0xffffffffffffffffffffffffffffffffffffffff\n      and\n      0x23b872dd\n        /* \"SimpleSwap.sol\":6313:6323  msg.sender */\n      caller\n        /* \"SimpleSwap.sol\":6333:6337  this */\n      address\n        /* \"SimpleSwap.sol\":6340:6347  amountA */\n      dup10\n        /* \"SimpleSwap.sol\":6285:6348  IERC20(tokenA).transferFrom(msg.sender, address(this), amountA) */\n      mload(0x40)\n      dup5\n      0xffffffff\n      and\n      0xe0\n      shl\n      dup2\n      mstore\n      0x04\n      add\n      tag_214\n      swap4\n      swap3\n      swap2\n      swap1\n      tag_97\n      jump\t// in\n    tag_214:\n      0x20\n      mload(0x40)\n      dup1\n      dup4\n      sub\n      dup2\n      0x00\n      dup8\n      gas\n      call\n      iszero\n      dup1\n      iszero\n      tag_216\n      jumpi\n      returndatacopy(0x00, 0x00, returndatasize)\n      revert(0x00, returndatasize)\n    tag_216:\n      pop\n      pop\n      pop\n      pop\n      mload(0x40)\n      returndatasize\n      not(0x1f)\n      0x1f\n      dup3\n      add\n      and\n      dup3\n      add\n      dup1\n      0x40\n      mstore\n      pop\n      dup2\n      add\n      swap1\n      tag_217\n      swap2\n      swap1\n      tag_101\n      jump\t// in\n    tag_217:\n      pop\n        /* \"SimpleSwap.sol\":6365:6371  tokenB */\n      dup13\n        /* \"SimpleSwap.sol\":6358:6385  IERC20(tokenB).transferFrom */\n      0xffffffffffffffffffffffffffffffffffffffff\n      and\n      0x23b872dd\n        /* \"SimpleSwap.sol\":6386:6396  msg.sender */\n      caller\n        /* \"SimpleSwap.sol\":6406:6410  this */\n      address\n        /* \"SimpleSwap.sol\":6413:6420  amountB */\n      dup9\n        /* \"SimpleSwap.sol\":6358:6421  IERC20(tokenB).transferFrom(msg.sender, address(this), amountB) */\n      mload(0x40)\n      dup5\n      0xffffffff\n      and\n      0xe0\n      shl\n      dup2\n      mstore\n      0x04\n      add\n      tag_218\n      swap4\n      swap3\n      swap2\n      swap1\n      tag_97\n      jump\t// in\n    tag_218:\n      0x20\n      mload(0x40)\n      dup1\n      dup4\n      sub\n      dup2\n      0x00\n      dup8\n      gas\n      call\n      iszero\n      dup1\n      iszero\n      tag_220\n      jumpi\n      returndatacopy(0x00, 0x00, returndatasize)\n      revert(0x00, returndatasize)\n    tag_220:\n      pop\n      pop\n      pop\n      pop\n      mload(0x40)\n      returndatasize\n      not(0x1f)\n      0x1f\n      dup3\n      add\n      and\n      dup3\n      add\n      dup1\n      0x40\n      mstore\n      pop\n      dup2\n      add\n      swap1\n      tag_221\n      swap2\n      swap1\n      tag_101\n      jump\t// in\n    tag_221:\n      pop\n        /* \"SimpleSwap.sol\":6432:6503  _updateAddLiquidityPoolReserves(tokenA, token0, pool, amountA, amountB) */\n      tag_222\n        /* \"SimpleSwap.sol\":6464:6470  tokenA */\n      dup15\n        /* \"SimpleSwap.sol\":6472:6478  token0 */\n      dup5\n        /* \"SimpleSwap.sol\":6480:6484  pool */\n      dup4\n        /* \"SimpleSwap.sol\":6486:6493  amountA */\n      dup10\n        /* \"SimpleSwap.sol\":6495:6502  amountB */\n      dup10\n        /* \"SimpleSwap.sol\":6432:6463  _updateAddLiquidityPoolReserves */\n      tag_223\n        /* \"SimpleSwap.sol\":6432:6503  _updateAddLiquidityPoolReserves(tokenA, token0, pool, amountA, amountB) */\n      jump\t// in\n    tag_222:\n        /* \"SimpleSwap.sol\":6537:6546  liquidity */\n      dup4\n        /* \"SimpleSwap.sol\":6514:6518  pool */\n      dup2\n        /* \"SimpleSwap.sol\":6514:6533  pool.totalLiquidity */\n      0x02\n      add\n      0x00\n        /* \"SimpleSwap.sol\":6514:6546  pool.totalLiquidity += liquidity */\n      dup3\n      dup3\n      sload\n      tag_224\n      swap2\n      swap1\n      tag_48\n      jump\t// in\n    tag_224:\n      swap3\n      pop\n      pop\n      dup2\n      swap1\n      sstore\n      pop\n        /* \"SimpleSwap.sol\":6586:6595  liquidity */\n      dup4\n        /* \"SimpleSwap.sol\":6556:6560  pool */\n      dup2\n        /* \"SimpleSwap.sol\":6556:6578  pool.liquidityProvided */\n      0x03\n      add\n        /* \"SimpleSwap.sol\":6556:6582  pool.liquidityProvided[to] */\n      0x00\n        /* \"SimpleSwap.sol\":6579:6581  to */\n      dup11\n        /* \"SimpleSwap.sol\":6556:6582  pool.liquidityProvided[to] */\n      0xffffffffffffffffffffffffffffffffffffffff\n      and\n      0xffffffffffffffffffffffffffffffffffffffff\n      and\n      dup2\n      mstore\n      0x20\n      add\n      swap1\n      dup2\n      mstore\n      0x20\n      add\n      0x00\n      keccak256\n      0x00\n        /* \"SimpleSwap.sol\":6556:6595  pool.liquidityProvided[to] += liquidity */\n      dup3\n      dup3\n      sload\n      tag_225\n      swap2\n      swap1\n      tag_48\n      jump\t// in\n    tag_225:\n      swap3\n      pop\n      pop\n      dup2\n      swap1\n      sstore\n      pop\n        /* \"SimpleSwap.sol\":6683:6689  tokenB */\n      dup13\n        /* \"SimpleSwap.sol\":6611:6793  LiquidityAdded(... */\n      0xffffffffffffffffffffffffffffffffffffffff\n      and\n        /* \"SimpleSwap.sol\":6663:6669  tokenA */\n      dup15\n        /* \"SimpleSwap.sol\":6611:6793  LiquidityAdded(... */\n      0xffffffffffffffffffffffffffffffffffffffff\n      and\n        /* \"SimpleSwap.sol\":6639:6649  msg.sender */\n      caller\n        /* \"SimpleSwap.sol\":6611:6793  LiquidityAdded(... */\n      0xffffffffffffffffffffffffffffffffffffffff\n      and\n      0xa0f0db586a2f0c2d74b358a03070427de39bb6895ab47557e77ea4cbf1f84f2e\n        /* \"SimpleSwap.sol\":6703:6710  amountA */\n      dup10\n        /* \"SimpleSwap.sol\":6724:6731  amountB */\n      dup10\n        /* \"SimpleSwap.sol\":6745:6754  liquidity */\n      dup10\n        /* \"SimpleSwap.sol\":6768:6783  block.timestamp */\n      timestamp\n        /* \"SimpleSwap.sol\":6611:6793  LiquidityAdded(... */\n      mload(0x40)\n      tag_226\n      swap5\n      swap4\n      swap3\n      swap2\n      swap1\n      tag_227\n      jump\t// in\n    tag_226:\n      mload(0x40)\n      dup1\n      swap2\n      sub\n      swap1\n      log4\n        /* \"SimpleSwap.sol\":6804:6840  return (amountA, amountB, liquidity) */\n      pop\n      pop\n      pop\n        /* \"@openzeppelin/contracts/utils/ReentrancyGuard.sol\":2542:2562  _nonReentrantAfter() */\n      tag_228\n        /* \"@openzeppelin/contracts/utils/ReentrancyGuard.sol\":2542:2560  _nonReentrantAfter */\n      tag_134\n        /* \"@openzeppelin/contracts/utils/ReentrancyGuard.sol\":2542:2562  _nonReentrantAfter() */\n      jump\t// in\n    tag_228:\n        /* \"SimpleSwap.sol\":5116:6847  function addLiquidity(... */\n      swap9\n      pop\n      swap9\n      pop\n      swap9\n      swap6\n      pop\n      pop\n      pop\n      pop\n      pop\n      pop\n      jump\t// out\n        /* \"@openzeppelin/contracts/utils/ReentrancyGuard.sol\":2575:2882  function _nonReentrantBefore() private {... */\n    tag_53:\n        /* \"@openzeppelin/contracts/utils/ReentrancyGuard.sol\":1899:1900  2 */\n      0x02\n        /* \"@openzeppelin/contracts/utils/ReentrancyGuard.sol\":2702:2709  _status */\n      sload(0x00)\n        /* \"@openzeppelin/contracts/utils/ReentrancyGuard.sol\":2702:2720  _status == ENTERED */\n      sub\n        /* \"@openzeppelin/contracts/utils/ReentrancyGuard.sol\":2698:2784  if (_status == ENTERED) {... */\n      tag_230\n      jumpi\n        /* \"@openzeppelin/contracts/utils/ReentrancyGuard.sol\":2743:2773  ReentrancyGuardReentrantCall() */\n      mload(0x40)\n      0x3ee5aeb500000000000000000000000000000000000000000000000000000000\n      dup2\n      mstore\n      0x04\n      add\n      mload(0x40)\n      dup1\n      swap2\n      sub\n      swap1\n      revert\n        /* \"@openzeppelin/contracts/utils/ReentrancyGuard.sol\":2698:2784  if (_status == ENTERED) {... */\n    tag_230:\n        /* \"@openzeppelin/contracts/utils/ReentrancyGuard.sol\":1899:1900  2 */\n      0x02\n        /* \"@openzeppelin/contracts/utils/ReentrancyGuard.sol\":2858:2865  _status */\n      0x00\n        /* \"@openzeppelin/contracts/utils/ReentrancyGuard.sol\":2858:2875  _status = ENTERED */\n      dup2\n      swap1\n      sstore\n      pop\n        /* \"@openzeppelin/contracts/utils/ReentrancyGuard.sol\":2575:2882  function _nonReentrantBefore() private {... */\n      jump\t// out\n        /* \"SimpleSwap.sol\":1737:2026  function _getPairHash(address tokenA, address tokenB)... */\n    tag_76:\n        /* \"SimpleSwap.sol\":1838:1845  bytes32 */\n      0x00\n        /* \"SimpleSwap.sol\":1889:1895  tokenB */\n      dup2\n        /* \"SimpleSwap.sol\":1880:1895  tokenA < tokenB */\n      0xffffffffffffffffffffffffffffffffffffffff\n      and\n        /* \"SimpleSwap.sol\":1880:1886  tokenA */\n      dup4\n        /* \"SimpleSwap.sol\":1880:1895  tokenA < tokenB */\n      0xffffffffffffffffffffffffffffffffffffffff\n      and\n      lt\n        /* \"SimpleSwap.sol\":1880:2019  tokenA < tokenB... */\n      tag_232\n      jumpi\n        /* \"SimpleSwap.sol\":2003:2009  tokenB */\n      dup2\n        /* \"SimpleSwap.sol\":2011:2017  tokenA */\n      dup4\n        /* \"SimpleSwap.sol\":1986:2018  abi.encodePacked(tokenB, tokenA) */\n      add(0x20, mload(0x40))\n      tag_233\n      swap3\n      swap2\n      swap1\n      tag_234\n      jump\t// in\n    tag_233:\n      mload(0x40)\n      0x20\n      dup2\n      dup4\n      sub\n      sub\n      dup2\n      mstore\n      swap1\n      0x40\n      mstore\n        /* \"SimpleSwap.sol\":1976:2019  keccak256(abi.encodePacked(tokenB, tokenA)) */\n      dup1\n      mload\n      swap1\n      0x20\n      add\n      keccak256\n        /* \"SimpleSwap.sol\":1880:2019  tokenA < tokenB... */\n      jump(tag_235)\n    tag_232:\n        /* \"SimpleSwap.sol\":1941:1947  tokenA */\n      dup3\n        /* \"SimpleSwap.sol\":1949:1955  tokenB */\n      dup3\n        /* \"SimpleSwap.sol\":1924:1956  abi.encodePacked(tokenA, tokenB) */\n      add(0x20, mload(0x40))\n      tag_236\n      swap3\n      swap2\n      swap1\n      tag_234\n      jump\t// in\n    tag_236:\n      mload(0x40)\n      0x20\n      dup2\n      dup4\n      sub\n      sub\n      dup2\n      mstore\n      swap1\n      0x40\n      mstore\n        /* \"SimpleSwap.sol\":1914:1957  keccak256(abi.encodePacked(tokenA, tokenB)) */\n      dup1\n      mload\n      swap1\n      0x20\n      add\n      keccak256\n        /* \"SimpleSwap.sol\":1880:2019  tokenA < tokenB... */\n    tag_235:\n        /* \"SimpleSwap.sol\":1861:2019  return... */\n      swap1\n      pop\n        /* \"SimpleSwap.sol\":1737:2026  function _getPairHash(address tokenA, address tokenB)... */\n      swap3\n      swap2\n      pop\n      pop\n      jump\t// out\n        /* \"SimpleSwap.sol\":8672:9133  function _getReservesForSwap(... */\n    tag_84:\n        /* \"SimpleSwap.sol\":8808:8825  uint256 reserveIn */\n      0x00\n        /* \"SimpleSwap.sol\":8827:8845  uint256 reserveOut */\n      0x00\n        /* \"SimpleSwap.sol\":8858:8872  address token0 */\n      0x00\n        /* \"SimpleSwap.sol\":8878:8908  _sortTokens(tokenIn, tokenOut) */\n      tag_238\n        /* \"SimpleSwap.sol\":8890:8897  tokenIn */\n      dup7\n        /* \"SimpleSwap.sol\":8899:8907  tokenOut */\n      dup7\n        /* \"SimpleSwap.sol\":8878:8889  _sortTokens */\n      tag_162\n        /* \"SimpleSwap.sol\":8878:8908  _sortTokens(tokenIn, tokenOut) */\n      jump\t// in\n    tag_238:\n        /* \"SimpleSwap.sol\":8857:8908  (address token0, ) = _sortTokens(tokenIn, tokenOut) */\n      pop\n      swap1\n      pop\n        /* \"SimpleSwap.sol\":8933:8939  token0 */\n      dup1\n        /* \"SimpleSwap.sol\":8922:8939  tokenIn == token0 */\n      0xffffffffffffffffffffffffffffffffffffffff\n      and\n        /* \"SimpleSwap.sol\":8922:8929  tokenIn */\n      dup7\n        /* \"SimpleSwap.sol\":8922:8939  tokenIn == token0 */\n      0xffffffffffffffffffffffffffffffffffffffff\n      and\n      sub\n        /* \"SimpleSwap.sol\":8918:9127  if (tokenIn == token0) {... */\n      tag_239\n      jumpi\n        /* \"SimpleSwap.sol\":8967:8971  pool */\n      dup4\n        /* \"SimpleSwap.sol\":8967:8980  pool.reserveA */\n      0x00\n      add\n      sload\n        /* \"SimpleSwap.sol\":8955:8980  reserveIn = pool.reserveA */\n      swap3\n      pop\n        /* \"SimpleSwap.sol\":9007:9011  pool */\n      dup4\n        /* \"SimpleSwap.sol\":9007:9020  pool.reserveB */\n      0x01\n      add\n      sload\n        /* \"SimpleSwap.sol\":8994:9020  reserveOut = pool.reserveB */\n      swap2\n      pop\n        /* \"SimpleSwap.sol\":8918:9127  if (tokenIn == token0) {... */\n      jump(tag_240)\n    tag_239:\n        /* \"SimpleSwap.sol\":9063:9067  pool */\n      dup4\n        /* \"SimpleSwap.sol\":9063:9076  pool.reserveB */\n      0x01\n      add\n      sload\n        /* \"SimpleSwap.sol\":9051:9076  reserveIn = pool.reserveB */\n      swap3\n      pop\n        /* \"SimpleSwap.sol\":9103:9107  pool */\n      dup4\n        /* \"SimpleSwap.sol\":9103:9116  pool.reserveA */\n      0x00\n      add\n      sload\n        /* \"SimpleSwap.sol\":9090:9116  reserveOut = pool.reserveA */\n      swap2\n      pop\n        /* \"SimpleSwap.sol\":8918:9127  if (tokenIn == token0) {... */\n    tag_240:\n        /* \"SimpleSwap.sol\":8847:9133  {... */\n      pop\n        /* \"SimpleSwap.sol\":8672:9133  function _getReservesForSwap(... */\n      swap4\n      pop\n      swap4\n      swap2\n      pop\n      pop\n      jump\t// out\n        /* \"SimpleSwap.sol\":9139:9600  function _updatePoolReserves(... */\n    tag_117:\n        /* \"SimpleSwap.sol\":9325:9339  address token0 */\n      0x00\n        /* \"SimpleSwap.sol\":9345:9375  _sortTokens(tokenIn, tokenOut) */\n      tag_242\n        /* \"SimpleSwap.sol\":9357:9364  tokenIn */\n      dup7\n        /* \"SimpleSwap.sol\":9366:9374  tokenOut */\n      dup7\n        /* \"SimpleSwap.sol\":9345:9356  _sortTokens */\n      tag_162\n        /* \"SimpleSwap.sol\":9345:9375  _sortTokens(tokenIn, tokenOut) */\n      jump\t// in\n    tag_242:\n        /* \"SimpleSwap.sol\":9324:9375  (address token0, ) = _sortTokens(tokenIn, tokenOut) */\n      pop\n      swap1\n      pop\n        /* \"SimpleSwap.sol\":9400:9406  token0 */\n      dup1\n        /* \"SimpleSwap.sol\":9389:9406  tokenIn == token0 */\n      0xffffffffffffffffffffffffffffffffffffffff\n      and\n        /* \"SimpleSwap.sol\":9389:9396  tokenIn */\n      dup7\n        /* \"SimpleSwap.sol\":9389:9406  tokenIn == token0 */\n      0xffffffffffffffffffffffffffffffffffffffff\n      and\n      sub\n        /* \"SimpleSwap.sol\":9385:9594  if (tokenIn == token0) {... */\n      tag_243\n      jumpi\n        /* \"SimpleSwap.sol\":9439:9447  amountIn */\n      dup3\n        /* \"SimpleSwap.sol\":9422:9426  pool */\n      dup5\n        /* \"SimpleSwap.sol\":9422:9435  pool.reserveA */\n      0x00\n      add\n      0x00\n        /* \"SimpleSwap.sol\":9422:9447  pool.reserveA += amountIn */\n      dup3\n      dup3\n      sload\n      tag_244\n      swap2\n      swap1\n      tag_48\n      jump\t// in\n    tag_244:\n      swap3\n      pop\n      pop\n      dup2\n      swap1\n      sstore\n      pop\n        /* \"SimpleSwap.sol\":9478:9487  amountOut */\n      dup2\n        /* \"SimpleSwap.sol\":9461:9465  pool */\n      dup5\n        /* \"SimpleSwap.sol\":9461:9474  pool.reserveB */\n      0x01\n      add\n      0x00\n        /* \"SimpleSwap.sol\":9461:9487  pool.reserveB -= amountOut */\n      dup3\n      dup3\n      sload\n      tag_245\n      swap2\n      swap1\n      tag_185\n      jump\t// in\n    tag_245:\n      swap3\n      pop\n      pop\n      dup2\n      swap1\n      sstore\n      pop\n        /* \"SimpleSwap.sol\":9385:9594  if (tokenIn == token0) {... */\n      jump(tag_246)\n    tag_243:\n        /* \"SimpleSwap.sol\":9535:9543  amountIn */\n      dup3\n        /* \"SimpleSwap.sol\":9518:9522  pool */\n      dup5\n        /* \"SimpleSwap.sol\":9518:9531  pool.reserveB */\n      0x01\n      add\n      0x00\n        /* \"SimpleSwap.sol\":9518:9543  pool.reserveB += amountIn */\n      dup3\n      dup3\n      sload\n      tag_247\n      swap2\n      swap1\n      tag_48\n      jump\t// in\n    tag_247:\n      swap3\n      pop\n      pop\n      dup2\n      swap1\n      sstore\n      pop\n        /* \"SimpleSwap.sol\":9574:9583  amountOut */\n      dup2\n        /* \"SimpleSwap.sol\":9557:9561  pool */\n      dup5\n        /* \"SimpleSwap.sol\":9557:9570  pool.reserveA */\n      0x00\n      add\n      0x00\n        /* \"SimpleSwap.sol\":9557:9583  pool.reserveA -= amountOut */\n      dup3\n      dup3\n      sload\n      tag_248\n      swap2\n      swap1\n      tag_185\n      jump\t// in\n    tag_248:\n      swap3\n      pop\n      pop\n      dup2\n      swap1\n      sstore\n      pop\n        /* \"SimpleSwap.sol\":9385:9594  if (tokenIn == token0) {... */\n    tag_246:\n        /* \"SimpleSwap.sol\":9314:9600  {... */\n      pop\n        /* \"SimpleSwap.sol\":9139:9600  function _updatePoolReserves(... */\n      pop\n      pop\n      pop\n      pop\n      pop\n      jump\t// out\n        /* \"@openzeppelin/contracts/utils/ReentrancyGuard.sol\":2888:3096  function _nonReentrantAfter() private {... */\n    tag_134:\n        /* \"@openzeppelin/contracts/utils/ReentrancyGuard.sol\":1857:1858  1 */\n      0x01\n        /* \"@openzeppelin/contracts/utils/ReentrancyGuard.sol\":3068:3075  _status */\n      0x00\n        /* \"@openzeppelin/contracts/utils/ReentrancyGuard.sol\":3068:3089  _status = NOT_ENTERED */\n      dup2\n      swap1\n      sstore\n      pop\n        /* \"@openzeppelin/contracts/utils/ReentrancyGuard.sol\":2888:3096  function _nonReentrantAfter() private {... */\n      jump\t// out\n        /* \"SimpleSwap.sol\":2032:2287  function _sortTokens(address tokenA, address tokenB)... */\n    tag_162:\n        /* \"SimpleSwap.sol\":2132:2139  address */\n      0x00\n        /* \"SimpleSwap.sol\":2141:2148  address */\n      0x00\n        /* \"SimpleSwap.sol\":2182:2188  tokenB */\n      dup3\n        /* \"SimpleSwap.sol\":2172:2188  tokenA != tokenB */\n      0xffffffffffffffffffffffffffffffffffffffff\n      and\n        /* \"SimpleSwap.sol\":2172:2178  tokenA */\n      dup5\n        /* \"SimpleSwap.sol\":2172:2188  tokenA != tokenB */\n      0xffffffffffffffffffffffffffffffffffffffff\n      and\n      sub\n        /* \"SimpleSwap.sol\":2164:2210  require(tokenA != tokenB, \"Must be different\") */\n      tag_251\n      jumpi\n      mload(0x40)\n      0x08c379a000000000000000000000000000000000000000000000000000000000\n      dup2\n      mstore\n      0x04\n      add\n      tag_252\n      swap1\n      tag_253\n      jump\t// in\n    tag_252:\n      mload(0x40)\n      dup1\n      swap2\n      sub\n      swap1\n      revert\n    tag_251:\n        /* \"SimpleSwap.sol\":2236:2242  tokenB */\n      dup3\n        /* \"SimpleSwap.sol\":2227:2242  tokenA < tokenB */\n      0xffffffffffffffffffffffffffffffffffffffff\n      and\n        /* \"SimpleSwap.sol\":2227:2233  tokenA */\n      dup5\n        /* \"SimpleSwap.sol\":2227:2242  tokenA < tokenB */\n      0xffffffffffffffffffffffffffffffffffffffff\n      and\n      lt\n        /* \"SimpleSwap.sol\":2227:2280  tokenA < tokenB ? (tokenA, tokenB) : (tokenB, tokenA) */\n      tag_254\n      jumpi\n        /* \"SimpleSwap.sol\":2265:2271  tokenB */\n      dup3\n        /* \"SimpleSwap.sol\":2273:2279  tokenA */\n      dup5\n        /* \"SimpleSwap.sol\":2227:2280  tokenA < tokenB ? (tokenA, tokenB) : (tokenB, tokenA) */\n      jump(tag_255)\n    tag_254:\n        /* \"SimpleSwap.sol\":2246:2252  tokenA */\n      dup4\n        /* \"SimpleSwap.sol\":2254:2260  tokenB */\n      dup4\n        /* \"SimpleSwap.sol\":2227:2280  tokenA < tokenB ? (tokenA, tokenB) : (tokenB, tokenA) */\n    tag_255:\n        /* \"SimpleSwap.sol\":2220:2280  return tokenA < tokenB ? (tokenA, tokenB) : (tokenB, tokenA) */\n      swap2\n      pop\n      swap2\n      pop\n        /* \"SimpleSwap.sol\":2032:2287  function _sortTokens(address tokenA, address tokenB)... */\n      swap3\n      pop\n      swap3\n      swap1\n      pop\n      jump\t// out\n        /* \"SimpleSwap.sol\":2862:4705  function _calculateAddLiquidityAmountsAndLiquidity(... */\n    tag_213:\n        /* \"SimpleSwap.sol\":3277:3292  uint256 amountA */\n      0x00\n        /* \"SimpleSwap.sol\":3306:3321  uint256 amountB */\n      0x00\n        /* \"SimpleSwap.sol\":3335:3352  uint256 liquidity */\n      0x00\n        /* \"SimpleSwap.sol\":3436:3459  uint256 currentReserve0 */\n      0x00\n        /* \"SimpleSwap.sol\":3473:3496  uint256 currentReserve1 */\n      0x00\n        /* \"SimpleSwap.sol\":3509:3550  _getOrderedReserves(tokenA, token0, pool) */\n      tag_257\n        /* \"SimpleSwap.sol\":3529:3535  tokenA */\n      dup13\n        /* \"SimpleSwap.sol\":3537:3543  token0 */\n      dup13\n        /* \"SimpleSwap.sol\":3545:3549  pool */\n      dup9\n        /* \"SimpleSwap.sol\":3509:3528  _getOrderedReserves */\n      tag_258\n        /* \"SimpleSwap.sol\":3509:3550  _getOrderedReserves(tokenA, token0, pool) */\n      jump\t// in\n    tag_257:\n        /* \"SimpleSwap.sol\":3422:3550  (... */\n      swap2\n      pop\n      swap2\n      pop\n        /* \"SimpleSwap.sol\":3588:3589  0 */\n      0x00\n        /* \"SimpleSwap.sol\":3565:3569  pool */\n      dup7\n        /* \"SimpleSwap.sol\":3565:3584  pool.totalLiquidity */\n      0x02\n      add\n      sload\n        /* \"SimpleSwap.sol\":3565:3589  pool.totalLiquidity == 0 */\n      sub\n        /* \"SimpleSwap.sol\":3561:4642  if (pool.totalLiquidity == 0) {... */\n      tag_259\n      jumpi\n        /* \"SimpleSwap.sol\":3615:3629  amountADesired */\n      dup10\n        /* \"SimpleSwap.sol\":3605:3629  amountA = amountADesired */\n      swap5\n      pop\n        /* \"SimpleSwap.sol\":3653:3667  amountBDesired */\n      dup9\n        /* \"SimpleSwap.sol\":3643:3667  amountB = amountBDesired */\n      swap4\n      pop\n        /* \"SimpleSwap.sol\":3699:3700  0 */\n      0x00\n        /* \"SimpleSwap.sol\":3689:3696  amountA */\n      dup6\n        /* \"SimpleSwap.sol\":3689:3700  amountA > 0 */\n      gt\n        /* \"SimpleSwap.sol\":3689:3715  amountA > 0 && amountB > 0 */\n      dup1\n      iszero\n      tag_260\n      jumpi\n      pop\n        /* \"SimpleSwap.sol\":3714:3715  0 */\n      0x00\n        /* \"SimpleSwap.sol\":3704:3711  amountB */\n      dup5\n        /* \"SimpleSwap.sol\":3704:3715  amountB > 0 */\n      gt\n        /* \"SimpleSwap.sol\":3689:3715  amountA > 0 && amountB > 0 */\n    tag_260:\n        /* \"SimpleSwap.sol\":3681:3739  require(amountA > 0 && amountB > 0, \"Amounts must be > 0\") */\n      tag_261\n      jumpi\n      mload(0x40)\n      0x08c379a000000000000000000000000000000000000000000000000000000000\n      dup2\n      mstore\n      0x04\n      add\n      tag_262\n      swap1\n      tag_263\n      jump\t// in\n    tag_262:\n      mload(0x40)\n      dup1\n      swap2\n      sub\n      swap1\n      revert\n    tag_261:\n        /* \"SimpleSwap.sol\":3765:3793  Math.sqrt(amountA * amountB) */\n      tag_264\n        /* \"SimpleSwap.sol\":3785:3792  amountB */\n      dup5\n        /* \"SimpleSwap.sol\":3775:3782  amountA */\n      dup7\n        /* \"SimpleSwap.sol\":3775:3792  amountA * amountB */\n      tag_265\n      swap2\n      swap1\n      tag_44\n      jump\t// in\n    tag_265:\n        /* \"SimpleSwap.sol\":3765:3774  Math.sqrt */\n      tag_266\n        /* \"SimpleSwap.sol\":3765:3793  Math.sqrt(amountA * amountB) */\n      jump\t// in\n    tag_264:\n        /* \"SimpleSwap.sol\":3753:3793  liquidity = Math.sqrt(amountA * amountB) */\n      swap3\n      pop\n        /* \"SimpleSwap.sol\":3561:4642  if (pool.totalLiquidity == 0) {... */\n      jump(tag_267)\n    tag_259:\n        /* \"SimpleSwap.sol\":3824:3846  uint256 amountBOptimal */\n      0x00\n        /* \"SimpleSwap.sol\":3902:3917  currentReserve0 */\n      dup3\n        /* \"SimpleSwap.sol\":3867:3882  currentReserve1 */\n      dup3\n        /* \"SimpleSwap.sol\":3850:3864  amountADesired */\n      dup13\n        /* \"SimpleSwap.sol\":3850:3882  amountADesired * currentReserve1 */\n      tag_268\n      swap2\n      swap1\n      tag_44\n      jump\t// in\n    tag_268:\n        /* \"SimpleSwap.sol\":3849:3917  (amountADesired * currentReserve1) /... */\n      tag_269\n      swap2\n      swap1\n      tag_50\n      jump\t// in\n    tag_269:\n        /* \"SimpleSwap.sol\":3824:3917  uint256 amountBOptimal = (amountADesired * currentReserve1) /... */\n      swap1\n      pop\n        /* \"SimpleSwap.sol\":3954:3968  amountBDesired */\n      dup10\n        /* \"SimpleSwap.sol\":3936:3950  amountBOptimal */\n      dup2\n        /* \"SimpleSwap.sol\":3936:3968  amountBOptimal <= amountBDesired */\n      gt\n        /* \"SimpleSwap.sol\":3932:4449  if (amountBOptimal <= amountBDesired) {... */\n      tag_270\n      jumpi\n        /* \"SimpleSwap.sol\":4014:4024  amountBMin */\n      dup8\n        /* \"SimpleSwap.sol\":3996:4010  amountBOptimal */\n      dup2\n        /* \"SimpleSwap.sol\":3996:4024  amountBOptimal >= amountBMin */\n      lt\n      iszero\n        /* \"SimpleSwap.sol\":3988:4050  require(amountBOptimal >= amountBMin, \"TokenB slippage error\") */\n      tag_271\n      jumpi\n      mload(0x40)\n      0x08c379a000000000000000000000000000000000000000000000000000000000\n      dup2\n      mstore\n      0x04\n      add\n      tag_272\n      swap1\n      tag_183\n      jump\t// in\n    tag_272:\n      mload(0x40)\n      dup1\n      swap2\n      sub\n      swap1\n      revert\n    tag_271:\n        /* \"SimpleSwap.sol\":4078:4092  amountADesired */\n      dup11\n        /* \"SimpleSwap.sol\":4068:4092  amountA = amountADesired */\n      swap6\n      pop\n        /* \"SimpleSwap.sol\":4120:4134  amountBOptimal */\n      dup1\n        /* \"SimpleSwap.sol\":4110:4134  amountB = amountBOptimal */\n      swap5\n      pop\n        /* \"SimpleSwap.sol\":3932:4449  if (amountBOptimal <= amountBDesired) {... */\n      jump(tag_273)\n    tag_270:\n        /* \"SimpleSwap.sol\":4173:4195  uint256 amountAOptimal */\n      0x00\n        /* \"SimpleSwap.sol\":4255:4270  currentReserve1 */\n      dup3\n        /* \"SimpleSwap.sol\":4216:4231  currentReserve0 */\n      dup5\n        /* \"SimpleSwap.sol\":4199:4213  amountBDesired */\n      dup13\n        /* \"SimpleSwap.sol\":4199:4231  amountBDesired * currentReserve0 */\n      tag_274\n      swap2\n      swap1\n      tag_44\n      jump\t// in\n    tag_274:\n        /* \"SimpleSwap.sol\":4198:4270  (amountBDesired * currentReserve0) /... */\n      tag_275\n      swap2\n      swap1\n      tag_50\n      jump\t// in\n    tag_275:\n        /* \"SimpleSwap.sol\":4173:4270  uint256 amountAOptimal = (amountBDesired * currentReserve0) /... */\n      swap1\n      pop\n        /* \"SimpleSwap.sol\":4314:4324  amountAMin */\n      dup10\n        /* \"SimpleSwap.sol\":4296:4310  amountAOptimal */\n      dup2\n        /* \"SimpleSwap.sol\":4296:4324  amountAOptimal >= amountAMin */\n      lt\n      iszero\n        /* \"SimpleSwap.sol\":4288:4350  require(amountAOptimal >= amountAMin, \"TokenA slippage error\") */\n      tag_276\n      jumpi\n      mload(0x40)\n      0x08c379a000000000000000000000000000000000000000000000000000000000\n      dup2\n      mstore\n      0x04\n      add\n      tag_277\n      swap1\n      tag_180\n      jump\t// in\n    tag_277:\n      mload(0x40)\n      dup1\n      swap2\n      sub\n      swap1\n      revert\n    tag_276:\n        /* \"SimpleSwap.sol\":4378:4392  amountAOptimal */\n      dup1\n        /* \"SimpleSwap.sol\":4368:4392  amountA = amountAOptimal */\n      swap7\n      pop\n        /* \"SimpleSwap.sol\":4420:4434  amountBDesired */\n      dup11\n        /* \"SimpleSwap.sol\":4410:4434  amountB = amountBDesired */\n      swap6\n      pop\n        /* \"SimpleSwap.sol\":4155:4449  {... */\n      pop\n        /* \"SimpleSwap.sol\":3932:4449  if (amountBOptimal <= amountBDesired) {... */\n    tag_273:\n        /* \"SimpleSwap.sol\":4475:4631  Math.min(... */\n      tag_278\n        /* \"SimpleSwap.sol\":4535:4550  currentReserve0 */\n      dup4\n        /* \"SimpleSwap.sol\":4512:4516  pool */\n      dup9\n        /* \"SimpleSwap.sol\":4512:4531  pool.totalLiquidity */\n      0x02\n      add\n      sload\n        /* \"SimpleSwap.sol\":4502:4509  amountA */\n      dup9\n        /* \"SimpleSwap.sol\":4502:4531  amountA * pool.totalLiquidity */\n      tag_279\n      swap2\n      swap1\n      tag_44\n      jump\t// in\n    tag_279:\n        /* \"SimpleSwap.sol\":4501:4550  (amountA * pool.totalLiquidity) / currentReserve0 */\n      tag_280\n      swap2\n      swap1\n      tag_50\n      jump\t// in\n    tag_280:\n        /* \"SimpleSwap.sol\":4602:4617  currentReserve1 */\n      dup4\n        /* \"SimpleSwap.sol\":4579:4583  pool */\n      dup10\n        /* \"SimpleSwap.sol\":4579:4598  pool.totalLiquidity */\n      0x02\n      add\n      sload\n        /* \"SimpleSwap.sol\":4569:4576  amountB */\n      dup9\n        /* \"SimpleSwap.sol\":4569:4598  amountB * pool.totalLiquidity */\n      tag_281\n      swap2\n      swap1\n      tag_44\n      jump\t// in\n    tag_281:\n        /* \"SimpleSwap.sol\":4568:4617  (amountB * pool.totalLiquidity) / currentReserve1 */\n      tag_282\n      swap2\n      swap1\n      tag_50\n      jump\t// in\n    tag_282:\n        /* \"SimpleSwap.sol\":4475:4483  Math.min */\n      tag_283\n        /* \"SimpleSwap.sol\":4475:4631  Math.min(... */\n      jump\t// in\n    tag_278:\n        /* \"SimpleSwap.sol\":4463:4631  liquidity = Math.min(... */\n      swap4\n      pop\n        /* \"SimpleSwap.sol\":3810:4642  {... */\n      pop\n        /* \"SimpleSwap.sol\":3561:4642  if (pool.totalLiquidity == 0) {... */\n    tag_267:\n        /* \"SimpleSwap.sol\":4671:4672  0 */\n      0x00\n        /* \"SimpleSwap.sol\":4659:4668  liquidity */\n      dup4\n        /* \"SimpleSwap.sol\":4659:4672  liquidity > 0 */\n      gt\n        /* \"SimpleSwap.sol\":4651:4698  require(liquidity > 0, \"Liquidity must be > 0\") */\n      tag_284\n      jumpi\n      mload(0x40)\n      0x08c379a000000000000000000000000000000000000000000000000000000000\n      dup2\n      mstore\n      0x04\n      add\n      tag_285\n      swap1\n      tag_160\n      jump\t// in\n    tag_285:\n      mload(0x40)\n      dup1\n      swap2\n      sub\n      swap1\n      revert\n    tag_284:\n        /* \"SimpleSwap.sol\":3412:4705  {... */\n      pop\n      pop\n        /* \"SimpleSwap.sol\":2862:4705  function _calculateAddLiquidityAmountsAndLiquidity(... */\n      swap8\n      pop\n      swap8\n      pop\n      swap8\n      swap5\n      pop\n      pop\n      pop\n      pop\n      pop\n      jump\t// out\n        /* \"SimpleSwap.sol\":4711:5110  function _updateAddLiquidityPoolReserves(... */\n    tag_223:\n        /* \"SimpleSwap.sol\":4916:4922  token0 */\n      dup4\n        /* \"SimpleSwap.sol\":4906:4922  tokenA == token0 */\n      0xffffffffffffffffffffffffffffffffffffffff\n      and\n        /* \"SimpleSwap.sol\":4906:4912  tokenA */\n      dup6\n        /* \"SimpleSwap.sol\":4906:4922  tokenA == token0 */\n      0xffffffffffffffffffffffffffffffffffffffff\n      and\n      sub\n        /* \"SimpleSwap.sol\":4902:5104  if (tokenA == token0) {... */\n      tag_287\n      jumpi\n        /* \"SimpleSwap.sol\":4955:4962  amountA */\n      dup2\n        /* \"SimpleSwap.sol\":4938:4942  pool */\n      dup4\n        /* \"SimpleSwap.sol\":4938:4951  pool.reserveA */\n      0x00\n      add\n      0x00\n        /* \"SimpleSwap.sol\":4938:4962  pool.reserveA += amountA */\n      dup3\n      dup3\n      sload\n      tag_288\n      swap2\n      swap1\n      tag_48\n      jump\t// in\n    tag_288:\n      swap3\n      pop\n      pop\n      dup2\n      swap1\n      sstore\n      pop\n        /* \"SimpleSwap.sol\":4993:5000  amountB */\n      dup1\n        /* \"SimpleSwap.sol\":4976:4980  pool */\n      dup4\n        /* \"SimpleSwap.sol\":4976:4989  pool.reserveB */\n      0x01\n      add\n      0x00\n        /* \"SimpleSwap.sol\":4976:5000  pool.reserveB += amountB */\n      dup3\n      dup3\n      sload\n      tag_289\n      swap2\n      swap1\n      tag_48\n      jump\t// in\n    tag_289:\n      swap3\n      pop\n      pop\n      dup2\n      swap1\n      sstore\n      pop\n        /* \"SimpleSwap.sol\":4902:5104  if (tokenA == token0) {... */\n      jump(tag_290)\n    tag_287:\n        /* \"SimpleSwap.sol\":5048:5055  amountB */\n      dup1\n        /* \"SimpleSwap.sol\":5031:5035  pool */\n      dup4\n        /* \"SimpleSwap.sol\":5031:5044  pool.reserveA */\n      0x00\n      add\n      0x00\n        /* \"SimpleSwap.sol\":5031:5055  pool.reserveA += amountB */\n      dup3\n      dup3\n      sload\n      tag_291\n      swap2\n      swap1\n      tag_48\n      jump\t// in\n    tag_291:\n      swap3\n      pop\n      pop\n      dup2\n      swap1\n      sstore\n      pop\n        /* \"SimpleSwap.sol\":5086:5093  amountA */\n      dup2\n        /* \"SimpleSwap.sol\":5069:5073  pool */\n      dup4\n        /* \"SimpleSwap.sol\":5069:5082  pool.reserveB */\n      0x01\n      add\n      0x00\n        /* \"SimpleSwap.sol\":5069:5093  pool.reserveB += amountA */\n      dup3\n      dup3\n      sload\n      tag_292\n      swap2\n      swap1\n      tag_48\n      jump\t// in\n    tag_292:\n      swap3\n      pop\n      pop\n      dup2\n      swap1\n      sstore\n      pop\n        /* \"SimpleSwap.sol\":4902:5104  if (tokenA == token0) {... */\n    tag_290:\n        /* \"SimpleSwap.sol\":4711:5110  function _updateAddLiquidityPoolReserves(... */\n      pop\n      pop\n      pop\n      pop\n      pop\n      jump\t// out\n        /* \"SimpleSwap.sol\":2293:2856  function _getOrderedReserves(... */\n    tag_258:\n        /* \"SimpleSwap.sol\":2560:2583  uint256 currentReserve0 */\n      0x00\n        /* \"SimpleSwap.sol\":2585:2608  uint256 currentReserve1 */\n      0x00\n        /* \"SimpleSwap.sol\":2634:2640  token0 */\n      dup4\n        /* \"SimpleSwap.sol\":2624:2640  tokenA == token0 */\n      0xffffffffffffffffffffffffffffffffffffffff\n      and\n        /* \"SimpleSwap.sol\":2624:2630  tokenA */\n      dup6\n        /* \"SimpleSwap.sol\":2624:2640  tokenA == token0 */\n      0xffffffffffffffffffffffffffffffffffffffff\n      and\n      sub\n        /* \"SimpleSwap.sol\":2620:2850  if (tokenA == token0) {... */\n      tag_294\n      jumpi\n        /* \"SimpleSwap.sol\":2674:2678  pool */\n      dup3\n        /* \"SimpleSwap.sol\":2674:2687  pool.reserveA */\n      0x00\n      add\n      sload\n        /* \"SimpleSwap.sol\":2656:2687  currentReserve0 = pool.reserveA */\n      swap2\n      pop\n        /* \"SimpleSwap.sol\":2719:2723  pool */\n      dup3\n        /* \"SimpleSwap.sol\":2719:2732  pool.reserveB */\n      0x01\n      add\n      sload\n        /* \"SimpleSwap.sol\":2701:2732  currentReserve1 = pool.reserveB */\n      swap1\n      pop\n        /* \"SimpleSwap.sol\":2620:2850  if (tokenA == token0) {... */\n      jump(tag_295)\n    tag_294:\n        /* \"SimpleSwap.sol\":2781:2785  pool */\n      dup3\n        /* \"SimpleSwap.sol\":2781:2794  pool.reserveB */\n      0x01\n      add\n      sload\n        /* \"SimpleSwap.sol\":2763:2794  currentReserve0 = pool.reserveB */\n      swap2\n      pop\n        /* \"SimpleSwap.sol\":2826:2830  pool */\n      dup3\n        /* \"SimpleSwap.sol\":2826:2839  pool.reserveA */\n      0x00\n      add\n      sload\n        /* \"SimpleSwap.sol\":2808:2839  currentReserve1 = pool.reserveA */\n      swap1\n      pop\n        /* \"SimpleSwap.sol\":2620:2850  if (tokenA == token0) {... */\n    tag_295:\n        /* \"SimpleSwap.sol\":2293:2856  function _getOrderedReserves(... */\n      swap4\n      pop\n      swap4\n      swap2\n      pop\n      pop\n      jump\t// out\n        /* \"@openzeppelin/contracts/utils/math/Math.sol\":20567:25748  function sqrt(uint256 a) internal pure returns (uint256) {... */\n    tag_266:\n        /* \"@openzeppelin/contracts/utils/math/Math.sol\":20615:20622  uint256 */\n      0x00\n        /* \"@openzeppelin/contracts/utils/math/Math.sol\":20733:20734  1 */\n      0x01\n        /* \"@openzeppelin/contracts/utils/math/Math.sol\":20728:20729  a */\n      dup3\n        /* \"@openzeppelin/contracts/utils/math/Math.sol\":20728:20734  a <= 1 */\n      gt\n        /* \"@openzeppelin/contracts/utils/math/Math.sol\":20724:20777  if (a <= 1) {... */\n      tag_297\n      jumpi\n        /* \"@openzeppelin/contracts/utils/math/Math.sol\":20761:20762  a */\n      dup2\n        /* \"@openzeppelin/contracts/utils/math/Math.sol\":20754:20762  return a */\n      swap1\n      pop\n      jump(tag_296)\n        /* \"@openzeppelin/contracts/utils/math/Math.sol\":20724:20777  if (a <= 1) {... */\n    tag_297:\n        /* \"@openzeppelin/contracts/utils/math/Math.sol\":21704:21714  uint256 aa */\n      0x00\n        /* \"@openzeppelin/contracts/utils/math/Math.sol\":21717:21718  a */\n      dup3\n        /* \"@openzeppelin/contracts/utils/math/Math.sol\":21704:21718  uint256 aa = a */\n      swap1\n      pop\n        /* \"@openzeppelin/contracts/utils/math/Math.sol\":21732:21742  uint256 xn */\n      0x00\n        /* \"@openzeppelin/contracts/utils/math/Math.sol\":21745:21746  1 */\n      0x01\n        /* \"@openzeppelin/contracts/utils/math/Math.sol\":21732:21746  uint256 xn = 1 */\n      swap1\n      pop\n        /* \"@openzeppelin/contracts/utils/math/Math.sol\":21772:21780  1 << 128 */\n      0x0100000000000000000000000000000000\n        /* \"@openzeppelin/contracts/utils/math/Math.sol\":21765:21767  aa */\n      dup3\n        /* \"@openzeppelin/contracts/utils/math/Math.sol\":21765:21781  aa >= (1 << 128) */\n      lt\n        /* \"@openzeppelin/contracts/utils/math/Math.sol\":21761:21853  if (aa >= (1 << 128)) {... */\n      tag_298\n      jumpi\n        /* \"@openzeppelin/contracts/utils/math/Math.sol\":21808:21811  128 */\n      0x80\n        /* \"@openzeppelin/contracts/utils/math/Math.sol\":21801:21811  aa >>= 128 */\n      dup3\n      swap1\n      shr\n      swap2\n      pop\n        /* \"@openzeppelin/contracts/utils/math/Math.sol\":21836:21838  64 */\n      0x40\n        /* \"@openzeppelin/contracts/utils/math/Math.sol\":21829:21838  xn <<= 64 */\n      dup2\n      swap1\n      shl\n      swap1\n      pop\n        /* \"@openzeppelin/contracts/utils/math/Math.sol\":21761:21853  if (aa >= (1 << 128)) {... */\n    tag_298:\n        /* \"@openzeppelin/contracts/utils/math/Math.sol\":21877:21884  1 << 64 */\n      0x010000000000000000\n        /* \"@openzeppelin/contracts/utils/math/Math.sol\":21870:21872  aa */\n      dup3\n        /* \"@openzeppelin/contracts/utils/math/Math.sol\":21870:21885  aa >= (1 << 64) */\n      lt\n        /* \"@openzeppelin/contracts/utils/math/Math.sol\":21866:21956  if (aa >= (1 << 64)) {... */\n      tag_299\n      jumpi\n        /* \"@openzeppelin/contracts/utils/math/Math.sol\":21912:21914  64 */\n      0x40\n        /* \"@openzeppelin/contracts/utils/math/Math.sol\":21905:21914  aa >>= 64 */\n      dup3\n      swap1\n      shr\n      swap2\n      pop\n        /* \"@openzeppelin/contracts/utils/math/Math.sol\":21939:21941  32 */\n      0x20\n        /* \"@openzeppelin/contracts/utils/math/Math.sol\":21932:21941  xn <<= 32 */\n      dup2\n      swap1\n      shl\n      swap1\n      pop\n        /* \"@openzeppelin/contracts/utils/math/Math.sol\":21866:21956  if (aa >= (1 << 64)) {... */\n    tag_299:\n        /* \"@openzeppelin/contracts/utils/math/Math.sol\":21980:21987  1 << 32 */\n      0x0100000000\n        /* \"@openzeppelin/contracts/utils/math/Math.sol\":21973:21975  aa */\n      dup3\n        /* \"@openzeppelin/contracts/utils/math/Math.sol\":21973:21988  aa >= (1 << 32) */\n      lt\n        /* \"@openzeppelin/contracts/utils/math/Math.sol\":21969:22059  if (aa >= (1 << 32)) {... */\n      tag_300\n      jumpi\n        /* \"@openzeppelin/contracts/utils/math/Math.sol\":22015:22017  32 */\n      0x20\n        /* \"@openzeppelin/contracts/utils/math/Math.sol\":22008:22017  aa >>= 32 */\n      dup3\n      swap1\n      shr\n      swap2\n      pop\n        /* \"@openzeppelin/contracts/utils/math/Math.sol\":22042:22044  16 */\n      0x10\n        /* \"@openzeppelin/contracts/utils/math/Math.sol\":22035:22044  xn <<= 16 */\n      dup2\n      swap1\n      shl\n      swap1\n      pop\n        /* \"@openzeppelin/contracts/utils/math/Math.sol\":21969:22059  if (aa >= (1 << 32)) {... */\n    tag_300:\n        /* \"@openzeppelin/contracts/utils/math/Math.sol\":22083:22090  1 << 16 */\n      0x010000\n        /* \"@openzeppelin/contracts/utils/math/Math.sol\":22076:22078  aa */\n      dup3\n        /* \"@openzeppelin/contracts/utils/math/Math.sol\":22076:22091  aa >= (1 << 16) */\n      lt\n        /* \"@openzeppelin/contracts/utils/math/Math.sol\":22072:22161  if (aa >= (1 << 16)) {... */\n      tag_301\n      jumpi\n        /* \"@openzeppelin/contracts/utils/math/Math.sol\":22118:22120  16 */\n      0x10\n        /* \"@openzeppelin/contracts/utils/math/Math.sol\":22111:22120  aa >>= 16 */\n      dup3\n      swap1\n      shr\n      swap2\n      pop\n        /* \"@openzeppelin/contracts/utils/math/Math.sol\":22145:22146  8 */\n      0x08\n        /* \"@openzeppelin/contracts/utils/math/Math.sol\":22138:22146  xn <<= 8 */\n      dup2\n      swap1\n      shl\n      swap1\n      pop\n        /* \"@openzeppelin/contracts/utils/math/Math.sol\":22072:22161  if (aa >= (1 << 16)) {... */\n    tag_301:\n        /* \"@openzeppelin/contracts/utils/math/Math.sol\":22185:22191  1 << 8 */\n      0x0100\n        /* \"@openzeppelin/contracts/utils/math/Math.sol\":22178:22180  aa */\n      dup3\n        /* \"@openzeppelin/contracts/utils/math/Math.sol\":22178:22192  aa >= (1 << 8) */\n      lt\n        /* \"@openzeppelin/contracts/utils/math/Math.sol\":22174:22261  if (aa >= (1 << 8)) {... */\n      tag_302\n      jumpi\n        /* \"@openzeppelin/contracts/utils/math/Math.sol\":22219:22220  8 */\n      0x08\n        /* \"@openzeppelin/contracts/utils/math/Math.sol\":22212:22220  aa >>= 8 */\n      dup3\n      swap1\n      shr\n      swap2\n      pop\n        /* \"@openzeppelin/contracts/utils/math/Math.sol\":22245:22246  4 */\n      0x04\n        /* \"@openzeppelin/contracts/utils/math/Math.sol\":22238:22246  xn <<= 4 */\n      dup2\n      swap1\n      shl\n      swap1\n      pop\n        /* \"@openzeppelin/contracts/utils/math/Math.sol\":22174:22261  if (aa >= (1 << 8)) {... */\n    tag_302:\n        /* \"@openzeppelin/contracts/utils/math/Math.sol\":22285:22291  1 << 4 */\n      0x10\n        /* \"@openzeppelin/contracts/utils/math/Math.sol\":22278:22280  aa */\n      dup3\n        /* \"@openzeppelin/contracts/utils/math/Math.sol\":22278:22292  aa >= (1 << 4) */\n      lt\n        /* \"@openzeppelin/contracts/utils/math/Math.sol\":22274:22361  if (aa >= (1 << 4)) {... */\n      tag_303\n      jumpi\n        /* \"@openzeppelin/contracts/utils/math/Math.sol\":22319:22320  4 */\n      0x04\n        /* \"@openzeppelin/contracts/utils/math/Math.sol\":22312:22320  aa >>= 4 */\n      dup3\n      swap1\n      shr\n      swap2\n      pop\n        /* \"@openzeppelin/contracts/utils/math/Math.sol\":22345:22346  2 */\n      0x02\n        /* \"@openzeppelin/contracts/utils/math/Math.sol\":22338:22346  xn <<= 2 */\n      dup2\n      swap1\n      shl\n      swap1\n      pop\n        /* \"@openzeppelin/contracts/utils/math/Math.sol\":22274:22361  if (aa >= (1 << 4)) {... */\n    tag_303:\n        /* \"@openzeppelin/contracts/utils/math/Math.sol\":22385:22391  1 << 2 */\n      0x04\n        /* \"@openzeppelin/contracts/utils/math/Math.sol\":22378:22380  aa */\n      dup3\n        /* \"@openzeppelin/contracts/utils/math/Math.sol\":22378:22392  aa >= (1 << 2) */\n      lt\n        /* \"@openzeppelin/contracts/utils/math/Math.sol\":22374:22435  if (aa >= (1 << 2)) {... */\n      tag_304\n      jumpi\n        /* \"@openzeppelin/contracts/utils/math/Math.sol\":22419:22420  1 */\n      0x01\n        /* \"@openzeppelin/contracts/utils/math/Math.sol\":22412:22420  xn <<= 1 */\n      dup2\n      swap1\n      shl\n      swap1\n      pop\n        /* \"@openzeppelin/contracts/utils/math/Math.sol\":22374:22435  if (aa >= (1 << 2)) {... */\n    tag_304:\n        /* \"@openzeppelin/contracts/utils/math/Math.sol\":22872:22873  1 */\n      0x01\n        /* \"@openzeppelin/contracts/utils/math/Math.sol\":22865:22867  xn */\n      dup2\n        /* \"@openzeppelin/contracts/utils/math/Math.sol\":22861:22862  3 */\n      0x03\n        /* \"@openzeppelin/contracts/utils/math/Math.sol\":22861:22867  3 * xn */\n      mul\n        /* \"@openzeppelin/contracts/utils/math/Math.sol\":22860:22873  (3 * xn) >> 1 */\n      swap1\n      shr\n        /* \"@openzeppelin/contracts/utils/math/Math.sol\":22855:22873  xn = (3 * xn) >> 1 */\n      swap1\n      pop\n        /* \"@openzeppelin/contracts/utils/math/Math.sol\":24782:24783  1 */\n      0x01\n        /* \"@openzeppelin/contracts/utils/math/Math.sol\":24775:24777  xn */\n      dup2\n        /* \"@openzeppelin/contracts/utils/math/Math.sol\":24771:24772  a */\n      dup6\n        /* \"@openzeppelin/contracts/utils/math/Math.sol\":24771:24777  a / xn */\n      dup2\n      tag_305\n      jumpi\n      tag_306\n      tag_307\n      jump\t// in\n    tag_306:\n    tag_305:\n      div\n        /* \"@openzeppelin/contracts/utils/math/Math.sol\":24766:24768  xn */\n      dup3\n        /* \"@openzeppelin/contracts/utils/math/Math.sol\":24766:24777  xn + a / xn */\n      add\n        /* \"@openzeppelin/contracts/utils/math/Math.sol\":24765:24783  (xn + a / xn) >> 1 */\n      swap1\n      shr\n        /* \"@openzeppelin/contracts/utils/math/Math.sol\":24760:24783  xn = (xn + a / xn) >> 1 */\n      swap1\n      pop\n        /* \"@openzeppelin/contracts/utils/math/Math.sol\":24891:24892  1 */\n      0x01\n        /* \"@openzeppelin/contracts/utils/math/Math.sol\":24884:24886  xn */\n      dup2\n        /* \"@openzeppelin/contracts/utils/math/Math.sol\":24880:24881  a */\n      dup6\n        /* \"@openzeppelin/contracts/utils/math/Math.sol\":24880:24886  a / xn */\n      dup2\n      tag_308\n      jumpi\n      tag_309\n      tag_307\n      jump\t// in\n    tag_309:\n    tag_308:\n      div\n        /* \"@openzeppelin/contracts/utils/math/Math.sol\":24875:24877  xn */\n      dup3\n        /* \"@openzeppelin/contracts/utils/math/Math.sol\":24875:24886  xn + a / xn */\n      add\n        /* \"@openzeppelin/contracts/utils/math/Math.sol\":24874:24892  (xn + a / xn) >> 1 */\n      swap1\n      shr\n        /* \"@openzeppelin/contracts/utils/math/Math.sol\":24869:24892  xn = (xn + a / xn) >> 1 */\n      swap1\n      pop\n        /* \"@openzeppelin/contracts/utils/math/Math.sol\":25002:25003  1 */\n      0x01\n        /* \"@openzeppelin/contracts/utils/math/Math.sol\":24995:24997  xn */\n      dup2\n        /* \"@openzeppelin/contracts/utils/math/Math.sol\":24991:24992  a */\n      dup6\n        /* \"@openzeppelin/contracts/utils/math/Math.sol\":24991:24997  a / xn */\n      dup2\n      tag_310\n      jumpi\n      tag_311\n      tag_307\n      jump\t// in\n    tag_311:\n    tag_310:\n      div\n        /* \"@openzeppelin/contracts/utils/math/Math.sol\":24986:24988  xn */\n      dup3\n        /* \"@openzeppelin/contracts/utils/math/Math.sol\":24986:24997  xn + a / xn */\n      add\n        /* \"@openzeppelin/contracts/utils/math/Math.sol\":24985:25003  (xn + a / xn) >> 1 */\n      swap1\n      shr\n        /* \"@openzeppelin/contracts/utils/math/Math.sol\":24980:25003  xn = (xn + a / xn) >> 1 */\n      swap1\n      pop\n        /* \"@openzeppelin/contracts/utils/math/Math.sol\":25111:25112  1 */\n      0x01\n        /* \"@openzeppelin/contracts/utils/math/Math.sol\":25104:25106  xn */\n      dup2\n        /* \"@openzeppelin/contracts/utils/math/Math.sol\":25100:25101  a */\n      dup6\n        /* \"@openzeppelin/contracts/utils/math/Math.sol\":25100:25106  a / xn */\n      dup2\n      tag_312\n      jumpi\n      tag_313\n      tag_307\n      jump\t// in\n    tag_313:\n    tag_312:\n      div\n        /* \"@openzeppelin/contracts/utils/math/Math.sol\":25095:25097  xn */\n      dup3\n        /* \"@openzeppelin/contracts/utils/math/Math.sol\":25095:25106  xn + a / xn */\n      add\n        /* \"@openzeppelin/contracts/utils/math/Math.sol\":25094:25112  (xn + a / xn) >> 1 */\n      swap1\n      shr\n        /* \"@openzeppelin/contracts/utils/math/Math.sol\":25089:25112  xn = (xn + a / xn) >> 1 */\n      swap1\n      pop\n        /* \"@openzeppelin/contracts/utils/math/Math.sol\":25221:25222  1 */\n      0x01\n        /* \"@openzeppelin/contracts/utils/math/Math.sol\":25214:25216  xn */\n      dup2\n        /* \"@openzeppelin/contracts/utils/math/Math.sol\":25210:25211  a */\n      dup6\n        /* \"@openzeppelin/contracts/utils/math/Math.sol\":25210:25216  a / xn */\n      dup2\n      tag_314\n      jumpi\n      tag_315\n      tag_307\n      jump\t// in\n    tag_315:\n    tag_314:\n      div\n        /* \"@openzeppelin/contracts/utils/math/Math.sol\":25205:25207  xn */\n      dup3\n        /* \"@openzeppelin/contracts/utils/math/Math.sol\":25205:25216  xn + a / xn */\n      add\n        /* \"@openzeppelin/contracts/utils/math/Math.sol\":25204:25222  (xn + a / xn) >> 1 */\n      swap1\n      shr\n        /* \"@openzeppelin/contracts/utils/math/Math.sol\":25199:25222  xn = (xn + a / xn) >> 1 */\n      swap1\n      pop\n        /* \"@openzeppelin/contracts/utils/math/Math.sol\":25331:25332  1 */\n      0x01\n        /* \"@openzeppelin/contracts/utils/math/Math.sol\":25324:25326  xn */\n      dup2\n        /* \"@openzeppelin/contracts/utils/math/Math.sol\":25320:25321  a */\n      dup6\n        /* \"@openzeppelin/contracts/utils/math/Math.sol\":25320:25326  a / xn */\n      dup2\n      tag_316\n      jumpi\n      tag_317\n      tag_307\n      jump\t// in\n    tag_317:\n    tag_316:\n      div\n        /* \"@openzeppelin/contracts/utils/math/Math.sol\":25315:25317  xn */\n      dup3\n        /* \"@openzeppelin/contracts/utils/math/Math.sol\":25315:25326  xn + a / xn */\n      add\n        /* \"@openzeppelin/contracts/utils/math/Math.sol\":25314:25332  (xn + a / xn) >> 1 */\n      swap1\n      shr\n        /* \"@openzeppelin/contracts/utils/math/Math.sol\":25309:25332  xn = (xn + a / xn) >> 1 */\n      swap1\n      pop\n        /* \"@openzeppelin/contracts/utils/math/Math.sol\":25703:25731  SafeCast.toUint(xn > a / xn) */\n      tag_318\n        /* \"@openzeppelin/contracts/utils/math/Math.sol\":25728:25730  xn */\n      dup2\n        /* \"@openzeppelin/contracts/utils/math/Math.sol\":25724:25725  a */\n      dup6\n        /* \"@openzeppelin/contracts/utils/math/Math.sol\":25724:25730  a / xn */\n      dup2\n      tag_319\n      jumpi\n      tag_320\n      tag_307\n      jump\t// in\n    tag_320:\n    tag_319:\n      div\n        /* \"@openzeppelin/contracts/utils/math/Math.sol\":25719:25721  xn */\n      dup3\n        /* \"@openzeppelin/contracts/utils/math/Math.sol\":25719:25730  xn > a / xn */\n      gt\n        /* \"@openzeppelin/contracts/utils/math/Math.sol\":25703:25718  SafeCast.toUint */\n      tag_321\n        /* \"@openzeppelin/contracts/utils/math/Math.sol\":25703:25731  SafeCast.toUint(xn > a / xn) */\n      jump\t// in\n    tag_318:\n        /* \"@openzeppelin/contracts/utils/math/Math.sol\":25698:25700  xn */\n      dup2\n        /* \"@openzeppelin/contracts/utils/math/Math.sol\":25698:25731  xn - SafeCast.toUint(xn > a / xn) */\n      sub\n        /* \"@openzeppelin/contracts/utils/math/Math.sol\":25691:25731  return xn - SafeCast.toUint(xn > a / xn) */\n      swap3\n      pop\n      pop\n      pop\n        /* \"@openzeppelin/contracts/utils/math/Math.sol\":20567:25748  function sqrt(uint256 a) internal pure returns (uint256) {... */\n    tag_296:\n      swap2\n      swap1\n      pop\n      jump\t// out\n        /* \"@openzeppelin/contracts/utils/math/Math.sol\":5617:5728  function min(uint256 a, uint256 b) internal pure returns (uint256) {... */\n    tag_283:\n        /* \"@openzeppelin/contracts/utils/math/Math.sol\":5675:5682  uint256 */\n      0x00\n        /* \"@openzeppelin/contracts/utils/math/Math.sol\":5701:5721  ternary(a < b, a, b) */\n      tag_323\n        /* \"@openzeppelin/contracts/utils/math/Math.sol\":5713:5714  b */\n      dup3\n        /* \"@openzeppelin/contracts/utils/math/Math.sol\":5709:5710  a */\n      dup5\n        /* \"@openzeppelin/contracts/utils/math/Math.sol\":5709:5714  a < b */\n      lt\n        /* \"@openzeppelin/contracts/utils/math/Math.sol\":5716:5717  a */\n      dup5\n        /* \"@openzeppelin/contracts/utils/math/Math.sol\":5719:5720  b */\n      dup5\n        /* \"@openzeppelin/contracts/utils/math/Math.sol\":5701:5708  ternary */\n      tag_324\n        /* \"@openzeppelin/contracts/utils/math/Math.sol\":5701:5721  ternary(a < b, a, b) */\n      jump\t// in\n    tag_323:\n        /* \"@openzeppelin/contracts/utils/math/Math.sol\":5694:5721  return ternary(a < b, a, b) */\n      swap1\n      pop\n        /* \"@openzeppelin/contracts/utils/math/Math.sol\":5617:5728  function min(uint256 a, uint256 b) internal pure returns (uint256) {... */\n      swap3\n      swap2\n      pop\n      pop\n      jump\t// out\n        /* \"@openzeppelin/contracts/utils/math/SafeCast.sol\":34795:34940  function toUint(bool b) internal pure returns (uint256 u) {... */\n    tag_321:\n        /* \"@openzeppelin/contracts/utils/math/SafeCast.sol\":34842:34851  uint256 u */\n      0x00\n        /* \"@openzeppelin/contracts/utils/math/SafeCast.sol\":34921:34922  b */\n      dup2\n        /* \"@openzeppelin/contracts/utils/math/SafeCast.sol\":34914:34923  iszero(b) */\n      iszero\n        /* \"@openzeppelin/contracts/utils/math/SafeCast.sol\":34907:34924  iszero(iszero(b)) */\n      iszero\n        /* \"@openzeppelin/contracts/utils/math/SafeCast.sol\":34902:34924  u := iszero(iszero(b)) */\n      swap1\n      pop\n        /* \"@openzeppelin/contracts/utils/math/SafeCast.sol\":34795:34940  function toUint(bool b) internal pure returns (uint256 u) {... */\n      swap2\n      swap1\n      pop\n      jump\t// out\n        /* \"@openzeppelin/contracts/utils/math/Math.sol\":5071:5365  function ternary(bool condition, uint256 a, uint256 b) internal pure returns (uint256) {... */\n    tag_324:\n        /* \"@openzeppelin/contracts/utils/math/Math.sol\":5149:5156  uint256 */\n      0x00\n        /* \"@openzeppelin/contracts/utils/math/Math.sol\":5321:5347  SafeCast.toUint(condition) */\n      tag_327\n        /* \"@openzeppelin/contracts/utils/math/Math.sol\":5337:5346  condition */\n      dup5\n        /* \"@openzeppelin/contracts/utils/math/Math.sol\":5321:5336  SafeCast.toUint */\n      tag_321\n        /* \"@openzeppelin/contracts/utils/math/Math.sol\":5321:5347  SafeCast.toUint(condition) */\n      jump\t// in\n    tag_327:\n        /* \"@openzeppelin/contracts/utils/math/Math.sol\":5316:5317  b */\n      dup3\n        /* \"@openzeppelin/contracts/utils/math/Math.sol\":5312:5313  a */\n      dup5\n        /* \"@openzeppelin/contracts/utils/math/Math.sol\":5312:5317  a ^ b */\n      xor\n        /* \"@openzeppelin/contracts/utils/math/Math.sol\":5311:5347  (a ^ b) * SafeCast.toUint(condition) */\n      mul\n        /* \"@openzeppelin/contracts/utils/math/Math.sol\":5306:5307  b */\n      dup3\n        /* \"@openzeppelin/contracts/utils/math/Math.sol\":5306:5348  b ^ ((a ^ b) * SafeCast.toUint(condition)) */\n      xor\n        /* \"@openzeppelin/contracts/utils/math/Math.sol\":5299:5348  return b ^ ((a ^ b) * SafeCast.toUint(condition)) */\n      swap1\n      pop\n        /* \"@openzeppelin/contracts/utils/math/Math.sol\":5071:5365  function ternary(bool condition, uint256 a, uint256 b) internal pure returns (uint256) {... */\n      swap4\n      swap3\n      pop\n      pop\n      pop\n      jump\t// out\n        /* \"#utility.yul\":88:205   */\n    tag_329:\n        /* \"#utility.yul\":197:198   */\n      0x00\n        /* \"#utility.yul\":194:195   */\n      0x00\n        /* \"#utility.yul\":187:199   */\n      revert\n        /* \"#utility.yul\":211:328   */\n    tag_330:\n        /* \"#utility.yul\":320:321   */\n      0x00\n        /* \"#utility.yul\":317:318   */\n      0x00\n        /* \"#utility.yul\":310:322   */\n      revert\n        /* \"#utility.yul\":334:411   */\n    tag_331:\n        /* \"#utility.yul\":371:378   */\n      0x00\n        /* \"#utility.yul\":400:405   */\n      dup2\n        /* \"#utility.yul\":389:405   */\n      swap1\n      pop\n        /* \"#utility.yul\":334:411   */\n      swap2\n      swap1\n      pop\n      jump\t// out\n        /* \"#utility.yul\":417:539   */\n    tag_332:\n        /* \"#utility.yul\":490:514   */\n      tag_398\n        /* \"#utility.yul\":508:513   */\n      dup2\n        /* \"#utility.yul\":490:514   */\n      tag_331\n      jump\t// in\n    tag_398:\n        /* \"#utility.yul\":483:488   */\n      dup2\n        /* \"#utility.yul\":480:515   */\n      eq\n        /* \"#utility.yul\":470:533   */\n      tag_399\n      jumpi\n        /* \"#utility.yul\":529:530   */\n      0x00\n        /* \"#utility.yul\":526:527   */\n      0x00\n        /* \"#utility.yul\":519:531   */\n      revert\n        /* \"#utility.yul\":470:533   */\n    tag_399:\n        /* \"#utility.yul\":417:539   */\n      pop\n      jump\t// out\n        /* \"#utility.yul\":545:684   */\n    tag_333:\n        /* \"#utility.yul\":591:596   */\n      0x00\n        /* \"#utility.yul\":629:635   */\n      dup2\n        /* \"#utility.yul\":616:636   */\n      calldataload\n        /* \"#utility.yul\":607:636   */\n      swap1\n      pop\n        /* \"#utility.yul\":645:678   */\n      tag_401\n        /* \"#utility.yul\":672:677   */\n      dup2\n        /* \"#utility.yul\":645:678   */\n      tag_332\n      jump\t// in\n    tag_401:\n        /* \"#utility.yul\":545:684   */\n      swap3\n      swap2\n      pop\n      pop\n      jump\t// out\n        /* \"#utility.yul\":690:1309   */\n    tag_10:\n        /* \"#utility.yul\":767:773   */\n      0x00\n        /* \"#utility.yul\":775:781   */\n      0x00\n        /* \"#utility.yul\":783:789   */\n      0x00\n        /* \"#utility.yul\":832:834   */\n      0x60\n        /* \"#utility.yul\":820:829   */\n      dup5\n        /* \"#utility.yul\":811:818   */\n      dup7\n        /* \"#utility.yul\":807:830   */\n      sub\n        /* \"#utility.yul\":803:835   */\n      slt\n        /* \"#utility.yul\":800:919   */\n      iszero\n      tag_403\n      jumpi\n        /* \"#utility.yul\":838:917   */\n      tag_404\n      tag_329\n      jump\t// in\n    tag_404:\n        /* \"#utility.yul\":800:919   */\n    tag_403:\n        /* \"#utility.yul\":958:959   */\n      0x00\n        /* \"#utility.yul\":983:1036   */\n      tag_405\n        /* \"#utility.yul\":1028:1035   */\n      dup7\n        /* \"#utility.yul\":1019:1025   */\n      dup3\n        /* \"#utility.yul\":1008:1017   */\n      dup8\n        /* \"#utility.yul\":1004:1026   */\n      add\n        /* \"#utility.yul\":983:1036   */\n      tag_333\n      jump\t// in\n    tag_405:\n        /* \"#utility.yul\":973:1036   */\n      swap4\n      pop\n        /* \"#utility.yul\":929:1046   */\n      pop\n        /* \"#utility.yul\":1085:1087   */\n      0x20\n        /* \"#utility.yul\":1111:1164   */\n      tag_406\n        /* \"#utility.yul\":1156:1163   */\n      dup7\n        /* \"#utility.yul\":1147:1153   */\n      dup3\n        /* \"#utility.yul\":1136:1145   */\n      dup8\n        /* \"#utility.yul\":1132:1154   */\n      add\n        /* \"#utility.yul\":1111:1164   */\n      tag_333\n      jump\t// in\n    tag_406:\n        /* \"#utility.yul\":1101:1164   */\n      swap3\n      pop\n        /* \"#utility.yul\":1056:1174   */\n      pop\n        /* \"#utility.yul\":1213:1215   */\n      0x40\n        /* \"#utility.yul\":1239:1292   */\n      tag_407\n        /* \"#utility.yul\":1284:1291   */\n      dup7\n        /* \"#utility.yul\":1275:1281   */\n      dup3\n        /* \"#utility.yul\":1264:1273   */\n      dup8\n        /* \"#utility.yul\":1260:1282   */\n      add\n        /* \"#utility.yul\":1239:1292   */\n      tag_333\n      jump\t// in\n    tag_407:\n        /* \"#utility.yul\":1229:1292   */\n      swap2\n      pop\n        /* \"#utility.yul\":1184:1302   */\n      pop\n        /* \"#utility.yul\":690:1309   */\n      swap3\n      pop\n      swap3\n      pop\n      swap3\n      jump\t// out\n        /* \"#utility.yul\":1315:1433   */\n    tag_334:\n        /* \"#utility.yul\":1402:1426   */\n      tag_409\n        /* \"#utility.yul\":1420:1425   */\n      dup2\n        /* \"#utility.yul\":1402:1426   */\n      tag_331\n      jump\t// in\n    tag_409:\n        /* \"#utility.yul\":1397:1400   */\n      dup3\n        /* \"#utility.yul\":1390:1427   */\n      mstore\n        /* \"#utility.yul\":1315:1433   */\n      pop\n      pop\n      jump\t// out\n        /* \"#utility.yul\":1439:1661   */\n    tag_13:\n        /* \"#utility.yul\":1532:1536   */\n      0x00\n        /* \"#utility.yul\":1570:1572   */\n      0x20\n        /* \"#utility.yul\":1559:1568   */\n      dup3\n        /* \"#utility.yul\":1555:1573   */\n      add\n        /* \"#utility.yul\":1547:1573   */\n      swap1\n      pop\n        /* \"#utility.yul\":1583:1654   */\n      tag_411\n        /* \"#utility.yul\":1651:1652   */\n      0x00\n        /* \"#utility.yul\":1640:1649   */\n      dup4\n        /* \"#utility.yul\":1636:1653   */\n      add\n        /* \"#utility.yul\":1627:1633   */\n      dup5\n        /* \"#utility.yul\":1583:1654   */\n      tag_334\n      jump\t// in\n    tag_411:\n        /* \"#utility.yul\":1439:1661   */\n      swap3\n      swap2\n      pop\n      pop\n      jump\t// out\n        /* \"#utility.yul\":1667:1784   */\n    tag_335:\n        /* \"#utility.yul\":1776:1777   */\n      0x00\n        /* \"#utility.yul\":1773:1774   */\n      0x00\n        /* \"#utility.yul\":1766:1778   */\n      revert\n        /* \"#utility.yul\":1790:1907   */\n    tag_336:\n        /* \"#utility.yul\":1899:1900   */\n      0x00\n        /* \"#utility.yul\":1896:1897   */\n      0x00\n        /* \"#utility.yul\":1889:1901   */\n      revert\n        /* \"#utility.yul\":1913:2030   */\n    tag_337:\n        /* \"#utility.yul\":2022:2023   */\n      0x00\n        /* \"#utility.yul\":2019:2020   */\n      0x00\n        /* \"#utility.yul\":2012:2024   */\n      revert\n        /* \"#utility.yul\":2053:2621   */\n    tag_338:\n        /* \"#utility.yul\":2126:2134   */\n      0x00\n        /* \"#utility.yul\":2136:2142   */\n      0x00\n        /* \"#utility.yul\":2186:2189   */\n      dup4\n        /* \"#utility.yul\":2179:2183   */\n      0x1f\n        /* \"#utility.yul\":2171:2177   */\n      dup5\n        /* \"#utility.yul\":2167:2184   */\n      add\n        /* \"#utility.yul\":2163:2190   */\n      slt\n        /* \"#utility.yul\":2153:2275   */\n      tag_416\n      jumpi\n        /* \"#utility.yul\":2194:2273   */\n      tag_417\n      tag_335\n      jump\t// in\n    tag_417:\n        /* \"#utility.yul\":2153:2275   */\n    tag_416:\n        /* \"#utility.yul\":2307:2313   */\n      dup3\n        /* \"#utility.yul\":2294:2314   */\n      calldataload\n        /* \"#utility.yul\":2284:2314   */\n      swap1\n      pop\n        /* \"#utility.yul\":2337:2355   */\n      0xffffffffffffffff\n        /* \"#utility.yul\":2329:2335   */\n      dup2\n        /* \"#utility.yul\":2326:2356   */\n      gt\n        /* \"#utility.yul\":2323:2440   */\n      iszero\n      tag_418\n      jumpi\n        /* \"#utility.yul\":2359:2438   */\n      tag_419\n      tag_336\n      jump\t// in\n    tag_419:\n        /* \"#utility.yul\":2323:2440   */\n    tag_418:\n        /* \"#utility.yul\":2473:2477   */\n      0x20\n        /* \"#utility.yul\":2465:2471   */\n      dup4\n        /* \"#utility.yul\":2461:2478   */\n      add\n        /* \"#utility.yul\":2449:2478   */\n      swap2\n      pop\n        /* \"#utility.yul\":2527:2530   */\n      dup4\n        /* \"#utility.yul\":2519:2523   */\n      0x20\n        /* \"#utility.yul\":2511:2517   */\n      dup3\n        /* \"#utility.yul\":2507:2524   */\n      mul\n        /* \"#utility.yul\":2497:2505   */\n      dup4\n        /* \"#utility.yul\":2493:2525   */\n      add\n        /* \"#utility.yul\":2490:2531   */\n      gt\n        /* \"#utility.yul\":2487:2615   */\n      iszero\n      tag_420\n      jumpi\n        /* \"#utility.yul\":2534:2613   */\n      tag_421\n      tag_337\n      jump\t// in\n    tag_421:\n        /* \"#utility.yul\":2487:2615   */\n    tag_420:\n        /* \"#utility.yul\":2053:2621   */\n      swap3\n      pop\n      swap3\n      swap1\n      pop\n      jump\t// out\n        /* \"#utility.yul\":2627:2753   */\n    tag_339:\n        /* \"#utility.yul\":2664:2671   */\n      0x00\n        /* \"#utility.yul\":2704:2746   */\n      0xffffffffffffffffffffffffffffffffffffffff\n        /* \"#utility.yul\":2697:2702   */\n      dup3\n        /* \"#utility.yul\":2693:2747   */\n      and\n        /* \"#utility.yul\":2682:2747   */\n      swap1\n      pop\n        /* \"#utility.yul\":2627:2753   */\n      swap2\n      swap1\n      pop\n      jump\t// out\n        /* \"#utility.yul\":2759:2855   */\n    tag_340:\n        /* \"#utility.yul\":2796:2803   */\n      0x00\n        /* \"#utility.yul\":2825:2849   */\n      tag_424\n        /* \"#utility.yul\":2843:2848   */\n      dup3\n        /* \"#utility.yul\":2825:2849   */\n      tag_339\n      jump\t// in\n    tag_424:\n        /* \"#utility.yul\":2814:2849   */\n      swap1\n      pop\n        /* \"#utility.yul\":2759:2855   */\n      swap2\n      swap1\n      pop\n      jump\t// out\n        /* \"#utility.yul\":2861:2983   */\n    tag_341:\n        /* \"#utility.yul\":2934:2958   */\n      tag_426\n        /* \"#utility.yul\":2952:2957   */\n      dup2\n        /* \"#utility.yul\":2934:2958   */\n      tag_340\n      jump\t// in\n    tag_426:\n        /* \"#utility.yul\":2927:2932   */\n      dup2\n        /* \"#utility.yul\":2924:2959   */\n      eq\n        /* \"#utility.yul\":2914:2977   */\n      tag_427\n      jumpi\n        /* \"#utility.yul\":2973:2974   */\n      0x00\n        /* \"#utility.yul\":2970:2971   */\n      0x00\n        /* \"#utility.yul\":2963:2975   */\n      revert\n        /* \"#utility.yul\":2914:2977   */\n    tag_427:\n        /* \"#utility.yul\":2861:2983   */\n      pop\n      jump\t// out\n        /* \"#utility.yul\":2989:3128   */\n    tag_342:\n        /* \"#utility.yul\":3035:3040   */\n      0x00\n        /* \"#utility.yul\":3073:3079   */\n      dup2\n        /* \"#utility.yul\":3060:3080   */\n      calldataload\n        /* \"#utility.yul\":3051:3080   */\n      swap1\n      pop\n        /* \"#utility.yul\":3089:3122   */\n      tag_429\n        /* \"#utility.yul\":3116:3121   */\n      dup2\n        /* \"#utility.yul\":3089:3122   */\n      tag_341\n      jump\t// in\n    tag_429:\n        /* \"#utility.yul\":2989:3128   */\n      swap3\n      swap2\n      pop\n      pop\n      jump\t// out\n        /* \"#utility.yul\":3134:4275   */\n    tag_16:\n        /* \"#utility.yul\":3256:3262   */\n      0x00\n        /* \"#utility.yul\":3264:3270   */\n      0x00\n        /* \"#utility.yul\":3272:3278   */\n      0x00\n        /* \"#utility.yul\":3280:3286   */\n      0x00\n        /* \"#utility.yul\":3288:3294   */\n      0x00\n        /* \"#utility.yul\":3296:3302   */\n      0x00\n        /* \"#utility.yul\":3345:3348   */\n      0xa0\n        /* \"#utility.yul\":3333:3342   */\n      dup8\n        /* \"#utility.yul\":3324:3331   */\n      dup10\n        /* \"#utility.yul\":3320:3343   */\n      sub\n        /* \"#utility.yul\":3316:3349   */\n      slt\n        /* \"#utility.yul\":3313:3433   */\n      iszero\n      tag_431\n      jumpi\n        /* \"#utility.yul\":3352:3431   */\n      tag_432\n      tag_329\n      jump\t// in\n    tag_432:\n        /* \"#utility.yul\":3313:3433   */\n    tag_431:\n        /* \"#utility.yul\":3472:3473   */\n      0x00\n        /* \"#utility.yul\":3497:3550   */\n      tag_433\n        /* \"#utility.yul\":3542:3549   */\n      dup10\n        /* \"#utility.yul\":3533:3539   */\n      dup3\n        /* \"#utility.yul\":3522:3531   */\n      dup11\n        /* \"#utility.yul\":3518:3540   */\n      add\n        /* \"#utility.yul\":3497:3550   */\n      tag_333\n      jump\t// in\n    tag_433:\n        /* \"#utility.yul\":3487:3550   */\n      swap7\n      pop\n        /* \"#utility.yul\":3443:3560   */\n      pop\n        /* \"#utility.yul\":3599:3601   */\n      0x20\n        /* \"#utility.yul\":3625:3678   */\n      tag_434\n        /* \"#utility.yul\":3670:3677   */\n      dup10\n        /* \"#utility.yul\":3661:3667   */\n      dup3\n        /* \"#utility.yul\":3650:3659   */\n      dup11\n        /* \"#utility.yul\":3646:3668   */\n      add\n        /* \"#utility.yul\":3625:3678   */\n      tag_333\n      jump\t// in\n    tag_434:\n        /* \"#utility.yul\":3615:3678   */\n      swap6\n      pop\n        /* \"#utility.yul\":3570:3688   */\n      pop\n        /* \"#utility.yul\":3755:3757   */\n      0x40\n        /* \"#utility.yul\":3744:3753   */\n      dup8\n        /* \"#utility.yul\":3740:3758   */\n      add\n        /* \"#utility.yul\":3727:3759   */\n      calldataload\n        /* \"#utility.yul\":3786:3804   */\n      0xffffffffffffffff\n        /* \"#utility.yul\":3778:3784   */\n      dup2\n        /* \"#utility.yul\":3775:3805   */\n      gt\n        /* \"#utility.yul\":3772:3889   */\n      iszero\n      tag_435\n      jumpi\n        /* \"#utility.yul\":3808:3887   */\n      tag_436\n      tag_330\n      jump\t// in\n    tag_436:\n        /* \"#utility.yul\":3772:3889   */\n    tag_435:\n        /* \"#utility.yul\":3921:4001   */\n      tag_437\n        /* \"#utility.yul\":3993:4000   */\n      dup10\n        /* \"#utility.yul\":3984:3990   */\n      dup3\n        /* \"#utility.yul\":3973:3982   */\n      dup11\n        /* \"#utility.yul\":3969:3991   */\n      add\n        /* \"#utility.yul\":3921:4001   */\n      tag_338\n      jump\t// in\n    tag_437:\n        /* \"#utility.yul\":3903:4001   */\n      swap5\n      pop\n      swap5\n      pop\n        /* \"#utility.yul\":3698:4011   */\n      pop\n        /* \"#utility.yul\":4050:4052   */\n      0x60\n        /* \"#utility.yul\":4076:4129   */\n      tag_438\n        /* \"#utility.yul\":4121:4128   */\n      dup10\n        /* \"#utility.yul\":4112:4118   */\n      dup3\n        /* \"#utility.yul\":4101:4110   */\n      dup11\n        /* \"#utility.yul\":4097:4119   */\n      add\n        /* \"#utility.yul\":4076:4129   */\n      tag_342\n      jump\t// in\n    tag_438:\n        /* \"#utility.yul\":4066:4129   */\n      swap3\n      pop\n        /* \"#utility.yul\":4021:4139   */\n      pop\n        /* \"#utility.yul\":4178:4181   */\n      0x80\n        /* \"#utility.yul\":4205:4258   */\n      tag_439\n        /* \"#utility.yul\":4250:4257   */\n      dup10\n        /* \"#utility.yul\":4241:4247   */\n      dup3\n        /* \"#utility.yul\":4230:4239   */\n      dup11\n        /* \"#utility.yul\":4226:4248   */\n      add\n        /* \"#utility.yul\":4205:4258   */\n      tag_333\n      jump\t// in\n    tag_439:\n        /* \"#utility.yul\":4195:4258   */\n      swap2\n      pop\n        /* \"#utility.yul\":4149:4268   */\n      pop\n        /* \"#utility.yul\":3134:4275   */\n      swap3\n      swap6\n      pop\n      swap3\n      swap6\n      pop\n      swap3\n      swap6\n      jump\t// out\n        /* \"#utility.yul\":4281:4395   */\n    tag_343:\n        /* \"#utility.yul\":4348:4354   */\n      0x00\n        /* \"#utility.yul\":4382:4387   */\n      dup2\n        /* \"#utility.yul\":4376:4388   */\n      mload\n        /* \"#utility.yul\":4366:4388   */\n      swap1\n      pop\n        /* \"#utility.yul\":4281:4395   */\n      swap2\n      swap1\n      pop\n      jump\t// out\n        /* \"#utility.yul\":4401:4585   */\n    tag_344:\n        /* \"#utility.yul\":4500:4511   */\n      0x00\n        /* \"#utility.yul\":4534:4540   */\n      dup3\n        /* \"#utility.yul\":4529:4532   */\n      dup3\n        /* \"#utility.yul\":4522:4541   */\n      mstore\n        /* \"#utility.yul\":4574:4578   */\n      0x20\n        /* \"#utility.yul\":4569:4572   */\n      dup3\n        /* \"#utility.yul\":4565:4579   */\n      add\n        /* \"#utility.yul\":4550:4579   */\n      swap1\n      pop\n        /* \"#utility.yul\":4401:4585   */\n      swap3\n      swap2\n      pop\n      pop\n      jump\t// out\n        /* \"#utility.yul\":4591:4723   */\n    tag_345:\n        /* \"#utility.yul\":4658:4662   */\n      0x00\n        /* \"#utility.yul\":4681:4684   */\n      dup2\n        /* \"#utility.yul\":4673:4684   */\n      swap1\n      pop\n        /* \"#utility.yul\":4711:4715   */\n      0x20\n        /* \"#utility.yul\":4706:4709   */\n      dup3\n        /* \"#utility.yul\":4702:4716   */\n      add\n        /* \"#utility.yul\":4694:4716   */\n      swap1\n      pop\n        /* \"#utility.yul\":4591:4723   */\n      swap2\n      swap1\n      pop\n      jump\t// out\n        /* \"#utility.yul\":4729:4837   */\n    tag_346:\n        /* \"#utility.yul\":4806:4830   */\n      tag_444\n        /* \"#utility.yul\":4824:4829   */\n      dup2\n        /* \"#utility.yul\":4806:4830   */\n      tag_331\n      jump\t// in\n    tag_444:\n        /* \"#utility.yul\":4801:4804   */\n      dup3\n        /* \"#utility.yul\":4794:4831   */\n      mstore\n        /* \"#utility.yul\":4729:4837   */\n      pop\n      pop\n      jump\t// out\n        /* \"#utility.yul\":4843:5022   */\n    tag_347:\n        /* \"#utility.yul\":4912:4922   */\n      0x00\n        /* \"#utility.yul\":4933:4979   */\n      tag_446\n        /* \"#utility.yul\":4975:4978   */\n      dup4\n        /* \"#utility.yul\":4967:4973   */\n      dup4\n        /* \"#utility.yul\":4933:4979   */\n      tag_346\n      jump\t// in\n    tag_446:\n        /* \"#utility.yul\":5011:5015   */\n      0x20\n        /* \"#utility.yul\":5006:5009   */\n      dup4\n        /* \"#utility.yul\":5002:5016   */\n      add\n        /* \"#utility.yul\":4988:5016   */\n      swap1\n      pop\n        /* \"#utility.yul\":4843:5022   */\n      swap3\n      swap2\n      pop\n      pop\n      jump\t// out\n        /* \"#utility.yul\":5028:5141   */\n    tag_348:\n        /* \"#utility.yul\":5098:5102   */\n      0x00\n        /* \"#utility.yul\":5130:5134   */\n      0x20\n        /* \"#utility.yul\":5125:5128   */\n      dup3\n        /* \"#utility.yul\":5121:5135   */\n      add\n        /* \"#utility.yul\":5113:5135   */\n      swap1\n      pop\n        /* \"#utility.yul\":5028:5141   */\n      swap2\n      swap1\n      pop\n      jump\t// out\n        /* \"#utility.yul\":5177:5909   */\n    tag_349:\n        /* \"#utility.yul\":5296:5299   */\n      0x00\n        /* \"#utility.yul\":5325:5379   */\n      tag_449\n        /* \"#utility.yul\":5373:5378   */\n      dup3\n        /* \"#utility.yul\":5325:5379   */\n      tag_343\n      jump\t// in\n    tag_449:\n        /* \"#utility.yul\":5395:5481   */\n      tag_450\n        /* \"#utility.yul\":5474:5480   */\n      dup2\n        /* \"#utility.yul\":5469:5472   */\n      dup6\n        /* \"#utility.yul\":5395:5481   */\n      tag_344\n      jump\t// in\n    tag_450:\n        /* \"#utility.yul\":5388:5481   */\n      swap4\n      pop\n        /* \"#utility.yul\":5505:5561   */\n      tag_451\n        /* \"#utility.yul\":5555:5560   */\n      dup4\n        /* \"#utility.yul\":5505:5561   */\n      tag_345\n      jump\t// in\n    tag_451:\n        /* \"#utility.yul\":5584:5591   */\n      dup1\n        /* \"#utility.yul\":5615:5616   */\n      0x00\n        /* \"#utility.yul\":5600:5884   */\n    tag_452:\n        /* \"#utility.yul\":5625:5631   */\n      dup4\n        /* \"#utility.yul\":5622:5623   */\n      dup2\n        /* \"#utility.yul\":5619:5632   */\n      lt\n        /* \"#utility.yul\":5600:5884   */\n      iszero\n      tag_454\n      jumpi\n        /* \"#utility.yul\":5701:5707   */\n      dup2\n        /* \"#utility.yul\":5695:5708   */\n      mload\n        /* \"#utility.yul\":5728:5791   */\n      tag_455\n        /* \"#utility.yul\":5787:5790   */\n      dup9\n        /* \"#utility.yul\":5772:5785   */\n      dup3\n        /* \"#utility.yul\":5728:5791   */\n      tag_347\n      jump\t// in\n    tag_455:\n        /* \"#utility.yul\":5721:5791   */\n      swap8\n      pop\n        /* \"#utility.yul\":5814:5874   */\n      tag_456\n        /* \"#utility.yul\":5867:5873   */\n      dup4\n        /* \"#utility.yul\":5814:5874   */\n      tag_348\n      jump\t// in\n    tag_456:\n        /* \"#utility.yul\":5804:5874   */\n      swap3\n      pop\n        /* \"#utility.yul\":5660:5884   */\n      pop\n        /* \"#utility.yul\":5647:5648   */\n      0x01\n        /* \"#utility.yul\":5644:5645   */\n      dup2\n        /* \"#utility.yul\":5640:5649   */\n      add\n        /* \"#utility.yul\":5635:5649   */\n      swap1\n      pop\n        /* \"#utility.yul\":5600:5884   */\n      jump(tag_452)\n    tag_454:\n        /* \"#utility.yul\":5604:5618   */\n      pop\n        /* \"#utility.yul\":5900:5903   */\n      dup6\n        /* \"#utility.yul\":5893:5903   */\n      swap4\n      pop\n        /* \"#utility.yul\":5301:5909   */\n      pop\n      pop\n      pop\n        /* \"#utility.yul\":5177:5909   */\n      swap3\n      swap2\n      pop\n      pop\n      jump\t// out\n        /* \"#utility.yul\":5915:6288   */\n    tag_19:\n        /* \"#utility.yul\":6058:6062   */\n      0x00\n        /* \"#utility.yul\":6096:6098   */\n      0x20\n        /* \"#utility.yul\":6085:6094   */\n      dup3\n        /* \"#utility.yul\":6081:6099   */\n      add\n        /* \"#utility.yul\":6073:6099   */\n      swap1\n      pop\n        /* \"#utility.yul\":6145:6154   */\n      dup2\n        /* \"#utility.yul\":6139:6143   */\n      dup2\n        /* \"#utility.yul\":6135:6155   */\n      sub\n        /* \"#utility.yul\":6131:6132   */\n      0x00\n        /* \"#utility.yul\":6120:6129   */\n      dup4\n        /* \"#utility.yul\":6116:6133   */\n      add\n        /* \"#utility.yul\":6109:6156   */\n      mstore\n        /* \"#utility.yul\":6173:6281   */\n      tag_458\n        /* \"#utility.yul\":6276:6280   */\n      dup2\n        /* \"#utility.yul\":6267:6273   */\n      dup5\n        /* \"#utility.yul\":6173:6281   */\n      tag_349\n      jump\t// in\n    tag_458:\n        /* \"#utility.yul\":6165:6281   */\n      swap1\n      pop\n        /* \"#utility.yul\":5915:6288   */\n      swap3\n      swap2\n      pop\n      pop\n      jump\t// out\n        /* \"#utility.yul\":6294:6768   */\n    tag_22:\n        /* \"#utility.yul\":6362:6368   */\n      0x00\n        /* \"#utility.yul\":6370:6376   */\n      0x00\n        /* \"#utility.yul\":6419:6421   */\n      0x40\n        /* \"#utility.yul\":6407:6416   */\n      dup4\n        /* \"#utility.yul\":6398:6405   */\n      dup6\n        /* \"#utility.yul\":6394:6417   */\n      sub\n        /* \"#utility.yul\":6390:6422   */\n      slt\n        /* \"#utility.yul\":6387:6506   */\n      iszero\n      tag_460\n      jumpi\n        /* \"#utility.yul\":6425:6504   */\n      tag_461\n      tag_329\n      jump\t// in\n    tag_461:\n        /* \"#utility.yul\":6387:6506   */\n    tag_460:\n        /* \"#utility.yul\":6545:6546   */\n      0x00\n        /* \"#utility.yul\":6570:6623   */\n      tag_462\n        /* \"#utility.yul\":6615:6622   */\n      dup6\n        /* \"#utility.yul\":6606:6612   */\n      dup3\n        /* \"#utility.yul\":6595:6604   */\n      dup7\n        /* \"#utility.yul\":6591:6613   */\n      add\n        /* \"#utility.yul\":6570:6623   */\n      tag_342\n      jump\t// in\n    tag_462:\n        /* \"#utility.yul\":6560:6623   */\n      swap3\n      pop\n        /* \"#utility.yul\":6516:6633   */\n      pop\n        /* \"#utility.yul\":6672:6674   */\n      0x20\n        /* \"#utility.yul\":6698:6751   */\n      tag_463\n        /* \"#utility.yul\":6743:6750   */\n      dup6\n        /* \"#utility.yul\":6734:6740   */\n      dup3\n        /* \"#utility.yul\":6723:6732   */\n      dup7\n        /* \"#utility.yul\":6719:6741   */\n      add\n        /* \"#utility.yul\":6698:6751   */\n      tag_342\n      jump\t// in\n    tag_463:\n        /* \"#utility.yul\":6688:6751   */\n      swap2\n      pop\n        /* \"#utility.yul\":6643:6761   */\n      pop\n        /* \"#utility.yul\":6294:6768   */\n      swap3\n      pop\n      swap3\n      swap1\n      pop\n      jump\t// out\n        /* \"#utility.yul\":6774:7977   */\n    tag_27:\n        /* \"#utility.yul\":6887:6893   */\n      0x00\n        /* \"#utility.yul\":6895:6901   */\n      0x00\n        /* \"#utility.yul\":6903:6909   */\n      0x00\n        /* \"#utility.yul\":6911:6917   */\n      0x00\n        /* \"#utility.yul\":6919:6925   */\n      0x00\n        /* \"#utility.yul\":6927:6933   */\n      0x00\n        /* \"#utility.yul\":6935:6941   */\n      0x00\n        /* \"#utility.yul\":6984:6987   */\n      0xe0\n        /* \"#utility.yul\":6972:6981   */\n      dup9\n        /* \"#utility.yul\":6963:6970   */\n      dup11\n        /* \"#utility.yul\":6959:6982   */\n      sub\n        /* \"#utility.yul\":6955:6988   */\n      slt\n        /* \"#utility.yul\":6952:7072   */\n      iszero\n      tag_465\n      jumpi\n        /* \"#utility.yul\":6991:7070   */\n      tag_466\n      tag_329\n      jump\t// in\n    tag_466:\n        /* \"#utility.yul\":6952:7072   */\n    tag_465:\n        /* \"#utility.yul\":7111:7112   */\n      0x00\n        /* \"#utility.yul\":7136:7189   */\n      tag_467\n        /* \"#utility.yul\":7181:7188   */\n      dup11\n        /* \"#utility.yul\":7172:7178   */\n      dup3\n        /* \"#utility.yul\":7161:7170   */\n      dup12\n        /* \"#utility.yul\":7157:7179   */\n      add\n        /* \"#utility.yul\":7136:7189   */\n      tag_342\n      jump\t// in\n    tag_467:\n        /* \"#utility.yul\":7126:7189   */\n      swap8\n      pop\n        /* \"#utility.yul\":7082:7199   */\n      pop\n        /* \"#utility.yul\":7238:7240   */\n      0x20\n        /* \"#utility.yul\":7264:7317   */\n      tag_468\n        /* \"#utility.yul\":7309:7316   */\n      dup11\n        /* \"#utility.yul\":7300:7306   */\n      dup3\n        /* \"#utility.yul\":7289:7298   */\n      dup12\n        /* \"#utility.yul\":7285:7307   */\n      add\n        /* \"#utility.yul\":7264:7317   */\n      tag_342\n      jump\t// in\n    tag_468:\n        /* \"#utility.yul\":7254:7317   */\n      swap7\n      pop\n        /* \"#utility.yul\":7209:7327   */\n      pop\n        /* \"#utility.yul\":7366:7368   */\n      0x40\n        /* \"#utility.yul\":7392:7445   */\n      tag_469\n        /* \"#utility.yul\":7437:7444   */\n      dup11\n        /* \"#utility.yul\":7428:7434   */\n      dup3\n        /* \"#utility.yul\":7417:7426   */\n      dup12\n        /* \"#utility.yul\":7413:7435   */\n      add\n        /* \"#utility.yul\":7392:7445   */\n      tag_333\n      jump\t// in\n    tag_469:\n        /* \"#utility.yul\":7382:7445   */\n      swap6\n      pop\n        /* \"#utility.yul\":7337:7455   */\n      pop\n        /* \"#utility.yul\":7494:7496   */\n      0x60\n        /* \"#utility.yul\":7520:7573   */\n      tag_470\n        /* \"#utility.yul\":7565:7572   */\n      dup11\n        /* \"#utility.yul\":7556:7562   */\n      dup3\n        /* \"#utility.yul\":7545:7554   */\n      dup12\n        /* \"#utility.yul\":7541:7563   */\n      add\n        /* \"#utility.yul\":7520:7573   */\n      tag_333\n      jump\t// in\n    tag_470:\n        /* \"#utility.yul\":7510:7573   */\n      swap5\n      pop\n        /* \"#utility.yul\":7465:7583   */\n      pop\n        /* \"#utility.yul\":7622:7625   */\n      0x80\n        /* \"#utility.yul\":7649:7702   */\n      tag_471\n        /* \"#utility.yul\":7694:7701   */\n      dup11\n        /* \"#utility.yul\":7685:7691   */\n      dup3\n        /* \"#utility.yul\":7674:7683   */\n      dup12\n        /* \"#utility.yul\":7670:7692   */\n      add\n        /* \"#utility.yul\":7649:7702   */\n      tag_333\n      jump\t// in\n    tag_471:\n        /* \"#utility.yul\":7639:7702   */\n      swap4\n      pop\n        /* \"#utility.yul\":7593:7712   */\n      pop\n        /* \"#utility.yul\":7751:7754   */\n      0xa0\n        /* \"#utility.yul\":7778:7831   */\n      tag_472\n        /* \"#utility.yul\":7823:7830   */\n      dup11\n        /* \"#utility.yul\":7814:7820   */\n      dup3\n        /* \"#utility.yul\":7803:7812   */\n      dup12\n        /* \"#utility.yul\":7799:7821   */\n      add\n        /* \"#utility.yul\":7778:7831   */\n      tag_342\n      jump\t// in\n    tag_472:\n        /* \"#utility.yul\":7768:7831   */\n      swap3\n      pop\n        /* \"#utility.yul\":7722:7841   */\n      pop\n        /* \"#utility.yul\":7880:7883   */\n      0xc0\n        /* \"#utility.yul\":7907:7960   */\n      tag_473\n        /* \"#utility.yul\":7952:7959   */\n      dup11\n        /* \"#utility.yul\":7943:7949   */\n      dup3\n        /* \"#utility.yul\":7932:7941   */\n      dup12\n        /* \"#utility.yul\":7928:7950   */\n      add\n        /* \"#utility.yul\":7907:7960   */\n      tag_333\n      jump\t// in\n    tag_473:\n        /* \"#utility.yul\":7897:7960   */\n      swap2\n      pop\n        /* \"#utility.yul\":7851:7970   */\n      pop\n        /* \"#utility.yul\":6774:7977   */\n      swap3\n      swap6\n      swap9\n      swap2\n      swap5\n      swap8\n      pop\n      swap3\n      swap6\n      pop\n      jump\t// out\n        /* \"#utility.yul\":7983:8315   */\n    tag_30:\n        /* \"#utility.yul\":8104:8108   */\n      0x00\n        /* \"#utility.yul\":8142:8144   */\n      0x40\n        /* \"#utility.yul\":8131:8140   */\n      dup3\n        /* \"#utility.yul\":8127:8145   */\n      add\n        /* \"#utility.yul\":8119:8145   */\n      swap1\n      pop\n        /* \"#utility.yul\":8155:8226   */\n      tag_475\n        /* \"#utility.yul\":8223:8224   */\n      0x00\n        /* \"#utility.yul\":8212:8221   */\n      dup4\n        /* \"#utility.yul\":8208:8225   */\n      add\n        /* \"#utility.yul\":8199:8205   */\n      dup6\n        /* \"#utility.yul\":8155:8226   */\n      tag_334\n      jump\t// in\n    tag_475:\n        /* \"#utility.yul\":8236:8308   */\n      tag_476\n        /* \"#utility.yul\":8304:8306   */\n      0x20\n        /* \"#utility.yul\":8293:8302   */\n      dup4\n        /* \"#utility.yul\":8289:8307   */\n      add\n        /* \"#utility.yul\":8280:8286   */\n      dup5\n        /* \"#utility.yul\":8236:8308   */\n      tag_334\n      jump\t// in\n    tag_476:\n        /* \"#utility.yul\":7983:8315   */\n      swap4\n      swap3\n      pop\n      pop\n      pop\n      jump\t// out\n        /* \"#utility.yul\":8321:9670   */\n    tag_33:\n        /* \"#utility.yul\":8443:8449   */\n      0x00\n        /* \"#utility.yul\":8451:8457   */\n      0x00\n        /* \"#utility.yul\":8459:8465   */\n      0x00\n        /* \"#utility.yul\":8467:8473   */\n      0x00\n        /* \"#utility.yul\":8475:8481   */\n      0x00\n        /* \"#utility.yul\":8483:8489   */\n      0x00\n        /* \"#utility.yul\":8491:8497   */\n      0x00\n        /* \"#utility.yul\":8499:8505   */\n      0x00\n        /* \"#utility.yul\":8548:8551   */\n      0x0100\n        /* \"#utility.yul\":8536:8545   */\n      dup10\n        /* \"#utility.yul\":8527:8534   */\n      dup12\n        /* \"#utility.yul\":8523:8546   */\n      sub\n        /* \"#utility.yul\":8519:8552   */\n      slt\n        /* \"#utility.yul\":8516:8636   */\n      iszero\n      tag_478\n      jumpi\n        /* \"#utility.yul\":8555:8634   */\n      tag_479\n      tag_329\n      jump\t// in\n    tag_479:\n        /* \"#utility.yul\":8516:8636   */\n    tag_478:\n        /* \"#utility.yul\":8675:8676   */\n      0x00\n        /* \"#utility.yul\":8700:8753   */\n      tag_480\n        /* \"#utility.yul\":8745:8752   */\n      dup12\n        /* \"#utility.yul\":8736:8742   */\n      dup3\n        /* \"#utility.yul\":8725:8734   */\n      dup13\n        /* \"#utility.yul\":8721:8743   */\n      add\n        /* \"#utility.yul\":8700:8753   */\n      tag_342\n      jump\t// in\n    tag_480:\n        /* \"#utility.yul\":8690:8753   */\n      swap9\n      pop\n        /* \"#utility.yul\":8646:8763   */\n      pop\n        /* \"#utility.yul\":8802:8804   */\n      0x20\n        /* \"#utility.yul\":8828:8881   */\n      tag_481\n        /* \"#utility.yul\":8873:8880   */\n      dup12\n        /* \"#utility.yul\":8864:8870   */\n      dup3\n        /* \"#utility.yul\":8853:8862   */\n      dup13\n        /* \"#utility.yul\":8849:8871   */\n      add\n        /* \"#utility.yul\":8828:8881   */\n      tag_342\n      jump\t// in\n    tag_481:\n        /* \"#utility.yul\":8818:8881   */\n      swap8\n      pop\n        /* \"#utility.yul\":8773:8891   */\n      pop\n        /* \"#utility.yul\":8930:8932   */\n      0x40\n        /* \"#utility.yul\":8956:9009   */\n      tag_482\n        /* \"#utility.yul\":9001:9008   */\n      dup12\n        /* \"#utility.yul\":8992:8998   */\n      dup3\n        /* \"#utility.yul\":8981:8990   */\n      dup13\n        /* \"#utility.yul\":8977:8999   */\n      add\n        /* \"#utility.yul\":8956:9009   */\n      tag_333\n      jump\t// in\n    tag_482:\n        /* \"#utility.yul\":8946:9009   */\n      swap7\n      pop\n        /* \"#utility.yul\":8901:9019   */\n      pop\n        /* \"#utility.yul\":9058:9060   */\n      0x60\n        /* \"#utility.yul\":9084:9137   */\n      tag_483\n        /* \"#utility.yul\":9129:9136   */\n      dup12\n        /* \"#utility.yul\":9120:9126   */\n      dup3\n        /* \"#utility.yul\":9109:9118   */\n      dup13\n        /* \"#utility.yul\":9105:9127   */\n      add\n        /* \"#utility.yul\":9084:9137   */\n      tag_333\n      jump\t// in\n    tag_483:\n        /* \"#utility.yul\":9074:9137   */\n      swap6\n      pop\n        /* \"#utility.yul\":9029:9147   */\n      pop\n        /* \"#utility.yul\":9186:9189   */\n      0x80\n        /* \"#utility.yul\":9213:9266   */\n      tag_484\n        /* \"#utility.yul\":9258:9265   */\n      dup12\n        /* \"#utility.yul\":9249:9255   */\n      dup3\n        /* \"#utility.yul\":9238:9247   */\n      dup13\n        /* \"#utility.yul\":9234:9256   */\n      add\n        /* \"#utility.yul\":9213:9266   */\n      tag_333\n      jump\t// in\n    tag_484:\n        /* \"#utility.yul\":9203:9266   */\n      swap5\n      pop\n        /* \"#utility.yul\":9157:9276   */\n      pop\n        /* \"#utility.yul\":9315:9318   */\n      0xa0\n        /* \"#utility.yul\":9342:9395   */\n      tag_485\n        /* \"#utility.yul\":9387:9394   */\n      dup12\n        /* \"#utility.yul\":9378:9384   */\n      dup3\n        /* \"#utility.yul\":9367:9376   */\n      dup13\n        /* \"#utility.yul\":9363:9385   */\n      add\n        /* \"#utility.yul\":9342:9395   */\n      tag_333\n      jump\t// in\n    tag_485:\n        /* \"#utility.yul\":9332:9395   */\n      swap4\n      pop\n        /* \"#utility.yul\":9286:9405   */\n      pop\n        /* \"#utility.yul\":9444:9447   */\n      0xc0\n        /* \"#utility.yul\":9471:9524   */\n      tag_486\n        /* \"#utility.yul\":9516:9523   */\n      dup12\n        /* \"#utility.yul\":9507:9513   */\n      dup3\n        /* \"#utility.yul\":9496:9505   */\n      dup13\n        /* \"#utility.yul\":9492:9514   */\n      add\n        /* \"#utility.yul\":9471:9524   */\n      tag_342\n      jump\t// in\n    tag_486:\n        /* \"#utility.yul\":9461:9524   */\n      swap3\n      pop\n        /* \"#utility.yul\":9415:9534   */\n      pop\n        /* \"#utility.yul\":9573:9576   */\n      0xe0\n        /* \"#utility.yul\":9600:9653   */\n      tag_487\n        /* \"#utility.yul\":9645:9652   */\n      dup12\n        /* \"#utility.yul\":9636:9642   */\n      dup3\n        /* \"#utility.yul\":9625:9634   */\n      dup13\n        /* \"#utility.yul\":9621:9643   */\n      add\n        /* \"#utility.yul\":9600:9653   */\n      tag_333\n      jump\t// in\n    tag_487:\n        /* \"#utility.yul\":9590:9653   */\n      swap2\n      pop\n        /* \"#utility.yul\":9544:9663   */\n      pop\n        /* \"#utility.yul\":8321:9670   */\n      swap3\n      swap6\n      swap9\n      pop\n      swap3\n      swap6\n      swap9\n      swap1\n      swap4\n      swap7\n      pop\n      jump\t// out\n        /* \"#utility.yul\":9676:10118   */\n    tag_36:\n        /* \"#utility.yul\":9825:9829   */\n      0x00\n        /* \"#utility.yul\":9863:9865   */\n      0x60\n        /* \"#utility.yul\":9852:9861   */\n      dup3\n        /* \"#utility.yul\":9848:9866   */\n      add\n        /* \"#utility.yul\":9840:9866   */\n      swap1\n      pop\n        /* \"#utility.yul\":9876:9947   */\n      tag_489\n        /* \"#utility.yul\":9944:9945   */\n      0x00\n        /* \"#utility.yul\":9933:9942   */\n      dup4\n        /* \"#utility.yul\":9929:9946   */\n      add\n        /* \"#utility.yul\":9920:9926   */\n      dup7\n        /* \"#utility.yul\":9876:9947   */\n      tag_334\n      jump\t// in\n    tag_489:\n        /* \"#utility.yul\":9957:10029   */\n      tag_490\n        /* \"#utility.yul\":10025:10027   */\n      0x20\n        /* \"#utility.yul\":10014:10023   */\n      dup4\n        /* \"#utility.yul\":10010:10028   */\n      add\n        /* \"#utility.yul\":10001:10007   */\n      dup6\n        /* \"#utility.yul\":9957:10029   */\n      tag_334\n      jump\t// in\n    tag_490:\n        /* \"#utility.yul\":10039:10111   */\n      tag_491\n        /* \"#utility.yul\":10107:10109   */\n      0x40\n        /* \"#utility.yul\":10096:10105   */\n      dup4\n        /* \"#utility.yul\":10092:10110   */\n      add\n        /* \"#utility.yul\":10083:10089   */\n      dup5\n        /* \"#utility.yul\":10039:10111   */\n      tag_334\n      jump\t// in\n    tag_491:\n        /* \"#utility.yul\":9676:10118   */\n      swap5\n      swap4\n      pop\n      pop\n      pop\n      pop\n      jump\t// out\n        /* \"#utility.yul\":10124:10293   */\n    tag_350:\n        /* \"#utility.yul\":10208:10219   */\n      0x00\n        /* \"#utility.yul\":10242:10248   */\n      dup3\n        /* \"#utility.yul\":10237:10240   */\n      dup3\n        /* \"#utility.yul\":10230:10249   */\n      mstore\n        /* \"#utility.yul\":10282:10286   */\n      0x20\n        /* \"#utility.yul\":10277:10280   */\n      dup3\n        /* \"#utility.yul\":10273:10287   */\n      add\n        /* \"#utility.yul\":10258:10287   */\n      swap1\n      pop\n        /* \"#utility.yul\":10124:10293   */\n      swap3\n      swap2\n      pop\n      pop\n      jump\t// out\n        /* \"#utility.yul\":10299:10468   */\n    tag_351:\n        /* \"#utility.yul\":10439:10460   */\n      0x496e76616c6964206f7574707574206461746100000000000000000000000000\n        /* \"#utility.yul\":10435:10436   */\n      0x00\n        /* \"#utility.yul\":10427:10433   */\n      dup3\n        /* \"#utility.yul\":10423:10437   */\n      add\n        /* \"#utility.yul\":10416:10461   */\n      mstore\n        /* \"#utility.yul\":10299:10468   */\n      pop\n      jump\t// out\n        /* \"#utility.yul\":10474:10840   */\n    tag_352:\n        /* \"#utility.yul\":10616:10619   */\n      0x00\n        /* \"#utility.yul\":10637:10704   */\n      tag_495\n        /* \"#utility.yul\":10701:10703   */\n      0x13\n        /* \"#utility.yul\":10696:10699   */\n      dup4\n        /* \"#utility.yul\":10637:10704   */\n      tag_350\n      jump\t// in\n    tag_495:\n        /* \"#utility.yul\":10630:10704   */\n      swap2\n      pop\n        /* \"#utility.yul\":10713:10806   */\n      tag_496\n        /* \"#utility.yul\":10802:10805   */\n      dup3\n        /* \"#utility.yul\":10713:10806   */\n      tag_351\n      jump\t// in\n    tag_496:\n        /* \"#utility.yul\":10831:10833   */\n      0x20\n        /* \"#utility.yul\":10826:10829   */\n      dup3\n        /* \"#utility.yul\":10822:10834   */\n      add\n        /* \"#utility.yul\":10815:10834   */\n      swap1\n      pop\n        /* \"#utility.yul\":10474:10840   */\n      swap2\n      swap1\n      pop\n      jump\t// out\n        /* \"#utility.yul\":10846:11265   */\n    tag_42:\n        /* \"#utility.yul\":11012:11016   */\n      0x00\n        /* \"#utility.yul\":11050:11052   */\n      0x20\n        /* \"#utility.yul\":11039:11048   */\n      dup3\n        /* \"#utility.yul\":11035:11053   */\n      add\n        /* \"#utility.yul\":11027:11053   */\n      swap1\n      pop\n        /* \"#utility.yul\":11099:11108   */\n      dup2\n        /* \"#utility.yul\":11093:11097   */\n      dup2\n        /* \"#utility.yul\":11089:11109   */\n      sub\n        /* \"#utility.yul\":11085:11086   */\n      0x00\n        /* \"#utility.yul\":11074:11083   */\n      dup4\n        /* \"#utility.yul\":11070:11087   */\n      add\n        /* \"#utility.yul\":11063:11110   */\n      mstore\n        /* \"#utility.yul\":11127:11258   */\n      tag_498\n        /* \"#utility.yul\":11253:11257   */\n      dup2\n        /* \"#utility.yul\":11127:11258   */\n      tag_352\n      jump\t// in\n    tag_498:\n        /* \"#utility.yul\":11119:11258   */\n      swap1\n      pop\n        /* \"#utility.yul\":10846:11265   */\n      swap2\n      swap1\n      pop\n      jump\t// out\n        /* \"#utility.yul\":11271:11451   */\n    tag_353:\n        /* \"#utility.yul\":11319:11396   */\n      0x4e487b7100000000000000000000000000000000000000000000000000000000\n        /* \"#utility.yul\":11316:11317   */\n      0x00\n        /* \"#utility.yul\":11309:11397   */\n      mstore\n        /* \"#utility.yul\":11416:11420   */\n      0x11\n        /* \"#utility.yul\":11413:11414   */\n      0x04\n        /* \"#utility.yul\":11406:11421   */\n      mstore\n        /* \"#utility.yul\":11440:11444   */\n      0x24\n        /* \"#utility.yul\":11437:11438   */\n      0x00\n        /* \"#utility.yul\":11430:11445   */\n      revert\n        /* \"#utility.yul\":11457:11867   */\n    tag_44:\n        /* \"#utility.yul\":11497:11504   */\n      0x00\n        /* \"#utility.yul\":11520:11540   */\n      tag_501\n        /* \"#utility.yul\":11538:11539   */\n      dup3\n        /* \"#utility.yul\":11520:11540   */\n      tag_331\n      jump\t// in\n    tag_501:\n        /* \"#utility.yul\":11515:11540   */\n      swap2\n      pop\n        /* \"#utility.yul\":11554:11574   */\n      tag_502\n        /* \"#utility.yul\":11572:11573   */\n      dup4\n        /* \"#utility.yul\":11554:11574   */\n      tag_331\n      jump\t// in\n    tag_502:\n        /* \"#utility.yul\":11549:11574   */\n      swap3\n      pop\n        /* \"#utility.yul\":11609:11610   */\n      dup3\n        /* \"#utility.yul\":11606:11607   */\n      dup3\n        /* \"#utility.yul\":11602:11611   */\n      mul\n        /* \"#utility.yul\":11631:11661   */\n      tag_503\n        /* \"#utility.yul\":11649:11660   */\n      dup2\n        /* \"#utility.yul\":11631:11661   */\n      tag_331\n      jump\t// in\n    tag_503:\n        /* \"#utility.yul\":11620:11661   */\n      swap2\n      pop\n        /* \"#utility.yul\":11810:11811   */\n      dup3\n        /* \"#utility.yul\":11801:11808   */\n      dup3\n        /* \"#utility.yul\":11797:11812   */\n      div\n        /* \"#utility.yul\":11794:11795   */\n      dup5\n        /* \"#utility.yul\":11791:11813   */\n      eq\n        /* \"#utility.yul\":11771:11772   */\n      dup4\n        /* \"#utility.yul\":11764:11773   */\n      iszero\n        /* \"#utility.yul\":11744:11827   */\n      or\n        /* \"#utility.yul\":11721:11860   */\n      tag_504\n      jumpi\n        /* \"#utility.yul\":11840:11858   */\n      tag_505\n      tag_353\n      jump\t// in\n    tag_505:\n        /* \"#utility.yul\":11721:11860   */\n    tag_504:\n        /* \"#utility.yul\":11505:11867   */\n      pop\n        /* \"#utility.yul\":11457:11867   */\n      swap3\n      swap2\n      pop\n      pop\n      jump\t// out\n        /* \"#utility.yul\":11873:12064   */\n    tag_48:\n        /* \"#utility.yul\":11913:11916   */\n      0x00\n        /* \"#utility.yul\":11932:11952   */\n      tag_507\n        /* \"#utility.yul\":11950:11951   */\n      dup3\n        /* \"#utility.yul\":11932:11952   */\n      tag_331\n      jump\t// in\n    tag_507:\n        /* \"#utility.yul\":11927:11952   */\n      swap2\n      pop\n        /* \"#utility.yul\":11966:11986   */\n      tag_508\n        /* \"#utility.yul\":11984:11985   */\n      dup4\n        /* \"#utility.yul\":11966:11986   */\n      tag_331\n      jump\t// in\n    tag_508:\n        /* \"#utility.yul\":11961:11986   */\n      swap3\n      pop\n        /* \"#utility.yul\":12009:12010   */\n      dup3\n        /* \"#utility.yul\":12006:12007   */\n      dup3\n        /* \"#utility.yul\":12002:12011   */\n      add\n        /* \"#utility.yul\":11995:12011   */\n      swap1\n      pop\n        /* \"#utility.yul\":12030:12033   */\n      dup1\n        /* \"#utility.yul\":12027:12028   */\n      dup3\n        /* \"#utility.yul\":12024:12034   */\n      gt\n        /* \"#utility.yul\":12021:12057   */\n      iszero\n      tag_509\n      jumpi\n        /* \"#utility.yul\":12037:12055   */\n      tag_510\n      tag_353\n      jump\t// in\n    tag_510:\n        /* \"#utility.yul\":12021:12057   */\n    tag_509:\n        /* \"#utility.yul\":11873:12064   */\n      swap3\n      swap2\n      pop\n      pop\n      jump\t// out\n        /* \"#utility.yul\":12070:12250   */\n    tag_307:\n        /* \"#utility.yul\":12118:12195   */\n      0x4e487b7100000000000000000000000000000000000000000000000000000000\n        /* \"#utility.yul\":12115:12116   */\n      0x00\n        /* \"#utility.yul\":12108:12196   */\n      mstore\n        /* \"#utility.yul\":12215:12219   */\n      0x12\n        /* \"#utility.yul\":12212:12213   */\n      0x04\n        /* \"#utility.yul\":12205:12220   */\n      mstore\n        /* \"#utility.yul\":12239:12243   */\n      0x24\n        /* \"#utility.yul\":12236:12237   */\n      0x00\n        /* \"#utility.yul\":12229:12244   */\n      revert\n        /* \"#utility.yul\":12256:12441   */\n    tag_50:\n        /* \"#utility.yul\":12296:12297   */\n      0x00\n        /* \"#utility.yul\":12313:12333   */\n      tag_513\n        /* \"#utility.yul\":12331:12332   */\n      dup3\n        /* \"#utility.yul\":12313:12333   */\n      tag_331\n      jump\t// in\n    tag_513:\n        /* \"#utility.yul\":12308:12333   */\n      swap2\n      pop\n        /* \"#utility.yul\":12347:12367   */\n      tag_514\n        /* \"#utility.yul\":12365:12366   */\n      dup4\n        /* \"#utility.yul\":12347:12367   */\n      tag_331\n      jump\t// in\n    tag_514:\n        /* \"#utility.yul\":12342:12367   */\n      swap3\n      pop\n        /* \"#utility.yul\":12386:12387   */\n      dup3\n        /* \"#utility.yul\":12376:12411   */\n      tag_515\n      jumpi\n        /* \"#utility.yul\":12391:12409   */\n      tag_516\n      tag_307\n      jump\t// in\n    tag_516:\n        /* \"#utility.yul\":12376:12411   */\n    tag_515:\n        /* \"#utility.yul\":12433:12434   */\n      dup3\n        /* \"#utility.yul\":12430:12431   */\n      dup3\n        /* \"#utility.yul\":12426:12435   */\n      div\n        /* \"#utility.yul\":12421:12435   */\n      swap1\n      pop\n        /* \"#utility.yul\":12256:12441   */\n      swap3\n      swap2\n      pop\n      pop\n      jump\t// out\n        /* \"#utility.yul\":12447:12616   */\n    tag_354:\n        /* \"#utility.yul\":12587:12608   */\n      0x5472616e73616374696f6e206578706972656400000000000000000000000000\n        /* \"#utility.yul\":12583:12584   */\n      0x00\n        /* \"#utility.yul\":12575:12581   */\n      dup3\n        /* \"#utility.yul\":12571:12585   */\n      add\n        /* \"#utility.yul\":12564:12609   */\n      mstore\n        /* \"#utility.yul\":12447:12616   */\n      pop\n      jump\t// out\n        /* \"#utility.yul\":12622:12988   */\n    tag_355:\n        /* \"#utility.yul\":12764:12767   */\n      0x00\n        /* \"#utility.yul\":12785:12852   */\n      tag_519\n        /* \"#utility.yul\":12849:12851   */\n      0x13\n        /* \"#utility.yul\":12844:12847   */\n      dup4\n        /* \"#utility.yul\":12785:12852   */\n      tag_350\n      jump\t// in\n    tag_519:\n        /* \"#utility.yul\":12778:12852   */\n      swap2\n      pop\n        /* \"#utility.yul\":12861:12954   */\n      tag_520\n        /* \"#utility.yul\":12950:12953   */\n      dup3\n        /* \"#utility.yul\":12861:12954   */\n      tag_354\n      jump\t// in\n    tag_520:\n        /* \"#utility.yul\":12979:12981   */\n      0x20\n        /* \"#utility.yul\":12974:12977   */\n      dup3\n        /* \"#utility.yul\":12970:12982   */\n      add\n        /* \"#utility.yul\":12963:12982   */\n      swap1\n      pop\n        /* \"#utility.yul\":12622:12988   */\n      swap2\n      swap1\n      pop\n      jump\t// out\n        /* \"#utility.yul\":12994:13413   */\n    tag_57:\n        /* \"#utility.yul\":13160:13164   */\n      0x00\n        /* \"#utility.yul\":13198:13200   */\n      0x20\n        /* \"#utility.yul\":13187:13196   */\n      dup3\n        /* \"#utility.yul\":13183:13201   */\n      add\n        /* \"#utility.yul\":13175:13201   */\n      swap1\n      pop\n        /* \"#utility.yul\":13247:13256   */\n      dup2\n        /* \"#utility.yul\":13241:13245   */\n      dup2\n        /* \"#utility.yul\":13237:13257   */\n      sub\n        /* \"#utility.yul\":13233:13234   */\n      0x00\n        /* \"#utility.yul\":13222:13231   */\n      dup4\n        /* \"#utility.yul\":13218:13235   */\n      add\n        /* \"#utility.yul\":13211:13258   */\n      mstore\n        /* \"#utility.yul\":13275:13406   */\n      tag_522\n        /* \"#utility.yul\":13401:13405   */\n      dup2\n        /* \"#utility.yul\":13275:13406   */\n      tag_355\n      jump\t// in\n    tag_522:\n        /* \"#utility.yul\":13267:13406   */\n      swap1\n      pop\n        /* \"#utility.yul\":12994:13413   */\n      swap2\n      swap1\n      pop\n      jump\t// out\n        /* \"#utility.yul\":13419:13587   */\n    tag_356:\n        /* \"#utility.yul\":13559:13579   */\n      0x4f6e6c79203120686f7020616c6c6f7765640000000000000000000000000000\n        /* \"#utility.yul\":13555:13556   */\n      0x00\n        /* \"#utility.yul\":13547:13553   */\n      dup3\n        /* \"#utility.yul\":13543:13557   */\n      add\n        /* \"#utility.yul\":13536:13580   */\n      mstore\n        /* \"#utility.yul\":13419:13587   */\n      pop\n      jump\t// out\n        /* \"#utility.yul\":13593:13959   */\n    tag_357:\n        /* \"#utility.yul\":13735:13738   */\n      0x00\n        /* \"#utility.yul\":13756:13823   */\n      tag_525\n        /* \"#utility.yul\":13820:13822   */\n      0x12\n        /* \"#utility.yul\":13815:13818   */\n      dup4\n        /* \"#utility.yul\":13756:13823   */\n      tag_350\n      jump\t// in\n    tag_525:\n        /* \"#utility.yul\":13749:13823   */\n      swap2\n      pop\n        /* \"#utility.yul\":13832:13925   */\n      tag_526\n        /* \"#utility.yul\":13921:13924   */\n      dup3\n        /* \"#utility.yul\":13832:13925   */\n      tag_356\n      jump\t// in\n    tag_526:\n        /* \"#utility.yul\":13950:13952   */\n      0x20\n        /* \"#utility.yul\":13945:13948   */\n      dup3\n        /* \"#utility.yul\":13941:13953   */\n      add\n        /* \"#utility.yul\":13934:13953   */\n      swap1\n      pop\n        /* \"#utility.yul\":13593:13959   */\n      swap2\n      swap1\n      pop\n      jump\t// out\n        /* \"#utility.yul\":13965:14384   */\n    tag_60:\n        /* \"#utility.yul\":14131:14135   */\n      0x00\n        /* \"#utility.yul\":14169:14171   */\n      0x20\n        /* \"#utility.yul\":14158:14167   */\n      dup3\n        /* \"#utility.yul\":14154:14172   */\n      add\n        /* \"#utility.yul\":14146:14172   */\n      swap1\n      pop\n        /* \"#utility.yul\":14218:14227   */\n      dup2\n        /* \"#utility.yul\":14212:14216   */\n      dup2\n        /* \"#utility.yul\":14208:14228   */\n      sub\n        /* \"#utility.yul\":14204:14205   */\n      0x00\n        /* \"#utility.yul\":14193:14202   */\n      dup4\n        /* \"#utility.yul\":14189:14206   */\n      add\n        /* \"#utility.yul\":14182:14229   */\n      mstore\n        /* \"#utility.yul\":14246:14377   */\n      tag_528\n        /* \"#utility.yul\":14372:14376   */\n      dup2\n        /* \"#utility.yul\":14246:14377   */\n      tag_357\n      jump\t// in\n    tag_528:\n        /* \"#utility.yul\":14238:14377   */\n      swap1\n      pop\n        /* \"#utility.yul\":13965:14384   */\n      swap2\n      swap1\n      pop\n      jump\t// out\n        /* \"#utility.yul\":14390:14560   */\n    tag_358:\n        /* \"#utility.yul\":14530:14552   */\n      0x496e76616c69642027746f272061646472657373000000000000000000000000\n        /* \"#utility.yul\":14526:14527   */\n      0x00\n        /* \"#utility.yul\":14518:14524   */\n      dup3\n        /* \"#utility.yul\":14514:14528   */\n      add\n        /* \"#utility.yul\":14507:14553   */\n      mstore\n        /* \"#utility.yul\":14390:14560   */\n      pop\n      jump\t// out\n        /* \"#utility.yul\":14566:14932   */\n    tag_359:\n        /* \"#utility.yul\":14708:14711   */\n      0x00\n        /* \"#utility.yul\":14729:14796   */\n      tag_531\n        /* \"#utility.yul\":14793:14795   */\n      0x14\n        /* \"#utility.yul\":14788:14791   */\n      dup4\n        /* \"#utility.yul\":14729:14796   */\n      tag_350\n      jump\t// in\n    tag_531:\n        /* \"#utility.yul\":14722:14796   */\n      swap2\n      pop\n        /* \"#utility.yul\":14805:14898   */\n      tag_532\n        /* \"#utility.yul\":14894:14897   */\n      dup3\n        /* \"#utility.yul\":14805:14898   */\n      tag_358\n      jump\t// in\n    tag_532:\n        /* \"#utility.yul\":14923:14925   */\n      0x20\n        /* \"#utility.yul\":14918:14921   */\n      dup3\n        /* \"#utility.yul\":14914:14926   */\n      add\n        /* \"#utility.yul\":14907:14926   */\n      swap1\n      pop\n        /* \"#utility.yul\":14566:14932   */\n      swap2\n      swap1\n      pop\n      jump\t// out\n        /* \"#utility.yul\":14938:15357   */\n    tag_63:\n        /* \"#utility.yul\":15104:15108   */\n      0x00\n        /* \"#utility.yul\":15142:15144   */\n      0x20\n        /* \"#utility.yul\":15131:15140   */\n      dup3\n        /* \"#utility.yul\":15127:15145   */\n      add\n        /* \"#utility.yul\":15119:15145   */\n      swap1\n      pop\n        /* \"#utility.yul\":15191:15200   */\n      dup2\n        /* \"#utility.yul\":15185:15189   */\n      dup2\n        /* \"#utility.yul\":15181:15201   */\n      sub\n        /* \"#utility.yul\":15177:15178   */\n      0x00\n        /* \"#utility.yul\":15166:15175   */\n      dup4\n        /* \"#utility.yul\":15162:15179   */\n      add\n        /* \"#utility.yul\":15155:15202   */\n      mstore\n        /* \"#utility.yul\":15219:15350   */\n      tag_534\n        /* \"#utility.yul\":15345:15349   */\n      dup2\n        /* \"#utility.yul\":15219:15350   */\n      tag_359\n      jump\t// in\n    tag_534:\n        /* \"#utility.yul\":15211:15350   */\n      swap1\n      pop\n        /* \"#utility.yul\":14938:15357   */\n      swap2\n      swap1\n      pop\n      jump\t// out\n        /* \"#utility.yul\":15363:15530   */\n    tag_360:\n        /* \"#utility.yul\":15503:15522   */\n      0x496e707574206d757374206265203e2030000000000000000000000000000000\n        /* \"#utility.yul\":15499:15500   */\n      0x00\n        /* \"#utility.yul\":15491:15497   */\n      dup3\n        /* \"#utility.yul\":15487:15501   */\n      add\n        /* \"#utility.yul\":15480:15523   */\n      mstore\n        /* \"#utility.yul\":15363:15530   */\n      pop\n      jump\t// out\n        /* \"#utility.yul\":15536:15902   */\n    tag_361:\n        /* \"#utility.yul\":15678:15681   */\n      0x00\n        /* \"#utility.yul\":15699:15766   */\n      tag_537\n        /* \"#utility.yul\":15763:15765   */\n      0x11\n        /* \"#utility.yul\":15758:15761   */\n      dup4\n        /* \"#utility.yul\":15699:15766   */\n      tag_350\n      jump\t// in\n    tag_537:\n        /* \"#utility.yul\":15692:15766   */\n      swap2\n      pop\n        /* \"#utility.yul\":15775:15868   */\n      tag_538\n        /* \"#utility.yul\":15864:15867   */\n      dup3\n        /* \"#utility.yul\":15775:15868   */\n      tag_360\n      jump\t// in\n    tag_538:\n        /* \"#utility.yul\":15893:15895   */\n      0x20\n        /* \"#utility.yul\":15888:15891   */\n      dup3\n        /* \"#utility.yul\":15884:15896   */\n      add\n        /* \"#utility.yul\":15877:15896   */\n      swap1\n      pop\n        /* \"#utility.yul\":15536:15902   */\n      swap2\n      swap1\n      pop\n      jump\t// out\n        /* \"#utility.yul\":15908:16327   */\n    tag_66:\n        /* \"#utility.yul\":16074:16078   */\n      0x00\n        /* \"#utility.yul\":16112:16114   */\n      0x20\n        /* \"#utility.yul\":16101:16110   */\n      dup3\n        /* \"#utility.yul\":16097:16115   */\n      add\n        /* \"#utility.yul\":16089:16115   */\n      swap1\n      pop\n        /* \"#utility.yul\":16161:16170   */\n      dup2\n        /* \"#utility.yul\":16155:16159   */\n      dup2\n        /* \"#utility.yul\":16151:16171   */\n      sub\n        /* \"#utility.yul\":16147:16148   */\n      0x00\n        /* \"#utility.yul\":16136:16145   */\n      dup4\n        /* \"#utility.yul\":16132:16149   */\n      add\n        /* \"#utility.yul\":16125:16172   */\n      mstore\n        /* \"#utility.yul\":16189:16320   */\n      tag_540\n        /* \"#utility.yul\":16315:16319   */\n      dup2\n        /* \"#utility.yul\":16189:16320   */\n      tag_361\n      jump\t// in\n    tag_540:\n        /* \"#utility.yul\":16181:16320   */\n      swap1\n      pop\n        /* \"#utility.yul\":15908:16327   */\n      swap2\n      swap1\n      pop\n      jump\t// out\n        /* \"#utility.yul\":16333:16513   */\n    tag_70:\n        /* \"#utility.yul\":16381:16458   */\n      0x4e487b7100000000000000000000000000000000000000000000000000000000\n        /* \"#utility.yul\":16378:16379   */\n      0x00\n        /* \"#utility.yul\":16371:16459   */\n      mstore\n        /* \"#utility.yul\":16478:16482   */\n      0x32\n        /* \"#utility.yul\":16475:16476   */\n      0x04\n        /* \"#utility.yul\":16468:16483   */\n      mstore\n        /* \"#utility.yul\":16502:16506   */\n      0x24\n        /* \"#utility.yul\":16499:16500   */\n      0x00\n        /* \"#utility.yul\":16492:16507   */\n      revert\n        /* \"#utility.yul\":16519:16848   */\n    tag_72:\n        /* \"#utility.yul\":16578:16584   */\n      0x00\n        /* \"#utility.yul\":16627:16629   */\n      0x20\n        /* \"#utility.yul\":16615:16624   */\n      dup3\n        /* \"#utility.yul\":16606:16613   */\n      dup5\n        /* \"#utility.yul\":16602:16625   */\n      sub\n        /* \"#utility.yul\":16598:16630   */\n      slt\n        /* \"#utility.yul\":16595:16714   */\n      iszero\n      tag_543\n      jumpi\n        /* \"#utility.yul\":16633:16712   */\n      tag_544\n      tag_329\n      jump\t// in\n    tag_544:\n        /* \"#utility.yul\":16595:16714   */\n    tag_543:\n        /* \"#utility.yul\":16753:16754   */\n      0x00\n        /* \"#utility.yul\":16778:16831   */\n      tag_545\n        /* \"#utility.yul\":16823:16830   */\n      dup5\n        /* \"#utility.yul\":16814:16820   */\n      dup3\n        /* \"#utility.yul\":16803:16812   */\n      dup6\n        /* \"#utility.yul\":16799:16821   */\n      add\n        /* \"#utility.yul\":16778:16831   */\n      tag_342\n      jump\t// in\n    tag_545:\n        /* \"#utility.yul\":16768:16831   */\n      swap2\n      pop\n        /* \"#utility.yul\":16724:16841   */\n      pop\n        /* \"#utility.yul\":16519:16848   */\n      swap3\n      swap2\n      pop\n      pop\n      jump\t// out\n        /* \"#utility.yul\":16854:17014   */\n    tag_362:\n        /* \"#utility.yul\":16994:17006   */\n      0x456d70747920706f6f6c00000000000000000000000000000000000000000000\n        /* \"#utility.yul\":16990:16991   */\n      0x00\n        /* \"#utility.yul\":16982:16988   */\n      dup3\n        /* \"#utility.yul\":16978:16992   */\n      add\n        /* \"#utility.yul\":16971:17007   */\n      mstore\n        /* \"#utility.yul\":16854:17014   */\n      pop\n      jump\t// out\n        /* \"#utility.yul\":17020:17386   */\n    tag_363:\n        /* \"#utility.yul\":17162:17165   */\n      0x00\n        /* \"#utility.yul\":17183:17250   */\n      tag_548\n        /* \"#utility.yul\":17247:17249   */\n      0x0a\n        /* \"#utility.yul\":17242:17245   */\n      dup4\n        /* \"#utility.yul\":17183:17250   */\n      tag_350\n      jump\t// in\n    tag_548:\n        /* \"#utility.yul\":17176:17250   */\n      swap2\n      pop\n        /* \"#utility.yul\":17259:17352   */\n      tag_549\n        /* \"#utility.yul\":17348:17351   */\n      dup3\n        /* \"#utility.yul\":17259:17352   */\n      tag_362\n      jump\t// in\n    tag_549:\n        /* \"#utility.yul\":17377:17379   */\n      0x20\n        /* \"#utility.yul\":17372:17375   */\n      dup3\n        /* \"#utility.yul\":17368:17380   */\n      add\n        /* \"#utility.yul\":17361:17380   */\n      swap1\n      pop\n        /* \"#utility.yul\":17020:17386   */\n      swap2\n      swap1\n      pop\n      jump\t// out\n        /* \"#utility.yul\":17392:17811   */\n    tag_88:\n        /* \"#utility.yul\":17558:17562   */\n      0x00\n        /* \"#utility.yul\":17596:17598   */\n      0x20\n        /* \"#utility.yul\":17585:17594   */\n      dup3\n        /* \"#utility.yul\":17581:17599   */\n      add\n        /* \"#utility.yul\":17573:17599   */\n      swap1\n      pop\n        /* \"#utility.yul\":17645:17654   */\n      dup2\n        /* \"#utility.yul\":17639:17643   */\n      dup2\n        /* \"#utility.yul\":17635:17655   */\n      sub\n        /* \"#utility.yul\":17631:17632   */\n      0x00\n        /* \"#utility.yul\":17620:17629   */\n      dup4\n        /* \"#utility.yul\":17616:17633   */\n      add\n        /* \"#utility.yul\":17609:17656   */\n      mstore\n        /* \"#utility.yul\":17673:17804   */\n      tag_551\n        /* \"#utility.yul\":17799:17803   */\n      dup2\n        /* \"#utility.yul\":17673:17804   */\n      tag_363\n      jump\t// in\n    tag_551:\n        /* \"#utility.yul\":17665:17804   */\n      swap1\n      pop\n        /* \"#utility.yul\":17392:17811   */\n      swap2\n      swap1\n      pop\n      jump\t// out\n        /* \"#utility.yul\":17817:17985   */\n    tag_364:\n        /* \"#utility.yul\":17957:17977   */\n      0x45786365737369766520736c6970706167650000000000000000000000000000\n        /* \"#utility.yul\":17953:17954   */\n      0x00\n        /* \"#utility.yul\":17945:17951   */\n      dup3\n        /* \"#utility.yul\":17941:17955   */\n      add\n        /* \"#utility.yul\":17934:17978   */\n      mstore\n        /* \"#utility.yul\":17817:17985   */\n      pop\n      jump\t// out\n        /* \"#utility.yul\":17991:18357   */\n    tag_365:\n        /* \"#utility.yul\":18133:18136   */\n      0x00\n        /* \"#utility.yul\":18154:18221   */\n      tag_554\n        /* \"#utility.yul\":18218:18220   */\n      0x12\n        /* \"#utility.yul\":18213:18216   */\n      dup4\n        /* \"#utility.yul\":18154:18221   */\n      tag_350\n      jump\t// in\n    tag_554:\n        /* \"#utility.yul\":18147:18221   */\n      swap2\n      pop\n        /* \"#utility.yul\":18230:18323   */\n      tag_555\n        /* \"#utility.yul\":18319:18322   */\n      dup3\n        /* \"#utility.yul\":18230:18323   */\n      tag_364\n      jump\t// in\n    tag_555:\n        /* \"#utility.yul\":18348:18350   */\n      0x20\n        /* \"#utility.yul\":18343:18346   */\n      dup3\n        /* \"#utility.yul\":18339:18351   */\n      add\n        /* \"#utility.yul\":18332:18351   */\n      swap1\n      pop\n        /* \"#utility.yul\":17991:18357   */\n      swap2\n      swap1\n      pop\n      jump\t// out\n        /* \"#utility.yul\":18363:18782   */\n    tag_92:\n        /* \"#utility.yul\":18529:18533   */\n      0x00\n        /* \"#utility.yul\":18567:18569   */\n      0x20\n        /* \"#utility.yul\":18556:18565   */\n      dup3\n        /* \"#utility.yul\":18552:18570   */\n      add\n        /* \"#utility.yul\":18544:18570   */\n      swap1\n      pop\n        /* \"#utility.yul\":18616:18625   */\n      dup2\n        /* \"#utility.yul\":18610:18614   */\n      dup2\n        /* \"#utility.yul\":18606:18626   */\n      sub\n        /* \"#utility.yul\":18602:18603   */\n      0x00\n        /* \"#utility.yul\":18591:18600   */\n      dup4\n        /* \"#utility.yul\":18587:18604   */\n      add\n        /* \"#utility.yul\":18580:18627   */\n      mstore\n        /* \"#utility.yul\":18644:18775   */\n      tag_557\n        /* \"#utility.yul\":18770:18774   */\n      dup2\n        /* \"#utility.yul\":18644:18775   */\n      tag_365\n      jump\t// in\n    tag_557:\n        /* \"#utility.yul\":18636:18775   */\n      swap1\n      pop\n        /* \"#utility.yul\":18363:18782   */\n      swap2\n      swap1\n      pop\n      jump\t// out\n        /* \"#utility.yul\":18788:18906   */\n    tag_366:\n        /* \"#utility.yul\":18875:18899   */\n      tag_559\n        /* \"#utility.yul\":18893:18898   */\n      dup2\n        /* \"#utility.yul\":18875:18899   */\n      tag_340\n      jump\t// in\n    tag_559:\n        /* \"#utility.yul\":18870:18873   */\n      dup3\n        /* \"#utility.yul\":18863:18900   */\n      mstore\n        /* \"#utility.yul\":18788:18906   */\n      pop\n      pop\n      jump\t// out\n        /* \"#utility.yul\":18912:19354   */\n    tag_97:\n        /* \"#utility.yul\":19061:19065   */\n      0x00\n        /* \"#utility.yul\":19099:19101   */\n      0x60\n        /* \"#utility.yul\":19088:19097   */\n      dup3\n        /* \"#utility.yul\":19084:19102   */\n      add\n        /* \"#utility.yul\":19076:19102   */\n      swap1\n      pop\n        /* \"#utility.yul\":19112:19183   */\n      tag_561\n        /* \"#utility.yul\":19180:19181   */\n      0x00\n        /* \"#utility.yul\":19169:19178   */\n      dup4\n        /* \"#utility.yul\":19165:19182   */\n      add\n        /* \"#utility.yul\":19156:19162   */\n      dup7\n        /* \"#utility.yul\":19112:19183   */\n      tag_366\n      jump\t// in\n    tag_561:\n        /* \"#utility.yul\":19193:19265   */\n      tag_562\n        /* \"#utility.yul\":19261:19263   */\n      0x20\n        /* \"#utility.yul\":19250:19259   */\n      dup4\n        /* \"#utility.yul\":19246:19264   */\n      add\n        /* \"#utility.yul\":19237:19243   */\n      dup6\n        /* \"#utility.yul\":19193:19265   */\n      tag_366\n      jump\t// in\n    tag_562:\n        /* \"#utility.yul\":19275:19347   */\n      tag_563\n        /* \"#utility.yul\":19343:19345   */\n      0x40\n        /* \"#utility.yul\":19332:19341   */\n      dup4\n        /* \"#utility.yul\":19328:19346   */\n      add\n        /* \"#utility.yul\":19319:19325   */\n      dup5\n        /* \"#utility.yul\":19275:19347   */\n      tag_334\n      jump\t// in\n    tag_563:\n        /* \"#utility.yul\":18912:19354   */\n      swap5\n      swap4\n      pop\n      pop\n      pop\n      pop\n      jump\t// out\n        /* \"#utility.yul\":19360:19450   */\n    tag_367:\n        /* \"#utility.yul\":19394:19401   */\n      0x00\n        /* \"#utility.yul\":19437:19442   */\n      dup2\n        /* \"#utility.yul\":19430:19443   */\n      iszero\n        /* \"#utility.yul\":19423:19444   */\n      iszero\n        /* \"#utility.yul\":19412:19444   */\n      swap1\n      pop\n        /* \"#utility.yul\":19360:19450   */\n      swap2\n      swap1\n      pop\n      jump\t// out\n        /* \"#utility.yul\":19456:19572   */\n    tag_368:\n        /* \"#utility.yul\":19526:19547   */\n      tag_566\n        /* \"#utility.yul\":19541:19546   */\n      dup2\n        /* \"#utility.yul\":19526:19547   */\n      tag_367\n      jump\t// in\n    tag_566:\n        /* \"#utility.yul\":19519:19524   */\n      dup2\n        /* \"#utility.yul\":19516:19548   */\n      eq\n        /* \"#utility.yul\":19506:19566   */\n      tag_567\n      jumpi\n        /* \"#utility.yul\":19562:19563   */\n      0x00\n        /* \"#utility.yul\":19559:19560   */\n      0x00\n        /* \"#utility.yul\":19552:19564   */\n      revert\n        /* \"#utility.yul\":19506:19566   */\n    tag_567:\n        /* \"#utility.yul\":19456:19572   */\n      pop\n      jump\t// out\n        /* \"#utility.yul\":19578:19715   */\n    tag_369:\n        /* \"#utility.yul\":19632:19637   */\n      0x00\n        /* \"#utility.yul\":19663:19669   */\n      dup2\n        /* \"#utility.yul\":19657:19670   */\n      mload\n        /* \"#utility.yul\":19648:19670   */\n      swap1\n      pop\n        /* \"#utility.yul\":19679:19709   */\n      tag_569\n        /* \"#utility.yul\":19703:19708   */\n      dup2\n        /* \"#utility.yul\":19679:19709   */\n      tag_368\n      jump\t// in\n    tag_569:\n        /* \"#utility.yul\":19578:19715   */\n      swap3\n      swap2\n      pop\n      pop\n      jump\t// out\n        /* \"#utility.yul\":19721:20066   */\n    tag_101:\n        /* \"#utility.yul\":19788:19794   */\n      0x00\n        /* \"#utility.yul\":19837:19839   */\n      0x20\n        /* \"#utility.yul\":19825:19834   */\n      dup3\n        /* \"#utility.yul\":19816:19823   */\n      dup5\n        /* \"#utility.yul\":19812:19835   */\n      sub\n        /* \"#utility.yul\":19808:19840   */\n      slt\n        /* \"#utility.yul\":19805:19924   */\n      iszero\n      tag_571\n      jumpi\n        /* \"#utility.yul\":19843:19922   */\n      tag_572\n      tag_329\n      jump\t// in\n    tag_572:\n        /* \"#utility.yul\":19805:19924   */\n    tag_571:\n        /* \"#utility.yul\":19963:19964   */\n      0x00\n        /* \"#utility.yul\":19988:20049   */\n      tag_573\n        /* \"#utility.yul\":20041:20048   */\n      dup5\n        /* \"#utility.yul\":20032:20038   */\n      dup3\n        /* \"#utility.yul\":20021:20030   */\n      dup6\n        /* \"#utility.yul\":20017:20039   */\n      add\n        /* \"#utility.yul\":19988:20049   */\n      tag_369\n      jump\t// in\n    tag_573:\n        /* \"#utility.yul\":19978:20049   */\n      swap2\n      pop\n        /* \"#utility.yul\":19934:20059   */\n      pop\n        /* \"#utility.yul\":19721:20066   */\n      swap3\n      swap2\n      pop\n      pop\n      jump\t// out\n        /* \"#utility.yul\":20072:20404   */\n    tag_106:\n        /* \"#utility.yul\":20193:20197   */\n      0x00\n        /* \"#utility.yul\":20231:20233   */\n      0x40\n        /* \"#utility.yul\":20220:20229   */\n      dup3\n        /* \"#utility.yul\":20216:20234   */\n      add\n        /* \"#utility.yul\":20208:20234   */\n      swap1\n      pop\n        /* \"#utility.yul\":20244:20315   */\n      tag_575\n        /* \"#utility.yul\":20312:20313   */\n      0x00\n        /* \"#utility.yul\":20301:20310   */\n      dup4\n        /* \"#utility.yul\":20297:20314   */\n      add\n        /* \"#utility.yul\":20288:20294   */\n      dup6\n        /* \"#utility.yul\":20244:20315   */\n      tag_366\n      jump\t// in\n    tag_575:\n        /* \"#utility.yul\":20325:20397   */\n      tag_576\n        /* \"#utility.yul\":20393:20395   */\n      0x20\n        /* \"#utility.yul\":20382:20391   */\n      dup4\n        /* \"#utility.yul\":20378:20396   */\n      add\n        /* \"#utility.yul\":20369:20375   */\n      dup5\n        /* \"#utility.yul\":20325:20397   */\n      tag_334\n      jump\t// in\n    tag_576:\n        /* \"#utility.yul\":20072:20404   */\n      swap4\n      swap3\n      pop\n      pop\n      pop\n      jump\t// out\n        /* \"#utility.yul\":20410:20590   */\n    tag_127:\n        /* \"#utility.yul\":20458:20535   */\n      0x4e487b7100000000000000000000000000000000000000000000000000000000\n        /* \"#utility.yul\":20455:20456   */\n      0x00\n        /* \"#utility.yul\":20448:20536   */\n      mstore\n        /* \"#utility.yul\":20555:20559   */\n      0x41\n        /* \"#utility.yul\":20552:20553   */\n      0x04\n        /* \"#utility.yul\":20545:20560   */\n      mstore\n        /* \"#utility.yul\":20579:20583   */\n      0x24\n        /* \"#utility.yul\":20576:20577   */\n      0x00\n        /* \"#utility.yul\":20569:20584   */\n      revert\n        /* \"#utility.yul\":20596:20760   */\n    tag_370:\n        /* \"#utility.yul\":20736:20752   */\n      0x496e76616c696420746f6b656e73000000000000000000000000000000000000\n        /* \"#utility.yul\":20732:20733   */\n      0x00\n        /* \"#utility.yul\":20724:20730   */\n      dup3\n        /* \"#utility.yul\":20720:20734   */\n      add\n        /* \"#utility.yul\":20713:20753   */\n      mstore\n        /* \"#utility.yul\":20596:20760   */\n      pop\n      jump\t// out\n        /* \"#utility.yul\":20766:21132   */\n    tag_371:\n        /* \"#utility.yul\":20908:20911   */\n      0x00\n        /* \"#utility.yul\":20929:20996   */\n      tag_580\n        /* \"#utility.yul\":20993:20995   */\n      0x0e\n        /* \"#utility.yul\":20988:20991   */\n      dup4\n        /* \"#utility.yul\":20929:20996   */\n      tag_350\n      jump\t// in\n    tag_580:\n        /* \"#utility.yul\":20922:20996   */\n      swap2\n      pop\n        /* \"#utility.yul\":21005:21098   */\n      tag_581\n        /* \"#utility.yul\":21094:21097   */\n      dup3\n        /* \"#utility.yul\":21005:21098   */\n      tag_370\n      jump\t// in\n    tag_581:\n        /* \"#utility.yul\":21123:21125   */\n      0x20\n        /* \"#utility.yul\":21118:21121   */\n      dup3\n        /* \"#utility.yul\":21114:21126   */\n      add\n        /* \"#utility.yul\":21107:21126   */\n      swap1\n      pop\n        /* \"#utility.yul\":20766:21132   */\n      swap2\n      swap1\n      pop\n      jump\t// out\n        /* \"#utility.yul\":21138:21557   */\n    tag_139:\n        /* \"#utility.yul\":21304:21308   */\n      0x00\n        /* \"#utility.yul\":21342:21344   */\n      0x20\n        /* \"#utility.yul\":21331:21340   */\n      dup3\n        /* \"#utility.yul\":21327:21345   */\n      add\n        /* \"#utility.yul\":21319:21345   */\n      swap1\n      pop\n        /* \"#utility.yul\":21391:21400   */\n      dup2\n        /* \"#utility.yul\":21385:21389   */\n      dup2\n        /* \"#utility.yul\":21381:21401   */\n      sub\n        /* \"#utility.yul\":21377:21378   */\n      0x00\n        /* \"#utility.yul\":21366:21375   */\n      dup4\n        /* \"#utility.yul\":21362:21379   */\n      add\n        /* \"#utility.yul\":21355:21402   */\n      mstore\n        /* \"#utility.yul\":21419:21550   */\n      tag_583\n        /* \"#utility.yul\":21545:21549   */\n      dup2\n        /* \"#utility.yul\":21419:21550   */\n      tag_371\n      jump\t// in\n    tag_583:\n        /* \"#utility.yul\":21411:21550   */\n      swap1\n      pop\n        /* \"#utility.yul\":21138:21557   */\n      swap2\n      swap1\n      pop\n      jump\t// out\n        /* \"#utility.yul\":21563:21733   */\n    tag_372:\n        /* \"#utility.yul\":21703:21725   */\n      0x4e6f206c697175696469747920696e20706f6f6c000000000000000000000000\n        /* \"#utility.yul\":21699:21700   */\n      0x00\n        /* \"#utility.yul\":21691:21697   */\n      dup3\n        /* \"#utility.yul\":21687:21701   */\n      add\n        /* \"#utility.yul\":21680:21726   */\n      mstore\n        /* \"#utility.yul\":21563:21733   */\n      pop\n      jump\t// out\n        /* \"#utility.yul\":21739:22105   */\n    tag_373:\n        /* \"#utility.yul\":21881:21884   */\n      0x00\n        /* \"#utility.yul\":21902:21969   */\n      tag_586\n        /* \"#utility.yul\":21966:21968   */\n      0x14\n        /* \"#utility.yul\":21961:21964   */\n      dup4\n        /* \"#utility.yul\":21902:21969   */\n      tag_350\n      jump\t// in\n    tag_586:\n        /* \"#utility.yul\":21895:21969   */\n      swap2\n      pop\n        /* \"#utility.yul\":21978:22071   */\n      tag_587\n        /* \"#utility.yul\":22067:22070   */\n      dup3\n        /* \"#utility.yul\":21978:22071   */\n      tag_372\n      jump\t// in\n    tag_587:\n        /* \"#utility.yul\":22096:22098   */\n      0x20\n        /* \"#utility.yul\":22091:22094   */\n      dup3\n        /* \"#utility.yul\":22087:22099   */\n      add\n        /* \"#utility.yul\":22080:22099   */\n      swap1\n      pop\n        /* \"#utility.yul\":21739:22105   */\n      swap2\n      swap1\n      pop\n      jump\t// out\n        /* \"#utility.yul\":22111:22530   */\n    tag_144:\n        /* \"#utility.yul\":22277:22281   */\n      0x00\n        /* \"#utility.yul\":22315:22317   */\n      0x20\n        /* \"#utility.yul\":22304:22313   */\n      dup3\n        /* \"#utility.yul\":22300:22318   */\n      add\n        /* \"#utility.yul\":22292:22318   */\n      swap1\n      pop\n        /* \"#utility.yul\":22364:22373   */\n      dup2\n        /* \"#utility.yul\":22358:22362   */\n      dup2\n        /* \"#utility.yul\":22354:22374   */\n      sub\n        /* \"#utility.yul\":22350:22351   */\n      0x00\n        /* \"#utility.yul\":22339:22348   */\n      dup4\n        /* \"#utility.yul\":22335:22352   */\n      add\n        /* \"#utility.yul\":22328:22375   */\n      mstore\n        /* \"#utility.yul\":22392:22523   */\n      tag_589\n        /* \"#utility.yul\":22518:22522   */\n      dup2\n        /* \"#utility.yul\":22392:22523   */\n      tag_373\n      jump\t// in\n    tag_589:\n        /* \"#utility.yul\":22384:22523   */\n      swap1\n      pop\n        /* \"#utility.yul\":22111:22530   */\n      swap2\n      swap1\n      pop\n      jump\t// out\n        /* \"#utility.yul\":22536:22707   */\n    tag_374:\n        /* \"#utility.yul\":22676:22699   */\n      0x4c6971756964697479206d757374206265203e20300000000000000000000000\n        /* \"#utility.yul\":22672:22673   */\n      0x00\n        /* \"#utility.yul\":22664:22670   */\n      dup3\n        /* \"#utility.yul\":22660:22674   */\n      add\n        /* \"#utility.yul\":22653:22700   */\n      mstore\n        /* \"#utility.yul\":22536:22707   */\n      pop\n      jump\t// out\n        /* \"#utility.yul\":22713:23079   */\n    tag_375:\n        /* \"#utility.yul\":22855:22858   */\n      0x00\n        /* \"#utility.yul\":22876:22943   */\n      tag_592\n        /* \"#utility.yul\":22940:22942   */\n      0x15\n        /* \"#utility.yul\":22935:22938   */\n      dup4\n        /* \"#utility.yul\":22876:22943   */\n      tag_350\n      jump\t// in\n    tag_592:\n        /* \"#utility.yul\":22869:22943   */\n      swap2\n      pop\n        /* \"#utility.yul\":22952:23045   */\n      tag_593\n        /* \"#utility.yul\":23041:23044   */\n      dup3\n        /* \"#utility.yul\":22952:23045   */\n      tag_374\n      jump\t// in\n    tag_593:\n        /* \"#utility.yul\":23070:23072   */\n      0x20\n        /* \"#utility.yul\":23065:23068   */\n      dup3\n        /* \"#utility.yul\":23061:23073   */\n      add\n        /* \"#utility.yul\":23054:23073   */\n      swap1\n      pop\n        /* \"#utility.yul\":22713:23079   */\n      swap2\n      swap1\n      pop\n      jump\t// out\n        /* \"#utility.yul\":23085:23504   */\n    tag_160:\n        /* \"#utility.yul\":23251:23255   */\n      0x00\n        /* \"#utility.yul\":23289:23291   */\n      0x20\n        /* \"#utility.yul\":23278:23287   */\n      dup3\n        /* \"#utility.yul\":23274:23292   */\n      add\n        /* \"#utility.yul\":23266:23292   */\n      swap1\n      pop\n        /* \"#utility.yul\":23338:23347   */\n      dup2\n        /* \"#utility.yul\":23332:23336   */\n      dup2\n        /* \"#utility.yul\":23328:23348   */\n      sub\n        /* \"#utility.yul\":23324:23325   */\n      0x00\n        /* \"#utility.yul\":23313:23322   */\n      dup4\n        /* \"#utility.yul\":23309:23326   */\n      add\n        /* \"#utility.yul\":23302:23349   */\n      mstore\n        /* \"#utility.yul\":23366:23497   */\n      tag_595\n        /* \"#utility.yul\":23492:23496   */\n      dup2\n        /* \"#utility.yul\":23366:23497   */\n      tag_375\n      jump\t// in\n    tag_595:\n        /* \"#utility.yul\":23358:23497   */\n      swap1\n      pop\n        /* \"#utility.yul\":23085:23504   */\n      swap2\n      swap1\n      pop\n      jump\t// out\n        /* \"#utility.yul\":23510:23682   */\n    tag_376:\n        /* \"#utility.yul\":23650:23674   */\n      0x496e73756666696369656e74206c697175696469747900000000000000000000\n        /* \"#utility.yul\":23646:23647   */\n      0x00\n        /* \"#utility.yul\":23638:23644   */\n      dup3\n        /* \"#utility.yul\":23634:23648   */\n      add\n        /* \"#utility.yul\":23627:23675   */\n      mstore\n        /* \"#utility.yul\":23510:23682   */\n      pop\n      jump\t// out\n        /* \"#utility.yul\":23688:24054   */\n    tag_377:\n        /* \"#utility.yul\":23830:23833   */\n      0x00\n        /* \"#utility.yul\":23851:23918   */\n      tag_598\n        /* \"#utility.yul\":23915:23917   */\n      0x16\n        /* \"#utility.yul\":23910:23913   */\n      dup4\n        /* \"#utility.yul\":23851:23918   */\n      tag_350\n      jump\t// in\n    tag_598:\n        /* \"#utility.yul\":23844:23918   */\n      swap2\n      pop\n        /* \"#utility.yul\":23927:24020   */\n      tag_599\n        /* \"#utility.yul\":24016:24019   */\n      dup3\n        /* \"#utility.yul\":23927:24020   */\n      tag_376\n      jump\t// in\n    tag_599:\n        /* \"#utility.yul\":24045:24047   */\n      0x20\n        /* \"#utility.yul\":24040:24043   */\n      dup3\n        /* \"#utility.yul\":24036:24048   */\n      add\n        /* \"#utility.yul\":24029:24048   */\n      swap1\n      pop\n        /* \"#utility.yul\":23688:24054   */\n      swap2\n      swap1\n      pop\n      jump\t// out\n        /* \"#utility.yul\":24060:24479   */\n    tag_166:\n        /* \"#utility.yul\":24226:24230   */\n      0x00\n        /* \"#utility.yul\":24264:24266   */\n      0x20\n        /* \"#utility.yul\":24253:24262   */\n      dup3\n        /* \"#utility.yul\":24249:24267   */\n      add\n        /* \"#utility.yul\":24241:24267   */\n      swap1\n      pop\n        /* \"#utility.yul\":24313:24322   */\n      dup2\n        /* \"#utility.yul\":24307:24311   */\n      dup2\n        /* \"#utility.yul\":24303:24323   */\n      sub\n        /* \"#utility.yul\":24299:24300   */\n      0x00\n        /* \"#utility.yul\":24288:24297   */\n      dup4\n        /* \"#utility.yul\":24284:24301   */\n      add\n        /* \"#utility.yul\":24277:24324   */\n      mstore\n        /* \"#utility.yul\":24341:24472   */\n      tag_601\n        /* \"#utility.yul\":24467:24471   */\n      dup2\n        /* \"#utility.yul\":24341:24472   */\n      tag_377\n      jump\t// in\n    tag_601:\n        /* \"#utility.yul\":24333:24472   */\n      swap1\n      pop\n        /* \"#utility.yul\":24060:24479   */\n      swap2\n      swap1\n      pop\n      jump\t// out\n        /* \"#utility.yul\":24485:24655   */\n    tag_378:\n        /* \"#utility.yul\":24625:24647   */\n      0x456d707479206c697175696469747920706f6f6c000000000000000000000000\n        /* \"#utility.yul\":24621:24622   */\n      0x00\n        /* \"#utility.yul\":24613:24619   */\n      dup3\n        /* \"#utility.yul\":24609:24623   */\n      add\n        /* \"#utility.yul\":24602:24648   */\n      mstore\n        /* \"#utility.yul\":24485:24655   */\n      pop\n      jump\t// out\n        /* \"#utility.yul\":24661:25027   */\n    tag_379:\n        /* \"#utility.yul\":24803:24806   */\n      0x00\n        /* \"#utility.yul\":24824:24891   */\n      tag_604\n        /* \"#utility.yul\":24888:24890   */\n      0x14\n        /* \"#utility.yul\":24883:24886   */\n      dup4\n        /* \"#utility.yul\":24824:24891   */\n      tag_350\n      jump\t// in\n    tag_604:\n        /* \"#utility.yul\":24817:24891   */\n      swap2\n      pop\n        /* \"#utility.yul\":24900:24993   */\n      tag_605\n        /* \"#utility.yul\":24989:24992   */\n      dup3\n        /* \"#utility.yul\":24900:24993   */\n      tag_378\n      jump\t// in\n    tag_605:\n        /* \"#utility.yul\":25018:25020   */\n      0x20\n        /* \"#utility.yul\":25013:25016   */\n      dup3\n        /* \"#utility.yul\":25009:25021   */\n      add\n        /* \"#utility.yul\":25002:25021   */\n      swap1\n      pop\n        /* \"#utility.yul\":24661:25027   */\n      swap2\n      swap1\n      pop\n      jump\t// out\n        /* \"#utility.yul\":25033:25452   */\n    tag_169:\n        /* \"#utility.yul\":25199:25203   */\n      0x00\n        /* \"#utility.yul\":25237:25239   */\n      0x20\n        /* \"#utility.yul\":25226:25235   */\n      dup3\n        /* \"#utility.yul\":25222:25240   */\n      add\n        /* \"#utility.yul\":25214:25240   */\n      swap1\n      pop\n        /* \"#utility.yul\":25286:25295   */\n      dup2\n        /* \"#utility.yul\":25280:25284   */\n      dup2\n        /* \"#utility.yul\":25276:25296   */\n      sub\n        /* \"#utility.yul\":25272:25273   */\n      0x00\n        /* \"#utility.yul\":25261:25270   */\n      dup4\n        /* \"#utility.yul\":25257:25274   */\n      add\n        /* \"#utility.yul\":25250:25297   */\n      mstore\n        /* \"#utility.yul\":25314:25445   */\n      tag_607\n        /* \"#utility.yul\":25440:25444   */\n      dup2\n        /* \"#utility.yul\":25314:25445   */\n      tag_379\n      jump\t// in\n    tag_607:\n        /* \"#utility.yul\":25306:25445   */\n      swap1\n      pop\n        /* \"#utility.yul\":25033:25452   */\n      swap2\n      swap1\n      pop\n      jump\t// out\n        /* \"#utility.yul\":25458:25629   */\n    tag_380:\n        /* \"#utility.yul\":25598:25621   */\n      0x546f6b656e4120736c697070616765206572726f720000000000000000000000\n        /* \"#utility.yul\":25594:25595   */\n      0x00\n        /* \"#utility.yul\":25586:25592   */\n      dup3\n        /* \"#utility.yul\":25582:25596   */\n      add\n        /* \"#utility.yul\":25575:25622   */\n      mstore\n        /* \"#utility.yul\":25458:25629   */\n      pop\n      jump\t// out\n        /* \"#utility.yul\":25635:26001   */\n    tag_381:\n        /* \"#utility.yul\":25777:25780   */\n      0x00\n        /* \"#utility.yul\":25798:25865   */\n      tag_610\n        /* \"#utility.yul\":25862:25864   */\n      0x15\n        /* \"#utility.yul\":25857:25860   */\n      dup4\n        /* \"#utility.yul\":25798:25865   */\n      tag_350\n      jump\t// in\n    tag_610:\n        /* \"#utility.yul\":25791:25865   */\n      swap2\n      pop\n        /* \"#utility.yul\":25874:25967   */\n      tag_611\n        /* \"#utility.yul\":25963:25966   */\n      dup3\n        /* \"#utility.yul\":25874:25967   */\n      tag_380\n      jump\t// in\n    tag_611:\n        /* \"#utility.yul\":25992:25994   */\n      0x20\n        /* \"#utility.yul\":25987:25990   */\n      dup3\n        /* \"#utility.yul\":25983:25995   */\n      add\n        /* \"#utility.yul\":25976:25995   */\n      swap1\n      pop\n        /* \"#utility.yul\":25635:26001   */\n      swap2\n      swap1\n      pop\n      jump\t// out\n        /* \"#utility.yul\":26007:26426   */\n    tag_180:\n        /* \"#utility.yul\":26173:26177   */\n      0x00\n        /* \"#utility.yul\":26211:26213   */\n      0x20\n        /* \"#utility.yul\":26200:26209   */\n      dup3\n        /* \"#utility.yul\":26196:26214   */\n      add\n        /* \"#utility.yul\":26188:26214   */\n      swap1\n      pop\n        /* \"#utility.yul\":26260:26269   */\n      dup2\n        /* \"#utility.yul\":26254:26258   */\n      dup2\n        /* \"#utility.yul\":26250:26270   */\n      sub\n        /* \"#utility.yul\":26246:26247   */\n      0x00\n        /* \"#utility.yul\":26235:26244   */\n      dup4\n        /* \"#utility.yul\":26231:26248   */\n      add\n        /* \"#utility.yul\":26224:26271   */\n      mstore\n        /* \"#utility.yul\":26288:26419   */\n      tag_613\n        /* \"#utility.yul\":26414:26418   */\n      dup2\n        /* \"#utility.yul\":26288:26419   */\n      tag_381\n      jump\t// in\n    tag_613:\n        /* \"#utility.yul\":26280:26419   */\n      swap1\n      pop\n        /* \"#utility.yul\":26007:26426   */\n      swap2\n      swap1\n      pop\n      jump\t// out\n        /* \"#utility.yul\":26432:26603   */\n    tag_382:\n        /* \"#utility.yul\":26572:26595   */\n      0x546f6b656e4220736c697070616765206572726f720000000000000000000000\n        /* \"#utility.yul\":26568:26569   */\n      0x00\n        /* \"#utility.yul\":26560:26566   */\n      dup3\n        /* \"#utility.yul\":26556:26570   */\n      add\n        /* \"#utility.yul\":26549:26596   */\n      mstore\n        /* \"#utility.yul\":26432:26603   */\n      pop\n      jump\t// out\n        /* \"#utility.yul\":26609:26975   */\n    tag_383:\n        /* \"#utility.yul\":26751:26754   */\n      0x00\n        /* \"#utility.yul\":26772:26839   */\n      tag_616\n        /* \"#utility.yul\":26836:26838   */\n      0x15\n        /* \"#utility.yul\":26831:26834   */\n      dup4\n        /* \"#utility.yul\":26772:26839   */\n      tag_350\n      jump\t// in\n    tag_616:\n        /* \"#utility.yul\":26765:26839   */\n      swap2\n      pop\n        /* \"#utility.yul\":26848:26941   */\n      tag_617\n        /* \"#utility.yul\":26937:26940   */\n      dup3\n        /* \"#utility.yul\":26848:26941   */\n      tag_382\n      jump\t// in\n    tag_617:\n        /* \"#utility.yul\":26966:26968   */\n      0x20\n        /* \"#utility.yul\":26961:26964   */\n      dup3\n        /* \"#utility.yul\":26957:26969   */\n      add\n        /* \"#utility.yul\":26950:26969   */\n      swap1\n      pop\n        /* \"#utility.yul\":26609:26975   */\n      swap2\n      swap1\n      pop\n      jump\t// out\n        /* \"#utility.yul\":26981:27400   */\n    tag_183:\n        /* \"#utility.yul\":27147:27151   */\n      0x00\n        /* \"#utility.yul\":27185:27187   */\n      0x20\n        /* \"#utility.yul\":27174:27183   */\n      dup3\n        /* \"#utility.yul\":27170:27188   */\n      add\n        /* \"#utility.yul\":27162:27188   */\n      swap1\n      pop\n        /* \"#utility.yul\":27234:27243   */\n      dup2\n        /* \"#utility.yul\":27228:27232   */\n      dup2\n        /* \"#utility.yul\":27224:27244   */\n      sub\n        /* \"#utility.yul\":27220:27221   */\n      0x00\n        /* \"#utility.yul\":27209:27218   */\n      dup4\n        /* \"#utility.yul\":27205:27222   */\n      add\n        /* \"#utility.yul\":27198:27245   */\n      mstore\n        /* \"#utility.yul\":27262:27393   */\n      tag_619\n        /* \"#utility.yul\":27388:27392   */\n      dup2\n        /* \"#utility.yul\":27262:27393   */\n      tag_383\n      jump\t// in\n    tag_619:\n        /* \"#utility.yul\":27254:27393   */\n      swap1\n      pop\n        /* \"#utility.yul\":26981:27400   */\n      swap2\n      swap1\n      pop\n      jump\t// out\n        /* \"#utility.yul\":27406:27600   */\n    tag_185:\n        /* \"#utility.yul\":27446:27450   */\n      0x00\n        /* \"#utility.yul\":27466:27486   */\n      tag_621\n        /* \"#utility.yul\":27484:27485   */\n      dup3\n        /* \"#utility.yul\":27466:27486   */\n      tag_331\n      jump\t// in\n    tag_621:\n        /* \"#utility.yul\":27461:27486   */\n      swap2\n      pop\n        /* \"#utility.yul\":27500:27520   */\n      tag_622\n        /* \"#utility.yul\":27518:27519   */\n      dup4\n        /* \"#utility.yul\":27500:27520   */\n      tag_331\n      jump\t// in\n    tag_622:\n        /* \"#utility.yul\":27495:27520   */\n      swap3\n      pop\n        /* \"#utility.yul\":27544:27545   */\n      dup3\n        /* \"#utility.yul\":27541:27542   */\n      dup3\n        /* \"#utility.yul\":27537:27546   */\n      sub\n        /* \"#utility.yul\":27529:27546   */\n      swap1\n      pop\n        /* \"#utility.yul\":27568:27569   */\n      dup2\n        /* \"#utility.yul\":27562:27566   */\n      dup2\n        /* \"#utility.yul\":27559:27570   */\n      gt\n        /* \"#utility.yul\":27556:27593   */\n      iszero\n      tag_623\n      jumpi\n        /* \"#utility.yul\":27573:27591   */\n      tag_624\n      tag_353\n      jump\t// in\n    tag_624:\n        /* \"#utility.yul\":27556:27593   */\n    tag_623:\n        /* \"#utility.yul\":27406:27600   */\n      swap3\n      swap2\n      pop\n      pop\n      jump\t// out\n        /* \"#utility.yul\":27606:28159   */\n    tag_227:\n        /* \"#utility.yul\":27783:27787   */\n      0x00\n        /* \"#utility.yul\":27821:27824   */\n      0x80\n        /* \"#utility.yul\":27810:27819   */\n      dup3\n        /* \"#utility.yul\":27806:27825   */\n      add\n        /* \"#utility.yul\":27798:27825   */\n      swap1\n      pop\n        /* \"#utility.yul\":27835:27906   */\n      tag_626\n        /* \"#utility.yul\":27903:27904   */\n      0x00\n        /* \"#utility.yul\":27892:27901   */\n      dup4\n        /* \"#utility.yul\":27888:27905   */\n      add\n        /* \"#utility.yul\":27879:27885   */\n      dup8\n        /* \"#utility.yul\":27835:27906   */\n      tag_334\n      jump\t// in\n    tag_626:\n        /* \"#utility.yul\":27916:27988   */\n      tag_627\n        /* \"#utility.yul\":27984:27986   */\n      0x20\n        /* \"#utility.yul\":27973:27982   */\n      dup4\n        /* \"#utility.yul\":27969:27987   */\n      add\n        /* \"#utility.yul\":27960:27966   */\n      dup7\n        /* \"#utility.yul\":27916:27988   */\n      tag_334\n      jump\t// in\n    tag_627:\n        /* \"#utility.yul\":27998:28070   */\n      tag_628\n        /* \"#utility.yul\":28066:28068   */\n      0x40\n        /* \"#utility.yul\":28055:28064   */\n      dup4\n        /* \"#utility.yul\":28051:28069   */\n      add\n        /* \"#utility.yul\":28042:28048   */\n      dup6\n        /* \"#utility.yul\":27998:28070   */\n      tag_334\n      jump\t// in\n    tag_628:\n        /* \"#utility.yul\":28080:28152   */\n      tag_629\n        /* \"#utility.yul\":28148:28150   */\n      0x60\n        /* \"#utility.yul\":28137:28146   */\n      dup4\n        /* \"#utility.yul\":28133:28151   */\n      add\n        /* \"#utility.yul\":28124:28130   */\n      dup5\n        /* \"#utility.yul\":28080:28152   */\n      tag_334\n      jump\t// in\n    tag_629:\n        /* \"#utility.yul\":27606:28159   */\n      swap6\n      swap5\n      pop\n      pop\n      pop\n      pop\n      pop\n      jump\t// out\n        /* \"#utility.yul\":28165:28259   */\n    tag_384:\n        /* \"#utility.yul\":28198:28206   */\n      0x00\n        /* \"#utility.yul\":28246:28251   */\n      dup2\n        /* \"#utility.yul\":28242:28244   */\n      0x60\n        /* \"#utility.yul\":28238:28252   */\n      shl\n        /* \"#utility.yul\":28217:28252   */\n      swap1\n      pop\n        /* \"#utility.yul\":28165:28259   */\n      swap2\n      swap1\n      pop\n      jump\t// out\n        /* \"#utility.yul\":28265:28359   */\n    tag_385:\n        /* \"#utility.yul\":28304:28311   */\n      0x00\n        /* \"#utility.yul\":28333:28353   */\n      tag_632\n        /* \"#utility.yul\":28347:28352   */\n      dup3\n        /* \"#utility.yul\":28333:28353   */\n      tag_384\n      jump\t// in\n    tag_632:\n        /* \"#utility.yul\":28322:28353   */\n      swap1\n      pop\n        /* \"#utility.yul\":28265:28359   */\n      swap2\n      swap1\n      pop\n      jump\t// out\n        /* \"#utility.yul\":28365:28465   */\n    tag_386:\n        /* \"#utility.yul\":28404:28411   */\n      0x00\n        /* \"#utility.yul\":28433:28459   */\n      tag_634\n        /* \"#utility.yul\":28453:28458   */\n      dup3\n        /* \"#utility.yul\":28433:28459   */\n      tag_385\n      jump\t// in\n    tag_634:\n        /* \"#utility.yul\":28422:28459   */\n      swap1\n      pop\n        /* \"#utility.yul\":28365:28465   */\n      swap2\n      swap1\n      pop\n      jump\t// out\n        /* \"#utility.yul\":28471:28628   */\n    tag_387:\n        /* \"#utility.yul\":28576:28621   */\n      tag_636\n        /* \"#utility.yul\":28596:28620   */\n      tag_637\n        /* \"#utility.yul\":28614:28619   */\n      dup3\n        /* \"#utility.yul\":28596:28620   */\n      tag_340\n      jump\t// in\n    tag_637:\n        /* \"#utility.yul\":28576:28621   */\n      tag_386\n      jump\t// in\n    tag_636:\n        /* \"#utility.yul\":28571:28574   */\n      dup3\n        /* \"#utility.yul\":28564:28622   */\n      mstore\n        /* \"#utility.yul\":28471:28628   */\n      pop\n      pop\n      jump\t// out\n        /* \"#utility.yul\":28634:29031   */\n    tag_234:\n        /* \"#utility.yul\":28774:28777   */\n      0x00\n        /* \"#utility.yul\":28789:28864   */\n      tag_639\n        /* \"#utility.yul\":28860:28863   */\n      dup3\n        /* \"#utility.yul\":28851:28857   */\n      dup6\n        /* \"#utility.yul\":28789:28864   */\n      tag_387\n      jump\t// in\n    tag_639:\n        /* \"#utility.yul\":28889:28891   */\n      0x14\n        /* \"#utility.yul\":28884:28887   */\n      dup3\n        /* \"#utility.yul\":28880:28892   */\n      add\n        /* \"#utility.yul\":28873:28892   */\n      swap2\n      pop\n        /* \"#utility.yul\":28902:28977   */\n      tag_640\n        /* \"#utility.yul\":28973:28976   */\n      dup3\n        /* \"#utility.yul\":28964:28970   */\n      dup5\n        /* \"#utility.yul\":28902:28977   */\n      tag_387\n      jump\t// in\n    tag_640:\n        /* \"#utility.yul\":29002:29004   */\n      0x14\n        /* \"#utility.yul\":28997:29000   */\n      dup3\n        /* \"#utility.yul\":28993:29005   */\n      add\n        /* \"#utility.yul\":28986:29005   */\n      swap2\n      pop\n        /* \"#utility.yul\":29022:29025   */\n      dup2\n        /* \"#utility.yul\":29015:29025   */\n      swap1\n      pop\n        /* \"#utility.yul\":28634:29031   */\n      swap4\n      swap3\n      pop\n      pop\n      pop\n      jump\t// out\n        /* \"#utility.yul\":29037:29204   */\n    tag_388:\n        /* \"#utility.yul\":29177:29196   */\n      0x4d75737420626520646966666572656e74000000000000000000000000000000\n        /* \"#utility.yul\":29173:29174   */\n      0x00\n        /* \"#utility.yul\":29165:29171   */\n      dup3\n        /* \"#utility.yul\":29161:29175   */\n      add\n        /* \"#utility.yul\":29154:29197   */\n      mstore\n        /* \"#utility.yul\":29037:29204   */\n      pop\n      jump\t// out\n        /* \"#utility.yul\":29210:29576   */\n    tag_389:\n        /* \"#utility.yul\":29352:29355   */\n      0x00\n        /* \"#utility.yul\":29373:29440   */\n      tag_643\n        /* \"#utility.yul\":29437:29439   */\n      0x11\n        /* \"#utility.yul\":29432:29435   */\n      dup4\n        /* \"#utility.yul\":29373:29440   */\n      tag_350\n      jump\t// in\n    tag_643:\n        /* \"#utility.yul\":29366:29440   */\n      swap2\n      pop\n        /* \"#utility.yul\":29449:29542   */\n      tag_644\n        /* \"#utility.yul\":29538:29541   */\n      dup3\n        /* \"#utility.yul\":29449:29542   */\n      tag_388\n      jump\t// in\n    tag_644:\n        /* \"#utility.yul\":29567:29569   */\n      0x20\n        /* \"#utility.yul\":29562:29565   */\n      dup3\n        /* \"#utility.yul\":29558:29570   */\n      add\n        /* \"#utility.yul\":29551:29570   */\n      swap1\n      pop\n        /* \"#utility.yul\":29210:29576   */\n      swap2\n      swap1\n      pop\n      jump\t// out\n        /* \"#utility.yul\":29582:30001   */\n    tag_253:\n        /* \"#utility.yul\":29748:29752   */\n      0x00\n        /* \"#utility.yul\":29786:29788   */\n      0x20\n        /* \"#utility.yul\":29775:29784   */\n      dup3\n        /* \"#utility.yul\":29771:29789   */\n      add\n        /* \"#utility.yul\":29763:29789   */\n      swap1\n      pop\n        /* \"#utility.yul\":29835:29844   */\n      dup2\n        /* \"#utility.yul\":29829:29833   */\n      dup2\n        /* \"#utility.yul\":29825:29845   */\n      sub\n        /* \"#utility.yul\":29821:29822   */\n      0x00\n        /* \"#utility.yul\":29810:29819   */\n      dup4\n        /* \"#utility.yul\":29806:29823   */\n      add\n        /* \"#utility.yul\":29799:29846   */\n      mstore\n        /* \"#utility.yul\":29863:29994   */\n      tag_646\n        /* \"#utility.yul\":29989:29993   */\n      dup2\n        /* \"#utility.yul\":29863:29994   */\n      tag_389\n      jump\t// in\n    tag_646:\n        /* \"#utility.yul\":29855:29994   */\n      swap1\n      pop\n        /* \"#utility.yul\":29582:30001   */\n      swap2\n      swap1\n      pop\n      jump\t// out\n        /* \"#utility.yul\":30007:30176   */\n    tag_390:\n        /* \"#utility.yul\":30147:30168   */\n      0x416d6f756e7473206d757374206265203e203000000000000000000000000000\n        /* \"#utility.yul\":30143:30144   */\n      0x00\n        /* \"#utility.yul\":30135:30141   */\n      dup3\n        /* \"#utility.yul\":30131:30145   */\n      add\n        /* \"#utility.yul\":30124:30169   */\n      mstore\n        /* \"#utility.yul\":30007:30176   */\n      pop\n      jump\t// out\n        /* \"#utility.yul\":30182:30548   */\n    tag_391:\n        /* \"#utility.yul\":30324:30327   */\n      0x00\n        /* \"#utility.yul\":30345:30412   */\n      tag_649\n        /* \"#utility.yul\":30409:30411   */\n      0x13\n        /* \"#utility.yul\":30404:30407   */\n      dup4\n        /* \"#utility.yul\":30345:30412   */\n      tag_350\n      jump\t// in\n    tag_649:\n        /* \"#utility.yul\":30338:30412   */\n      swap2\n      pop\n        /* \"#utility.yul\":30421:30514   */\n      tag_650\n        /* \"#utility.yul\":30510:30513   */\n      dup3\n        /* \"#utility.yul\":30421:30514   */\n      tag_390\n      jump\t// in\n    tag_650:\n        /* \"#utility.yul\":30539:30541   */\n      0x20\n        /* \"#utility.yul\":30534:30537   */\n      dup3\n        /* \"#utility.yul\":30530:30542   */\n      add\n        /* \"#utility.yul\":30523:30542   */\n      swap1\n      pop\n        /* \"#utility.yul\":30182:30548   */\n      swap2\n      swap1\n      pop\n      jump\t// out\n        /* \"#utility.yul\":30554:30973   */\n    tag_263:\n        /* \"#utility.yul\":30720:30724   */\n      0x00\n        /* \"#utility.yul\":30758:30760   */\n      0x20\n        /* \"#utility.yul\":30747:30756   */\n      dup3\n        /* \"#utility.yul\":30743:30761   */\n      add\n        /* \"#utility.yul\":30735:30761   */\n      swap1\n      pop\n        /* \"#utility.yul\":30807:30816   */\n      dup2\n        /* \"#utility.yul\":30801:30805   */\n      dup2\n        /* \"#utility.yul\":30797:30817   */\n      sub\n        /* \"#utility.yul\":30793:30794   */\n      0x00\n        /* \"#utility.yul\":30782:30791   */\n      dup4\n        /* \"#utility.yul\":30778:30795   */\n      add\n        /* \"#utility.yul\":30771:30818   */\n      mstore\n        /* \"#utility.yul\":30835:30966   */\n      tag_652\n        /* \"#utility.yul\":30961:30965   */\n      dup2\n        /* \"#utility.yul\":30835:30966   */\n      tag_391\n      jump\t// in\n    tag_652:\n        /* \"#utility.yul\":30827:30966   */\n      swap1\n      pop\n        /* \"#utility.yul\":30554:30973   */\n      swap2\n      swap1\n      pop\n      jump\t// out\n\n    auxdata: 0xa26469706673582212208213aa89b1dc3b87da8f91775ddd5bce6513196d6146d0e76c7bc4d2853abdd864736f6c634300081b0033\n}\n",
				"bytecode": {
					"linkReferences": {},
					"object": "6080604052348015600e575f5ffd5b5060015f8190555061287b806100235f395ff3fe608060405234801561000f575f5ffd5b5060043610610055575f3560e01c8063054d50d41461005957806338ed173914610089578063ac41865a146100b9578063baa2abde146100e9578063e8e337001461011a575b5f5ffd5b610073600480360381019061006e91906119f9565b61014c565b6040516100809190611a58565b60405180910390f35b6100a3600480360381019061009e9190611b2c565b6101f9565b6040516100b09190611c79565b60405180910390f35b6100d360048036038101906100ce9190611c99565b6107c2565b6040516100e09190611a58565b60405180910390f35b61010360048036038101906100fe9190611cd7565b610973565b604051610111929190611d74565b60405180910390f35b610134600480360381019061012f9190611d9b565b610f20565b60405161014393929190611e4c565b60405180910390f35b5f5f8411801561015b57505f83115b801561016657505f82115b6101a5576040517f08c379a000000000000000000000000000000000000000000000000000000000815260040161019c90611edb565b60405180910390fd5b5f6103e5856101b49190611f26565b90505f83826101c39190611f26565b90505f826103e8876101d59190611f26565b6101df9190611f67565b905080826101ed9190611fc7565b93505050509392505050565b6060610203611239565b81421115610246576040517f08c379a000000000000000000000000000000000000000000000000000000000815260040161023d90612041565b60405180910390fd5b6002858590501461028c576040517f08c379a0000000000000000000000000000000000000000000000000000000008152600401610283906120a9565b60405180910390fd5b5f73ffffffffffffffffffffffffffffffffffffffff168373ffffffffffffffffffffffffffffffffffffffff16036102fa576040517f08c379a00000000000000000000000000000000000000000000000000000000081526004016102f190612111565b60405180910390fd5b5f871161033c576040517f08c379a000000000000000000000000000000000000000000000000000000000815260040161033390612179565b60405180910390fd5b5f61039686865f81811061035357610352612197565b5b905060200201602081019061036891906121c4565b8787600181811061037c5761037b612197565b5b905060200201602081019061039191906121c4565b61127d565b90505f60015f8381526020019081526020015f2090505f5f61040889895f8181106103c4576103c3612197565b5b90506020020160208101906103d991906121c4565b8a8a60018181106103ed576103ec612197565b5b905060200201602081019061040291906121c4565b85611311565b915091505f8211801561041a57505f81115b610459576040517f08c379a000000000000000000000000000000000000000000000000000000000815260040161045090612239565b60405180910390fd5b5f6104658c848461014c565b90508a8110156104aa576040517f08c379a00000000000000000000000000000000000000000000000000000000081526004016104a1906122a1565b60405180910390fd5b89895f8181106104bd576104bc612197565b5b90506020020160208101906104d291906121c4565b73ffffffffffffffffffffffffffffffffffffffff166323b872dd33308f6040518463ffffffff1660e01b815260040161050e939291906122ce565b6020604051808303815f875af115801561052a573d5f5f3e3d5ffd5b505050506040513d601f19601f8201168201806040525081019061054e9190612338565b508989600181811061056357610562612197565b5b905060200201602081019061057891906121c4565b73ffffffffffffffffffffffffffffffffffffffff1663a9059cbb89836040518363ffffffff1660e01b81526004016105b2929190612363565b6020604051808303815f875af11580156105ce573d5f5f3e3d5ffd5b505050506040513d601f19601f820116820180604052508101906105f29190612338565b5061064f8a8a5f81811061060957610608612197565b5b905060200201602081019061061e91906121c4565b8b8b600181811061063257610631612197565b5b905060200201602081019061064791906121c4565b868f8561137d565b8989600181811061066357610662612197565b5b905060200201602081019061067891906121c4565b73ffffffffffffffffffffffffffffffffffffffff168a8a5f8181106106a1576106a0612197565b5b90506020020160208101906106b691906121c4565b73ffffffffffffffffffffffffffffffffffffffff163373ffffffffffffffffffffffffffffffffffffffff167f78144de69c30989060d6bc0b4e6da9a31b6497866db952e683d0221e9cd201658f854260405161071693929190611e4c565b60405180910390a4600267ffffffffffffffff8111156107395761073861238a565b5b6040519080825280602002602001820160405280156107675781602001602082028036833780820191505090505b5095508b865f8151811061077e5761077d612197565b5b602002602001018181525050808660018151811061079f5761079e612197565b5b60200260200101818152505050505050506107b8611432565b9695505050505050565b5f5f73ffffffffffffffffffffffffffffffffffffffff168373ffffffffffffffffffffffffffffffffffffffff161415801561082b57505f73ffffffffffffffffffffffffffffffffffffffff168273ffffffffffffffffffffffffffffffffffffffff1614155b61086a576040517f08c379a000000000000000000000000000000000000000000000000000000000815260040161086190612401565b60405180910390fd5b5f610875848461127d565b90505f60015f8381526020019081526020015f2090505f815f01541180156108a057505f8160010154115b6108df576040517f08c379a00000000000000000000000000000000000000000000000000000000081526004016108d690612469565b60405180910390fd5b8373ffffffffffffffffffffffffffffffffffffffff168573ffffffffffffffffffffffffffffffffffffffff16101561094257805f0154670de0b6b3a7640000826001015461092f9190611f26565b6109399190611fc7565b9250505061096d565b8060010154670de0b6b3a7640000825f015461095e9190611f26565b6109689190611fc7565b925050505b92915050565b5f5f61097d611239565b824211156109c0576040517f08c379a00000000000000000000000000000000000000000000000000000000081526004016109b790612041565b60405180910390fd5b5f73ffffffffffffffffffffffffffffffffffffffff168473ffffffffffffffffffffffffffffffffffffffff1603610a2e576040517f08c379a0000000000000000000000000000000000000000000000000000000008152600401610a2590612111565b60405180910390fd5b5f8711610a70576040517f08c379a0000000000000000000000000000000000000000000000000000000008152600401610a67906124d1565b60405180910390fd5b5f610a7b8a8a61143b565b5090505f610a898b8b61127d565b90505f60015f8381526020019081526020015f20905089816003015f3373ffffffffffffffffffffffffffffffffffffffff1673ffffffffffffffffffffffffffffffffffffffff1681526020019081526020015f20541015610b21576040517f08c379a0000000000000000000000000000000000000000000000000000000008152600401610b1890612539565b60405180910390fd5b5f816002015411610b67576040517f08c379a0000000000000000000000000000000000000000000000000000000008152600401610b5e906125a1565b60405180910390fd5b5f8373ffffffffffffffffffffffffffffffffffffffff168d73ffffffffffffffffffffffffffffffffffffffff1614610ba5578160010154610baa565b815f01545b90505f8473ffffffffffffffffffffffffffffffffffffffff168e73ffffffffffffffffffffffffffffffffffffffff1614610be957825f0154610bef565b82600101545b90508260020154828d610c029190611f26565b610c0c9190611fc7565b96508260020154818d610c1f9190611f26565b610c299190611fc7565b95508a871015610c6e576040517f08c379a0000000000000000000000000000000000000000000000000000000008152600401610c6590612609565b60405180910390fd5b89861015610cb1576040517f08c379a0000000000000000000000000000000000000000000000000000000008152600401610ca890612671565b60405180910390fd5b8b836002015f828254610cc4919061268f565b925050819055508b836003015f3373ffffffffffffffffffffffffffffffffffffffff1673ffffffffffffffffffffffffffffffffffffffff1681526020019081526020015f205f828254610d19919061268f565b925050819055508473ffffffffffffffffffffffffffffffffffffffff168e73ffffffffffffffffffffffffffffffffffffffff1603610d8b5786835f015f828254610d65919061268f565b9250508190555085836001015f828254610d7f919061268f565b92505081905550610dbf565b85835f015f828254610d9d919061268f565b9250508190555086836001015f828254610db7919061268f565b925050819055505b8d73ffffffffffffffffffffffffffffffffffffffff1663a9059cbb8a896040518363ffffffff1660e01b8152600401610dfa929190612363565b6020604051808303815f875af1158015610e16573d5f5f3e3d5ffd5b505050506040513d601f19601f82011682018060405250810190610e3a9190612338565b508c73ffffffffffffffffffffffffffffffffffffffff1663a9059cbb8a886040518363ffffffff1660e01b8152600401610e76929190612363565b6020604051808303815f875af1158015610e92573d5f5f3e3d5ffd5b505050506040513d601f19601f82011682018060405250810190610eb69190612338565b503373ffffffffffffffffffffffffffffffffffffffff167f96cd817c6329656790ef8fba7675405193677d39619571282f5e21f3a98cd0598888604051610eff929190611d74565b60405180910390a25050505050610f14611432565b97509795505050505050565b5f5f5f610f2b611239565b83421115610f6e576040517f08c379a0000000000000000000000000000000000000000000000000000000008152600401610f6590612041565b60405180910390fd5b5f73ffffffffffffffffffffffffffffffffffffffff168573ffffffffffffffffffffffffffffffffffffffff1603610fdc576040517f08c379a0000000000000000000000000000000000000000000000000000000008152600401610fd390612111565b60405180910390fd5b5f610fe78c8c61143b565b5090505f610ff58d8d61127d565b90505f60015f8381526020019081526020015f20905061101a8e848e8e8e8e876114f3565b8096508197508298505050508d73ffffffffffffffffffffffffffffffffffffffff166323b872dd3330896040518463ffffffff1660e01b8152600401611063939291906122ce565b6020604051808303815f875af115801561107f573d5f5f3e3d5ffd5b505050506040513d601f19601f820116820180604052508101906110a39190612338565b508c73ffffffffffffffffffffffffffffffffffffffff166323b872dd3330886040518463ffffffff1660e01b81526004016110e1939291906122ce565b6020604051808303815f875af11580156110fd573d5f5f3e3d5ffd5b505050506040513d601f19601f820116820180604052508101906111219190612338565b5061112f8e848389896116e7565b83816002015f8282546111429190611f67565b9250508190555083816003015f8a73ffffffffffffffffffffffffffffffffffffffff1673ffffffffffffffffffffffffffffffffffffffff1681526020019081526020015f205f8282546111979190611f67565b925050819055508c73ffffffffffffffffffffffffffffffffffffffff168e73ffffffffffffffffffffffffffffffffffffffff163373ffffffffffffffffffffffffffffffffffffffff167fa0f0db586a2f0c2d74b358a03070427de39bb6895ab47557e77ea4cbf1f84f2e8989894260405161121894939291906126c2565b60405180910390a450505061122b611432565b985098509895505050505050565b60025f5403611274576040517f3ee5aeb500000000000000000000000000000000000000000000000000000000815260040160405180910390fd5b60025f81905550565b5f8173ffffffffffffffffffffffffffffffffffffffff168373ffffffffffffffffffffffffffffffffffffffff16106112df5781836040516020016112c492919061274a565b60405160208183030381529060405280519060200120611309565b82826040516020016112f292919061274a565b604051602081830303815290604052805190602001205b905092915050565b5f5f5f61131e868661143b565b5090508073ffffffffffffffffffffffffffffffffffffffff168673ffffffffffffffffffffffffffffffffffffffff160361136657835f0154925083600101549150611374565b83600101549250835f015491505b50935093915050565b5f611388868661143b565b5090508073ffffffffffffffffffffffffffffffffffffffff168673ffffffffffffffffffffffffffffffffffffffff16036113f65782845f015f8282546113d09190611f67565b9250508190555081846001015f8282546113ea919061268f565b9250508190555061142a565b82846001015f8282546114099190611f67565b9250508190555081845f015f828254611422919061268f565b925050819055505b505050505050565b60015f81905550565b5f5f8273ffffffffffffffffffffffffffffffffffffffff168473ffffffffffffffffffffffffffffffffffffffff16036114ab576040517f08c379a00000000000000000000000000000000000000000000000000000000081526004016114a2906127bf565b60405180910390fd5b8273ffffffffffffffffffffffffffffffffffffffff168473ffffffffffffffffffffffffffffffffffffffff16106114e55782846114e8565b83835b915091509250929050565b5f5f5f5f5f6115038c8c8861178d565b915091505f866002015403611580578994508893505f8511801561152657505f84115b611565576040517f08c379a000000000000000000000000000000000000000000000000000000000815260040161155c90612827565b60405180910390fd5b61157984866115749190611f26565b6117ea565b9250611696565b5f82828c61158e9190611f26565b6115989190611fc7565b90508981116115ef57878110156115e4576040517f08c379a00000000000000000000000000000000000000000000000000000000081526004016115db90612671565b60405180910390fd5b8a9550809450611654565b5f82848c6115fd9190611f26565b6116079190611fc7565b90508981101561164c576040517f08c379a000000000000000000000000000000000000000000000000000000000815260040161164390612609565b60405180910390fd5b8096508a9550505b611692838860020154886116689190611f26565b6116729190611fc7565b838960020154886116839190611f26565b61168d9190611fc7565b611984565b9350505b5f83116116d8576040517f08c379a00000000000000000000000000000000000000000000000000000000081526004016116cf906124d1565b60405180910390fd5b50509750975097945050505050565b8373ffffffffffffffffffffffffffffffffffffffff168573ffffffffffffffffffffffffffffffffffffffff16036117525781835f015f82825461172c9190611f67565b9250508190555080836001015f8282546117469190611f67565b92505081905550611786565b80835f015f8282546117649190611f67565b9250508190555081836001015f82825461177e9190611f67565b925050819055505b5050505050565b5f5f8373ffffffffffffffffffffffffffffffffffffffff168573ffffffffffffffffffffffffffffffffffffffff16036117d457825f01549150826001015490506117e2565b82600101549150825f015490505b935093915050565b5f600182116117fb5781905061197f565b5f8290505f60019050700100000000000000000000000000000000821061182b57608082901c9150604081901b90505b68010000000000000000821061184a57604082901c9150602081901b90505b640100000000821061186557602082901c9150601081901b90505b62010000821061187e57601082901c9150600881901b90505b610100821061189657600882901c9150600481901b90505b601082106118ad57600482901c9150600281901b90505b600482106118bd57600181901b90505b600181600302901c905060018185816118d9576118d8611f9a565b5b048201901c905060018185816118f2576118f1611f9a565b5b048201901c9050600181858161190b5761190a611f9a565b5b048201901c9050600181858161192457611923611f9a565b5b048201901c9050600181858161193d5761193c611f9a565b5b048201901c9050600181858161195657611955611f9a565b5b048201901c90506119788185816119705761196f611f9a565b5b04821161199a565b8103925050505b919050565b5f61199282841084846119a5565b905092915050565b5f8115159050919050565b5f6119af8461199a565b82841802821890509392505050565b5f5ffd5b5f5ffd5b5f819050919050565b6119d8816119c6565b81146119e2575f5ffd5b50565b5f813590506119f3816119cf565b92915050565b5f5f5f60608486031215611a1057611a0f6119be565b5b5f611a1d868287016119e5565b9350506020611a2e868287016119e5565b9250506040611a3f868287016119e5565b9150509250925092565b611a52816119c6565b82525050565b5f602082019050611a6b5f830184611a49565b92915050565b5f5ffd5b5f5ffd5b5f5ffd5b5f5f83601f840112611a9257611a91611a71565b5b8235905067ffffffffffffffff811115611aaf57611aae611a75565b5b602083019150836020820283011115611acb57611aca611a79565b5b9250929050565b5f73ffffffffffffffffffffffffffffffffffffffff82169050919050565b5f611afb82611ad2565b9050919050565b611b0b81611af1565b8114611b15575f5ffd5b50565b5f81359050611b2681611b02565b92915050565b5f5f5f5f5f5f60a08789031215611b4657611b456119be565b5b5f611b5389828a016119e5565b9650506020611b6489828a016119e5565b955050604087013567ffffffffffffffff811115611b8557611b846119c2565b5b611b9189828a01611a7d565b94509450506060611ba489828a01611b18565b9250506080611bb589828a016119e5565b9150509295509295509295565b5f81519050919050565b5f82825260208201905092915050565b5f819050602082019050919050565b611bf4816119c6565b82525050565b5f611c058383611beb565b60208301905092915050565b5f602082019050919050565b5f611c2782611bc2565b611c318185611bcc565b9350611c3c83611bdc565b805f5b83811015611c6c578151611c538882611bfa565b9750611c5e83611c11565b925050600181019050611c3f565b5085935050505092915050565b5f6020820190508181035f830152611c918184611c1d565b905092915050565b5f5f60408385031215611caf57611cae6119be565b5b5f611cbc85828601611b18565b9250506020611ccd85828601611b18565b9150509250929050565b5f5f5f5f5f5f5f60e0888a031215611cf257611cf16119be565b5b5f611cff8a828b01611b18565b9750506020611d108a828b01611b18565b9650506040611d218a828b016119e5565b9550506060611d328a828b016119e5565b9450506080611d438a828b016119e5565b93505060a0611d548a828b01611b18565b92505060c0611d658a828b016119e5565b91505092959891949750929550565b5f604082019050611d875f830185611a49565b611d946020830184611a49565b9392505050565b5f5f5f5f5f5f5f5f610100898b031215611db857611db76119be565b5b5f611dc58b828c01611b18565b9850506020611dd68b828c01611b18565b9750506040611de78b828c016119e5565b9650506060611df88b828c016119e5565b9550506080611e098b828c016119e5565b94505060a0611e1a8b828c016119e5565b93505060c0611e2b8b828c01611b18565b92505060e0611e3c8b828c016119e5565b9150509295985092959890939650565b5f606082019050611e5f5f830186611a49565b611e6c6020830185611a49565b611e796040830184611a49565b949350505050565b5f82825260208201905092915050565b7f496e76616c6964206f75747075742064617461000000000000000000000000005f82015250565b5f611ec5601383611e81565b9150611ed082611e91565b602082019050919050565b5f6020820190508181035f830152611ef281611eb9565b9050919050565b7f4e487b71000000000000000000000000000000000000000000000000000000005f52601160045260245ffd5b5f611f30826119c6565b9150611f3b836119c6565b9250828202611f49816119c6565b91508282048414831517611f6057611f5f611ef9565b5b5092915050565b5f611f71826119c6565b9150611f7c836119c6565b9250828201905080821115611f9457611f93611ef9565b5b92915050565b7f4e487b71000000000000000000000000000000000000000000000000000000005f52601260045260245ffd5b5f611fd1826119c6565b9150611fdc836119c6565b925082611fec57611feb611f9a565b5b828204905092915050565b7f5472616e73616374696f6e2065787069726564000000000000000000000000005f82015250565b5f61202b601383611e81565b915061203682611ff7565b602082019050919050565b5f6020820190508181035f8301526120588161201f565b9050919050565b7f4f6e6c79203120686f7020616c6c6f77656400000000000000000000000000005f82015250565b5f612093601283611e81565b915061209e8261205f565b602082019050919050565b5f6020820190508181035f8301526120c081612087565b9050919050565b7f496e76616c69642027746f2720616464726573730000000000000000000000005f82015250565b5f6120fb601483611e81565b9150612106826120c7565b602082019050919050565b5f6020820190508181035f830152612128816120ef565b9050919050565b7f496e707574206d757374206265203e20300000000000000000000000000000005f82015250565b5f612163601183611e81565b915061216e8261212f565b602082019050919050565b5f6020820190508181035f83015261219081612157565b9050919050565b7f4e487b71000000000000000000000000000000000000000000000000000000005f52603260045260245ffd5b5f602082840312156121d9576121d86119be565b5b5f6121e684828501611b18565b91505092915050565b7f456d70747920706f6f6c000000000000000000000000000000000000000000005f82015250565b5f612223600a83611e81565b915061222e826121ef565b602082019050919050565b5f6020820190508181035f83015261225081612217565b9050919050565b7f45786365737369766520736c69707061676500000000000000000000000000005f82015250565b5f61228b601283611e81565b915061229682612257565b602082019050919050565b5f6020820190508181035f8301526122b88161227f565b9050919050565b6122c881611af1565b82525050565b5f6060820190506122e15f8301866122bf565b6122ee60208301856122bf565b6122fb6040830184611a49565b949350505050565b5f8115159050919050565b61231781612303565b8114612321575f5ffd5b50565b5f815190506123328161230e565b92915050565b5f6020828403121561234d5761234c6119be565b5b5f61235a84828501612324565b91505092915050565b5f6040820190506123765f8301856122bf565b6123836020830184611a49565b9392505050565b7f4e487b71000000000000000000000000000000000000000000000000000000005f52604160045260245ffd5b7f496e76616c696420746f6b656e730000000000000000000000000000000000005f82015250565b5f6123eb600e83611e81565b91506123f6826123b7565b602082019050919050565b5f6020820190508181035f830152612418816123df565b9050919050565b7f4e6f206c697175696469747920696e20706f6f6c0000000000000000000000005f82015250565b5f612453601483611e81565b915061245e8261241f565b602082019050919050565b5f6020820190508181035f83015261248081612447565b9050919050565b7f4c6971756964697479206d757374206265203e203000000000000000000000005f82015250565b5f6124bb601583611e81565b91506124c682612487565b602082019050919050565b5f6020820190508181035f8301526124e8816124af565b9050919050565b7f496e73756666696369656e74206c6971756964697479000000000000000000005f82015250565b5f612523601683611e81565b915061252e826124ef565b602082019050919050565b5f6020820190508181035f83015261255081612517565b9050919050565b7f456d707479206c697175696469747920706f6f6c0000000000000000000000005f82015250565b5f61258b601483611e81565b915061259682612557565b602082019050919050565b5f6020820190508181035f8301526125b88161257f565b9050919050565b7f546f6b656e4120736c697070616765206572726f7200000000000000000000005f82015250565b5f6125f3601583611e81565b91506125fe826125bf565b602082019050919050565b5f6020820190508181035f830152612620816125e7565b9050919050565b7f546f6b656e4220736c697070616765206572726f7200000000000000000000005f82015250565b5f61265b601583611e81565b915061266682612627565b602082019050919050565b5f6020820190508181035f8301526126888161264f565b9050919050565b5f612699826119c6565b91506126a4836119c6565b92508282039050818111156126bc576126bb611ef9565b5b92915050565b5f6080820190506126d55f830187611a49565b6126e26020830186611a49565b6126ef6040830185611a49565b6126fc6060830184611a49565b95945050505050565b5f8160601b9050919050565b5f61271b82612705565b9050919050565b5f61272c82612711565b9050919050565b61274461273f82611af1565b612722565b82525050565b5f6127558285612733565b6014820191506127658284612733565b6014820191508190509392505050565b7f4d75737420626520646966666572656e740000000000000000000000000000005f82015250565b5f6127a9601183611e81565b91506127b482612775565b602082019050919050565b5f6020820190508181035f8301526127d68161279d565b9050919050565b7f416d6f756e7473206d757374206265203e2030000000000000000000000000005f82015250565b5f612811601383611e81565b915061281c826127dd565b602082019050919050565b5f6020820190508181035f83015261283e81612805565b905091905056fea26469706673582212208213aa89b1dc3b87da8f91775ddd5bce6513196d6146d0e76c7bc4d2853abdd864736f6c634300081b0033",
					"opcodes": "PUSH1 0x80 PUSH1 0x40 MSTORE CALLVALUE DUP1 ISZERO PUSH1 0xE JUMPI PUSH0 PUSH0 REVERT JUMPDEST POP PUSH1 0x1 PUSH0 DUP2 SWAP1 SSTORE POP PUSH2 0x287B DUP1 PUSH2 0x23 PUSH0 CODECOPY PUSH0 RETURN INVALID PUSH1 0x80 PUSH1 0x40 MSTORE CALLVALUE DUP1 ISZERO PUSH2 0xF JUMPI PUSH0 PUSH0 REVERT JUMPDEST POP PUSH1 0x4 CALLDATASIZE LT PUSH2 0x55 JUMPI PUSH0 CALLDATALOAD PUSH1 0xE0 SHR DUP1 PUSH4 0x54D50D4 EQ PUSH2 0x59 JUMPI DUP1 PUSH4 0x38ED1739 EQ PUSH2 0x89 JUMPI DUP1 PUSH4 0xAC41865A EQ PUSH2 0xB9 JUMPI DUP1 PUSH4 0xBAA2ABDE EQ PUSH2 0xE9 JUMPI DUP1 PUSH4 0xE8E33700 EQ PUSH2 0x11A JUMPI JUMPDEST PUSH0 PUSH0 REVERT JUMPDEST PUSH2 0x73 PUSH1 0x4 DUP1 CALLDATASIZE SUB DUP2 ADD SWAP1 PUSH2 0x6E SWAP2 SWAP1 PUSH2 0x19F9 JUMP JUMPDEST PUSH2 0x14C JUMP JUMPDEST PUSH1 0x40 MLOAD PUSH2 0x80 SWAP2 SWAP1 PUSH2 0x1A58 JUMP JUMPDEST PUSH1 0x40 MLOAD DUP1 SWAP2 SUB SWAP1 RETURN JUMPDEST PUSH2 0xA3 PUSH1 0x4 DUP1 CALLDATASIZE SUB DUP2 ADD SWAP1 PUSH2 0x9E SWAP2 SWAP1 PUSH2 0x1B2C JUMP JUMPDEST PUSH2 0x1F9 JUMP JUMPDEST PUSH1 0x40 MLOAD PUSH2 0xB0 SWAP2 SWAP1 PUSH2 0x1C79 JUMP JUMPDEST PUSH1 0x40 MLOAD DUP1 SWAP2 SUB SWAP1 RETURN JUMPDEST PUSH2 0xD3 PUSH1 0x4 DUP1 CALLDATASIZE SUB DUP2 ADD SWAP1 PUSH2 0xCE SWAP2 SWAP1 PUSH2 0x1C99 JUMP JUMPDEST PUSH2 0x7C2 JUMP JUMPDEST PUSH1 0x40 MLOAD PUSH2 0xE0 SWAP2 SWAP1 PUSH2 0x1A58 JUMP JUMPDEST PUSH1 0x40 MLOAD DUP1 SWAP2 SUB SWAP1 RETURN JUMPDEST PUSH2 0x103 PUSH1 0x4 DUP1 CALLDATASIZE SUB DUP2 ADD SWAP1 PUSH2 0xFE SWAP2 SWAP1 PUSH2 0x1CD7 JUMP JUMPDEST PUSH2 0x973 JUMP JUMPDEST PUSH1 0x40 MLOAD PUSH2 0x111 SWAP3 SWAP2 SWAP1 PUSH2 0x1D74 JUMP JUMPDEST PUSH1 0x40 MLOAD DUP1 SWAP2 SUB SWAP1 RETURN JUMPDEST PUSH2 0x134 PUSH1 0x4 DUP1 CALLDATASIZE SUB DUP2 ADD SWAP1 PUSH2 0x12F SWAP2 SWAP1 PUSH2 0x1D9B JUMP JUMPDEST PUSH2 0xF20 JUMP JUMPDEST PUSH1 0x40 MLOAD PUSH2 0x143 SWAP4 SWAP3 SWAP2 SWAP1 PUSH2 0x1E4C JUMP JUMPDEST PUSH1 0x40 MLOAD DUP1 SWAP2 SUB SWAP1 RETURN JUMPDEST PUSH0 PUSH0 DUP5 GT DUP1 ISZERO PUSH2 0x15B JUMPI POP PUSH0 DUP4 GT JUMPDEST DUP1 ISZERO PUSH2 0x166 JUMPI POP PUSH0 DUP3 GT JUMPDEST PUSH2 0x1A5 JUMPI PUSH1 0x40 MLOAD PUSH32 0x8C379A000000000000000000000000000000000000000000000000000000000 DUP2 MSTORE PUSH1 0x4 ADD PUSH2 0x19C SWAP1 PUSH2 0x1EDB JUMP JUMPDEST PUSH1 0x40 MLOAD DUP1 SWAP2 SUB SWAP1 REVERT JUMPDEST PUSH0 PUSH2 0x3E5 DUP6 PUSH2 0x1B4 SWAP2 SWAP1 PUSH2 0x1F26 JUMP JUMPDEST SWAP1 POP PUSH0 DUP4 DUP3 PUSH2 0x1C3 SWAP2 SWAP1 PUSH2 0x1F26 JUMP JUMPDEST SWAP1 POP PUSH0 DUP3 PUSH2 0x3E8 DUP8 PUSH2 0x1D5 SWAP2 SWAP1 PUSH2 0x1F26 JUMP JUMPDEST PUSH2 0x1DF SWAP2 SWAP1 PUSH2 0x1F67 JUMP JUMPDEST SWAP1 POP DUP1 DUP3 PUSH2 0x1ED SWAP2 SWAP1 PUSH2 0x1FC7 JUMP JUMPDEST SWAP4 POP POP POP POP SWAP4 SWAP3 POP POP POP JUMP JUMPDEST PUSH1 0x60 PUSH2 0x203 PUSH2 0x1239 JUMP JUMPDEST DUP2 TIMESTAMP GT ISZERO PUSH2 0x246 JUMPI PUSH1 0x40 MLOAD PUSH32 0x8C379A000000000000000000000000000000000000000000000000000000000 DUP2 MSTORE PUSH1 0x4 ADD PUSH2 0x23D SWAP1 PUSH2 0x2041 JUMP JUMPDEST PUSH1 0x40 MLOAD DUP1 SWAP2 SUB SWAP1 REVERT JUMPDEST PUSH1 0x2 DUP6 DUP6 SWAP1 POP EQ PUSH2 0x28C JUMPI PUSH1 0x40 MLOAD PUSH32 0x8C379A000000000000000000000000000000000000000000000000000000000 DUP2 MSTORE PUSH1 0x4 ADD PUSH2 0x283 SWAP1 PUSH2 0x20A9 JUMP JUMPDEST PUSH1 0x40 MLOAD DUP1 SWAP2 SUB SWAP1 REVERT JUMPDEST PUSH0 PUSH20 0xFFFFFFFFFFFFFFFFFFFFFFFFFFFFFFFFFFFFFFFF AND DUP4 PUSH20 0xFFFFFFFFFFFFFFFFFFFFFFFFFFFFFFFFFFFFFFFF AND SUB PUSH2 0x2FA JUMPI PUSH1 0x40 MLOAD PUSH32 0x8C379A000000000000000000000000000000000000000000000000000000000 DUP2 MSTORE PUSH1 0x4 ADD PUSH2 0x2F1 SWAP1 PUSH2 0x2111 JUMP JUMPDEST PUSH1 0x40 MLOAD DUP1 SWAP2 SUB SWAP1 REVERT JUMPDEST PUSH0 DUP8 GT PUSH2 0x33C JUMPI PUSH1 0x40 MLOAD PUSH32 0x8C379A000000000000000000000000000000000000000000000000000000000 DUP2 MSTORE PUSH1 0x4 ADD PUSH2 0x333 SWAP1 PUSH2 0x2179 JUMP JUMPDEST PUSH1 0x40 MLOAD DUP1 SWAP2 SUB SWAP1 REVERT JUMPDEST PUSH0 PUSH2 0x396 DUP7 DUP7 PUSH0 DUP2 DUP2 LT PUSH2 0x353 JUMPI PUSH2 0x352 PUSH2 0x2197 JUMP JUMPDEST JUMPDEST SWAP1 POP PUSH1 0x20 MUL ADD PUSH1 0x20 DUP2 ADD SWAP1 PUSH2 0x368 SWAP2 SWAP1 PUSH2 0x21C4 JUMP JUMPDEST DUP8 DUP8 PUSH1 0x1 DUP2 DUP2 LT PUSH2 0x37C JUMPI PUSH2 0x37B PUSH2 0x2197 JUMP JUMPDEST JUMPDEST SWAP1 POP PUSH1 0x20 MUL ADD PUSH1 0x20 DUP2 ADD SWAP1 PUSH2 0x391 SWAP2 SWAP1 PUSH2 0x21C4 JUMP JUMPDEST PUSH2 0x127D JUMP JUMPDEST SWAP1 POP PUSH0 PUSH1 0x1 PUSH0 DUP4 DUP2 MSTORE PUSH1 0x20 ADD SWAP1 DUP2 MSTORE PUSH1 0x20 ADD PUSH0 KECCAK256 SWAP1 POP PUSH0 PUSH0 PUSH2 0x408 DUP10 DUP10 PUSH0 DUP2 DUP2 LT PUSH2 0x3C4 JUMPI PUSH2 0x3C3 PUSH2 0x2197 JUMP JUMPDEST JUMPDEST SWAP1 POP PUSH1 0x20 MUL ADD PUSH1 0x20 DUP2 ADD SWAP1 PUSH2 0x3D9 SWAP2 SWAP1 PUSH2 0x21C4 JUMP JUMPDEST DUP11 DUP11 PUSH1 0x1 DUP2 DUP2 LT PUSH2 0x3ED JUMPI PUSH2 0x3EC PUSH2 0x2197 JUMP JUMPDEST JUMPDEST SWAP1 POP PUSH1 0x20 MUL ADD PUSH1 0x20 DUP2 ADD SWAP1 PUSH2 0x402 SWAP2 SWAP1 PUSH2 0x21C4 JUMP JUMPDEST DUP6 PUSH2 0x1311 JUMP JUMPDEST SWAP2 POP SWAP2 POP PUSH0 DUP3 GT DUP1 ISZERO PUSH2 0x41A JUMPI POP PUSH0 DUP2 GT JUMPDEST PUSH2 0x459 JUMPI PUSH1 0x40 MLOAD PUSH32 0x8C379A000000000000000000000000000000000000000000000000000000000 DUP2 MSTORE PUSH1 0x4 ADD PUSH2 0x450 SWAP1 PUSH2 0x2239 JUMP JUMPDEST PUSH1 0x40 MLOAD DUP1 SWAP2 SUB SWAP1 REVERT JUMPDEST PUSH0 PUSH2 0x465 DUP13 DUP5 DUP5 PUSH2 0x14C JUMP JUMPDEST SWAP1 POP DUP11 DUP2 LT ISZERO PUSH2 0x4AA JUMPI PUSH1 0x40 MLOAD PUSH32 0x8C379A000000000000000000000000000000000000000000000000000000000 DUP2 MSTORE PUSH1 0x4 ADD PUSH2 0x4A1 SWAP1 PUSH2 0x22A1 JUMP JUMPDEST PUSH1 0x40 MLOAD DUP1 SWAP2 SUB SWAP1 REVERT JUMPDEST DUP10 DUP10 PUSH0 DUP2 DUP2 LT PUSH2 0x4BD JUMPI PUSH2 0x4BC PUSH2 0x2197 JUMP JUMPDEST JUMPDEST SWAP1 POP PUSH1 0x20 MUL ADD PUSH1 0x20 DUP2 ADD SWAP1 PUSH2 0x4D2 SWAP2 SWAP1 PUSH2 0x21C4 JUMP JUMPDEST PUSH20 0xFFFFFFFFFFFFFFFFFFFFFFFFFFFFFFFFFFFFFFFF AND PUSH4 0x23B872DD CALLER ADDRESS DUP16 PUSH1 0x40 MLOAD DUP5 PUSH4 0xFFFFFFFF AND PUSH1 0xE0 SHL DUP2 MSTORE PUSH1 0x4 ADD PUSH2 0x50E SWAP4 SWAP3 SWAP2 SWAP1 PUSH2 0x22CE JUMP JUMPDEST PUSH1 0x20 PUSH1 0x40 MLOAD DUP1 DUP4 SUB DUP2 PUSH0 DUP8 GAS CALL ISZERO DUP1 ISZERO PUSH2 0x52A JUMPI RETURNDATASIZE PUSH0 PUSH0 RETURNDATACOPY RETURNDATASIZE PUSH0 REVERT JUMPDEST POP POP POP POP PUSH1 0x40 MLOAD RETURNDATASIZE PUSH1 0x1F NOT PUSH1 0x1F DUP3 ADD AND DUP3 ADD DUP1 PUSH1 0x40 MSTORE POP DUP2 ADD SWAP1 PUSH2 0x54E SWAP2 SWAP1 PUSH2 0x2338 JUMP JUMPDEST POP DUP10 DUP10 PUSH1 0x1 DUP2 DUP2 LT PUSH2 0x563 JUMPI PUSH2 0x562 PUSH2 0x2197 JUMP JUMPDEST JUMPDEST SWAP1 POP PUSH1 0x20 MUL ADD PUSH1 0x20 DUP2 ADD SWAP1 PUSH2 0x578 SWAP2 SWAP1 PUSH2 0x21C4 JUMP JUMPDEST PUSH20 0xFFFFFFFFFFFFFFFFFFFFFFFFFFFFFFFFFFFFFFFF AND PUSH4 0xA9059CBB DUP10 DUP4 PUSH1 0x40 MLOAD DUP4 PUSH4 0xFFFFFFFF AND PUSH1 0xE0 SHL DUP2 MSTORE PUSH1 0x4 ADD PUSH2 0x5B2 SWAP3 SWAP2 SWAP1 PUSH2 0x2363 JUMP JUMPDEST PUSH1 0x20 PUSH1 0x40 MLOAD DUP1 DUP4 SUB DUP2 PUSH0 DUP8 GAS CALL ISZERO DUP1 ISZERO PUSH2 0x5CE JUMPI RETURNDATASIZE PUSH0 PUSH0 RETURNDATACOPY RETURNDATASIZE PUSH0 REVERT JUMPDEST POP POP POP POP PUSH1 0x40 MLOAD RETURNDATASIZE PUSH1 0x1F NOT PUSH1 0x1F DUP3 ADD AND DUP3 ADD DUP1 PUSH1 0x40 MSTORE POP DUP2 ADD SWAP1 PUSH2 0x5F2 SWAP2 SWAP1 PUSH2 0x2338 JUMP JUMPDEST POP PUSH2 0x64F DUP11 DUP11 PUSH0 DUP2 DUP2 LT PUSH2 0x609 JUMPI PUSH2 0x608 PUSH2 0x2197 JUMP JUMPDEST JUMPDEST SWAP1 POP PUSH1 0x20 MUL ADD PUSH1 0x20 DUP2 ADD SWAP1 PUSH2 0x61E SWAP2 SWAP1 PUSH2 0x21C4 JUMP JUMPDEST DUP12 DUP12 PUSH1 0x1 DUP2 DUP2 LT PUSH2 0x632 JUMPI PUSH2 0x631 PUSH2 0x2197 JUMP JUMPDEST JUMPDEST SWAP1 POP PUSH1 0x20 MUL ADD PUSH1 0x20 DUP2 ADD SWAP1 PUSH2 0x647 SWAP2 SWAP1 PUSH2 0x21C4 JUMP JUMPDEST DUP7 DUP16 DUP6 PUSH2 0x137D JUMP JUMPDEST DUP10 DUP10 PUSH1 0x1 DUP2 DUP2 LT PUSH2 0x663 JUMPI PUSH2 0x662 PUSH2 0x2197 JUMP JUMPDEST JUMPDEST SWAP1 POP PUSH1 0x20 MUL ADD PUSH1 0x20 DUP2 ADD SWAP1 PUSH2 0x678 SWAP2 SWAP1 PUSH2 0x21C4 JUMP JUMPDEST PUSH20 0xFFFFFFFFFFFFFFFFFFFFFFFFFFFFFFFFFFFFFFFF AND DUP11 DUP11 PUSH0 DUP2 DUP2 LT PUSH2 0x6A1 JUMPI PUSH2 0x6A0 PUSH2 0x2197 JUMP JUMPDEST JUMPDEST SWAP1 POP PUSH1 0x20 MUL ADD PUSH1 0x20 DUP2 ADD SWAP1 PUSH2 0x6B6 SWAP2 SWAP1 PUSH2 0x21C4 JUMP JUMPDEST PUSH20 0xFFFFFFFFFFFFFFFFFFFFFFFFFFFFFFFFFFFFFFFF AND CALLER PUSH20 0xFFFFFFFFFFFFFFFFFFFFFFFFFFFFFFFFFFFFFFFF AND PUSH32 0x78144DE69C30989060D6BC0B4E6DA9A31B6497866DB952E683D0221E9CD20165 DUP16 DUP6 TIMESTAMP PUSH1 0x40 MLOAD PUSH2 0x716 SWAP4 SWAP3 SWAP2 SWAP1 PUSH2 0x1E4C JUMP JUMPDEST PUSH1 0x40 MLOAD DUP1 SWAP2 SUB SWAP1 LOG4 PUSH1 0x2 PUSH8 0xFFFFFFFFFFFFFFFF DUP2 GT ISZERO PUSH2 0x739 JUMPI PUSH2 0x738 PUSH2 0x238A JUMP JUMPDEST JUMPDEST PUSH1 0x40 MLOAD SWAP1 DUP1 DUP3 MSTORE DUP1 PUSH1 0x20 MUL PUSH1 0x20 ADD DUP3 ADD PUSH1 0x40 MSTORE DUP1 ISZERO PUSH2 0x767 JUMPI DUP2 PUSH1 0x20 ADD PUSH1 0x20 DUP3 MUL DUP1 CALLDATASIZE DUP4 CALLDATACOPY DUP1 DUP3 ADD SWAP2 POP POP SWAP1 POP JUMPDEST POP SWAP6 POP DUP12 DUP7 PUSH0 DUP2 MLOAD DUP2 LT PUSH2 0x77E JUMPI PUSH2 0x77D PUSH2 0x2197 JUMP JUMPDEST JUMPDEST PUSH1 0x20 MUL PUSH1 0x20 ADD ADD DUP2 DUP2 MSTORE POP POP DUP1 DUP7 PUSH1 0x1 DUP2 MLOAD DUP2 LT PUSH2 0x79F JUMPI PUSH2 0x79E PUSH2 0x2197 JUMP JUMPDEST JUMPDEST PUSH1 0x20 MUL PUSH1 0x20 ADD ADD DUP2 DUP2 MSTORE POP POP POP POP POP POP POP PUSH2 0x7B8 PUSH2 0x1432 JUMP JUMPDEST SWAP7 SWAP6 POP POP POP POP POP POP JUMP JUMPDEST PUSH0 PUSH0 PUSH20 0xFFFFFFFFFFFFFFFFFFFFFFFFFFFFFFFFFFFFFFFF AND DUP4 PUSH20 0xFFFFFFFFFFFFFFFFFFFFFFFFFFFFFFFFFFFFFFFF AND EQ ISZERO DUP1 ISZERO PUSH2 0x82B JUMPI POP PUSH0 PUSH20 0xFFFFFFFFFFFFFFFFFFFFFFFFFFFFFFFFFFFFFFFF AND DUP3 PUSH20 0xFFFFFFFFFFFFFFFFFFFFFFFFFFFFFFFFFFFFFFFF AND EQ ISZERO JUMPDEST PUSH2 0x86A JUMPI PUSH1 0x40 MLOAD PUSH32 0x8C379A000000000000000000000000000000000000000000000000000000000 DUP2 MSTORE PUSH1 0x4 ADD PUSH2 0x861 SWAP1 PUSH2 0x2401 JUMP JUMPDEST PUSH1 0x40 MLOAD DUP1 SWAP2 SUB SWAP1 REVERT JUMPDEST PUSH0 PUSH2 0x875 DUP5 DUP5 PUSH2 0x127D JUMP JUMPDEST SWAP1 POP PUSH0 PUSH1 0x1 PUSH0 DUP4 DUP2 MSTORE PUSH1 0x20 ADD SWAP1 DUP2 MSTORE PUSH1 0x20 ADD PUSH0 KECCAK256 SWAP1 POP PUSH0 DUP2 PUSH0 ADD SLOAD GT DUP1 ISZERO PUSH2 0x8A0 JUMPI POP PUSH0 DUP2 PUSH1 0x1 ADD SLOAD GT JUMPDEST PUSH2 0x8DF JUMPI PUSH1 0x40 MLOAD PUSH32 0x8C379A000000000000000000000000000000000000000000000000000000000 DUP2 MSTORE PUSH1 0x4 ADD PUSH2 0x8D6 SWAP1 PUSH2 0x2469 JUMP JUMPDEST PUSH1 0x40 MLOAD DUP1 SWAP2 SUB SWAP1 REVERT JUMPDEST DUP4 PUSH20 0xFFFFFFFFFFFFFFFFFFFFFFFFFFFFFFFFFFFFFFFF AND DUP6 PUSH20 0xFFFFFFFFFFFFFFFFFFFFFFFFFFFFFFFFFFFFFFFF AND LT ISZERO PUSH2 0x942 JUMPI DUP1 PUSH0 ADD SLOAD PUSH8 0xDE0B6B3A7640000 DUP3 PUSH1 0x1 ADD SLOAD PUSH2 0x92F SWAP2 SWAP1 PUSH2 0x1F26 JUMP JUMPDEST PUSH2 0x939 SWAP2 SWAP1 PUSH2 0x1FC7 JUMP JUMPDEST SWAP3 POP POP POP PUSH2 0x96D JUMP JUMPDEST DUP1 PUSH1 0x1 ADD SLOAD PUSH8 0xDE0B6B3A7640000 DUP3 PUSH0 ADD SLOAD PUSH2 0x95E SWAP2 SWAP1 PUSH2 0x1F26 JUMP JUMPDEST PUSH2 0x968 SWAP2 SWAP1 PUSH2 0x1FC7 JUMP JUMPDEST SWAP3 POP POP POP JUMPDEST SWAP3 SWAP2 POP POP JUMP JUMPDEST PUSH0 PUSH0 PUSH2 0x97D PUSH2 0x1239 JUMP JUMPDEST DUP3 TIMESTAMP GT ISZERO PUSH2 0x9C0 JUMPI PUSH1 0x40 MLOAD PUSH32 0x8C379A000000000000000000000000000000000000000000000000000000000 DUP2 MSTORE PUSH1 0x4 ADD PUSH2 0x9B7 SWAP1 PUSH2 0x2041 JUMP JUMPDEST PUSH1 0x40 MLOAD DUP1 SWAP2 SUB SWAP1 REVERT JUMPDEST PUSH0 PUSH20 0xFFFFFFFFFFFFFFFFFFFFFFFFFFFFFFFFFFFFFFFF AND DUP5 PUSH20 0xFFFFFFFFFFFFFFFFFFFFFFFFFFFFFFFFFFFFFFFF AND SUB PUSH2 0xA2E JUMPI PUSH1 0x40 MLOAD PUSH32 0x8C379A000000000000000000000000000000000000000000000000000000000 DUP2 MSTORE PUSH1 0x4 ADD PUSH2 0xA25 SWAP1 PUSH2 0x2111 JUMP JUMPDEST PUSH1 0x40 MLOAD DUP1 SWAP2 SUB SWAP1 REVERT JUMPDEST PUSH0 DUP8 GT PUSH2 0xA70 JUMPI PUSH1 0x40 MLOAD PUSH32 0x8C379A000000000000000000000000000000000000000000000000000000000 DUP2 MSTORE PUSH1 0x4 ADD PUSH2 0xA67 SWAP1 PUSH2 0x24D1 JUMP JUMPDEST PUSH1 0x40 MLOAD DUP1 SWAP2 SUB SWAP1 REVERT JUMPDEST PUSH0 PUSH2 0xA7B DUP11 DUP11 PUSH2 0x143B JUMP JUMPDEST POP SWAP1 POP PUSH0 PUSH2 0xA89 DUP12 DUP12 PUSH2 0x127D JUMP JUMPDEST SWAP1 POP PUSH0 PUSH1 0x1 PUSH0 DUP4 DUP2 MSTORE PUSH1 0x20 ADD SWAP1 DUP2 MSTORE PUSH1 0x20 ADD PUSH0 KECCAK256 SWAP1 POP DUP10 DUP2 PUSH1 0x3 ADD PUSH0 CALLER PUSH20 0xFFFFFFFFFFFFFFFFFFFFFFFFFFFFFFFFFFFFFFFF AND PUSH20 0xFFFFFFFFFFFFFFFFFFFFFFFFFFFFFFFFFFFFFFFF AND DUP2 MSTORE PUSH1 0x20 ADD SWAP1 DUP2 MSTORE PUSH1 0x20 ADD PUSH0 KECCAK256 SLOAD LT ISZERO PUSH2 0xB21 JUMPI PUSH1 0x40 MLOAD PUSH32 0x8C379A000000000000000000000000000000000000000000000000000000000 DUP2 MSTORE PUSH1 0x4 ADD PUSH2 0xB18 SWAP1 PUSH2 0x2539 JUMP JUMPDEST PUSH1 0x40 MLOAD DUP1 SWAP2 SUB SWAP1 REVERT JUMPDEST PUSH0 DUP2 PUSH1 0x2 ADD SLOAD GT PUSH2 0xB67 JUMPI PUSH1 0x40 MLOAD PUSH32 0x8C379A000000000000000000000000000000000000000000000000000000000 DUP2 MSTORE PUSH1 0x4 ADD PUSH2 0xB5E SWAP1 PUSH2 0x25A1 JUMP JUMPDEST PUSH1 0x40 MLOAD DUP1 SWAP2 SUB SWAP1 REVERT JUMPDEST PUSH0 DUP4 PUSH20 0xFFFFFFFFFFFFFFFFFFFFFFFFFFFFFFFFFFFFFFFF AND DUP14 PUSH20 0xFFFFFFFFFFFFFFFFFFFFFFFFFFFFFFFFFFFFFFFF AND EQ PUSH2 0xBA5 JUMPI DUP2 PUSH1 0x1 ADD SLOAD PUSH2 0xBAA JUMP JUMPDEST DUP2 PUSH0 ADD SLOAD JUMPDEST SWAP1 POP PUSH0 DUP5 PUSH20 0xFFFFFFFFFFFFFFFFFFFFFFFFFFFFFFFFFFFFFFFF AND DUP15 PUSH20 0xFFFFFFFFFFFFFFFFFFFFFFFFFFFFFFFFFFFFFFFF AND EQ PUSH2 0xBE9 JUMPI DUP3 PUSH0 ADD SLOAD PUSH2 0xBEF JUMP JUMPDEST DUP3 PUSH1 0x1 ADD SLOAD JUMPDEST SWAP1 POP DUP3 PUSH1 0x2 ADD SLOAD DUP3 DUP14 PUSH2 0xC02 SWAP2 SWAP1 PUSH2 0x1F26 JUMP JUMPDEST PUSH2 0xC0C SWAP2 SWAP1 PUSH2 0x1FC7 JUMP JUMPDEST SWAP7 POP DUP3 PUSH1 0x2 ADD SLOAD DUP2 DUP14 PUSH2 0xC1F SWAP2 SWAP1 PUSH2 0x1F26 JUMP JUMPDEST PUSH2 0xC29 SWAP2 SWAP1 PUSH2 0x1FC7 JUMP JUMPDEST SWAP6 POP DUP11 DUP8 LT ISZERO PUSH2 0xC6E JUMPI PUSH1 0x40 MLOAD PUSH32 0x8C379A000000000000000000000000000000000000000000000000000000000 DUP2 MSTORE PUSH1 0x4 ADD PUSH2 0xC65 SWAP1 PUSH2 0x2609 JUMP JUMPDEST PUSH1 0x40 MLOAD DUP1 SWAP2 SUB SWAP1 REVERT JUMPDEST DUP10 DUP7 LT ISZERO PUSH2 0xCB1 JUMPI PUSH1 0x40 MLOAD PUSH32 0x8C379A000000000000000000000000000000000000000000000000000000000 DUP2 MSTORE PUSH1 0x4 ADD PUSH2 0xCA8 SWAP1 PUSH2 0x2671 JUMP JUMPDEST PUSH1 0x40 MLOAD DUP1 SWAP2 SUB SWAP1 REVERT JUMPDEST DUP12 DUP4 PUSH1 0x2 ADD PUSH0 DUP3 DUP3 SLOAD PUSH2 0xCC4 SWAP2 SWAP1 PUSH2 0x268F JUMP JUMPDEST SWAP3 POP POP DUP2 SWAP1 SSTORE POP DUP12 DUP4 PUSH1 0x3 ADD PUSH0 CALLER PUSH20 0xFFFFFFFFFFFFFFFFFFFFFFFFFFFFFFFFFFFFFFFF AND PUSH20 0xFFFFFFFFFFFFFFFFFFFFFFFFFFFFFFFFFFFFFFFF AND DUP2 MSTORE PUSH1 0x20 ADD SWAP1 DUP2 MSTORE PUSH1 0x20 ADD PUSH0 KECCAK256 PUSH0 DUP3 DUP3 SLOAD PUSH2 0xD19 SWAP2 SWAP1 PUSH2 0x268F JUMP JUMPDEST SWAP3 POP POP DUP2 SWAP1 SSTORE POP DUP5 PUSH20 0xFFFFFFFFFFFFFFFFFFFFFFFFFFFFFFFFFFFFFFFF AND DUP15 PUSH20 0xFFFFFFFFFFFFFFFFFFFFFFFFFFFFFFFFFFFFFFFF AND SUB PUSH2 0xD8B JUMPI DUP7 DUP4 PUSH0 ADD PUSH0 DUP3 DUP3 SLOAD PUSH2 0xD65 SWAP2 SWAP1 PUSH2 0x268F JUMP JUMPDEST SWAP3 POP POP DUP2 SWAP1 SSTORE POP DUP6 DUP4 PUSH1 0x1 ADD PUSH0 DUP3 DUP3 SLOAD PUSH2 0xD7F SWAP2 SWAP1 PUSH2 0x268F JUMP JUMPDEST SWAP3 POP POP DUP2 SWAP1 SSTORE POP PUSH2 0xDBF JUMP JUMPDEST DUP6 DUP4 PUSH0 ADD PUSH0 DUP3 DUP3 SLOAD PUSH2 0xD9D SWAP2 SWAP1 PUSH2 0x268F JUMP JUMPDEST SWAP3 POP POP DUP2 SWAP1 SSTORE POP DUP7 DUP4 PUSH1 0x1 ADD PUSH0 DUP3 DUP3 SLOAD PUSH2 0xDB7 SWAP2 SWAP1 PUSH2 0x268F JUMP JUMPDEST SWAP3 POP POP DUP2 SWAP1 SSTORE POP JUMPDEST DUP14 PUSH20 0xFFFFFFFFFFFFFFFFFFFFFFFFFFFFFFFFFFFFFFFF AND PUSH4 0xA9059CBB DUP11 DUP10 PUSH1 0x40 MLOAD DUP4 PUSH4 0xFFFFFFFF AND PUSH1 0xE0 SHL DUP2 MSTORE PUSH1 0x4 ADD PUSH2 0xDFA SWAP3 SWAP2 SWAP1 PUSH2 0x2363 JUMP JUMPDEST PUSH1 0x20 PUSH1 0x40 MLOAD DUP1 DUP4 SUB DUP2 PUSH0 DUP8 GAS CALL ISZERO DUP1 ISZERO PUSH2 0xE16 JUMPI RETURNDATASIZE PUSH0 PUSH0 RETURNDATACOPY RETURNDATASIZE PUSH0 REVERT JUMPDEST POP POP POP POP PUSH1 0x40 MLOAD RETURNDATASIZE PUSH1 0x1F NOT PUSH1 0x1F DUP3 ADD AND DUP3 ADD DUP1 PUSH1 0x40 MSTORE POP DUP2 ADD SWAP1 PUSH2 0xE3A SWAP2 SWAP1 PUSH2 0x2338 JUMP JUMPDEST POP DUP13 PUSH20 0xFFFFFFFFFFFFFFFFFFFFFFFFFFFFFFFFFFFFFFFF AND PUSH4 0xA9059CBB DUP11 DUP9 PUSH1 0x40 MLOAD DUP4 PUSH4 0xFFFFFFFF AND PUSH1 0xE0 SHL DUP2 MSTORE PUSH1 0x4 ADD PUSH2 0xE76 SWAP3 SWAP2 SWAP1 PUSH2 0x2363 JUMP JUMPDEST PUSH1 0x20 PUSH1 0x40 MLOAD DUP1 DUP4 SUB DUP2 PUSH0 DUP8 GAS CALL ISZERO DUP1 ISZERO PUSH2 0xE92 JUMPI RETURNDATASIZE PUSH0 PUSH0 RETURNDATACOPY RETURNDATASIZE PUSH0 REVERT JUMPDEST POP POP POP POP PUSH1 0x40 MLOAD RETURNDATASIZE PUSH1 0x1F NOT PUSH1 0x1F DUP3 ADD AND DUP3 ADD DUP1 PUSH1 0x40 MSTORE POP DUP2 ADD SWAP1 PUSH2 0xEB6 SWAP2 SWAP1 PUSH2 0x2338 JUMP JUMPDEST POP CALLER PUSH20 0xFFFFFFFFFFFFFFFFFFFFFFFFFFFFFFFFFFFFFFFF AND PUSH32 0x96CD817C6329656790EF8FBA7675405193677D39619571282F5E21F3A98CD059 DUP9 DUP9 PUSH1 0x40 MLOAD PUSH2 0xEFF SWAP3 SWAP2 SWAP1 PUSH2 0x1D74 JUMP JUMPDEST PUSH1 0x40 MLOAD DUP1 SWAP2 SUB SWAP1 LOG2 POP POP POP POP POP PUSH2 0xF14 PUSH2 0x1432 JUMP JUMPDEST SWAP8 POP SWAP8 SWAP6 POP POP POP POP POP POP JUMP JUMPDEST PUSH0 PUSH0 PUSH0 PUSH2 0xF2B PUSH2 0x1239 JUMP JUMPDEST DUP4 TIMESTAMP GT ISZERO PUSH2 0xF6E JUMPI PUSH1 0x40 MLOAD PUSH32 0x8C379A000000000000000000000000000000000000000000000000000000000 DUP2 MSTORE PUSH1 0x4 ADD PUSH2 0xF65 SWAP1 PUSH2 0x2041 JUMP JUMPDEST PUSH1 0x40 MLOAD DUP1 SWAP2 SUB SWAP1 REVERT JUMPDEST PUSH0 PUSH20 0xFFFFFFFFFFFFFFFFFFFFFFFFFFFFFFFFFFFFFFFF AND DUP6 PUSH20 0xFFFFFFFFFFFFFFFFFFFFFFFFFFFFFFFFFFFFFFFF AND SUB PUSH2 0xFDC JUMPI PUSH1 0x40 MLOAD PUSH32 0x8C379A000000000000000000000000000000000000000000000000000000000 DUP2 MSTORE PUSH1 0x4 ADD PUSH2 0xFD3 SWAP1 PUSH2 0x2111 JUMP JUMPDEST PUSH1 0x40 MLOAD DUP1 SWAP2 SUB SWAP1 REVERT JUMPDEST PUSH0 PUSH2 0xFE7 DUP13 DUP13 PUSH2 0x143B JUMP JUMPDEST POP SWAP1 POP PUSH0 PUSH2 0xFF5 DUP14 DUP14 PUSH2 0x127D JUMP JUMPDEST SWAP1 POP PUSH0 PUSH1 0x1 PUSH0 DUP4 DUP2 MSTORE PUSH1 0x20 ADD SWAP1 DUP2 MSTORE PUSH1 0x20 ADD PUSH0 KECCAK256 SWAP1 POP PUSH2 0x101A DUP15 DUP5 DUP15 DUP15 DUP15 DUP15 DUP8 PUSH2 0x14F3 JUMP JUMPDEST DUP1 SWAP7 POP DUP2 SWAP8 POP DUP3 SWAP9 POP POP POP POP DUP14 PUSH20 0xFFFFFFFFFFFFFFFFFFFFFFFFFFFFFFFFFFFFFFFF AND PUSH4 0x23B872DD CALLER ADDRESS DUP10 PUSH1 0x40 MLOAD DUP5 PUSH4 0xFFFFFFFF AND PUSH1 0xE0 SHL DUP2 MSTORE PUSH1 0x4 ADD PUSH2 0x1063 SWAP4 SWAP3 SWAP2 SWAP1 PUSH2 0x22CE JUMP JUMPDEST PUSH1 0x20 PUSH1 0x40 MLOAD DUP1 DUP4 SUB DUP2 PUSH0 DUP8 GAS CALL ISZERO DUP1 ISZERO PUSH2 0x107F JUMPI RETURNDATASIZE PUSH0 PUSH0 RETURNDATACOPY RETURNDATASIZE PUSH0 REVERT JUMPDEST POP POP POP POP PUSH1 0x40 MLOAD RETURNDATASIZE PUSH1 0x1F NOT PUSH1 0x1F DUP3 ADD AND DUP3 ADD DUP1 PUSH1 0x40 MSTORE POP DUP2 ADD SWAP1 PUSH2 0x10A3 SWAP2 SWAP1 PUSH2 0x2338 JUMP JUMPDEST POP DUP13 PUSH20 0xFFFFFFFFFFFFFFFFFFFFFFFFFFFFFFFFFFFFFFFF AND PUSH4 0x23B872DD CALLER ADDRESS DUP9 PUSH1 0x40 MLOAD DUP5 PUSH4 0xFFFFFFFF AND PUSH1 0xE0 SHL DUP2 MSTORE PUSH1 0x4 ADD PUSH2 0x10E1 SWAP4 SWAP3 SWAP2 SWAP1 PUSH2 0x22CE JUMP JUMPDEST PUSH1 0x20 PUSH1 0x40 MLOAD DUP1 DUP4 SUB DUP2 PUSH0 DUP8 GAS CALL ISZERO DUP1 ISZERO PUSH2 0x10FD JUMPI RETURNDATASIZE PUSH0 PUSH0 RETURNDATACOPY RETURNDATASIZE PUSH0 REVERT JUMPDEST POP POP POP POP PUSH1 0x40 MLOAD RETURNDATASIZE PUSH1 0x1F NOT PUSH1 0x1F DUP3 ADD AND DUP3 ADD DUP1 PUSH1 0x40 MSTORE POP DUP2 ADD SWAP1 PUSH2 0x1121 SWAP2 SWAP1 PUSH2 0x2338 JUMP JUMPDEST POP PUSH2 0x112F DUP15 DUP5 DUP4 DUP10 DUP10 PUSH2 0x16E7 JUMP JUMPDEST DUP4 DUP2 PUSH1 0x2 ADD PUSH0 DUP3 DUP3 SLOAD PUSH2 0x1142 SWAP2 SWAP1 PUSH2 0x1F67 JUMP JUMPDEST SWAP3 POP POP DUP2 SWAP1 SSTORE POP DUP4 DUP2 PUSH1 0x3 ADD PUSH0 DUP11 PUSH20 0xFFFFFFFFFFFFFFFFFFFFFFFFFFFFFFFFFFFFFFFF AND PUSH20 0xFFFFFFFFFFFFFFFFFFFFFFFFFFFFFFFFFFFFFFFF AND DUP2 MSTORE PUSH1 0x20 ADD SWAP1 DUP2 MSTORE PUSH1 0x20 ADD PUSH0 KECCAK256 PUSH0 DUP3 DUP3 SLOAD PUSH2 0x1197 SWAP2 SWAP1 PUSH2 0x1F67 JUMP JUMPDEST SWAP3 POP POP DUP2 SWAP1 SSTORE POP DUP13 PUSH20 0xFFFFFFFFFFFFFFFFFFFFFFFFFFFFFFFFFFFFFFFF AND DUP15 PUSH20 0xFFFFFFFFFFFFFFFFFFFFFFFFFFFFFFFFFFFFFFFF AND CALLER PUSH20 0xFFFFFFFFFFFFFFFFFFFFFFFFFFFFFFFFFFFFFFFF AND PUSH32 0xA0F0DB586A2F0C2D74B358A03070427DE39BB6895AB47557E77EA4CBF1F84F2E DUP10 DUP10 DUP10 TIMESTAMP PUSH1 0x40 MLOAD PUSH2 0x1218 SWAP5 SWAP4 SWAP3 SWAP2 SWAP1 PUSH2 0x26C2 JUMP JUMPDEST PUSH1 0x40 MLOAD DUP1 SWAP2 SUB SWAP1 LOG4 POP POP POP PUSH2 0x122B PUSH2 0x1432 JUMP JUMPDEST SWAP9 POP SWAP9 POP SWAP9 SWAP6 POP POP POP POP POP POP JUMP JUMPDEST PUSH1 0x2 PUSH0 SLOAD SUB PUSH2 0x1274 JUMPI PUSH1 0x40 MLOAD PUSH32 0x3EE5AEB500000000000000000000000000000000000000000000000000000000 DUP2 MSTORE PUSH1 0x4 ADD PUSH1 0x40 MLOAD DUP1 SWAP2 SUB SWAP1 REVERT JUMPDEST PUSH1 0x2 PUSH0 DUP2 SWAP1 SSTORE POP JUMP JUMPDEST PUSH0 DUP2 PUSH20 0xFFFFFFFFFFFFFFFFFFFFFFFFFFFFFFFFFFFFFFFF AND DUP4 PUSH20 0xFFFFFFFFFFFFFFFFFFFFFFFFFFFFFFFFFFFFFFFF AND LT PUSH2 0x12DF JUMPI DUP2 DUP4 PUSH1 0x40 MLOAD PUSH1 0x20 ADD PUSH2 0x12C4 SWAP3 SWAP2 SWAP1 PUSH2 0x274A JUMP JUMPDEST PUSH1 0x40 MLOAD PUSH1 0x20 DUP2 DUP4 SUB SUB DUP2 MSTORE SWAP1 PUSH1 0x40 MSTORE DUP1 MLOAD SWAP1 PUSH1 0x20 ADD KECCAK256 PUSH2 0x1309 JUMP JUMPDEST DUP3 DUP3 PUSH1 0x40 MLOAD PUSH1 0x20 ADD PUSH2 0x12F2 SWAP3 SWAP2 SWAP1 PUSH2 0x274A JUMP JUMPDEST PUSH1 0x40 MLOAD PUSH1 0x20 DUP2 DUP4 SUB SUB DUP2 MSTORE SWAP1 PUSH1 0x40 MSTORE DUP1 MLOAD SWAP1 PUSH1 0x20 ADD KECCAK256 JUMPDEST SWAP1 POP SWAP3 SWAP2 POP POP JUMP JUMPDEST PUSH0 PUSH0 PUSH0 PUSH2 0x131E DUP7 DUP7 PUSH2 0x143B JUMP JUMPDEST POP SWAP1 POP DUP1 PUSH20 0xFFFFFFFFFFFFFFFFFFFFFFFFFFFFFFFFFFFFFFFF AND DUP7 PUSH20 0xFFFFFFFFFFFFFFFFFFFFFFFFFFFFFFFFFFFFFFFF AND SUB PUSH2 0x1366 JUMPI DUP4 PUSH0 ADD SLOAD SWAP3 POP DUP4 PUSH1 0x1 ADD SLOAD SWAP2 POP PUSH2 0x1374 JUMP JUMPDEST DUP4 PUSH1 0x1 ADD SLOAD SWAP3 POP DUP4 PUSH0 ADD SLOAD SWAP2 POP JUMPDEST POP SWAP4 POP SWAP4 SWAP2 POP POP JUMP JUMPDEST PUSH0 PUSH2 0x1388 DUP7 DUP7 PUSH2 0x143B JUMP JUMPDEST POP SWAP1 POP DUP1 PUSH20 0xFFFFFFFFFFFFFFFFFFFFFFFFFFFFFFFFFFFFFFFF AND DUP7 PUSH20 0xFFFFFFFFFFFFFFFFFFFFFFFFFFFFFFFFFFFFFFFF AND SUB PUSH2 0x13F6 JUMPI DUP3 DUP5 PUSH0 ADD PUSH0 DUP3 DUP3 SLOAD PUSH2 0x13D0 SWAP2 SWAP1 PUSH2 0x1F67 JUMP JUMPDEST SWAP3 POP POP DUP2 SWAP1 SSTORE POP DUP2 DUP5 PUSH1 0x1 ADD PUSH0 DUP3 DUP3 SLOAD PUSH2 0x13EA SWAP2 SWAP1 PUSH2 0x268F JUMP JUMPDEST SWAP3 POP POP DUP2 SWAP1 SSTORE POP PUSH2 0x142A JUMP JUMPDEST DUP3 DUP5 PUSH1 0x1 ADD PUSH0 DUP3 DUP3 SLOAD PUSH2 0x1409 SWAP2 SWAP1 PUSH2 0x1F67 JUMP JUMPDEST SWAP3 POP POP DUP2 SWAP1 SSTORE POP DUP2 DUP5 PUSH0 ADD PUSH0 DUP3 DUP3 SLOAD PUSH2 0x1422 SWAP2 SWAP1 PUSH2 0x268F JUMP JUMPDEST SWAP3 POP POP DUP2 SWAP1 SSTORE POP JUMPDEST POP POP POP POP POP POP JUMP JUMPDEST PUSH1 0x1 PUSH0 DUP2 SWAP1 SSTORE POP JUMP JUMPDEST PUSH0 PUSH0 DUP3 PUSH20 0xFFFFFFFFFFFFFFFFFFFFFFFFFFFFFFFFFFFFFFFF AND DUP5 PUSH20 0xFFFFFFFFFFFFFFFFFFFFFFFFFFFFFFFFFFFFFFFF AND SUB PUSH2 0x14AB JUMPI PUSH1 0x40 MLOAD PUSH32 0x8C379A000000000000000000000000000000000000000000000000000000000 DUP2 MSTORE PUSH1 0x4 ADD PUSH2 0x14A2 SWAP1 PUSH2 0x27BF JUMP JUMPDEST PUSH1 0x40 MLOAD DUP1 SWAP2 SUB SWAP1 REVERT JUMPDEST DUP3 PUSH20 0xFFFFFFFFFFFFFFFFFFFFFFFFFFFFFFFFFFFFFFFF AND DUP5 PUSH20 0xFFFFFFFFFFFFFFFFFFFFFFFFFFFFFFFFFFFFFFFF AND LT PUSH2 0x14E5 JUMPI DUP3 DUP5 PUSH2 0x14E8 JUMP JUMPDEST DUP4 DUP4 JUMPDEST SWAP2 POP SWAP2 POP SWAP3 POP SWAP3 SWAP1 POP JUMP JUMPDEST PUSH0 PUSH0 PUSH0 PUSH0 PUSH0 PUSH2 0x1503 DUP13 DUP13 DUP9 PUSH2 0x178D JUMP JUMPDEST SWAP2 POP SWAP2 POP PUSH0 DUP7 PUSH1 0x2 ADD SLOAD SUB PUSH2 0x1580 JUMPI DUP10 SWAP5 POP DUP9 SWAP4 POP PUSH0 DUP6 GT DUP1 ISZERO PUSH2 0x1526 JUMPI POP PUSH0 DUP5 GT JUMPDEST PUSH2 0x1565 JUMPI PUSH1 0x40 MLOAD PUSH32 0x8C379A000000000000000000000000000000000000000000000000000000000 DUP2 MSTORE PUSH1 0x4 ADD PUSH2 0x155C SWAP1 PUSH2 0x2827 JUMP JUMPDEST PUSH1 0x40 MLOAD DUP1 SWAP2 SUB SWAP1 REVERT JUMPDEST PUSH2 0x1579 DUP5 DUP7 PUSH2 0x1574 SWAP2 SWAP1 PUSH2 0x1F26 JUMP JUMPDEST PUSH2 0x17EA JUMP JUMPDEST SWAP3 POP PUSH2 0x1696 JUMP JUMPDEST PUSH0 DUP3 DUP3 DUP13 PUSH2 0x158E SWAP2 SWAP1 PUSH2 0x1F26 JUMP JUMPDEST PUSH2 0x1598 SWAP2 SWAP1 PUSH2 0x1FC7 JUMP JUMPDEST SWAP1 POP DUP10 DUP2 GT PUSH2 0x15EF JUMPI DUP8 DUP2 LT ISZERO PUSH2 0x15E4 JUMPI PUSH1 0x40 MLOAD PUSH32 0x8C379A000000000000000000000000000000000000000000000000000000000 DUP2 MSTORE PUSH1 0x4 ADD PUSH2 0x15DB SWAP1 PUSH2 0x2671 JUMP JUMPDEST PUSH1 0x40 MLOAD DUP1 SWAP2 SUB SWAP1 REVERT JUMPDEST DUP11 SWAP6 POP DUP1 SWAP5 POP PUSH2 0x1654 JUMP JUMPDEST PUSH0 DUP3 DUP5 DUP13 PUSH2 0x15FD SWAP2 SWAP1 PUSH2 0x1F26 JUMP JUMPDEST PUSH2 0x1607 SWAP2 SWAP1 PUSH2 0x1FC7 JUMP JUMPDEST SWAP1 POP DUP10 DUP2 LT ISZERO PUSH2 0x164C JUMPI PUSH1 0x40 MLOAD PUSH32 0x8C379A000000000000000000000000000000000000000000000000000000000 DUP2 MSTORE PUSH1 0x4 ADD PUSH2 0x1643 SWAP1 PUSH2 0x2609 JUMP JUMPDEST PUSH1 0x40 MLOAD DUP1 SWAP2 SUB SWAP1 REVERT JUMPDEST DUP1 SWAP7 POP DUP11 SWAP6 POP POP JUMPDEST PUSH2 0x1692 DUP4 DUP9 PUSH1 0x2 ADD SLOAD DUP9 PUSH2 0x1668 SWAP2 SWAP1 PUSH2 0x1F26 JUMP JUMPDEST PUSH2 0x1672 SWAP2 SWAP1 PUSH2 0x1FC7 JUMP JUMPDEST DUP4 DUP10 PUSH1 0x2 ADD SLOAD DUP9 PUSH2 0x1683 SWAP2 SWAP1 PUSH2 0x1F26 JUMP JUMPDEST PUSH2 0x168D SWAP2 SWAP1 PUSH2 0x1FC7 JUMP JUMPDEST PUSH2 0x1984 JUMP JUMPDEST SWAP4 POP POP JUMPDEST PUSH0 DUP4 GT PUSH2 0x16D8 JUMPI PUSH1 0x40 MLOAD PUSH32 0x8C379A000000000000000000000000000000000000000000000000000000000 DUP2 MSTORE PUSH1 0x4 ADD PUSH2 0x16CF SWAP1 PUSH2 0x24D1 JUMP JUMPDEST PUSH1 0x40 MLOAD DUP1 SWAP2 SUB SWAP1 REVERT JUMPDEST POP POP SWAP8 POP SWAP8 POP SWAP8 SWAP5 POP POP POP POP POP JUMP JUMPDEST DUP4 PUSH20 0xFFFFFFFFFFFFFFFFFFFFFFFFFFFFFFFFFFFFFFFF AND DUP6 PUSH20 0xFFFFFFFFFFFFFFFFFFFFFFFFFFFFFFFFFFFFFFFF AND SUB PUSH2 0x1752 JUMPI DUP2 DUP4 PUSH0 ADD PUSH0 DUP3 DUP3 SLOAD PUSH2 0x172C SWAP2 SWAP1 PUSH2 0x1F67 JUMP JUMPDEST SWAP3 POP POP DUP2 SWAP1 SSTORE POP DUP1 DUP4 PUSH1 0x1 ADD PUSH0 DUP3 DUP3 SLOAD PUSH2 0x1746 SWAP2 SWAP1 PUSH2 0x1F67 JUMP JUMPDEST SWAP3 POP POP DUP2 SWAP1 SSTORE POP PUSH2 0x1786 JUMP JUMPDEST DUP1 DUP4 PUSH0 ADD PUSH0 DUP3 DUP3 SLOAD PUSH2 0x1764 SWAP2 SWAP1 PUSH2 0x1F67 JUMP JUMPDEST SWAP3 POP POP DUP2 SWAP1 SSTORE POP DUP2 DUP4 PUSH1 0x1 ADD PUSH0 DUP3 DUP3 SLOAD PUSH2 0x177E SWAP2 SWAP1 PUSH2 0x1F67 JUMP JUMPDEST SWAP3 POP POP DUP2 SWAP1 SSTORE POP JUMPDEST POP POP POP POP POP JUMP JUMPDEST PUSH0 PUSH0 DUP4 PUSH20 0xFFFFFFFFFFFFFFFFFFFFFFFFFFFFFFFFFFFFFFFF AND DUP6 PUSH20 0xFFFFFFFFFFFFFFFFFFFFFFFFFFFFFFFFFFFFFFFF AND SUB PUSH2 0x17D4 JUMPI DUP3 PUSH0 ADD SLOAD SWAP2 POP DUP3 PUSH1 0x1 ADD SLOAD SWAP1 POP PUSH2 0x17E2 JUMP JUMPDEST DUP3 PUSH1 0x1 ADD SLOAD SWAP2 POP DUP3 PUSH0 ADD SLOAD SWAP1 POP JUMPDEST SWAP4 POP SWAP4 SWAP2 POP POP JUMP JUMPDEST PUSH0 PUSH1 0x1 DUP3 GT PUSH2 0x17FB JUMPI DUP2 SWAP1 POP PUSH2 0x197F JUMP JUMPDEST PUSH0 DUP3 SWAP1 POP PUSH0 PUSH1 0x1 SWAP1 POP PUSH17 0x100000000000000000000000000000000 DUP3 LT PUSH2 0x182B JUMPI PUSH1 0x80 DUP3 SWAP1 SHR SWAP2 POP PUSH1 0x40 DUP2 SWAP1 SHL SWAP1 POP JUMPDEST PUSH9 0x10000000000000000 DUP3 LT PUSH2 0x184A JUMPI PUSH1 0x40 DUP3 SWAP1 SHR SWAP2 POP PUSH1 0x20 DUP2 SWAP1 SHL SWAP1 POP JUMPDEST PUSH5 0x100000000 DUP3 LT PUSH2 0x1865 JUMPI PUSH1 0x20 DUP3 SWAP1 SHR SWAP2 POP PUSH1 0x10 DUP2 SWAP1 SHL SWAP1 POP JUMPDEST PUSH3 0x10000 DUP3 LT PUSH2 0x187E JUMPI PUSH1 0x10 DUP3 SWAP1 SHR SWAP2 POP PUSH1 0x8 DUP2 SWAP1 SHL SWAP1 POP JUMPDEST PUSH2 0x100 DUP3 LT PUSH2 0x1896 JUMPI PUSH1 0x8 DUP3 SWAP1 SHR SWAP2 POP PUSH1 0x4 DUP2 SWAP1 SHL SWAP1 POP JUMPDEST PUSH1 0x10 DUP3 LT PUSH2 0x18AD JUMPI PUSH1 0x4 DUP3 SWAP1 SHR SWAP2 POP PUSH1 0x2 DUP2 SWAP1 SHL SWAP1 POP JUMPDEST PUSH1 0x4 DUP3 LT PUSH2 0x18BD JUMPI PUSH1 0x1 DUP2 SWAP1 SHL SWAP1 POP JUMPDEST PUSH1 0x1 DUP2 PUSH1 0x3 MUL SWAP1 SHR SWAP1 POP PUSH1 0x1 DUP2 DUP6 DUP2 PUSH2 0x18D9 JUMPI PUSH2 0x18D8 PUSH2 0x1F9A JUMP JUMPDEST JUMPDEST DIV DUP3 ADD SWAP1 SHR SWAP1 POP PUSH1 0x1 DUP2 DUP6 DUP2 PUSH2 0x18F2 JUMPI PUSH2 0x18F1 PUSH2 0x1F9A JUMP JUMPDEST JUMPDEST DIV DUP3 ADD SWAP1 SHR SWAP1 POP PUSH1 0x1 DUP2 DUP6 DUP2 PUSH2 0x190B JUMPI PUSH2 0x190A PUSH2 0x1F9A JUMP JUMPDEST JUMPDEST DIV DUP3 ADD SWAP1 SHR SWAP1 POP PUSH1 0x1 DUP2 DUP6 DUP2 PUSH2 0x1924 JUMPI PUSH2 0x1923 PUSH2 0x1F9A JUMP JUMPDEST JUMPDEST DIV DUP3 ADD SWAP1 SHR SWAP1 POP PUSH1 0x1 DUP2 DUP6 DUP2 PUSH2 0x193D JUMPI PUSH2 0x193C PUSH2 0x1F9A JUMP JUMPDEST JUMPDEST DIV DUP3 ADD SWAP1 SHR SWAP1 POP PUSH1 0x1 DUP2 DUP6 DUP2 PUSH2 0x1956 JUMPI PUSH2 0x1955 PUSH2 0x1F9A JUMP JUMPDEST JUMPDEST DIV DUP3 ADD SWAP1 SHR SWAP1 POP PUSH2 0x1978 DUP2 DUP6 DUP2 PUSH2 0x1970 JUMPI PUSH2 0x196F PUSH2 0x1F9A JUMP JUMPDEST JUMPDEST DIV DUP3 GT PUSH2 0x199A JUMP JUMPDEST DUP2 SUB SWAP3 POP POP POP JUMPDEST SWAP2 SWAP1 POP JUMP JUMPDEST PUSH0 PUSH2 0x1992 DUP3 DUP5 LT DUP5 DUP5 PUSH2 0x19A5 JUMP JUMPDEST SWAP1 POP SWAP3 SWAP2 POP POP JUMP JUMPDEST PUSH0 DUP2 ISZERO ISZERO SWAP1 POP SWAP2 SWAP1 POP JUMP JUMPDEST PUSH0 PUSH2 0x19AF DUP5 PUSH2 0x199A JUMP JUMPDEST DUP3 DUP5 XOR MUL DUP3 XOR SWAP1 POP SWAP4 SWAP3 POP POP POP JUMP JUMPDEST PUSH0 PUSH0 REVERT JUMPDEST PUSH0 PUSH0 REVERT JUMPDEST PUSH0 DUP2 SWAP1 POP SWAP2 SWAP1 POP JUMP JUMPDEST PUSH2 0x19D8 DUP2 PUSH2 0x19C6 JUMP JUMPDEST DUP2 EQ PUSH2 0x19E2 JUMPI PUSH0 PUSH0 REVERT JUMPDEST POP JUMP JUMPDEST PUSH0 DUP2 CALLDATALOAD SWAP1 POP PUSH2 0x19F3 DUP2 PUSH2 0x19CF JUMP JUMPDEST SWAP3 SWAP2 POP POP JUMP JUMPDEST PUSH0 PUSH0 PUSH0 PUSH1 0x60 DUP5 DUP7 SUB SLT ISZERO PUSH2 0x1A10 JUMPI PUSH2 0x1A0F PUSH2 0x19BE JUMP JUMPDEST JUMPDEST PUSH0 PUSH2 0x1A1D DUP7 DUP3 DUP8 ADD PUSH2 0x19E5 JUMP JUMPDEST SWAP4 POP POP PUSH1 0x20 PUSH2 0x1A2E DUP7 DUP3 DUP8 ADD PUSH2 0x19E5 JUMP JUMPDEST SWAP3 POP POP PUSH1 0x40 PUSH2 0x1A3F DUP7 DUP3 DUP8 ADD PUSH2 0x19E5 JUMP JUMPDEST SWAP2 POP POP SWAP3 POP SWAP3 POP SWAP3 JUMP JUMPDEST PUSH2 0x1A52 DUP2 PUSH2 0x19C6 JUMP JUMPDEST DUP3 MSTORE POP POP JUMP JUMPDEST PUSH0 PUSH1 0x20 DUP3 ADD SWAP1 POP PUSH2 0x1A6B PUSH0 DUP4 ADD DUP5 PUSH2 0x1A49 JUMP JUMPDEST SWAP3 SWAP2 POP POP JUMP JUMPDEST PUSH0 PUSH0 REVERT JUMPDEST PUSH0 PUSH0 REVERT JUMPDEST PUSH0 PUSH0 REVERT JUMPDEST PUSH0 PUSH0 DUP4 PUSH1 0x1F DUP5 ADD SLT PUSH2 0x1A92 JUMPI PUSH2 0x1A91 PUSH2 0x1A71 JUMP JUMPDEST JUMPDEST DUP3 CALLDATALOAD SWAP1 POP PUSH8 0xFFFFFFFFFFFFFFFF DUP2 GT ISZERO PUSH2 0x1AAF JUMPI PUSH2 0x1AAE PUSH2 0x1A75 JUMP JUMPDEST JUMPDEST PUSH1 0x20 DUP4 ADD SWAP2 POP DUP4 PUSH1 0x20 DUP3 MUL DUP4 ADD GT ISZERO PUSH2 0x1ACB JUMPI PUSH2 0x1ACA PUSH2 0x1A79 JUMP JUMPDEST JUMPDEST SWAP3 POP SWAP3 SWAP1 POP JUMP JUMPDEST PUSH0 PUSH20 0xFFFFFFFFFFFFFFFFFFFFFFFFFFFFFFFFFFFFFFFF DUP3 AND SWAP1 POP SWAP2 SWAP1 POP JUMP JUMPDEST PUSH0 PUSH2 0x1AFB DUP3 PUSH2 0x1AD2 JUMP JUMPDEST SWAP1 POP SWAP2 SWAP1 POP JUMP JUMPDEST PUSH2 0x1B0B DUP2 PUSH2 0x1AF1 JUMP JUMPDEST DUP2 EQ PUSH2 0x1B15 JUMPI PUSH0 PUSH0 REVERT JUMPDEST POP JUMP JUMPDEST PUSH0 DUP2 CALLDATALOAD SWAP1 POP PUSH2 0x1B26 DUP2 PUSH2 0x1B02 JUMP JUMPDEST SWAP3 SWAP2 POP POP JUMP JUMPDEST PUSH0 PUSH0 PUSH0 PUSH0 PUSH0 PUSH0 PUSH1 0xA0 DUP8 DUP10 SUB SLT ISZERO PUSH2 0x1B46 JUMPI PUSH2 0x1B45 PUSH2 0x19BE JUMP JUMPDEST JUMPDEST PUSH0 PUSH2 0x1B53 DUP10 DUP3 DUP11 ADD PUSH2 0x19E5 JUMP JUMPDEST SWAP7 POP POP PUSH1 0x20 PUSH2 0x1B64 DUP10 DUP3 DUP11 ADD PUSH2 0x19E5 JUMP JUMPDEST SWAP6 POP POP PUSH1 0x40 DUP8 ADD CALLDATALOAD PUSH8 0xFFFFFFFFFFFFFFFF DUP2 GT ISZERO PUSH2 0x1B85 JUMPI PUSH2 0x1B84 PUSH2 0x19C2 JUMP JUMPDEST JUMPDEST PUSH2 0x1B91 DUP10 DUP3 DUP11 ADD PUSH2 0x1A7D JUMP JUMPDEST SWAP5 POP SWAP5 POP POP PUSH1 0x60 PUSH2 0x1BA4 DUP10 DUP3 DUP11 ADD PUSH2 0x1B18 JUMP JUMPDEST SWAP3 POP POP PUSH1 0x80 PUSH2 0x1BB5 DUP10 DUP3 DUP11 ADD PUSH2 0x19E5 JUMP JUMPDEST SWAP2 POP POP SWAP3 SWAP6 POP SWAP3 SWAP6 POP SWAP3 SWAP6 JUMP JUMPDEST PUSH0 DUP2 MLOAD SWAP1 POP SWAP2 SWAP1 POP JUMP JUMPDEST PUSH0 DUP3 DUP3 MSTORE PUSH1 0x20 DUP3 ADD SWAP1 POP SWAP3 SWAP2 POP POP JUMP JUMPDEST PUSH0 DUP2 SWAP1 POP PUSH1 0x20 DUP3 ADD SWAP1 POP SWAP2 SWAP1 POP JUMP JUMPDEST PUSH2 0x1BF4 DUP2 PUSH2 0x19C6 JUMP JUMPDEST DUP3 MSTORE POP POP JUMP JUMPDEST PUSH0 PUSH2 0x1C05 DUP4 DUP4 PUSH2 0x1BEB JUMP JUMPDEST PUSH1 0x20 DUP4 ADD SWAP1 POP SWAP3 SWAP2 POP POP JUMP JUMPDEST PUSH0 PUSH1 0x20 DUP3 ADD SWAP1 POP SWAP2 SWAP1 POP JUMP JUMPDEST PUSH0 PUSH2 0x1C27 DUP3 PUSH2 0x1BC2 JUMP JUMPDEST PUSH2 0x1C31 DUP2 DUP6 PUSH2 0x1BCC JUMP JUMPDEST SWAP4 POP PUSH2 0x1C3C DUP4 PUSH2 0x1BDC JUMP JUMPDEST DUP1 PUSH0 JUMPDEST DUP4 DUP2 LT ISZERO PUSH2 0x1C6C JUMPI DUP2 MLOAD PUSH2 0x1C53 DUP9 DUP3 PUSH2 0x1BFA JUMP JUMPDEST SWAP8 POP PUSH2 0x1C5E DUP4 PUSH2 0x1C11 JUMP JUMPDEST SWAP3 POP POP PUSH1 0x1 DUP2 ADD SWAP1 POP PUSH2 0x1C3F JUMP JUMPDEST POP DUP6 SWAP4 POP POP POP POP SWAP3 SWAP2 POP POP JUMP JUMPDEST PUSH0 PUSH1 0x20 DUP3 ADD SWAP1 POP DUP2 DUP2 SUB PUSH0 DUP4 ADD MSTORE PUSH2 0x1C91 DUP2 DUP5 PUSH2 0x1C1D JUMP JUMPDEST SWAP1 POP SWAP3 SWAP2 POP POP JUMP JUMPDEST PUSH0 PUSH0 PUSH1 0x40 DUP4 DUP6 SUB SLT ISZERO PUSH2 0x1CAF JUMPI PUSH2 0x1CAE PUSH2 0x19BE JUMP JUMPDEST JUMPDEST PUSH0 PUSH2 0x1CBC DUP6 DUP3 DUP7 ADD PUSH2 0x1B18 JUMP JUMPDEST SWAP3 POP POP PUSH1 0x20 PUSH2 0x1CCD DUP6 DUP3 DUP7 ADD PUSH2 0x1B18 JUMP JUMPDEST SWAP2 POP POP SWAP3 POP SWAP3 SWAP1 POP JUMP JUMPDEST PUSH0 PUSH0 PUSH0 PUSH0 PUSH0 PUSH0 PUSH0 PUSH1 0xE0 DUP9 DUP11 SUB SLT ISZERO PUSH2 0x1CF2 JUMPI PUSH2 0x1CF1 PUSH2 0x19BE JUMP JUMPDEST JUMPDEST PUSH0 PUSH2 0x1CFF DUP11 DUP3 DUP12 ADD PUSH2 0x1B18 JUMP JUMPDEST SWAP8 POP POP PUSH1 0x20 PUSH2 0x1D10 DUP11 DUP3 DUP12 ADD PUSH2 0x1B18 JUMP JUMPDEST SWAP7 POP POP PUSH1 0x40 PUSH2 0x1D21 DUP11 DUP3 DUP12 ADD PUSH2 0x19E5 JUMP JUMPDEST SWAP6 POP POP PUSH1 0x60 PUSH2 0x1D32 DUP11 DUP3 DUP12 ADD PUSH2 0x19E5 JUMP JUMPDEST SWAP5 POP POP PUSH1 0x80 PUSH2 0x1D43 DUP11 DUP3 DUP12 ADD PUSH2 0x19E5 JUMP JUMPDEST SWAP4 POP POP PUSH1 0xA0 PUSH2 0x1D54 DUP11 DUP3 DUP12 ADD PUSH2 0x1B18 JUMP JUMPDEST SWAP3 POP POP PUSH1 0xC0 PUSH2 0x1D65 DUP11 DUP3 DUP12 ADD PUSH2 0x19E5 JUMP JUMPDEST SWAP2 POP POP SWAP3 SWAP6 SWAP9 SWAP2 SWAP5 SWAP8 POP SWAP3 SWAP6 POP JUMP JUMPDEST PUSH0 PUSH1 0x40 DUP3 ADD SWAP1 POP PUSH2 0x1D87 PUSH0 DUP4 ADD DUP6 PUSH2 0x1A49 JUMP JUMPDEST PUSH2 0x1D94 PUSH1 0x20 DUP4 ADD DUP5 PUSH2 0x1A49 JUMP JUMPDEST SWAP4 SWAP3 POP POP POP JUMP JUMPDEST PUSH0 PUSH0 PUSH0 PUSH0 PUSH0 PUSH0 PUSH0 PUSH0 PUSH2 0x100 DUP10 DUP12 SUB SLT ISZERO PUSH2 0x1DB8 JUMPI PUSH2 0x1DB7 PUSH2 0x19BE JUMP JUMPDEST JUMPDEST PUSH0 PUSH2 0x1DC5 DUP12 DUP3 DUP13 ADD PUSH2 0x1B18 JUMP JUMPDEST SWAP9 POP POP PUSH1 0x20 PUSH2 0x1DD6 DUP12 DUP3 DUP13 ADD PUSH2 0x1B18 JUMP JUMPDEST SWAP8 POP POP PUSH1 0x40 PUSH2 0x1DE7 DUP12 DUP3 DUP13 ADD PUSH2 0x19E5 JUMP JUMPDEST SWAP7 POP POP PUSH1 0x60 PUSH2 0x1DF8 DUP12 DUP3 DUP13 ADD PUSH2 0x19E5 JUMP JUMPDEST SWAP6 POP POP PUSH1 0x80 PUSH2 0x1E09 DUP12 DUP3 DUP13 ADD PUSH2 0x19E5 JUMP JUMPDEST SWAP5 POP POP PUSH1 0xA0 PUSH2 0x1E1A DUP12 DUP3 DUP13 ADD PUSH2 0x19E5 JUMP JUMPDEST SWAP4 POP POP PUSH1 0xC0 PUSH2 0x1E2B DUP12 DUP3 DUP13 ADD PUSH2 0x1B18 JUMP JUMPDEST SWAP3 POP POP PUSH1 0xE0 PUSH2 0x1E3C DUP12 DUP3 DUP13 ADD PUSH2 0x19E5 JUMP JUMPDEST SWAP2 POP POP SWAP3 SWAP6 SWAP9 POP SWAP3 SWAP6 SWAP9 SWAP1 SWAP4 SWAP7 POP JUMP JUMPDEST PUSH0 PUSH1 0x60 DUP3 ADD SWAP1 POP PUSH2 0x1E5F PUSH0 DUP4 ADD DUP7 PUSH2 0x1A49 JUMP JUMPDEST PUSH2 0x1E6C PUSH1 0x20 DUP4 ADD DUP6 PUSH2 0x1A49 JUMP JUMPDEST PUSH2 0x1E79 PUSH1 0x40 DUP4 ADD DUP5 PUSH2 0x1A49 JUMP JUMPDEST SWAP5 SWAP4 POP POP POP POP JUMP JUMPDEST PUSH0 DUP3 DUP3 MSTORE PUSH1 0x20 DUP3 ADD SWAP1 POP SWAP3 SWAP2 POP POP JUMP JUMPDEST PUSH32 0x496E76616C6964206F7574707574206461746100000000000000000000000000 PUSH0 DUP3 ADD MSTORE POP JUMP JUMPDEST PUSH0 PUSH2 0x1EC5 PUSH1 0x13 DUP4 PUSH2 0x1E81 JUMP JUMPDEST SWAP2 POP PUSH2 0x1ED0 DUP3 PUSH2 0x1E91 JUMP JUMPDEST PUSH1 0x20 DUP3 ADD SWAP1 POP SWAP2 SWAP1 POP JUMP JUMPDEST PUSH0 PUSH1 0x20 DUP3 ADD SWAP1 POP DUP2 DUP2 SUB PUSH0 DUP4 ADD MSTORE PUSH2 0x1EF2 DUP2 PUSH2 0x1EB9 JUMP JUMPDEST SWAP1 POP SWAP2 SWAP1 POP JUMP JUMPDEST PUSH32 0x4E487B7100000000000000000000000000000000000000000000000000000000 PUSH0 MSTORE PUSH1 0x11 PUSH1 0x4 MSTORE PUSH1 0x24 PUSH0 REVERT JUMPDEST PUSH0 PUSH2 0x1F30 DUP3 PUSH2 0x19C6 JUMP JUMPDEST SWAP2 POP PUSH2 0x1F3B DUP4 PUSH2 0x19C6 JUMP JUMPDEST SWAP3 POP DUP3 DUP3 MUL PUSH2 0x1F49 DUP2 PUSH2 0x19C6 JUMP JUMPDEST SWAP2 POP DUP3 DUP3 DIV DUP5 EQ DUP4 ISZERO OR PUSH2 0x1F60 JUMPI PUSH2 0x1F5F PUSH2 0x1EF9 JUMP JUMPDEST JUMPDEST POP SWAP3 SWAP2 POP POP JUMP JUMPDEST PUSH0 PUSH2 0x1F71 DUP3 PUSH2 0x19C6 JUMP JUMPDEST SWAP2 POP PUSH2 0x1F7C DUP4 PUSH2 0x19C6 JUMP JUMPDEST SWAP3 POP DUP3 DUP3 ADD SWAP1 POP DUP1 DUP3 GT ISZERO PUSH2 0x1F94 JUMPI PUSH2 0x1F93 PUSH2 0x1EF9 JUMP JUMPDEST JUMPDEST SWAP3 SWAP2 POP POP JUMP JUMPDEST PUSH32 0x4E487B7100000000000000000000000000000000000000000000000000000000 PUSH0 MSTORE PUSH1 0x12 PUSH1 0x4 MSTORE PUSH1 0x24 PUSH0 REVERT JUMPDEST PUSH0 PUSH2 0x1FD1 DUP3 PUSH2 0x19C6 JUMP JUMPDEST SWAP2 POP PUSH2 0x1FDC DUP4 PUSH2 0x19C6 JUMP JUMPDEST SWAP3 POP DUP3 PUSH2 0x1FEC JUMPI PUSH2 0x1FEB PUSH2 0x1F9A JUMP JUMPDEST JUMPDEST DUP3 DUP3 DIV SWAP1 POP SWAP3 SWAP2 POP POP JUMP JUMPDEST PUSH32 0x5472616E73616374696F6E206578706972656400000000000000000000000000 PUSH0 DUP3 ADD MSTORE POP JUMP JUMPDEST PUSH0 PUSH2 0x202B PUSH1 0x13 DUP4 PUSH2 0x1E81 JUMP JUMPDEST SWAP2 POP PUSH2 0x2036 DUP3 PUSH2 0x1FF7 JUMP JUMPDEST PUSH1 0x20 DUP3 ADD SWAP1 POP SWAP2 SWAP1 POP JUMP JUMPDEST PUSH0 PUSH1 0x20 DUP3 ADD SWAP1 POP DUP2 DUP2 SUB PUSH0 DUP4 ADD MSTORE PUSH2 0x2058 DUP2 PUSH2 0x201F JUMP JUMPDEST SWAP1 POP SWAP2 SWAP1 POP JUMP JUMPDEST PUSH32 0x4F6E6C79203120686F7020616C6C6F7765640000000000000000000000000000 PUSH0 DUP3 ADD MSTORE POP JUMP JUMPDEST PUSH0 PUSH2 0x2093 PUSH1 0x12 DUP4 PUSH2 0x1E81 JUMP JUMPDEST SWAP2 POP PUSH2 0x209E DUP3 PUSH2 0x205F JUMP JUMPDEST PUSH1 0x20 DUP3 ADD SWAP1 POP SWAP2 SWAP1 POP JUMP JUMPDEST PUSH0 PUSH1 0x20 DUP3 ADD SWAP1 POP DUP2 DUP2 SUB PUSH0 DUP4 ADD MSTORE PUSH2 0x20C0 DUP2 PUSH2 0x2087 JUMP JUMPDEST SWAP1 POP SWAP2 SWAP1 POP JUMP JUMPDEST PUSH32 0x496E76616C69642027746F272061646472657373000000000000000000000000 PUSH0 DUP3 ADD MSTORE POP JUMP JUMPDEST PUSH0 PUSH2 0x20FB PUSH1 0x14 DUP4 PUSH2 0x1E81 JUMP JUMPDEST SWAP2 POP PUSH2 0x2106 DUP3 PUSH2 0x20C7 JUMP JUMPDEST PUSH1 0x20 DUP3 ADD SWAP1 POP SWAP2 SWAP1 POP JUMP JUMPDEST PUSH0 PUSH1 0x20 DUP3 ADD SWAP1 POP DUP2 DUP2 SUB PUSH0 DUP4 ADD MSTORE PUSH2 0x2128 DUP2 PUSH2 0x20EF JUMP JUMPDEST SWAP1 POP SWAP2 SWAP1 POP JUMP JUMPDEST PUSH32 0x496E707574206D757374206265203E2030000000000000000000000000000000 PUSH0 DUP3 ADD MSTORE POP JUMP JUMPDEST PUSH0 PUSH2 0x2163 PUSH1 0x11 DUP4 PUSH2 0x1E81 JUMP JUMPDEST SWAP2 POP PUSH2 0x216E DUP3 PUSH2 0x212F JUMP JUMPDEST PUSH1 0x20 DUP3 ADD SWAP1 POP SWAP2 SWAP1 POP JUMP JUMPDEST PUSH0 PUSH1 0x20 DUP3 ADD SWAP1 POP DUP2 DUP2 SUB PUSH0 DUP4 ADD MSTORE PUSH2 0x2190 DUP2 PUSH2 0x2157 JUMP JUMPDEST SWAP1 POP SWAP2 SWAP1 POP JUMP JUMPDEST PUSH32 0x4E487B7100000000000000000000000000000000000000000000000000000000 PUSH0 MSTORE PUSH1 0x32 PUSH1 0x4 MSTORE PUSH1 0x24 PUSH0 REVERT JUMPDEST PUSH0 PUSH1 0x20 DUP3 DUP5 SUB SLT ISZERO PUSH2 0x21D9 JUMPI PUSH2 0x21D8 PUSH2 0x19BE JUMP JUMPDEST JUMPDEST PUSH0 PUSH2 0x21E6 DUP5 DUP3 DUP6 ADD PUSH2 0x1B18 JUMP JUMPDEST SWAP2 POP POP SWAP3 SWAP2 POP POP JUMP JUMPDEST PUSH32 0x456D70747920706F6F6C00000000000000000000000000000000000000000000 PUSH0 DUP3 ADD MSTORE POP JUMP JUMPDEST PUSH0 PUSH2 0x2223 PUSH1 0xA DUP4 PUSH2 0x1E81 JUMP JUMPDEST SWAP2 POP PUSH2 0x222E DUP3 PUSH2 0x21EF JUMP JUMPDEST PUSH1 0x20 DUP3 ADD SWAP1 POP SWAP2 SWAP1 POP JUMP JUMPDEST PUSH0 PUSH1 0x20 DUP3 ADD SWAP1 POP DUP2 DUP2 SUB PUSH0 DUP4 ADD MSTORE PUSH2 0x2250 DUP2 PUSH2 0x2217 JUMP JUMPDEST SWAP1 POP SWAP2 SWAP1 POP JUMP JUMPDEST PUSH32 0x45786365737369766520736C6970706167650000000000000000000000000000 PUSH0 DUP3 ADD MSTORE POP JUMP JUMPDEST PUSH0 PUSH2 0x228B PUSH1 0x12 DUP4 PUSH2 0x1E81 JUMP JUMPDEST SWAP2 POP PUSH2 0x2296 DUP3 PUSH2 0x2257 JUMP JUMPDEST PUSH1 0x20 DUP3 ADD SWAP1 POP SWAP2 SWAP1 POP JUMP JUMPDEST PUSH0 PUSH1 0x20 DUP3 ADD SWAP1 POP DUP2 DUP2 SUB PUSH0 DUP4 ADD MSTORE PUSH2 0x22B8 DUP2 PUSH2 0x227F JUMP JUMPDEST SWAP1 POP SWAP2 SWAP1 POP JUMP JUMPDEST PUSH2 0x22C8 DUP2 PUSH2 0x1AF1 JUMP JUMPDEST DUP3 MSTORE POP POP JUMP JUMPDEST PUSH0 PUSH1 0x60 DUP3 ADD SWAP1 POP PUSH2 0x22E1 PUSH0 DUP4 ADD DUP7 PUSH2 0x22BF JUMP JUMPDEST PUSH2 0x22EE PUSH1 0x20 DUP4 ADD DUP6 PUSH2 0x22BF JUMP JUMPDEST PUSH2 0x22FB PUSH1 0x40 DUP4 ADD DUP5 PUSH2 0x1A49 JUMP JUMPDEST SWAP5 SWAP4 POP POP POP POP JUMP JUMPDEST PUSH0 DUP2 ISZERO ISZERO SWAP1 POP SWAP2 SWAP1 POP JUMP JUMPDEST PUSH2 0x2317 DUP2 PUSH2 0x2303 JUMP JUMPDEST DUP2 EQ PUSH2 0x2321 JUMPI PUSH0 PUSH0 REVERT JUMPDEST POP JUMP JUMPDEST PUSH0 DUP2 MLOAD SWAP1 POP PUSH2 0x2332 DUP2 PUSH2 0x230E JUMP JUMPDEST SWAP3 SWAP2 POP POP JUMP JUMPDEST PUSH0 PUSH1 0x20 DUP3 DUP5 SUB SLT ISZERO PUSH2 0x234D JUMPI PUSH2 0x234C PUSH2 0x19BE JUMP JUMPDEST JUMPDEST PUSH0 PUSH2 0x235A DUP5 DUP3 DUP6 ADD PUSH2 0x2324 JUMP JUMPDEST SWAP2 POP POP SWAP3 SWAP2 POP POP JUMP JUMPDEST PUSH0 PUSH1 0x40 DUP3 ADD SWAP1 POP PUSH2 0x2376 PUSH0 DUP4 ADD DUP6 PUSH2 0x22BF JUMP JUMPDEST PUSH2 0x2383 PUSH1 0x20 DUP4 ADD DUP5 PUSH2 0x1A49 JUMP JUMPDEST SWAP4 SWAP3 POP POP POP JUMP JUMPDEST PUSH32 0x4E487B7100000000000000000000000000000000000000000000000000000000 PUSH0 MSTORE PUSH1 0x41 PUSH1 0x4 MSTORE PUSH1 0x24 PUSH0 REVERT JUMPDEST PUSH32 0x496E76616C696420746F6B656E73000000000000000000000000000000000000 PUSH0 DUP3 ADD MSTORE POP JUMP JUMPDEST PUSH0 PUSH2 0x23EB PUSH1 0xE DUP4 PUSH2 0x1E81 JUMP JUMPDEST SWAP2 POP PUSH2 0x23F6 DUP3 PUSH2 0x23B7 JUMP JUMPDEST PUSH1 0x20 DUP3 ADD SWAP1 POP SWAP2 SWAP1 POP JUMP JUMPDEST PUSH0 PUSH1 0x20 DUP3 ADD SWAP1 POP DUP2 DUP2 SUB PUSH0 DUP4 ADD MSTORE PUSH2 0x2418 DUP2 PUSH2 0x23DF JUMP JUMPDEST SWAP1 POP SWAP2 SWAP1 POP JUMP JUMPDEST PUSH32 0x4E6F206C697175696469747920696E20706F6F6C000000000000000000000000 PUSH0 DUP3 ADD MSTORE POP JUMP JUMPDEST PUSH0 PUSH2 0x2453 PUSH1 0x14 DUP4 PUSH2 0x1E81 JUMP JUMPDEST SWAP2 POP PUSH2 0x245E DUP3 PUSH2 0x241F JUMP JUMPDEST PUSH1 0x20 DUP3 ADD SWAP1 POP SWAP2 SWAP1 POP JUMP JUMPDEST PUSH0 PUSH1 0x20 DUP3 ADD SWAP1 POP DUP2 DUP2 SUB PUSH0 DUP4 ADD MSTORE PUSH2 0x2480 DUP2 PUSH2 0x2447 JUMP JUMPDEST SWAP1 POP SWAP2 SWAP1 POP JUMP JUMPDEST PUSH32 0x4C6971756964697479206D757374206265203E20300000000000000000000000 PUSH0 DUP3 ADD MSTORE POP JUMP JUMPDEST PUSH0 PUSH2 0x24BB PUSH1 0x15 DUP4 PUSH2 0x1E81 JUMP JUMPDEST SWAP2 POP PUSH2 0x24C6 DUP3 PUSH2 0x2487 JUMP JUMPDEST PUSH1 0x20 DUP3 ADD SWAP1 POP SWAP2 SWAP1 POP JUMP JUMPDEST PUSH0 PUSH1 0x20 DUP3 ADD SWAP1 POP DUP2 DUP2 SUB PUSH0 DUP4 ADD MSTORE PUSH2 0x24E8 DUP2 PUSH2 0x24AF JUMP JUMPDEST SWAP1 POP SWAP2 SWAP1 POP JUMP JUMPDEST PUSH32 0x496E73756666696369656E74206C697175696469747900000000000000000000 PUSH0 DUP3 ADD MSTORE POP JUMP JUMPDEST PUSH0 PUSH2 0x2523 PUSH1 0x16 DUP4 PUSH2 0x1E81 JUMP JUMPDEST SWAP2 POP PUSH2 0x252E DUP3 PUSH2 0x24EF JUMP JUMPDEST PUSH1 0x20 DUP3 ADD SWAP1 POP SWAP2 SWAP1 POP JUMP JUMPDEST PUSH0 PUSH1 0x20 DUP3 ADD SWAP1 POP DUP2 DUP2 SUB PUSH0 DUP4 ADD MSTORE PUSH2 0x2550 DUP2 PUSH2 0x2517 JUMP JUMPDEST SWAP1 POP SWAP2 SWAP1 POP JUMP JUMPDEST PUSH32 0x456D707479206C697175696469747920706F6F6C000000000000000000000000 PUSH0 DUP3 ADD MSTORE POP JUMP JUMPDEST PUSH0 PUSH2 0x258B PUSH1 0x14 DUP4 PUSH2 0x1E81 JUMP JUMPDEST SWAP2 POP PUSH2 0x2596 DUP3 PUSH2 0x2557 JUMP JUMPDEST PUSH1 0x20 DUP3 ADD SWAP1 POP SWAP2 SWAP1 POP JUMP JUMPDEST PUSH0 PUSH1 0x20 DUP3 ADD SWAP1 POP DUP2 DUP2 SUB PUSH0 DUP4 ADD MSTORE PUSH2 0x25B8 DUP2 PUSH2 0x257F JUMP JUMPDEST SWAP1 POP SWAP2 SWAP1 POP JUMP JUMPDEST PUSH32 0x546F6B656E4120736C697070616765206572726F720000000000000000000000 PUSH0 DUP3 ADD MSTORE POP JUMP JUMPDEST PUSH0 PUSH2 0x25F3 PUSH1 0x15 DUP4 PUSH2 0x1E81 JUMP JUMPDEST SWAP2 POP PUSH2 0x25FE DUP3 PUSH2 0x25BF JUMP JUMPDEST PUSH1 0x20 DUP3 ADD SWAP1 POP SWAP2 SWAP1 POP JUMP JUMPDEST PUSH0 PUSH1 0x20 DUP3 ADD SWAP1 POP DUP2 DUP2 SUB PUSH0 DUP4 ADD MSTORE PUSH2 0x2620 DUP2 PUSH2 0x25E7 JUMP JUMPDEST SWAP1 POP SWAP2 SWAP1 POP JUMP JUMPDEST PUSH32 0x546F6B656E4220736C697070616765206572726F720000000000000000000000 PUSH0 DUP3 ADD MSTORE POP JUMP JUMPDEST PUSH0 PUSH2 0x265B PUSH1 0x15 DUP4 PUSH2 0x1E81 JUMP JUMPDEST SWAP2 POP PUSH2 0x2666 DUP3 PUSH2 0x2627 JUMP JUMPDEST PUSH1 0x20 DUP3 ADD SWAP1 POP SWAP2 SWAP1 POP JUMP JUMPDEST PUSH0 PUSH1 0x20 DUP3 ADD SWAP1 POP DUP2 DUP2 SUB PUSH0 DUP4 ADD MSTORE PUSH2 0x2688 DUP2 PUSH2 0x264F JUMP JUMPDEST SWAP1 POP SWAP2 SWAP1 POP JUMP JUMPDEST PUSH0 PUSH2 0x2699 DUP3 PUSH2 0x19C6 JUMP JUMPDEST SWAP2 POP PUSH2 0x26A4 DUP4 PUSH2 0x19C6 JUMP JUMPDEST SWAP3 POP DUP3 DUP3 SUB SWAP1 POP DUP2 DUP2 GT ISZERO PUSH2 0x26BC JUMPI PUSH2 0x26BB PUSH2 0x1EF9 JUMP JUMPDEST JUMPDEST SWAP3 SWAP2 POP POP JUMP JUMPDEST PUSH0 PUSH1 0x80 DUP3 ADD SWAP1 POP PUSH2 0x26D5 PUSH0 DUP4 ADD DUP8 PUSH2 0x1A49 JUMP JUMPDEST PUSH2 0x26E2 PUSH1 0x20 DUP4 ADD DUP7 PUSH2 0x1A49 JUMP JUMPDEST PUSH2 0x26EF PUSH1 0x40 DUP4 ADD DUP6 PUSH2 0x1A49 JUMP JUMPDEST PUSH2 0x26FC PUSH1 0x60 DUP4 ADD DUP5 PUSH2 0x1A49 JUMP JUMPDEST SWAP6 SWAP5 POP POP POP POP POP JUMP JUMPDEST PUSH0 DUP2 PUSH1 0x60 SHL SWAP1 POP SWAP2 SWAP1 POP JUMP JUMPDEST PUSH0 PUSH2 0x271B DUP3 PUSH2 0x2705 JUMP JUMPDEST SWAP1 POP SWAP2 SWAP1 POP JUMP JUMPDEST PUSH0 PUSH2 0x272C DUP3 PUSH2 0x2711 JUMP JUMPDEST SWAP1 POP SWAP2 SWAP1 POP JUMP JUMPDEST PUSH2 0x2744 PUSH2 0x273F DUP3 PUSH2 0x1AF1 JUMP JUMPDEST PUSH2 0x2722 JUMP JUMPDEST DUP3 MSTORE POP POP JUMP JUMPDEST PUSH0 PUSH2 0x2755 DUP3 DUP6 PUSH2 0x2733 JUMP JUMPDEST PUSH1 0x14 DUP3 ADD SWAP2 POP PUSH2 0x2765 DUP3 DUP5 PUSH2 0x2733 JUMP JUMPDEST PUSH1 0x14 DUP3 ADD SWAP2 POP DUP2 SWAP1 POP SWAP4 SWAP3 POP POP POP JUMP JUMPDEST PUSH32 0x4D75737420626520646966666572656E74000000000000000000000000000000 PUSH0 DUP3 ADD MSTORE POP JUMP JUMPDEST PUSH0 PUSH2 0x27A9 PUSH1 0x11 DUP4 PUSH2 0x1E81 JUMP JUMPDEST SWAP2 POP PUSH2 0x27B4 DUP3 PUSH2 0x2775 JUMP JUMPDEST PUSH1 0x20 DUP3 ADD SWAP1 POP SWAP2 SWAP1 POP JUMP JUMPDEST PUSH0 PUSH1 0x20 DUP3 ADD SWAP1 POP DUP2 DUP2 SUB PUSH0 DUP4 ADD MSTORE PUSH2 0x27D6 DUP2 PUSH2 0x279D JUMP JUMPDEST SWAP1 POP SWAP2 SWAP1 POP JUMP JUMPDEST PUSH32 0x416D6F756E7473206D757374206265203E203000000000000000000000000000 PUSH0 DUP3 ADD MSTORE POP JUMP JUMPDEST PUSH0 PUSH2 0x2811 PUSH1 0x13 DUP4 PUSH2 0x1E81 JUMP JUMPDEST SWAP2 POP PUSH2 0x281C DUP3 PUSH2 0x27DD JUMP JUMPDEST PUSH1 0x20 DUP3 ADD SWAP1 POP SWAP2 SWAP1 POP JUMP JUMPDEST PUSH0 PUSH1 0x20 DUP3 ADD SWAP1 POP DUP2 DUP2 SUB PUSH0 DUP4 ADD MSTORE PUSH2 0x283E DUP2 PUSH2 0x2805 JUMP JUMPDEST SWAP1 POP SWAP2 SWAP1 POP JUMP INVALID LOG2 PUSH5 0x6970667358 0x22 SLT KECCAK256 DUP3 SGT 0xAA DUP10 0xB1 0xDC EXTCODESIZE DUP8 0xDA DUP16 SWAP2 PUSH24 0x5DDD5BCE6513196D6146D0E76C7BC4D2853ABDD864736F6C PUSH4 0x4300081B STOP CALLER "
				},
				"gasEstimates": {
					"creation": {
						"codeDepositCost": "2072600",
						"executionCost": "24311",
						"totalCost": "2096911"
					},
					"external": {
						"addLiquidity(address,address,uint256,uint256,uint256,uint256,address,uint256)": "infinite",
						"getAmountOut(uint256,uint256,uint256)": "infinite",
						"getPrice(address,address)": "infinite",
						"removeLiquidity(address,address,uint256,uint256,uint256,address,uint256)": "infinite",
						"swapExactTokensForTokens(uint256,uint256,address[],address,uint256)": "infinite"
					},
					"internal": {
						"_calculateAddLiquidityAmountsAndLiquidity(address,address,uint256,uint256,uint256,uint256,struct SimpleSwap.Pool storage pointer)": "infinite",
						"_getOrderedReserves(address,address,struct SimpleSwap.Pool storage pointer)": "4301",
						"_getPairHash(address,address)": "infinite",
						"_getReservesForSwap(address,address,struct SimpleSwap.Pool storage pointer)": "infinite",
						"_sortTokens(address,address)": "infinite",
						"_updateAddLiquidityPoolReserves(address,address,struct SimpleSwap.Pool storage pointer,uint256,uint256)": "infinite",
						"_updatePoolReserves(address,address,struct SimpleSwap.Pool storage pointer,uint256,uint256)": "infinite"
					}
				},
				"methodIdentifiers": {
					"addLiquidity(address,address,uint256,uint256,uint256,uint256,address,uint256)": "e8e33700",
					"getAmountOut(uint256,uint256,uint256)": "054d50d4",
					"getPrice(address,address)": "ac41865a",
					"removeLiquidity(address,address,uint256,uint256,uint256,address,uint256)": "baa2abde",
					"swapExactTokensForTokens(uint256,uint256,address[],address,uint256)": "38ed1739"
				}
			},
			"storageLayout": {
				"storage": [
					{
						"astId": 140,
						"contract": "SimpleSwap.sol:SimpleSwap",
						"label": "_status",
						"offset": 0,
						"slot": "0",
						"type": "t_uint256"
					},
					{
						"astId": 3645,
						"contract": "SimpleSwap.sol:SimpleSwap",
						"label": "pools",
						"offset": 0,
						"slot": "1",
						"type": "t_mapping(t_bytes32,t_struct(Pool)3640_storage)"
					}
				],
				"types": {
					"t_address": {
						"encoding": "inplace",
						"label": "address",
						"numberOfBytes": "20"
					},
					"t_bytes32": {
						"encoding": "inplace",
						"label": "bytes32",
						"numberOfBytes": "32"
					},
					"t_mapping(t_address,t_uint256)": {
						"encoding": "mapping",
						"key": "t_address",
						"label": "mapping(address => uint256)",
						"numberOfBytes": "32",
						"value": "t_uint256"
					},
					"t_mapping(t_bytes32,t_struct(Pool)3640_storage)": {
						"encoding": "mapping",
						"key": "t_bytes32",
						"label": "mapping(bytes32 => struct SimpleSwap.Pool)",
						"numberOfBytes": "32",
						"value": "t_struct(Pool)3640_storage"
					},
					"t_struct(Pool)3640_storage": {
						"encoding": "inplace",
						"label": "struct SimpleSwap.Pool",
						"members": [
							{
								"astId": 3631,
								"contract": "SimpleSwap.sol:SimpleSwap",
								"label": "reserveA",
								"offset": 0,
								"slot": "0",
								"type": "t_uint256"
							},
							{
								"astId": 3633,
								"contract": "SimpleSwap.sol:SimpleSwap",
								"label": "reserveB",
								"offset": 0,
								"slot": "1",
								"type": "t_uint256"
							},
							{
								"astId": 3635,
								"contract": "SimpleSwap.sol:SimpleSwap",
								"label": "totalLiquidity",
								"offset": 0,
								"slot": "2",
								"type": "t_uint256"
							},
							{
								"astId": 3639,
								"contract": "SimpleSwap.sol:SimpleSwap",
								"label": "liquidityProvided",
								"offset": 0,
								"slot": "3",
								"type": "t_mapping(t_address,t_uint256)"
							}
						],
						"numberOfBytes": "128"
					},
					"t_uint256": {
						"encoding": "inplace",
						"label": "uint256",
						"numberOfBytes": "32"
					}
				}
			},
			"userdoc": {
				"kind": "user",
				"methods": {},
				"version": 1
			}
		}
	}
}