{
	"PATRONES DE DISEÑO/PatronComparacionStrings.sol": {
		"StringComparison": {
			"abi": [
				{
					"inputs": [
						{
							"internalType": "string",
							"name": "string1",
							"type": "string"
						},
						{
							"internalType": "string",
							"name": "string2",
							"type": "string"
						}
					],
					"name": "compareStrings",
					"outputs": [
						{
							"internalType": "bool",
							"name": "",
							"type": "bool"
						}
					],
					"stateMutability": "pure",
					"type": "function"
				}
			],
			"devdoc": {
				"kind": "dev",
				"methods": {},
				"version": 1
			},
			"evm": {
				"assembly": "    /* \"PATRONES DE DISE\\xc3\\x91O/PatronComparacionStrings.sol\":964:1793  contract StringComparison {... */\n  mstore(0x40, 0x80)\n  callvalue\n  dup1\n  iszero\n  tag_1\n  jumpi\n  revert(0x00, 0x00)\ntag_1:\n  pop\n  dataSize(sub_0)\n  dup1\n  dataOffset(sub_0)\n  0x00\n  codecopy\n  0x00\n  return\nstop\n\nsub_0: assembly {\n        /* \"PATRONES DE DISE\\xc3\\x91O/PatronComparacionStrings.sol\":964:1793  contract StringComparison {... */\n      mstore(0x40, 0x80)\n      callvalue\n      dup1\n      iszero\n      tag_1\n      jumpi\n      revert(0x00, 0x00)\n    tag_1:\n      pop\n      jumpi(tag_2, lt(calldatasize, 0x04))\n      shr(0xe0, calldataload(0x00))\n      dup1\n      0xbed34bba\n      eq\n      tag_3\n      jumpi\n    tag_2:\n      revert(0x00, 0x00)\n        /* \"PATRONES DE DISE\\xc3\\x91O/PatronComparacionStrings.sol\":1591:1790  function compareStrings(string memory string1, string memory string2) public pure returns (bool) {... */\n    tag_3:\n      tag_4\n      0x04\n      dup1\n      calldatasize\n      sub\n      dup2\n      add\n      swap1\n      tag_5\n      swap2\n      swap1\n      tag_6\n      jump\t// in\n    tag_5:\n      tag_7\n      jump\t// in\n    tag_4:\n      mload(0x40)\n      tag_8\n      swap2\n      swap1\n      tag_9\n      jump\t// in\n    tag_8:\n      mload(0x40)\n      dup1\n      swap2\n      sub\n      swap1\n      return\n    tag_7:\n        /* \"PATRONES DE DISE\\xc3\\x91O/PatronComparacionStrings.sol\":1682:1686  bool */\n      0x00\n        /* \"PATRONES DE DISE\\xc3\\x91O/PatronComparacionStrings.sol\":1773:1780  string2 */\n      dup2\n        /* \"PATRONES DE DISE\\xc3\\x91O/PatronComparacionStrings.sol\":1756:1781  abi.encodePacked(string2) */\n      add(0x20, mload(0x40))\n      tag_11\n      swap2\n      swap1\n      tag_12\n      jump\t// in\n    tag_11:\n      mload(0x40)\n      0x20\n      dup2\n      dup4\n      sub\n      sub\n      dup2\n      mstore\n      swap1\n      0x40\n      mstore\n        /* \"PATRONES DE DISE\\xc3\\x91O/PatronComparacionStrings.sol\":1746:1782  keccak256(abi.encodePacked(string2)) */\n      dup1\n      mload\n      swap1\n      0x20\n      add\n      keccak256\n        /* \"PATRONES DE DISE\\xc3\\x91O/PatronComparacionStrings.sol\":1733:1740  string1 */\n      dup4\n        /* \"PATRONES DE DISE\\xc3\\x91O/PatronComparacionStrings.sol\":1716:1741  abi.encodePacked(string1) */\n      add(0x20, mload(0x40))\n      tag_13\n      swap2\n      swap1\n      tag_12\n      jump\t// in\n    tag_13:\n      mload(0x40)\n      0x20\n      dup2\n      dup4\n      sub\n      sub\n      dup2\n      mstore\n      swap1\n      0x40\n      mstore\n        /* \"PATRONES DE DISE\\xc3\\x91O/PatronComparacionStrings.sol\":1706:1742  keccak256(abi.encodePacked(string1)) */\n      dup1\n      mload\n      swap1\n      0x20\n      add\n      keccak256\n        /* \"PATRONES DE DISE\\xc3\\x91O/PatronComparacionStrings.sol\":1706:1782  keccak256(abi.encodePacked(string1)) == keccak256(abi.encodePacked(string2)) */\n      eq\n        /* \"PATRONES DE DISE\\xc3\\x91O/PatronComparacionStrings.sol\":1699:1782  return keccak256(abi.encodePacked(string1)) == keccak256(abi.encodePacked(string2)) */\n      swap1\n      pop\n        /* \"PATRONES DE DISE\\xc3\\x91O/PatronComparacionStrings.sol\":1591:1790  function compareStrings(string memory string1, string memory string2) public pure returns (bool) {... */\n      swap3\n      swap2\n      pop\n      pop\n      jump\t// out\n        /* \"#utility.yul\":7:82   */\n    tag_14:\n        /* \"#utility.yul\":40:46   */\n      0x00\n        /* \"#utility.yul\":73:75   */\n      0x40\n        /* \"#utility.yul\":67:76   */\n      mload\n        /* \"#utility.yul\":57:76   */\n      swap1\n      pop\n        /* \"#utility.yul\":7:82   */\n      swap1\n      jump\t// out\n        /* \"#utility.yul\":88:205   */\n    tag_15:\n        /* \"#utility.yul\":197:198   */\n      0x00\n        /* \"#utility.yul\":194:195   */\n      0x00\n        /* \"#utility.yul\":187:199   */\n      revert\n        /* \"#utility.yul\":211:328   */\n    tag_16:\n        /* \"#utility.yul\":320:321   */\n      0x00\n        /* \"#utility.yul\":317:318   */\n      0x00\n        /* \"#utility.yul\":310:322   */\n      revert\n        /* \"#utility.yul\":334:451   */\n    tag_17:\n        /* \"#utility.yul\":443:444   */\n      0x00\n        /* \"#utility.yul\":440:441   */\n      0x00\n        /* \"#utility.yul\":433:445   */\n      revert\n        /* \"#utility.yul\":457:574   */\n    tag_18:\n        /* \"#utility.yul\":566:567   */\n      0x00\n        /* \"#utility.yul\":563:564   */\n      0x00\n        /* \"#utility.yul\":556:568   */\n      revert\n        /* \"#utility.yul\":580:682   */\n    tag_19:\n        /* \"#utility.yul\":621:627   */\n      0x00\n        /* \"#utility.yul\":672:674   */\n      0x1f\n        /* \"#utility.yul\":668:675   */\n      not\n        /* \"#utility.yul\":663:665   */\n      0x1f\n        /* \"#utility.yul\":656:661   */\n      dup4\n        /* \"#utility.yul\":652:666   */\n      add\n        /* \"#utility.yul\":648:676   */\n      and\n        /* \"#utility.yul\":638:676   */\n      swap1\n      pop\n        /* \"#utility.yul\":580:682   */\n      swap2\n      swap1\n      pop\n      jump\t// out\n        /* \"#utility.yul\":688:868   */\n    tag_20:\n        /* \"#utility.yul\":736:813   */\n      0x4e487b7100000000000000000000000000000000000000000000000000000000\n        /* \"#utility.yul\":733:734   */\n      0x00\n        /* \"#utility.yul\":726:814   */\n      mstore\n        /* \"#utility.yul\":833:837   */\n      0x41\n        /* \"#utility.yul\":830:831   */\n      0x04\n        /* \"#utility.yul\":823:838   */\n      mstore\n        /* \"#utility.yul\":857:861   */\n      0x24\n        /* \"#utility.yul\":854:855   */\n      0x00\n        /* \"#utility.yul\":847:862   */\n      revert\n        /* \"#utility.yul\":874:1155   */\n    tag_21:\n        /* \"#utility.yul\":957:984   */\n      tag_42\n        /* \"#utility.yul\":979:983   */\n      dup3\n        /* \"#utility.yul\":957:984   */\n      tag_19\n      jump\t// in\n    tag_42:\n        /* \"#utility.yul\":949:955   */\n      dup2\n        /* \"#utility.yul\":945:985   */\n      add\n        /* \"#utility.yul\":1087:1093   */\n      dup2\n        /* \"#utility.yul\":1075:1085   */\n      dup2\n        /* \"#utility.yul\":1072:1094   */\n      lt\n        /* \"#utility.yul\":1051:1069   */\n      0xffffffffffffffff\n        /* \"#utility.yul\":1039:1049   */\n      dup3\n        /* \"#utility.yul\":1036:1070   */\n      gt\n        /* \"#utility.yul\":1033:1095   */\n      or\n        /* \"#utility.yul\":1030:1118   */\n      iszero\n      tag_43\n      jumpi\n        /* \"#utility.yul\":1098:1116   */\n      tag_44\n      tag_20\n      jump\t// in\n    tag_44:\n        /* \"#utility.yul\":1030:1118   */\n    tag_43:\n        /* \"#utility.yul\":1138:1148   */\n      dup1\n        /* \"#utility.yul\":1134:1136   */\n      0x40\n        /* \"#utility.yul\":1127:1149   */\n      mstore\n        /* \"#utility.yul\":917:1155   */\n      pop\n        /* \"#utility.yul\":874:1155   */\n      pop\n      pop\n      jump\t// out\n        /* \"#utility.yul\":1161:1290   */\n    tag_22:\n        /* \"#utility.yul\":1195:1201   */\n      0x00\n        /* \"#utility.yul\":1222:1242   */\n      tag_46\n      tag_14\n      jump\t// in\n    tag_46:\n        /* \"#utility.yul\":1212:1242   */\n      swap1\n      pop\n        /* \"#utility.yul\":1251:1284   */\n      tag_47\n        /* \"#utility.yul\":1279:1283   */\n      dup3\n        /* \"#utility.yul\":1271:1277   */\n      dup3\n        /* \"#utility.yul\":1251:1284   */\n      tag_21\n      jump\t// in\n    tag_47:\n        /* \"#utility.yul\":1161:1290   */\n      swap2\n      swap1\n      pop\n      jump\t// out\n        /* \"#utility.yul\":1296:1604   */\n    tag_23:\n        /* \"#utility.yul\":1358:1362   */\n      0x00\n        /* \"#utility.yul\":1448:1466   */\n      0xffffffffffffffff\n        /* \"#utility.yul\":1440:1446   */\n      dup3\n        /* \"#utility.yul\":1437:1467   */\n      gt\n        /* \"#utility.yul\":1434:1490   */\n      iszero\n      tag_49\n      jumpi\n        /* \"#utility.yul\":1470:1488   */\n      tag_50\n      tag_20\n      jump\t// in\n    tag_50:\n        /* \"#utility.yul\":1434:1490   */\n    tag_49:\n        /* \"#utility.yul\":1508:1537   */\n      tag_51\n        /* \"#utility.yul\":1530:1536   */\n      dup3\n        /* \"#utility.yul\":1508:1537   */\n      tag_19\n      jump\t// in\n    tag_51:\n        /* \"#utility.yul\":1500:1537   */\n      swap1\n      pop\n        /* \"#utility.yul\":1592:1596   */\n      0x20\n        /* \"#utility.yul\":1586:1590   */\n      dup2\n        /* \"#utility.yul\":1582:1597   */\n      add\n        /* \"#utility.yul\":1574:1597   */\n      swap1\n      pop\n        /* \"#utility.yul\":1296:1604   */\n      swap2\n      swap1\n      pop\n      jump\t// out\n        /* \"#utility.yul\":1610:1758   */\n    tag_24:\n        /* \"#utility.yul\":1708:1714   */\n      dup3\n        /* \"#utility.yul\":1703:1706   */\n      dup2\n        /* \"#utility.yul\":1698:1701   */\n      dup4\n        /* \"#utility.yul\":1685:1715   */\n      calldatacopy\n        /* \"#utility.yul\":1749:1750   */\n      0x00\n        /* \"#utility.yul\":1740:1746   */\n      dup4\n        /* \"#utility.yul\":1735:1738   */\n      dup4\n        /* \"#utility.yul\":1731:1747   */\n      add\n        /* \"#utility.yul\":1724:1751   */\n      mstore\n        /* \"#utility.yul\":1610:1758   */\n      pop\n      pop\n      pop\n      jump\t// out\n        /* \"#utility.yul\":1764:2189   */\n    tag_25:\n        /* \"#utility.yul\":1842:1847   */\n      0x00\n        /* \"#utility.yul\":1867:1933   */\n      tag_54\n        /* \"#utility.yul\":1883:1932   */\n      tag_55\n        /* \"#utility.yul\":1925:1931   */\n      dup5\n        /* \"#utility.yul\":1883:1932   */\n      tag_23\n      jump\t// in\n    tag_55:\n        /* \"#utility.yul\":1867:1933   */\n      tag_22\n      jump\t// in\n    tag_54:\n        /* \"#utility.yul\":1858:1933   */\n      swap1\n      pop\n        /* \"#utility.yul\":1956:1962   */\n      dup3\n        /* \"#utility.yul\":1949:1954   */\n      dup2\n        /* \"#utility.yul\":1942:1963   */\n      mstore\n        /* \"#utility.yul\":1994:1998   */\n      0x20\n        /* \"#utility.yul\":1987:1992   */\n      dup2\n        /* \"#utility.yul\":1983:1999   */\n      add\n        /* \"#utility.yul\":2032:2035   */\n      dup5\n        /* \"#utility.yul\":2023:2029   */\n      dup5\n        /* \"#utility.yul\":2018:2021   */\n      dup5\n        /* \"#utility.yul\":2014:2030   */\n      add\n        /* \"#utility.yul\":2011:2036   */\n      gt\n        /* \"#utility.yul\":2008:2120   */\n      iszero\n      tag_56\n      jumpi\n        /* \"#utility.yul\":2039:2118   */\n      tag_57\n      tag_18\n      jump\t// in\n    tag_57:\n        /* \"#utility.yul\":2008:2120   */\n    tag_56:\n        /* \"#utility.yul\":2129:2183   */\n      tag_58\n        /* \"#utility.yul\":2176:2182   */\n      dup5\n        /* \"#utility.yul\":2171:2174   */\n      dup3\n        /* \"#utility.yul\":2166:2169   */\n      dup6\n        /* \"#utility.yul\":2129:2183   */\n      tag_24\n      jump\t// in\n    tag_58:\n        /* \"#utility.yul\":1848:2189   */\n      pop\n        /* \"#utility.yul\":1764:2189   */\n      swap4\n      swap3\n      pop\n      pop\n      pop\n      jump\t// out\n        /* \"#utility.yul\":2209:2549   */\n    tag_26:\n        /* \"#utility.yul\":2265:2270   */\n      0x00\n        /* \"#utility.yul\":2314:2317   */\n      dup3\n        /* \"#utility.yul\":2307:2311   */\n      0x1f\n        /* \"#utility.yul\":2299:2305   */\n      dup4\n        /* \"#utility.yul\":2295:2312   */\n      add\n        /* \"#utility.yul\":2291:2318   */\n      slt\n        /* \"#utility.yul\":2281:2403   */\n      tag_60\n      jumpi\n        /* \"#utility.yul\":2322:2401   */\n      tag_61\n      tag_17\n      jump\t// in\n    tag_61:\n        /* \"#utility.yul\":2281:2403   */\n    tag_60:\n        /* \"#utility.yul\":2439:2445   */\n      dup2\n        /* \"#utility.yul\":2426:2446   */\n      calldataload\n        /* \"#utility.yul\":2464:2543   */\n      tag_62\n        /* \"#utility.yul\":2539:2542   */\n      dup5\n        /* \"#utility.yul\":2531:2537   */\n      dup3\n        /* \"#utility.yul\":2524:2528   */\n      0x20\n        /* \"#utility.yul\":2516:2522   */\n      dup7\n        /* \"#utility.yul\":2512:2529   */\n      add\n        /* \"#utility.yul\":2464:2543   */\n      tag_25\n      jump\t// in\n    tag_62:\n        /* \"#utility.yul\":2455:2543   */\n      swap2\n      pop\n        /* \"#utility.yul\":2271:2549   */\n      pop\n        /* \"#utility.yul\":2209:2549   */\n      swap3\n      swap2\n      pop\n      pop\n      jump\t// out\n        /* \"#utility.yul\":2555:3389   */\n    tag_6:\n        /* \"#utility.yul\":2643:2649   */\n      0x00\n        /* \"#utility.yul\":2651:2657   */\n      0x00\n        /* \"#utility.yul\":2700:2702   */\n      0x40\n        /* \"#utility.yul\":2688:2697   */\n      dup4\n        /* \"#utility.yul\":2679:2686   */\n      dup6\n        /* \"#utility.yul\":2675:2698   */\n      sub\n        /* \"#utility.yul\":2671:2703   */\n      slt\n        /* \"#utility.yul\":2668:2787   */\n      iszero\n      tag_64\n      jumpi\n        /* \"#utility.yul\":2706:2785   */\n      tag_65\n      tag_15\n      jump\t// in\n    tag_65:\n        /* \"#utility.yul\":2668:2787   */\n    tag_64:\n        /* \"#utility.yul\":2854:2855   */\n      0x00\n        /* \"#utility.yul\":2843:2852   */\n      dup4\n        /* \"#utility.yul\":2839:2856   */\n      add\n        /* \"#utility.yul\":2826:2857   */\n      calldataload\n        /* \"#utility.yul\":2884:2902   */\n      0xffffffffffffffff\n        /* \"#utility.yul\":2876:2882   */\n      dup2\n        /* \"#utility.yul\":2873:2903   */\n      gt\n        /* \"#utility.yul\":2870:2987   */\n      iszero\n      tag_66\n      jumpi\n        /* \"#utility.yul\":2906:2985   */\n      tag_67\n      tag_16\n      jump\t// in\n    tag_67:\n        /* \"#utility.yul\":2870:2987   */\n    tag_66:\n        /* \"#utility.yul\":3011:3074   */\n      tag_68\n        /* \"#utility.yul\":3066:3073   */\n      dup6\n        /* \"#utility.yul\":3057:3063   */\n      dup3\n        /* \"#utility.yul\":3046:3055   */\n      dup7\n        /* \"#utility.yul\":3042:3064   */\n      add\n        /* \"#utility.yul\":3011:3074   */\n      tag_26\n      jump\t// in\n    tag_68:\n        /* \"#utility.yul\":3001:3074   */\n      swap3\n      pop\n        /* \"#utility.yul\":2797:3084   */\n      pop\n        /* \"#utility.yul\":3151:3153   */\n      0x20\n        /* \"#utility.yul\":3140:3149   */\n      dup4\n        /* \"#utility.yul\":3136:3154   */\n      add\n        /* \"#utility.yul\":3123:3155   */\n      calldataload\n        /* \"#utility.yul\":3182:3200   */\n      0xffffffffffffffff\n        /* \"#utility.yul\":3174:3180   */\n      dup2\n        /* \"#utility.yul\":3171:3201   */\n      gt\n        /* \"#utility.yul\":3168:3285   */\n      iszero\n      tag_69\n      jumpi\n        /* \"#utility.yul\":3204:3283   */\n      tag_70\n      tag_16\n      jump\t// in\n    tag_70:\n        /* \"#utility.yul\":3168:3285   */\n    tag_69:\n        /* \"#utility.yul\":3309:3372   */\n      tag_71\n        /* \"#utility.yul\":3364:3371   */\n      dup6\n        /* \"#utility.yul\":3355:3361   */\n      dup3\n        /* \"#utility.yul\":3344:3353   */\n      dup7\n        /* \"#utility.yul\":3340:3362   */\n      add\n        /* \"#utility.yul\":3309:3372   */\n      tag_26\n      jump\t// in\n    tag_71:\n        /* \"#utility.yul\":3299:3372   */\n      swap2\n      pop\n        /* \"#utility.yul\":3094:3382   */\n      pop\n        /* \"#utility.yul\":2555:3389   */\n      swap3\n      pop\n      swap3\n      swap1\n      pop\n      jump\t// out\n        /* \"#utility.yul\":3395:3485   */\n    tag_27:\n        /* \"#utility.yul\":3429:3436   */\n      0x00\n        /* \"#utility.yul\":3472:3477   */\n      dup2\n        /* \"#utility.yul\":3465:3478   */\n      iszero\n        /* \"#utility.yul\":3458:3479   */\n      iszero\n        /* \"#utility.yul\":3447:3479   */\n      swap1\n      pop\n        /* \"#utility.yul\":3395:3485   */\n      swap2\n      swap1\n      pop\n      jump\t// out\n        /* \"#utility.yul\":3491:3600   */\n    tag_28:\n        /* \"#utility.yul\":3572:3593   */\n      tag_74\n        /* \"#utility.yul\":3587:3592   */\n      dup2\n        /* \"#utility.yul\":3572:3593   */\n      tag_27\n      jump\t// in\n    tag_74:\n        /* \"#utility.yul\":3567:3570   */\n      dup3\n        /* \"#utility.yul\":3560:3594   */\n      mstore\n        /* \"#utility.yul\":3491:3600   */\n      pop\n      pop\n      jump\t// out\n        /* \"#utility.yul\":3606:3816   */\n    tag_9:\n        /* \"#utility.yul\":3693:3697   */\n      0x00\n        /* \"#utility.yul\":3731:3733   */\n      0x20\n        /* \"#utility.yul\":3720:3729   */\n      dup3\n        /* \"#utility.yul\":3716:3734   */\n      add\n        /* \"#utility.yul\":3708:3734   */\n      swap1\n      pop\n        /* \"#utility.yul\":3744:3809   */\n      tag_76\n        /* \"#utility.yul\":3806:3807   */\n      0x00\n        /* \"#utility.yul\":3795:3804   */\n      dup4\n        /* \"#utility.yul\":3791:3808   */\n      add\n        /* \"#utility.yul\":3782:3788   */\n      dup5\n        /* \"#utility.yul\":3744:3809   */\n      tag_28\n      jump\t// in\n    tag_76:\n        /* \"#utility.yul\":3606:3816   */\n      swap3\n      swap2\n      pop\n      pop\n      jump\t// out\n        /* \"#utility.yul\":3822:3921   */\n    tag_29:\n        /* \"#utility.yul\":3874:3880   */\n      0x00\n        /* \"#utility.yul\":3908:3913   */\n      dup2\n        /* \"#utility.yul\":3902:3914   */\n      mload\n        /* \"#utility.yul\":3892:3914   */\n      swap1\n      pop\n        /* \"#utility.yul\":3822:3921   */\n      swap2\n      swap1\n      pop\n      jump\t// out\n        /* \"#utility.yul\":3927:4075   */\n    tag_30:\n        /* \"#utility.yul\":4029:4040   */\n      0x00\n        /* \"#utility.yul\":4066:4069   */\n      dup2\n        /* \"#utility.yul\":4051:4069   */\n      swap1\n      pop\n        /* \"#utility.yul\":3927:4075   */\n      swap3\n      swap2\n      pop\n      pop\n      jump\t// out\n        /* \"#utility.yul\":4081:4220   */\n    tag_31:\n        /* \"#utility.yul\":4170:4176   */\n      dup3\n        /* \"#utility.yul\":4165:4168   */\n      dup2\n        /* \"#utility.yul\":4160:4163   */\n      dup4\n        /* \"#utility.yul\":4154:4177   */\n      mcopy\n        /* \"#utility.yul\":4211:4212   */\n      0x00\n        /* \"#utility.yul\":4202:4208   */\n      dup4\n        /* \"#utility.yul\":4197:4200   */\n      dup4\n        /* \"#utility.yul\":4193:4209   */\n      add\n        /* \"#utility.yul\":4186:4213   */\n      mstore\n        /* \"#utility.yul\":4081:4220   */\n      pop\n      pop\n      pop\n      jump\t// out\n        /* \"#utility.yul\":4226:4616   */\n    tag_32:\n        /* \"#utility.yul\":4332:4335   */\n      0x00\n        /* \"#utility.yul\":4360:4399   */\n      tag_81\n        /* \"#utility.yul\":4393:4398   */\n      dup3\n        /* \"#utility.yul\":4360:4399   */\n      tag_29\n      jump\t// in\n    tag_81:\n        /* \"#utility.yul\":4415:4504   */\n      tag_82\n        /* \"#utility.yul\":4497:4503   */\n      dup2\n        /* \"#utility.yul\":4492:4495   */\n      dup6\n        /* \"#utility.yul\":4415:4504   */\n      tag_30\n      jump\t// in\n    tag_82:\n        /* \"#utility.yul\":4408:4504   */\n      swap4\n      pop\n        /* \"#utility.yul\":4513:4578   */\n      tag_83\n        /* \"#utility.yul\":4571:4577   */\n      dup2\n        /* \"#utility.yul\":4566:4569   */\n      dup6\n        /* \"#utility.yul\":4559:4563   */\n      0x20\n        /* \"#utility.yul\":4552:4557   */\n      dup7\n        /* \"#utility.yul\":4548:4564   */\n      add\n        /* \"#utility.yul\":4513:4578   */\n      tag_31\n      jump\t// in\n    tag_83:\n        /* \"#utility.yul\":4603:4609   */\n      dup1\n        /* \"#utility.yul\":4598:4601   */\n      dup5\n        /* \"#utility.yul\":4594:4610   */\n      add\n        /* \"#utility.yul\":4587:4610   */\n      swap2\n      pop\n        /* \"#utility.yul\":4336:4616   */\n      pop\n        /* \"#utility.yul\":4226:4616   */\n      swap3\n      swap2\n      pop\n      pop\n      jump\t// out\n        /* \"#utility.yul\":4622:4897   */\n    tag_12:\n        /* \"#utility.yul\":4754:4757   */\n      0x00\n        /* \"#utility.yul\":4776:4871   */\n      tag_85\n        /* \"#utility.yul\":4867:4870   */\n      dup3\n        /* \"#utility.yul\":4858:4864   */\n      dup5\n        /* \"#utility.yul\":4776:4871   */\n      tag_32\n      jump\t// in\n    tag_85:\n        /* \"#utility.yul\":4769:4871   */\n      swap2\n      pop\n        /* \"#utility.yul\":4888:4891   */\n      dup2\n        /* \"#utility.yul\":4881:4891   */\n      swap1\n      pop\n        /* \"#utility.yul\":4622:4897   */\n      swap3\n      swap2\n      pop\n      pop\n      jump\t// out\n\n    auxdata: 0xa2646970667358221220fd1f10ee5ba0b0356c986a7333b6349fd95222532916cd3cb2970dd489f1923064736f6c634300081e0033\n}\n",
				"bytecode": {
					"linkReferences": {},
					"object": "6080604052348015600e575f5ffd5b506103498061001c5f395ff3fe608060405234801561000f575f5ffd5b5060043610610029575f3560e01c8063bed34bba1461002d575b5f5ffd5b61004760048036038101906100429190610202565b61005d565b6040516100549190610292565b60405180910390f35b5f8160405160200161006f91906102fd565b604051602081830303815290604052805190602001208360405160200161009691906102fd565b6040516020818303038152906040528051906020012014905092915050565b5f604051905090565b5f5ffd5b5f5ffd5b5f5ffd5b5f5ffd5b5f601f19601f8301169050919050565b7f4e487b71000000000000000000000000000000000000000000000000000000005f52604160045260245ffd5b610114826100ce565b810181811067ffffffffffffffff82111715610133576101326100de565b5b80604052505050565b5f6101456100b5565b9050610151828261010b565b919050565b5f67ffffffffffffffff8211156101705761016f6100de565b5b610179826100ce565b9050602081019050919050565b828183375f83830152505050565b5f6101a66101a184610156565b61013c565b9050828152602081018484840111156101c2576101c16100ca565b5b6101cd848285610186565b509392505050565b5f82601f8301126101e9576101e86100c6565b5b81356101f9848260208601610194565b91505092915050565b5f5f60408385031215610218576102176100be565b5b5f83013567ffffffffffffffff811115610235576102346100c2565b5b610241858286016101d5565b925050602083013567ffffffffffffffff811115610262576102616100c2565b5b61026e858286016101d5565b9150509250929050565b5f8115159050919050565b61028c81610278565b82525050565b5f6020820190506102a55f830184610283565b92915050565b5f81519050919050565b5f81905092915050565b8281835e5f83830152505050565b5f6102d7826102ab565b6102e181856102b5565b93506102f18185602086016102bf565b80840191505092915050565b5f61030882846102cd565b91508190509291505056fea2646970667358221220fd1f10ee5ba0b0356c986a7333b6349fd95222532916cd3cb2970dd489f1923064736f6c634300081e0033",
					"opcodes": "PUSH1 0x80 PUSH1 0x40 MSTORE CALLVALUE DUP1 ISZERO PUSH1 0xE JUMPI PUSH0 PUSH0 REVERT JUMPDEST POP PUSH2 0x349 DUP1 PUSH2 0x1C PUSH0 CODECOPY PUSH0 RETURN INVALID PUSH1 0x80 PUSH1 0x40 MSTORE CALLVALUE DUP1 ISZERO PUSH2 0xF JUMPI PUSH0 PUSH0 REVERT JUMPDEST POP PUSH1 0x4 CALLDATASIZE LT PUSH2 0x29 JUMPI PUSH0 CALLDATALOAD PUSH1 0xE0 SHR DUP1 PUSH4 0xBED34BBA EQ PUSH2 0x2D JUMPI JUMPDEST PUSH0 PUSH0 REVERT JUMPDEST PUSH2 0x47 PUSH1 0x4 DUP1 CALLDATASIZE SUB DUP2 ADD SWAP1 PUSH2 0x42 SWAP2 SWAP1 PUSH2 0x202 JUMP JUMPDEST PUSH2 0x5D JUMP JUMPDEST PUSH1 0x40 MLOAD PUSH2 0x54 SWAP2 SWAP1 PUSH2 0x292 JUMP JUMPDEST PUSH1 0x40 MLOAD DUP1 SWAP2 SUB SWAP1 RETURN JUMPDEST PUSH0 DUP2 PUSH1 0x40 MLOAD PUSH1 0x20 ADD PUSH2 0x6F SWAP2 SWAP1 PUSH2 0x2FD JUMP JUMPDEST PUSH1 0x40 MLOAD PUSH1 0x20 DUP2 DUP4 SUB SUB DUP2 MSTORE SWAP1 PUSH1 0x40 MSTORE DUP1 MLOAD SWAP1 PUSH1 0x20 ADD KECCAK256 DUP4 PUSH1 0x40 MLOAD PUSH1 0x20 ADD PUSH2 0x96 SWAP2 SWAP1 PUSH2 0x2FD JUMP JUMPDEST PUSH1 0x40 MLOAD PUSH1 0x20 DUP2 DUP4 SUB SUB DUP2 MSTORE SWAP1 PUSH1 0x40 MSTORE DUP1 MLOAD SWAP1 PUSH1 0x20 ADD KECCAK256 EQ SWAP1 POP SWAP3 SWAP2 POP POP JUMP JUMPDEST PUSH0 PUSH1 0x40 MLOAD SWAP1 POP SWAP1 JUMP JUMPDEST PUSH0 PUSH0 REVERT JUMPDEST PUSH0 PUSH0 REVERT JUMPDEST PUSH0 PUSH0 REVERT JUMPDEST PUSH0 PUSH0 REVERT JUMPDEST PUSH0 PUSH1 0x1F NOT PUSH1 0x1F DUP4 ADD AND SWAP1 POP SWAP2 SWAP1 POP JUMP JUMPDEST PUSH32 0x4E487B7100000000000000000000000000000000000000000000000000000000 PUSH0 MSTORE PUSH1 0x41 PUSH1 0x4 MSTORE PUSH1 0x24 PUSH0 REVERT JUMPDEST PUSH2 0x114 DUP3 PUSH2 0xCE JUMP JUMPDEST DUP2 ADD DUP2 DUP2 LT PUSH8 0xFFFFFFFFFFFFFFFF DUP3 GT OR ISZERO PUSH2 0x133 JUMPI PUSH2 0x132 PUSH2 0xDE JUMP JUMPDEST JUMPDEST DUP1 PUSH1 0x40 MSTORE POP POP POP JUMP JUMPDEST PUSH0 PUSH2 0x145 PUSH2 0xB5 JUMP JUMPDEST SWAP1 POP PUSH2 0x151 DUP3 DUP3 PUSH2 0x10B JUMP JUMPDEST SWAP2 SWAP1 POP JUMP JUMPDEST PUSH0 PUSH8 0xFFFFFFFFFFFFFFFF DUP3 GT ISZERO PUSH2 0x170 JUMPI PUSH2 0x16F PUSH2 0xDE JUMP JUMPDEST JUMPDEST PUSH2 0x179 DUP3 PUSH2 0xCE JUMP JUMPDEST SWAP1 POP PUSH1 0x20 DUP2 ADD SWAP1 POP SWAP2 SWAP1 POP JUMP JUMPDEST DUP3 DUP2 DUP4 CALLDATACOPY PUSH0 DUP4 DUP4 ADD MSTORE POP POP POP JUMP JUMPDEST PUSH0 PUSH2 0x1A6 PUSH2 0x1A1 DUP5 PUSH2 0x156 JUMP JUMPDEST PUSH2 0x13C JUMP JUMPDEST SWAP1 POP DUP3 DUP2 MSTORE PUSH1 0x20 DUP2 ADD DUP5 DUP5 DUP5 ADD GT ISZERO PUSH2 0x1C2 JUMPI PUSH2 0x1C1 PUSH2 0xCA JUMP JUMPDEST JUMPDEST PUSH2 0x1CD DUP5 DUP3 DUP6 PUSH2 0x186 JUMP JUMPDEST POP SWAP4 SWAP3 POP POP POP JUMP JUMPDEST PUSH0 DUP3 PUSH1 0x1F DUP4 ADD SLT PUSH2 0x1E9 JUMPI PUSH2 0x1E8 PUSH2 0xC6 JUMP JUMPDEST JUMPDEST DUP2 CALLDATALOAD PUSH2 0x1F9 DUP5 DUP3 PUSH1 0x20 DUP7 ADD PUSH2 0x194 JUMP JUMPDEST SWAP2 POP POP SWAP3 SWAP2 POP POP JUMP JUMPDEST PUSH0 PUSH0 PUSH1 0x40 DUP4 DUP6 SUB SLT ISZERO PUSH2 0x218 JUMPI PUSH2 0x217 PUSH2 0xBE JUMP JUMPDEST JUMPDEST PUSH0 DUP4 ADD CALLDATALOAD PUSH8 0xFFFFFFFFFFFFFFFF DUP2 GT ISZERO PUSH2 0x235 JUMPI PUSH2 0x234 PUSH2 0xC2 JUMP JUMPDEST JUMPDEST PUSH2 0x241 DUP6 DUP3 DUP7 ADD PUSH2 0x1D5 JUMP JUMPDEST SWAP3 POP POP PUSH1 0x20 DUP4 ADD CALLDATALOAD PUSH8 0xFFFFFFFFFFFFFFFF DUP2 GT ISZERO PUSH2 0x262 JUMPI PUSH2 0x261 PUSH2 0xC2 JUMP JUMPDEST JUMPDEST PUSH2 0x26E DUP6 DUP3 DUP7 ADD PUSH2 0x1D5 JUMP JUMPDEST SWAP2 POP POP SWAP3 POP SWAP3 SWAP1 POP JUMP JUMPDEST PUSH0 DUP2 ISZERO ISZERO SWAP1 POP SWAP2 SWAP1 POP JUMP JUMPDEST PUSH2 0x28C DUP2 PUSH2 0x278 JUMP JUMPDEST DUP3 MSTORE POP POP JUMP JUMPDEST PUSH0 PUSH1 0x20 DUP3 ADD SWAP1 POP PUSH2 0x2A5 PUSH0 DUP4 ADD DUP5 PUSH2 0x283 JUMP JUMPDEST SWAP3 SWAP2 POP POP JUMP JUMPDEST PUSH0 DUP2 MLOAD SWAP1 POP SWAP2 SWAP1 POP JUMP JUMPDEST PUSH0 DUP2 SWAP1 POP SWAP3 SWAP2 POP POP JUMP JUMPDEST DUP3 DUP2 DUP4 MCOPY PUSH0 DUP4 DUP4 ADD MSTORE POP POP POP JUMP JUMPDEST PUSH0 PUSH2 0x2D7 DUP3 PUSH2 0x2AB JUMP JUMPDEST PUSH2 0x2E1 DUP2 DUP6 PUSH2 0x2B5 JUMP JUMPDEST SWAP4 POP PUSH2 0x2F1 DUP2 DUP6 PUSH1 0x20 DUP7 ADD PUSH2 0x2BF JUMP JUMPDEST DUP1 DUP5 ADD SWAP2 POP POP SWAP3 SWAP2 POP POP JUMP JUMPDEST PUSH0 PUSH2 0x308 DUP3 DUP5 PUSH2 0x2CD JUMP JUMPDEST SWAP2 POP DUP2 SWAP1 POP SWAP3 SWAP2 POP POP JUMP INVALID LOG2 PUSH5 0x6970667358 0x22 SLT KECCAK256 REVERT 0x1F LT RETURNCONTRACT 0x5B LOG0 0xB0 CALLDATALOAD PUSH13 0x986A7333B6349FD95222532916 0xCD EXTCODECOPY 0xB2 SWAP8 0xD 0xD4 DUP10 CALL SWAP3 ADDRESS PUSH5 0x736F6C6343 STOP ADDMOD 0x1E STOP CALLER "
				},
				"gasEstimates": {
					"creation": {
						"codeDepositCost": "168200",
						"executionCost": "212",
						"totalCost": "168412"
					},
					"external": {
						"compareStrings(string,string)": "infinite"
					}
				},
				"methodIdentifiers": {
					"compareStrings(string,string)": "bed34bba"
				}
			},
			"storageLayout": {
				"storage": [],
				"types": null
			},
			"userdoc": {
				"kind": "user",
				"methods": {},
				"version": 1
			}
		}
	}
}