{
	"PATRONES DE DISEÑO/PatronMapaIterable.sol": {
		"IterableMapping": {
			"abi": [
				{
					"inputs": [
						{
							"internalType": "address",
							"name": "",
							"type": "address"
						}
					],
					"name": "dataMap",
					"outputs": [
						{
							"internalType": "uint256",
							"name": "value",
							"type": "uint256"
						},
						{
							"internalType": "bool",
							"name": "exists",
							"type": "bool"
						}
					],
					"stateMutability": "view",
					"type": "function"
				},
				{
					"inputs": [
						{
							"internalType": "address",
							"name": "key",
							"type": "address"
						}
					],
					"name": "exists",
					"outputs": [
						{
							"internalType": "bool",
							"name": "",
							"type": "bool"
						}
					],
					"stateMutability": "view",
					"type": "function"
				},
				{
					"inputs": [
						{
							"internalType": "address",
							"name": "key",
							"type": "address"
						}
					],
					"name": "get",
					"outputs": [
						{
							"internalType": "uint256",
							"name": "",
							"type": "uint256"
						}
					],
					"stateMutability": "view",
					"type": "function"
				},
				{
					"inputs": [
						{
							"internalType": "uint256",
							"name": "index",
							"type": "uint256"
						}
					],
					"name": "getKeyAtIndex",
					"outputs": [
						{
							"internalType": "address",
							"name": "",
							"type": "address"
						}
					],
					"stateMutability": "view",
					"type": "function"
				},
				{
					"inputs": [
						{
							"internalType": "uint256",
							"name": "",
							"type": "uint256"
						}
					],
					"name": "keys",
					"outputs": [
						{
							"internalType": "address",
							"name": "",
							"type": "address"
						}
					],
					"stateMutability": "view",
					"type": "function"
				},
				{
					"inputs": [
						{
							"internalType": "address",
							"name": "key",
							"type": "address"
						}
					],
					"name": "remove",
					"outputs": [],
					"stateMutability": "nonpayable",
					"type": "function"
				},
				{
					"inputs": [
						{
							"internalType": "address",
							"name": "key",
							"type": "address"
						},
						{
							"internalType": "uint256",
							"name": "value",
							"type": "uint256"
						}
					],
					"name": "set",
					"outputs": [],
					"stateMutability": "nonpayable",
					"type": "function"
				},
				{
					"inputs": [],
					"name": "size",
					"outputs": [
						{
							"internalType": "uint256",
							"name": "",
							"type": "uint256"
						}
					],
					"stateMutability": "view",
					"type": "function"
				}
			],
			"devdoc": {
				"kind": "dev",
				"methods": {},
				"version": 1
			},
			"evm": {
				"assembly": "    /* \"PATRONES DE DISE\\xc3\\x91O/PatronMapaIterable.sol\":60:2285  contract IterableMapping {... */\n  mstore(0x40, 0x80)\n  callvalue\n  dup1\n  iszero\n  tag_1\n  jumpi\n  revert(0x00, 0x00)\ntag_1:\n  pop\n  dataSize(sub_0)\n  dup1\n  dataOffset(sub_0)\n  0x00\n  codecopy\n  0x00\n  return\nstop\n\nsub_0: assembly {\n        /* \"PATRONES DE DISE\\xc3\\x91O/PatronMapaIterable.sol\":60:2285  contract IterableMapping {... */\n      mstore(0x40, 0x80)\n      callvalue\n      dup1\n      iszero\n      tag_1\n      jumpi\n      revert(0x00, 0x00)\n    tag_1:\n      pop\n      jumpi(tag_2, lt(calldatasize, 0x04))\n      shr(0xe0, calldataload(0x00))\n      dup1\n      0x949d225d\n      gt\n      tag_11\n      jumpi\n      dup1\n      0x949d225d\n      eq\n      tag_7\n      jumpi\n      dup1\n      0xbf320270\n      eq\n      tag_8\n      jumpi\n      dup1\n      0xc2bc2efc\n      eq\n      tag_9\n      jumpi\n      dup1\n      0xf6a3d24e\n      eq\n      tag_10\n      jumpi\n      jump(tag_2)\n    tag_11:\n      dup1\n      0x0cb6aaf1\n      eq\n      tag_3\n      jumpi\n      dup1\n      0x29092d0e\n      eq\n      tag_4\n      jumpi\n      dup1\n      0x3825d828\n      eq\n      tag_5\n      jumpi\n      dup1\n      0x663037ac\n      eq\n      tag_6\n      jumpi\n    tag_2:\n      revert(0x00, 0x00)\n        /* \"PATRONES DE DISE\\xc3\\x91O/PatronMapaIterable.sol\":435:456  address[] public keys */\n    tag_3:\n      tag_12\n      0x04\n      dup1\n      calldatasize\n      sub\n      dup2\n      add\n      swap1\n      tag_13\n      swap2\n      swap1\n      tag_14\n      jump\t// in\n    tag_13:\n      tag_15\n      jump\t// in\n    tag_12:\n      mload(0x40)\n      tag_16\n      swap2\n      swap1\n      tag_17\n      jump\t// in\n    tag_16:\n      mload(0x40)\n      dup1\n      swap2\n      sub\n      swap1\n      return\n        /* \"PATRONES DE DISE\\xc3\\x91O/PatronMapaIterable.sol\":1155:1732  function remove(address key) public {... */\n    tag_4:\n      tag_18\n      0x04\n      dup1\n      calldatasize\n      sub\n      dup2\n      add\n      swap1\n      tag_19\n      swap2\n      swap1\n      tag_20\n      jump\t// in\n    tag_19:\n      tag_21\n      jump\t// in\n    tag_18:\n      stop\n        /* \"PATRONES DE DISE\\xc3\\x91O/PatronMapaIterable.sol\":517:899  function set(address key, uint value) public {... */\n    tag_5:\n      tag_22\n      0x04\n      dup1\n      calldatasize\n      sub\n      dup2\n      add\n      swap1\n      tag_23\n      swap2\n      swap1\n      tag_24\n      jump\t// in\n    tag_23:\n      tag_25\n      jump\t// in\n    tag_22:\n      stop\n        /* \"PATRONES DE DISE\\xc3\\x91O/PatronMapaIterable.sol\":2116:2282  function getKeyAtIndex(uint index) public view returns (address) {... */\n    tag_6:\n      tag_26\n      0x04\n      dup1\n      calldatasize\n      sub\n      dup2\n      add\n      swap1\n      tag_27\n      swap2\n      swap1\n      tag_14\n      jump\t// in\n    tag_27:\n      tag_28\n      jump\t// in\n    tag_26:\n      mload(0x40)\n      tag_29\n      swap2\n      swap1\n      tag_17\n      jump\t// in\n    tag_29:\n      mload(0x40)\n      dup1\n      swap2\n      sub\n      swap1\n      return\n        /* \"PATRONES DE DISE\\xc3\\x91O/PatronMapaIterable.sol\":1790:1870  function size() public view returns (uint) {... */\n    tag_7:\n      tag_30\n      tag_31\n      jump\t// in\n    tag_30:\n      mload(0x40)\n      tag_32\n      swap2\n      swap1\n      tag_33\n      jump\t// in\n    tag_32:\n      mload(0x40)\n      dup1\n      swap2\n      sub\n      swap1\n      return\n        /* \"PATRONES DE DISE\\xc3\\x91O/PatronMapaIterable.sol\":333:375  mapping(address => MapData) public dataMap */\n    tag_8:\n      tag_34\n      0x04\n      dup1\n      calldatasize\n      sub\n      dup2\n      add\n      swap1\n      tag_35\n      swap2\n      swap1\n      tag_20\n      jump\t// in\n    tag_35:\n      tag_36\n      jump\t// in\n    tag_34:\n      mload(0x40)\n      tag_37\n      swap3\n      swap2\n      swap1\n      tag_38\n      jump\t// in\n    tag_37:\n      mload(0x40)\n      dup1\n      swap2\n      sub\n      swap1\n      return\n        /* \"PATRONES DE DISE\\xc3\\x91O/PatronMapaIterable.sol\":946:1104  function get(address key) public view returns (uint) {... */\n    tag_9:\n      tag_39\n      0x04\n      dup1\n      calldatasize\n      sub\n      dup2\n      add\n      swap1\n      tag_40\n      swap2\n      swap1\n      tag_20\n      jump\t// in\n    tag_40:\n      tag_41\n      jump\t// in\n    tag_39:\n      mload(0x40)\n      tag_42\n      swap2\n      swap1\n      tag_33\n      jump\t// in\n    tag_42:\n      mload(0x40)\n      dup1\n      swap2\n      sub\n      swap1\n      return\n        /* \"PATRONES DE DISE\\xc3\\x91O/PatronMapaIterable.sol\":1941:2042  function exists(address key) public view returns (bool) {... */\n    tag_10:\n      tag_43\n      0x04\n      dup1\n      calldatasize\n      sub\n      dup2\n      add\n      swap1\n      tag_44\n      swap2\n      swap1\n      tag_20\n      jump\t// in\n    tag_44:\n      tag_45\n      jump\t// in\n    tag_43:\n      mload(0x40)\n      tag_46\n      swap2\n      swap1\n      tag_47\n      jump\t// in\n    tag_46:\n      mload(0x40)\n      dup1\n      swap2\n      sub\n      swap1\n      return\n        /* \"PATRONES DE DISE\\xc3\\x91O/PatronMapaIterable.sol\":435:456  address[] public keys */\n    tag_15:\n      0x01\n      dup2\n      dup2\n      sload\n      dup2\n      lt\n      tag_48\n      jumpi\n      0x00\n      dup1\n      revert\n    tag_48:\n      swap1\n      0x00\n      mstore\n      keccak256(0x00, 0x20)\n      add\n      0x00\n      swap2\n      pop\n      sload\n      swap1\n      0x0100\n      exp\n      swap1\n      div\n      0xffffffffffffffffffffffffffffffffffffffff\n      and\n      dup2\n      jump\t// out\n        /* \"PATRONES DE DISE\\xc3\\x91O/PatronMapaIterable.sol\":1155:1732  function remove(address key) public {... */\n    tag_21:\n        /* \"PATRONES DE DISE\\xc3\\x91O/PatronMapaIterable.sol\":1210:1217  dataMap */\n      0x00\n        /* \"PATRONES DE DISE\\xc3\\x91O/PatronMapaIterable.sol\":1210:1222  dataMap[key] */\n      0x00\n        /* \"PATRONES DE DISE\\xc3\\x91O/PatronMapaIterable.sol\":1218:1221  key */\n      dup3\n        /* \"PATRONES DE DISE\\xc3\\x91O/PatronMapaIterable.sol\":1210:1222  dataMap[key] */\n      0xffffffffffffffffffffffffffffffffffffffff\n      and\n      0xffffffffffffffffffffffffffffffffffffffff\n      and\n      dup2\n      mstore\n      0x20\n      add\n      swap1\n      dup2\n      mstore\n      0x20\n      add\n      0x00\n      keccak256\n        /* \"PATRONES DE DISE\\xc3\\x91O/PatronMapaIterable.sol\":1210:1229  dataMap[key].exists */\n      0x01\n      add\n      0x00\n      swap1\n      sload\n      swap1\n      0x0100\n      exp\n      swap1\n      div\n      0xff\n      and\n        /* \"PATRONES DE DISE\\xc3\\x91O/PatronMapaIterable.sol\":1202:1252  require(dataMap[key].exists, \"La clave no existe\") */\n      tag_51\n      jumpi\n      mload(0x40)\n      0x08c379a000000000000000000000000000000000000000000000000000000000\n      dup2\n      mstore\n      0x04\n      add\n      tag_52\n      swap1\n      tag_53\n      jump\t// in\n    tag_52:\n      mload(0x40)\n      dup1\n      swap2\n      sub\n      swap1\n      revert\n    tag_51:\n        /* \"PATRONES DE DISE\\xc3\\x91O/PatronMapaIterable.sol\":1311:1318  dataMap */\n      0x00\n        /* \"PATRONES DE DISE\\xc3\\x91O/PatronMapaIterable.sol\":1311:1323  dataMap[key] */\n      0x00\n        /* \"PATRONES DE DISE\\xc3\\x91O/PatronMapaIterable.sol\":1319:1322  key */\n      dup3\n        /* \"PATRONES DE DISE\\xc3\\x91O/PatronMapaIterable.sol\":1311:1323  dataMap[key] */\n      0xffffffffffffffffffffffffffffffffffffffff\n      and\n      0xffffffffffffffffffffffffffffffffffffffff\n      and\n      dup2\n      mstore\n      0x20\n      add\n      swap1\n      dup2\n      mstore\n      0x20\n      add\n      0x00\n      keccak256\n      0x00\n        /* \"PATRONES DE DISE\\xc3\\x91O/PatronMapaIterable.sol\":1304:1323  delete dataMap[key] */\n      0x00\n      dup3\n      add\n      0x00\n      swap1\n      sstore\n      0x01\n      dup3\n      add\n      exp(0x0100, 0x00)\n      dup2\n      sload\n      swap1\n      0xff\n      mul\n      not\n      and\n      swap1\n      sstore\n      pop\n      pop\n        /* \"PATRONES DE DISE\\xc3\\x91O/PatronMapaIterable.sol\":1411:1417  uint i */\n      0x00\n        /* \"PATRONES DE DISE\\xc3\\x91O/PatronMapaIterable.sol\":1420:1421  0 */\n      0x00\n        /* \"PATRONES DE DISE\\xc3\\x91O/PatronMapaIterable.sol\":1411:1421  uint i = 0 */\n      swap1\n      pop\n        /* \"PATRONES DE DISE\\xc3\\x91O/PatronMapaIterable.sol\":1406:1725  for (uint i = 0; i < keys.length; i++) {... */\n    tag_54:\n        /* \"PATRONES DE DISE\\xc3\\x91O/PatronMapaIterable.sol\":1427:1431  keys */\n      0x01\n        /* \"PATRONES DE DISE\\xc3\\x91O/PatronMapaIterable.sol\":1427:1438  keys.length */\n      dup1\n      sload\n      swap1\n      pop\n        /* \"PATRONES DE DISE\\xc3\\x91O/PatronMapaIterable.sol\":1423:1424  i */\n      dup2\n        /* \"PATRONES DE DISE\\xc3\\x91O/PatronMapaIterable.sol\":1423:1438  i < keys.length */\n      lt\n        /* \"PATRONES DE DISE\\xc3\\x91O/PatronMapaIterable.sol\":1406:1725  for (uint i = 0; i < keys.length; i++) {... */\n      iszero\n      tag_55\n      jumpi\n        /* \"PATRONES DE DISE\\xc3\\x91O/PatronMapaIterable.sol\":1475:1478  key */\n      dup2\n        /* \"PATRONES DE DISE\\xc3\\x91O/PatronMapaIterable.sol\":1464:1478  keys[i] == key */\n      0xffffffffffffffffffffffffffffffffffffffff\n      and\n        /* \"PATRONES DE DISE\\xc3\\x91O/PatronMapaIterable.sol\":1464:1468  keys */\n      0x01\n        /* \"PATRONES DE DISE\\xc3\\x91O/PatronMapaIterable.sol\":1469:1470  i */\n      dup3\n        /* \"PATRONES DE DISE\\xc3\\x91O/PatronMapaIterable.sol\":1464:1471  keys[i] */\n      dup2\n      sload\n      dup2\n      lt\n      tag_57\n      jumpi\n      tag_58\n      tag_59\n      jump\t// in\n    tag_58:\n    tag_57:\n      swap1\n      0x00\n      mstore\n      keccak256(0x00, 0x20)\n      add\n      0x00\n      swap1\n      sload\n      swap1\n      0x0100\n      exp\n      swap1\n      div\n      0xffffffffffffffffffffffffffffffffffffffff\n      and\n        /* \"PATRONES DE DISE\\xc3\\x91O/PatronMapaIterable.sol\":1464:1478  keys[i] == key */\n      0xffffffffffffffffffffffffffffffffffffffff\n      and\n      sub\n        /* \"PATRONES DE DISE\\xc3\\x91O/PatronMapaIterable.sol\":1460:1714  if (keys[i] == key) {... */\n      tag_61\n      jumpi\n        /* \"PATRONES DE DISE\\xc3\\x91O/PatronMapaIterable.sol\":1624:1628  keys */\n      0x01\n        /* \"PATRONES DE DISE\\xc3\\x91O/PatronMapaIterable.sol\":1643:1644  1 */\n      dup1\n        /* \"PATRONES DE DISE\\xc3\\x91O/PatronMapaIterable.sol\":1629:1633  keys */\n      dup1\n        /* \"PATRONES DE DISE\\xc3\\x91O/PatronMapaIterable.sol\":1629:1640  keys.length */\n      dup1\n      sload\n      swap1\n      pop\n        /* \"PATRONES DE DISE\\xc3\\x91O/PatronMapaIterable.sol\":1629:1644  keys.length - 1 */\n      tag_62\n      swap2\n      swap1\n      tag_63\n      jump\t// in\n    tag_62:\n        /* \"PATRONES DE DISE\\xc3\\x91O/PatronMapaIterable.sol\":1624:1645  keys[keys.length - 1] */\n      dup2\n      sload\n      dup2\n      lt\n      tag_64\n      jumpi\n      tag_65\n      tag_59\n      jump\t// in\n    tag_65:\n    tag_64:\n      swap1\n      0x00\n      mstore\n      keccak256(0x00, 0x20)\n      add\n      0x00\n      swap1\n      sload\n      swap1\n      0x0100\n      exp\n      swap1\n      div\n      0xffffffffffffffffffffffffffffffffffffffff\n      and\n        /* \"PATRONES DE DISE\\xc3\\x91O/PatronMapaIterable.sol\":1614:1618  keys */\n      0x01\n        /* \"PATRONES DE DISE\\xc3\\x91O/PatronMapaIterable.sol\":1619:1620  i */\n      dup3\n        /* \"PATRONES DE DISE\\xc3\\x91O/PatronMapaIterable.sol\":1614:1621  keys[i] */\n      dup2\n      sload\n      dup2\n      lt\n      tag_67\n      jumpi\n      tag_68\n      tag_59\n      jump\t// in\n    tag_68:\n    tag_67:\n      swap1\n      0x00\n      mstore\n      keccak256(0x00, 0x20)\n      add\n      0x00\n        /* \"PATRONES DE DISE\\xc3\\x91O/PatronMapaIterable.sol\":1614:1645  keys[i] = keys[keys.length - 1] */\n      0x0100\n      exp\n      dup2\n      sload\n      dup2\n      0xffffffffffffffffffffffffffffffffffffffff\n      mul\n      not\n      and\n      swap1\n      dup4\n      0xffffffffffffffffffffffffffffffffffffffff\n      and\n      mul\n      or\n      swap1\n      sstore\n      pop\n        /* \"PATRONES DE DISE\\xc3\\x91O/PatronMapaIterable.sol\":1664:1668  keys */\n      0x01\n        /* \"PATRONES DE DISE\\xc3\\x91O/PatronMapaIterable.sol\":1664:1674  keys.pop() */\n      dup1\n      sload\n      dup1\n      tag_70\n      jumpi\n      tag_71\n      tag_72\n      jump\t// in\n    tag_71:\n    tag_70:\n      0x01\n      swap1\n      sub\n      dup2\n      dup2\n      swap1\n      0x00\n      mstore\n      keccak256(0x00, 0x20)\n      add\n      exp(0x0100, 0x00)\n      dup2\n      sload\n      swap1\n      0xffffffffffffffffffffffffffffffffffffffff\n      mul\n      not\n      and\n      swap1\n      sstore\n      swap1\n      sstore\n        /* \"PATRONES DE DISE\\xc3\\x91O/PatronMapaIterable.sol\":1693:1698  break */\n      jump(tag_55)\n        /* \"PATRONES DE DISE\\xc3\\x91O/PatronMapaIterable.sol\":1460:1714  if (keys[i] == key) {... */\n    tag_61:\n        /* \"PATRONES DE DISE\\xc3\\x91O/PatronMapaIterable.sol\":1440:1443  i++ */\n      dup1\n      dup1\n      0x01\n      add\n      swap2\n      pop\n      pop\n        /* \"PATRONES DE DISE\\xc3\\x91O/PatronMapaIterable.sol\":1406:1725  for (uint i = 0; i < keys.length; i++) {... */\n      jump(tag_54)\n    tag_55:\n      pop\n        /* \"PATRONES DE DISE\\xc3\\x91O/PatronMapaIterable.sol\":1155:1732  function remove(address key) public {... */\n      pop\n      jump\t// out\n        /* \"PATRONES DE DISE\\xc3\\x91O/PatronMapaIterable.sol\":517:899  function set(address key, uint value) public {... */\n    tag_25:\n        /* \"PATRONES DE DISE\\xc3\\x91O/PatronMapaIterable.sol\":662:669  dataMap */\n      0x00\n        /* \"PATRONES DE DISE\\xc3\\x91O/PatronMapaIterable.sol\":662:674  dataMap[key] */\n      0x00\n        /* \"PATRONES DE DISE\\xc3\\x91O/PatronMapaIterable.sol\":670:673  key */\n      dup4\n        /* \"PATRONES DE DISE\\xc3\\x91O/PatronMapaIterable.sol\":662:674  dataMap[key] */\n      0xffffffffffffffffffffffffffffffffffffffff\n      and\n      0xffffffffffffffffffffffffffffffffffffffff\n      and\n      dup2\n      mstore\n      0x20\n      add\n      swap1\n      dup2\n      mstore\n      0x20\n      add\n      0x00\n      keccak256\n        /* \"PATRONES DE DISE\\xc3\\x91O/PatronMapaIterable.sol\":662:681  dataMap[key].exists */\n      0x01\n      add\n      0x00\n      swap1\n      sload\n      swap1\n      0x0100\n      exp\n      swap1\n      div\n      0xff\n      and\n        /* \"PATRONES DE DISE\\xc3\\x91O/PatronMapaIterable.sol\":657:892  if (!dataMap[key].exists) {... */\n      tag_75\n      jumpi\n        /* \"PATRONES DE DISE\\xc3\\x91O/PatronMapaIterable.sol\":698:702  keys */\n      0x01\n        /* \"PATRONES DE DISE\\xc3\\x91O/PatronMapaIterable.sol\":708:711  key */\n      dup3\n        /* \"PATRONES DE DISE\\xc3\\x91O/PatronMapaIterable.sol\":698:712  keys.push(key) */\n      swap1\n      dup1\n      0x01\n      dup2\n      sload\n      add\n      dup1\n      dup3\n      sstore\n      dup1\n      swap2\n      pop\n      pop\n      0x01\n      swap1\n      sub\n      swap1\n      0x00\n      mstore\n      keccak256(0x00, 0x20)\n      add\n      0x00\n      swap1\n      swap2\n      swap1\n      swap2\n      swap1\n      swap2\n      0x0100\n      exp\n      dup2\n      sload\n      dup2\n      0xffffffffffffffffffffffffffffffffffffffff\n      mul\n      not\n      and\n      swap1\n      dup4\n      0xffffffffffffffffffffffffffffffffffffffff\n      and\n      mul\n      or\n      swap1\n      sstore\n      pop\n        /* \"PATRONES DE DISE\\xc3\\x91O/PatronMapaIterable.sol\":742:762  MapData(value, true) */\n      mload(0x40)\n      dup1\n      0x40\n      add\n      0x40\n      mstore\n      dup1\n        /* \"PATRONES DE DISE\\xc3\\x91O/PatronMapaIterable.sol\":750:755  value */\n      dup3\n        /* \"PATRONES DE DISE\\xc3\\x91O/PatronMapaIterable.sol\":742:762  MapData(value, true) */\n      dup2\n      mstore\n      0x20\n      add\n        /* \"PATRONES DE DISE\\xc3\\x91O/PatronMapaIterable.sol\":757:761  true */\n      0x01\n        /* \"PATRONES DE DISE\\xc3\\x91O/PatronMapaIterable.sol\":742:762  MapData(value, true) */\n      iszero\n      iszero\n      dup2\n      mstore\n      pop\n        /* \"PATRONES DE DISE\\xc3\\x91O/PatronMapaIterable.sol\":727:734  dataMap */\n      0x00\n        /* \"PATRONES DE DISE\\xc3\\x91O/PatronMapaIterable.sol\":727:739  dataMap[key] */\n      0x00\n        /* \"PATRONES DE DISE\\xc3\\x91O/PatronMapaIterable.sol\":735:738  key */\n      dup5\n        /* \"PATRONES DE DISE\\xc3\\x91O/PatronMapaIterable.sol\":727:739  dataMap[key] */\n      0xffffffffffffffffffffffffffffffffffffffff\n      and\n      0xffffffffffffffffffffffffffffffffffffffff\n      and\n      dup2\n      mstore\n      0x20\n      add\n      swap1\n      dup2\n      mstore\n      0x20\n      add\n      0x00\n      keccak256\n        /* \"PATRONES DE DISE\\xc3\\x91O/PatronMapaIterable.sol\":727:762  dataMap[key] = MapData(value, true) */\n      0x00\n      dup3\n      add\n      mload\n      dup2\n      0x00\n      add\n      sstore\n      0x20\n      dup3\n      add\n      mload\n      dup2\n      0x01\n      add\n      exp(0x0100, 0x00)\n      dup2\n      sload\n      dup2\n      0xff\n      mul\n      not\n      and\n      swap1\n      dup4\n      iszero\n      iszero\n      mul\n      or\n      swap1\n      sstore\n      pop\n      swap1\n      pop\n      pop\n        /* \"PATRONES DE DISE\\xc3\\x91O/PatronMapaIterable.sol\":657:892  if (!dataMap[key].exists) {... */\n      jump(tag_77)\n    tag_75:\n        /* \"PATRONES DE DISE\\xc3\\x91O/PatronMapaIterable.sol\":875:880  value */\n      dup1\n        /* \"PATRONES DE DISE\\xc3\\x91O/PatronMapaIterable.sol\":854:861  dataMap */\n      0x00\n        /* \"PATRONES DE DISE\\xc3\\x91O/PatronMapaIterable.sol\":854:866  dataMap[key] */\n      0x00\n        /* \"PATRONES DE DISE\\xc3\\x91O/PatronMapaIterable.sol\":862:865  key */\n      dup5\n        /* \"PATRONES DE DISE\\xc3\\x91O/PatronMapaIterable.sol\":854:866  dataMap[key] */\n      0xffffffffffffffffffffffffffffffffffffffff\n      and\n      0xffffffffffffffffffffffffffffffffffffffff\n      and\n      dup2\n      mstore\n      0x20\n      add\n      swap1\n      dup2\n      mstore\n      0x20\n      add\n      0x00\n      keccak256\n        /* \"PATRONES DE DISE\\xc3\\x91O/PatronMapaIterable.sol\":854:872  dataMap[key].value */\n      0x00\n      add\n        /* \"PATRONES DE DISE\\xc3\\x91O/PatronMapaIterable.sol\":854:880  dataMap[key].value = value */\n      dup2\n      swap1\n      sstore\n      pop\n        /* \"PATRONES DE DISE\\xc3\\x91O/PatronMapaIterable.sol\":657:892  if (!dataMap[key].exists) {... */\n    tag_77:\n        /* \"PATRONES DE DISE\\xc3\\x91O/PatronMapaIterable.sol\":517:899  function set(address key, uint value) public {... */\n      pop\n      pop\n      jump\t// out\n        /* \"PATRONES DE DISE\\xc3\\x91O/PatronMapaIterable.sol\":2116:2282  function getKeyAtIndex(uint index) public view returns (address) {... */\n    tag_28:\n        /* \"PATRONES DE DISE\\xc3\\x91O/PatronMapaIterable.sol\":2172:2179  address */\n      0x00\n        /* \"PATRONES DE DISE\\xc3\\x91O/PatronMapaIterable.sol\":2208:2212  keys */\n      0x01\n        /* \"PATRONES DE DISE\\xc3\\x91O/PatronMapaIterable.sol\":2208:2219  keys.length */\n      dup1\n      sload\n      swap1\n      pop\n        /* \"PATRONES DE DISE\\xc3\\x91O/PatronMapaIterable.sol\":2200:2205  index */\n      dup3\n        /* \"PATRONES DE DISE\\xc3\\x91O/PatronMapaIterable.sol\":2200:2219  index < keys.length */\n      lt\n        /* \"PATRONES DE DISE\\xc3\\x91O/PatronMapaIterable.sol\":2192:2245  require(index < keys.length, \"Indice fuera de rango\") */\n      tag_79\n      jumpi\n      mload(0x40)\n      0x08c379a000000000000000000000000000000000000000000000000000000000\n      dup2\n      mstore\n      0x04\n      add\n      tag_80\n      swap1\n      tag_81\n      jump\t// in\n    tag_80:\n      mload(0x40)\n      dup1\n      swap2\n      sub\n      swap1\n      revert\n    tag_79:\n        /* \"PATRONES DE DISE\\xc3\\x91O/PatronMapaIterable.sol\":2263:2267  keys */\n      0x01\n        /* \"PATRONES DE DISE\\xc3\\x91O/PatronMapaIterable.sol\":2268:2273  index */\n      dup3\n        /* \"PATRONES DE DISE\\xc3\\x91O/PatronMapaIterable.sol\":2263:2274  keys[index] */\n      dup2\n      sload\n      dup2\n      lt\n      tag_82\n      jumpi\n      tag_83\n      tag_59\n      jump\t// in\n    tag_83:\n    tag_82:\n      swap1\n      0x00\n      mstore\n      keccak256(0x00, 0x20)\n      add\n      0x00\n      swap1\n      sload\n      swap1\n      0x0100\n      exp\n      swap1\n      div\n      0xffffffffffffffffffffffffffffffffffffffff\n      and\n        /* \"PATRONES DE DISE\\xc3\\x91O/PatronMapaIterable.sol\":2256:2274  return keys[index] */\n      swap1\n      pop\n        /* \"PATRONES DE DISE\\xc3\\x91O/PatronMapaIterable.sol\":2116:2282  function getKeyAtIndex(uint index) public view returns (address) {... */\n      swap2\n      swap1\n      pop\n      jump\t// out\n        /* \"PATRONES DE DISE\\xc3\\x91O/PatronMapaIterable.sol\":1790:1870  function size() public view returns (uint) {... */\n    tag_31:\n        /* \"PATRONES DE DISE\\xc3\\x91O/PatronMapaIterable.sol\":1827:1831  uint */\n      0x00\n        /* \"PATRONES DE DISE\\xc3\\x91O/PatronMapaIterable.sol\":1851:1855  keys */\n      0x01\n        /* \"PATRONES DE DISE\\xc3\\x91O/PatronMapaIterable.sol\":1851:1862  keys.length */\n      dup1\n      sload\n      swap1\n      pop\n        /* \"PATRONES DE DISE\\xc3\\x91O/PatronMapaIterable.sol\":1844:1862  return keys.length */\n      swap1\n      pop\n        /* \"PATRONES DE DISE\\xc3\\x91O/PatronMapaIterable.sol\":1790:1870  function size() public view returns (uint) {... */\n      swap1\n      jump\t// out\n        /* \"PATRONES DE DISE\\xc3\\x91O/PatronMapaIterable.sol\":333:375  mapping(address => MapData) public dataMap */\n    tag_36:\n      mstore(0x20, 0x00)\n      dup1\n      0x00\n      mstore\n      keccak256(0x00, 0x40)\n      0x00\n      swap2\n      pop\n      swap1\n      pop\n      dup1\n      0x00\n      add\n      sload\n      swap1\n      dup1\n      0x01\n      add\n      0x00\n      swap1\n      sload\n      swap1\n      0x0100\n      exp\n      swap1\n      div\n      0xff\n      and\n      swap1\n      pop\n      dup3\n      jump\t// out\n        /* \"PATRONES DE DISE\\xc3\\x91O/PatronMapaIterable.sol\":946:1104  function get(address key) public view returns (uint) {... */\n    tag_41:\n        /* \"PATRONES DE DISE\\xc3\\x91O/PatronMapaIterable.sol\":993:997  uint */\n      0x00\n        /* \"PATRONES DE DISE\\xc3\\x91O/PatronMapaIterable.sol\":1018:1025  dataMap */\n      0x00\n        /* \"PATRONES DE DISE\\xc3\\x91O/PatronMapaIterable.sol\":1018:1030  dataMap[key] */\n      0x00\n        /* \"PATRONES DE DISE\\xc3\\x91O/PatronMapaIterable.sol\":1026:1029  key */\n      dup4\n        /* \"PATRONES DE DISE\\xc3\\x91O/PatronMapaIterable.sol\":1018:1030  dataMap[key] */\n      0xffffffffffffffffffffffffffffffffffffffff\n      and\n      0xffffffffffffffffffffffffffffffffffffffff\n      and\n      dup2\n      mstore\n      0x20\n      add\n      swap1\n      dup2\n      mstore\n      0x20\n      add\n      0x00\n      keccak256\n        /* \"PATRONES DE DISE\\xc3\\x91O/PatronMapaIterable.sol\":1018:1037  dataMap[key].exists */\n      0x01\n      add\n      0x00\n      swap1\n      sload\n      swap1\n      0x0100\n      exp\n      swap1\n      div\n      0xff\n      and\n        /* \"PATRONES DE DISE\\xc3\\x91O/PatronMapaIterable.sol\":1010:1060  require(dataMap[key].exists, \"La clave no existe\") */\n      tag_87\n      jumpi\n      mload(0x40)\n      0x08c379a000000000000000000000000000000000000000000000000000000000\n      dup2\n      mstore\n      0x04\n      add\n      tag_88\n      swap1\n      tag_53\n      jump\t// in\n    tag_88:\n      mload(0x40)\n      dup1\n      swap2\n      sub\n      swap1\n      revert\n    tag_87:\n        /* \"PATRONES DE DISE\\xc3\\x91O/PatronMapaIterable.sol\":1078:1085  dataMap */\n      0x00\n        /* \"PATRONES DE DISE\\xc3\\x91O/PatronMapaIterable.sol\":1078:1090  dataMap[key] */\n      0x00\n        /* \"PATRONES DE DISE\\xc3\\x91O/PatronMapaIterable.sol\":1086:1089  key */\n      dup4\n        /* \"PATRONES DE DISE\\xc3\\x91O/PatronMapaIterable.sol\":1078:1090  dataMap[key] */\n      0xffffffffffffffffffffffffffffffffffffffff\n      and\n      0xffffffffffffffffffffffffffffffffffffffff\n      and\n      dup2\n      mstore\n      0x20\n      add\n      swap1\n      dup2\n      mstore\n      0x20\n      add\n      0x00\n      keccak256\n        /* \"PATRONES DE DISE\\xc3\\x91O/PatronMapaIterable.sol\":1078:1096  dataMap[key].value */\n      0x00\n      add\n      sload\n        /* \"PATRONES DE DISE\\xc3\\x91O/PatronMapaIterable.sol\":1071:1096  return dataMap[key].value */\n      swap1\n      pop\n        /* \"PATRONES DE DISE\\xc3\\x91O/PatronMapaIterable.sol\":946:1104  function get(address key) public view returns (uint) {... */\n      swap2\n      swap1\n      pop\n      jump\t// out\n        /* \"PATRONES DE DISE\\xc3\\x91O/PatronMapaIterable.sol\":1941:2042  function exists(address key) public view returns (bool) {... */\n    tag_45:\n        /* \"PATRONES DE DISE\\xc3\\x91O/PatronMapaIterable.sol\":1991:1995  bool */\n      0x00\n        /* \"PATRONES DE DISE\\xc3\\x91O/PatronMapaIterable.sol\":2015:2022  dataMap */\n      0x00\n        /* \"PATRONES DE DISE\\xc3\\x91O/PatronMapaIterable.sol\":2015:2027  dataMap[key] */\n      0x00\n        /* \"PATRONES DE DISE\\xc3\\x91O/PatronMapaIterable.sol\":2023:2026  key */\n      dup4\n        /* \"PATRONES DE DISE\\xc3\\x91O/PatronMapaIterable.sol\":2015:2027  dataMap[key] */\n      0xffffffffffffffffffffffffffffffffffffffff\n      and\n      0xffffffffffffffffffffffffffffffffffffffff\n      and\n      dup2\n      mstore\n      0x20\n      add\n      swap1\n      dup2\n      mstore\n      0x20\n      add\n      0x00\n      keccak256\n        /* \"PATRONES DE DISE\\xc3\\x91O/PatronMapaIterable.sol\":2015:2034  dataMap[key].exists */\n      0x01\n      add\n      0x00\n      swap1\n      sload\n      swap1\n      0x0100\n      exp\n      swap1\n      div\n      0xff\n      and\n        /* \"PATRONES DE DISE\\xc3\\x91O/PatronMapaIterable.sol\":2008:2034  return dataMap[key].exists */\n      swap1\n      pop\n        /* \"PATRONES DE DISE\\xc3\\x91O/PatronMapaIterable.sol\":1941:2042  function exists(address key) public view returns (bool) {... */\n      swap2\n      swap1\n      pop\n      jump\t// out\n        /* \"#utility.yul\":88:205   */\n    tag_91:\n        /* \"#utility.yul\":197:198   */\n      0x00\n        /* \"#utility.yul\":194:195   */\n      0x00\n        /* \"#utility.yul\":187:199   */\n      revert\n        /* \"#utility.yul\":334:411   */\n    tag_93:\n        /* \"#utility.yul\":371:378   */\n      0x00\n        /* \"#utility.yul\":400:405   */\n      dup2\n        /* \"#utility.yul\":389:405   */\n      swap1\n      pop\n        /* \"#utility.yul\":334:411   */\n      swap2\n      swap1\n      pop\n      jump\t// out\n        /* \"#utility.yul\":417:539   */\n    tag_94:\n        /* \"#utility.yul\":490:514   */\n      tag_116\n        /* \"#utility.yul\":508:513   */\n      dup2\n        /* \"#utility.yul\":490:514   */\n      tag_93\n      jump\t// in\n    tag_116:\n        /* \"#utility.yul\":483:488   */\n      dup2\n        /* \"#utility.yul\":480:515   */\n      eq\n        /* \"#utility.yul\":470:533   */\n      tag_117\n      jumpi\n        /* \"#utility.yul\":529:530   */\n      0x00\n        /* \"#utility.yul\":526:527   */\n      0x00\n        /* \"#utility.yul\":519:531   */\n      revert\n        /* \"#utility.yul\":470:533   */\n    tag_117:\n        /* \"#utility.yul\":417:539   */\n      pop\n      jump\t// out\n        /* \"#utility.yul\":545:684   */\n    tag_95:\n        /* \"#utility.yul\":591:596   */\n      0x00\n        /* \"#utility.yul\":629:635   */\n      dup2\n        /* \"#utility.yul\":616:636   */\n      calldataload\n        /* \"#utility.yul\":607:636   */\n      swap1\n      pop\n        /* \"#utility.yul\":645:678   */\n      tag_119\n        /* \"#utility.yul\":672:677   */\n      dup2\n        /* \"#utility.yul\":645:678   */\n      tag_94\n      jump\t// in\n    tag_119:\n        /* \"#utility.yul\":545:684   */\n      swap3\n      swap2\n      pop\n      pop\n      jump\t// out\n        /* \"#utility.yul\":690:1019   */\n    tag_14:\n        /* \"#utility.yul\":749:755   */\n      0x00\n        /* \"#utility.yul\":798:800   */\n      0x20\n        /* \"#utility.yul\":786:795   */\n      dup3\n        /* \"#utility.yul\":777:784   */\n      dup5\n        /* \"#utility.yul\":773:796   */\n      sub\n        /* \"#utility.yul\":769:801   */\n      slt\n        /* \"#utility.yul\":766:885   */\n      iszero\n      tag_121\n      jumpi\n        /* \"#utility.yul\":804:883   */\n      tag_122\n      tag_91\n      jump\t// in\n    tag_122:\n        /* \"#utility.yul\":766:885   */\n    tag_121:\n        /* \"#utility.yul\":924:925   */\n      0x00\n        /* \"#utility.yul\":949:1002   */\n      tag_123\n        /* \"#utility.yul\":994:1001   */\n      dup5\n        /* \"#utility.yul\":985:991   */\n      dup3\n        /* \"#utility.yul\":974:983   */\n      dup6\n        /* \"#utility.yul\":970:992   */\n      add\n        /* \"#utility.yul\":949:1002   */\n      tag_95\n      jump\t// in\n    tag_123:\n        /* \"#utility.yul\":939:1002   */\n      swap2\n      pop\n        /* \"#utility.yul\":895:1012   */\n      pop\n        /* \"#utility.yul\":690:1019   */\n      swap3\n      swap2\n      pop\n      pop\n      jump\t// out\n        /* \"#utility.yul\":1025:1151   */\n    tag_96:\n        /* \"#utility.yul\":1062:1069   */\n      0x00\n        /* \"#utility.yul\":1102:1144   */\n      0xffffffffffffffffffffffffffffffffffffffff\n        /* \"#utility.yul\":1095:1100   */\n      dup3\n        /* \"#utility.yul\":1091:1145   */\n      and\n        /* \"#utility.yul\":1080:1145   */\n      swap1\n      pop\n        /* \"#utility.yul\":1025:1151   */\n      swap2\n      swap1\n      pop\n      jump\t// out\n        /* \"#utility.yul\":1157:1253   */\n    tag_97:\n        /* \"#utility.yul\":1194:1201   */\n      0x00\n        /* \"#utility.yul\":1223:1247   */\n      tag_126\n        /* \"#utility.yul\":1241:1246   */\n      dup3\n        /* \"#utility.yul\":1223:1247   */\n      tag_96\n      jump\t// in\n    tag_126:\n        /* \"#utility.yul\":1212:1247   */\n      swap1\n      pop\n        /* \"#utility.yul\":1157:1253   */\n      swap2\n      swap1\n      pop\n      jump\t// out\n        /* \"#utility.yul\":1259:1377   */\n    tag_98:\n        /* \"#utility.yul\":1346:1370   */\n      tag_128\n        /* \"#utility.yul\":1364:1369   */\n      dup2\n        /* \"#utility.yul\":1346:1370   */\n      tag_97\n      jump\t// in\n    tag_128:\n        /* \"#utility.yul\":1341:1344   */\n      dup3\n        /* \"#utility.yul\":1334:1371   */\n      mstore\n        /* \"#utility.yul\":1259:1377   */\n      pop\n      pop\n      jump\t// out\n        /* \"#utility.yul\":1383:1605   */\n    tag_17:\n        /* \"#utility.yul\":1476:1480   */\n      0x00\n        /* \"#utility.yul\":1514:1516   */\n      0x20\n        /* \"#utility.yul\":1503:1512   */\n      dup3\n        /* \"#utility.yul\":1499:1517   */\n      add\n        /* \"#utility.yul\":1491:1517   */\n      swap1\n      pop\n        /* \"#utility.yul\":1527:1598   */\n      tag_130\n        /* \"#utility.yul\":1595:1596   */\n      0x00\n        /* \"#utility.yul\":1584:1593   */\n      dup4\n        /* \"#utility.yul\":1580:1597   */\n      add\n        /* \"#utility.yul\":1571:1577   */\n      dup5\n        /* \"#utility.yul\":1527:1598   */\n      tag_98\n      jump\t// in\n    tag_130:\n        /* \"#utility.yul\":1383:1605   */\n      swap3\n      swap2\n      pop\n      pop\n      jump\t// out\n        /* \"#utility.yul\":1611:1733   */\n    tag_99:\n        /* \"#utility.yul\":1684:1708   */\n      tag_132\n        /* \"#utility.yul\":1702:1707   */\n      dup2\n        /* \"#utility.yul\":1684:1708   */\n      tag_97\n      jump\t// in\n    tag_132:\n        /* \"#utility.yul\":1677:1682   */\n      dup2\n        /* \"#utility.yul\":1674:1709   */\n      eq\n        /* \"#utility.yul\":1664:1727   */\n      tag_133\n      jumpi\n        /* \"#utility.yul\":1723:1724   */\n      0x00\n        /* \"#utility.yul\":1720:1721   */\n      0x00\n        /* \"#utility.yul\":1713:1725   */\n      revert\n        /* \"#utility.yul\":1664:1727   */\n    tag_133:\n        /* \"#utility.yul\":1611:1733   */\n      pop\n      jump\t// out\n        /* \"#utility.yul\":1739:1878   */\n    tag_100:\n        /* \"#utility.yul\":1785:1790   */\n      0x00\n        /* \"#utility.yul\":1823:1829   */\n      dup2\n        /* \"#utility.yul\":1810:1830   */\n      calldataload\n        /* \"#utility.yul\":1801:1830   */\n      swap1\n      pop\n        /* \"#utility.yul\":1839:1872   */\n      tag_135\n        /* \"#utility.yul\":1866:1871   */\n      dup2\n        /* \"#utility.yul\":1839:1872   */\n      tag_99\n      jump\t// in\n    tag_135:\n        /* \"#utility.yul\":1739:1878   */\n      swap3\n      swap2\n      pop\n      pop\n      jump\t// out\n        /* \"#utility.yul\":1884:2213   */\n    tag_20:\n        /* \"#utility.yul\":1943:1949   */\n      0x00\n        /* \"#utility.yul\":1992:1994   */\n      0x20\n        /* \"#utility.yul\":1980:1989   */\n      dup3\n        /* \"#utility.yul\":1971:1978   */\n      dup5\n        /* \"#utility.yul\":1967:1990   */\n      sub\n        /* \"#utility.yul\":1963:1995   */\n      slt\n        /* \"#utility.yul\":1960:2079   */\n      iszero\n      tag_137\n      jumpi\n        /* \"#utility.yul\":1998:2077   */\n      tag_138\n      tag_91\n      jump\t// in\n    tag_138:\n        /* \"#utility.yul\":1960:2079   */\n    tag_137:\n        /* \"#utility.yul\":2118:2119   */\n      0x00\n        /* \"#utility.yul\":2143:2196   */\n      tag_139\n        /* \"#utility.yul\":2188:2195   */\n      dup5\n        /* \"#utility.yul\":2179:2185   */\n      dup3\n        /* \"#utility.yul\":2168:2177   */\n      dup6\n        /* \"#utility.yul\":2164:2186   */\n      add\n        /* \"#utility.yul\":2143:2196   */\n      tag_100\n      jump\t// in\n    tag_139:\n        /* \"#utility.yul\":2133:2196   */\n      swap2\n      pop\n        /* \"#utility.yul\":2089:2206   */\n      pop\n        /* \"#utility.yul\":1884:2213   */\n      swap3\n      swap2\n      pop\n      pop\n      jump\t// out\n        /* \"#utility.yul\":2219:2693   */\n    tag_24:\n        /* \"#utility.yul\":2287:2293   */\n      0x00\n        /* \"#utility.yul\":2295:2301   */\n      0x00\n        /* \"#utility.yul\":2344:2346   */\n      0x40\n        /* \"#utility.yul\":2332:2341   */\n      dup4\n        /* \"#utility.yul\":2323:2330   */\n      dup6\n        /* \"#utility.yul\":2319:2342   */\n      sub\n        /* \"#utility.yul\":2315:2347   */\n      slt\n        /* \"#utility.yul\":2312:2431   */\n      iszero\n      tag_141\n      jumpi\n        /* \"#utility.yul\":2350:2429   */\n      tag_142\n      tag_91\n      jump\t// in\n    tag_142:\n        /* \"#utility.yul\":2312:2431   */\n    tag_141:\n        /* \"#utility.yul\":2470:2471   */\n      0x00\n        /* \"#utility.yul\":2495:2548   */\n      tag_143\n        /* \"#utility.yul\":2540:2547   */\n      dup6\n        /* \"#utility.yul\":2531:2537   */\n      dup3\n        /* \"#utility.yul\":2520:2529   */\n      dup7\n        /* \"#utility.yul\":2516:2538   */\n      add\n        /* \"#utility.yul\":2495:2548   */\n      tag_100\n      jump\t// in\n    tag_143:\n        /* \"#utility.yul\":2485:2548   */\n      swap3\n      pop\n        /* \"#utility.yul\":2441:2558   */\n      pop\n        /* \"#utility.yul\":2597:2599   */\n      0x20\n        /* \"#utility.yul\":2623:2676   */\n      tag_144\n        /* \"#utility.yul\":2668:2675   */\n      dup6\n        /* \"#utility.yul\":2659:2665   */\n      dup3\n        /* \"#utility.yul\":2648:2657   */\n      dup7\n        /* \"#utility.yul\":2644:2666   */\n      add\n        /* \"#utility.yul\":2623:2676   */\n      tag_95\n      jump\t// in\n    tag_144:\n        /* \"#utility.yul\":2613:2676   */\n      swap2\n      pop\n        /* \"#utility.yul\":2568:2686   */\n      pop\n        /* \"#utility.yul\":2219:2693   */\n      swap3\n      pop\n      swap3\n      swap1\n      pop\n      jump\t// out\n        /* \"#utility.yul\":2699:2817   */\n    tag_101:\n        /* \"#utility.yul\":2786:2810   */\n      tag_146\n        /* \"#utility.yul\":2804:2809   */\n      dup2\n        /* \"#utility.yul\":2786:2810   */\n      tag_93\n      jump\t// in\n    tag_146:\n        /* \"#utility.yul\":2781:2784   */\n      dup3\n        /* \"#utility.yul\":2774:2811   */\n      mstore\n        /* \"#utility.yul\":2699:2817   */\n      pop\n      pop\n      jump\t// out\n        /* \"#utility.yul\":2823:3045   */\n    tag_33:\n        /* \"#utility.yul\":2916:2920   */\n      0x00\n        /* \"#utility.yul\":2954:2956   */\n      0x20\n        /* \"#utility.yul\":2943:2952   */\n      dup3\n        /* \"#utility.yul\":2939:2957   */\n      add\n        /* \"#utility.yul\":2931:2957   */\n      swap1\n      pop\n        /* \"#utility.yul\":2967:3038   */\n      tag_148\n        /* \"#utility.yul\":3035:3036   */\n      0x00\n        /* \"#utility.yul\":3024:3033   */\n      dup4\n        /* \"#utility.yul\":3020:3037   */\n      add\n        /* \"#utility.yul\":3011:3017   */\n      dup5\n        /* \"#utility.yul\":2967:3038   */\n      tag_101\n      jump\t// in\n    tag_148:\n        /* \"#utility.yul\":2823:3045   */\n      swap3\n      swap2\n      pop\n      pop\n      jump\t// out\n        /* \"#utility.yul\":3051:3141   */\n    tag_102:\n        /* \"#utility.yul\":3085:3092   */\n      0x00\n        /* \"#utility.yul\":3128:3133   */\n      dup2\n        /* \"#utility.yul\":3121:3134   */\n      iszero\n        /* \"#utility.yul\":3114:3135   */\n      iszero\n        /* \"#utility.yul\":3103:3135   */\n      swap1\n      pop\n        /* \"#utility.yul\":3051:3141   */\n      swap2\n      swap1\n      pop\n      jump\t// out\n        /* \"#utility.yul\":3147:3256   */\n    tag_103:\n        /* \"#utility.yul\":3228:3249   */\n      tag_151\n        /* \"#utility.yul\":3243:3248   */\n      dup2\n        /* \"#utility.yul\":3228:3249   */\n      tag_102\n      jump\t// in\n    tag_151:\n        /* \"#utility.yul\":3223:3226   */\n      dup3\n        /* \"#utility.yul\":3216:3250   */\n      mstore\n        /* \"#utility.yul\":3147:3256   */\n      pop\n      pop\n      jump\t// out\n        /* \"#utility.yul\":3262:3582   */\n    tag_38:\n        /* \"#utility.yul\":3377:3381   */\n      0x00\n        /* \"#utility.yul\":3415:3417   */\n      0x40\n        /* \"#utility.yul\":3404:3413   */\n      dup3\n        /* \"#utility.yul\":3400:3418   */\n      add\n        /* \"#utility.yul\":3392:3418   */\n      swap1\n      pop\n        /* \"#utility.yul\":3428:3499   */\n      tag_153\n        /* \"#utility.yul\":3496:3497   */\n      0x00\n        /* \"#utility.yul\":3485:3494   */\n      dup4\n        /* \"#utility.yul\":3481:3498   */\n      add\n        /* \"#utility.yul\":3472:3478   */\n      dup6\n        /* \"#utility.yul\":3428:3499   */\n      tag_101\n      jump\t// in\n    tag_153:\n        /* \"#utility.yul\":3509:3575   */\n      tag_154\n        /* \"#utility.yul\":3571:3573   */\n      0x20\n        /* \"#utility.yul\":3560:3569   */\n      dup4\n        /* \"#utility.yul\":3556:3574   */\n      add\n        /* \"#utility.yul\":3547:3553   */\n      dup5\n        /* \"#utility.yul\":3509:3575   */\n      tag_103\n      jump\t// in\n    tag_154:\n        /* \"#utility.yul\":3262:3582   */\n      swap4\n      swap3\n      pop\n      pop\n      pop\n      jump\t// out\n        /* \"#utility.yul\":3588:3798   */\n    tag_47:\n        /* \"#utility.yul\":3675:3679   */\n      0x00\n        /* \"#utility.yul\":3713:3715   */\n      0x20\n        /* \"#utility.yul\":3702:3711   */\n      dup3\n        /* \"#utility.yul\":3698:3716   */\n      add\n        /* \"#utility.yul\":3690:3716   */\n      swap1\n      pop\n        /* \"#utility.yul\":3726:3791   */\n      tag_156\n        /* \"#utility.yul\":3788:3789   */\n      0x00\n        /* \"#utility.yul\":3777:3786   */\n      dup4\n        /* \"#utility.yul\":3773:3790   */\n      add\n        /* \"#utility.yul\":3764:3770   */\n      dup5\n        /* \"#utility.yul\":3726:3791   */\n      tag_103\n      jump\t// in\n    tag_156:\n        /* \"#utility.yul\":3588:3798   */\n      swap3\n      swap2\n      pop\n      pop\n      jump\t// out\n        /* \"#utility.yul\":3804:3973   */\n    tag_104:\n        /* \"#utility.yul\":3888:3899   */\n      0x00\n        /* \"#utility.yul\":3922:3928   */\n      dup3\n        /* \"#utility.yul\":3917:3920   */\n      dup3\n        /* \"#utility.yul\":3910:3929   */\n      mstore\n        /* \"#utility.yul\":3962:3966   */\n      0x20\n        /* \"#utility.yul\":3957:3960   */\n      dup3\n        /* \"#utility.yul\":3953:3967   */\n      add\n        /* \"#utility.yul\":3938:3967   */\n      swap1\n      pop\n        /* \"#utility.yul\":3804:3973   */\n      swap3\n      swap2\n      pop\n      pop\n      jump\t// out\n        /* \"#utility.yul\":3979:4147   */\n    tag_105:\n        /* \"#utility.yul\":4119:4139   */\n      0x4c6120636c617665206e6f206578697374650000000000000000000000000000\n        /* \"#utility.yul\":4115:4116   */\n      0x00\n        /* \"#utility.yul\":4107:4113   */\n      dup3\n        /* \"#utility.yul\":4103:4117   */\n      add\n        /* \"#utility.yul\":4096:4140   */\n      mstore\n        /* \"#utility.yul\":3979:4147   */\n      pop\n      jump\t// out\n        /* \"#utility.yul\":4153:4519   */\n    tag_106:\n        /* \"#utility.yul\":4295:4298   */\n      0x00\n        /* \"#utility.yul\":4316:4383   */\n      tag_160\n        /* \"#utility.yul\":4380:4382   */\n      0x12\n        /* \"#utility.yul\":4375:4378   */\n      dup4\n        /* \"#utility.yul\":4316:4383   */\n      tag_104\n      jump\t// in\n    tag_160:\n        /* \"#utility.yul\":4309:4383   */\n      swap2\n      pop\n        /* \"#utility.yul\":4392:4485   */\n      tag_161\n        /* \"#utility.yul\":4481:4484   */\n      dup3\n        /* \"#utility.yul\":4392:4485   */\n      tag_105\n      jump\t// in\n    tag_161:\n        /* \"#utility.yul\":4510:4512   */\n      0x20\n        /* \"#utility.yul\":4505:4508   */\n      dup3\n        /* \"#utility.yul\":4501:4513   */\n      add\n        /* \"#utility.yul\":4494:4513   */\n      swap1\n      pop\n        /* \"#utility.yul\":4153:4519   */\n      swap2\n      swap1\n      pop\n      jump\t// out\n        /* \"#utility.yul\":4525:4944   */\n    tag_53:\n        /* \"#utility.yul\":4691:4695   */\n      0x00\n        /* \"#utility.yul\":4729:4731   */\n      0x20\n        /* \"#utility.yul\":4718:4727   */\n      dup3\n        /* \"#utility.yul\":4714:4732   */\n      add\n        /* \"#utility.yul\":4706:4732   */\n      swap1\n      pop\n        /* \"#utility.yul\":4778:4787   */\n      dup2\n        /* \"#utility.yul\":4772:4776   */\n      dup2\n        /* \"#utility.yul\":4768:4788   */\n      sub\n        /* \"#utility.yul\":4764:4765   */\n      0x00\n        /* \"#utility.yul\":4753:4762   */\n      dup4\n        /* \"#utility.yul\":4749:4766   */\n      add\n        /* \"#utility.yul\":4742:4789   */\n      mstore\n        /* \"#utility.yul\":4806:4937   */\n      tag_163\n        /* \"#utility.yul\":4932:4936   */\n      dup2\n        /* \"#utility.yul\":4806:4937   */\n      tag_106\n      jump\t// in\n    tag_163:\n        /* \"#utility.yul\":4798:4937   */\n      swap1\n      pop\n        /* \"#utility.yul\":4525:4944   */\n      swap2\n      swap1\n      pop\n      jump\t// out\n        /* \"#utility.yul\":4950:5130   */\n    tag_59:\n        /* \"#utility.yul\":4998:5075   */\n      0x4e487b7100000000000000000000000000000000000000000000000000000000\n        /* \"#utility.yul\":4995:4996   */\n      0x00\n        /* \"#utility.yul\":4988:5076   */\n      mstore\n        /* \"#utility.yul\":5095:5099   */\n      0x32\n        /* \"#utility.yul\":5092:5093   */\n      0x04\n        /* \"#utility.yul\":5085:5100   */\n      mstore\n        /* \"#utility.yul\":5119:5123   */\n      0x24\n        /* \"#utility.yul\":5116:5117   */\n      0x00\n        /* \"#utility.yul\":5109:5124   */\n      revert\n        /* \"#utility.yul\":5136:5316   */\n    tag_107:\n        /* \"#utility.yul\":5184:5261   */\n      0x4e487b7100000000000000000000000000000000000000000000000000000000\n        /* \"#utility.yul\":5181:5182   */\n      0x00\n        /* \"#utility.yul\":5174:5262   */\n      mstore\n        /* \"#utility.yul\":5281:5285   */\n      0x11\n        /* \"#utility.yul\":5278:5279   */\n      0x04\n        /* \"#utility.yul\":5271:5286   */\n      mstore\n        /* \"#utility.yul\":5305:5309   */\n      0x24\n        /* \"#utility.yul\":5302:5303   */\n      0x00\n        /* \"#utility.yul\":5295:5310   */\n      revert\n        /* \"#utility.yul\":5322:5516   */\n    tag_63:\n        /* \"#utility.yul\":5362:5366   */\n      0x00\n        /* \"#utility.yul\":5382:5402   */\n      tag_167\n        /* \"#utility.yul\":5400:5401   */\n      dup3\n        /* \"#utility.yul\":5382:5402   */\n      tag_93\n      jump\t// in\n    tag_167:\n        /* \"#utility.yul\":5377:5402   */\n      swap2\n      pop\n        /* \"#utility.yul\":5416:5436   */\n      tag_168\n        /* \"#utility.yul\":5434:5435   */\n      dup4\n        /* \"#utility.yul\":5416:5436   */\n      tag_93\n      jump\t// in\n    tag_168:\n        /* \"#utility.yul\":5411:5436   */\n      swap3\n      pop\n        /* \"#utility.yul\":5460:5461   */\n      dup3\n        /* \"#utility.yul\":5457:5458   */\n      dup3\n        /* \"#utility.yul\":5453:5462   */\n      sub\n        /* \"#utility.yul\":5445:5462   */\n      swap1\n      pop\n        /* \"#utility.yul\":5484:5485   */\n      dup2\n        /* \"#utility.yul\":5478:5482   */\n      dup2\n        /* \"#utility.yul\":5475:5486   */\n      gt\n        /* \"#utility.yul\":5472:5509   */\n      iszero\n      tag_169\n      jumpi\n        /* \"#utility.yul\":5489:5507   */\n      tag_170\n      tag_107\n      jump\t// in\n    tag_170:\n        /* \"#utility.yul\":5472:5509   */\n    tag_169:\n        /* \"#utility.yul\":5322:5516   */\n      swap3\n      swap2\n      pop\n      pop\n      jump\t// out\n        /* \"#utility.yul\":5522:5702   */\n    tag_72:\n        /* \"#utility.yul\":5570:5647   */\n      0x4e487b7100000000000000000000000000000000000000000000000000000000\n        /* \"#utility.yul\":5567:5568   */\n      0x00\n        /* \"#utility.yul\":5560:5648   */\n      mstore\n        /* \"#utility.yul\":5667:5671   */\n      0x31\n        /* \"#utility.yul\":5664:5665   */\n      0x04\n        /* \"#utility.yul\":5657:5672   */\n      mstore\n        /* \"#utility.yul\":5691:5695   */\n      0x24\n        /* \"#utility.yul\":5688:5689   */\n      0x00\n        /* \"#utility.yul\":5681:5696   */\n      revert\n        /* \"#utility.yul\":5708:5879   */\n    tag_108:\n        /* \"#utility.yul\":5848:5871   */\n      0x496e646963652066756572612064652072616e676f0000000000000000000000\n        /* \"#utility.yul\":5844:5845   */\n      0x00\n        /* \"#utility.yul\":5836:5842   */\n      dup3\n        /* \"#utility.yul\":5832:5846   */\n      add\n        /* \"#utility.yul\":5825:5872   */\n      mstore\n        /* \"#utility.yul\":5708:5879   */\n      pop\n      jump\t// out\n        /* \"#utility.yul\":5885:6251   */\n    tag_109:\n        /* \"#utility.yul\":6027:6030   */\n      0x00\n        /* \"#utility.yul\":6048:6115   */\n      tag_174\n        /* \"#utility.yul\":6112:6114   */\n      0x15\n        /* \"#utility.yul\":6107:6110   */\n      dup4\n        /* \"#utility.yul\":6048:6115   */\n      tag_104\n      jump\t// in\n    tag_174:\n        /* \"#utility.yul\":6041:6115   */\n      swap2\n      pop\n        /* \"#utility.yul\":6124:6217   */\n      tag_175\n        /* \"#utility.yul\":6213:6216   */\n      dup3\n        /* \"#utility.yul\":6124:6217   */\n      tag_108\n      jump\t// in\n    tag_175:\n        /* \"#utility.yul\":6242:6244   */\n      0x20\n        /* \"#utility.yul\":6237:6240   */\n      dup3\n        /* \"#utility.yul\":6233:6245   */\n      add\n        /* \"#utility.yul\":6226:6245   */\n      swap1\n      pop\n        /* \"#utility.yul\":5885:6251   */\n      swap2\n      swap1\n      pop\n      jump\t// out\n        /* \"#utility.yul\":6257:6676   */\n    tag_81:\n        /* \"#utility.yul\":6423:6427   */\n      0x00\n        /* \"#utility.yul\":6461:6463   */\n      0x20\n        /* \"#utility.yul\":6450:6459   */\n      dup3\n        /* \"#utility.yul\":6446:6464   */\n      add\n        /* \"#utility.yul\":6438:6464   */\n      swap1\n      pop\n        /* \"#utility.yul\":6510:6519   */\n      dup2\n        /* \"#utility.yul\":6504:6508   */\n      dup2\n        /* \"#utility.yul\":6500:6520   */\n      sub\n        /* \"#utility.yul\":6496:6497   */\n      0x00\n        /* \"#utility.yul\":6485:6494   */\n      dup4\n        /* \"#utility.yul\":6481:6498   */\n      add\n        /* \"#utility.yul\":6474:6521   */\n      mstore\n        /* \"#utility.yul\":6538:6669   */\n      tag_177\n        /* \"#utility.yul\":6664:6668   */\n      dup2\n        /* \"#utility.yul\":6538:6669   */\n      tag_109\n      jump\t// in\n    tag_177:\n        /* \"#utility.yul\":6530:6669   */\n      swap1\n      pop\n        /* \"#utility.yul\":6257:6676   */\n      swap2\n      swap1\n      pop\n      jump\t// out\n\n    auxdata: 0xa26469706673582212203bafefb6ea365a4eb1dfd48c520c22399c1207ddd16d819e93eb31a17722a2f564736f6c634300081e0033\n}\n",
				"bytecode": {
					"linkReferences": {},
					"object": "6080604052348015600e575f5ffd5b50610b6f8061001c5f395ff3fe608060405234801561000f575f5ffd5b5060043610610086575f3560e01c8063949d225d11610059578063949d225d14610122578063bf32027014610140578063c2bc2efc14610171578063f6a3d24e146101a157610086565b80630cb6aaf11461008a57806329092d0e146100ba5780633825d828146100d6578063663037ac146100f2575b5f5ffd5b6100a4600480360381019061009f9190610807565b6101d1565b6040516100b19190610871565b60405180910390f35b6100d460048036038101906100cf91906108b4565b61020c565b005b6100f060048036038101906100eb91906108df565b61046d565b005b61010c60048036038101906101079190610807565b6105e8565b6040516101199190610871565b60405180910390f35b61012a610673565b604051610137919061092c565b60405180910390f35b61015a600480360381019061015591906108b4565b61067f565b60405161016892919061095f565b60405180910390f35b61018b600480360381019061018691906108b4565b6106aa565b604051610198919061092c565b60405180910390f35b6101bb60048036038101906101b691906108b4565b61077c565b6040516101c89190610986565b60405180910390f35b600181815481106101e0575f80fd5b905f5260205f20015f915054906101000a900473ffffffffffffffffffffffffffffffffffffffff1681565b5f5f8273ffffffffffffffffffffffffffffffffffffffff1673ffffffffffffffffffffffffffffffffffffffff1681526020019081526020015f206001015f9054906101000a900460ff16610297576040517f08c379a000000000000000000000000000000000000000000000000000000000815260040161028e906109f9565b60405180910390fd5b5f5f8273ffffffffffffffffffffffffffffffffffffffff1673ffffffffffffffffffffffffffffffffffffffff1681526020019081526020015f205f5f82015f9055600182015f6101000a81549060ff021916905550505f5f90505b600180549050811015610469578173ffffffffffffffffffffffffffffffffffffffff166001828154811061032c5761032b610a17565b5b905f5260205f20015f9054906101000a900473ffffffffffffffffffffffffffffffffffffffff1673ffffffffffffffffffffffffffffffffffffffff160361045c5760018080805490506103819190610a71565b8154811061039257610391610a17565b5b905f5260205f20015f9054906101000a900473ffffffffffffffffffffffffffffffffffffffff16600182815481106103ce576103cd610a17565b5b905f5260205f20015f6101000a81548173ffffffffffffffffffffffffffffffffffffffff021916908373ffffffffffffffffffffffffffffffffffffffff160217905550600180548061042557610424610aa4565b5b600190038181905f5260205f20015f6101000a81549073ffffffffffffffffffffffffffffffffffffffff02191690559055610469565b80806001019150506102f4565b5050565b5f5f8373ffffffffffffffffffffffffffffffffffffffff1673ffffffffffffffffffffffffffffffffffffffff1681526020019081526020015f206001015f9054906101000a900460ff166105a057600182908060018154018082558091505060019003905f5260205f20015f9091909190916101000a81548173ffffffffffffffffffffffffffffffffffffffff021916908373ffffffffffffffffffffffffffffffffffffffff1602179055506040518060400160405280828152602001600115158152505f5f8473ffffffffffffffffffffffffffffffffffffffff1673ffffffffffffffffffffffffffffffffffffffff1681526020019081526020015f205f820151815f01556020820151816001015f6101000a81548160ff0219169083151502179055509050506105e4565b805f5f8473ffffffffffffffffffffffffffffffffffffffff1673ffffffffffffffffffffffffffffffffffffffff1681526020019081526020015f205f01819055505b5050565b5f6001805490508210610630576040517f08c379a000000000000000000000000000000000000000000000000000000000815260040161062790610b1b565b60405180910390fd5b6001828154811061064457610643610a17565b5b905f5260205f20015f9054906101000a900473ffffffffffffffffffffffffffffffffffffffff169050919050565b5f600180549050905090565b5f602052805f5260405f205f91509050805f015490806001015f9054906101000a900460ff16905082565b5f5f5f8373ffffffffffffffffffffffffffffffffffffffff1673ffffffffffffffffffffffffffffffffffffffff1681526020019081526020015f206001015f9054906101000a900460ff16610736576040517f08c379a000000000000000000000000000000000000000000000000000000000815260040161072d906109f9565b60405180910390fd5b5f5f8373ffffffffffffffffffffffffffffffffffffffff1673ffffffffffffffffffffffffffffffffffffffff1681526020019081526020015f205f01549050919050565b5f5f5f8373ffffffffffffffffffffffffffffffffffffffff1673ffffffffffffffffffffffffffffffffffffffff1681526020019081526020015f206001015f9054906101000a900460ff169050919050565b5f5ffd5b5f819050919050565b6107e6816107d4565b81146107f0575f5ffd5b50565b5f81359050610801816107dd565b92915050565b5f6020828403121561081c5761081b6107d0565b5b5f610829848285016107f3565b91505092915050565b5f73ffffffffffffffffffffffffffffffffffffffff82169050919050565b5f61085b82610832565b9050919050565b61086b81610851565b82525050565b5f6020820190506108845f830184610862565b92915050565b61089381610851565b811461089d575f5ffd5b50565b5f813590506108ae8161088a565b92915050565b5f602082840312156108c9576108c86107d0565b5b5f6108d6848285016108a0565b91505092915050565b5f5f604083850312156108f5576108f46107d0565b5b5f610902858286016108a0565b9250506020610913858286016107f3565b9150509250929050565b610926816107d4565b82525050565b5f60208201905061093f5f83018461091d565b92915050565b5f8115159050919050565b61095981610945565b82525050565b5f6040820190506109725f83018561091d565b61097f6020830184610950565b9392505050565b5f6020820190506109995f830184610950565b92915050565b5f82825260208201905092915050565b7f4c6120636c617665206e6f2065786973746500000000000000000000000000005f82015250565b5f6109e360128361099f565b91506109ee826109af565b602082019050919050565b5f6020820190508181035f830152610a10816109d7565b9050919050565b7f4e487b71000000000000000000000000000000000000000000000000000000005f52603260045260245ffd5b7f4e487b71000000000000000000000000000000000000000000000000000000005f52601160045260245ffd5b5f610a7b826107d4565b9150610a86836107d4565b9250828203905081811115610a9e57610a9d610a44565b5b92915050565b7f4e487b71000000000000000000000000000000000000000000000000000000005f52603160045260245ffd5b7f496e646963652066756572612064652072616e676f00000000000000000000005f82015250565b5f610b0560158361099f565b9150610b1082610ad1565b602082019050919050565b5f6020820190508181035f830152610b3281610af9565b905091905056fea26469706673582212203bafefb6ea365a4eb1dfd48c520c22399c1207ddd16d819e93eb31a17722a2f564736f6c634300081e0033",
					"opcodes": "PUSH1 0x80 PUSH1 0x40 MSTORE CALLVALUE DUP1 ISZERO PUSH1 0xE JUMPI PUSH0 PUSH0 REVERT JUMPDEST POP PUSH2 0xB6F DUP1 PUSH2 0x1C PUSH0 CODECOPY PUSH0 RETURN INVALID PUSH1 0x80 PUSH1 0x40 MSTORE CALLVALUE DUP1 ISZERO PUSH2 0xF JUMPI PUSH0 PUSH0 REVERT JUMPDEST POP PUSH1 0x4 CALLDATASIZE LT PUSH2 0x86 JUMPI PUSH0 CALLDATALOAD PUSH1 0xE0 SHR DUP1 PUSH4 0x949D225D GT PUSH2 0x59 JUMPI DUP1 PUSH4 0x949D225D EQ PUSH2 0x122 JUMPI DUP1 PUSH4 0xBF320270 EQ PUSH2 0x140 JUMPI DUP1 PUSH4 0xC2BC2EFC EQ PUSH2 0x171 JUMPI DUP1 PUSH4 0xF6A3D24E EQ PUSH2 0x1A1 JUMPI PUSH2 0x86 JUMP JUMPDEST DUP1 PUSH4 0xCB6AAF1 EQ PUSH2 0x8A JUMPI DUP1 PUSH4 0x29092D0E EQ PUSH2 0xBA JUMPI DUP1 PUSH4 0x3825D828 EQ PUSH2 0xD6 JUMPI DUP1 PUSH4 0x663037AC EQ PUSH2 0xF2 JUMPI JUMPDEST PUSH0 PUSH0 REVERT JUMPDEST PUSH2 0xA4 PUSH1 0x4 DUP1 CALLDATASIZE SUB DUP2 ADD SWAP1 PUSH2 0x9F SWAP2 SWAP1 PUSH2 0x807 JUMP JUMPDEST PUSH2 0x1D1 JUMP JUMPDEST PUSH1 0x40 MLOAD PUSH2 0xB1 SWAP2 SWAP1 PUSH2 0x871 JUMP JUMPDEST PUSH1 0x40 MLOAD DUP1 SWAP2 SUB SWAP1 RETURN JUMPDEST PUSH2 0xD4 PUSH1 0x4 DUP1 CALLDATASIZE SUB DUP2 ADD SWAP1 PUSH2 0xCF SWAP2 SWAP1 PUSH2 0x8B4 JUMP JUMPDEST PUSH2 0x20C JUMP JUMPDEST STOP JUMPDEST PUSH2 0xF0 PUSH1 0x4 DUP1 CALLDATASIZE SUB DUP2 ADD SWAP1 PUSH2 0xEB SWAP2 SWAP1 PUSH2 0x8DF JUMP JUMPDEST PUSH2 0x46D JUMP JUMPDEST STOP JUMPDEST PUSH2 0x10C PUSH1 0x4 DUP1 CALLDATASIZE SUB DUP2 ADD SWAP1 PUSH2 0x107 SWAP2 SWAP1 PUSH2 0x807 JUMP JUMPDEST PUSH2 0x5E8 JUMP JUMPDEST PUSH1 0x40 MLOAD PUSH2 0x119 SWAP2 SWAP1 PUSH2 0x871 JUMP JUMPDEST PUSH1 0x40 MLOAD DUP1 SWAP2 SUB SWAP1 RETURN JUMPDEST PUSH2 0x12A PUSH2 0x673 JUMP JUMPDEST PUSH1 0x40 MLOAD PUSH2 0x137 SWAP2 SWAP1 PUSH2 0x92C JUMP JUMPDEST PUSH1 0x40 MLOAD DUP1 SWAP2 SUB SWAP1 RETURN JUMPDEST PUSH2 0x15A PUSH1 0x4 DUP1 CALLDATASIZE SUB DUP2 ADD SWAP1 PUSH2 0x155 SWAP2 SWAP1 PUSH2 0x8B4 JUMP JUMPDEST PUSH2 0x67F JUMP JUMPDEST PUSH1 0x40 MLOAD PUSH2 0x168 SWAP3 SWAP2 SWAP1 PUSH2 0x95F JUMP JUMPDEST PUSH1 0x40 MLOAD DUP1 SWAP2 SUB SWAP1 RETURN JUMPDEST PUSH2 0x18B PUSH1 0x4 DUP1 CALLDATASIZE SUB DUP2 ADD SWAP1 PUSH2 0x186 SWAP2 SWAP1 PUSH2 0x8B4 JUMP JUMPDEST PUSH2 0x6AA JUMP JUMPDEST PUSH1 0x40 MLOAD PUSH2 0x198 SWAP2 SWAP1 PUSH2 0x92C JUMP JUMPDEST PUSH1 0x40 MLOAD DUP1 SWAP2 SUB SWAP1 RETURN JUMPDEST PUSH2 0x1BB PUSH1 0x4 DUP1 CALLDATASIZE SUB DUP2 ADD SWAP1 PUSH2 0x1B6 SWAP2 SWAP1 PUSH2 0x8B4 JUMP JUMPDEST PUSH2 0x77C JUMP JUMPDEST PUSH1 0x40 MLOAD PUSH2 0x1C8 SWAP2 SWAP1 PUSH2 0x986 JUMP JUMPDEST PUSH1 0x40 MLOAD DUP1 SWAP2 SUB SWAP1 RETURN JUMPDEST PUSH1 0x1 DUP2 DUP2 SLOAD DUP2 LT PUSH2 0x1E0 JUMPI PUSH0 DUP1 REVERT JUMPDEST SWAP1 PUSH0 MSTORE PUSH1 0x20 PUSH0 KECCAK256 ADD PUSH0 SWAP2 POP SLOAD SWAP1 PUSH2 0x100 EXP SWAP1 DIV PUSH20 0xFFFFFFFFFFFFFFFFFFFFFFFFFFFFFFFFFFFFFFFF AND DUP2 JUMP JUMPDEST PUSH0 PUSH0 DUP3 PUSH20 0xFFFFFFFFFFFFFFFFFFFFFFFFFFFFFFFFFFFFFFFF AND PUSH20 0xFFFFFFFFFFFFFFFFFFFFFFFFFFFFFFFFFFFFFFFF AND DUP2 MSTORE PUSH1 0x20 ADD SWAP1 DUP2 MSTORE PUSH1 0x20 ADD PUSH0 KECCAK256 PUSH1 0x1 ADD PUSH0 SWAP1 SLOAD SWAP1 PUSH2 0x100 EXP SWAP1 DIV PUSH1 0xFF AND PUSH2 0x297 JUMPI PUSH1 0x40 MLOAD PUSH32 0x8C379A000000000000000000000000000000000000000000000000000000000 DUP2 MSTORE PUSH1 0x4 ADD PUSH2 0x28E SWAP1 PUSH2 0x9F9 JUMP JUMPDEST PUSH1 0x40 MLOAD DUP1 SWAP2 SUB SWAP1 REVERT JUMPDEST PUSH0 PUSH0 DUP3 PUSH20 0xFFFFFFFFFFFFFFFFFFFFFFFFFFFFFFFFFFFFFFFF AND PUSH20 0xFFFFFFFFFFFFFFFFFFFFFFFFFFFFFFFFFFFFFFFF AND DUP2 MSTORE PUSH1 0x20 ADD SWAP1 DUP2 MSTORE PUSH1 0x20 ADD PUSH0 KECCAK256 PUSH0 PUSH0 DUP3 ADD PUSH0 SWAP1 SSTORE PUSH1 0x1 DUP3 ADD PUSH0 PUSH2 0x100 EXP DUP2 SLOAD SWAP1 PUSH1 0xFF MUL NOT AND SWAP1 SSTORE POP POP PUSH0 PUSH0 SWAP1 POP JUMPDEST PUSH1 0x1 DUP1 SLOAD SWAP1 POP DUP2 LT ISZERO PUSH2 0x469 JUMPI DUP2 PUSH20 0xFFFFFFFFFFFFFFFFFFFFFFFFFFFFFFFFFFFFFFFF AND PUSH1 0x1 DUP3 DUP2 SLOAD DUP2 LT PUSH2 0x32C JUMPI PUSH2 0x32B PUSH2 0xA17 JUMP JUMPDEST JUMPDEST SWAP1 PUSH0 MSTORE PUSH1 0x20 PUSH0 KECCAK256 ADD PUSH0 SWAP1 SLOAD SWAP1 PUSH2 0x100 EXP SWAP1 DIV PUSH20 0xFFFFFFFFFFFFFFFFFFFFFFFFFFFFFFFFFFFFFFFF AND PUSH20 0xFFFFFFFFFFFFFFFFFFFFFFFFFFFFFFFFFFFFFFFF AND SUB PUSH2 0x45C JUMPI PUSH1 0x1 DUP1 DUP1 DUP1 SLOAD SWAP1 POP PUSH2 0x381 SWAP2 SWAP1 PUSH2 0xA71 JUMP JUMPDEST DUP2 SLOAD DUP2 LT PUSH2 0x392 JUMPI PUSH2 0x391 PUSH2 0xA17 JUMP JUMPDEST JUMPDEST SWAP1 PUSH0 MSTORE PUSH1 0x20 PUSH0 KECCAK256 ADD PUSH0 SWAP1 SLOAD SWAP1 PUSH2 0x100 EXP SWAP1 DIV PUSH20 0xFFFFFFFFFFFFFFFFFFFFFFFFFFFFFFFFFFFFFFFF AND PUSH1 0x1 DUP3 DUP2 SLOAD DUP2 LT PUSH2 0x3CE JUMPI PUSH2 0x3CD PUSH2 0xA17 JUMP JUMPDEST JUMPDEST SWAP1 PUSH0 MSTORE PUSH1 0x20 PUSH0 KECCAK256 ADD PUSH0 PUSH2 0x100 EXP DUP2 SLOAD DUP2 PUSH20 0xFFFFFFFFFFFFFFFFFFFFFFFFFFFFFFFFFFFFFFFF MUL NOT AND SWAP1 DUP4 PUSH20 0xFFFFFFFFFFFFFFFFFFFFFFFFFFFFFFFFFFFFFFFF AND MUL OR SWAP1 SSTORE POP PUSH1 0x1 DUP1 SLOAD DUP1 PUSH2 0x425 JUMPI PUSH2 0x424 PUSH2 0xAA4 JUMP JUMPDEST JUMPDEST PUSH1 0x1 SWAP1 SUB DUP2 DUP2 SWAP1 PUSH0 MSTORE PUSH1 0x20 PUSH0 KECCAK256 ADD PUSH0 PUSH2 0x100 EXP DUP2 SLOAD SWAP1 PUSH20 0xFFFFFFFFFFFFFFFFFFFFFFFFFFFFFFFFFFFFFFFF MUL NOT AND SWAP1 SSTORE SWAP1 SSTORE PUSH2 0x469 JUMP JUMPDEST DUP1 DUP1 PUSH1 0x1 ADD SWAP2 POP POP PUSH2 0x2F4 JUMP JUMPDEST POP POP JUMP JUMPDEST PUSH0 PUSH0 DUP4 PUSH20 0xFFFFFFFFFFFFFFFFFFFFFFFFFFFFFFFFFFFFFFFF AND PUSH20 0xFFFFFFFFFFFFFFFFFFFFFFFFFFFFFFFFFFFFFFFF AND DUP2 MSTORE PUSH1 0x20 ADD SWAP1 DUP2 MSTORE PUSH1 0x20 ADD PUSH0 KECCAK256 PUSH1 0x1 ADD PUSH0 SWAP1 SLOAD SWAP1 PUSH2 0x100 EXP SWAP1 DIV PUSH1 0xFF AND PUSH2 0x5A0 JUMPI PUSH1 0x1 DUP3 SWAP1 DUP1 PUSH1 0x1 DUP2 SLOAD ADD DUP1 DUP3 SSTORE DUP1 SWAP2 POP POP PUSH1 0x1 SWAP1 SUB SWAP1 PUSH0 MSTORE PUSH1 0x20 PUSH0 KECCAK256 ADD PUSH0 SWAP1 SWAP2 SWAP1 SWAP2 SWAP1 SWAP2 PUSH2 0x100 EXP DUP2 SLOAD DUP2 PUSH20 0xFFFFFFFFFFFFFFFFFFFFFFFFFFFFFFFFFFFFFFFF MUL NOT AND SWAP1 DUP4 PUSH20 0xFFFFFFFFFFFFFFFFFFFFFFFFFFFFFFFFFFFFFFFF AND MUL OR SWAP1 SSTORE POP PUSH1 0x40 MLOAD DUP1 PUSH1 0x40 ADD PUSH1 0x40 MSTORE DUP1 DUP3 DUP2 MSTORE PUSH1 0x20 ADD PUSH1 0x1 ISZERO ISZERO DUP2 MSTORE POP PUSH0 PUSH0 DUP5 PUSH20 0xFFFFFFFFFFFFFFFFFFFFFFFFFFFFFFFFFFFFFFFF AND PUSH20 0xFFFFFFFFFFFFFFFFFFFFFFFFFFFFFFFFFFFFFFFF AND DUP2 MSTORE PUSH1 0x20 ADD SWAP1 DUP2 MSTORE PUSH1 0x20 ADD PUSH0 KECCAK256 PUSH0 DUP3 ADD MLOAD DUP2 PUSH0 ADD SSTORE PUSH1 0x20 DUP3 ADD MLOAD DUP2 PUSH1 0x1 ADD PUSH0 PUSH2 0x100 EXP DUP2 SLOAD DUP2 PUSH1 0xFF MUL NOT AND SWAP1 DUP4 ISZERO ISZERO MUL OR SWAP1 SSTORE POP SWAP1 POP POP PUSH2 0x5E4 JUMP JUMPDEST DUP1 PUSH0 PUSH0 DUP5 PUSH20 0xFFFFFFFFFFFFFFFFFFFFFFFFFFFFFFFFFFFFFFFF AND PUSH20 0xFFFFFFFFFFFFFFFFFFFFFFFFFFFFFFFFFFFFFFFF AND DUP2 MSTORE PUSH1 0x20 ADD SWAP1 DUP2 MSTORE PUSH1 0x20 ADD PUSH0 KECCAK256 PUSH0 ADD DUP2 SWAP1 SSTORE POP JUMPDEST POP POP JUMP JUMPDEST PUSH0 PUSH1 0x1 DUP1 SLOAD SWAP1 POP DUP3 LT PUSH2 0x630 JUMPI PUSH1 0x40 MLOAD PUSH32 0x8C379A000000000000000000000000000000000000000000000000000000000 DUP2 MSTORE PUSH1 0x4 ADD PUSH2 0x627 SWAP1 PUSH2 0xB1B JUMP JUMPDEST PUSH1 0x40 MLOAD DUP1 SWAP2 SUB SWAP1 REVERT JUMPDEST PUSH1 0x1 DUP3 DUP2 SLOAD DUP2 LT PUSH2 0x644 JUMPI PUSH2 0x643 PUSH2 0xA17 JUMP JUMPDEST JUMPDEST SWAP1 PUSH0 MSTORE PUSH1 0x20 PUSH0 KECCAK256 ADD PUSH0 SWAP1 SLOAD SWAP1 PUSH2 0x100 EXP SWAP1 DIV PUSH20 0xFFFFFFFFFFFFFFFFFFFFFFFFFFFFFFFFFFFFFFFF AND SWAP1 POP SWAP2 SWAP1 POP JUMP JUMPDEST PUSH0 PUSH1 0x1 DUP1 SLOAD SWAP1 POP SWAP1 POP SWAP1 JUMP JUMPDEST PUSH0 PUSH1 0x20 MSTORE DUP1 PUSH0 MSTORE PUSH1 0x40 PUSH0 KECCAK256 PUSH0 SWAP2 POP SWAP1 POP DUP1 PUSH0 ADD SLOAD SWAP1 DUP1 PUSH1 0x1 ADD PUSH0 SWAP1 SLOAD SWAP1 PUSH2 0x100 EXP SWAP1 DIV PUSH1 0xFF AND SWAP1 POP DUP3 JUMP JUMPDEST PUSH0 PUSH0 PUSH0 DUP4 PUSH20 0xFFFFFFFFFFFFFFFFFFFFFFFFFFFFFFFFFFFFFFFF AND PUSH20 0xFFFFFFFFFFFFFFFFFFFFFFFFFFFFFFFFFFFFFFFF AND DUP2 MSTORE PUSH1 0x20 ADD SWAP1 DUP2 MSTORE PUSH1 0x20 ADD PUSH0 KECCAK256 PUSH1 0x1 ADD PUSH0 SWAP1 SLOAD SWAP1 PUSH2 0x100 EXP SWAP1 DIV PUSH1 0xFF AND PUSH2 0x736 JUMPI PUSH1 0x40 MLOAD PUSH32 0x8C379A000000000000000000000000000000000000000000000000000000000 DUP2 MSTORE PUSH1 0x4 ADD PUSH2 0x72D SWAP1 PUSH2 0x9F9 JUMP JUMPDEST PUSH1 0x40 MLOAD DUP1 SWAP2 SUB SWAP1 REVERT JUMPDEST PUSH0 PUSH0 DUP4 PUSH20 0xFFFFFFFFFFFFFFFFFFFFFFFFFFFFFFFFFFFFFFFF AND PUSH20 0xFFFFFFFFFFFFFFFFFFFFFFFFFFFFFFFFFFFFFFFF AND DUP2 MSTORE PUSH1 0x20 ADD SWAP1 DUP2 MSTORE PUSH1 0x20 ADD PUSH0 KECCAK256 PUSH0 ADD SLOAD SWAP1 POP SWAP2 SWAP1 POP JUMP JUMPDEST PUSH0 PUSH0 PUSH0 DUP4 PUSH20 0xFFFFFFFFFFFFFFFFFFFFFFFFFFFFFFFFFFFFFFFF AND PUSH20 0xFFFFFFFFFFFFFFFFFFFFFFFFFFFFFFFFFFFFFFFF AND DUP2 MSTORE PUSH1 0x20 ADD SWAP1 DUP2 MSTORE PUSH1 0x20 ADD PUSH0 KECCAK256 PUSH1 0x1 ADD PUSH0 SWAP1 SLOAD SWAP1 PUSH2 0x100 EXP SWAP1 DIV PUSH1 0xFF AND SWAP1 POP SWAP2 SWAP1 POP JUMP JUMPDEST PUSH0 PUSH0 REVERT JUMPDEST PUSH0 DUP2 SWAP1 POP SWAP2 SWAP1 POP JUMP JUMPDEST PUSH2 0x7E6 DUP2 PUSH2 0x7D4 JUMP JUMPDEST DUP2 EQ PUSH2 0x7F0 JUMPI PUSH0 PUSH0 REVERT JUMPDEST POP JUMP JUMPDEST PUSH0 DUP2 CALLDATALOAD SWAP1 POP PUSH2 0x801 DUP2 PUSH2 0x7DD JUMP JUMPDEST SWAP3 SWAP2 POP POP JUMP JUMPDEST PUSH0 PUSH1 0x20 DUP3 DUP5 SUB SLT ISZERO PUSH2 0x81C JUMPI PUSH2 0x81B PUSH2 0x7D0 JUMP JUMPDEST JUMPDEST PUSH0 PUSH2 0x829 DUP5 DUP3 DUP6 ADD PUSH2 0x7F3 JUMP JUMPDEST SWAP2 POP POP SWAP3 SWAP2 POP POP JUMP JUMPDEST PUSH0 PUSH20 0xFFFFFFFFFFFFFFFFFFFFFFFFFFFFFFFFFFFFFFFF DUP3 AND SWAP1 POP SWAP2 SWAP1 POP JUMP JUMPDEST PUSH0 PUSH2 0x85B DUP3 PUSH2 0x832 JUMP JUMPDEST SWAP1 POP SWAP2 SWAP1 POP JUMP JUMPDEST PUSH2 0x86B DUP2 PUSH2 0x851 JUMP JUMPDEST DUP3 MSTORE POP POP JUMP JUMPDEST PUSH0 PUSH1 0x20 DUP3 ADD SWAP1 POP PUSH2 0x884 PUSH0 DUP4 ADD DUP5 PUSH2 0x862 JUMP JUMPDEST SWAP3 SWAP2 POP POP JUMP JUMPDEST PUSH2 0x893 DUP2 PUSH2 0x851 JUMP JUMPDEST DUP2 EQ PUSH2 0x89D JUMPI PUSH0 PUSH0 REVERT JUMPDEST POP JUMP JUMPDEST PUSH0 DUP2 CALLDATALOAD SWAP1 POP PUSH2 0x8AE DUP2 PUSH2 0x88A JUMP JUMPDEST SWAP3 SWAP2 POP POP JUMP JUMPDEST PUSH0 PUSH1 0x20 DUP3 DUP5 SUB SLT ISZERO PUSH2 0x8C9 JUMPI PUSH2 0x8C8 PUSH2 0x7D0 JUMP JUMPDEST JUMPDEST PUSH0 PUSH2 0x8D6 DUP5 DUP3 DUP6 ADD PUSH2 0x8A0 JUMP JUMPDEST SWAP2 POP POP SWAP3 SWAP2 POP POP JUMP JUMPDEST PUSH0 PUSH0 PUSH1 0x40 DUP4 DUP6 SUB SLT ISZERO PUSH2 0x8F5 JUMPI PUSH2 0x8F4 PUSH2 0x7D0 JUMP JUMPDEST JUMPDEST PUSH0 PUSH2 0x902 DUP6 DUP3 DUP7 ADD PUSH2 0x8A0 JUMP JUMPDEST SWAP3 POP POP PUSH1 0x20 PUSH2 0x913 DUP6 DUP3 DUP7 ADD PUSH2 0x7F3 JUMP JUMPDEST SWAP2 POP POP SWAP3 POP SWAP3 SWAP1 POP JUMP JUMPDEST PUSH2 0x926 DUP2 PUSH2 0x7D4 JUMP JUMPDEST DUP3 MSTORE POP POP JUMP JUMPDEST PUSH0 PUSH1 0x20 DUP3 ADD SWAP1 POP PUSH2 0x93F PUSH0 DUP4 ADD DUP5 PUSH2 0x91D JUMP JUMPDEST SWAP3 SWAP2 POP POP JUMP JUMPDEST PUSH0 DUP2 ISZERO ISZERO SWAP1 POP SWAP2 SWAP1 POP JUMP JUMPDEST PUSH2 0x959 DUP2 PUSH2 0x945 JUMP JUMPDEST DUP3 MSTORE POP POP JUMP JUMPDEST PUSH0 PUSH1 0x40 DUP3 ADD SWAP1 POP PUSH2 0x972 PUSH0 DUP4 ADD DUP6 PUSH2 0x91D JUMP JUMPDEST PUSH2 0x97F PUSH1 0x20 DUP4 ADD DUP5 PUSH2 0x950 JUMP JUMPDEST SWAP4 SWAP3 POP POP POP JUMP JUMPDEST PUSH0 PUSH1 0x20 DUP3 ADD SWAP1 POP PUSH2 0x999 PUSH0 DUP4 ADD DUP5 PUSH2 0x950 JUMP JUMPDEST SWAP3 SWAP2 POP POP JUMP JUMPDEST PUSH0 DUP3 DUP3 MSTORE PUSH1 0x20 DUP3 ADD SWAP1 POP SWAP3 SWAP2 POP POP JUMP JUMPDEST PUSH32 0x4C6120636C617665206E6F206578697374650000000000000000000000000000 PUSH0 DUP3 ADD MSTORE POP JUMP JUMPDEST PUSH0 PUSH2 0x9E3 PUSH1 0x12 DUP4 PUSH2 0x99F JUMP JUMPDEST SWAP2 POP PUSH2 0x9EE DUP3 PUSH2 0x9AF JUMP JUMPDEST PUSH1 0x20 DUP3 ADD SWAP1 POP SWAP2 SWAP1 POP JUMP JUMPDEST PUSH0 PUSH1 0x20 DUP3 ADD SWAP1 POP DUP2 DUP2 SUB PUSH0 DUP4 ADD MSTORE PUSH2 0xA10 DUP2 PUSH2 0x9D7 JUMP JUMPDEST SWAP1 POP SWAP2 SWAP1 POP JUMP JUMPDEST PUSH32 0x4E487B7100000000000000000000000000000000000000000000000000000000 PUSH0 MSTORE PUSH1 0x32 PUSH1 0x4 MSTORE PUSH1 0x24 PUSH0 REVERT JUMPDEST PUSH32 0x4E487B7100000000000000000000000000000000000000000000000000000000 PUSH0 MSTORE PUSH1 0x11 PUSH1 0x4 MSTORE PUSH1 0x24 PUSH0 REVERT JUMPDEST PUSH0 PUSH2 0xA7B DUP3 PUSH2 0x7D4 JUMP JUMPDEST SWAP2 POP PUSH2 0xA86 DUP4 PUSH2 0x7D4 JUMP JUMPDEST SWAP3 POP DUP3 DUP3 SUB SWAP1 POP DUP2 DUP2 GT ISZERO PUSH2 0xA9E JUMPI PUSH2 0xA9D PUSH2 0xA44 JUMP JUMPDEST JUMPDEST SWAP3 SWAP2 POP POP JUMP JUMPDEST PUSH32 0x4E487B7100000000000000000000000000000000000000000000000000000000 PUSH0 MSTORE PUSH1 0x31 PUSH1 0x4 MSTORE PUSH1 0x24 PUSH0 REVERT JUMPDEST PUSH32 0x496E646963652066756572612064652072616E676F0000000000000000000000 PUSH0 DUP3 ADD MSTORE POP JUMP JUMPDEST PUSH0 PUSH2 0xB05 PUSH1 0x15 DUP4 PUSH2 0x99F JUMP JUMPDEST SWAP2 POP PUSH2 0xB10 DUP3 PUSH2 0xAD1 JUMP JUMPDEST PUSH1 0x20 DUP3 ADD SWAP1 POP SWAP2 SWAP1 POP JUMP JUMPDEST PUSH0 PUSH1 0x20 DUP3 ADD SWAP1 POP DUP2 DUP2 SUB PUSH0 DUP4 ADD MSTORE PUSH2 0xB32 DUP2 PUSH2 0xAF9 JUMP JUMPDEST SWAP1 POP SWAP2 SWAP1 POP JUMP INVALID LOG2 PUSH5 0x6970667358 0x22 SLT KECCAK256 EXTCODESIZE 0xAF 0xEF 0xB6 0xEA CALLDATASIZE GAS 0x4E 0xB1 0xDF 0xD4 DUP13 MSTORE 0xC 0x22 CODECOPY SWAP13 SLT SMOD 0xDD DATALOADN 0x6D81 SWAP15 SWAP4 0xEB BALANCE LOG1 PUSH24 0x22A2F564736F6C634300081E003300000000000000000000 "
				},
				"gasEstimates": {
					"creation": {
						"codeDepositCost": "585400",
						"executionCost": "617",
						"totalCost": "586017"
					},
					"external": {
						"dataMap(address)": "5088",
						"exists(address)": "2941",
						"get(address)": "5122",
						"getKeyAtIndex(uint256)": "7152",
						"keys(uint256)": "4945",
						"remove(address)": "infinite",
						"set(address,uint256)": "98058",
						"size()": "2440"
					}
				},
				"methodIdentifiers": {
					"dataMap(address)": "bf320270",
					"exists(address)": "f6a3d24e",
					"get(address)": "c2bc2efc",
					"getKeyAtIndex(uint256)": "663037ac",
					"keys(uint256)": "0cb6aaf1",
					"remove(address)": "29092d0e",
					"set(address,uint256)": "3825d828",
					"size()": "949d225d"
				}
			},
			"storageLayout": {
				"storage": [
					{
						"astId": 11,
						"contract": "PATRONES DE DISEÑO/PatronMapaIterable.sol:IterableMapping",
						"label": "dataMap",
						"offset": 0,
						"slot": "0",
						"type": "t_mapping(t_address,t_struct(MapData)6_storage)"
					},
					{
						"astId": 14,
						"contract": "PATRONES DE DISEÑO/PatronMapaIterable.sol:IterableMapping",
						"label": "keys",
						"offset": 0,
						"slot": "1",
						"type": "t_array(t_address)dyn_storage"
					}
				],
				"types": {
					"t_address": {
						"encoding": "inplace",
						"label": "address",
						"numberOfBytes": "20"
					},
					"t_array(t_address)dyn_storage": {
						"base": "t_address",
						"encoding": "dynamic_array",
						"label": "address[]",
						"numberOfBytes": "32"
					},
					"t_bool": {
						"encoding": "inplace",
						"label": "bool",
						"numberOfBytes": "1"
					},
					"t_mapping(t_address,t_struct(MapData)6_storage)": {
						"encoding": "mapping",
						"key": "t_address",
						"label": "mapping(address => struct IterableMapping.MapData)",
						"numberOfBytes": "32",
						"value": "t_struct(MapData)6_storage"
					},
					"t_struct(MapData)6_storage": {
						"encoding": "inplace",
						"label": "struct IterableMapping.MapData",
						"members": [
							{
								"astId": 3,
								"contract": "PATRONES DE DISEÑO/PatronMapaIterable.sol:IterableMapping",
								"label": "value",
								"offset": 0,
								"slot": "0",
								"type": "t_uint256"
							},
							{
								"astId": 5,
								"contract": "PATRONES DE DISEÑO/PatronMapaIterable.sol:IterableMapping",
								"label": "exists",
								"offset": 0,
								"slot": "1",
								"type": "t_bool"
							}
						],
						"numberOfBytes": "64"
					},
					"t_uint256": {
						"encoding": "inplace",
						"label": "uint256",
						"numberOfBytes": "32"
					}
				}
			},
			"userdoc": {
				"kind": "user",
				"methods": {},
				"version": 1
			}
		}
	}
}