{
	"data": {
		"bytecode": {
			"linkReferences": {},
			"object": "6080604052348015600e575f5ffd5b5060015f81905550612bd2806100235f395ff3fe608060405234801561000f575f5ffd5b5060043610610055575f3560e01c8063054d50d41461005957806338ed173914610089578063ac41865a146100b9578063baa2abde146100e9578063e8e337001461011a575b5f5ffd5b610073600480360381019061006e9190611a46565b61014c565b6040516100809190611aa5565b60405180910390f35b6100a3600480360381019061009e9190611b79565b6101d0565b6040516100b09190611cc6565b60405180910390f35b6100d360048036038101906100ce9190611ce6565b610799565b6040516100e09190611aa5565b60405180910390f35b61010360048036038101906100fe9190611d24565b61094a565b604051610111929190611dc1565b60405180910390f35b610134600480360381019061012f9190611de8565b610ef7565b60405161014393929190611e99565b60405180910390f35b5f5f8411801561015b57505f83115b801561016657505f82115b6101a5576040517f08c379a000000000000000000000000000000000000000000000000000000000815260040161019c90611f4e565b60405180910390fd5b83836101b19190611f99565b82856101bd9190611fcc565b6101c7919061203a565b90509392505050565b60606101da611210565b8142111561021d576040517f08c379a0000000000000000000000000000000000000000000000000000000008152600401610214906120b4565b60405180910390fd5b60028585905014610263576040517f08c379a000000000000000000000000000000000000000000000000000000000815260040161025a90612142565b60405180910390fd5b5f73ffffffffffffffffffffffffffffffffffffffff168373ffffffffffffffffffffffffffffffffffffffff16036102d1576040517f08c379a00000000000000000000000000000000000000000000000000000000081526004016102c8906121aa565b60405180910390fd5b5f8711610313576040517f08c379a000000000000000000000000000000000000000000000000000000000815260040161030a90612238565b60405180910390fd5b5f61036d86865f81811061032a57610329612256565b5b905060200201602081019061033f9190612283565b8787600181811061035357610352612256565b5b90506020020160208101906103689190612283565b611254565b90505f60015f8381526020019081526020015f2090505f5f6103df89895f81811061039b5761039a612256565b5b90506020020160208101906103b09190612283565b8a8a60018181106103c4576103c3612256565b5b90506020020160208101906103d99190612283565b856112e8565b915091505f821180156103f157505f81115b610430576040517f08c379a00000000000000000000000000000000000000000000000000000000081526004016104279061231e565b60405180910390fd5b5f61043c8c848461014c565b90508a811015610481576040517f08c379a000000000000000000000000000000000000000000000000000000000815260040161047890612386565b60405180910390fd5b89895f81811061049457610493612256565b5b90506020020160208101906104a99190612283565b73ffffffffffffffffffffffffffffffffffffffff166323b872dd33308f6040518463ffffffff1660e01b81526004016104e5939291906123b3565b6020604051808303815f875af1158015610501573d5f5f3e3d5ffd5b505050506040513d601f19601f82011682018060405250810190610525919061241d565b508989600181811061053a57610539612256565b5b905060200201602081019061054f9190612283565b73ffffffffffffffffffffffffffffffffffffffff1663a9059cbb89836040518363ffffffff1660e01b8152600401610589929190612448565b6020604051808303815f875af11580156105a5573d5f5f3e3d5ffd5b505050506040513d601f19601f820116820180604052508101906105c9919061241d565b506106268a8a5f8181106105e0576105df612256565b5b90506020020160208101906105f59190612283565b8b8b600181811061060957610608612256565b5b905060200201602081019061061e9190612283565b868f8561138f565b8989600181811061063a57610639612256565b5b905060200201602081019061064f9190612283565b73ffffffffffffffffffffffffffffffffffffffff168a8a5f81811061067857610677612256565b5b905060200201602081019061068d9190612283565b73ffffffffffffffffffffffffffffffffffffffff163373ffffffffffffffffffffffffffffffffffffffff167f78144de69c30989060d6bc0b4e6da9a31b6497866db952e683d0221e9cd201658f85426040516106ed93929190611e99565b60405180910390a4600267ffffffffffffffff8111156107105761070f61246f565b5b60405190808252806020026020018201604052801561073e5781602001602082028036833780820191505090505b5095508b865f8151811061075557610754612256565b5b602002602001018181525050808660018151811061077657610775612256565b5b602002602001018181525050505050505061078f61147f565b9695505050505050565b5f5f73ffffffffffffffffffffffffffffffffffffffff168373ffffffffffffffffffffffffffffffffffffffff161415801561080257505f73ffffffffffffffffffffffffffffffffffffffff168273ffffffffffffffffffffffffffffffffffffffff1614155b610841576040517f08c379a00000000000000000000000000000000000000000000000000000000081526004016108389061250c565b60405180910390fd5b5f61084c8484611254565b90505f60015f8381526020019081526020015f2090505f815f015411801561087757505f8160010154115b6108b6576040517f08c379a00000000000000000000000000000000000000000000000000000000081526004016108ad9061231e565b60405180910390fd5b8373ffffffffffffffffffffffffffffffffffffffff168573ffffffffffffffffffffffffffffffffffffffff16101561091957805f0154670de0b6b3a764000082600101546109069190611fcc565b610910919061203a565b92505050610944565b8060010154670de0b6b3a7640000825f01546109359190611fcc565b61093f919061203a565b925050505b92915050565b5f5f610954611210565b82421115610997576040517f08c379a000000000000000000000000000000000000000000000000000000000815260040161098e906120b4565b60405180910390fd5b5f73ffffffffffffffffffffffffffffffffffffffff168473ffffffffffffffffffffffffffffffffffffffff1603610a05576040517f08c379a00000000000000000000000000000000000000000000000000000000081526004016109fc906121aa565b60405180910390fd5b5f8711610a47576040517f08c379a0000000000000000000000000000000000000000000000000000000008152600401610a3e9061259a565b60405180910390fd5b5f610a528a8a611488565b5090505f610a608b8b611254565b90505f60015f8381526020019081526020015f20905089816003015f3373ffffffffffffffffffffffffffffffffffffffff1673ffffffffffffffffffffffffffffffffffffffff1681526020019081526020015f20541015610af8576040517f08c379a0000000000000000000000000000000000000000000000000000000008152600401610aef90612628565b60405180910390fd5b5f816002015411610b3e576040517f08c379a0000000000000000000000000000000000000000000000000000000008152600401610b35906126b6565b60405180910390fd5b5f8373ffffffffffffffffffffffffffffffffffffffff168d73ffffffffffffffffffffffffffffffffffffffff1614610b7c578160010154610b81565b815f01545b90505f8473ffffffffffffffffffffffffffffffffffffffff168e73ffffffffffffffffffffffffffffffffffffffff1614610bc057825f0154610bc6565b82600101545b90508260020154828d610bd99190611fcc565b610be3919061203a565b96508260020154818d610bf69190611fcc565b610c00919061203a565b95508a871015610c45576040517f08c379a0000000000000000000000000000000000000000000000000000000008152600401610c3c90612744565b60405180910390fd5b89861015610c88576040517f08c379a0000000000000000000000000000000000000000000000000000000008152600401610c7f906127d2565b60405180910390fd5b8b836002015f828254610c9b91906127f0565b925050819055508b836003015f3373ffffffffffffffffffffffffffffffffffffffff1673ffffffffffffffffffffffffffffffffffffffff1681526020019081526020015f205f828254610cf091906127f0565b925050819055508473ffffffffffffffffffffffffffffffffffffffff168e73ffffffffffffffffffffffffffffffffffffffff1603610d625786835f015f828254610d3c91906127f0565b9250508190555085836001015f828254610d5691906127f0565b92505081905550610d96565b85835f015f828254610d7491906127f0565b9250508190555086836001015f828254610d8e91906127f0565b925050819055505b8d73ffffffffffffffffffffffffffffffffffffffff1663a9059cbb8a896040518363ffffffff1660e01b8152600401610dd1929190612448565b6020604051808303815f875af1158015610ded573d5f5f3e3d5ffd5b505050506040513d601f19601f82011682018060405250810190610e11919061241d565b508c73ffffffffffffffffffffffffffffffffffffffff1663a9059cbb8a886040518363ffffffff1660e01b8152600401610e4d929190612448565b6020604051808303815f875af1158015610e69573d5f5f3e3d5ffd5b505050506040513d601f19601f82011682018060405250810190610e8d919061241d565b503373ffffffffffffffffffffffffffffffffffffffff167f96cd817c6329656790ef8fba7675405193677d39619571282f5e21f3a98cd0598888604051610ed6929190611dc1565b60405180910390a25050505050610eeb61147f565b97509795505050505050565b5f5f5f610f02611210565b83421115610f45576040517f08c379a0000000000000000000000000000000000000000000000000000000008152600401610f3c906120b4565b60405180910390fd5b5f73ffffffffffffffffffffffffffffffffffffffff168573ffffffffffffffffffffffffffffffffffffffff1603610fb3576040517f08c379a0000000000000000000000000000000000000000000000000000000008152600401610faa906121aa565b60405180910390fd5b5f610fbe8c8c611488565b5090505f610fcc8d8d611254565b90505f60015f8381526020019081526020015f209050610ff18e848e8e8e8e87611540565b8096508197508298505050508d73ffffffffffffffffffffffffffffffffffffffff166323b872dd3330896040518463ffffffff1660e01b815260040161103a939291906123b3565b6020604051808303815f875af1158015611056573d5f5f3e3d5ffd5b505050506040513d601f19601f8201168201806040525081019061107a919061241d565b508c73ffffffffffffffffffffffffffffffffffffffff166323b872dd3330886040518463ffffffff1660e01b81526004016110b8939291906123b3565b6020604051808303815f875af11580156110d4573d5f5f3e3d5ffd5b505050506040513d601f19601f820116820180604052508101906110f8919061241d565b506111068e84838989611734565b83816002015f8282546111199190611f99565b9250508190555083816003015f8a73ffffffffffffffffffffffffffffffffffffffff1673ffffffffffffffffffffffffffffffffffffffff1681526020019081526020015f205f82825461116e9190611f99565b925050819055508c73ffffffffffffffffffffffffffffffffffffffff168e73ffffffffffffffffffffffffffffffffffffffff163373ffffffffffffffffffffffffffffffffffffffff167fa0f0db586a2f0c2d74b358a03070427de39bb6895ab47557e77ea4cbf1f84f2e898989426040516111ef9493929190612823565b60405180910390a450505061120261147f565b985098509895505050505050565b60025f540361124b576040517f3ee5aeb500000000000000000000000000000000000000000000000000000000815260040160405180910390fd5b60025f81905550565b5f8173ffffffffffffffffffffffffffffffffffffffff168373ffffffffffffffffffffffffffffffffffffffff16106112b657818360405160200161129b9291906128ab565b604051602081830303815290604052805190602001206112e0565b82826040516020016112c99291906128ab565b604051602081830303815290604052805190602001205b905092915050565b5f5f5f5f8573ffffffffffffffffffffffffffffffffffffffff168773ffffffffffffffffffffffffffffffffffffffff16101561132b57869150859050611332565b8591508690505b8173ffffffffffffffffffffffffffffffffffffffff168773ffffffffffffffffffffffffffffffffffffffff160361137757845f0154935084600101549250611385565b84600101549350845f015492505b5050935093915050565b5f5f8573ffffffffffffffffffffffffffffffffffffffff168773ffffffffffffffffffffffffffffffffffffffff1610156113d0578691508590506113d7565b8591508690505b8173ffffffffffffffffffffffffffffffffffffffff168773ffffffffffffffffffffffffffffffffffffffff16036114425783855f015f82825461141c9190611f99565b9250508190555082856001015f82825461143691906127f0565b92505081905550611476565b83856001015f8282546114559190611f99565b9250508190555082855f015f82825461146e91906127f0565b925050819055505b50505050505050565b60015f81905550565b5f5f8273ffffffffffffffffffffffffffffffffffffffff168473ffffffffffffffffffffffffffffffffffffffff16036114f8576040517f08c379a00000000000000000000000000000000000000000000000000000000081526004016114ef90612946565b60405180910390fd5b8273ffffffffffffffffffffffffffffffffffffffff168473ffffffffffffffffffffffffffffffffffffffff1610611532578284611535565b83835b915091509250929050565b5f5f5f5f5f6115508c8c886117da565b915091505f8660020154036115cd578994508893505f8511801561157357505f84115b6115b2576040517f08c379a00000000000000000000000000000000000000000000000000000000081526004016115a9906129d4565b60405180910390fd5b6115c684866115c19190611fcc565b611837565b92506116e3565b5f82828c6115db9190611fcc565b6115e5919061203a565b905089811161163c5787811015611631576040517f08c379a000000000000000000000000000000000000000000000000000000000815260040161162890612a62565b60405180910390fd5b8a95508094506116a1565b5f82848c61164a9190611fcc565b611654919061203a565b905089811015611699576040517f08c379a000000000000000000000000000000000000000000000000000000000815260040161169090612af0565b60405180910390fd5b8096508a9550505b6116df838860020154886116b59190611fcc565b6116bf919061203a565b838960020154886116d09190611fcc565b6116da919061203a565b6119d1565b9350505b5f8311611725576040517f08c379a000000000000000000000000000000000000000000000000000000000815260040161171c90612b7e565b60405180910390fd5b50509750975097945050505050565b8373ffffffffffffffffffffffffffffffffffffffff168573ffffffffffffffffffffffffffffffffffffffff160361179f5781835f015f8282546117799190611f99565b9250508190555080836001015f8282546117939190611f99565b925050819055506117d3565b80835f015f8282546117b19190611f99565b9250508190555081836001015f8282546117cb9190611f99565b925050819055505b5050505050565b5f5f8373ffffffffffffffffffffffffffffffffffffffff168573ffffffffffffffffffffffffffffffffffffffff160361182157825f015491508260010154905061182f565b82600101549150825f015490505b935093915050565b5f60018211611848578190506119cc565b5f8290505f60019050700100000000000000000000000000000000821061187857608082901c9150604081901b90505b68010000000000000000821061189757604082901c9150602081901b90505b64010000000082106118b257602082901c9150601081901b90505b6201000082106118cb57601082901c9150600881901b90505b61010082106118e357600882901c9150600481901b90505b601082106118fa57600482901c9150600281901b90505b6004821061190a57600181901b90505b600181600302901c905060018185816119265761192561200d565b5b048201901c9050600181858161193f5761193e61200d565b5b048201901c905060018185816119585761195761200d565b5b048201901c905060018185816119715761197061200d565b5b048201901c9050600181858161198a5761198961200d565b5b048201901c905060018185816119a3576119a261200d565b5b048201901c90506119c58185816119bd576119bc61200d565b5b0482116119e7565b8103925050505b919050565b5f6119df82841084846119f2565b905092915050565b5f8115159050919050565b5f6119fc846119e7565b82841802821890509392505050565b5f5ffd5b5f5ffd5b5f819050919050565b611a2581611a13565b8114611a2f575f5ffd5b50565b5f81359050611a4081611a1c565b92915050565b5f5f5f60608486031215611a5d57611a5c611a0b565b5b5f611a6a86828701611a32565b9350506020611a7b86828701611a32565b9250506040611a8c86828701611a32565b9150509250925092565b611a9f81611a13565b82525050565b5f602082019050611ab85f830184611a96565b92915050565b5f5ffd5b5f5ffd5b5f5ffd5b5f5f83601f840112611adf57611ade611abe565b5b8235905067ffffffffffffffff811115611afc57611afb611ac2565b5b602083019150836020820283011115611b1857611b17611ac6565b5b9250929050565b5f73ffffffffffffffffffffffffffffffffffffffff82169050919050565b5f611b4882611b1f565b9050919050565b611b5881611b3e565b8114611b62575f5ffd5b50565b5f81359050611b7381611b4f565b92915050565b5f5f5f5f5f5f60a08789031215611b9357611b92611a0b565b5b5f611ba089828a01611a32565b9650506020611bb189828a01611a32565b955050604087013567ffffffffffffffff811115611bd257611bd1611a0f565b5b611bde89828a01611aca565b94509450506060611bf189828a01611b65565b9250506080611c0289828a01611a32565b9150509295509295509295565b5f81519050919050565b5f82825260208201905092915050565b5f819050602082019050919050565b611c4181611a13565b82525050565b5f611c528383611c38565b60208301905092915050565b5f602082019050919050565b5f611c7482611c0f565b611c7e8185611c19565b9350611c8983611c29565b805f5b83811015611cb9578151611ca08882611c47565b9750611cab83611c5e565b925050600181019050611c8c565b5085935050505092915050565b5f6020820190508181035f830152611cde8184611c6a565b905092915050565b5f5f60408385031215611cfc57611cfb611a0b565b5b5f611d0985828601611b65565b9250506020611d1a85828601611b65565b9150509250929050565b5f5f5f5f5f5f5f60e0888a031215611d3f57611d3e611a0b565b5b5f611d4c8a828b01611b65565b9750506020611d5d8a828b01611b65565b9650506040611d6e8a828b01611a32565b9550506060611d7f8a828b01611a32565b9450506080611d908a828b01611a32565b93505060a0611da18a828b01611b65565b92505060c0611db28a828b01611a32565b91505092959891949750929550565b5f604082019050611dd45f830185611a96565b611de16020830184611a96565b9392505050565b5f5f5f5f5f5f5f5f610100898b031215611e0557611e04611a0b565b5b5f611e128b828c01611b65565b9850506020611e238b828c01611b65565b9750506040611e348b828c01611a32565b9650506060611e458b828c01611a32565b9550506080611e568b828c01611a32565b94505060a0611e678b828c01611a32565b93505060c0611e788b828c01611b65565b92505060e0611e898b828c01611a32565b9150509295985092959890939650565b5f606082019050611eac5f830186611a96565b611eb96020830185611a96565b611ec66040830184611a96565b949350505050565b5f82825260208201905092915050565b7f53696d706c65537761703a20496e76616c6964206461746120666f72206f75745f8201527f70757420616d6f756e742063616c63756c6174696f6e00000000000000000000602082015250565b5f611f38603683611ece565b9150611f4382611ede565b604082019050919050565b5f6020820190508181035f830152611f6581611f2c565b9050919050565b7f4e487b71000000000000000000000000000000000000000000000000000000005f52601160045260245ffd5b5f611fa382611a13565b9150611fae83611a13565b9250828201905080821115611fc657611fc5611f6c565b5b92915050565b5f611fd682611a13565b9150611fe183611a13565b9250828202611fef81611a13565b9150828204841483151761200657612005611f6c565b5b5092915050565b7f4e487b71000000000000000000000000000000000000000000000000000000005f52601260045260245ffd5b5f61204482611a13565b915061204f83611a13565b92508261205f5761205e61200d565b5b828204905092915050565b7f53696d706c65537761703a205472616e73616374696f6e2065787069726564005f82015250565b5f61209e601f83611ece565b91506120a98261206a565b602082019050919050565b5f6020820190508181035f8301526120cb81612092565b9050919050565b7f53696d706c65537761703a204f6e6c79203120686f702028322d746f6b656e205f8201527f706174682920697320616c6c6f77656400000000000000000000000000000000602082015250565b5f61212c603083611ece565b9150612137826120d2565b604082019050919050565b5f6020820190508181035f83015261215981612120565b9050919050565b7f53696d706c65537761703a20496e76616c69642027746f2720616464726573735f82015250565b5f612194602083611ece565b915061219f82612160565b602082019050919050565b5f6020820190508181035f8301526121c181612188565b9050919050565b7f53696d706c65537761703a20496e70757420616d6f756e74206d7573742062655f8201527f203e203000000000000000000000000000000000000000000000000000000000602082015250565b5f612222602483611ece565b915061222d826121c8565b604082019050919050565b5f6020820190508181035f83015261224f81612216565b9050919050565b7f4e487b71000000000000000000000000000000000000000000000000000000005f52603260045260245ffd5b5f6020828403121561229857612297611a0b565b5b5f6122a584828501611b65565b91505092915050565b7f53696d706c65537761703a20506f6f6c20656d707479206f72206e6f206c69715f8201527f7569646974790000000000000000000000000000000000000000000000000000602082015250565b5f612308602683611ece565b9150612313826122ae565b604082019050919050565b5f6020820190508181035f830152612335816122fc565b9050919050565b7f53696d706c65537761703a2045786365737369766520736c69707061676500005f82015250565b5f612370601e83611ece565b915061237b8261233c565b602082019050919050565b5f6020820190508181035f83015261239d81612364565b9050919050565b6123ad81611b3e565b82525050565b5f6060820190506123c65f8301866123a4565b6123d360208301856123a4565b6123e06040830184611a96565b949350505050565b5f8115159050919050565b6123fc816123e8565b8114612406575f5ffd5b50565b5f81519050612417816123f3565b92915050565b5f6020828403121561243257612431611a0b565b5b5f61243f84828501612409565b91505092915050565b5f60408201905061245b5f8301856123a4565b6124686020830184611a96565b9392505050565b7f4e487b71000000000000000000000000000000000000000000000000000000005f52604160045260245ffd5b7f53696d706c65537761703a20496e76616c696420746f6b656e206164647265735f8201527f7365730000000000000000000000000000000000000000000000000000000000602082015250565b5f6124f6602383611ece565b91506125018261249c565b604082019050919050565b5f6020820190508181035f830152612523816124ea565b9050919050565b7f53696d706c65537761703a204c697175696469747920746f2072656d6f7665205f8201527f6d757374206265203e2030000000000000000000000000000000000000000000602082015250565b5f612584602b83611ece565b915061258f8261252a565b604082019050919050565b5f6020820190508181035f8301526125b181612578565b9050919050565b7f53696d706c65537761703a20496e73756666696369656e742075736572206c695f8201527f7175696469747900000000000000000000000000000000000000000000000000602082015250565b5f612612602783611ece565b915061261d826125b8565b604082019050919050565b5f6020820190508181035f83015261263f81612606565b9050919050565b7f53696d706c65537761703a204c697175696469747920706f6f6c20697320656d5f8201527f7074790000000000000000000000000000000000000000000000000000000000602082015250565b5f6126a0602383611ece565b91506126ab82612646565b604082019050919050565b5f6020820190508181035f8301526126cd81612694565b9050919050565b7f53696d706c65537761703a2045786365737369766520736c697070616765206f5f8201527f6e20546f6b656e2041207768656e2072656d6f76696e67000000000000000000602082015250565b5f61272e603783611ece565b9150612739826126d4565b604082019050919050565b5f6020820190508181035f83015261275b81612722565b9050919050565b7f53696d706c65537761703a2045786365737369766520736c697070616765206f5f8201527f6e20546f6b656e2042207768656e2072656d6f76696e67000000000000000000602082015250565b5f6127bc603783611ece565b91506127c782612762565b604082019050919050565b5f6020820190508181035f8301526127e9816127b0565b9050919050565b5f6127fa82611a13565b915061280583611a13565b925082820390508181111561281d5761281c611f6c565b5b92915050565b5f6080820190506128365f830187611a96565b6128436020830186611a96565b6128506040830185611a96565b61285d6060830184611a96565b95945050505050565b5f8160601b9050919050565b5f61287c82612866565b9050919050565b5f61288d82612872565b9050919050565b6128a56128a082611b3e565b612883565b82525050565b5f6128b68285612894565b6014820191506128c68284612894565b6014820191508190509392505050565b7f53696d706c65537761703a20546f6b656e73206d7573742062652064696666655f8201527f72656e7400000000000000000000000000000000000000000000000000000000602082015250565b5f612930602483611ece565b915061293b826128d6565b604082019050919050565b5f6020820190508181035f83015261295d81612924565b9050919050565b7f53696d706c65537761703a20496e697469616c20616d6f756e7473206d7573745f8201527f206265203e203000000000000000000000000000000000000000000000000000602082015250565b5f6129be602783611ece565b91506129c982612964565b604082019050919050565b5f6020820190508181035f8301526129eb816129b2565b9050919050565b7f53696d706c65537761703a2045786365737369766520736c697070616765206f5f8201527f6e20546f6b656e20420000000000000000000000000000000000000000000000602082015250565b5f612a4c602983611ece565b9150612a57826129f2565b604082019050919050565b5f6020820190508181035f830152612a7981612a40565b9050919050565b7f53696d706c65537761703a2045786365737369766520736c697070616765206f5f8201527f6e20546f6b656e20410000000000000000000000000000000000000000000000602082015250565b5f612ada602983611ece565b9150612ae582612a80565b604082019050919050565b5f6020820190508181035f830152612b0781612ace565b9050919050565b7f53696d706c65537761703a204c6971756964697479206d696e746564206d75735f8201527f74206265203e2030000000000000000000000000000000000000000000000000602082015250565b5f612b68602883611ece565b9150612b7382612b0e565b604082019050919050565b5f6020820190508181035f830152612b9581612b5c565b905091905056fea26469706673582212203b38cebde27df460df63da346b4c2e93e2f6a309a9248c918c6d46f382fbba3d64736f6c634300081b0033",
			"opcodes": "PUSH1 0x80 PUSH1 0x40 MSTORE CALLVALUE DUP1 ISZERO PUSH1 0xE JUMPI PUSH0 PUSH0 REVERT JUMPDEST POP PUSH1 0x1 PUSH0 DUP2 SWAP1 SSTORE POP PUSH2 0x2BD2 DUP1 PUSH2 0x23 PUSH0 CODECOPY PUSH0 RETURN INVALID PUSH1 0x80 PUSH1 0x40 MSTORE CALLVALUE DUP1 ISZERO PUSH2 0xF JUMPI PUSH0 PUSH0 REVERT JUMPDEST POP PUSH1 0x4 CALLDATASIZE LT PUSH2 0x55 JUMPI PUSH0 CALLDATALOAD PUSH1 0xE0 SHR DUP1 PUSH4 0x54D50D4 EQ PUSH2 0x59 JUMPI DUP1 PUSH4 0x38ED1739 EQ PUSH2 0x89 JUMPI DUP1 PUSH4 0xAC41865A EQ PUSH2 0xB9 JUMPI DUP1 PUSH4 0xBAA2ABDE EQ PUSH2 0xE9 JUMPI DUP1 PUSH4 0xE8E33700 EQ PUSH2 0x11A JUMPI JUMPDEST PUSH0 PUSH0 REVERT JUMPDEST PUSH2 0x73 PUSH1 0x4 DUP1 CALLDATASIZE SUB DUP2 ADD SWAP1 PUSH2 0x6E SWAP2 SWAP1 PUSH2 0x1A46 JUMP JUMPDEST PUSH2 0x14C JUMP JUMPDEST PUSH1 0x40 MLOAD PUSH2 0x80 SWAP2 SWAP1 PUSH2 0x1AA5 JUMP JUMPDEST PUSH1 0x40 MLOAD DUP1 SWAP2 SUB SWAP1 RETURN JUMPDEST PUSH2 0xA3 PUSH1 0x4 DUP1 CALLDATASIZE SUB DUP2 ADD SWAP1 PUSH2 0x9E SWAP2 SWAP1 PUSH2 0x1B79 JUMP JUMPDEST PUSH2 0x1D0 JUMP JUMPDEST PUSH1 0x40 MLOAD PUSH2 0xB0 SWAP2 SWAP1 PUSH2 0x1CC6 JUMP JUMPDEST PUSH1 0x40 MLOAD DUP1 SWAP2 SUB SWAP1 RETURN JUMPDEST PUSH2 0xD3 PUSH1 0x4 DUP1 CALLDATASIZE SUB DUP2 ADD SWAP1 PUSH2 0xCE SWAP2 SWAP1 PUSH2 0x1CE6 JUMP JUMPDEST PUSH2 0x799 JUMP JUMPDEST PUSH1 0x40 MLOAD PUSH2 0xE0 SWAP2 SWAP1 PUSH2 0x1AA5 JUMP JUMPDEST PUSH1 0x40 MLOAD DUP1 SWAP2 SUB SWAP1 RETURN JUMPDEST PUSH2 0x103 PUSH1 0x4 DUP1 CALLDATASIZE SUB DUP2 ADD SWAP1 PUSH2 0xFE SWAP2 SWAP1 PUSH2 0x1D24 JUMP JUMPDEST PUSH2 0x94A JUMP JUMPDEST PUSH1 0x40 MLOAD PUSH2 0x111 SWAP3 SWAP2 SWAP1 PUSH2 0x1DC1 JUMP JUMPDEST PUSH1 0x40 MLOAD DUP1 SWAP2 SUB SWAP1 RETURN JUMPDEST PUSH2 0x134 PUSH1 0x4 DUP1 CALLDATASIZE SUB DUP2 ADD SWAP1 PUSH2 0x12F SWAP2 SWAP1 PUSH2 0x1DE8 JUMP JUMPDEST PUSH2 0xEF7 JUMP JUMPDEST PUSH1 0x40 MLOAD PUSH2 0x143 SWAP4 SWAP3 SWAP2 SWAP1 PUSH2 0x1E99 JUMP JUMPDEST PUSH1 0x40 MLOAD DUP1 SWAP2 SUB SWAP1 RETURN JUMPDEST PUSH0 PUSH0 DUP5 GT DUP1 ISZERO PUSH2 0x15B JUMPI POP PUSH0 DUP4 GT JUMPDEST DUP1 ISZERO PUSH2 0x166 JUMPI POP PUSH0 DUP3 GT JUMPDEST PUSH2 0x1A5 JUMPI PUSH1 0x40 MLOAD PUSH32 0x8C379A000000000000000000000000000000000000000000000000000000000 DUP2 MSTORE PUSH1 0x4 ADD PUSH2 0x19C SWAP1 PUSH2 0x1F4E JUMP JUMPDEST PUSH1 0x40 MLOAD DUP1 SWAP2 SUB SWAP1 REVERT JUMPDEST DUP4 DUP4 PUSH2 0x1B1 SWAP2 SWAP1 PUSH2 0x1F99 JUMP JUMPDEST DUP3 DUP6 PUSH2 0x1BD SWAP2 SWAP1 PUSH2 0x1FCC JUMP JUMPDEST PUSH2 0x1C7 SWAP2 SWAP1 PUSH2 0x203A JUMP JUMPDEST SWAP1 POP SWAP4 SWAP3 POP POP POP JUMP JUMPDEST PUSH1 0x60 PUSH2 0x1DA PUSH2 0x1210 JUMP JUMPDEST DUP2 TIMESTAMP GT ISZERO PUSH2 0x21D JUMPI PUSH1 0x40 MLOAD PUSH32 0x8C379A000000000000000000000000000000000000000000000000000000000 DUP2 MSTORE PUSH1 0x4 ADD PUSH2 0x214 SWAP1 PUSH2 0x20B4 JUMP JUMPDEST PUSH1 0x40 MLOAD DUP1 SWAP2 SUB SWAP1 REVERT JUMPDEST PUSH1 0x2 DUP6 DUP6 SWAP1 POP EQ PUSH2 0x263 JUMPI PUSH1 0x40 MLOAD PUSH32 0x8C379A000000000000000000000000000000000000000000000000000000000 DUP2 MSTORE PUSH1 0x4 ADD PUSH2 0x25A SWAP1 PUSH2 0x2142 JUMP JUMPDEST PUSH1 0x40 MLOAD DUP1 SWAP2 SUB SWAP1 REVERT JUMPDEST PUSH0 PUSH20 0xFFFFFFFFFFFFFFFFFFFFFFFFFFFFFFFFFFFFFFFF AND DUP4 PUSH20 0xFFFFFFFFFFFFFFFFFFFFFFFFFFFFFFFFFFFFFFFF AND SUB PUSH2 0x2D1 JUMPI PUSH1 0x40 MLOAD PUSH32 0x8C379A000000000000000000000000000000000000000000000000000000000 DUP2 MSTORE PUSH1 0x4 ADD PUSH2 0x2C8 SWAP1 PUSH2 0x21AA JUMP JUMPDEST PUSH1 0x40 MLOAD DUP1 SWAP2 SUB SWAP1 REVERT JUMPDEST PUSH0 DUP8 GT PUSH2 0x313 JUMPI PUSH1 0x40 MLOAD PUSH32 0x8C379A000000000000000000000000000000000000000000000000000000000 DUP2 MSTORE PUSH1 0x4 ADD PUSH2 0x30A SWAP1 PUSH2 0x2238 JUMP JUMPDEST PUSH1 0x40 MLOAD DUP1 SWAP2 SUB SWAP1 REVERT JUMPDEST PUSH0 PUSH2 0x36D DUP7 DUP7 PUSH0 DUP2 DUP2 LT PUSH2 0x32A JUMPI PUSH2 0x329 PUSH2 0x2256 JUMP JUMPDEST JUMPDEST SWAP1 POP PUSH1 0x20 MUL ADD PUSH1 0x20 DUP2 ADD SWAP1 PUSH2 0x33F SWAP2 SWAP1 PUSH2 0x2283 JUMP JUMPDEST DUP8 DUP8 PUSH1 0x1 DUP2 DUP2 LT PUSH2 0x353 JUMPI PUSH2 0x352 PUSH2 0x2256 JUMP JUMPDEST JUMPDEST SWAP1 POP PUSH1 0x20 MUL ADD PUSH1 0x20 DUP2 ADD SWAP1 PUSH2 0x368 SWAP2 SWAP1 PUSH2 0x2283 JUMP JUMPDEST PUSH2 0x1254 JUMP JUMPDEST SWAP1 POP PUSH0 PUSH1 0x1 PUSH0 DUP4 DUP2 MSTORE PUSH1 0x20 ADD SWAP1 DUP2 MSTORE PUSH1 0x20 ADD PUSH0 KECCAK256 SWAP1 POP PUSH0 PUSH0 PUSH2 0x3DF DUP10 DUP10 PUSH0 DUP2 DUP2 LT PUSH2 0x39B JUMPI PUSH2 0x39A PUSH2 0x2256 JUMP JUMPDEST JUMPDEST SWAP1 POP PUSH1 0x20 MUL ADD PUSH1 0x20 DUP2 ADD SWAP1 PUSH2 0x3B0 SWAP2 SWAP1 PUSH2 0x2283 JUMP JUMPDEST DUP11 DUP11 PUSH1 0x1 DUP2 DUP2 LT PUSH2 0x3C4 JUMPI PUSH2 0x3C3 PUSH2 0x2256 JUMP JUMPDEST JUMPDEST SWAP1 POP PUSH1 0x20 MUL ADD PUSH1 0x20 DUP2 ADD SWAP1 PUSH2 0x3D9 SWAP2 SWAP1 PUSH2 0x2283 JUMP JUMPDEST DUP6 PUSH2 0x12E8 JUMP JUMPDEST SWAP2 POP SWAP2 POP PUSH0 DUP3 GT DUP1 ISZERO PUSH2 0x3F1 JUMPI POP PUSH0 DUP2 GT JUMPDEST PUSH2 0x430 JUMPI PUSH1 0x40 MLOAD PUSH32 0x8C379A000000000000000000000000000000000000000000000000000000000 DUP2 MSTORE PUSH1 0x4 ADD PUSH2 0x427 SWAP1 PUSH2 0x231E JUMP JUMPDEST PUSH1 0x40 MLOAD DUP1 SWAP2 SUB SWAP1 REVERT JUMPDEST PUSH0 PUSH2 0x43C DUP13 DUP5 DUP5 PUSH2 0x14C JUMP JUMPDEST SWAP1 POP DUP11 DUP2 LT ISZERO PUSH2 0x481 JUMPI PUSH1 0x40 MLOAD PUSH32 0x8C379A000000000000000000000000000000000000000000000000000000000 DUP2 MSTORE PUSH1 0x4 ADD PUSH2 0x478 SWAP1 PUSH2 0x2386 JUMP JUMPDEST PUSH1 0x40 MLOAD DUP1 SWAP2 SUB SWAP1 REVERT JUMPDEST DUP10 DUP10 PUSH0 DUP2 DUP2 LT PUSH2 0x494 JUMPI PUSH2 0x493 PUSH2 0x2256 JUMP JUMPDEST JUMPDEST SWAP1 POP PUSH1 0x20 MUL ADD PUSH1 0x20 DUP2 ADD SWAP1 PUSH2 0x4A9 SWAP2 SWAP1 PUSH2 0x2283 JUMP JUMPDEST PUSH20 0xFFFFFFFFFFFFFFFFFFFFFFFFFFFFFFFFFFFFFFFF AND PUSH4 0x23B872DD CALLER ADDRESS DUP16 PUSH1 0x40 MLOAD DUP5 PUSH4 0xFFFFFFFF AND PUSH1 0xE0 SHL DUP2 MSTORE PUSH1 0x4 ADD PUSH2 0x4E5 SWAP4 SWAP3 SWAP2 SWAP1 PUSH2 0x23B3 JUMP JUMPDEST PUSH1 0x20 PUSH1 0x40 MLOAD DUP1 DUP4 SUB DUP2 PUSH0 DUP8 GAS CALL ISZERO DUP1 ISZERO PUSH2 0x501 JUMPI RETURNDATASIZE PUSH0 PUSH0 RETURNDATACOPY RETURNDATASIZE PUSH0 REVERT JUMPDEST POP POP POP POP PUSH1 0x40 MLOAD RETURNDATASIZE PUSH1 0x1F NOT PUSH1 0x1F DUP3 ADD AND DUP3 ADD DUP1 PUSH1 0x40 MSTORE POP DUP2 ADD SWAP1 PUSH2 0x525 SWAP2 SWAP1 PUSH2 0x241D JUMP JUMPDEST POP DUP10 DUP10 PUSH1 0x1 DUP2 DUP2 LT PUSH2 0x53A JUMPI PUSH2 0x539 PUSH2 0x2256 JUMP JUMPDEST JUMPDEST SWAP1 POP PUSH1 0x20 MUL ADD PUSH1 0x20 DUP2 ADD SWAP1 PUSH2 0x54F SWAP2 SWAP1 PUSH2 0x2283 JUMP JUMPDEST PUSH20 0xFFFFFFFFFFFFFFFFFFFFFFFFFFFFFFFFFFFFFFFF AND PUSH4 0xA9059CBB DUP10 DUP4 PUSH1 0x40 MLOAD DUP4 PUSH4 0xFFFFFFFF AND PUSH1 0xE0 SHL DUP2 MSTORE PUSH1 0x4 ADD PUSH2 0x589 SWAP3 SWAP2 SWAP1 PUSH2 0x2448 JUMP JUMPDEST PUSH1 0x20 PUSH1 0x40 MLOAD DUP1 DUP4 SUB DUP2 PUSH0 DUP8 GAS CALL ISZERO DUP1 ISZERO PUSH2 0x5A5 JUMPI RETURNDATASIZE PUSH0 PUSH0 RETURNDATACOPY RETURNDATASIZE PUSH0 REVERT JUMPDEST POP POP POP POP PUSH1 0x40 MLOAD RETURNDATASIZE PUSH1 0x1F NOT PUSH1 0x1F DUP3 ADD AND DUP3 ADD DUP1 PUSH1 0x40 MSTORE POP DUP2 ADD SWAP1 PUSH2 0x5C9 SWAP2 SWAP1 PUSH2 0x241D JUMP JUMPDEST POP PUSH2 0x626 DUP11 DUP11 PUSH0 DUP2 DUP2 LT PUSH2 0x5E0 JUMPI PUSH2 0x5DF PUSH2 0x2256 JUMP JUMPDEST JUMPDEST SWAP1 POP PUSH1 0x20 MUL ADD PUSH1 0x20 DUP2 ADD SWAP1 PUSH2 0x5F5 SWAP2 SWAP1 PUSH2 0x2283 JUMP JUMPDEST DUP12 DUP12 PUSH1 0x1 DUP2 DUP2 LT PUSH2 0x609 JUMPI PUSH2 0x608 PUSH2 0x2256 JUMP JUMPDEST JUMPDEST SWAP1 POP PUSH1 0x20 MUL ADD PUSH1 0x20 DUP2 ADD SWAP1 PUSH2 0x61E SWAP2 SWAP1 PUSH2 0x2283 JUMP JUMPDEST DUP7 DUP16 DUP6 PUSH2 0x138F JUMP JUMPDEST DUP10 DUP10 PUSH1 0x1 DUP2 DUP2 LT PUSH2 0x63A JUMPI PUSH2 0x639 PUSH2 0x2256 JUMP JUMPDEST JUMPDEST SWAP1 POP PUSH1 0x20 MUL ADD PUSH1 0x20 DUP2 ADD SWAP1 PUSH2 0x64F SWAP2 SWAP1 PUSH2 0x2283 JUMP JUMPDEST PUSH20 0xFFFFFFFFFFFFFFFFFFFFFFFFFFFFFFFFFFFFFFFF AND DUP11 DUP11 PUSH0 DUP2 DUP2 LT PUSH2 0x678 JUMPI PUSH2 0x677 PUSH2 0x2256 JUMP JUMPDEST JUMPDEST SWAP1 POP PUSH1 0x20 MUL ADD PUSH1 0x20 DUP2 ADD SWAP1 PUSH2 0x68D SWAP2 SWAP1 PUSH2 0x2283 JUMP JUMPDEST PUSH20 0xFFFFFFFFFFFFFFFFFFFFFFFFFFFFFFFFFFFFFFFF AND CALLER PUSH20 0xFFFFFFFFFFFFFFFFFFFFFFFFFFFFFFFFFFFFFFFF AND PUSH32 0x78144DE69C30989060D6BC0B4E6DA9A31B6497866DB952E683D0221E9CD20165 DUP16 DUP6 TIMESTAMP PUSH1 0x40 MLOAD PUSH2 0x6ED SWAP4 SWAP3 SWAP2 SWAP1 PUSH2 0x1E99 JUMP JUMPDEST PUSH1 0x40 MLOAD DUP1 SWAP2 SUB SWAP1 LOG4 PUSH1 0x2 PUSH8 0xFFFFFFFFFFFFFFFF DUP2 GT ISZERO PUSH2 0x710 JUMPI PUSH2 0x70F PUSH2 0x246F JUMP JUMPDEST JUMPDEST PUSH1 0x40 MLOAD SWAP1 DUP1 DUP3 MSTORE DUP1 PUSH1 0x20 MUL PUSH1 0x20 ADD DUP3 ADD PUSH1 0x40 MSTORE DUP1 ISZERO PUSH2 0x73E JUMPI DUP2 PUSH1 0x20 ADD PUSH1 0x20 DUP3 MUL DUP1 CALLDATASIZE DUP4 CALLDATACOPY DUP1 DUP3 ADD SWAP2 POP POP SWAP1 POP JUMPDEST POP SWAP6 POP DUP12 DUP7 PUSH0 DUP2 MLOAD DUP2 LT PUSH2 0x755 JUMPI PUSH2 0x754 PUSH2 0x2256 JUMP JUMPDEST JUMPDEST PUSH1 0x20 MUL PUSH1 0x20 ADD ADD DUP2 DUP2 MSTORE POP POP DUP1 DUP7 PUSH1 0x1 DUP2 MLOAD DUP2 LT PUSH2 0x776 JUMPI PUSH2 0x775 PUSH2 0x2256 JUMP JUMPDEST JUMPDEST PUSH1 0x20 MUL PUSH1 0x20 ADD ADD DUP2 DUP2 MSTORE POP POP POP POP POP POP POP PUSH2 0x78F PUSH2 0x147F JUMP JUMPDEST SWAP7 SWAP6 POP POP POP POP POP POP JUMP JUMPDEST PUSH0 PUSH0 PUSH20 0xFFFFFFFFFFFFFFFFFFFFFFFFFFFFFFFFFFFFFFFF AND DUP4 PUSH20 0xFFFFFFFFFFFFFFFFFFFFFFFFFFFFFFFFFFFFFFFF AND EQ ISZERO DUP1 ISZERO PUSH2 0x802 JUMPI POP PUSH0 PUSH20 0xFFFFFFFFFFFFFFFFFFFFFFFFFFFFFFFFFFFFFFFF AND DUP3 PUSH20 0xFFFFFFFFFFFFFFFFFFFFFFFFFFFFFFFFFFFFFFFF AND EQ ISZERO JUMPDEST PUSH2 0x841 JUMPI PUSH1 0x40 MLOAD PUSH32 0x8C379A000000000000000000000000000000000000000000000000000000000 DUP2 MSTORE PUSH1 0x4 ADD PUSH2 0x838 SWAP1 PUSH2 0x250C JUMP JUMPDEST PUSH1 0x40 MLOAD DUP1 SWAP2 SUB SWAP1 REVERT JUMPDEST PUSH0 PUSH2 0x84C DUP5 DUP5 PUSH2 0x1254 JUMP JUMPDEST SWAP1 POP PUSH0 PUSH1 0x1 PUSH0 DUP4 DUP2 MSTORE PUSH1 0x20 ADD SWAP1 DUP2 MSTORE PUSH1 0x20 ADD PUSH0 KECCAK256 SWAP1 POP PUSH0 DUP2 PUSH0 ADD SLOAD GT DUP1 ISZERO PUSH2 0x877 JUMPI POP PUSH0 DUP2 PUSH1 0x1 ADD SLOAD GT JUMPDEST PUSH2 0x8B6 JUMPI PUSH1 0x40 MLOAD PUSH32 0x8C379A000000000000000000000000000000000000000000000000000000000 DUP2 MSTORE PUSH1 0x4 ADD PUSH2 0x8AD SWAP1 PUSH2 0x231E JUMP JUMPDEST PUSH1 0x40 MLOAD DUP1 SWAP2 SUB SWAP1 REVERT JUMPDEST DUP4 PUSH20 0xFFFFFFFFFFFFFFFFFFFFFFFFFFFFFFFFFFFFFFFF AND DUP6 PUSH20 0xFFFFFFFFFFFFFFFFFFFFFFFFFFFFFFFFFFFFFFFF AND LT ISZERO PUSH2 0x919 JUMPI DUP1 PUSH0 ADD SLOAD PUSH8 0xDE0B6B3A7640000 DUP3 PUSH1 0x1 ADD SLOAD PUSH2 0x906 SWAP2 SWAP1 PUSH2 0x1FCC JUMP JUMPDEST PUSH2 0x910 SWAP2 SWAP1 PUSH2 0x203A JUMP JUMPDEST SWAP3 POP POP POP PUSH2 0x944 JUMP JUMPDEST DUP1 PUSH1 0x1 ADD SLOAD PUSH8 0xDE0B6B3A7640000 DUP3 PUSH0 ADD SLOAD PUSH2 0x935 SWAP2 SWAP1 PUSH2 0x1FCC JUMP JUMPDEST PUSH2 0x93F SWAP2 SWAP1 PUSH2 0x203A JUMP JUMPDEST SWAP3 POP POP POP JUMPDEST SWAP3 SWAP2 POP POP JUMP JUMPDEST PUSH0 PUSH0 PUSH2 0x954 PUSH2 0x1210 JUMP JUMPDEST DUP3 TIMESTAMP GT ISZERO PUSH2 0x997 JUMPI PUSH1 0x40 MLOAD PUSH32 0x8C379A000000000000000000000000000000000000000000000000000000000 DUP2 MSTORE PUSH1 0x4 ADD PUSH2 0x98E SWAP1 PUSH2 0x20B4 JUMP JUMPDEST PUSH1 0x40 MLOAD DUP1 SWAP2 SUB SWAP1 REVERT JUMPDEST PUSH0 PUSH20 0xFFFFFFFFFFFFFFFFFFFFFFFFFFFFFFFFFFFFFFFF AND DUP5 PUSH20 0xFFFFFFFFFFFFFFFFFFFFFFFFFFFFFFFFFFFFFFFF AND SUB PUSH2 0xA05 JUMPI PUSH1 0x40 MLOAD PUSH32 0x8C379A000000000000000000000000000000000000000000000000000000000 DUP2 MSTORE PUSH1 0x4 ADD PUSH2 0x9FC SWAP1 PUSH2 0x21AA JUMP JUMPDEST PUSH1 0x40 MLOAD DUP1 SWAP2 SUB SWAP1 REVERT JUMPDEST PUSH0 DUP8 GT PUSH2 0xA47 JUMPI PUSH1 0x40 MLOAD PUSH32 0x8C379A000000000000000000000000000000000000000000000000000000000 DUP2 MSTORE PUSH1 0x4 ADD PUSH2 0xA3E SWAP1 PUSH2 0x259A JUMP JUMPDEST PUSH1 0x40 MLOAD DUP1 SWAP2 SUB SWAP1 REVERT JUMPDEST PUSH0 PUSH2 0xA52 DUP11 DUP11 PUSH2 0x1488 JUMP JUMPDEST POP SWAP1 POP PUSH0 PUSH2 0xA60 DUP12 DUP12 PUSH2 0x1254 JUMP JUMPDEST SWAP1 POP PUSH0 PUSH1 0x1 PUSH0 DUP4 DUP2 MSTORE PUSH1 0x20 ADD SWAP1 DUP2 MSTORE PUSH1 0x20 ADD PUSH0 KECCAK256 SWAP1 POP DUP10 DUP2 PUSH1 0x3 ADD PUSH0 CALLER PUSH20 0xFFFFFFFFFFFFFFFFFFFFFFFFFFFFFFFFFFFFFFFF AND PUSH20 0xFFFFFFFFFFFFFFFFFFFFFFFFFFFFFFFFFFFFFFFF AND DUP2 MSTORE PUSH1 0x20 ADD SWAP1 DUP2 MSTORE PUSH1 0x20 ADD PUSH0 KECCAK256 SLOAD LT ISZERO PUSH2 0xAF8 JUMPI PUSH1 0x40 MLOAD PUSH32 0x8C379A000000000000000000000000000000000000000000000000000000000 DUP2 MSTORE PUSH1 0x4 ADD PUSH2 0xAEF SWAP1 PUSH2 0x2628 JUMP JUMPDEST PUSH1 0x40 MLOAD DUP1 SWAP2 SUB SWAP1 REVERT JUMPDEST PUSH0 DUP2 PUSH1 0x2 ADD SLOAD GT PUSH2 0xB3E JUMPI PUSH1 0x40 MLOAD PUSH32 0x8C379A000000000000000000000000000000000000000000000000000000000 DUP2 MSTORE PUSH1 0x4 ADD PUSH2 0xB35 SWAP1 PUSH2 0x26B6 JUMP JUMPDEST PUSH1 0x40 MLOAD DUP1 SWAP2 SUB SWAP1 REVERT JUMPDEST PUSH0 DUP4 PUSH20 0xFFFFFFFFFFFFFFFFFFFFFFFFFFFFFFFFFFFFFFFF AND DUP14 PUSH20 0xFFFFFFFFFFFFFFFFFFFFFFFFFFFFFFFFFFFFFFFF AND EQ PUSH2 0xB7C JUMPI DUP2 PUSH1 0x1 ADD SLOAD PUSH2 0xB81 JUMP JUMPDEST DUP2 PUSH0 ADD SLOAD JUMPDEST SWAP1 POP PUSH0 DUP5 PUSH20 0xFFFFFFFFFFFFFFFFFFFFFFFFFFFFFFFFFFFFFFFF AND DUP15 PUSH20 0xFFFFFFFFFFFFFFFFFFFFFFFFFFFFFFFFFFFFFFFF AND EQ PUSH2 0xBC0 JUMPI DUP3 PUSH0 ADD SLOAD PUSH2 0xBC6 JUMP JUMPDEST DUP3 PUSH1 0x1 ADD SLOAD JUMPDEST SWAP1 POP DUP3 PUSH1 0x2 ADD SLOAD DUP3 DUP14 PUSH2 0xBD9 SWAP2 SWAP1 PUSH2 0x1FCC JUMP JUMPDEST PUSH2 0xBE3 SWAP2 SWAP1 PUSH2 0x203A JUMP JUMPDEST SWAP7 POP DUP3 PUSH1 0x2 ADD SLOAD DUP2 DUP14 PUSH2 0xBF6 SWAP2 SWAP1 PUSH2 0x1FCC JUMP JUMPDEST PUSH2 0xC00 SWAP2 SWAP1 PUSH2 0x203A JUMP JUMPDEST SWAP6 POP DUP11 DUP8 LT ISZERO PUSH2 0xC45 JUMPI PUSH1 0x40 MLOAD PUSH32 0x8C379A000000000000000000000000000000000000000000000000000000000 DUP2 MSTORE PUSH1 0x4 ADD PUSH2 0xC3C SWAP1 PUSH2 0x2744 JUMP JUMPDEST PUSH1 0x40 MLOAD DUP1 SWAP2 SUB SWAP1 REVERT JUMPDEST DUP10 DUP7 LT ISZERO PUSH2 0xC88 JUMPI PUSH1 0x40 MLOAD PUSH32 0x8C379A000000000000000000000000000000000000000000000000000000000 DUP2 MSTORE PUSH1 0x4 ADD PUSH2 0xC7F SWAP1 PUSH2 0x27D2 JUMP JUMPDEST PUSH1 0x40 MLOAD DUP1 SWAP2 SUB SWAP1 REVERT JUMPDEST DUP12 DUP4 PUSH1 0x2 ADD PUSH0 DUP3 DUP3 SLOAD PUSH2 0xC9B SWAP2 SWAP1 PUSH2 0x27F0 JUMP JUMPDEST SWAP3 POP POP DUP2 SWAP1 SSTORE POP DUP12 DUP4 PUSH1 0x3 ADD PUSH0 CALLER PUSH20 0xFFFFFFFFFFFFFFFFFFFFFFFFFFFFFFFFFFFFFFFF AND PUSH20 0xFFFFFFFFFFFFFFFFFFFFFFFFFFFFFFFFFFFFFFFF AND DUP2 MSTORE PUSH1 0x20 ADD SWAP1 DUP2 MSTORE PUSH1 0x20 ADD PUSH0 KECCAK256 PUSH0 DUP3 DUP3 SLOAD PUSH2 0xCF0 SWAP2 SWAP1 PUSH2 0x27F0 JUMP JUMPDEST SWAP3 POP POP DUP2 SWAP1 SSTORE POP DUP5 PUSH20 0xFFFFFFFFFFFFFFFFFFFFFFFFFFFFFFFFFFFFFFFF AND DUP15 PUSH20 0xFFFFFFFFFFFFFFFFFFFFFFFFFFFFFFFFFFFFFFFF AND SUB PUSH2 0xD62 JUMPI DUP7 DUP4 PUSH0 ADD PUSH0 DUP3 DUP3 SLOAD PUSH2 0xD3C SWAP2 SWAP1 PUSH2 0x27F0 JUMP JUMPDEST SWAP3 POP POP DUP2 SWAP1 SSTORE POP DUP6 DUP4 PUSH1 0x1 ADD PUSH0 DUP3 DUP3 SLOAD PUSH2 0xD56 SWAP2 SWAP1 PUSH2 0x27F0 JUMP JUMPDEST SWAP3 POP POP DUP2 SWAP1 SSTORE POP PUSH2 0xD96 JUMP JUMPDEST DUP6 DUP4 PUSH0 ADD PUSH0 DUP3 DUP3 SLOAD PUSH2 0xD74 SWAP2 SWAP1 PUSH2 0x27F0 JUMP JUMPDEST SWAP3 POP POP DUP2 SWAP1 SSTORE POP DUP7 DUP4 PUSH1 0x1 ADD PUSH0 DUP3 DUP3 SLOAD PUSH2 0xD8E SWAP2 SWAP1 PUSH2 0x27F0 JUMP JUMPDEST SWAP3 POP POP DUP2 SWAP1 SSTORE POP JUMPDEST DUP14 PUSH20 0xFFFFFFFFFFFFFFFFFFFFFFFFFFFFFFFFFFFFFFFF AND PUSH4 0xA9059CBB DUP11 DUP10 PUSH1 0x40 MLOAD DUP4 PUSH4 0xFFFFFFFF AND PUSH1 0xE0 SHL DUP2 MSTORE PUSH1 0x4 ADD PUSH2 0xDD1 SWAP3 SWAP2 SWAP1 PUSH2 0x2448 JUMP JUMPDEST PUSH1 0x20 PUSH1 0x40 MLOAD DUP1 DUP4 SUB DUP2 PUSH0 DUP8 GAS CALL ISZERO DUP1 ISZERO PUSH2 0xDED JUMPI RETURNDATASIZE PUSH0 PUSH0 RETURNDATACOPY RETURNDATASIZE PUSH0 REVERT JUMPDEST POP POP POP POP PUSH1 0x40 MLOAD RETURNDATASIZE PUSH1 0x1F NOT PUSH1 0x1F DUP3 ADD AND DUP3 ADD DUP1 PUSH1 0x40 MSTORE POP DUP2 ADD SWAP1 PUSH2 0xE11 SWAP2 SWAP1 PUSH2 0x241D JUMP JUMPDEST POP DUP13 PUSH20 0xFFFFFFFFFFFFFFFFFFFFFFFFFFFFFFFFFFFFFFFF AND PUSH4 0xA9059CBB DUP11 DUP9 PUSH1 0x40 MLOAD DUP4 PUSH4 0xFFFFFFFF AND PUSH1 0xE0 SHL DUP2 MSTORE PUSH1 0x4 ADD PUSH2 0xE4D SWAP3 SWAP2 SWAP1 PUSH2 0x2448 JUMP JUMPDEST PUSH1 0x20 PUSH1 0x40 MLOAD DUP1 DUP4 SUB DUP2 PUSH0 DUP8 GAS CALL ISZERO DUP1 ISZERO PUSH2 0xE69 JUMPI RETURNDATASIZE PUSH0 PUSH0 RETURNDATACOPY RETURNDATASIZE PUSH0 REVERT JUMPDEST POP POP POP POP PUSH1 0x40 MLOAD RETURNDATASIZE PUSH1 0x1F NOT PUSH1 0x1F DUP3 ADD AND DUP3 ADD DUP1 PUSH1 0x40 MSTORE POP DUP2 ADD SWAP1 PUSH2 0xE8D SWAP2 SWAP1 PUSH2 0x241D JUMP JUMPDEST POP CALLER PUSH20 0xFFFFFFFFFFFFFFFFFFFFFFFFFFFFFFFFFFFFFFFF AND PUSH32 0x96CD817C6329656790EF8FBA7675405193677D39619571282F5E21F3A98CD059 DUP9 DUP9 PUSH1 0x40 MLOAD PUSH2 0xED6 SWAP3 SWAP2 SWAP1 PUSH2 0x1DC1 JUMP JUMPDEST PUSH1 0x40 MLOAD DUP1 SWAP2 SUB SWAP1 LOG2 POP POP POP POP POP PUSH2 0xEEB PUSH2 0x147F JUMP JUMPDEST SWAP8 POP SWAP8 SWAP6 POP POP POP POP POP POP JUMP JUMPDEST PUSH0 PUSH0 PUSH0 PUSH2 0xF02 PUSH2 0x1210 JUMP JUMPDEST DUP4 TIMESTAMP GT ISZERO PUSH2 0xF45 JUMPI PUSH1 0x40 MLOAD PUSH32 0x8C379A000000000000000000000000000000000000000000000000000000000 DUP2 MSTORE PUSH1 0x4 ADD PUSH2 0xF3C SWAP1 PUSH2 0x20B4 JUMP JUMPDEST PUSH1 0x40 MLOAD DUP1 SWAP2 SUB SWAP1 REVERT JUMPDEST PUSH0 PUSH20 0xFFFFFFFFFFFFFFFFFFFFFFFFFFFFFFFFFFFFFFFF AND DUP6 PUSH20 0xFFFFFFFFFFFFFFFFFFFFFFFFFFFFFFFFFFFFFFFF AND SUB PUSH2 0xFB3 JUMPI PUSH1 0x40 MLOAD PUSH32 0x8C379A000000000000000000000000000000000000000000000000000000000 DUP2 MSTORE PUSH1 0x4 ADD PUSH2 0xFAA SWAP1 PUSH2 0x21AA JUMP JUMPDEST PUSH1 0x40 MLOAD DUP1 SWAP2 SUB SWAP1 REVERT JUMPDEST PUSH0 PUSH2 0xFBE DUP13 DUP13 PUSH2 0x1488 JUMP JUMPDEST POP SWAP1 POP PUSH0 PUSH2 0xFCC DUP14 DUP14 PUSH2 0x1254 JUMP JUMPDEST SWAP1 POP PUSH0 PUSH1 0x1 PUSH0 DUP4 DUP2 MSTORE PUSH1 0x20 ADD SWAP1 DUP2 MSTORE PUSH1 0x20 ADD PUSH0 KECCAK256 SWAP1 POP PUSH2 0xFF1 DUP15 DUP5 DUP15 DUP15 DUP15 DUP15 DUP8 PUSH2 0x1540 JUMP JUMPDEST DUP1 SWAP7 POP DUP2 SWAP8 POP DUP3 SWAP9 POP POP POP POP DUP14 PUSH20 0xFFFFFFFFFFFFFFFFFFFFFFFFFFFFFFFFFFFFFFFF AND PUSH4 0x23B872DD CALLER ADDRESS DUP10 PUSH1 0x40 MLOAD DUP5 PUSH4 0xFFFFFFFF AND PUSH1 0xE0 SHL DUP2 MSTORE PUSH1 0x4 ADD PUSH2 0x103A SWAP4 SWAP3 SWAP2 SWAP1 PUSH2 0x23B3 JUMP JUMPDEST PUSH1 0x20 PUSH1 0x40 MLOAD DUP1 DUP4 SUB DUP2 PUSH0 DUP8 GAS CALL ISZERO DUP1 ISZERO PUSH2 0x1056 JUMPI RETURNDATASIZE PUSH0 PUSH0 RETURNDATACOPY RETURNDATASIZE PUSH0 REVERT JUMPDEST POP POP POP POP PUSH1 0x40 MLOAD RETURNDATASIZE PUSH1 0x1F NOT PUSH1 0x1F DUP3 ADD AND DUP3 ADD DUP1 PUSH1 0x40 MSTORE POP DUP2 ADD SWAP1 PUSH2 0x107A SWAP2 SWAP1 PUSH2 0x241D JUMP JUMPDEST POP DUP13 PUSH20 0xFFFFFFFFFFFFFFFFFFFFFFFFFFFFFFFFFFFFFFFF AND PUSH4 0x23B872DD CALLER ADDRESS DUP9 PUSH1 0x40 MLOAD DUP5 PUSH4 0xFFFFFFFF AND PUSH1 0xE0 SHL DUP2 MSTORE PUSH1 0x4 ADD PUSH2 0x10B8 SWAP4 SWAP3 SWAP2 SWAP1 PUSH2 0x23B3 JUMP JUMPDEST PUSH1 0x20 PUSH1 0x40 MLOAD DUP1 DUP4 SUB DUP2 PUSH0 DUP8 GAS CALL ISZERO DUP1 ISZERO PUSH2 0x10D4 JUMPI RETURNDATASIZE PUSH0 PUSH0 RETURNDATACOPY RETURNDATASIZE PUSH0 REVERT JUMPDEST POP POP POP POP PUSH1 0x40 MLOAD RETURNDATASIZE PUSH1 0x1F NOT PUSH1 0x1F DUP3 ADD AND DUP3 ADD DUP1 PUSH1 0x40 MSTORE POP DUP2 ADD SWAP1 PUSH2 0x10F8 SWAP2 SWAP1 PUSH2 0x241D JUMP JUMPDEST POP PUSH2 0x1106 DUP15 DUP5 DUP4 DUP10 DUP10 PUSH2 0x1734 JUMP JUMPDEST DUP4 DUP2 PUSH1 0x2 ADD PUSH0 DUP3 DUP3 SLOAD PUSH2 0x1119 SWAP2 SWAP1 PUSH2 0x1F99 JUMP JUMPDEST SWAP3 POP POP DUP2 SWAP1 SSTORE POP DUP4 DUP2 PUSH1 0x3 ADD PUSH0 DUP11 PUSH20 0xFFFFFFFFFFFFFFFFFFFFFFFFFFFFFFFFFFFFFFFF AND PUSH20 0xFFFFFFFFFFFFFFFFFFFFFFFFFFFFFFFFFFFFFFFF AND DUP2 MSTORE PUSH1 0x20 ADD SWAP1 DUP2 MSTORE PUSH1 0x20 ADD PUSH0 KECCAK256 PUSH0 DUP3 DUP3 SLOAD PUSH2 0x116E SWAP2 SWAP1 PUSH2 0x1F99 JUMP JUMPDEST SWAP3 POP POP DUP2 SWAP1 SSTORE POP DUP13 PUSH20 0xFFFFFFFFFFFFFFFFFFFFFFFFFFFFFFFFFFFFFFFF AND DUP15 PUSH20 0xFFFFFFFFFFFFFFFFFFFFFFFFFFFFFFFFFFFFFFFF AND CALLER PUSH20 0xFFFFFFFFFFFFFFFFFFFFFFFFFFFFFFFFFFFFFFFF AND PUSH32 0xA0F0DB586A2F0C2D74B358A03070427DE39BB6895AB47557E77EA4CBF1F84F2E DUP10 DUP10 DUP10 TIMESTAMP PUSH1 0x40 MLOAD PUSH2 0x11EF SWAP5 SWAP4 SWAP3 SWAP2 SWAP1 PUSH2 0x2823 JUMP JUMPDEST PUSH1 0x40 MLOAD DUP1 SWAP2 SUB SWAP1 LOG4 POP POP POP PUSH2 0x1202 PUSH2 0x147F JUMP JUMPDEST SWAP9 POP SWAP9 POP SWAP9 SWAP6 POP POP POP POP POP POP JUMP JUMPDEST PUSH1 0x2 PUSH0 SLOAD SUB PUSH2 0x124B JUMPI PUSH1 0x40 MLOAD PUSH32 0x3EE5AEB500000000000000000000000000000000000000000000000000000000 DUP2 MSTORE PUSH1 0x4 ADD PUSH1 0x40 MLOAD DUP1 SWAP2 SUB SWAP1 REVERT JUMPDEST PUSH1 0x2 PUSH0 DUP2 SWAP1 SSTORE POP JUMP JUMPDEST PUSH0 DUP2 PUSH20 0xFFFFFFFFFFFFFFFFFFFFFFFFFFFFFFFFFFFFFFFF AND DUP4 PUSH20 0xFFFFFFFFFFFFFFFFFFFFFFFFFFFFFFFFFFFFFFFF AND LT PUSH2 0x12B6 JUMPI DUP2 DUP4 PUSH1 0x40 MLOAD PUSH1 0x20 ADD PUSH2 0x129B SWAP3 SWAP2 SWAP1 PUSH2 0x28AB JUMP JUMPDEST PUSH1 0x40 MLOAD PUSH1 0x20 DUP2 DUP4 SUB SUB DUP2 MSTORE SWAP1 PUSH1 0x40 MSTORE DUP1 MLOAD SWAP1 PUSH1 0x20 ADD KECCAK256 PUSH2 0x12E0 JUMP JUMPDEST DUP3 DUP3 PUSH1 0x40 MLOAD PUSH1 0x20 ADD PUSH2 0x12C9 SWAP3 SWAP2 SWAP1 PUSH2 0x28AB JUMP JUMPDEST PUSH1 0x40 MLOAD PUSH1 0x20 DUP2 DUP4 SUB SUB DUP2 MSTORE SWAP1 PUSH1 0x40 MSTORE DUP1 MLOAD SWAP1 PUSH1 0x20 ADD KECCAK256 JUMPDEST SWAP1 POP SWAP3 SWAP2 POP POP JUMP JUMPDEST PUSH0 PUSH0 PUSH0 PUSH0 DUP6 PUSH20 0xFFFFFFFFFFFFFFFFFFFFFFFFFFFFFFFFFFFFFFFF AND DUP8 PUSH20 0xFFFFFFFFFFFFFFFFFFFFFFFFFFFFFFFFFFFFFFFF AND LT ISZERO PUSH2 0x132B JUMPI DUP7 SWAP2 POP DUP6 SWAP1 POP PUSH2 0x1332 JUMP JUMPDEST DUP6 SWAP2 POP DUP7 SWAP1 POP JUMPDEST DUP2 PUSH20 0xFFFFFFFFFFFFFFFFFFFFFFFFFFFFFFFFFFFFFFFF AND DUP8 PUSH20 0xFFFFFFFFFFFFFFFFFFFFFFFFFFFFFFFFFFFFFFFF AND SUB PUSH2 0x1377 JUMPI DUP5 PUSH0 ADD SLOAD SWAP4 POP DUP5 PUSH1 0x1 ADD SLOAD SWAP3 POP PUSH2 0x1385 JUMP JUMPDEST DUP5 PUSH1 0x1 ADD SLOAD SWAP4 POP DUP5 PUSH0 ADD SLOAD SWAP3 POP JUMPDEST POP POP SWAP4 POP SWAP4 SWAP2 POP POP JUMP JUMPDEST PUSH0 PUSH0 DUP6 PUSH20 0xFFFFFFFFFFFFFFFFFFFFFFFFFFFFFFFFFFFFFFFF AND DUP8 PUSH20 0xFFFFFFFFFFFFFFFFFFFFFFFFFFFFFFFFFFFFFFFF AND LT ISZERO PUSH2 0x13D0 JUMPI DUP7 SWAP2 POP DUP6 SWAP1 POP PUSH2 0x13D7 JUMP JUMPDEST DUP6 SWAP2 POP DUP7 SWAP1 POP JUMPDEST DUP2 PUSH20 0xFFFFFFFFFFFFFFFFFFFFFFFFFFFFFFFFFFFFFFFF AND DUP8 PUSH20 0xFFFFFFFFFFFFFFFFFFFFFFFFFFFFFFFFFFFFFFFF AND SUB PUSH2 0x1442 JUMPI DUP4 DUP6 PUSH0 ADD PUSH0 DUP3 DUP3 SLOAD PUSH2 0x141C SWAP2 SWAP1 PUSH2 0x1F99 JUMP JUMPDEST SWAP3 POP POP DUP2 SWAP1 SSTORE POP DUP3 DUP6 PUSH1 0x1 ADD PUSH0 DUP3 DUP3 SLOAD PUSH2 0x1436 SWAP2 SWAP1 PUSH2 0x27F0 JUMP JUMPDEST SWAP3 POP POP DUP2 SWAP1 SSTORE POP PUSH2 0x1476 JUMP JUMPDEST DUP4 DUP6 PUSH1 0x1 ADD PUSH0 DUP3 DUP3 SLOAD PUSH2 0x1455 SWAP2 SWAP1 PUSH2 0x1F99 JUMP JUMPDEST SWAP3 POP POP DUP2 SWAP1 SSTORE POP DUP3 DUP6 PUSH0 ADD PUSH0 DUP3 DUP3 SLOAD PUSH2 0x146E SWAP2 SWAP1 PUSH2 0x27F0 JUMP JUMPDEST SWAP3 POP POP DUP2 SWAP1 SSTORE POP JUMPDEST POP POP POP POP POP POP POP JUMP JUMPDEST PUSH1 0x1 PUSH0 DUP2 SWAP1 SSTORE POP JUMP JUMPDEST PUSH0 PUSH0 DUP3 PUSH20 0xFFFFFFFFFFFFFFFFFFFFFFFFFFFFFFFFFFFFFFFF AND DUP5 PUSH20 0xFFFFFFFFFFFFFFFFFFFFFFFFFFFFFFFFFFFFFFFF AND SUB PUSH2 0x14F8 JUMPI PUSH1 0x40 MLOAD PUSH32 0x8C379A000000000000000000000000000000000000000000000000000000000 DUP2 MSTORE PUSH1 0x4 ADD PUSH2 0x14EF SWAP1 PUSH2 0x2946 JUMP JUMPDEST PUSH1 0x40 MLOAD DUP1 SWAP2 SUB SWAP1 REVERT JUMPDEST DUP3 PUSH20 0xFFFFFFFFFFFFFFFFFFFFFFFFFFFFFFFFFFFFFFFF AND DUP5 PUSH20 0xFFFFFFFFFFFFFFFFFFFFFFFFFFFFFFFFFFFFFFFF AND LT PUSH2 0x1532 JUMPI DUP3 DUP5 PUSH2 0x1535 JUMP JUMPDEST DUP4 DUP4 JUMPDEST SWAP2 POP SWAP2 POP SWAP3 POP SWAP3 SWAP1 POP JUMP JUMPDEST PUSH0 PUSH0 PUSH0 PUSH0 PUSH0 PUSH2 0x1550 DUP13 DUP13 DUP9 PUSH2 0x17DA JUMP JUMPDEST SWAP2 POP SWAP2 POP PUSH0 DUP7 PUSH1 0x2 ADD SLOAD SUB PUSH2 0x15CD JUMPI DUP10 SWAP5 POP DUP9 SWAP4 POP PUSH0 DUP6 GT DUP1 ISZERO PUSH2 0x1573 JUMPI POP PUSH0 DUP5 GT JUMPDEST PUSH2 0x15B2 JUMPI PUSH1 0x40 MLOAD PUSH32 0x8C379A000000000000000000000000000000000000000000000000000000000 DUP2 MSTORE PUSH1 0x4 ADD PUSH2 0x15A9 SWAP1 PUSH2 0x29D4 JUMP JUMPDEST PUSH1 0x40 MLOAD DUP1 SWAP2 SUB SWAP1 REVERT JUMPDEST PUSH2 0x15C6 DUP5 DUP7 PUSH2 0x15C1 SWAP2 SWAP1 PUSH2 0x1FCC JUMP JUMPDEST PUSH2 0x1837 JUMP JUMPDEST SWAP3 POP PUSH2 0x16E3 JUMP JUMPDEST PUSH0 DUP3 DUP3 DUP13 PUSH2 0x15DB SWAP2 SWAP1 PUSH2 0x1FCC JUMP JUMPDEST PUSH2 0x15E5 SWAP2 SWAP1 PUSH2 0x203A JUMP JUMPDEST SWAP1 POP DUP10 DUP2 GT PUSH2 0x163C JUMPI DUP8 DUP2 LT ISZERO PUSH2 0x1631 JUMPI PUSH1 0x40 MLOAD PUSH32 0x8C379A000000000000000000000000000000000000000000000000000000000 DUP2 MSTORE PUSH1 0x4 ADD PUSH2 0x1628 SWAP1 PUSH2 0x2A62 JUMP JUMPDEST PUSH1 0x40 MLOAD DUP1 SWAP2 SUB SWAP1 REVERT JUMPDEST DUP11 SWAP6 POP DUP1 SWAP5 POP PUSH2 0x16A1 JUMP JUMPDEST PUSH0 DUP3 DUP5 DUP13 PUSH2 0x164A SWAP2 SWAP1 PUSH2 0x1FCC JUMP JUMPDEST PUSH2 0x1654 SWAP2 SWAP1 PUSH2 0x203A JUMP JUMPDEST SWAP1 POP DUP10 DUP2 LT ISZERO PUSH2 0x1699 JUMPI PUSH1 0x40 MLOAD PUSH32 0x8C379A000000000000000000000000000000000000000000000000000000000 DUP2 MSTORE PUSH1 0x4 ADD PUSH2 0x1690 SWAP1 PUSH2 0x2AF0 JUMP JUMPDEST PUSH1 0x40 MLOAD DUP1 SWAP2 SUB SWAP1 REVERT JUMPDEST DUP1 SWAP7 POP DUP11 SWAP6 POP POP JUMPDEST PUSH2 0x16DF DUP4 DUP9 PUSH1 0x2 ADD SLOAD DUP9 PUSH2 0x16B5 SWAP2 SWAP1 PUSH2 0x1FCC JUMP JUMPDEST PUSH2 0x16BF SWAP2 SWAP1 PUSH2 0x203A JUMP JUMPDEST DUP4 DUP10 PUSH1 0x2 ADD SLOAD DUP9 PUSH2 0x16D0 SWAP2 SWAP1 PUSH2 0x1FCC JUMP JUMPDEST PUSH2 0x16DA SWAP2 SWAP1 PUSH2 0x203A JUMP JUMPDEST PUSH2 0x19D1 JUMP JUMPDEST SWAP4 POP POP JUMPDEST PUSH0 DUP4 GT PUSH2 0x1725 JUMPI PUSH1 0x40 MLOAD PUSH32 0x8C379A000000000000000000000000000000000000000000000000000000000 DUP2 MSTORE PUSH1 0x4 ADD PUSH2 0x171C SWAP1 PUSH2 0x2B7E JUMP JUMPDEST PUSH1 0x40 MLOAD DUP1 SWAP2 SUB SWAP1 REVERT JUMPDEST POP POP SWAP8 POP SWAP8 POP SWAP8 SWAP5 POP POP POP POP POP JUMP JUMPDEST DUP4 PUSH20 0xFFFFFFFFFFFFFFFFFFFFFFFFFFFFFFFFFFFFFFFF AND DUP6 PUSH20 0xFFFFFFFFFFFFFFFFFFFFFFFFFFFFFFFFFFFFFFFF AND SUB PUSH2 0x179F JUMPI DUP2 DUP4 PUSH0 ADD PUSH0 DUP3 DUP3 SLOAD PUSH2 0x1779 SWAP2 SWAP1 PUSH2 0x1F99 JUMP JUMPDEST SWAP3 POP POP DUP2 SWAP1 SSTORE POP DUP1 DUP4 PUSH1 0x1 ADD PUSH0 DUP3 DUP3 SLOAD PUSH2 0x1793 SWAP2 SWAP1 PUSH2 0x1F99 JUMP JUMPDEST SWAP3 POP POP DUP2 SWAP1 SSTORE POP PUSH2 0x17D3 JUMP JUMPDEST DUP1 DUP4 PUSH0 ADD PUSH0 DUP3 DUP3 SLOAD PUSH2 0x17B1 SWAP2 SWAP1 PUSH2 0x1F99 JUMP JUMPDEST SWAP3 POP POP DUP2 SWAP1 SSTORE POP DUP2 DUP4 PUSH1 0x1 ADD PUSH0 DUP3 DUP3 SLOAD PUSH2 0x17CB SWAP2 SWAP1 PUSH2 0x1F99 JUMP JUMPDEST SWAP3 POP POP DUP2 SWAP1 SSTORE POP JUMPDEST POP POP POP POP POP JUMP JUMPDEST PUSH0 PUSH0 DUP4 PUSH20 0xFFFFFFFFFFFFFFFFFFFFFFFFFFFFFFFFFFFFFFFF AND DUP6 PUSH20 0xFFFFFFFFFFFFFFFFFFFFFFFFFFFFFFFFFFFFFFFF AND SUB PUSH2 0x1821 JUMPI DUP3 PUSH0 ADD SLOAD SWAP2 POP DUP3 PUSH1 0x1 ADD SLOAD SWAP1 POP PUSH2 0x182F JUMP JUMPDEST DUP3 PUSH1 0x1 ADD SLOAD SWAP2 POP DUP3 PUSH0 ADD SLOAD SWAP1 POP JUMPDEST SWAP4 POP SWAP4 SWAP2 POP POP JUMP JUMPDEST PUSH0 PUSH1 0x1 DUP3 GT PUSH2 0x1848 JUMPI DUP2 SWAP1 POP PUSH2 0x19CC JUMP JUMPDEST PUSH0 DUP3 SWAP1 POP PUSH0 PUSH1 0x1 SWAP1 POP PUSH17 0x100000000000000000000000000000000 DUP3 LT PUSH2 0x1878 JUMPI PUSH1 0x80 DUP3 SWAP1 SHR SWAP2 POP PUSH1 0x40 DUP2 SWAP1 SHL SWAP1 POP JUMPDEST PUSH9 0x10000000000000000 DUP3 LT PUSH2 0x1897 JUMPI PUSH1 0x40 DUP3 SWAP1 SHR SWAP2 POP PUSH1 0x20 DUP2 SWAP1 SHL SWAP1 POP JUMPDEST PUSH5 0x100000000 DUP3 LT PUSH2 0x18B2 JUMPI PUSH1 0x20 DUP3 SWAP1 SHR SWAP2 POP PUSH1 0x10 DUP2 SWAP1 SHL SWAP1 POP JUMPDEST PUSH3 0x10000 DUP3 LT PUSH2 0x18CB JUMPI PUSH1 0x10 DUP3 SWAP1 SHR SWAP2 POP PUSH1 0x8 DUP2 SWAP1 SHL SWAP1 POP JUMPDEST PUSH2 0x100 DUP3 LT PUSH2 0x18E3 JUMPI PUSH1 0x8 DUP3 SWAP1 SHR SWAP2 POP PUSH1 0x4 DUP2 SWAP1 SHL SWAP1 POP JUMPDEST PUSH1 0x10 DUP3 LT PUSH2 0x18FA JUMPI PUSH1 0x4 DUP3 SWAP1 SHR SWAP2 POP PUSH1 0x2 DUP2 SWAP1 SHL SWAP1 POP JUMPDEST PUSH1 0x4 DUP3 LT PUSH2 0x190A JUMPI PUSH1 0x1 DUP2 SWAP1 SHL SWAP1 POP JUMPDEST PUSH1 0x1 DUP2 PUSH1 0x3 MUL SWAP1 SHR SWAP1 POP PUSH1 0x1 DUP2 DUP6 DUP2 PUSH2 0x1926 JUMPI PUSH2 0x1925 PUSH2 0x200D JUMP JUMPDEST JUMPDEST DIV DUP3 ADD SWAP1 SHR SWAP1 POP PUSH1 0x1 DUP2 DUP6 DUP2 PUSH2 0x193F JUMPI PUSH2 0x193E PUSH2 0x200D JUMP JUMPDEST JUMPDEST DIV DUP3 ADD SWAP1 SHR SWAP1 POP PUSH1 0x1 DUP2 DUP6 DUP2 PUSH2 0x1958 JUMPI PUSH2 0x1957 PUSH2 0x200D JUMP JUMPDEST JUMPDEST DIV DUP3 ADD SWAP1 SHR SWAP1 POP PUSH1 0x1 DUP2 DUP6 DUP2 PUSH2 0x1971 JUMPI PUSH2 0x1970 PUSH2 0x200D JUMP JUMPDEST JUMPDEST DIV DUP3 ADD SWAP1 SHR SWAP1 POP PUSH1 0x1 DUP2 DUP6 DUP2 PUSH2 0x198A JUMPI PUSH2 0x1989 PUSH2 0x200D JUMP JUMPDEST JUMPDEST DIV DUP3 ADD SWAP1 SHR SWAP1 POP PUSH1 0x1 DUP2 DUP6 DUP2 PUSH2 0x19A3 JUMPI PUSH2 0x19A2 PUSH2 0x200D JUMP JUMPDEST JUMPDEST DIV DUP3 ADD SWAP1 SHR SWAP1 POP PUSH2 0x19C5 DUP2 DUP6 DUP2 PUSH2 0x19BD JUMPI PUSH2 0x19BC PUSH2 0x200D JUMP JUMPDEST JUMPDEST DIV DUP3 GT PUSH2 0x19E7 JUMP JUMPDEST DUP2 SUB SWAP3 POP POP POP JUMPDEST SWAP2 SWAP1 POP JUMP JUMPDEST PUSH0 PUSH2 0x19DF DUP3 DUP5 LT DUP5 DUP5 PUSH2 0x19F2 JUMP JUMPDEST SWAP1 POP SWAP3 SWAP2 POP POP JUMP JUMPDEST PUSH0 DUP2 ISZERO ISZERO SWAP1 POP SWAP2 SWAP1 POP JUMP JUMPDEST PUSH0 PUSH2 0x19FC DUP5 PUSH2 0x19E7 JUMP JUMPDEST DUP3 DUP5 XOR MUL DUP3 XOR SWAP1 POP SWAP4 SWAP3 POP POP POP JUMP JUMPDEST PUSH0 PUSH0 REVERT JUMPDEST PUSH0 PUSH0 REVERT JUMPDEST PUSH0 DUP2 SWAP1 POP SWAP2 SWAP1 POP JUMP JUMPDEST PUSH2 0x1A25 DUP2 PUSH2 0x1A13 JUMP JUMPDEST DUP2 EQ PUSH2 0x1A2F JUMPI PUSH0 PUSH0 REVERT JUMPDEST POP JUMP JUMPDEST PUSH0 DUP2 CALLDATALOAD SWAP1 POP PUSH2 0x1A40 DUP2 PUSH2 0x1A1C JUMP JUMPDEST SWAP3 SWAP2 POP POP JUMP JUMPDEST PUSH0 PUSH0 PUSH0 PUSH1 0x60 DUP5 DUP7 SUB SLT ISZERO PUSH2 0x1A5D JUMPI PUSH2 0x1A5C PUSH2 0x1A0B JUMP JUMPDEST JUMPDEST PUSH0 PUSH2 0x1A6A DUP7 DUP3 DUP8 ADD PUSH2 0x1A32 JUMP JUMPDEST SWAP4 POP POP PUSH1 0x20 PUSH2 0x1A7B DUP7 DUP3 DUP8 ADD PUSH2 0x1A32 JUMP JUMPDEST SWAP3 POP POP PUSH1 0x40 PUSH2 0x1A8C DUP7 DUP3 DUP8 ADD PUSH2 0x1A32 JUMP JUMPDEST SWAP2 POP POP SWAP3 POP SWAP3 POP SWAP3 JUMP JUMPDEST PUSH2 0x1A9F DUP2 PUSH2 0x1A13 JUMP JUMPDEST DUP3 MSTORE POP POP JUMP JUMPDEST PUSH0 PUSH1 0x20 DUP3 ADD SWAP1 POP PUSH2 0x1AB8 PUSH0 DUP4 ADD DUP5 PUSH2 0x1A96 JUMP JUMPDEST SWAP3 SWAP2 POP POP JUMP JUMPDEST PUSH0 PUSH0 REVERT JUMPDEST PUSH0 PUSH0 REVERT JUMPDEST PUSH0 PUSH0 REVERT JUMPDEST PUSH0 PUSH0 DUP4 PUSH1 0x1F DUP5 ADD SLT PUSH2 0x1ADF JUMPI PUSH2 0x1ADE PUSH2 0x1ABE JUMP JUMPDEST JUMPDEST DUP3 CALLDATALOAD SWAP1 POP PUSH8 0xFFFFFFFFFFFFFFFF DUP2 GT ISZERO PUSH2 0x1AFC JUMPI PUSH2 0x1AFB PUSH2 0x1AC2 JUMP JUMPDEST JUMPDEST PUSH1 0x20 DUP4 ADD SWAP2 POP DUP4 PUSH1 0x20 DUP3 MUL DUP4 ADD GT ISZERO PUSH2 0x1B18 JUMPI PUSH2 0x1B17 PUSH2 0x1AC6 JUMP JUMPDEST JUMPDEST SWAP3 POP SWAP3 SWAP1 POP JUMP JUMPDEST PUSH0 PUSH20 0xFFFFFFFFFFFFFFFFFFFFFFFFFFFFFFFFFFFFFFFF DUP3 AND SWAP1 POP SWAP2 SWAP1 POP JUMP JUMPDEST PUSH0 PUSH2 0x1B48 DUP3 PUSH2 0x1B1F JUMP JUMPDEST SWAP1 POP SWAP2 SWAP1 POP JUMP JUMPDEST PUSH2 0x1B58 DUP2 PUSH2 0x1B3E JUMP JUMPDEST DUP2 EQ PUSH2 0x1B62 JUMPI PUSH0 PUSH0 REVERT JUMPDEST POP JUMP JUMPDEST PUSH0 DUP2 CALLDATALOAD SWAP1 POP PUSH2 0x1B73 DUP2 PUSH2 0x1B4F JUMP JUMPDEST SWAP3 SWAP2 POP POP JUMP JUMPDEST PUSH0 PUSH0 PUSH0 PUSH0 PUSH0 PUSH0 PUSH1 0xA0 DUP8 DUP10 SUB SLT ISZERO PUSH2 0x1B93 JUMPI PUSH2 0x1B92 PUSH2 0x1A0B JUMP JUMPDEST JUMPDEST PUSH0 PUSH2 0x1BA0 DUP10 DUP3 DUP11 ADD PUSH2 0x1A32 JUMP JUMPDEST SWAP7 POP POP PUSH1 0x20 PUSH2 0x1BB1 DUP10 DUP3 DUP11 ADD PUSH2 0x1A32 JUMP JUMPDEST SWAP6 POP POP PUSH1 0x40 DUP8 ADD CALLDATALOAD PUSH8 0xFFFFFFFFFFFFFFFF DUP2 GT ISZERO PUSH2 0x1BD2 JUMPI PUSH2 0x1BD1 PUSH2 0x1A0F JUMP JUMPDEST JUMPDEST PUSH2 0x1BDE DUP10 DUP3 DUP11 ADD PUSH2 0x1ACA JUMP JUMPDEST SWAP5 POP SWAP5 POP POP PUSH1 0x60 PUSH2 0x1BF1 DUP10 DUP3 DUP11 ADD PUSH2 0x1B65 JUMP JUMPDEST SWAP3 POP POP PUSH1 0x80 PUSH2 0x1C02 DUP10 DUP3 DUP11 ADD PUSH2 0x1A32 JUMP JUMPDEST SWAP2 POP POP SWAP3 SWAP6 POP SWAP3 SWAP6 POP SWAP3 SWAP6 JUMP JUMPDEST PUSH0 DUP2 MLOAD SWAP1 POP SWAP2 SWAP1 POP JUMP JUMPDEST PUSH0 DUP3 DUP3 MSTORE PUSH1 0x20 DUP3 ADD SWAP1 POP SWAP3 SWAP2 POP POP JUMP JUMPDEST PUSH0 DUP2 SWAP1 POP PUSH1 0x20 DUP3 ADD SWAP1 POP SWAP2 SWAP1 POP JUMP JUMPDEST PUSH2 0x1C41 DUP2 PUSH2 0x1A13 JUMP JUMPDEST DUP3 MSTORE POP POP JUMP JUMPDEST PUSH0 PUSH2 0x1C52 DUP4 DUP4 PUSH2 0x1C38 JUMP JUMPDEST PUSH1 0x20 DUP4 ADD SWAP1 POP SWAP3 SWAP2 POP POP JUMP JUMPDEST PUSH0 PUSH1 0x20 DUP3 ADD SWAP1 POP SWAP2 SWAP1 POP JUMP JUMPDEST PUSH0 PUSH2 0x1C74 DUP3 PUSH2 0x1C0F JUMP JUMPDEST PUSH2 0x1C7E DUP2 DUP6 PUSH2 0x1C19 JUMP JUMPDEST SWAP4 POP PUSH2 0x1C89 DUP4 PUSH2 0x1C29 JUMP JUMPDEST DUP1 PUSH0 JUMPDEST DUP4 DUP2 LT ISZERO PUSH2 0x1CB9 JUMPI DUP2 MLOAD PUSH2 0x1CA0 DUP9 DUP3 PUSH2 0x1C47 JUMP JUMPDEST SWAP8 POP PUSH2 0x1CAB DUP4 PUSH2 0x1C5E JUMP JUMPDEST SWAP3 POP POP PUSH1 0x1 DUP2 ADD SWAP1 POP PUSH2 0x1C8C JUMP JUMPDEST POP DUP6 SWAP4 POP POP POP POP SWAP3 SWAP2 POP POP JUMP JUMPDEST PUSH0 PUSH1 0x20 DUP3 ADD SWAP1 POP DUP2 DUP2 SUB PUSH0 DUP4 ADD MSTORE PUSH2 0x1CDE DUP2 DUP5 PUSH2 0x1C6A JUMP JUMPDEST SWAP1 POP SWAP3 SWAP2 POP POP JUMP JUMPDEST PUSH0 PUSH0 PUSH1 0x40 DUP4 DUP6 SUB SLT ISZERO PUSH2 0x1CFC JUMPI PUSH2 0x1CFB PUSH2 0x1A0B JUMP JUMPDEST JUMPDEST PUSH0 PUSH2 0x1D09 DUP6 DUP3 DUP7 ADD PUSH2 0x1B65 JUMP JUMPDEST SWAP3 POP POP PUSH1 0x20 PUSH2 0x1D1A DUP6 DUP3 DUP7 ADD PUSH2 0x1B65 JUMP JUMPDEST SWAP2 POP POP SWAP3 POP SWAP3 SWAP1 POP JUMP JUMPDEST PUSH0 PUSH0 PUSH0 PUSH0 PUSH0 PUSH0 PUSH0 PUSH1 0xE0 DUP9 DUP11 SUB SLT ISZERO PUSH2 0x1D3F JUMPI PUSH2 0x1D3E PUSH2 0x1A0B JUMP JUMPDEST JUMPDEST PUSH0 PUSH2 0x1D4C DUP11 DUP3 DUP12 ADD PUSH2 0x1B65 JUMP JUMPDEST SWAP8 POP POP PUSH1 0x20 PUSH2 0x1D5D DUP11 DUP3 DUP12 ADD PUSH2 0x1B65 JUMP JUMPDEST SWAP7 POP POP PUSH1 0x40 PUSH2 0x1D6E DUP11 DUP3 DUP12 ADD PUSH2 0x1A32 JUMP JUMPDEST SWAP6 POP POP PUSH1 0x60 PUSH2 0x1D7F DUP11 DUP3 DUP12 ADD PUSH2 0x1A32 JUMP JUMPDEST SWAP5 POP POP PUSH1 0x80 PUSH2 0x1D90 DUP11 DUP3 DUP12 ADD PUSH2 0x1A32 JUMP JUMPDEST SWAP4 POP POP PUSH1 0xA0 PUSH2 0x1DA1 DUP11 DUP3 DUP12 ADD PUSH2 0x1B65 JUMP JUMPDEST SWAP3 POP POP PUSH1 0xC0 PUSH2 0x1DB2 DUP11 DUP3 DUP12 ADD PUSH2 0x1A32 JUMP JUMPDEST SWAP2 POP POP SWAP3 SWAP6 SWAP9 SWAP2 SWAP5 SWAP8 POP SWAP3 SWAP6 POP JUMP JUMPDEST PUSH0 PUSH1 0x40 DUP3 ADD SWAP1 POP PUSH2 0x1DD4 PUSH0 DUP4 ADD DUP6 PUSH2 0x1A96 JUMP JUMPDEST PUSH2 0x1DE1 PUSH1 0x20 DUP4 ADD DUP5 PUSH2 0x1A96 JUMP JUMPDEST SWAP4 SWAP3 POP POP POP JUMP JUMPDEST PUSH0 PUSH0 PUSH0 PUSH0 PUSH0 PUSH0 PUSH0 PUSH0 PUSH2 0x100 DUP10 DUP12 SUB SLT ISZERO PUSH2 0x1E05 JUMPI PUSH2 0x1E04 PUSH2 0x1A0B JUMP JUMPDEST JUMPDEST PUSH0 PUSH2 0x1E12 DUP12 DUP3 DUP13 ADD PUSH2 0x1B65 JUMP JUMPDEST SWAP9 POP POP PUSH1 0x20 PUSH2 0x1E23 DUP12 DUP3 DUP13 ADD PUSH2 0x1B65 JUMP JUMPDEST SWAP8 POP POP PUSH1 0x40 PUSH2 0x1E34 DUP12 DUP3 DUP13 ADD PUSH2 0x1A32 JUMP JUMPDEST SWAP7 POP POP PUSH1 0x60 PUSH2 0x1E45 DUP12 DUP3 DUP13 ADD PUSH2 0x1A32 JUMP JUMPDEST SWAP6 POP POP PUSH1 0x80 PUSH2 0x1E56 DUP12 DUP3 DUP13 ADD PUSH2 0x1A32 JUMP JUMPDEST SWAP5 POP POP PUSH1 0xA0 PUSH2 0x1E67 DUP12 DUP3 DUP13 ADD PUSH2 0x1A32 JUMP JUMPDEST SWAP4 POP POP PUSH1 0xC0 PUSH2 0x1E78 DUP12 DUP3 DUP13 ADD PUSH2 0x1B65 JUMP JUMPDEST SWAP3 POP POP PUSH1 0xE0 PUSH2 0x1E89 DUP12 DUP3 DUP13 ADD PUSH2 0x1A32 JUMP JUMPDEST SWAP2 POP POP SWAP3 SWAP6 SWAP9 POP SWAP3 SWAP6 SWAP9 SWAP1 SWAP4 SWAP7 POP JUMP JUMPDEST PUSH0 PUSH1 0x60 DUP3 ADD SWAP1 POP PUSH2 0x1EAC PUSH0 DUP4 ADD DUP7 PUSH2 0x1A96 JUMP JUMPDEST PUSH2 0x1EB9 PUSH1 0x20 DUP4 ADD DUP6 PUSH2 0x1A96 JUMP JUMPDEST PUSH2 0x1EC6 PUSH1 0x40 DUP4 ADD DUP5 PUSH2 0x1A96 JUMP JUMPDEST SWAP5 SWAP4 POP POP POP POP JUMP JUMPDEST PUSH0 DUP3 DUP3 MSTORE PUSH1 0x20 DUP3 ADD SWAP1 POP SWAP3 SWAP2 POP POP JUMP JUMPDEST PUSH32 0x53696D706C65537761703A20496E76616C6964206461746120666F72206F7574 PUSH0 DUP3 ADD MSTORE PUSH32 0x70757420616D6F756E742063616C63756C6174696F6E00000000000000000000 PUSH1 0x20 DUP3 ADD MSTORE POP JUMP JUMPDEST PUSH0 PUSH2 0x1F38 PUSH1 0x36 DUP4 PUSH2 0x1ECE JUMP JUMPDEST SWAP2 POP PUSH2 0x1F43 DUP3 PUSH2 0x1EDE JUMP JUMPDEST PUSH1 0x40 DUP3 ADD SWAP1 POP SWAP2 SWAP1 POP JUMP JUMPDEST PUSH0 PUSH1 0x20 DUP3 ADD SWAP1 POP DUP2 DUP2 SUB PUSH0 DUP4 ADD MSTORE PUSH2 0x1F65 DUP2 PUSH2 0x1F2C JUMP JUMPDEST SWAP1 POP SWAP2 SWAP1 POP JUMP JUMPDEST PUSH32 0x4E487B7100000000000000000000000000000000000000000000000000000000 PUSH0 MSTORE PUSH1 0x11 PUSH1 0x4 MSTORE PUSH1 0x24 PUSH0 REVERT JUMPDEST PUSH0 PUSH2 0x1FA3 DUP3 PUSH2 0x1A13 JUMP JUMPDEST SWAP2 POP PUSH2 0x1FAE DUP4 PUSH2 0x1A13 JUMP JUMPDEST SWAP3 POP DUP3 DUP3 ADD SWAP1 POP DUP1 DUP3 GT ISZERO PUSH2 0x1FC6 JUMPI PUSH2 0x1FC5 PUSH2 0x1F6C JUMP JUMPDEST JUMPDEST SWAP3 SWAP2 POP POP JUMP JUMPDEST PUSH0 PUSH2 0x1FD6 DUP3 PUSH2 0x1A13 JUMP JUMPDEST SWAP2 POP PUSH2 0x1FE1 DUP4 PUSH2 0x1A13 JUMP JUMPDEST SWAP3 POP DUP3 DUP3 MUL PUSH2 0x1FEF DUP2 PUSH2 0x1A13 JUMP JUMPDEST SWAP2 POP DUP3 DUP3 DIV DUP5 EQ DUP4 ISZERO OR PUSH2 0x2006 JUMPI PUSH2 0x2005 PUSH2 0x1F6C JUMP JUMPDEST JUMPDEST POP SWAP3 SWAP2 POP POP JUMP JUMPDEST PUSH32 0x4E487B7100000000000000000000000000000000000000000000000000000000 PUSH0 MSTORE PUSH1 0x12 PUSH1 0x4 MSTORE PUSH1 0x24 PUSH0 REVERT JUMPDEST PUSH0 PUSH2 0x2044 DUP3 PUSH2 0x1A13 JUMP JUMPDEST SWAP2 POP PUSH2 0x204F DUP4 PUSH2 0x1A13 JUMP JUMPDEST SWAP3 POP DUP3 PUSH2 0x205F JUMPI PUSH2 0x205E PUSH2 0x200D JUMP JUMPDEST JUMPDEST DUP3 DUP3 DIV SWAP1 POP SWAP3 SWAP2 POP POP JUMP JUMPDEST PUSH32 0x53696D706C65537761703A205472616E73616374696F6E206578706972656400 PUSH0 DUP3 ADD MSTORE POP JUMP JUMPDEST PUSH0 PUSH2 0x209E PUSH1 0x1F DUP4 PUSH2 0x1ECE JUMP JUMPDEST SWAP2 POP PUSH2 0x20A9 DUP3 PUSH2 0x206A JUMP JUMPDEST PUSH1 0x20 DUP3 ADD SWAP1 POP SWAP2 SWAP1 POP JUMP JUMPDEST PUSH0 PUSH1 0x20 DUP3 ADD SWAP1 POP DUP2 DUP2 SUB PUSH0 DUP4 ADD MSTORE PUSH2 0x20CB DUP2 PUSH2 0x2092 JUMP JUMPDEST SWAP1 POP SWAP2 SWAP1 POP JUMP JUMPDEST PUSH32 0x53696D706C65537761703A204F6E6C79203120686F702028322D746F6B656E20 PUSH0 DUP3 ADD MSTORE PUSH32 0x706174682920697320616C6C6F77656400000000000000000000000000000000 PUSH1 0x20 DUP3 ADD MSTORE POP JUMP JUMPDEST PUSH0 PUSH2 0x212C PUSH1 0x30 DUP4 PUSH2 0x1ECE JUMP JUMPDEST SWAP2 POP PUSH2 0x2137 DUP3 PUSH2 0x20D2 JUMP JUMPDEST PUSH1 0x40 DUP3 ADD SWAP1 POP SWAP2 SWAP1 POP JUMP JUMPDEST PUSH0 PUSH1 0x20 DUP3 ADD SWAP1 POP DUP2 DUP2 SUB PUSH0 DUP4 ADD MSTORE PUSH2 0x2159 DUP2 PUSH2 0x2120 JUMP JUMPDEST SWAP1 POP SWAP2 SWAP1 POP JUMP JUMPDEST PUSH32 0x53696D706C65537761703A20496E76616C69642027746F272061646472657373 PUSH0 DUP3 ADD MSTORE POP JUMP JUMPDEST PUSH0 PUSH2 0x2194 PUSH1 0x20 DUP4 PUSH2 0x1ECE JUMP JUMPDEST SWAP2 POP PUSH2 0x219F DUP3 PUSH2 0x2160 JUMP JUMPDEST PUSH1 0x20 DUP3 ADD SWAP1 POP SWAP2 SWAP1 POP JUMP JUMPDEST PUSH0 PUSH1 0x20 DUP3 ADD SWAP1 POP DUP2 DUP2 SUB PUSH0 DUP4 ADD MSTORE PUSH2 0x21C1 DUP2 PUSH2 0x2188 JUMP JUMPDEST SWAP1 POP SWAP2 SWAP1 POP JUMP JUMPDEST PUSH32 0x53696D706C65537761703A20496E70757420616D6F756E74206D757374206265 PUSH0 DUP3 ADD MSTORE PUSH32 0x203E203000000000000000000000000000000000000000000000000000000000 PUSH1 0x20 DUP3 ADD MSTORE POP JUMP JUMPDEST PUSH0 PUSH2 0x2222 PUSH1 0x24 DUP4 PUSH2 0x1ECE JUMP JUMPDEST SWAP2 POP PUSH2 0x222D DUP3 PUSH2 0x21C8 JUMP JUMPDEST PUSH1 0x40 DUP3 ADD SWAP1 POP SWAP2 SWAP1 POP JUMP JUMPDEST PUSH0 PUSH1 0x20 DUP3 ADD SWAP1 POP DUP2 DUP2 SUB PUSH0 DUP4 ADD MSTORE PUSH2 0x224F DUP2 PUSH2 0x2216 JUMP JUMPDEST SWAP1 POP SWAP2 SWAP1 POP JUMP JUMPDEST PUSH32 0x4E487B7100000000000000000000000000000000000000000000000000000000 PUSH0 MSTORE PUSH1 0x32 PUSH1 0x4 MSTORE PUSH1 0x24 PUSH0 REVERT JUMPDEST PUSH0 PUSH1 0x20 DUP3 DUP5 SUB SLT ISZERO PUSH2 0x2298 JUMPI PUSH2 0x2297 PUSH2 0x1A0B JUMP JUMPDEST JUMPDEST PUSH0 PUSH2 0x22A5 DUP5 DUP3 DUP6 ADD PUSH2 0x1B65 JUMP JUMPDEST SWAP2 POP POP SWAP3 SWAP2 POP POP JUMP JUMPDEST PUSH32 0x53696D706C65537761703A20506F6F6C20656D707479206F72206E6F206C6971 PUSH0 DUP3 ADD MSTORE PUSH32 0x7569646974790000000000000000000000000000000000000000000000000000 PUSH1 0x20 DUP3 ADD MSTORE POP JUMP JUMPDEST PUSH0 PUSH2 0x2308 PUSH1 0x26 DUP4 PUSH2 0x1ECE JUMP JUMPDEST SWAP2 POP PUSH2 0x2313 DUP3 PUSH2 0x22AE JUMP JUMPDEST PUSH1 0x40 DUP3 ADD SWAP1 POP SWAP2 SWAP1 POP JUMP JUMPDEST PUSH0 PUSH1 0x20 DUP3 ADD SWAP1 POP DUP2 DUP2 SUB PUSH0 DUP4 ADD MSTORE PUSH2 0x2335 DUP2 PUSH2 0x22FC JUMP JUMPDEST SWAP1 POP SWAP2 SWAP1 POP JUMP JUMPDEST PUSH32 0x53696D706C65537761703A2045786365737369766520736C6970706167650000 PUSH0 DUP3 ADD MSTORE POP JUMP JUMPDEST PUSH0 PUSH2 0x2370 PUSH1 0x1E DUP4 PUSH2 0x1ECE JUMP JUMPDEST SWAP2 POP PUSH2 0x237B DUP3 PUSH2 0x233C JUMP JUMPDEST PUSH1 0x20 DUP3 ADD SWAP1 POP SWAP2 SWAP1 POP JUMP JUMPDEST PUSH0 PUSH1 0x20 DUP3 ADD SWAP1 POP DUP2 DUP2 SUB PUSH0 DUP4 ADD MSTORE PUSH2 0x239D DUP2 PUSH2 0x2364 JUMP JUMPDEST SWAP1 POP SWAP2 SWAP1 POP JUMP JUMPDEST PUSH2 0x23AD DUP2 PUSH2 0x1B3E JUMP JUMPDEST DUP3 MSTORE POP POP JUMP JUMPDEST PUSH0 PUSH1 0x60 DUP3 ADD SWAP1 POP PUSH2 0x23C6 PUSH0 DUP4 ADD DUP7 PUSH2 0x23A4 JUMP JUMPDEST PUSH2 0x23D3 PUSH1 0x20 DUP4 ADD DUP6 PUSH2 0x23A4 JUMP JUMPDEST PUSH2 0x23E0 PUSH1 0x40 DUP4 ADD DUP5 PUSH2 0x1A96 JUMP JUMPDEST SWAP5 SWAP4 POP POP POP POP JUMP JUMPDEST PUSH0 DUP2 ISZERO ISZERO SWAP1 POP SWAP2 SWAP1 POP JUMP JUMPDEST PUSH2 0x23FC DUP2 PUSH2 0x23E8 JUMP JUMPDEST DUP2 EQ PUSH2 0x2406 JUMPI PUSH0 PUSH0 REVERT JUMPDEST POP JUMP JUMPDEST PUSH0 DUP2 MLOAD SWAP1 POP PUSH2 0x2417 DUP2 PUSH2 0x23F3 JUMP JUMPDEST SWAP3 SWAP2 POP POP JUMP JUMPDEST PUSH0 PUSH1 0x20 DUP3 DUP5 SUB SLT ISZERO PUSH2 0x2432 JUMPI PUSH2 0x2431 PUSH2 0x1A0B JUMP JUMPDEST JUMPDEST PUSH0 PUSH2 0x243F DUP5 DUP3 DUP6 ADD PUSH2 0x2409 JUMP JUMPDEST SWAP2 POP POP SWAP3 SWAP2 POP POP JUMP JUMPDEST PUSH0 PUSH1 0x40 DUP3 ADD SWAP1 POP PUSH2 0x245B PUSH0 DUP4 ADD DUP6 PUSH2 0x23A4 JUMP JUMPDEST PUSH2 0x2468 PUSH1 0x20 DUP4 ADD DUP5 PUSH2 0x1A96 JUMP JUMPDEST SWAP4 SWAP3 POP POP POP JUMP JUMPDEST PUSH32 0x4E487B7100000000000000000000000000000000000000000000000000000000 PUSH0 MSTORE PUSH1 0x41 PUSH1 0x4 MSTORE PUSH1 0x24 PUSH0 REVERT JUMPDEST PUSH32 0x53696D706C65537761703A20496E76616C696420746F6B656E20616464726573 PUSH0 DUP3 ADD MSTORE PUSH32 0x7365730000000000000000000000000000000000000000000000000000000000 PUSH1 0x20 DUP3 ADD MSTORE POP JUMP JUMPDEST PUSH0 PUSH2 0x24F6 PUSH1 0x23 DUP4 PUSH2 0x1ECE JUMP JUMPDEST SWAP2 POP PUSH2 0x2501 DUP3 PUSH2 0x249C JUMP JUMPDEST PUSH1 0x40 DUP3 ADD SWAP1 POP SWAP2 SWAP1 POP JUMP JUMPDEST PUSH0 PUSH1 0x20 DUP3 ADD SWAP1 POP DUP2 DUP2 SUB PUSH0 DUP4 ADD MSTORE PUSH2 0x2523 DUP2 PUSH2 0x24EA JUMP JUMPDEST SWAP1 POP SWAP2 SWAP1 POP JUMP JUMPDEST PUSH32 0x53696D706C65537761703A204C697175696469747920746F2072656D6F766520 PUSH0 DUP3 ADD MSTORE PUSH32 0x6D757374206265203E2030000000000000000000000000000000000000000000 PUSH1 0x20 DUP3 ADD MSTORE POP JUMP JUMPDEST PUSH0 PUSH2 0x2584 PUSH1 0x2B DUP4 PUSH2 0x1ECE JUMP JUMPDEST SWAP2 POP PUSH2 0x258F DUP3 PUSH2 0x252A JUMP JUMPDEST PUSH1 0x40 DUP3 ADD SWAP1 POP SWAP2 SWAP1 POP JUMP JUMPDEST PUSH0 PUSH1 0x20 DUP3 ADD SWAP1 POP DUP2 DUP2 SUB PUSH0 DUP4 ADD MSTORE PUSH2 0x25B1 DUP2 PUSH2 0x2578 JUMP JUMPDEST SWAP1 POP SWAP2 SWAP1 POP JUMP JUMPDEST PUSH32 0x53696D706C65537761703A20496E73756666696369656E742075736572206C69 PUSH0 DUP3 ADD MSTORE PUSH32 0x7175696469747900000000000000000000000000000000000000000000000000 PUSH1 0x20 DUP3 ADD MSTORE POP JUMP JUMPDEST PUSH0 PUSH2 0x2612 PUSH1 0x27 DUP4 PUSH2 0x1ECE JUMP JUMPDEST SWAP2 POP PUSH2 0x261D DUP3 PUSH2 0x25B8 JUMP JUMPDEST PUSH1 0x40 DUP3 ADD SWAP1 POP SWAP2 SWAP1 POP JUMP JUMPDEST PUSH0 PUSH1 0x20 DUP3 ADD SWAP1 POP DUP2 DUP2 SUB PUSH0 DUP4 ADD MSTORE PUSH2 0x263F DUP2 PUSH2 0x2606 JUMP JUMPDEST SWAP1 POP SWAP2 SWAP1 POP JUMP JUMPDEST PUSH32 0x53696D706C65537761703A204C697175696469747920706F6F6C20697320656D PUSH0 DUP3 ADD MSTORE PUSH32 0x7074790000000000000000000000000000000000000000000000000000000000 PUSH1 0x20 DUP3 ADD MSTORE POP JUMP JUMPDEST PUSH0 PUSH2 0x26A0 PUSH1 0x23 DUP4 PUSH2 0x1ECE JUMP JUMPDEST SWAP2 POP PUSH2 0x26AB DUP3 PUSH2 0x2646 JUMP JUMPDEST PUSH1 0x40 DUP3 ADD SWAP1 POP SWAP2 SWAP1 POP JUMP JUMPDEST PUSH0 PUSH1 0x20 DUP3 ADD SWAP1 POP DUP2 DUP2 SUB PUSH0 DUP4 ADD MSTORE PUSH2 0x26CD DUP2 PUSH2 0x2694 JUMP JUMPDEST SWAP1 POP SWAP2 SWAP1 POP JUMP JUMPDEST PUSH32 0x53696D706C65537761703A2045786365737369766520736C697070616765206F PUSH0 DUP3 ADD MSTORE PUSH32 0x6E20546F6B656E2041207768656E2072656D6F76696E67000000000000000000 PUSH1 0x20 DUP3 ADD MSTORE POP JUMP JUMPDEST PUSH0 PUSH2 0x272E PUSH1 0x37 DUP4 PUSH2 0x1ECE JUMP JUMPDEST SWAP2 POP PUSH2 0x2739 DUP3 PUSH2 0x26D4 JUMP JUMPDEST PUSH1 0x40 DUP3 ADD SWAP1 POP SWAP2 SWAP1 POP JUMP JUMPDEST PUSH0 PUSH1 0x20 DUP3 ADD SWAP1 POP DUP2 DUP2 SUB PUSH0 DUP4 ADD MSTORE PUSH2 0x275B DUP2 PUSH2 0x2722 JUMP JUMPDEST SWAP1 POP SWAP2 SWAP1 POP JUMP JUMPDEST PUSH32 0x53696D706C65537761703A2045786365737369766520736C697070616765206F PUSH0 DUP3 ADD MSTORE PUSH32 0x6E20546F6B656E2042207768656E2072656D6F76696E67000000000000000000 PUSH1 0x20 DUP3 ADD MSTORE POP JUMP JUMPDEST PUSH0 PUSH2 0x27BC PUSH1 0x37 DUP4 PUSH2 0x1ECE JUMP JUMPDEST SWAP2 POP PUSH2 0x27C7 DUP3 PUSH2 0x2762 JUMP JUMPDEST PUSH1 0x40 DUP3 ADD SWAP1 POP SWAP2 SWAP1 POP JUMP JUMPDEST PUSH0 PUSH1 0x20 DUP3 ADD SWAP1 POP DUP2 DUP2 SUB PUSH0 DUP4 ADD MSTORE PUSH2 0x27E9 DUP2 PUSH2 0x27B0 JUMP JUMPDEST SWAP1 POP SWAP2 SWAP1 POP JUMP JUMPDEST PUSH0 PUSH2 0x27FA DUP3 PUSH2 0x1A13 JUMP JUMPDEST SWAP2 POP PUSH2 0x2805 DUP4 PUSH2 0x1A13 JUMP JUMPDEST SWAP3 POP DUP3 DUP3 SUB SWAP1 POP DUP2 DUP2 GT ISZERO PUSH2 0x281D JUMPI PUSH2 0x281C PUSH2 0x1F6C JUMP JUMPDEST JUMPDEST SWAP3 SWAP2 POP POP JUMP JUMPDEST PUSH0 PUSH1 0x80 DUP3 ADD SWAP1 POP PUSH2 0x2836 PUSH0 DUP4 ADD DUP8 PUSH2 0x1A96 JUMP JUMPDEST PUSH2 0x2843 PUSH1 0x20 DUP4 ADD DUP7 PUSH2 0x1A96 JUMP JUMPDEST PUSH2 0x2850 PUSH1 0x40 DUP4 ADD DUP6 PUSH2 0x1A96 JUMP JUMPDEST PUSH2 0x285D PUSH1 0x60 DUP4 ADD DUP5 PUSH2 0x1A96 JUMP JUMPDEST SWAP6 SWAP5 POP POP POP POP POP JUMP JUMPDEST PUSH0 DUP2 PUSH1 0x60 SHL SWAP1 POP SWAP2 SWAP1 POP JUMP JUMPDEST PUSH0 PUSH2 0x287C DUP3 PUSH2 0x2866 JUMP JUMPDEST SWAP1 POP SWAP2 SWAP1 POP JUMP JUMPDEST PUSH0 PUSH2 0x288D DUP3 PUSH2 0x2872 JUMP JUMPDEST SWAP1 POP SWAP2 SWAP1 POP JUMP JUMPDEST PUSH2 0x28A5 PUSH2 0x28A0 DUP3 PUSH2 0x1B3E JUMP JUMPDEST PUSH2 0x2883 JUMP JUMPDEST DUP3 MSTORE POP POP JUMP JUMPDEST PUSH0 PUSH2 0x28B6 DUP3 DUP6 PUSH2 0x2894 JUMP JUMPDEST PUSH1 0x14 DUP3 ADD SWAP2 POP PUSH2 0x28C6 DUP3 DUP5 PUSH2 0x2894 JUMP JUMPDEST PUSH1 0x14 DUP3 ADD SWAP2 POP DUP2 SWAP1 POP SWAP4 SWAP3 POP POP POP JUMP JUMPDEST PUSH32 0x53696D706C65537761703A20546F6B656E73206D757374206265206469666665 PUSH0 DUP3 ADD MSTORE PUSH32 0x72656E7400000000000000000000000000000000000000000000000000000000 PUSH1 0x20 DUP3 ADD MSTORE POP JUMP JUMPDEST PUSH0 PUSH2 0x2930 PUSH1 0x24 DUP4 PUSH2 0x1ECE JUMP JUMPDEST SWAP2 POP PUSH2 0x293B DUP3 PUSH2 0x28D6 JUMP JUMPDEST PUSH1 0x40 DUP3 ADD SWAP1 POP SWAP2 SWAP1 POP JUMP JUMPDEST PUSH0 PUSH1 0x20 DUP3 ADD SWAP1 POP DUP2 DUP2 SUB PUSH0 DUP4 ADD MSTORE PUSH2 0x295D DUP2 PUSH2 0x2924 JUMP JUMPDEST SWAP1 POP SWAP2 SWAP1 POP JUMP JUMPDEST PUSH32 0x53696D706C65537761703A20496E697469616C20616D6F756E7473206D757374 PUSH0 DUP3 ADD MSTORE PUSH32 0x206265203E203000000000000000000000000000000000000000000000000000 PUSH1 0x20 DUP3 ADD MSTORE POP JUMP JUMPDEST PUSH0 PUSH2 0x29BE PUSH1 0x27 DUP4 PUSH2 0x1ECE JUMP JUMPDEST SWAP2 POP PUSH2 0x29C9 DUP3 PUSH2 0x2964 JUMP JUMPDEST PUSH1 0x40 DUP3 ADD SWAP1 POP SWAP2 SWAP1 POP JUMP JUMPDEST PUSH0 PUSH1 0x20 DUP3 ADD SWAP1 POP DUP2 DUP2 SUB PUSH0 DUP4 ADD MSTORE PUSH2 0x29EB DUP2 PUSH2 0x29B2 JUMP JUMPDEST SWAP1 POP SWAP2 SWAP1 POP JUMP JUMPDEST PUSH32 0x53696D706C65537761703A2045786365737369766520736C697070616765206F PUSH0 DUP3 ADD MSTORE PUSH32 0x6E20546F6B656E20420000000000000000000000000000000000000000000000 PUSH1 0x20 DUP3 ADD MSTORE POP JUMP JUMPDEST PUSH0 PUSH2 0x2A4C PUSH1 0x29 DUP4 PUSH2 0x1ECE JUMP JUMPDEST SWAP2 POP PUSH2 0x2A57 DUP3 PUSH2 0x29F2 JUMP JUMPDEST PUSH1 0x40 DUP3 ADD SWAP1 POP SWAP2 SWAP1 POP JUMP JUMPDEST PUSH0 PUSH1 0x20 DUP3 ADD SWAP1 POP DUP2 DUP2 SUB PUSH0 DUP4 ADD MSTORE PUSH2 0x2A79 DUP2 PUSH2 0x2A40 JUMP JUMPDEST SWAP1 POP SWAP2 SWAP1 POP JUMP JUMPDEST PUSH32 0x53696D706C65537761703A2045786365737369766520736C697070616765206F PUSH0 DUP3 ADD MSTORE PUSH32 0x6E20546F6B656E20410000000000000000000000000000000000000000000000 PUSH1 0x20 DUP3 ADD MSTORE POP JUMP JUMPDEST PUSH0 PUSH2 0x2ADA PUSH1 0x29 DUP4 PUSH2 0x1ECE JUMP JUMPDEST SWAP2 POP PUSH2 0x2AE5 DUP3 PUSH2 0x2A80 JUMP JUMPDEST PUSH1 0x40 DUP3 ADD SWAP1 POP SWAP2 SWAP1 POP JUMP JUMPDEST PUSH0 PUSH1 0x20 DUP3 ADD SWAP1 POP DUP2 DUP2 SUB PUSH0 DUP4 ADD MSTORE PUSH2 0x2B07 DUP2 PUSH2 0x2ACE JUMP JUMPDEST SWAP1 POP SWAP2 SWAP1 POP JUMP JUMPDEST PUSH32 0x53696D706C65537761703A204C6971756964697479206D696E746564206D7573 PUSH0 DUP3 ADD MSTORE PUSH32 0x74206265203E2030000000000000000000000000000000000000000000000000 PUSH1 0x20 DUP3 ADD MSTORE POP JUMP JUMPDEST PUSH0 PUSH2 0x2B68 PUSH1 0x28 DUP4 PUSH2 0x1ECE JUMP JUMPDEST SWAP2 POP PUSH2 0x2B73 DUP3 PUSH2 0x2B0E JUMP JUMPDEST PUSH1 0x40 DUP3 ADD SWAP1 POP SWAP2 SWAP1 POP JUMP JUMPDEST PUSH0 PUSH1 0x20 DUP3 ADD SWAP1 POP DUP2 DUP2 SUB PUSH0 DUP4 ADD MSTORE PUSH2 0x2B95 DUP2 PUSH2 0x2B5C JUMP JUMPDEST SWAP1 POP SWAP2 SWAP1 POP JUMP INVALID LOG2 PUSH5 0x6970667358 0x22 SLT KECCAK256 EXTCODESIZE CODESIZE 0xCE 0xBD 0xE2 PUSH30 0xF460DF63DA346B4C2E93E2F6A309A9248C918C6D46F382FBBA3D64736F6C PUSH4 0x4300081B STOP CALLER "
		},
		"gasEstimates": {
			"creation": {
				"codeDepositCost": "2243600",
				"executionCost": "24508",
				"totalCost": "2268108"
			},
			"external": {
				"addLiquidity(address,address,uint256,uint256,uint256,uint256,address,uint256)": "infinite",
				"getAmountOut(uint256,uint256,uint256)": "infinite",
				"getPrice(address,address)": "infinite",
				"removeLiquidity(address,address,uint256,uint256,uint256,address,uint256)": "infinite",
				"swapExactTokensForTokens(uint256,uint256,address[],address,uint256)": "infinite"
			},
			"internal": {
				"_calculateAddLiquidityAmountsAndLiquidity(address,address,uint256,uint256,uint256,uint256,struct SimpleSwap.Pool storage pointer)": "infinite",
				"_getOrderedReserves(address,address,struct SimpleSwap.Pool storage pointer)": "4301",
				"_getPairHash(address,address)": "infinite",
				"_getReservesForSwap(address,address,struct SimpleSwap.Pool storage pointer)": "4374",
				"_sortTokens(address,address)": "infinite",
				"_updateAddLiquidityPoolReserves(address,address,struct SimpleSwap.Pool storage pointer,uint256,uint256)": "infinite",
				"_updatePoolReserves(address,address,struct SimpleSwap.Pool storage pointer,uint256,uint256)": "infinite"
			}
		},
		"methodIdentifiers": {
			"addLiquidity(address,address,uint256,uint256,uint256,uint256,address,uint256)": "e8e33700",
			"getAmountOut(uint256,uint256,uint256)": "054d50d4",
			"getPrice(address,address)": "ac41865a",
			"removeLiquidity(address,address,uint256,uint256,uint256,address,uint256)": "baa2abde",
			"swapExactTokensForTokens(uint256,uint256,address[],address,uint256)": "38ed1739"
		}
	},
	"abi": [
		{
			"inputs": [],
			"name": "ReentrancyGuardReentrantCall",
			"type": "error"
		},
		{
			"anonymous": false,
			"inputs": [
				{
					"indexed": true,
					"internalType": "address",
					"name": "provider",
					"type": "address"
				},
				{
					"indexed": true,
					"internalType": "address",
					"name": "tokenA",
					"type": "address"
				},
				{
					"indexed": true,
					"internalType": "address",
					"name": "tokenB",
					"type": "address"
				},
				{
					"indexed": false,
					"internalType": "uint256",
					"name": "amountA",
					"type": "uint256"
				},
				{
					"indexed": false,
					"internalType": "uint256",
					"name": "amountB",
					"type": "uint256"
				},
				{
					"indexed": false,
					"internalType": "uint256",
					"name": "liquidityMinted",
					"type": "uint256"
				},
				{
					"indexed": false,
					"internalType": "uint256",
					"name": "timestamp",
					"type": "uint256"
				}
			],
			"name": "LiquidityAdded",
			"type": "event"
		},
		{
			"anonymous": false,
			"inputs": [
				{
					"indexed": true,
					"internalType": "address",
					"name": "provider",
					"type": "address"
				},
				{
					"indexed": false,
					"internalType": "uint256",
					"name": "amountA",
					"type": "uint256"
				},
				{
					"indexed": false,
					"internalType": "uint256",
					"name": "amountB",
					"type": "uint256"
				}
			],
			"name": "LiquidityRemoved",
			"type": "event"
		},
		{
			"anonymous": false,
			"inputs": [
				{
					"indexed": true,
					"internalType": "address",
					"name": "swapper",
					"type": "address"
				},
				{
					"indexed": true,
					"internalType": "address",
					"name": "tokenIn",
					"type": "address"
				},
				{
					"indexed": true,
					"internalType": "address",
					"name": "tokenOut",
					"type": "address"
				},
				{
					"indexed": false,
					"internalType": "uint256",
					"name": "amountIn",
					"type": "uint256"
				},
				{
					"indexed": false,
					"internalType": "uint256",
					"name": "amountOut",
					"type": "uint256"
				},
				{
					"indexed": false,
					"internalType": "uint256",
					"name": "timestamp",
					"type": "uint256"
				}
			],
			"name": "TokensSwapped",
			"type": "event"
		},
		{
			"inputs": [
				{
					"internalType": "address",
					"name": "tokenA",
					"type": "address"
				},
				{
					"internalType": "address",
					"name": "tokenB",
					"type": "address"
				},
				{
					"internalType": "uint256",
					"name": "amountADesired",
					"type": "uint256"
				},
				{
					"internalType": "uint256",
					"name": "amountBDesired",
					"type": "uint256"
				},
				{
					"internalType": "uint256",
					"name": "amountAMin",
					"type": "uint256"
				},
				{
					"internalType": "uint256",
					"name": "amountBMin",
					"type": "uint256"
				},
				{
					"internalType": "address",
					"name": "to",
					"type": "address"
				},
				{
					"internalType": "uint256",
					"name": "deadline",
					"type": "uint256"
				}
			],
			"name": "addLiquidity",
			"outputs": [
				{
					"internalType": "uint256",
					"name": "amountA",
					"type": "uint256"
				},
				{
					"internalType": "uint256",
					"name": "amountB",
					"type": "uint256"
				},
				{
					"internalType": "uint256",
					"name": "liquidity",
					"type": "uint256"
				}
			],
			"stateMutability": "nonpayable",
			"type": "function"
		},
		{
			"inputs": [
				{
					"internalType": "uint256",
					"name": "amountIn",
					"type": "uint256"
				},
				{
					"internalType": "uint256",
					"name": "reserveIn",
					"type": "uint256"
				},
				{
					"internalType": "uint256",
					"name": "reserveOut",
					"type": "uint256"
				}
			],
			"name": "getAmountOut",
			"outputs": [
				{
					"internalType": "uint256",
					"name": "amountOut",
					"type": "uint256"
				}
			],
			"stateMutability": "pure",
			"type": "function"
		},
		{
			"inputs": [
				{
					"internalType": "address",
					"name": "tokenA",
					"type": "address"
				},
				{
					"internalType": "address",
					"name": "tokenB",
					"type": "address"
				}
			],
			"name": "getPrice",
			"outputs": [
				{
					"internalType": "uint256",
					"name": "price",
					"type": "uint256"
				}
			],
			"stateMutability": "view",
			"type": "function"
		},
		{
			"inputs": [
				{
					"internalType": "address",
					"name": "tokenA",
					"type": "address"
				},
				{
					"internalType": "address",
					"name": "tokenB",
					"type": "address"
				},
				{
					"internalType": "uint256",
					"name": "liquidity",
					"type": "uint256"
				},
				{
					"internalType": "uint256",
					"name": "amountAMin",
					"type": "uint256"
				},
				{
					"internalType": "uint256",
					"name": "amountBMin",
					"type": "uint256"
				},
				{
					"internalType": "address",
					"name": "to",
					"type": "address"
				},
				{
					"internalType": "uint256",
					"name": "deadline",
					"type": "uint256"
				}
			],
			"name": "removeLiquidity",
			"outputs": [
				{
					"internalType": "uint256",
					"name": "amountA",
					"type": "uint256"
				},
				{
					"internalType": "uint256",
					"name": "amountB",
					"type": "uint256"
				}
			],
			"stateMutability": "nonpayable",
			"type": "function"
		},
		{
			"inputs": [
				{
					"internalType": "uint256",
					"name": "amountIn",
					"type": "uint256"
				},
				{
					"internalType": "uint256",
					"name": "amountOutMin",
					"type": "uint256"
				},
				{
					"internalType": "address[]",
					"name": "path",
					"type": "address[]"
				},
				{
					"internalType": "address",
					"name": "to",
					"type": "address"
				},
				{
					"internalType": "uint256",
					"name": "deadline",
					"type": "uint256"
				}
			],
			"name": "swapExactTokensForTokens",
			"outputs": [
				{
					"internalType": "uint256[]",
					"name": "amounts",
					"type": "uint256[]"
				}
			],
			"stateMutability": "nonpayable",
			"type": "function"
		}
	]
}