{
	"data": {
		"bytecode": {
			"linkReferences": {},
			"object": "608060405234801561000f575f5ffd5b5060405161107b38038061107b83398181016040528101906100319190610142565b5f73ffffffffffffffffffffffffffffffffffffffff168173ffffffffffffffffffffffffffffffffffffffff160361009f576040517f08c379a0000000000000000000000000000000000000000000000000000000008152600401610096906101ed565b60405180910390fd5b805f5f6101000a81548173ffffffffffffffffffffffffffffffffffffffff021916908373ffffffffffffffffffffffffffffffffffffffff1602179055505061020b565b5f5ffd5b5f73ffffffffffffffffffffffffffffffffffffffff82169050919050565b5f610111826100e8565b9050919050565b61012181610107565b811461012b575f5ffd5b50565b5f8151905061013c81610118565b92915050565b5f60208284031215610157576101566100e4565b5b5f6101648482850161012e565b91505092915050565b5f82825260208201905092915050565b7f53696d706c65537761705465737465723a20446972656363696f6e2053696d705f8201527f6c655377617020696e76616c6964610000000000000000000000000000000000602082015250565b5f6101d7602f8361016d565b91506101e28261017d565b604082019050919050565b5f6020820190508181035f830152610204816101cb565b9050919050565b610e63806102185f395ff3fe60806040526004361061004d575f3560e01c80638927e052146100585780639d206ca414610082578063ae3eb29b146100be578063f09507e4146100fa578063f0e6edc51461013857610054565b3661005457005b5f5ffd5b348015610063575f5ffd5b5061006c610174565b604051610079919061051e565b60405180910390f35b34801561008d575f5ffd5b506100a860048036038101906100a391906105dc565b610198565b6040516100b59190610717565b60405180910390f35b3480156100c9575f5ffd5b506100e460048036038101906100df9190610772565b61024b565b6040516100f191906107bf565b60405180910390f35b348015610105575f5ffd5b50610120600480360381019061011b91906107d8565b6102ee565b60405161012f93929190610875565b60405180910390f35b348015610143575f5ffd5b5061015e600480360381019061015991906108aa565b6103b1565b60405161016b9190610914565b60405180910390f35b5f5f9054906101000a900473ffffffffffffffffffffffffffffffffffffffff1681565b60605f5f9054906101000a900473ffffffffffffffffffffffffffffffffffffffff1673ffffffffffffffffffffffffffffffffffffffff166338ed17398787878730886040518763ffffffff1660e01b81526004016101fd969594939291906109f8565b5f604051808303815f875af1158015610218573d5f5f3e3d5ffd5b505050506040513d5f823e3d601f19601f820116820180604052508101906102409190610bae565b905095945050505050565b5f5f5f9054906101000a900473ffffffffffffffffffffffffffffffffffffffff1673ffffffffffffffffffffffffffffffffffffffff1663ac41865a84846040518363ffffffff1660e01b81526004016102a7929190610bf5565b602060405180830381865afa1580156102c2573d5f5f3e3d5ffd5b505050506040513d601f19601f820116820180604052508101906102e69190610c1c565b905092915050565b5f5f5f5f5f9054906101000a900473ffffffffffffffffffffffffffffffffffffffff1673ffffffffffffffffffffffffffffffffffffffff1663e8e337008b8b8b8b8b8b308c6040518963ffffffff1660e01b8152600401610358989796959493929190610c47565b6060604051808303815f875af1158015610374573d5f5f3e3d5ffd5b505050506040513d601f19601f820116820180604052508101906103989190610cc3565b8093508194508295505050509750975097945050505050565b5f5f73ffffffffffffffffffffffffffffffffffffffff168473ffffffffffffffffffffffffffffffffffffffff1603610420576040517f08c379a000000000000000000000000000000000000000000000000000000000815260040161041790610d93565b60405180910390fd5b8373ffffffffffffffffffffffffffffffffffffffff1663095ea7b384846040518363ffffffff1660e01b815260040161045b929190610db1565b6020604051808303815f875af1158015610477573d5f5f3e3d5ffd5b505050506040513d601f19601f8201168201806040525081019061049b9190610e02565b90509392505050565b5f73ffffffffffffffffffffffffffffffffffffffff82169050919050565b5f819050919050565b5f6104e66104e16104dc846104a4565b6104c3565b6104a4565b9050919050565b5f6104f7826104cc565b9050919050565b5f610508826104ed565b9050919050565b610518816104fe565b82525050565b5f6020820190506105315f83018461050f565b92915050565b5f604051905090565b5f5ffd5b5f5ffd5b5f819050919050565b61055a81610548565b8114610564575f5ffd5b50565b5f8135905061057581610551565b92915050565b5f5ffd5b5f5ffd5b5f5ffd5b5f5f83601f84011261059c5761059b61057b565b5b8235905067ffffffffffffffff8111156105b9576105b861057f565b5b6020830191508360208202830111156105d5576105d4610583565b5b9250929050565b5f5f5f5f5f608086880312156105f5576105f4610540565b5b5f61060288828901610567565b955050602061061388828901610567565b945050604086013567ffffffffffffffff81111561063457610633610544565b5b61064088828901610587565b9350935050606061065388828901610567565b9150509295509295909350565b5f81519050919050565b5f82825260208201905092915050565b5f819050602082019050919050565b61069281610548565b82525050565b5f6106a38383610689565b60208301905092915050565b5f602082019050919050565b5f6106c582610660565b6106cf818561066a565b93506106da8361067a565b805f5b8381101561070a5781516106f18882610698565b97506106fc836106af565b9250506001810190506106dd565b5085935050505092915050565b5f6020820190508181035f83015261072f81846106bb565b905092915050565b5f610741826104a4565b9050919050565b61075181610737565b811461075b575f5ffd5b50565b5f8135905061076c81610748565b92915050565b5f5f6040838503121561078857610787610540565b5b5f6107958582860161075e565b92505060206107a68582860161075e565b9150509250929050565b6107b981610548565b82525050565b5f6020820190506107d25f8301846107b0565b92915050565b5f5f5f5f5f5f5f60e0888a0312156107f3576107f2610540565b5b5f6108008a828b0161075e565b97505060206108118a828b0161075e565b96505060406108228a828b01610567565b95505060606108338a828b01610567565b94505060806108448a828b01610567565b93505060a06108558a828b01610567565b92505060c06108668a828b01610567565b91505092959891949750929550565b5f6060820190506108885f8301866107b0565b61089560208301856107b0565b6108a260408301846107b0565b949350505050565b5f5f5f606084860312156108c1576108c0610540565b5b5f6108ce8682870161075e565b93505060206108df8682870161075e565b92505060406108f086828701610567565b9150509250925092565b5f8115159050919050565b61090e816108fa565b82525050565b5f6020820190506109275f830184610905565b92915050565b5f82825260208201905092915050565b5f819050919050565b61094f81610737565b82525050565b5f6109608383610946565b60208301905092915050565b5f61097a602084018461075e565b905092915050565b5f602082019050919050565b5f610999838561092d565b93506109a48261093d565b805f5b858110156109dc576109b9828461096c565b6109c38882610955565b97506109ce83610982565b9250506001810190506109a7565b5085925050509392505050565b6109f281610737565b82525050565b5f60a082019050610a0b5f8301896107b0565b610a1860208301886107b0565b8181036040830152610a2b81868861098e565b9050610a3a60608301856109e9565b610a4760808301846107b0565b979650505050505050565b5f601f19601f8301169050919050565b7f4e487b71000000000000000000000000000000000000000000000000000000005f52604160045260245ffd5b610a9882610a52565b810181811067ffffffffffffffff82111715610ab757610ab6610a62565b5b80604052505050565b5f610ac9610537565b9050610ad58282610a8f565b919050565b5f67ffffffffffffffff821115610af457610af3610a62565b5b602082029050602081019050919050565b5f81519050610b1381610551565b92915050565b5f610b2b610b2684610ada565b610ac0565b90508083825260208201905060208402830185811115610b4e57610b4d610583565b5b835b81811015610b775780610b638882610b05565b845260208401935050602081019050610b50565b5050509392505050565b5f82601f830112610b9557610b9461057b565b5b8151610ba5848260208601610b19565b91505092915050565b5f60208284031215610bc357610bc2610540565b5b5f82015167ffffffffffffffff811115610be057610bdf610544565b5b610bec84828501610b81565b91505092915050565b5f604082019050610c085f8301856109e9565b610c1560208301846109e9565b9392505050565b5f60208284031215610c3157610c30610540565b5b5f610c3e84828501610b05565b91505092915050565b5f61010082019050610c5b5f83018b6109e9565b610c68602083018a6109e9565b610c7560408301896107b0565b610c8260608301886107b0565b610c8f60808301876107b0565b610c9c60a08301866107b0565b610ca960c08301856109e9565b610cb660e08301846107b0565b9998505050505050505050565b5f5f5f60608486031215610cda57610cd9610540565b5b5f610ce786828701610b05565b9350506020610cf886828701610b05565b9250506040610d0986828701610b05565b9150509250925092565b5f82825260208201905092915050565b7f53696d706c65537761705465737465723a20446972656363696f6e20646520745f8201527f6f6b656e20696e76616c69646100000000000000000000000000000000000000602082015250565b5f610d7d602d83610d13565b9150610d8882610d23565b604082019050919050565b5f6020820190508181035f830152610daa81610d71565b9050919050565b5f604082019050610dc45f8301856109e9565b610dd160208301846107b0565b9392505050565b610de1816108fa565b8114610deb575f5ffd5b50565b5f81519050610dfc81610dd8565b92915050565b5f60208284031215610e1757610e16610540565b5b5f610e2484828501610dee565b9150509291505056fea264697066735822122094d717c24c23c338ebe3199d65357964dbd293a5fe5c5b9e188c58500a7c723e64736f6c634300081b0033",
			"opcodes": "PUSH1 0x80 PUSH1 0x40 MSTORE CALLVALUE DUP1 ISZERO PUSH2 0xF JUMPI PUSH0 PUSH0 REVERT JUMPDEST POP PUSH1 0x40 MLOAD PUSH2 0x107B CODESIZE SUB DUP1 PUSH2 0x107B DUP4 CODECOPY DUP2 DUP2 ADD PUSH1 0x40 MSTORE DUP2 ADD SWAP1 PUSH2 0x31 SWAP2 SWAP1 PUSH2 0x142 JUMP JUMPDEST PUSH0 PUSH20 0xFFFFFFFFFFFFFFFFFFFFFFFFFFFFFFFFFFFFFFFF AND DUP2 PUSH20 0xFFFFFFFFFFFFFFFFFFFFFFFFFFFFFFFFFFFFFFFF AND SUB PUSH2 0x9F JUMPI PUSH1 0x40 MLOAD PUSH32 0x8C379A000000000000000000000000000000000000000000000000000000000 DUP2 MSTORE PUSH1 0x4 ADD PUSH2 0x96 SWAP1 PUSH2 0x1ED JUMP JUMPDEST PUSH1 0x40 MLOAD DUP1 SWAP2 SUB SWAP1 REVERT JUMPDEST DUP1 PUSH0 PUSH0 PUSH2 0x100 EXP DUP2 SLOAD DUP2 PUSH20 0xFFFFFFFFFFFFFFFFFFFFFFFFFFFFFFFFFFFFFFFF MUL NOT AND SWAP1 DUP4 PUSH20 0xFFFFFFFFFFFFFFFFFFFFFFFFFFFFFFFFFFFFFFFF AND MUL OR SWAP1 SSTORE POP POP PUSH2 0x20B JUMP JUMPDEST PUSH0 PUSH0 REVERT JUMPDEST PUSH0 PUSH20 0xFFFFFFFFFFFFFFFFFFFFFFFFFFFFFFFFFFFFFFFF DUP3 AND SWAP1 POP SWAP2 SWAP1 POP JUMP JUMPDEST PUSH0 PUSH2 0x111 DUP3 PUSH2 0xE8 JUMP JUMPDEST SWAP1 POP SWAP2 SWAP1 POP JUMP JUMPDEST PUSH2 0x121 DUP2 PUSH2 0x107 JUMP JUMPDEST DUP2 EQ PUSH2 0x12B JUMPI PUSH0 PUSH0 REVERT JUMPDEST POP JUMP JUMPDEST PUSH0 DUP2 MLOAD SWAP1 POP PUSH2 0x13C DUP2 PUSH2 0x118 JUMP JUMPDEST SWAP3 SWAP2 POP POP JUMP JUMPDEST PUSH0 PUSH1 0x20 DUP3 DUP5 SUB SLT ISZERO PUSH2 0x157 JUMPI PUSH2 0x156 PUSH2 0xE4 JUMP JUMPDEST JUMPDEST PUSH0 PUSH2 0x164 DUP5 DUP3 DUP6 ADD PUSH2 0x12E JUMP JUMPDEST SWAP2 POP POP SWAP3 SWAP2 POP POP JUMP JUMPDEST PUSH0 DUP3 DUP3 MSTORE PUSH1 0x20 DUP3 ADD SWAP1 POP SWAP3 SWAP2 POP POP JUMP JUMPDEST PUSH32 0x53696D706C65537761705465737465723A20446972656363696F6E2053696D70 PUSH0 DUP3 ADD MSTORE PUSH32 0x6C655377617020696E76616C6964610000000000000000000000000000000000 PUSH1 0x20 DUP3 ADD MSTORE POP JUMP JUMPDEST PUSH0 PUSH2 0x1D7 PUSH1 0x2F DUP4 PUSH2 0x16D JUMP JUMPDEST SWAP2 POP PUSH2 0x1E2 DUP3 PUSH2 0x17D JUMP JUMPDEST PUSH1 0x40 DUP3 ADD SWAP1 POP SWAP2 SWAP1 POP JUMP JUMPDEST PUSH0 PUSH1 0x20 DUP3 ADD SWAP1 POP DUP2 DUP2 SUB PUSH0 DUP4 ADD MSTORE PUSH2 0x204 DUP2 PUSH2 0x1CB JUMP JUMPDEST SWAP1 POP SWAP2 SWAP1 POP JUMP JUMPDEST PUSH2 0xE63 DUP1 PUSH2 0x218 PUSH0 CODECOPY PUSH0 RETURN INVALID PUSH1 0x80 PUSH1 0x40 MSTORE PUSH1 0x4 CALLDATASIZE LT PUSH2 0x4D JUMPI PUSH0 CALLDATALOAD PUSH1 0xE0 SHR DUP1 PUSH4 0x8927E052 EQ PUSH2 0x58 JUMPI DUP1 PUSH4 0x9D206CA4 EQ PUSH2 0x82 JUMPI DUP1 PUSH4 0xAE3EB29B EQ PUSH2 0xBE JUMPI DUP1 PUSH4 0xF09507E4 EQ PUSH2 0xFA JUMPI DUP1 PUSH4 0xF0E6EDC5 EQ PUSH2 0x138 JUMPI PUSH2 0x54 JUMP JUMPDEST CALLDATASIZE PUSH2 0x54 JUMPI STOP JUMPDEST PUSH0 PUSH0 REVERT JUMPDEST CALLVALUE DUP1 ISZERO PUSH2 0x63 JUMPI PUSH0 PUSH0 REVERT JUMPDEST POP PUSH2 0x6C PUSH2 0x174 JUMP JUMPDEST PUSH1 0x40 MLOAD PUSH2 0x79 SWAP2 SWAP1 PUSH2 0x51E JUMP JUMPDEST PUSH1 0x40 MLOAD DUP1 SWAP2 SUB SWAP1 RETURN JUMPDEST CALLVALUE DUP1 ISZERO PUSH2 0x8D JUMPI PUSH0 PUSH0 REVERT JUMPDEST POP PUSH2 0xA8 PUSH1 0x4 DUP1 CALLDATASIZE SUB DUP2 ADD SWAP1 PUSH2 0xA3 SWAP2 SWAP1 PUSH2 0x5DC JUMP JUMPDEST PUSH2 0x198 JUMP JUMPDEST PUSH1 0x40 MLOAD PUSH2 0xB5 SWAP2 SWAP1 PUSH2 0x717 JUMP JUMPDEST PUSH1 0x40 MLOAD DUP1 SWAP2 SUB SWAP1 RETURN JUMPDEST CALLVALUE DUP1 ISZERO PUSH2 0xC9 JUMPI PUSH0 PUSH0 REVERT JUMPDEST POP PUSH2 0xE4 PUSH1 0x4 DUP1 CALLDATASIZE SUB DUP2 ADD SWAP1 PUSH2 0xDF SWAP2 SWAP1 PUSH2 0x772 JUMP JUMPDEST PUSH2 0x24B JUMP JUMPDEST PUSH1 0x40 MLOAD PUSH2 0xF1 SWAP2 SWAP1 PUSH2 0x7BF JUMP JUMPDEST PUSH1 0x40 MLOAD DUP1 SWAP2 SUB SWAP1 RETURN JUMPDEST CALLVALUE DUP1 ISZERO PUSH2 0x105 JUMPI PUSH0 PUSH0 REVERT JUMPDEST POP PUSH2 0x120 PUSH1 0x4 DUP1 CALLDATASIZE SUB DUP2 ADD SWAP1 PUSH2 0x11B SWAP2 SWAP1 PUSH2 0x7D8 JUMP JUMPDEST PUSH2 0x2EE JUMP JUMPDEST PUSH1 0x40 MLOAD PUSH2 0x12F SWAP4 SWAP3 SWAP2 SWAP1 PUSH2 0x875 JUMP JUMPDEST PUSH1 0x40 MLOAD DUP1 SWAP2 SUB SWAP1 RETURN JUMPDEST CALLVALUE DUP1 ISZERO PUSH2 0x143 JUMPI PUSH0 PUSH0 REVERT JUMPDEST POP PUSH2 0x15E PUSH1 0x4 DUP1 CALLDATASIZE SUB DUP2 ADD SWAP1 PUSH2 0x159 SWAP2 SWAP1 PUSH2 0x8AA JUMP JUMPDEST PUSH2 0x3B1 JUMP JUMPDEST PUSH1 0x40 MLOAD PUSH2 0x16B SWAP2 SWAP1 PUSH2 0x914 JUMP JUMPDEST PUSH1 0x40 MLOAD DUP1 SWAP2 SUB SWAP1 RETURN JUMPDEST PUSH0 PUSH0 SWAP1 SLOAD SWAP1 PUSH2 0x100 EXP SWAP1 DIV PUSH20 0xFFFFFFFFFFFFFFFFFFFFFFFFFFFFFFFFFFFFFFFF AND DUP2 JUMP JUMPDEST PUSH1 0x60 PUSH0 PUSH0 SWAP1 SLOAD SWAP1 PUSH2 0x100 EXP SWAP1 DIV PUSH20 0xFFFFFFFFFFFFFFFFFFFFFFFFFFFFFFFFFFFFFFFF AND PUSH20 0xFFFFFFFFFFFFFFFFFFFFFFFFFFFFFFFFFFFFFFFF AND PUSH4 0x38ED1739 DUP8 DUP8 DUP8 DUP8 ADDRESS DUP9 PUSH1 0x40 MLOAD DUP8 PUSH4 0xFFFFFFFF AND PUSH1 0xE0 SHL DUP2 MSTORE PUSH1 0x4 ADD PUSH2 0x1FD SWAP7 SWAP6 SWAP5 SWAP4 SWAP3 SWAP2 SWAP1 PUSH2 0x9F8 JUMP JUMPDEST PUSH0 PUSH1 0x40 MLOAD DUP1 DUP4 SUB DUP2 PUSH0 DUP8 GAS CALL ISZERO DUP1 ISZERO PUSH2 0x218 JUMPI RETURNDATASIZE PUSH0 PUSH0 RETURNDATACOPY RETURNDATASIZE PUSH0 REVERT JUMPDEST POP POP POP POP PUSH1 0x40 MLOAD RETURNDATASIZE PUSH0 DUP3 RETURNDATACOPY RETURNDATASIZE PUSH1 0x1F NOT PUSH1 0x1F DUP3 ADD AND DUP3 ADD DUP1 PUSH1 0x40 MSTORE POP DUP2 ADD SWAP1 PUSH2 0x240 SWAP2 SWAP1 PUSH2 0xBAE JUMP JUMPDEST SWAP1 POP SWAP6 SWAP5 POP POP POP POP POP JUMP JUMPDEST PUSH0 PUSH0 PUSH0 SWAP1 SLOAD SWAP1 PUSH2 0x100 EXP SWAP1 DIV PUSH20 0xFFFFFFFFFFFFFFFFFFFFFFFFFFFFFFFFFFFFFFFF AND PUSH20 0xFFFFFFFFFFFFFFFFFFFFFFFFFFFFFFFFFFFFFFFF AND PUSH4 0xAC41865A DUP5 DUP5 PUSH1 0x40 MLOAD DUP4 PUSH4 0xFFFFFFFF AND PUSH1 0xE0 SHL DUP2 MSTORE PUSH1 0x4 ADD PUSH2 0x2A7 SWAP3 SWAP2 SWAP1 PUSH2 0xBF5 JUMP JUMPDEST PUSH1 0x20 PUSH1 0x40 MLOAD DUP1 DUP4 SUB DUP2 DUP7 GAS STATICCALL ISZERO DUP1 ISZERO PUSH2 0x2C2 JUMPI RETURNDATASIZE PUSH0 PUSH0 RETURNDATACOPY RETURNDATASIZE PUSH0 REVERT JUMPDEST POP POP POP POP PUSH1 0x40 MLOAD RETURNDATASIZE PUSH1 0x1F NOT PUSH1 0x1F DUP3 ADD AND DUP3 ADD DUP1 PUSH1 0x40 MSTORE POP DUP2 ADD SWAP1 PUSH2 0x2E6 SWAP2 SWAP1 PUSH2 0xC1C JUMP JUMPDEST SWAP1 POP SWAP3 SWAP2 POP POP JUMP JUMPDEST PUSH0 PUSH0 PUSH0 PUSH0 PUSH0 SWAP1 SLOAD SWAP1 PUSH2 0x100 EXP SWAP1 DIV PUSH20 0xFFFFFFFFFFFFFFFFFFFFFFFFFFFFFFFFFFFFFFFF AND PUSH20 0xFFFFFFFFFFFFFFFFFFFFFFFFFFFFFFFFFFFFFFFF AND PUSH4 0xE8E33700 DUP12 DUP12 DUP12 DUP12 DUP12 DUP12 ADDRESS DUP13 PUSH1 0x40 MLOAD DUP10 PUSH4 0xFFFFFFFF AND PUSH1 0xE0 SHL DUP2 MSTORE PUSH1 0x4 ADD PUSH2 0x358 SWAP9 SWAP8 SWAP7 SWAP6 SWAP5 SWAP4 SWAP3 SWAP2 SWAP1 PUSH2 0xC47 JUMP JUMPDEST PUSH1 0x60 PUSH1 0x40 MLOAD DUP1 DUP4 SUB DUP2 PUSH0 DUP8 GAS CALL ISZERO DUP1 ISZERO PUSH2 0x374 JUMPI RETURNDATASIZE PUSH0 PUSH0 RETURNDATACOPY RETURNDATASIZE PUSH0 REVERT JUMPDEST POP POP POP POP PUSH1 0x40 MLOAD RETURNDATASIZE PUSH1 0x1F NOT PUSH1 0x1F DUP3 ADD AND DUP3 ADD DUP1 PUSH1 0x40 MSTORE POP DUP2 ADD SWAP1 PUSH2 0x398 SWAP2 SWAP1 PUSH2 0xCC3 JUMP JUMPDEST DUP1 SWAP4 POP DUP2 SWAP5 POP DUP3 SWAP6 POP POP POP POP SWAP8 POP SWAP8 POP SWAP8 SWAP5 POP POP POP POP POP JUMP JUMPDEST PUSH0 PUSH0 PUSH20 0xFFFFFFFFFFFFFFFFFFFFFFFFFFFFFFFFFFFFFFFF AND DUP5 PUSH20 0xFFFFFFFFFFFFFFFFFFFFFFFFFFFFFFFFFFFFFFFF AND SUB PUSH2 0x420 JUMPI PUSH1 0x40 MLOAD PUSH32 0x8C379A000000000000000000000000000000000000000000000000000000000 DUP2 MSTORE PUSH1 0x4 ADD PUSH2 0x417 SWAP1 PUSH2 0xD93 JUMP JUMPDEST PUSH1 0x40 MLOAD DUP1 SWAP2 SUB SWAP1 REVERT JUMPDEST DUP4 PUSH20 0xFFFFFFFFFFFFFFFFFFFFFFFFFFFFFFFFFFFFFFFF AND PUSH4 0x95EA7B3 DUP5 DUP5 PUSH1 0x40 MLOAD DUP4 PUSH4 0xFFFFFFFF AND PUSH1 0xE0 SHL DUP2 MSTORE PUSH1 0x4 ADD PUSH2 0x45B SWAP3 SWAP2 SWAP1 PUSH2 0xDB1 JUMP JUMPDEST PUSH1 0x20 PUSH1 0x40 MLOAD DUP1 DUP4 SUB DUP2 PUSH0 DUP8 GAS CALL ISZERO DUP1 ISZERO PUSH2 0x477 JUMPI RETURNDATASIZE PUSH0 PUSH0 RETURNDATACOPY RETURNDATASIZE PUSH0 REVERT JUMPDEST POP POP POP POP PUSH1 0x40 MLOAD RETURNDATASIZE PUSH1 0x1F NOT PUSH1 0x1F DUP3 ADD AND DUP3 ADD DUP1 PUSH1 0x40 MSTORE POP DUP2 ADD SWAP1 PUSH2 0x49B SWAP2 SWAP1 PUSH2 0xE02 JUMP JUMPDEST SWAP1 POP SWAP4 SWAP3 POP POP POP JUMP JUMPDEST PUSH0 PUSH20 0xFFFFFFFFFFFFFFFFFFFFFFFFFFFFFFFFFFFFFFFF DUP3 AND SWAP1 POP SWAP2 SWAP1 POP JUMP JUMPDEST PUSH0 DUP2 SWAP1 POP SWAP2 SWAP1 POP JUMP JUMPDEST PUSH0 PUSH2 0x4E6 PUSH2 0x4E1 PUSH2 0x4DC DUP5 PUSH2 0x4A4 JUMP JUMPDEST PUSH2 0x4C3 JUMP JUMPDEST PUSH2 0x4A4 JUMP JUMPDEST SWAP1 POP SWAP2 SWAP1 POP JUMP JUMPDEST PUSH0 PUSH2 0x4F7 DUP3 PUSH2 0x4CC JUMP JUMPDEST SWAP1 POP SWAP2 SWAP1 POP JUMP JUMPDEST PUSH0 PUSH2 0x508 DUP3 PUSH2 0x4ED JUMP JUMPDEST SWAP1 POP SWAP2 SWAP1 POP JUMP JUMPDEST PUSH2 0x518 DUP2 PUSH2 0x4FE JUMP JUMPDEST DUP3 MSTORE POP POP JUMP JUMPDEST PUSH0 PUSH1 0x20 DUP3 ADD SWAP1 POP PUSH2 0x531 PUSH0 DUP4 ADD DUP5 PUSH2 0x50F JUMP JUMPDEST SWAP3 SWAP2 POP POP JUMP JUMPDEST PUSH0 PUSH1 0x40 MLOAD SWAP1 POP SWAP1 JUMP JUMPDEST PUSH0 PUSH0 REVERT JUMPDEST PUSH0 PUSH0 REVERT JUMPDEST PUSH0 DUP2 SWAP1 POP SWAP2 SWAP1 POP JUMP JUMPDEST PUSH2 0x55A DUP2 PUSH2 0x548 JUMP JUMPDEST DUP2 EQ PUSH2 0x564 JUMPI PUSH0 PUSH0 REVERT JUMPDEST POP JUMP JUMPDEST PUSH0 DUP2 CALLDATALOAD SWAP1 POP PUSH2 0x575 DUP2 PUSH2 0x551 JUMP JUMPDEST SWAP3 SWAP2 POP POP JUMP JUMPDEST PUSH0 PUSH0 REVERT JUMPDEST PUSH0 PUSH0 REVERT JUMPDEST PUSH0 PUSH0 REVERT JUMPDEST PUSH0 PUSH0 DUP4 PUSH1 0x1F DUP5 ADD SLT PUSH2 0x59C JUMPI PUSH2 0x59B PUSH2 0x57B JUMP JUMPDEST JUMPDEST DUP3 CALLDATALOAD SWAP1 POP PUSH8 0xFFFFFFFFFFFFFFFF DUP2 GT ISZERO PUSH2 0x5B9 JUMPI PUSH2 0x5B8 PUSH2 0x57F JUMP JUMPDEST JUMPDEST PUSH1 0x20 DUP4 ADD SWAP2 POP DUP4 PUSH1 0x20 DUP3 MUL DUP4 ADD GT ISZERO PUSH2 0x5D5 JUMPI PUSH2 0x5D4 PUSH2 0x583 JUMP JUMPDEST JUMPDEST SWAP3 POP SWAP3 SWAP1 POP JUMP JUMPDEST PUSH0 PUSH0 PUSH0 PUSH0 PUSH0 PUSH1 0x80 DUP7 DUP9 SUB SLT ISZERO PUSH2 0x5F5 JUMPI PUSH2 0x5F4 PUSH2 0x540 JUMP JUMPDEST JUMPDEST PUSH0 PUSH2 0x602 DUP9 DUP3 DUP10 ADD PUSH2 0x567 JUMP JUMPDEST SWAP6 POP POP PUSH1 0x20 PUSH2 0x613 DUP9 DUP3 DUP10 ADD PUSH2 0x567 JUMP JUMPDEST SWAP5 POP POP PUSH1 0x40 DUP7 ADD CALLDATALOAD PUSH8 0xFFFFFFFFFFFFFFFF DUP2 GT ISZERO PUSH2 0x634 JUMPI PUSH2 0x633 PUSH2 0x544 JUMP JUMPDEST JUMPDEST PUSH2 0x640 DUP9 DUP3 DUP10 ADD PUSH2 0x587 JUMP JUMPDEST SWAP4 POP SWAP4 POP POP PUSH1 0x60 PUSH2 0x653 DUP9 DUP3 DUP10 ADD PUSH2 0x567 JUMP JUMPDEST SWAP2 POP POP SWAP3 SWAP6 POP SWAP3 SWAP6 SWAP1 SWAP4 POP JUMP JUMPDEST PUSH0 DUP2 MLOAD SWAP1 POP SWAP2 SWAP1 POP JUMP JUMPDEST PUSH0 DUP3 DUP3 MSTORE PUSH1 0x20 DUP3 ADD SWAP1 POP SWAP3 SWAP2 POP POP JUMP JUMPDEST PUSH0 DUP2 SWAP1 POP PUSH1 0x20 DUP3 ADD SWAP1 POP SWAP2 SWAP1 POP JUMP JUMPDEST PUSH2 0x692 DUP2 PUSH2 0x548 JUMP JUMPDEST DUP3 MSTORE POP POP JUMP JUMPDEST PUSH0 PUSH2 0x6A3 DUP4 DUP4 PUSH2 0x689 JUMP JUMPDEST PUSH1 0x20 DUP4 ADD SWAP1 POP SWAP3 SWAP2 POP POP JUMP JUMPDEST PUSH0 PUSH1 0x20 DUP3 ADD SWAP1 POP SWAP2 SWAP1 POP JUMP JUMPDEST PUSH0 PUSH2 0x6C5 DUP3 PUSH2 0x660 JUMP JUMPDEST PUSH2 0x6CF DUP2 DUP6 PUSH2 0x66A JUMP JUMPDEST SWAP4 POP PUSH2 0x6DA DUP4 PUSH2 0x67A JUMP JUMPDEST DUP1 PUSH0 JUMPDEST DUP4 DUP2 LT ISZERO PUSH2 0x70A JUMPI DUP2 MLOAD PUSH2 0x6F1 DUP9 DUP3 PUSH2 0x698 JUMP JUMPDEST SWAP8 POP PUSH2 0x6FC DUP4 PUSH2 0x6AF JUMP JUMPDEST SWAP3 POP POP PUSH1 0x1 DUP2 ADD SWAP1 POP PUSH2 0x6DD JUMP JUMPDEST POP DUP6 SWAP4 POP POP POP POP SWAP3 SWAP2 POP POP JUMP JUMPDEST PUSH0 PUSH1 0x20 DUP3 ADD SWAP1 POP DUP2 DUP2 SUB PUSH0 DUP4 ADD MSTORE PUSH2 0x72F DUP2 DUP5 PUSH2 0x6BB JUMP JUMPDEST SWAP1 POP SWAP3 SWAP2 POP POP JUMP JUMPDEST PUSH0 PUSH2 0x741 DUP3 PUSH2 0x4A4 JUMP JUMPDEST SWAP1 POP SWAP2 SWAP1 POP JUMP JUMPDEST PUSH2 0x751 DUP2 PUSH2 0x737 JUMP JUMPDEST DUP2 EQ PUSH2 0x75B JUMPI PUSH0 PUSH0 REVERT JUMPDEST POP JUMP JUMPDEST PUSH0 DUP2 CALLDATALOAD SWAP1 POP PUSH2 0x76C DUP2 PUSH2 0x748 JUMP JUMPDEST SWAP3 SWAP2 POP POP JUMP JUMPDEST PUSH0 PUSH0 PUSH1 0x40 DUP4 DUP6 SUB SLT ISZERO PUSH2 0x788 JUMPI PUSH2 0x787 PUSH2 0x540 JUMP JUMPDEST JUMPDEST PUSH0 PUSH2 0x795 DUP6 DUP3 DUP7 ADD PUSH2 0x75E JUMP JUMPDEST SWAP3 POP POP PUSH1 0x20 PUSH2 0x7A6 DUP6 DUP3 DUP7 ADD PUSH2 0x75E JUMP JUMPDEST SWAP2 POP POP SWAP3 POP SWAP3 SWAP1 POP JUMP JUMPDEST PUSH2 0x7B9 DUP2 PUSH2 0x548 JUMP JUMPDEST DUP3 MSTORE POP POP JUMP JUMPDEST PUSH0 PUSH1 0x20 DUP3 ADD SWAP1 POP PUSH2 0x7D2 PUSH0 DUP4 ADD DUP5 PUSH2 0x7B0 JUMP JUMPDEST SWAP3 SWAP2 POP POP JUMP JUMPDEST PUSH0 PUSH0 PUSH0 PUSH0 PUSH0 PUSH0 PUSH0 PUSH1 0xE0 DUP9 DUP11 SUB SLT ISZERO PUSH2 0x7F3 JUMPI PUSH2 0x7F2 PUSH2 0x540 JUMP JUMPDEST JUMPDEST PUSH0 PUSH2 0x800 DUP11 DUP3 DUP12 ADD PUSH2 0x75E JUMP JUMPDEST SWAP8 POP POP PUSH1 0x20 PUSH2 0x811 DUP11 DUP3 DUP12 ADD PUSH2 0x75E JUMP JUMPDEST SWAP7 POP POP PUSH1 0x40 PUSH2 0x822 DUP11 DUP3 DUP12 ADD PUSH2 0x567 JUMP JUMPDEST SWAP6 POP POP PUSH1 0x60 PUSH2 0x833 DUP11 DUP3 DUP12 ADD PUSH2 0x567 JUMP JUMPDEST SWAP5 POP POP PUSH1 0x80 PUSH2 0x844 DUP11 DUP3 DUP12 ADD PUSH2 0x567 JUMP JUMPDEST SWAP4 POP POP PUSH1 0xA0 PUSH2 0x855 DUP11 DUP3 DUP12 ADD PUSH2 0x567 JUMP JUMPDEST SWAP3 POP POP PUSH1 0xC0 PUSH2 0x866 DUP11 DUP3 DUP12 ADD PUSH2 0x567 JUMP JUMPDEST SWAP2 POP POP SWAP3 SWAP6 SWAP9 SWAP2 SWAP5 SWAP8 POP SWAP3 SWAP6 POP JUMP JUMPDEST PUSH0 PUSH1 0x60 DUP3 ADD SWAP1 POP PUSH2 0x888 PUSH0 DUP4 ADD DUP7 PUSH2 0x7B0 JUMP JUMPDEST PUSH2 0x895 PUSH1 0x20 DUP4 ADD DUP6 PUSH2 0x7B0 JUMP JUMPDEST PUSH2 0x8A2 PUSH1 0x40 DUP4 ADD DUP5 PUSH2 0x7B0 JUMP JUMPDEST SWAP5 SWAP4 POP POP POP POP JUMP JUMPDEST PUSH0 PUSH0 PUSH0 PUSH1 0x60 DUP5 DUP7 SUB SLT ISZERO PUSH2 0x8C1 JUMPI PUSH2 0x8C0 PUSH2 0x540 JUMP JUMPDEST JUMPDEST PUSH0 PUSH2 0x8CE DUP7 DUP3 DUP8 ADD PUSH2 0x75E JUMP JUMPDEST SWAP4 POP POP PUSH1 0x20 PUSH2 0x8DF DUP7 DUP3 DUP8 ADD PUSH2 0x75E JUMP JUMPDEST SWAP3 POP POP PUSH1 0x40 PUSH2 0x8F0 DUP7 DUP3 DUP8 ADD PUSH2 0x567 JUMP JUMPDEST SWAP2 POP POP SWAP3 POP SWAP3 POP SWAP3 JUMP JUMPDEST PUSH0 DUP2 ISZERO ISZERO SWAP1 POP SWAP2 SWAP1 POP JUMP JUMPDEST PUSH2 0x90E DUP2 PUSH2 0x8FA JUMP JUMPDEST DUP3 MSTORE POP POP JUMP JUMPDEST PUSH0 PUSH1 0x20 DUP3 ADD SWAP1 POP PUSH2 0x927 PUSH0 DUP4 ADD DUP5 PUSH2 0x905 JUMP JUMPDEST SWAP3 SWAP2 POP POP JUMP JUMPDEST PUSH0 DUP3 DUP3 MSTORE PUSH1 0x20 DUP3 ADD SWAP1 POP SWAP3 SWAP2 POP POP JUMP JUMPDEST PUSH0 DUP2 SWAP1 POP SWAP2 SWAP1 POP JUMP JUMPDEST PUSH2 0x94F DUP2 PUSH2 0x737 JUMP JUMPDEST DUP3 MSTORE POP POP JUMP JUMPDEST PUSH0 PUSH2 0x960 DUP4 DUP4 PUSH2 0x946 JUMP JUMPDEST PUSH1 0x20 DUP4 ADD SWAP1 POP SWAP3 SWAP2 POP POP JUMP JUMPDEST PUSH0 PUSH2 0x97A PUSH1 0x20 DUP5 ADD DUP5 PUSH2 0x75E JUMP JUMPDEST SWAP1 POP SWAP3 SWAP2 POP POP JUMP JUMPDEST PUSH0 PUSH1 0x20 DUP3 ADD SWAP1 POP SWAP2 SWAP1 POP JUMP JUMPDEST PUSH0 PUSH2 0x999 DUP4 DUP6 PUSH2 0x92D JUMP JUMPDEST SWAP4 POP PUSH2 0x9A4 DUP3 PUSH2 0x93D JUMP JUMPDEST DUP1 PUSH0 JUMPDEST DUP6 DUP2 LT ISZERO PUSH2 0x9DC JUMPI PUSH2 0x9B9 DUP3 DUP5 PUSH2 0x96C JUMP JUMPDEST PUSH2 0x9C3 DUP9 DUP3 PUSH2 0x955 JUMP JUMPDEST SWAP8 POP PUSH2 0x9CE DUP4 PUSH2 0x982 JUMP JUMPDEST SWAP3 POP POP PUSH1 0x1 DUP2 ADD SWAP1 POP PUSH2 0x9A7 JUMP JUMPDEST POP DUP6 SWAP3 POP POP POP SWAP4 SWAP3 POP POP POP JUMP JUMPDEST PUSH2 0x9F2 DUP2 PUSH2 0x737 JUMP JUMPDEST DUP3 MSTORE POP POP JUMP JUMPDEST PUSH0 PUSH1 0xA0 DUP3 ADD SWAP1 POP PUSH2 0xA0B PUSH0 DUP4 ADD DUP10 PUSH2 0x7B0 JUMP JUMPDEST PUSH2 0xA18 PUSH1 0x20 DUP4 ADD DUP9 PUSH2 0x7B0 JUMP JUMPDEST DUP2 DUP2 SUB PUSH1 0x40 DUP4 ADD MSTORE PUSH2 0xA2B DUP2 DUP7 DUP9 PUSH2 0x98E JUMP JUMPDEST SWAP1 POP PUSH2 0xA3A PUSH1 0x60 DUP4 ADD DUP6 PUSH2 0x9E9 JUMP JUMPDEST PUSH2 0xA47 PUSH1 0x80 DUP4 ADD DUP5 PUSH2 0x7B0 JUMP JUMPDEST SWAP8 SWAP7 POP POP POP POP POP POP POP JUMP JUMPDEST PUSH0 PUSH1 0x1F NOT PUSH1 0x1F DUP4 ADD AND SWAP1 POP SWAP2 SWAP1 POP JUMP JUMPDEST PUSH32 0x4E487B7100000000000000000000000000000000000000000000000000000000 PUSH0 MSTORE PUSH1 0x41 PUSH1 0x4 MSTORE PUSH1 0x24 PUSH0 REVERT JUMPDEST PUSH2 0xA98 DUP3 PUSH2 0xA52 JUMP JUMPDEST DUP2 ADD DUP2 DUP2 LT PUSH8 0xFFFFFFFFFFFFFFFF DUP3 GT OR ISZERO PUSH2 0xAB7 JUMPI PUSH2 0xAB6 PUSH2 0xA62 JUMP JUMPDEST JUMPDEST DUP1 PUSH1 0x40 MSTORE POP POP POP JUMP JUMPDEST PUSH0 PUSH2 0xAC9 PUSH2 0x537 JUMP JUMPDEST SWAP1 POP PUSH2 0xAD5 DUP3 DUP3 PUSH2 0xA8F JUMP JUMPDEST SWAP2 SWAP1 POP JUMP JUMPDEST PUSH0 PUSH8 0xFFFFFFFFFFFFFFFF DUP3 GT ISZERO PUSH2 0xAF4 JUMPI PUSH2 0xAF3 PUSH2 0xA62 JUMP JUMPDEST JUMPDEST PUSH1 0x20 DUP3 MUL SWAP1 POP PUSH1 0x20 DUP2 ADD SWAP1 POP SWAP2 SWAP1 POP JUMP JUMPDEST PUSH0 DUP2 MLOAD SWAP1 POP PUSH2 0xB13 DUP2 PUSH2 0x551 JUMP JUMPDEST SWAP3 SWAP2 POP POP JUMP JUMPDEST PUSH0 PUSH2 0xB2B PUSH2 0xB26 DUP5 PUSH2 0xADA JUMP JUMPDEST PUSH2 0xAC0 JUMP JUMPDEST SWAP1 POP DUP1 DUP4 DUP3 MSTORE PUSH1 0x20 DUP3 ADD SWAP1 POP PUSH1 0x20 DUP5 MUL DUP4 ADD DUP6 DUP2 GT ISZERO PUSH2 0xB4E JUMPI PUSH2 0xB4D PUSH2 0x583 JUMP JUMPDEST JUMPDEST DUP4 JUMPDEST DUP2 DUP2 LT ISZERO PUSH2 0xB77 JUMPI DUP1 PUSH2 0xB63 DUP9 DUP3 PUSH2 0xB05 JUMP JUMPDEST DUP5 MSTORE PUSH1 0x20 DUP5 ADD SWAP4 POP POP PUSH1 0x20 DUP2 ADD SWAP1 POP PUSH2 0xB50 JUMP JUMPDEST POP POP POP SWAP4 SWAP3 POP POP POP JUMP JUMPDEST PUSH0 DUP3 PUSH1 0x1F DUP4 ADD SLT PUSH2 0xB95 JUMPI PUSH2 0xB94 PUSH2 0x57B JUMP JUMPDEST JUMPDEST DUP2 MLOAD PUSH2 0xBA5 DUP5 DUP3 PUSH1 0x20 DUP7 ADD PUSH2 0xB19 JUMP JUMPDEST SWAP2 POP POP SWAP3 SWAP2 POP POP JUMP JUMPDEST PUSH0 PUSH1 0x20 DUP3 DUP5 SUB SLT ISZERO PUSH2 0xBC3 JUMPI PUSH2 0xBC2 PUSH2 0x540 JUMP JUMPDEST JUMPDEST PUSH0 DUP3 ADD MLOAD PUSH8 0xFFFFFFFFFFFFFFFF DUP2 GT ISZERO PUSH2 0xBE0 JUMPI PUSH2 0xBDF PUSH2 0x544 JUMP JUMPDEST JUMPDEST PUSH2 0xBEC DUP5 DUP3 DUP6 ADD PUSH2 0xB81 JUMP JUMPDEST SWAP2 POP POP SWAP3 SWAP2 POP POP JUMP JUMPDEST PUSH0 PUSH1 0x40 DUP3 ADD SWAP1 POP PUSH2 0xC08 PUSH0 DUP4 ADD DUP6 PUSH2 0x9E9 JUMP JUMPDEST PUSH2 0xC15 PUSH1 0x20 DUP4 ADD DUP5 PUSH2 0x9E9 JUMP JUMPDEST SWAP4 SWAP3 POP POP POP JUMP JUMPDEST PUSH0 PUSH1 0x20 DUP3 DUP5 SUB SLT ISZERO PUSH2 0xC31 JUMPI PUSH2 0xC30 PUSH2 0x540 JUMP JUMPDEST JUMPDEST PUSH0 PUSH2 0xC3E DUP5 DUP3 DUP6 ADD PUSH2 0xB05 JUMP JUMPDEST SWAP2 POP POP SWAP3 SWAP2 POP POP JUMP JUMPDEST PUSH0 PUSH2 0x100 DUP3 ADD SWAP1 POP PUSH2 0xC5B PUSH0 DUP4 ADD DUP12 PUSH2 0x9E9 JUMP JUMPDEST PUSH2 0xC68 PUSH1 0x20 DUP4 ADD DUP11 PUSH2 0x9E9 JUMP JUMPDEST PUSH2 0xC75 PUSH1 0x40 DUP4 ADD DUP10 PUSH2 0x7B0 JUMP JUMPDEST PUSH2 0xC82 PUSH1 0x60 DUP4 ADD DUP9 PUSH2 0x7B0 JUMP JUMPDEST PUSH2 0xC8F PUSH1 0x80 DUP4 ADD DUP8 PUSH2 0x7B0 JUMP JUMPDEST PUSH2 0xC9C PUSH1 0xA0 DUP4 ADD DUP7 PUSH2 0x7B0 JUMP JUMPDEST PUSH2 0xCA9 PUSH1 0xC0 DUP4 ADD DUP6 PUSH2 0x9E9 JUMP JUMPDEST PUSH2 0xCB6 PUSH1 0xE0 DUP4 ADD DUP5 PUSH2 0x7B0 JUMP JUMPDEST SWAP10 SWAP9 POP POP POP POP POP POP POP POP POP JUMP JUMPDEST PUSH0 PUSH0 PUSH0 PUSH1 0x60 DUP5 DUP7 SUB SLT ISZERO PUSH2 0xCDA JUMPI PUSH2 0xCD9 PUSH2 0x540 JUMP JUMPDEST JUMPDEST PUSH0 PUSH2 0xCE7 DUP7 DUP3 DUP8 ADD PUSH2 0xB05 JUMP JUMPDEST SWAP4 POP POP PUSH1 0x20 PUSH2 0xCF8 DUP7 DUP3 DUP8 ADD PUSH2 0xB05 JUMP JUMPDEST SWAP3 POP POP PUSH1 0x40 PUSH2 0xD09 DUP7 DUP3 DUP8 ADD PUSH2 0xB05 JUMP JUMPDEST SWAP2 POP POP SWAP3 POP SWAP3 POP SWAP3 JUMP JUMPDEST PUSH0 DUP3 DUP3 MSTORE PUSH1 0x20 DUP3 ADD SWAP1 POP SWAP3 SWAP2 POP POP JUMP JUMPDEST PUSH32 0x53696D706C65537761705465737465723A20446972656363696F6E2064652074 PUSH0 DUP3 ADD MSTORE PUSH32 0x6F6B656E20696E76616C69646100000000000000000000000000000000000000 PUSH1 0x20 DUP3 ADD MSTORE POP JUMP JUMPDEST PUSH0 PUSH2 0xD7D PUSH1 0x2D DUP4 PUSH2 0xD13 JUMP JUMPDEST SWAP2 POP PUSH2 0xD88 DUP3 PUSH2 0xD23 JUMP JUMPDEST PUSH1 0x40 DUP3 ADD SWAP1 POP SWAP2 SWAP1 POP JUMP JUMPDEST PUSH0 PUSH1 0x20 DUP3 ADD SWAP1 POP DUP2 DUP2 SUB PUSH0 DUP4 ADD MSTORE PUSH2 0xDAA DUP2 PUSH2 0xD71 JUMP JUMPDEST SWAP1 POP SWAP2 SWAP1 POP JUMP JUMPDEST PUSH0 PUSH1 0x40 DUP3 ADD SWAP1 POP PUSH2 0xDC4 PUSH0 DUP4 ADD DUP6 PUSH2 0x9E9 JUMP JUMPDEST PUSH2 0xDD1 PUSH1 0x20 DUP4 ADD DUP5 PUSH2 0x7B0 JUMP JUMPDEST SWAP4 SWAP3 POP POP POP JUMP JUMPDEST PUSH2 0xDE1 DUP2 PUSH2 0x8FA JUMP JUMPDEST DUP2 EQ PUSH2 0xDEB JUMPI PUSH0 PUSH0 REVERT JUMPDEST POP JUMP JUMPDEST PUSH0 DUP2 MLOAD SWAP1 POP PUSH2 0xDFC DUP2 PUSH2 0xDD8 JUMP JUMPDEST SWAP3 SWAP2 POP POP JUMP JUMPDEST PUSH0 PUSH1 0x20 DUP3 DUP5 SUB SLT ISZERO PUSH2 0xE17 JUMPI PUSH2 0xE16 PUSH2 0x540 JUMP JUMPDEST JUMPDEST PUSH0 PUSH2 0xE24 DUP5 DUP3 DUP6 ADD PUSH2 0xDEE JUMP JUMPDEST SWAP2 POP POP SWAP3 SWAP2 POP POP JUMP INVALID LOG2 PUSH5 0x6970667358 0x22 SLT KECCAK256 SWAP5 0xD7 OR 0xC2 0x4C 0x23 0xC3 CODESIZE 0xEB 0xE3 NOT SWAP14 PUSH6 0x357964DBD293 0xA5 INVALID TLOAD JUMPDEST SWAP15 XOR DUP13 PC POP EXP PUSH29 0x723E64736F6C634300081B003300000000000000000000000000000000 "
		},
		"gasEstimates": {
			"creation": {
				"codeDepositCost": "736600",
				"executionCost": "infinite",
				"totalCost": "infinite"
			},
			"external": {
				"approveTokenForSwap(address,address,uint256)": "infinite",
				"simpleSwap()": "infinite",
				"testAddLiquidity(address,address,uint256,uint256,uint256,uint256,uint256)": "infinite",
				"testGetPrice(address,address)": "infinite",
				"testSwapExactTokensForTokens(uint256,uint256,address[],uint256)": "infinite"
			}
		},
		"methodIdentifiers": {
			"approveTokenForSwap(address,address,uint256)": "f0e6edc5",
			"simpleSwap()": "8927e052",
			"testAddLiquidity(address,address,uint256,uint256,uint256,uint256,uint256)": "f09507e4",
			"testGetPrice(address,address)": "ae3eb29b",
			"testSwapExactTokensForTokens(uint256,uint256,address[],uint256)": "9d206ca4"
		}
	},
	"abi": [
		{
			"inputs": [
				{
					"internalType": "address",
					"name": "_simpleSwapAddress",
					"type": "address"
				}
			],
			"stateMutability": "nonpayable",
			"type": "constructor"
		},
		{
			"inputs": [
				{
					"internalType": "address",
					"name": "token",
					"type": "address"
				},
				{
					"internalType": "address",
					"name": "spender",
					"type": "address"
				},
				{
					"internalType": "uint256",
					"name": "amount",
					"type": "uint256"
				}
			],
			"name": "approveTokenForSwap",
			"outputs": [
				{
					"internalType": "bool",
					"name": "",
					"type": "bool"
				}
			],
			"stateMutability": "nonpayable",
			"type": "function"
		},
		{
			"inputs": [],
			"name": "simpleSwap",
			"outputs": [
				{
					"internalType": "contract ISimpleSwap",
					"name": "",
					"type": "address"
				}
			],
			"stateMutability": "view",
			"type": "function"
		},
		{
			"inputs": [
				{
					"internalType": "address",
					"name": "tokenA",
					"type": "address"
				},
				{
					"internalType": "address",
					"name": "tokenB",
					"type": "address"
				},
				{
					"internalType": "uint256",
					"name": "amountADesired",
					"type": "uint256"
				},
				{
					"internalType": "uint256",
					"name": "amountBDesired",
					"type": "uint256"
				},
				{
					"internalType": "uint256",
					"name": "amountAMin",
					"type": "uint256"
				},
				{
					"internalType": "uint256",
					"name": "amountBMin",
					"type": "uint256"
				},
				{
					"internalType": "uint256",
					"name": "deadline",
					"type": "uint256"
				}
			],
			"name": "testAddLiquidity",
			"outputs": [
				{
					"internalType": "uint256",
					"name": "amountA_",
					"type": "uint256"
				},
				{
					"internalType": "uint256",
					"name": "amountB_",
					"type": "uint256"
				},
				{
					"internalType": "uint256",
					"name": "liquidity_",
					"type": "uint256"
				}
			],
			"stateMutability": "nonpayable",
			"type": "function"
		},
		{
			"inputs": [
				{
					"internalType": "address",
					"name": "tokenA",
					"type": "address"
				},
				{
					"internalType": "address",
					"name": "tokenB",
					"type": "address"
				}
			],
			"name": "testGetPrice",
			"outputs": [
				{
					"internalType": "uint256",
					"name": "price_",
					"type": "uint256"
				}
			],
			"stateMutability": "view",
			"type": "function"
		},
		{
			"inputs": [
				{
					"internalType": "uint256",
					"name": "amountIn",
					"type": "uint256"
				},
				{
					"internalType": "uint256",
					"name": "amountOutMin",
					"type": "uint256"
				},
				{
					"internalType": "address[]",
					"name": "path",
					"type": "address[]"
				},
				{
					"internalType": "uint256",
					"name": "deadline",
					"type": "uint256"
				}
			],
			"name": "testSwapExactTokensForTokens",
			"outputs": [
				{
					"internalType": "uint256[]",
					"name": "amounts_",
					"type": "uint256[]"
				}
			],
			"stateMutability": "nonpayable",
			"type": "function"
		},
		{
			"stateMutability": "payable",
			"type": "receive"
		}
	]
}