{
	"data": {
		"bytecode": {
			"linkReferences": {},
			"object": "6080604052348015600e575f5ffd5b50611a398061001c5f395ff3fe608060405234801561000f575f5ffd5b5060043610610034575f3560e01c80633db804da14610038578063457b8b9114610068575b5f5ffd5b610052600480360381019061004d9190610aba565b610084565b60405161005f9190610b55565b60405180910390f35b610082600480360381019061007d9190610cfb565b610129565b005b5f8181548110610092575f80fd5b905f5260205f20015f9150905080546100aa90610de1565b80601f01602080910402602001604051908101604052809291908181526020018280546100d690610de1565b80156101215780601f106100f857610100808354040283529160200191610121565b820191905f5260205f20905b81548152906001019060200180831161010457829003601f168201915b505050505081565b5f8411801561013757505f83115b610176576040517f08c379a000000000000000000000000000000000000000000000000000000000815260040161016d90610e5b565b60405180910390fd5b5f821180156101855750838211155b6101c4576040517f08c379a00000000000000000000000000000000000000000000000000000000081526004016101bb90610ec3565b60405180910390fd5b838673ffffffffffffffffffffffffffffffffffffffff166370a08231306040518263ffffffff1660e01b81526004016101fe9190610ef0565b602060405180830381865afa158015610219573d5f5f3e3d5ffd5b505050506040513d601f19601f8201168201806040525081019061023d9190610f1d565b101561027e576040517f08c379a000000000000000000000000000000000000000000000000000000000815260040161027590610fb8565b60405180910390fd5b828573ffffffffffffffffffffffffffffffffffffffff166370a08231306040518263ffffffff1660e01b81526004016102b89190610ef0565b602060405180830381865afa1580156102d3573d5f5f3e3d5ffd5b505050506040513d601f19601f820116820180604052508101906102f79190610f1d565b1015610338576040517f08c379a000000000000000000000000000000000000000000000000000000000815260040161032f90611046565b60405180910390fd5b8573ffffffffffffffffffffffffffffffffffffffff1663095ea7b388866040518363ffffffff1660e01b8152600401610373929190611073565b6020604051808303815f875af115801561038f573d5f5f3e3d5ffd5b505050506040513d601f19601f820116820180604052508101906103b391906110cf565b508473ffffffffffffffffffffffffffffffffffffffff1663095ea7b388856040518363ffffffff1660e01b81526004016103ef929190611073565b6020604051808303815f875af115801561040b573d5f5f3e3d5ffd5b505050506040513d601f19601f8201168201806040525081019061042f91906110cf565b505f5f5f8973ffffffffffffffffffffffffffffffffffffffff1663e8e337008a8a8a8a8c8c306001426104639190611127565b6040518963ffffffff1660e01b815260040161048698979695949392919061115a565b6060604051808303815f875af11580156104a2573d5f5f3e3d5ffd5b505050506040513d601f19601f820116820180604052508101906104c691906111d6565b92509250925086831480156104da57508582145b610519576040517f08c379a000000000000000000000000000000000000000000000000000000000815260040161051090611270565b60405180910390fd5b5f811161055b576040517f08c379a0000000000000000000000000000000000000000000000000000000008152600401610552906112fe565b60405180910390fd5b5f8a73ffffffffffffffffffffffffffffffffffffffff1663ac41865a8b8b6040518363ffffffff1660e01b815260040161059792919061131c565b602060405180830381865afa1580156105b2573d5f5f3e3d5ffd5b505050506040513d601f19601f820116820180604052508101906105d69190610f1d565b905083670de0b6b3a7640000846105ed9190611343565b6105f791906113b1565b8114610638576040517f08c379a000000000000000000000000000000000000000000000000000000000815260040161062f9061142b565b60405180910390fd5b5f8b73ffffffffffffffffffffffffffffffffffffffff1663054d50d48887876040518463ffffffff1660e01b815260040161067693929190611449565b602060405180830381865afa158015610691573d5f5f3e3d5ffd5b505050506040513d601f19601f820116820180604052508101906106b59190610f1d565b90508a73ffffffffffffffffffffffffffffffffffffffff1663095ea7b38d896040518363ffffffff1660e01b81526004016106f2929190611073565b6020604051808303815f875af115801561070e573d5f5f3e3d5ffd5b505050506040513d601f19601f8201168201806040525081019061073291906110cf565b505f600267ffffffffffffffff81111561074f5761074e610bd7565b5b60405190808252806020026020018201604052801561077d5781602001602082028036833780820191505090505b5090508b815f815181106107945761079361147e565b5b602002602001019073ffffffffffffffffffffffffffffffffffffffff16908173ffffffffffffffffffffffffffffffffffffffff16815250508a816001815181106107e3576107e261147e565b5b602002602001019073ffffffffffffffffffffffffffffffffffffffff16908173ffffffffffffffffffffffffffffffffffffffff16815250508c73ffffffffffffffffffffffffffffffffffffffff166338ed17398984843060014261084a9190611127565b6040518663ffffffff1660e01b815260040161086a959493929190611562565b5f604051808303815f87803b158015610881575f5ffd5b505af1158015610893573d5f5f3e3d5ffd5b50505050818b73ffffffffffffffffffffffffffffffffffffffff166370a08231306040518263ffffffff1660e01b81526004016108d19190610ef0565b602060405180830381865afa1580156108ec573d5f5f3e3d5ffd5b505050506040513d601f19601f820116820180604052508101906109109190610f1d565b1015610951576040517f08c379a000000000000000000000000000000000000000000000000000000000815260040161094890611604565b60405180910390fd5b5f5f8e73ffffffffffffffffffffffffffffffffffffffff1663baa2abde8f8f895f5f306001426109829190611127565b6040518863ffffffff1660e01b81526004016109a49796959493929190611664565b60408051808303815f875af11580156109bf573d5f5f3e3d5ffd5b505050506040513d601f19601f820116820180604052508101906109e391906116d1565b915091505f81836109f49190611127565b11610a34576040517f08c379a0000000000000000000000000000000000000000000000000000000008152600401610a2b9061177f565b60405180910390fd5b5f89908060018154018082558091505060019003905f5260205f20015f909190919091509081610a649190611934565b50505050505050505050505050505050565b5f604051905090565b5f5ffd5b5f5ffd5b5f819050919050565b610a9981610a87565b8114610aa3575f5ffd5b50565b5f81359050610ab481610a90565b92915050565b5f60208284031215610acf57610ace610a7f565b5b5f610adc84828501610aa6565b91505092915050565b5f81519050919050565b5f82825260208201905092915050565b8281835e5f83830152505050565b5f601f19601f8301169050919050565b5f610b2782610ae5565b610b318185610aef565b9350610b41818560208601610aff565b610b4a81610b0d565b840191505092915050565b5f6020820190508181035f830152610b6d8184610b1d565b905092915050565b5f73ffffffffffffffffffffffffffffffffffffffff82169050919050565b5f610b9e82610b75565b9050919050565b610bae81610b94565b8114610bb8575f5ffd5b50565b5f81359050610bc981610ba5565b92915050565b5f5ffd5b5f5ffd5b7f4e487b71000000000000000000000000000000000000000000000000000000005f52604160045260245ffd5b610c0d82610b0d565b810181811067ffffffffffffffff82111715610c2c57610c2b610bd7565b5b80604052505050565b5f610c3e610a76565b9050610c4a8282610c04565b919050565b5f67ffffffffffffffff821115610c6957610c68610bd7565b5b610c7282610b0d565b9050602081019050919050565b828183375f83830152505050565b5f610c9f610c9a84610c4f565b610c35565b905082815260208101848484011115610cbb57610cba610bd3565b5b610cc6848285610c7f565b509392505050565b5f82601f830112610ce257610ce1610bcf565b5b8135610cf2848260208601610c8d565b91505092915050565b5f5f5f5f5f5f5f60e0888a031215610d1657610d15610a7f565b5b5f610d238a828b01610bbb565b9750506020610d348a828b01610bbb565b9650506040610d458a828b01610bbb565b9550506060610d568a828b01610aa6565b9450506080610d678a828b01610aa6565b93505060a0610d788a828b01610aa6565b92505060c088013567ffffffffffffffff811115610d9957610d98610a83565b5b610da58a828b01610cce565b91505092959891949750929550565b7f4e487b71000000000000000000000000000000000000000000000000000000005f52602260045260245ffd5b5f6002820490506001821680610df857607f821691505b602082108103610e0b57610e0a610db4565b5b50919050565b7f496e76616c6964206c697175696469747920616d6f756e7473000000000000005f82015250565b5f610e45601983610aef565b9150610e5082610e11565b602082019050919050565b5f6020820190508181035f830152610e7281610e39565b9050919050565b7f496e76616c6964207377617020616d6f756e74000000000000000000000000005f82015250565b5f610ead601383610aef565b9150610eb882610e79565b602082019050919050565b5f6020820190508181035f830152610eda81610ea1565b9050919050565b610eea81610b94565b82525050565b5f602082019050610f035f830184610ee1565b92915050565b5f81519050610f1781610a90565b92915050565b5f60208284031215610f3257610f31610a7f565b5b5f610f3f84828501610f09565b91505092915050565b7f496e73756666696369656e7420746f6b656e204120737570706c7920666f72205f8201527f7468697320636f6e746163740000000000000000000000000000000000000000602082015250565b5f610fa2602c83610aef565b9150610fad82610f48565b604082019050919050565b5f6020820190508181035f830152610fcf81610f96565b9050919050565b7f496e73756666696369656e7420746f6b656e204220737570706c7920666f72205f8201527f7468697320636f6e746163740000000000000000000000000000000000000000602082015250565b5f611030602c83610aef565b915061103b82610fd6565b604082019050919050565b5f6020820190508181035f83015261105d81611024565b9050919050565b61106d81610a87565b82525050565b5f6040820190506110865f830185610ee1565b6110936020830184611064565b9392505050565b5f8115159050919050565b6110ae8161109a565b81146110b8575f5ffd5b50565b5f815190506110c9816110a5565b92915050565b5f602082840312156110e4576110e3610a7f565b5b5f6110f1848285016110bb565b91505092915050565b7f4e487b71000000000000000000000000000000000000000000000000000000005f52601160045260245ffd5b5f61113182610a87565b915061113c83610a87565b9250828201905080821115611154576111536110fa565b5b92915050565b5f6101008201905061116e5f83018b610ee1565b61117b602083018a610ee1565b6111886040830189611064565b6111956060830188611064565b6111a26080830187611064565b6111af60a0830186611064565b6111bc60c0830185610ee1565b6111c960e0830184611064565b9998505050505050505050565b5f5f5f606084860312156111ed576111ec610a7f565b5b5f6111fa86828701610f09565b935050602061120b86828701610f09565b925050604061121c86828701610f09565b9150509250925092565b7f6164644c697175696469747920616d6f756e7473206d69736d617463680000005f82015250565b5f61125a601d83610aef565b915061126582611226565b602082019050919050565b5f6020820190508181035f8301526112878161124e565b9050919050565b7f6164644c69717569646974792072657475726e6564207a65726f206c697175695f8201527f6469747900000000000000000000000000000000000000000000000000000000602082015250565b5f6112e8602483610aef565b91506112f38261128e565b604082019050919050565b5f6020820190508181035f830152611315816112dc565b9050919050565b5f60408201905061132f5f830185610ee1565b61133c6020830184610ee1565b9392505050565b5f61134d82610a87565b915061135883610a87565b925082820261136681610a87565b9150828204841483151761137d5761137c6110fa565b5b5092915050565b7f4e487b71000000000000000000000000000000000000000000000000000000005f52601260045260245ffd5b5f6113bb82610a87565b91506113c683610a87565b9250826113d6576113d5611384565b5b828204905092915050565b7f676574507269636520696e636f727265637400000000000000000000000000005f82015250565b5f611415601283610aef565b9150611420826113e1565b602082019050919050565b5f6020820190508181035f83015261144281611409565b9050919050565b5f60608201905061145c5f830186611064565b6114696020830185611064565b6114766040830184611064565b949350505050565b7f4e487b71000000000000000000000000000000000000000000000000000000005f52603260045260245ffd5b5f81519050919050565b5f82825260208201905092915050565b5f819050602082019050919050565b6114dd81610b94565b82525050565b5f6114ee83836114d4565b60208301905092915050565b5f602082019050919050565b5f611510826114ab565b61151a81856114b5565b9350611525836114c5565b805f5b8381101561155557815161153c88826114e3565b9750611547836114fa565b925050600181019050611528565b5085935050505092915050565b5f60a0820190506115755f830188611064565b6115826020830187611064565b81810360408301526115948186611506565b90506115a36060830185610ee1565b6115b06080830184611064565b9695505050505050565b7f737761704578616374546f6b656e73466f72546f6b656e73206661696c6564005f82015250565b5f6115ee601f83610aef565b91506115f9826115ba565b602082019050919050565b5f6020820190508181035f83015261161b816115e2565b9050919050565b5f819050919050565b5f819050919050565b5f61164e61164961164484611622565b61162b565b610a87565b9050919050565b61165e81611634565b82525050565b5f60e0820190506116775f83018a610ee1565b6116846020830189610ee1565b6116916040830188611064565b61169e6060830187611655565b6116ab6080830186611655565b6116b860a0830185610ee1565b6116c560c0830184611064565b98975050505050505050565b5f5f604083850312156116e7576116e6610a7f565b5b5f6116f485828601610f09565b925050602061170585828601610f09565b9150509250929050565b7f72656d6f76654c69717569646974792072657475726e6564207a65726f20746f5f8201527f6b656e7300000000000000000000000000000000000000000000000000000000602082015250565b5f611769602483610aef565b91506117748261170f565b604082019050919050565b5f6020820190508181035f8301526117968161175d565b9050919050565b5f819050815f5260205f209050919050565b5f6020601f8301049050919050565b5f82821b905092915050565b5f600883026117f97fffffffffffffffffffffffffffffffffffffffffffffffffffffffffffffffff826117be565b61180386836117be565b95508019841693508086168417925050509392505050565b5f61183561183061182b84610a87565b61162b565b610a87565b9050919050565b5f819050919050565b61184e8361181b565b61186261185a8261183c565b8484546117ca565b825550505050565b5f5f905090565b61187961186a565b611884818484611845565b505050565b5b818110156118a75761189c5f82611871565b60018101905061188a565b5050565b601f8211156118ec576118bd8161179d565b6118c6846117af565b810160208510156118d5578190505b6118e96118e1856117af565b830182611889565b50505b505050565b5f82821c905092915050565b5f61190c5f19846008026118f1565b1980831691505092915050565b5f61192483836118fd565b9150826002028217905092915050565b61193d82610ae5565b67ffffffffffffffff81111561195657611955610bd7565b5b6119608254610de1565b61196b8282856118ab565b5f60209050601f83116001811461199c575f841561198a578287015190505b6119948582611919565b8655506119fb565b601f1984166119aa8661179d565b5f5b828110156119d1578489015182556001820191506020850194506020810190506119ac565b868310156119ee57848901516119ea601f8916826118fd565b8355505b6001600288020188555050505b50505050505056fea26469706673582212200c3dc1788feb5f623b232605bfb39db5b19d0940380dc9c49f73465fece4b86064736f6c634300081b0033",
			"opcodes": "PUSH1 0x80 PUSH1 0x40 MSTORE CALLVALUE DUP1 ISZERO PUSH1 0xE JUMPI PUSH0 PUSH0 REVERT JUMPDEST POP PUSH2 0x1A39 DUP1 PUSH2 0x1C PUSH0 CODECOPY PUSH0 RETURN INVALID PUSH1 0x80 PUSH1 0x40 MSTORE CALLVALUE DUP1 ISZERO PUSH2 0xF JUMPI PUSH0 PUSH0 REVERT JUMPDEST POP PUSH1 0x4 CALLDATASIZE LT PUSH2 0x34 JUMPI PUSH0 CALLDATALOAD PUSH1 0xE0 SHR DUP1 PUSH4 0x3DB804DA EQ PUSH2 0x38 JUMPI DUP1 PUSH4 0x457B8B91 EQ PUSH2 0x68 JUMPI JUMPDEST PUSH0 PUSH0 REVERT JUMPDEST PUSH2 0x52 PUSH1 0x4 DUP1 CALLDATASIZE SUB DUP2 ADD SWAP1 PUSH2 0x4D SWAP2 SWAP1 PUSH2 0xABA JUMP JUMPDEST PUSH2 0x84 JUMP JUMPDEST PUSH1 0x40 MLOAD PUSH2 0x5F SWAP2 SWAP1 PUSH2 0xB55 JUMP JUMPDEST PUSH1 0x40 MLOAD DUP1 SWAP2 SUB SWAP1 RETURN JUMPDEST PUSH2 0x82 PUSH1 0x4 DUP1 CALLDATASIZE SUB DUP2 ADD SWAP1 PUSH2 0x7D SWAP2 SWAP1 PUSH2 0xCFB JUMP JUMPDEST PUSH2 0x129 JUMP JUMPDEST STOP JUMPDEST PUSH0 DUP2 DUP2 SLOAD DUP2 LT PUSH2 0x92 JUMPI PUSH0 DUP1 REVERT JUMPDEST SWAP1 PUSH0 MSTORE PUSH1 0x20 PUSH0 KECCAK256 ADD PUSH0 SWAP2 POP SWAP1 POP DUP1 SLOAD PUSH2 0xAA SWAP1 PUSH2 0xDE1 JUMP JUMPDEST DUP1 PUSH1 0x1F ADD PUSH1 0x20 DUP1 SWAP2 DIV MUL PUSH1 0x20 ADD PUSH1 0x40 MLOAD SWAP1 DUP2 ADD PUSH1 0x40 MSTORE DUP1 SWAP3 SWAP2 SWAP1 DUP2 DUP2 MSTORE PUSH1 0x20 ADD DUP3 DUP1 SLOAD PUSH2 0xD6 SWAP1 PUSH2 0xDE1 JUMP JUMPDEST DUP1 ISZERO PUSH2 0x121 JUMPI DUP1 PUSH1 0x1F LT PUSH2 0xF8 JUMPI PUSH2 0x100 DUP1 DUP4 SLOAD DIV MUL DUP4 MSTORE SWAP2 PUSH1 0x20 ADD SWAP2 PUSH2 0x121 JUMP JUMPDEST DUP3 ADD SWAP2 SWAP1 PUSH0 MSTORE PUSH1 0x20 PUSH0 KECCAK256 SWAP1 JUMPDEST DUP2 SLOAD DUP2 MSTORE SWAP1 PUSH1 0x1 ADD SWAP1 PUSH1 0x20 ADD DUP1 DUP4 GT PUSH2 0x104 JUMPI DUP3 SWAP1 SUB PUSH1 0x1F AND DUP3 ADD SWAP2 JUMPDEST POP POP POP POP POP DUP2 JUMP JUMPDEST PUSH0 DUP5 GT DUP1 ISZERO PUSH2 0x137 JUMPI POP PUSH0 DUP4 GT JUMPDEST PUSH2 0x176 JUMPI PUSH1 0x40 MLOAD PUSH32 0x8C379A000000000000000000000000000000000000000000000000000000000 DUP2 MSTORE PUSH1 0x4 ADD PUSH2 0x16D SWAP1 PUSH2 0xE5B JUMP JUMPDEST PUSH1 0x40 MLOAD DUP1 SWAP2 SUB SWAP1 REVERT JUMPDEST PUSH0 DUP3 GT DUP1 ISZERO PUSH2 0x185 JUMPI POP DUP4 DUP3 GT ISZERO JUMPDEST PUSH2 0x1C4 JUMPI PUSH1 0x40 MLOAD PUSH32 0x8C379A000000000000000000000000000000000000000000000000000000000 DUP2 MSTORE PUSH1 0x4 ADD PUSH2 0x1BB SWAP1 PUSH2 0xEC3 JUMP JUMPDEST PUSH1 0x40 MLOAD DUP1 SWAP2 SUB SWAP1 REVERT JUMPDEST DUP4 DUP7 PUSH20 0xFFFFFFFFFFFFFFFFFFFFFFFFFFFFFFFFFFFFFFFF AND PUSH4 0x70A08231 ADDRESS PUSH1 0x40 MLOAD DUP3 PUSH4 0xFFFFFFFF AND PUSH1 0xE0 SHL DUP2 MSTORE PUSH1 0x4 ADD PUSH2 0x1FE SWAP2 SWAP1 PUSH2 0xEF0 JUMP JUMPDEST PUSH1 0x20 PUSH1 0x40 MLOAD DUP1 DUP4 SUB DUP2 DUP7 GAS STATICCALL ISZERO DUP1 ISZERO PUSH2 0x219 JUMPI RETURNDATASIZE PUSH0 PUSH0 RETURNDATACOPY RETURNDATASIZE PUSH0 REVERT JUMPDEST POP POP POP POP PUSH1 0x40 MLOAD RETURNDATASIZE PUSH1 0x1F NOT PUSH1 0x1F DUP3 ADD AND DUP3 ADD DUP1 PUSH1 0x40 MSTORE POP DUP2 ADD SWAP1 PUSH2 0x23D SWAP2 SWAP1 PUSH2 0xF1D JUMP JUMPDEST LT ISZERO PUSH2 0x27E JUMPI PUSH1 0x40 MLOAD PUSH32 0x8C379A000000000000000000000000000000000000000000000000000000000 DUP2 MSTORE PUSH1 0x4 ADD PUSH2 0x275 SWAP1 PUSH2 0xFB8 JUMP JUMPDEST PUSH1 0x40 MLOAD DUP1 SWAP2 SUB SWAP1 REVERT JUMPDEST DUP3 DUP6 PUSH20 0xFFFFFFFFFFFFFFFFFFFFFFFFFFFFFFFFFFFFFFFF AND PUSH4 0x70A08231 ADDRESS PUSH1 0x40 MLOAD DUP3 PUSH4 0xFFFFFFFF AND PUSH1 0xE0 SHL DUP2 MSTORE PUSH1 0x4 ADD PUSH2 0x2B8 SWAP2 SWAP1 PUSH2 0xEF0 JUMP JUMPDEST PUSH1 0x20 PUSH1 0x40 MLOAD DUP1 DUP4 SUB DUP2 DUP7 GAS STATICCALL ISZERO DUP1 ISZERO PUSH2 0x2D3 JUMPI RETURNDATASIZE PUSH0 PUSH0 RETURNDATACOPY RETURNDATASIZE PUSH0 REVERT JUMPDEST POP POP POP POP PUSH1 0x40 MLOAD RETURNDATASIZE PUSH1 0x1F NOT PUSH1 0x1F DUP3 ADD AND DUP3 ADD DUP1 PUSH1 0x40 MSTORE POP DUP2 ADD SWAP1 PUSH2 0x2F7 SWAP2 SWAP1 PUSH2 0xF1D JUMP JUMPDEST LT ISZERO PUSH2 0x338 JUMPI PUSH1 0x40 MLOAD PUSH32 0x8C379A000000000000000000000000000000000000000000000000000000000 DUP2 MSTORE PUSH1 0x4 ADD PUSH2 0x32F SWAP1 PUSH2 0x1046 JUMP JUMPDEST PUSH1 0x40 MLOAD DUP1 SWAP2 SUB SWAP1 REVERT JUMPDEST DUP6 PUSH20 0xFFFFFFFFFFFFFFFFFFFFFFFFFFFFFFFFFFFFFFFF AND PUSH4 0x95EA7B3 DUP9 DUP7 PUSH1 0x40 MLOAD DUP4 PUSH4 0xFFFFFFFF AND PUSH1 0xE0 SHL DUP2 MSTORE PUSH1 0x4 ADD PUSH2 0x373 SWAP3 SWAP2 SWAP1 PUSH2 0x1073 JUMP JUMPDEST PUSH1 0x20 PUSH1 0x40 MLOAD DUP1 DUP4 SUB DUP2 PUSH0 DUP8 GAS CALL ISZERO DUP1 ISZERO PUSH2 0x38F JUMPI RETURNDATASIZE PUSH0 PUSH0 RETURNDATACOPY RETURNDATASIZE PUSH0 REVERT JUMPDEST POP POP POP POP PUSH1 0x40 MLOAD RETURNDATASIZE PUSH1 0x1F NOT PUSH1 0x1F DUP3 ADD AND DUP3 ADD DUP1 PUSH1 0x40 MSTORE POP DUP2 ADD SWAP1 PUSH2 0x3B3 SWAP2 SWAP1 PUSH2 0x10CF JUMP JUMPDEST POP DUP5 PUSH20 0xFFFFFFFFFFFFFFFFFFFFFFFFFFFFFFFFFFFFFFFF AND PUSH4 0x95EA7B3 DUP9 DUP6 PUSH1 0x40 MLOAD DUP4 PUSH4 0xFFFFFFFF AND PUSH1 0xE0 SHL DUP2 MSTORE PUSH1 0x4 ADD PUSH2 0x3EF SWAP3 SWAP2 SWAP1 PUSH2 0x1073 JUMP JUMPDEST PUSH1 0x20 PUSH1 0x40 MLOAD DUP1 DUP4 SUB DUP2 PUSH0 DUP8 GAS CALL ISZERO DUP1 ISZERO PUSH2 0x40B JUMPI RETURNDATASIZE PUSH0 PUSH0 RETURNDATACOPY RETURNDATASIZE PUSH0 REVERT JUMPDEST POP POP POP POP PUSH1 0x40 MLOAD RETURNDATASIZE PUSH1 0x1F NOT PUSH1 0x1F DUP3 ADD AND DUP3 ADD DUP1 PUSH1 0x40 MSTORE POP DUP2 ADD SWAP1 PUSH2 0x42F SWAP2 SWAP1 PUSH2 0x10CF JUMP JUMPDEST POP PUSH0 PUSH0 PUSH0 DUP10 PUSH20 0xFFFFFFFFFFFFFFFFFFFFFFFFFFFFFFFFFFFFFFFF AND PUSH4 0xE8E33700 DUP11 DUP11 DUP11 DUP11 DUP13 DUP13 ADDRESS PUSH1 0x1 TIMESTAMP PUSH2 0x463 SWAP2 SWAP1 PUSH2 0x1127 JUMP JUMPDEST PUSH1 0x40 MLOAD DUP10 PUSH4 0xFFFFFFFF AND PUSH1 0xE0 SHL DUP2 MSTORE PUSH1 0x4 ADD PUSH2 0x486 SWAP9 SWAP8 SWAP7 SWAP6 SWAP5 SWAP4 SWAP3 SWAP2 SWAP1 PUSH2 0x115A JUMP JUMPDEST PUSH1 0x60 PUSH1 0x40 MLOAD DUP1 DUP4 SUB DUP2 PUSH0 DUP8 GAS CALL ISZERO DUP1 ISZERO PUSH2 0x4A2 JUMPI RETURNDATASIZE PUSH0 PUSH0 RETURNDATACOPY RETURNDATASIZE PUSH0 REVERT JUMPDEST POP POP POP POP PUSH1 0x40 MLOAD RETURNDATASIZE PUSH1 0x1F NOT PUSH1 0x1F DUP3 ADD AND DUP3 ADD DUP1 PUSH1 0x40 MSTORE POP DUP2 ADD SWAP1 PUSH2 0x4C6 SWAP2 SWAP1 PUSH2 0x11D6 JUMP JUMPDEST SWAP3 POP SWAP3 POP SWAP3 POP DUP7 DUP4 EQ DUP1 ISZERO PUSH2 0x4DA JUMPI POP DUP6 DUP3 EQ JUMPDEST PUSH2 0x519 JUMPI PUSH1 0x40 MLOAD PUSH32 0x8C379A000000000000000000000000000000000000000000000000000000000 DUP2 MSTORE PUSH1 0x4 ADD PUSH2 0x510 SWAP1 PUSH2 0x1270 JUMP JUMPDEST PUSH1 0x40 MLOAD DUP1 SWAP2 SUB SWAP1 REVERT JUMPDEST PUSH0 DUP2 GT PUSH2 0x55B JUMPI PUSH1 0x40 MLOAD PUSH32 0x8C379A000000000000000000000000000000000000000000000000000000000 DUP2 MSTORE PUSH1 0x4 ADD PUSH2 0x552 SWAP1 PUSH2 0x12FE JUMP JUMPDEST PUSH1 0x40 MLOAD DUP1 SWAP2 SUB SWAP1 REVERT JUMPDEST PUSH0 DUP11 PUSH20 0xFFFFFFFFFFFFFFFFFFFFFFFFFFFFFFFFFFFFFFFF AND PUSH4 0xAC41865A DUP12 DUP12 PUSH1 0x40 MLOAD DUP4 PUSH4 0xFFFFFFFF AND PUSH1 0xE0 SHL DUP2 MSTORE PUSH1 0x4 ADD PUSH2 0x597 SWAP3 SWAP2 SWAP1 PUSH2 0x131C JUMP JUMPDEST PUSH1 0x20 PUSH1 0x40 MLOAD DUP1 DUP4 SUB DUP2 DUP7 GAS STATICCALL ISZERO DUP1 ISZERO PUSH2 0x5B2 JUMPI RETURNDATASIZE PUSH0 PUSH0 RETURNDATACOPY RETURNDATASIZE PUSH0 REVERT JUMPDEST POP POP POP POP PUSH1 0x40 MLOAD RETURNDATASIZE PUSH1 0x1F NOT PUSH1 0x1F DUP3 ADD AND DUP3 ADD DUP1 PUSH1 0x40 MSTORE POP DUP2 ADD SWAP1 PUSH2 0x5D6 SWAP2 SWAP1 PUSH2 0xF1D JUMP JUMPDEST SWAP1 POP DUP4 PUSH8 0xDE0B6B3A7640000 DUP5 PUSH2 0x5ED SWAP2 SWAP1 PUSH2 0x1343 JUMP JUMPDEST PUSH2 0x5F7 SWAP2 SWAP1 PUSH2 0x13B1 JUMP JUMPDEST DUP2 EQ PUSH2 0x638 JUMPI PUSH1 0x40 MLOAD PUSH32 0x8C379A000000000000000000000000000000000000000000000000000000000 DUP2 MSTORE PUSH1 0x4 ADD PUSH2 0x62F SWAP1 PUSH2 0x142B JUMP JUMPDEST PUSH1 0x40 MLOAD DUP1 SWAP2 SUB SWAP1 REVERT JUMPDEST PUSH0 DUP12 PUSH20 0xFFFFFFFFFFFFFFFFFFFFFFFFFFFFFFFFFFFFFFFF AND PUSH4 0x54D50D4 DUP9 DUP8 DUP8 PUSH1 0x40 MLOAD DUP5 PUSH4 0xFFFFFFFF AND PUSH1 0xE0 SHL DUP2 MSTORE PUSH1 0x4 ADD PUSH2 0x676 SWAP4 SWAP3 SWAP2 SWAP1 PUSH2 0x1449 JUMP JUMPDEST PUSH1 0x20 PUSH1 0x40 MLOAD DUP1 DUP4 SUB DUP2 DUP7 GAS STATICCALL ISZERO DUP1 ISZERO PUSH2 0x691 JUMPI RETURNDATASIZE PUSH0 PUSH0 RETURNDATACOPY RETURNDATASIZE PUSH0 REVERT JUMPDEST POP POP POP POP PUSH1 0x40 MLOAD RETURNDATASIZE PUSH1 0x1F NOT PUSH1 0x1F DUP3 ADD AND DUP3 ADD DUP1 PUSH1 0x40 MSTORE POP DUP2 ADD SWAP1 PUSH2 0x6B5 SWAP2 SWAP1 PUSH2 0xF1D JUMP JUMPDEST SWAP1 POP DUP11 PUSH20 0xFFFFFFFFFFFFFFFFFFFFFFFFFFFFFFFFFFFFFFFF AND PUSH4 0x95EA7B3 DUP14 DUP10 PUSH1 0x40 MLOAD DUP4 PUSH4 0xFFFFFFFF AND PUSH1 0xE0 SHL DUP2 MSTORE PUSH1 0x4 ADD PUSH2 0x6F2 SWAP3 SWAP2 SWAP1 PUSH2 0x1073 JUMP JUMPDEST PUSH1 0x20 PUSH1 0x40 MLOAD DUP1 DUP4 SUB DUP2 PUSH0 DUP8 GAS CALL ISZERO DUP1 ISZERO PUSH2 0x70E JUMPI RETURNDATASIZE PUSH0 PUSH0 RETURNDATACOPY RETURNDATASIZE PUSH0 REVERT JUMPDEST POP POP POP POP PUSH1 0x40 MLOAD RETURNDATASIZE PUSH1 0x1F NOT PUSH1 0x1F DUP3 ADD AND DUP3 ADD DUP1 PUSH1 0x40 MSTORE POP DUP2 ADD SWAP1 PUSH2 0x732 SWAP2 SWAP1 PUSH2 0x10CF JUMP JUMPDEST POP PUSH0 PUSH1 0x2 PUSH8 0xFFFFFFFFFFFFFFFF DUP2 GT ISZERO PUSH2 0x74F JUMPI PUSH2 0x74E PUSH2 0xBD7 JUMP JUMPDEST JUMPDEST PUSH1 0x40 MLOAD SWAP1 DUP1 DUP3 MSTORE DUP1 PUSH1 0x20 MUL PUSH1 0x20 ADD DUP3 ADD PUSH1 0x40 MSTORE DUP1 ISZERO PUSH2 0x77D JUMPI DUP2 PUSH1 0x20 ADD PUSH1 0x20 DUP3 MUL DUP1 CALLDATASIZE DUP4 CALLDATACOPY DUP1 DUP3 ADD SWAP2 POP POP SWAP1 POP JUMPDEST POP SWAP1 POP DUP12 DUP2 PUSH0 DUP2 MLOAD DUP2 LT PUSH2 0x794 JUMPI PUSH2 0x793 PUSH2 0x147E JUMP JUMPDEST JUMPDEST PUSH1 0x20 MUL PUSH1 0x20 ADD ADD SWAP1 PUSH20 0xFFFFFFFFFFFFFFFFFFFFFFFFFFFFFFFFFFFFFFFF AND SWAP1 DUP2 PUSH20 0xFFFFFFFFFFFFFFFFFFFFFFFFFFFFFFFFFFFFFFFF AND DUP2 MSTORE POP POP DUP11 DUP2 PUSH1 0x1 DUP2 MLOAD DUP2 LT PUSH2 0x7E3 JUMPI PUSH2 0x7E2 PUSH2 0x147E JUMP JUMPDEST JUMPDEST PUSH1 0x20 MUL PUSH1 0x20 ADD ADD SWAP1 PUSH20 0xFFFFFFFFFFFFFFFFFFFFFFFFFFFFFFFFFFFFFFFF AND SWAP1 DUP2 PUSH20 0xFFFFFFFFFFFFFFFFFFFFFFFFFFFFFFFFFFFFFFFF AND DUP2 MSTORE POP POP DUP13 PUSH20 0xFFFFFFFFFFFFFFFFFFFFFFFFFFFFFFFFFFFFFFFF AND PUSH4 0x38ED1739 DUP10 DUP5 DUP5 ADDRESS PUSH1 0x1 TIMESTAMP PUSH2 0x84A SWAP2 SWAP1 PUSH2 0x1127 JUMP JUMPDEST PUSH1 0x40 MLOAD DUP7 PUSH4 0xFFFFFFFF AND PUSH1 0xE0 SHL DUP2 MSTORE PUSH1 0x4 ADD PUSH2 0x86A SWAP6 SWAP5 SWAP4 SWAP3 SWAP2 SWAP1 PUSH2 0x1562 JUMP JUMPDEST PUSH0 PUSH1 0x40 MLOAD DUP1 DUP4 SUB DUP2 PUSH0 DUP8 DUP1 EXTCODESIZE ISZERO DUP1 ISZERO PUSH2 0x881 JUMPI PUSH0 PUSH0 REVERT JUMPDEST POP GAS CALL ISZERO DUP1 ISZERO PUSH2 0x893 JUMPI RETURNDATASIZE PUSH0 PUSH0 RETURNDATACOPY RETURNDATASIZE PUSH0 REVERT JUMPDEST POP POP POP POP DUP2 DUP12 PUSH20 0xFFFFFFFFFFFFFFFFFFFFFFFFFFFFFFFFFFFFFFFF AND PUSH4 0x70A08231 ADDRESS PUSH1 0x40 MLOAD DUP3 PUSH4 0xFFFFFFFF AND PUSH1 0xE0 SHL DUP2 MSTORE PUSH1 0x4 ADD PUSH2 0x8D1 SWAP2 SWAP1 PUSH2 0xEF0 JUMP JUMPDEST PUSH1 0x20 PUSH1 0x40 MLOAD DUP1 DUP4 SUB DUP2 DUP7 GAS STATICCALL ISZERO DUP1 ISZERO PUSH2 0x8EC JUMPI RETURNDATASIZE PUSH0 PUSH0 RETURNDATACOPY RETURNDATASIZE PUSH0 REVERT JUMPDEST POP POP POP POP PUSH1 0x40 MLOAD RETURNDATASIZE PUSH1 0x1F NOT PUSH1 0x1F DUP3 ADD AND DUP3 ADD DUP1 PUSH1 0x40 MSTORE POP DUP2 ADD SWAP1 PUSH2 0x910 SWAP2 SWAP1 PUSH2 0xF1D JUMP JUMPDEST LT ISZERO PUSH2 0x951 JUMPI PUSH1 0x40 MLOAD PUSH32 0x8C379A000000000000000000000000000000000000000000000000000000000 DUP2 MSTORE PUSH1 0x4 ADD PUSH2 0x948 SWAP1 PUSH2 0x1604 JUMP JUMPDEST PUSH1 0x40 MLOAD DUP1 SWAP2 SUB SWAP1 REVERT JUMPDEST PUSH0 PUSH0 DUP15 PUSH20 0xFFFFFFFFFFFFFFFFFFFFFFFFFFFFFFFFFFFFFFFF AND PUSH4 0xBAA2ABDE DUP16 DUP16 DUP10 PUSH0 PUSH0 ADDRESS PUSH1 0x1 TIMESTAMP PUSH2 0x982 SWAP2 SWAP1 PUSH2 0x1127 JUMP JUMPDEST PUSH1 0x40 MLOAD DUP9 PUSH4 0xFFFFFFFF AND PUSH1 0xE0 SHL DUP2 MSTORE PUSH1 0x4 ADD PUSH2 0x9A4 SWAP8 SWAP7 SWAP6 SWAP5 SWAP4 SWAP3 SWAP2 SWAP1 PUSH2 0x1664 JUMP JUMPDEST PUSH1 0x40 DUP1 MLOAD DUP1 DUP4 SUB DUP2 PUSH0 DUP8 GAS CALL ISZERO DUP1 ISZERO PUSH2 0x9BF JUMPI RETURNDATASIZE PUSH0 PUSH0 RETURNDATACOPY RETURNDATASIZE PUSH0 REVERT JUMPDEST POP POP POP POP PUSH1 0x40 MLOAD RETURNDATASIZE PUSH1 0x1F NOT PUSH1 0x1F DUP3 ADD AND DUP3 ADD DUP1 PUSH1 0x40 MSTORE POP DUP2 ADD SWAP1 PUSH2 0x9E3 SWAP2 SWAP1 PUSH2 0x16D1 JUMP JUMPDEST SWAP2 POP SWAP2 POP PUSH0 DUP2 DUP4 PUSH2 0x9F4 SWAP2 SWAP1 PUSH2 0x1127 JUMP JUMPDEST GT PUSH2 0xA34 JUMPI PUSH1 0x40 MLOAD PUSH32 0x8C379A000000000000000000000000000000000000000000000000000000000 DUP2 MSTORE PUSH1 0x4 ADD PUSH2 0xA2B SWAP1 PUSH2 0x177F JUMP JUMPDEST PUSH1 0x40 MLOAD DUP1 SWAP2 SUB SWAP1 REVERT JUMPDEST PUSH0 DUP10 SWAP1 DUP1 PUSH1 0x1 DUP2 SLOAD ADD DUP1 DUP3 SSTORE DUP1 SWAP2 POP POP PUSH1 0x1 SWAP1 SUB SWAP1 PUSH0 MSTORE PUSH1 0x20 PUSH0 KECCAK256 ADD PUSH0 SWAP1 SWAP2 SWAP1 SWAP2 SWAP1 SWAP2 POP SWAP1 DUP2 PUSH2 0xA64 SWAP2 SWAP1 PUSH2 0x1934 JUMP JUMPDEST POP POP POP POP POP POP POP POP POP POP POP POP POP POP POP POP JUMP JUMPDEST PUSH0 PUSH1 0x40 MLOAD SWAP1 POP SWAP1 JUMP JUMPDEST PUSH0 PUSH0 REVERT JUMPDEST PUSH0 PUSH0 REVERT JUMPDEST PUSH0 DUP2 SWAP1 POP SWAP2 SWAP1 POP JUMP JUMPDEST PUSH2 0xA99 DUP2 PUSH2 0xA87 JUMP JUMPDEST DUP2 EQ PUSH2 0xAA3 JUMPI PUSH0 PUSH0 REVERT JUMPDEST POP JUMP JUMPDEST PUSH0 DUP2 CALLDATALOAD SWAP1 POP PUSH2 0xAB4 DUP2 PUSH2 0xA90 JUMP JUMPDEST SWAP3 SWAP2 POP POP JUMP JUMPDEST PUSH0 PUSH1 0x20 DUP3 DUP5 SUB SLT ISZERO PUSH2 0xACF JUMPI PUSH2 0xACE PUSH2 0xA7F JUMP JUMPDEST JUMPDEST PUSH0 PUSH2 0xADC DUP5 DUP3 DUP6 ADD PUSH2 0xAA6 JUMP JUMPDEST SWAP2 POP POP SWAP3 SWAP2 POP POP JUMP JUMPDEST PUSH0 DUP2 MLOAD SWAP1 POP SWAP2 SWAP1 POP JUMP JUMPDEST PUSH0 DUP3 DUP3 MSTORE PUSH1 0x20 DUP3 ADD SWAP1 POP SWAP3 SWAP2 POP POP JUMP JUMPDEST DUP3 DUP2 DUP4 MCOPY PUSH0 DUP4 DUP4 ADD MSTORE POP POP POP JUMP JUMPDEST PUSH0 PUSH1 0x1F NOT PUSH1 0x1F DUP4 ADD AND SWAP1 POP SWAP2 SWAP1 POP JUMP JUMPDEST PUSH0 PUSH2 0xB27 DUP3 PUSH2 0xAE5 JUMP JUMPDEST PUSH2 0xB31 DUP2 DUP6 PUSH2 0xAEF JUMP JUMPDEST SWAP4 POP PUSH2 0xB41 DUP2 DUP6 PUSH1 0x20 DUP7 ADD PUSH2 0xAFF JUMP JUMPDEST PUSH2 0xB4A DUP2 PUSH2 0xB0D JUMP JUMPDEST DUP5 ADD SWAP2 POP POP SWAP3 SWAP2 POP POP JUMP JUMPDEST PUSH0 PUSH1 0x20 DUP3 ADD SWAP1 POP DUP2 DUP2 SUB PUSH0 DUP4 ADD MSTORE PUSH2 0xB6D DUP2 DUP5 PUSH2 0xB1D JUMP JUMPDEST SWAP1 POP SWAP3 SWAP2 POP POP JUMP JUMPDEST PUSH0 PUSH20 0xFFFFFFFFFFFFFFFFFFFFFFFFFFFFFFFFFFFFFFFF DUP3 AND SWAP1 POP SWAP2 SWAP1 POP JUMP JUMPDEST PUSH0 PUSH2 0xB9E DUP3 PUSH2 0xB75 JUMP JUMPDEST SWAP1 POP SWAP2 SWAP1 POP JUMP JUMPDEST PUSH2 0xBAE DUP2 PUSH2 0xB94 JUMP JUMPDEST DUP2 EQ PUSH2 0xBB8 JUMPI PUSH0 PUSH0 REVERT JUMPDEST POP JUMP JUMPDEST PUSH0 DUP2 CALLDATALOAD SWAP1 POP PUSH2 0xBC9 DUP2 PUSH2 0xBA5 JUMP JUMPDEST SWAP3 SWAP2 POP POP JUMP JUMPDEST PUSH0 PUSH0 REVERT JUMPDEST PUSH0 PUSH0 REVERT JUMPDEST PUSH32 0x4E487B7100000000000000000000000000000000000000000000000000000000 PUSH0 MSTORE PUSH1 0x41 PUSH1 0x4 MSTORE PUSH1 0x24 PUSH0 REVERT JUMPDEST PUSH2 0xC0D DUP3 PUSH2 0xB0D JUMP JUMPDEST DUP2 ADD DUP2 DUP2 LT PUSH8 0xFFFFFFFFFFFFFFFF DUP3 GT OR ISZERO PUSH2 0xC2C JUMPI PUSH2 0xC2B PUSH2 0xBD7 JUMP JUMPDEST JUMPDEST DUP1 PUSH1 0x40 MSTORE POP POP POP JUMP JUMPDEST PUSH0 PUSH2 0xC3E PUSH2 0xA76 JUMP JUMPDEST SWAP1 POP PUSH2 0xC4A DUP3 DUP3 PUSH2 0xC04 JUMP JUMPDEST SWAP2 SWAP1 POP JUMP JUMPDEST PUSH0 PUSH8 0xFFFFFFFFFFFFFFFF DUP3 GT ISZERO PUSH2 0xC69 JUMPI PUSH2 0xC68 PUSH2 0xBD7 JUMP JUMPDEST JUMPDEST PUSH2 0xC72 DUP3 PUSH2 0xB0D JUMP JUMPDEST SWAP1 POP PUSH1 0x20 DUP2 ADD SWAP1 POP SWAP2 SWAP1 POP JUMP JUMPDEST DUP3 DUP2 DUP4 CALLDATACOPY PUSH0 DUP4 DUP4 ADD MSTORE POP POP POP JUMP JUMPDEST PUSH0 PUSH2 0xC9F PUSH2 0xC9A DUP5 PUSH2 0xC4F JUMP JUMPDEST PUSH2 0xC35 JUMP JUMPDEST SWAP1 POP DUP3 DUP2 MSTORE PUSH1 0x20 DUP2 ADD DUP5 DUP5 DUP5 ADD GT ISZERO PUSH2 0xCBB JUMPI PUSH2 0xCBA PUSH2 0xBD3 JUMP JUMPDEST JUMPDEST PUSH2 0xCC6 DUP5 DUP3 DUP6 PUSH2 0xC7F JUMP JUMPDEST POP SWAP4 SWAP3 POP POP POP JUMP JUMPDEST PUSH0 DUP3 PUSH1 0x1F DUP4 ADD SLT PUSH2 0xCE2 JUMPI PUSH2 0xCE1 PUSH2 0xBCF JUMP JUMPDEST JUMPDEST DUP2 CALLDATALOAD PUSH2 0xCF2 DUP5 DUP3 PUSH1 0x20 DUP7 ADD PUSH2 0xC8D JUMP JUMPDEST SWAP2 POP POP SWAP3 SWAP2 POP POP JUMP JUMPDEST PUSH0 PUSH0 PUSH0 PUSH0 PUSH0 PUSH0 PUSH0 PUSH1 0xE0 DUP9 DUP11 SUB SLT ISZERO PUSH2 0xD16 JUMPI PUSH2 0xD15 PUSH2 0xA7F JUMP JUMPDEST JUMPDEST PUSH0 PUSH2 0xD23 DUP11 DUP3 DUP12 ADD PUSH2 0xBBB JUMP JUMPDEST SWAP8 POP POP PUSH1 0x20 PUSH2 0xD34 DUP11 DUP3 DUP12 ADD PUSH2 0xBBB JUMP JUMPDEST SWAP7 POP POP PUSH1 0x40 PUSH2 0xD45 DUP11 DUP3 DUP12 ADD PUSH2 0xBBB JUMP JUMPDEST SWAP6 POP POP PUSH1 0x60 PUSH2 0xD56 DUP11 DUP3 DUP12 ADD PUSH2 0xAA6 JUMP JUMPDEST SWAP5 POP POP PUSH1 0x80 PUSH2 0xD67 DUP11 DUP3 DUP12 ADD PUSH2 0xAA6 JUMP JUMPDEST SWAP4 POP POP PUSH1 0xA0 PUSH2 0xD78 DUP11 DUP3 DUP12 ADD PUSH2 0xAA6 JUMP JUMPDEST SWAP3 POP POP PUSH1 0xC0 DUP9 ADD CALLDATALOAD PUSH8 0xFFFFFFFFFFFFFFFF DUP2 GT ISZERO PUSH2 0xD99 JUMPI PUSH2 0xD98 PUSH2 0xA83 JUMP JUMPDEST JUMPDEST PUSH2 0xDA5 DUP11 DUP3 DUP12 ADD PUSH2 0xCCE JUMP JUMPDEST SWAP2 POP POP SWAP3 SWAP6 SWAP9 SWAP2 SWAP5 SWAP8 POP SWAP3 SWAP6 POP JUMP JUMPDEST PUSH32 0x4E487B7100000000000000000000000000000000000000000000000000000000 PUSH0 MSTORE PUSH1 0x22 PUSH1 0x4 MSTORE PUSH1 0x24 PUSH0 REVERT JUMPDEST PUSH0 PUSH1 0x2 DUP3 DIV SWAP1 POP PUSH1 0x1 DUP3 AND DUP1 PUSH2 0xDF8 JUMPI PUSH1 0x7F DUP3 AND SWAP2 POP JUMPDEST PUSH1 0x20 DUP3 LT DUP2 SUB PUSH2 0xE0B JUMPI PUSH2 0xE0A PUSH2 0xDB4 JUMP JUMPDEST JUMPDEST POP SWAP2 SWAP1 POP JUMP JUMPDEST PUSH32 0x496E76616C6964206C697175696469747920616D6F756E747300000000000000 PUSH0 DUP3 ADD MSTORE POP JUMP JUMPDEST PUSH0 PUSH2 0xE45 PUSH1 0x19 DUP4 PUSH2 0xAEF JUMP JUMPDEST SWAP2 POP PUSH2 0xE50 DUP3 PUSH2 0xE11 JUMP JUMPDEST PUSH1 0x20 DUP3 ADD SWAP1 POP SWAP2 SWAP1 POP JUMP JUMPDEST PUSH0 PUSH1 0x20 DUP3 ADD SWAP1 POP DUP2 DUP2 SUB PUSH0 DUP4 ADD MSTORE PUSH2 0xE72 DUP2 PUSH2 0xE39 JUMP JUMPDEST SWAP1 POP SWAP2 SWAP1 POP JUMP JUMPDEST PUSH32 0x496E76616C6964207377617020616D6F756E7400000000000000000000000000 PUSH0 DUP3 ADD MSTORE POP JUMP JUMPDEST PUSH0 PUSH2 0xEAD PUSH1 0x13 DUP4 PUSH2 0xAEF JUMP JUMPDEST SWAP2 POP PUSH2 0xEB8 DUP3 PUSH2 0xE79 JUMP JUMPDEST PUSH1 0x20 DUP3 ADD SWAP1 POP SWAP2 SWAP1 POP JUMP JUMPDEST PUSH0 PUSH1 0x20 DUP3 ADD SWAP1 POP DUP2 DUP2 SUB PUSH0 DUP4 ADD MSTORE PUSH2 0xEDA DUP2 PUSH2 0xEA1 JUMP JUMPDEST SWAP1 POP SWAP2 SWAP1 POP JUMP JUMPDEST PUSH2 0xEEA DUP2 PUSH2 0xB94 JUMP JUMPDEST DUP3 MSTORE POP POP JUMP JUMPDEST PUSH0 PUSH1 0x20 DUP3 ADD SWAP1 POP PUSH2 0xF03 PUSH0 DUP4 ADD DUP5 PUSH2 0xEE1 JUMP JUMPDEST SWAP3 SWAP2 POP POP JUMP JUMPDEST PUSH0 DUP2 MLOAD SWAP1 POP PUSH2 0xF17 DUP2 PUSH2 0xA90 JUMP JUMPDEST SWAP3 SWAP2 POP POP JUMP JUMPDEST PUSH0 PUSH1 0x20 DUP3 DUP5 SUB SLT ISZERO PUSH2 0xF32 JUMPI PUSH2 0xF31 PUSH2 0xA7F JUMP JUMPDEST JUMPDEST PUSH0 PUSH2 0xF3F DUP5 DUP3 DUP6 ADD PUSH2 0xF09 JUMP JUMPDEST SWAP2 POP POP SWAP3 SWAP2 POP POP JUMP JUMPDEST PUSH32 0x496E73756666696369656E7420746F6B656E204120737570706C7920666F7220 PUSH0 DUP3 ADD MSTORE PUSH32 0x7468697320636F6E746163740000000000000000000000000000000000000000 PUSH1 0x20 DUP3 ADD MSTORE POP JUMP JUMPDEST PUSH0 PUSH2 0xFA2 PUSH1 0x2C DUP4 PUSH2 0xAEF JUMP JUMPDEST SWAP2 POP PUSH2 0xFAD DUP3 PUSH2 0xF48 JUMP JUMPDEST PUSH1 0x40 DUP3 ADD SWAP1 POP SWAP2 SWAP1 POP JUMP JUMPDEST PUSH0 PUSH1 0x20 DUP3 ADD SWAP1 POP DUP2 DUP2 SUB PUSH0 DUP4 ADD MSTORE PUSH2 0xFCF DUP2 PUSH2 0xF96 JUMP JUMPDEST SWAP1 POP SWAP2 SWAP1 POP JUMP JUMPDEST PUSH32 0x496E73756666696369656E7420746F6B656E204220737570706C7920666F7220 PUSH0 DUP3 ADD MSTORE PUSH32 0x7468697320636F6E746163740000000000000000000000000000000000000000 PUSH1 0x20 DUP3 ADD MSTORE POP JUMP JUMPDEST PUSH0 PUSH2 0x1030 PUSH1 0x2C DUP4 PUSH2 0xAEF JUMP JUMPDEST SWAP2 POP PUSH2 0x103B DUP3 PUSH2 0xFD6 JUMP JUMPDEST PUSH1 0x40 DUP3 ADD SWAP1 POP SWAP2 SWAP1 POP JUMP JUMPDEST PUSH0 PUSH1 0x20 DUP3 ADD SWAP1 POP DUP2 DUP2 SUB PUSH0 DUP4 ADD MSTORE PUSH2 0x105D DUP2 PUSH2 0x1024 JUMP JUMPDEST SWAP1 POP SWAP2 SWAP1 POP JUMP JUMPDEST PUSH2 0x106D DUP2 PUSH2 0xA87 JUMP JUMPDEST DUP3 MSTORE POP POP JUMP JUMPDEST PUSH0 PUSH1 0x40 DUP3 ADD SWAP1 POP PUSH2 0x1086 PUSH0 DUP4 ADD DUP6 PUSH2 0xEE1 JUMP JUMPDEST PUSH2 0x1093 PUSH1 0x20 DUP4 ADD DUP5 PUSH2 0x1064 JUMP JUMPDEST SWAP4 SWAP3 POP POP POP JUMP JUMPDEST PUSH0 DUP2 ISZERO ISZERO SWAP1 POP SWAP2 SWAP1 POP JUMP JUMPDEST PUSH2 0x10AE DUP2 PUSH2 0x109A JUMP JUMPDEST DUP2 EQ PUSH2 0x10B8 JUMPI PUSH0 PUSH0 REVERT JUMPDEST POP JUMP JUMPDEST PUSH0 DUP2 MLOAD SWAP1 POP PUSH2 0x10C9 DUP2 PUSH2 0x10A5 JUMP JUMPDEST SWAP3 SWAP2 POP POP JUMP JUMPDEST PUSH0 PUSH1 0x20 DUP3 DUP5 SUB SLT ISZERO PUSH2 0x10E4 JUMPI PUSH2 0x10E3 PUSH2 0xA7F JUMP JUMPDEST JUMPDEST PUSH0 PUSH2 0x10F1 DUP5 DUP3 DUP6 ADD PUSH2 0x10BB JUMP JUMPDEST SWAP2 POP POP SWAP3 SWAP2 POP POP JUMP JUMPDEST PUSH32 0x4E487B7100000000000000000000000000000000000000000000000000000000 PUSH0 MSTORE PUSH1 0x11 PUSH1 0x4 MSTORE PUSH1 0x24 PUSH0 REVERT JUMPDEST PUSH0 PUSH2 0x1131 DUP3 PUSH2 0xA87 JUMP JUMPDEST SWAP2 POP PUSH2 0x113C DUP4 PUSH2 0xA87 JUMP JUMPDEST SWAP3 POP DUP3 DUP3 ADD SWAP1 POP DUP1 DUP3 GT ISZERO PUSH2 0x1154 JUMPI PUSH2 0x1153 PUSH2 0x10FA JUMP JUMPDEST JUMPDEST SWAP3 SWAP2 POP POP JUMP JUMPDEST PUSH0 PUSH2 0x100 DUP3 ADD SWAP1 POP PUSH2 0x116E PUSH0 DUP4 ADD DUP12 PUSH2 0xEE1 JUMP JUMPDEST PUSH2 0x117B PUSH1 0x20 DUP4 ADD DUP11 PUSH2 0xEE1 JUMP JUMPDEST PUSH2 0x1188 PUSH1 0x40 DUP4 ADD DUP10 PUSH2 0x1064 JUMP JUMPDEST PUSH2 0x1195 PUSH1 0x60 DUP4 ADD DUP9 PUSH2 0x1064 JUMP JUMPDEST PUSH2 0x11A2 PUSH1 0x80 DUP4 ADD DUP8 PUSH2 0x1064 JUMP JUMPDEST PUSH2 0x11AF PUSH1 0xA0 DUP4 ADD DUP7 PUSH2 0x1064 JUMP JUMPDEST PUSH2 0x11BC PUSH1 0xC0 DUP4 ADD DUP6 PUSH2 0xEE1 JUMP JUMPDEST PUSH2 0x11C9 PUSH1 0xE0 DUP4 ADD DUP5 PUSH2 0x1064 JUMP JUMPDEST SWAP10 SWAP9 POP POP POP POP POP POP POP POP POP JUMP JUMPDEST PUSH0 PUSH0 PUSH0 PUSH1 0x60 DUP5 DUP7 SUB SLT ISZERO PUSH2 0x11ED JUMPI PUSH2 0x11EC PUSH2 0xA7F JUMP JUMPDEST JUMPDEST PUSH0 PUSH2 0x11FA DUP7 DUP3 DUP8 ADD PUSH2 0xF09 JUMP JUMPDEST SWAP4 POP POP PUSH1 0x20 PUSH2 0x120B DUP7 DUP3 DUP8 ADD PUSH2 0xF09 JUMP JUMPDEST SWAP3 POP POP PUSH1 0x40 PUSH2 0x121C DUP7 DUP3 DUP8 ADD PUSH2 0xF09 JUMP JUMPDEST SWAP2 POP POP SWAP3 POP SWAP3 POP SWAP3 JUMP JUMPDEST PUSH32 0x6164644C697175696469747920616D6F756E7473206D69736D61746368000000 PUSH0 DUP3 ADD MSTORE POP JUMP JUMPDEST PUSH0 PUSH2 0x125A PUSH1 0x1D DUP4 PUSH2 0xAEF JUMP JUMPDEST SWAP2 POP PUSH2 0x1265 DUP3 PUSH2 0x1226 JUMP JUMPDEST PUSH1 0x20 DUP3 ADD SWAP1 POP SWAP2 SWAP1 POP JUMP JUMPDEST PUSH0 PUSH1 0x20 DUP3 ADD SWAP1 POP DUP2 DUP2 SUB PUSH0 DUP4 ADD MSTORE PUSH2 0x1287 DUP2 PUSH2 0x124E JUMP JUMPDEST SWAP1 POP SWAP2 SWAP1 POP JUMP JUMPDEST PUSH32 0x6164644C69717569646974792072657475726E6564207A65726F206C69717569 PUSH0 DUP3 ADD MSTORE PUSH32 0x6469747900000000000000000000000000000000000000000000000000000000 PUSH1 0x20 DUP3 ADD MSTORE POP JUMP JUMPDEST PUSH0 PUSH2 0x12E8 PUSH1 0x24 DUP4 PUSH2 0xAEF JUMP JUMPDEST SWAP2 POP PUSH2 0x12F3 DUP3 PUSH2 0x128E JUMP JUMPDEST PUSH1 0x40 DUP3 ADD SWAP1 POP SWAP2 SWAP1 POP JUMP JUMPDEST PUSH0 PUSH1 0x20 DUP3 ADD SWAP1 POP DUP2 DUP2 SUB PUSH0 DUP4 ADD MSTORE PUSH2 0x1315 DUP2 PUSH2 0x12DC JUMP JUMPDEST SWAP1 POP SWAP2 SWAP1 POP JUMP JUMPDEST PUSH0 PUSH1 0x40 DUP3 ADD SWAP1 POP PUSH2 0x132F PUSH0 DUP4 ADD DUP6 PUSH2 0xEE1 JUMP JUMPDEST PUSH2 0x133C PUSH1 0x20 DUP4 ADD DUP5 PUSH2 0xEE1 JUMP JUMPDEST SWAP4 SWAP3 POP POP POP JUMP JUMPDEST PUSH0 PUSH2 0x134D DUP3 PUSH2 0xA87 JUMP JUMPDEST SWAP2 POP PUSH2 0x1358 DUP4 PUSH2 0xA87 JUMP JUMPDEST SWAP3 POP DUP3 DUP3 MUL PUSH2 0x1366 DUP2 PUSH2 0xA87 JUMP JUMPDEST SWAP2 POP DUP3 DUP3 DIV DUP5 EQ DUP4 ISZERO OR PUSH2 0x137D JUMPI PUSH2 0x137C PUSH2 0x10FA JUMP JUMPDEST JUMPDEST POP SWAP3 SWAP2 POP POP JUMP JUMPDEST PUSH32 0x4E487B7100000000000000000000000000000000000000000000000000000000 PUSH0 MSTORE PUSH1 0x12 PUSH1 0x4 MSTORE PUSH1 0x24 PUSH0 REVERT JUMPDEST PUSH0 PUSH2 0x13BB DUP3 PUSH2 0xA87 JUMP JUMPDEST SWAP2 POP PUSH2 0x13C6 DUP4 PUSH2 0xA87 JUMP JUMPDEST SWAP3 POP DUP3 PUSH2 0x13D6 JUMPI PUSH2 0x13D5 PUSH2 0x1384 JUMP JUMPDEST JUMPDEST DUP3 DUP3 DIV SWAP1 POP SWAP3 SWAP2 POP POP JUMP JUMPDEST PUSH32 0x676574507269636520696E636F72726563740000000000000000000000000000 PUSH0 DUP3 ADD MSTORE POP JUMP JUMPDEST PUSH0 PUSH2 0x1415 PUSH1 0x12 DUP4 PUSH2 0xAEF JUMP JUMPDEST SWAP2 POP PUSH2 0x1420 DUP3 PUSH2 0x13E1 JUMP JUMPDEST PUSH1 0x20 DUP3 ADD SWAP1 POP SWAP2 SWAP1 POP JUMP JUMPDEST PUSH0 PUSH1 0x20 DUP3 ADD SWAP1 POP DUP2 DUP2 SUB PUSH0 DUP4 ADD MSTORE PUSH2 0x1442 DUP2 PUSH2 0x1409 JUMP JUMPDEST SWAP1 POP SWAP2 SWAP1 POP JUMP JUMPDEST PUSH0 PUSH1 0x60 DUP3 ADD SWAP1 POP PUSH2 0x145C PUSH0 DUP4 ADD DUP7 PUSH2 0x1064 JUMP JUMPDEST PUSH2 0x1469 PUSH1 0x20 DUP4 ADD DUP6 PUSH2 0x1064 JUMP JUMPDEST PUSH2 0x1476 PUSH1 0x40 DUP4 ADD DUP5 PUSH2 0x1064 JUMP JUMPDEST SWAP5 SWAP4 POP POP POP POP JUMP JUMPDEST PUSH32 0x4E487B7100000000000000000000000000000000000000000000000000000000 PUSH0 MSTORE PUSH1 0x32 PUSH1 0x4 MSTORE PUSH1 0x24 PUSH0 REVERT JUMPDEST PUSH0 DUP2 MLOAD SWAP1 POP SWAP2 SWAP1 POP JUMP JUMPDEST PUSH0 DUP3 DUP3 MSTORE PUSH1 0x20 DUP3 ADD SWAP1 POP SWAP3 SWAP2 POP POP JUMP JUMPDEST PUSH0 DUP2 SWAP1 POP PUSH1 0x20 DUP3 ADD SWAP1 POP SWAP2 SWAP1 POP JUMP JUMPDEST PUSH2 0x14DD DUP2 PUSH2 0xB94 JUMP JUMPDEST DUP3 MSTORE POP POP JUMP JUMPDEST PUSH0 PUSH2 0x14EE DUP4 DUP4 PUSH2 0x14D4 JUMP JUMPDEST PUSH1 0x20 DUP4 ADD SWAP1 POP SWAP3 SWAP2 POP POP JUMP JUMPDEST PUSH0 PUSH1 0x20 DUP3 ADD SWAP1 POP SWAP2 SWAP1 POP JUMP JUMPDEST PUSH0 PUSH2 0x1510 DUP3 PUSH2 0x14AB JUMP JUMPDEST PUSH2 0x151A DUP2 DUP6 PUSH2 0x14B5 JUMP JUMPDEST SWAP4 POP PUSH2 0x1525 DUP4 PUSH2 0x14C5 JUMP JUMPDEST DUP1 PUSH0 JUMPDEST DUP4 DUP2 LT ISZERO PUSH2 0x1555 JUMPI DUP2 MLOAD PUSH2 0x153C DUP9 DUP3 PUSH2 0x14E3 JUMP JUMPDEST SWAP8 POP PUSH2 0x1547 DUP4 PUSH2 0x14FA JUMP JUMPDEST SWAP3 POP POP PUSH1 0x1 DUP2 ADD SWAP1 POP PUSH2 0x1528 JUMP JUMPDEST POP DUP6 SWAP4 POP POP POP POP SWAP3 SWAP2 POP POP JUMP JUMPDEST PUSH0 PUSH1 0xA0 DUP3 ADD SWAP1 POP PUSH2 0x1575 PUSH0 DUP4 ADD DUP9 PUSH2 0x1064 JUMP JUMPDEST PUSH2 0x1582 PUSH1 0x20 DUP4 ADD DUP8 PUSH2 0x1064 JUMP JUMPDEST DUP2 DUP2 SUB PUSH1 0x40 DUP4 ADD MSTORE PUSH2 0x1594 DUP2 DUP7 PUSH2 0x1506 JUMP JUMPDEST SWAP1 POP PUSH2 0x15A3 PUSH1 0x60 DUP4 ADD DUP6 PUSH2 0xEE1 JUMP JUMPDEST PUSH2 0x15B0 PUSH1 0x80 DUP4 ADD DUP5 PUSH2 0x1064 JUMP JUMPDEST SWAP7 SWAP6 POP POP POP POP POP POP JUMP JUMPDEST PUSH32 0x737761704578616374546F6B656E73466F72546F6B656E73206661696C656400 PUSH0 DUP3 ADD MSTORE POP JUMP JUMPDEST PUSH0 PUSH2 0x15EE PUSH1 0x1F DUP4 PUSH2 0xAEF JUMP JUMPDEST SWAP2 POP PUSH2 0x15F9 DUP3 PUSH2 0x15BA JUMP JUMPDEST PUSH1 0x20 DUP3 ADD SWAP1 POP SWAP2 SWAP1 POP JUMP JUMPDEST PUSH0 PUSH1 0x20 DUP3 ADD SWAP1 POP DUP2 DUP2 SUB PUSH0 DUP4 ADD MSTORE PUSH2 0x161B DUP2 PUSH2 0x15E2 JUMP JUMPDEST SWAP1 POP SWAP2 SWAP1 POP JUMP JUMPDEST PUSH0 DUP2 SWAP1 POP SWAP2 SWAP1 POP JUMP JUMPDEST PUSH0 DUP2 SWAP1 POP SWAP2 SWAP1 POP JUMP JUMPDEST PUSH0 PUSH2 0x164E PUSH2 0x1649 PUSH2 0x1644 DUP5 PUSH2 0x1622 JUMP JUMPDEST PUSH2 0x162B JUMP JUMPDEST PUSH2 0xA87 JUMP JUMPDEST SWAP1 POP SWAP2 SWAP1 POP JUMP JUMPDEST PUSH2 0x165E DUP2 PUSH2 0x1634 JUMP JUMPDEST DUP3 MSTORE POP POP JUMP JUMPDEST PUSH0 PUSH1 0xE0 DUP3 ADD SWAP1 POP PUSH2 0x1677 PUSH0 DUP4 ADD DUP11 PUSH2 0xEE1 JUMP JUMPDEST PUSH2 0x1684 PUSH1 0x20 DUP4 ADD DUP10 PUSH2 0xEE1 JUMP JUMPDEST PUSH2 0x1691 PUSH1 0x40 DUP4 ADD DUP9 PUSH2 0x1064 JUMP JUMPDEST PUSH2 0x169E PUSH1 0x60 DUP4 ADD DUP8 PUSH2 0x1655 JUMP JUMPDEST PUSH2 0x16AB PUSH1 0x80 DUP4 ADD DUP7 PUSH2 0x1655 JUMP JUMPDEST PUSH2 0x16B8 PUSH1 0xA0 DUP4 ADD DUP6 PUSH2 0xEE1 JUMP JUMPDEST PUSH2 0x16C5 PUSH1 0xC0 DUP4 ADD DUP5 PUSH2 0x1064 JUMP JUMPDEST SWAP9 SWAP8 POP POP POP POP POP POP POP POP JUMP JUMPDEST PUSH0 PUSH0 PUSH1 0x40 DUP4 DUP6 SUB SLT ISZERO PUSH2 0x16E7 JUMPI PUSH2 0x16E6 PUSH2 0xA7F JUMP JUMPDEST JUMPDEST PUSH0 PUSH2 0x16F4 DUP6 DUP3 DUP7 ADD PUSH2 0xF09 JUMP JUMPDEST SWAP3 POP POP PUSH1 0x20 PUSH2 0x1705 DUP6 DUP3 DUP7 ADD PUSH2 0xF09 JUMP JUMPDEST SWAP2 POP POP SWAP3 POP SWAP3 SWAP1 POP JUMP JUMPDEST PUSH32 0x72656D6F76654C69717569646974792072657475726E6564207A65726F20746F PUSH0 DUP3 ADD MSTORE PUSH32 0x6B656E7300000000000000000000000000000000000000000000000000000000 PUSH1 0x20 DUP3 ADD MSTORE POP JUMP JUMPDEST PUSH0 PUSH2 0x1769 PUSH1 0x24 DUP4 PUSH2 0xAEF JUMP JUMPDEST SWAP2 POP PUSH2 0x1774 DUP3 PUSH2 0x170F JUMP JUMPDEST PUSH1 0x40 DUP3 ADD SWAP1 POP SWAP2 SWAP1 POP JUMP JUMPDEST PUSH0 PUSH1 0x20 DUP3 ADD SWAP1 POP DUP2 DUP2 SUB PUSH0 DUP4 ADD MSTORE PUSH2 0x1796 DUP2 PUSH2 0x175D JUMP JUMPDEST SWAP1 POP SWAP2 SWAP1 POP JUMP JUMPDEST PUSH0 DUP2 SWAP1 POP DUP2 PUSH0 MSTORE PUSH1 0x20 PUSH0 KECCAK256 SWAP1 POP SWAP2 SWAP1 POP JUMP JUMPDEST PUSH0 PUSH1 0x20 PUSH1 0x1F DUP4 ADD DIV SWAP1 POP SWAP2 SWAP1 POP JUMP JUMPDEST PUSH0 DUP3 DUP3 SHL SWAP1 POP SWAP3 SWAP2 POP POP JUMP JUMPDEST PUSH0 PUSH1 0x8 DUP4 MUL PUSH2 0x17F9 PUSH32 0xFFFFFFFFFFFFFFFFFFFFFFFFFFFFFFFFFFFFFFFFFFFFFFFFFFFFFFFFFFFFFFFF DUP3 PUSH2 0x17BE JUMP JUMPDEST PUSH2 0x1803 DUP7 DUP4 PUSH2 0x17BE JUMP JUMPDEST SWAP6 POP DUP1 NOT DUP5 AND SWAP4 POP DUP1 DUP7 AND DUP5 OR SWAP3 POP POP POP SWAP4 SWAP3 POP POP POP JUMP JUMPDEST PUSH0 PUSH2 0x1835 PUSH2 0x1830 PUSH2 0x182B DUP5 PUSH2 0xA87 JUMP JUMPDEST PUSH2 0x162B JUMP JUMPDEST PUSH2 0xA87 JUMP JUMPDEST SWAP1 POP SWAP2 SWAP1 POP JUMP JUMPDEST PUSH0 DUP2 SWAP1 POP SWAP2 SWAP1 POP JUMP JUMPDEST PUSH2 0x184E DUP4 PUSH2 0x181B JUMP JUMPDEST PUSH2 0x1862 PUSH2 0x185A DUP3 PUSH2 0x183C JUMP JUMPDEST DUP5 DUP5 SLOAD PUSH2 0x17CA JUMP JUMPDEST DUP3 SSTORE POP POP POP POP JUMP JUMPDEST PUSH0 PUSH0 SWAP1 POP SWAP1 JUMP JUMPDEST PUSH2 0x1879 PUSH2 0x186A JUMP JUMPDEST PUSH2 0x1884 DUP2 DUP5 DUP5 PUSH2 0x1845 JUMP JUMPDEST POP POP POP JUMP JUMPDEST JUMPDEST DUP2 DUP2 LT ISZERO PUSH2 0x18A7 JUMPI PUSH2 0x189C PUSH0 DUP3 PUSH2 0x1871 JUMP JUMPDEST PUSH1 0x1 DUP2 ADD SWAP1 POP PUSH2 0x188A JUMP JUMPDEST POP POP JUMP JUMPDEST PUSH1 0x1F DUP3 GT ISZERO PUSH2 0x18EC JUMPI PUSH2 0x18BD DUP2 PUSH2 0x179D JUMP JUMPDEST PUSH2 0x18C6 DUP5 PUSH2 0x17AF JUMP JUMPDEST DUP2 ADD PUSH1 0x20 DUP6 LT ISZERO PUSH2 0x18D5 JUMPI DUP2 SWAP1 POP JUMPDEST PUSH2 0x18E9 PUSH2 0x18E1 DUP6 PUSH2 0x17AF JUMP JUMPDEST DUP4 ADD DUP3 PUSH2 0x1889 JUMP JUMPDEST POP POP JUMPDEST POP POP POP JUMP JUMPDEST PUSH0 DUP3 DUP3 SHR SWAP1 POP SWAP3 SWAP2 POP POP JUMP JUMPDEST PUSH0 PUSH2 0x190C PUSH0 NOT DUP5 PUSH1 0x8 MUL PUSH2 0x18F1 JUMP JUMPDEST NOT DUP1 DUP4 AND SWAP2 POP POP SWAP3 SWAP2 POP POP JUMP JUMPDEST PUSH0 PUSH2 0x1924 DUP4 DUP4 PUSH2 0x18FD JUMP JUMPDEST SWAP2 POP DUP3 PUSH1 0x2 MUL DUP3 OR SWAP1 POP SWAP3 SWAP2 POP POP JUMP JUMPDEST PUSH2 0x193D DUP3 PUSH2 0xAE5 JUMP JUMPDEST PUSH8 0xFFFFFFFFFFFFFFFF DUP2 GT ISZERO PUSH2 0x1956 JUMPI PUSH2 0x1955 PUSH2 0xBD7 JUMP JUMPDEST JUMPDEST PUSH2 0x1960 DUP3 SLOAD PUSH2 0xDE1 JUMP JUMPDEST PUSH2 0x196B DUP3 DUP3 DUP6 PUSH2 0x18AB JUMP JUMPDEST PUSH0 PUSH1 0x20 SWAP1 POP PUSH1 0x1F DUP4 GT PUSH1 0x1 DUP2 EQ PUSH2 0x199C JUMPI PUSH0 DUP5 ISZERO PUSH2 0x198A JUMPI DUP3 DUP8 ADD MLOAD SWAP1 POP JUMPDEST PUSH2 0x1994 DUP6 DUP3 PUSH2 0x1919 JUMP JUMPDEST DUP7 SSTORE POP PUSH2 0x19FB JUMP JUMPDEST PUSH1 0x1F NOT DUP5 AND PUSH2 0x19AA DUP7 PUSH2 0x179D JUMP JUMPDEST PUSH0 JUMPDEST DUP3 DUP2 LT ISZERO PUSH2 0x19D1 JUMPI DUP5 DUP10 ADD MLOAD DUP3 SSTORE PUSH1 0x1 DUP3 ADD SWAP2 POP PUSH1 0x20 DUP6 ADD SWAP5 POP PUSH1 0x20 DUP2 ADD SWAP1 POP PUSH2 0x19AC JUMP JUMPDEST DUP7 DUP4 LT ISZERO PUSH2 0x19EE JUMPI DUP5 DUP10 ADD MLOAD PUSH2 0x19EA PUSH1 0x1F DUP10 AND DUP3 PUSH2 0x18FD JUMP JUMPDEST DUP4 SSTORE POP JUMPDEST PUSH1 0x1 PUSH1 0x2 DUP9 MUL ADD DUP9 SSTORE POP POP POP JUMPDEST POP POP POP POP POP POP JUMP INVALID LOG2 PUSH5 0x6970667358 0x22 SLT KECCAK256 0xC RETURNDATASIZE 0xC1 PUSH25 0x8FEB5F623B232605BFB39DB5B19D0940380DC9C49F73465FEC 0xE4 0xB8 PUSH1 0x64 PUSH20 0x6F6C634300081B00330000000000000000000000 "
		},
		"gasEstimates": {
			"creation": {
				"codeDepositCost": "1342600",
				"executionCost": "1395",
				"totalCost": "1343995"
			},
			"external": {
				"authors(uint256)": "infinite",
				"verify(address,address,address,uint256,uint256,uint256,string)": "infinite"
			}
		},
		"methodIdentifiers": {
			"authors(uint256)": "3db804da",
			"verify(address,address,address,uint256,uint256,uint256,string)": "457b8b91"
		}
	},
	"abi": [
		{
			"inputs": [
				{
					"internalType": "uint256",
					"name": "",
					"type": "uint256"
				}
			],
			"name": "authors",
			"outputs": [
				{
					"internalType": "string",
					"name": "",
					"type": "string"
				}
			],
			"stateMutability": "view",
			"type": "function"
		},
		{
			"inputs": [
				{
					"internalType": "address",
					"name": "swapContract",
					"type": "address"
				},
				{
					"internalType": "address",
					"name": "tokenA",
					"type": "address"
				},
				{
					"internalType": "address",
					"name": "tokenB",
					"type": "address"
				},
				{
					"internalType": "uint256",
					"name": "amountA",
					"type": "uint256"
				},
				{
					"internalType": "uint256",
					"name": "amountB",
					"type": "uint256"
				},
				{
					"internalType": "uint256",
					"name": "amountIn",
					"type": "uint256"
				},
				{
					"internalType": "string",
					"name": "author",
					"type": "string"
				}
			],
			"name": "verify",
			"outputs": [],
			"stateMutability": "nonpayable",
			"type": "function"
		}
	]
}