{
	"data": {
		"bytecode": {
			"linkReferences": {},
			"object": "6080604052348015600e575f5ffd5b5060015f81905550612ad5806100235f395ff3fe608060405234801561000f575f5ffd5b5060043610610060575f3560e01c8063054d50d41461006457806338ed173914610094578063ac41865a146100c4578063b5217bb4146100f4578063baa2abde14610126578063e8e3370014610157575b5f5ffd5b61007e60048036038101906100799190611908565b610189565b60405161008b9190611967565b60405180910390f35b6100ae60048036038101906100a99190611a3b565b61020d565b6040516100bb9190611b88565b60405180910390f35b6100de60048036038101906100d99190611ba8565b610707565b6040516100eb9190611967565b60405180910390f35b61010e60048036038101906101099190611c19565b6108b8565b60405161011d93929190611c44565b60405180910390f35b610140600480360381019061013b9190611c79565b6108de565b60405161014e929190611d16565b60405180910390f35b610171600480360381019061016c9190611d3d565b610e3b565b60405161018093929190611c44565b60405180910390f35b5f5f8411801561019857505f83115b80156101a357505f82115b6101e2576040517f08c379a00000000000000000000000000000000000000000000000000000000081526004016101d990611e6e565b60405180910390fd5b83836101ee9190611eb9565b82856101fa9190611eec565b6102049190611f5a565b90509392505050565b60606102176110d2565b8142111561025a576040517f08c379a000000000000000000000000000000000000000000000000000000000815260040161025190611fd4565b60405180910390fd5b600285859050146102a0576040517f08c379a000000000000000000000000000000000000000000000000000000000815260040161029790612062565b60405180910390fd5b5f73ffffffffffffffffffffffffffffffffffffffff168373ffffffffffffffffffffffffffffffffffffffff160361030e576040517f08c379a0000000000000000000000000000000000000000000000000000000008152600401610305906120f0565b60405180910390fd5b5f8711610350576040517f08c379a00000000000000000000000000000000000000000000000000000000081526004016103479061217e565b60405180910390fd5b5f6103aa86865f8181106103675761036661219c565b5b905060200201602081019061037c91906121c9565b878760018181106103905761038f61219c565b5b90506020020160208101906103a591906121c9565b611116565b90505f60015f8381526020019081526020015f2090505f5f61041c89895f8181106103d8576103d761219c565b5b90506020020160208101906103ed91906121c9565b8a8a60018181106104015761040061219c565b5b905060200201602081019061041691906121c9565b856111aa565b915091505f8211801561042e57505f81115b61046d576040517f08c379a000000000000000000000000000000000000000000000000000000000815260040161046490612264565b60405180910390fd5b5f6104798c8484610189565b90508a8110156104be576040517f08c379a00000000000000000000000000000000000000000000000000000000081526004016104b5906122cc565b60405180910390fd5b89895f8181106104d1576104d061219c565b5b90506020020160208101906104e691906121c9565b73ffffffffffffffffffffffffffffffffffffffff166323b872dd33308f6040518463ffffffff1660e01b8152600401610522939291906122f9565b6020604051808303815f875af115801561053e573d5f5f3e3d5ffd5b505050506040513d601f19601f820116820180604052508101906105629190612363565b50898960018181106105775761057661219c565b5b905060200201602081019061058c91906121c9565b73ffffffffffffffffffffffffffffffffffffffff1663a9059cbb89836040518363ffffffff1660e01b81526004016105c692919061238e565b6020604051808303815f875af11580156105e2573d5f5f3e3d5ffd5b505050506040513d601f19601f820116820180604052508101906106069190612363565b506106638a8a5f81811061061d5761061c61219c565b5b905060200201602081019061063291906121c9565b8b8b60018181106106465761064561219c565b5b905060200201602081019061065b91906121c9565b868f85611251565b600267ffffffffffffffff81111561067e5761067d6123b5565b5b6040519080825280602002602001820160405280156106ac5781602001602082028036833780820191505090505b5095508b865f815181106106c3576106c261219c565b5b60200260200101818152505080866001815181106106e4576106e361219c565b5b60200260200101818152505050505050506106fd611341565b9695505050505050565b5f5f73ffffffffffffffffffffffffffffffffffffffff168373ffffffffffffffffffffffffffffffffffffffff161415801561077057505f73ffffffffffffffffffffffffffffffffffffffff168273ffffffffffffffffffffffffffffffffffffffff1614155b6107af576040517f08c379a00000000000000000000000000000000000000000000000000000000081526004016107a690612452565b60405180910390fd5b5f6107ba8484611116565b90505f60015f8381526020019081526020015f2090505f815f01541180156107e557505f8160010154115b610824576040517f08c379a000000000000000000000000000000000000000000000000000000000815260040161081b90612264565b60405180910390fd5b8373ffffffffffffffffffffffffffffffffffffffff168573ffffffffffffffffffffffffffffffffffffffff16101561088757805f0154670de0b6b3a764000082600101546108749190611eec565b61087e9190611f5a565b925050506108b2565b8060010154670de0b6b3a7640000825f01546108a39190611eec565b6108ad9190611f5a565b925050505b92915050565b6001602052805f5260405f205f91509050805f0154908060010154908060020154905083565b5f5f6108e86110d2565b8242111561092b576040517f08c379a000000000000000000000000000000000000000000000000000000000815260040161092290611fd4565b60405180910390fd5b5f73ffffffffffffffffffffffffffffffffffffffff168473ffffffffffffffffffffffffffffffffffffffff1603610999576040517f08c379a0000000000000000000000000000000000000000000000000000000008152600401610990906120f0565b60405180910390fd5b5f87116109db576040517f08c379a00000000000000000000000000000000000000000000000000000000081526004016109d2906124e0565b60405180910390fd5b5f6109e68a8a61134a565b5090505f6109f48b8b611116565b90505f60015f8381526020019081526020015f20905089816003015f3373ffffffffffffffffffffffffffffffffffffffff1673ffffffffffffffffffffffffffffffffffffffff1681526020019081526020015f20541015610a8c576040517f08c379a0000000000000000000000000000000000000000000000000000000008152600401610a839061256e565b60405180910390fd5b5f816002015411610ad2576040517f08c379a0000000000000000000000000000000000000000000000000000000008152600401610ac9906125fc565b60405180910390fd5b5f8373ffffffffffffffffffffffffffffffffffffffff168d73ffffffffffffffffffffffffffffffffffffffff1614610b10578160010154610b15565b815f01545b90505f8473ffffffffffffffffffffffffffffffffffffffff168e73ffffffffffffffffffffffffffffffffffffffff1614610b5457825f0154610b5a565b82600101545b90508260020154828d610b6d9190611eec565b610b779190611f5a565b96508260020154818d610b8a9190611eec565b610b949190611f5a565b95508a871015610bd9576040517f08c379a0000000000000000000000000000000000000000000000000000000008152600401610bd09061268a565b60405180910390fd5b89861015610c1c576040517f08c379a0000000000000000000000000000000000000000000000000000000008152600401610c1390612718565b60405180910390fd5b8b836002015f828254610c2f9190612736565b925050819055508b836003015f3373ffffffffffffffffffffffffffffffffffffffff1673ffffffffffffffffffffffffffffffffffffffff1681526020019081526020015f205f828254610c849190612736565b925050819055508473ffffffffffffffffffffffffffffffffffffffff168e73ffffffffffffffffffffffffffffffffffffffff1603610cf65786835f015f828254610cd09190612736565b9250508190555085836001015f828254610cea9190612736565b92505081905550610d2a565b85835f015f828254610d089190612736565b9250508190555086836001015f828254610d229190612736565b925050819055505b8d73ffffffffffffffffffffffffffffffffffffffff1663a9059cbb8a896040518363ffffffff1660e01b8152600401610d6592919061238e565b6020604051808303815f875af1158015610d81573d5f5f3e3d5ffd5b505050506040513d601f19601f82011682018060405250810190610da59190612363565b508c73ffffffffffffffffffffffffffffffffffffffff1663a9059cbb8a886040518363ffffffff1660e01b8152600401610de192919061238e565b6020604051808303815f875af1158015610dfd573d5f5f3e3d5ffd5b505050506040513d601f19601f82011682018060405250810190610e219190612363565b505050505050610e2f611341565b97509795505050505050565b5f5f5f610e466110d2565b83421115610e89576040517f08c379a0000000000000000000000000000000000000000000000000000000008152600401610e8090611fd4565b60405180910390fd5b5f73ffffffffffffffffffffffffffffffffffffffff168573ffffffffffffffffffffffffffffffffffffffff1603610ef7576040517f08c379a0000000000000000000000000000000000000000000000000000000008152600401610eee906120f0565b60405180910390fd5b5f610f028c8c61134a565b5090505f610f108d8d611116565b90505f60015f8381526020019081526020015f209050610f358e848e8e8e8e87611402565b8096508197508298505050508d73ffffffffffffffffffffffffffffffffffffffff166323b872dd3330896040518463ffffffff1660e01b8152600401610f7e939291906122f9565b6020604051808303815f875af1158015610f9a573d5f5f3e3d5ffd5b505050506040513d601f19601f82011682018060405250810190610fbe9190612363565b508c73ffffffffffffffffffffffffffffffffffffffff166323b872dd3330886040518463ffffffff1660e01b8152600401610ffc939291906122f9565b6020604051808303815f875af1158015611018573d5f5f3e3d5ffd5b505050506040513d601f19601f8201168201806040525081019061103c9190612363565b5061104a8e848389896115f6565b83816002015f82825461105d9190611eb9565b9250508190555083816003015f8a73ffffffffffffffffffffffffffffffffffffffff1673ffffffffffffffffffffffffffffffffffffffff1681526020019081526020015f205f8282546110b29190611eb9565b925050819055505050506110c4611341565b985098509895505050505050565b60025f540361110d576040517f3ee5aeb500000000000000000000000000000000000000000000000000000000815260040160405180910390fd5b60025f81905550565b5f8173ffffffffffffffffffffffffffffffffffffffff168373ffffffffffffffffffffffffffffffffffffffff161061117857818360405160200161115d9291906127ae565b604051602081830303815290604052805190602001206111a2565b828260405160200161118b9291906127ae565b604051602081830303815290604052805190602001205b905092915050565b5f5f5f5f8573ffffffffffffffffffffffffffffffffffffffff168773ffffffffffffffffffffffffffffffffffffffff1610156111ed578691508590506111f4565b8591508690505b8173ffffffffffffffffffffffffffffffffffffffff168773ffffffffffffffffffffffffffffffffffffffff160361123957845f0154935084600101549250611247565b84600101549350845f015492505b5050935093915050565b5f5f8573ffffffffffffffffffffffffffffffffffffffff168773ffffffffffffffffffffffffffffffffffffffff16101561129257869150859050611299565b8591508690505b8173ffffffffffffffffffffffffffffffffffffffff168773ffffffffffffffffffffffffffffffffffffffff16036113045783855f015f8282546112de9190611eb9565b9250508190555082856001015f8282546112f89190612736565b92505081905550611338565b83856001015f8282546113179190611eb9565b9250508190555082855f015f8282546113309190612736565b925050819055505b50505050505050565b60015f81905550565b5f5f8273ffffffffffffffffffffffffffffffffffffffff168473ffffffffffffffffffffffffffffffffffffffff16036113ba576040517f08c379a00000000000000000000000000000000000000000000000000000000081526004016113b190612849565b60405180910390fd5b8273ffffffffffffffffffffffffffffffffffffffff168473ffffffffffffffffffffffffffffffffffffffff16106113f45782846113f7565b83835b915091509250929050565b5f5f5f5f5f6114128c8c8861169c565b915091505f86600201540361148f578994508893505f8511801561143557505f84115b611474576040517f08c379a000000000000000000000000000000000000000000000000000000000815260040161146b906128d7565b60405180910390fd5b61148884866114839190611eec565b6116f9565b92506115a5565b5f82828c61149d9190611eec565b6114a79190611f5a565b90508981116114fe57878110156114f3576040517f08c379a00000000000000000000000000000000000000000000000000000000081526004016114ea90612965565b60405180910390fd5b8a9550809450611563565b5f82848c61150c9190611eec565b6115169190611f5a565b90508981101561155b576040517f08c379a0000000000000000000000000000000000000000000000000000000008152600401611552906129f3565b60405180910390fd5b8096508a9550505b6115a1838860020154886115779190611eec565b6115819190611f5a565b838960020154886115929190611eec565b61159c9190611f5a565b611893565b9350505b5f83116115e7576040517f08c379a00000000000000000000000000000000000000000000000000000000081526004016115de90612a81565b60405180910390fd5b50509750975097945050505050565b8373ffffffffffffffffffffffffffffffffffffffff168573ffffffffffffffffffffffffffffffffffffffff16036116615781835f015f82825461163b9190611eb9565b9250508190555080836001015f8282546116559190611eb9565b92505081905550611695565b80835f015f8282546116739190611eb9565b9250508190555081836001015f82825461168d9190611eb9565b925050819055505b5050505050565b5f5f8373ffffffffffffffffffffffffffffffffffffffff168573ffffffffffffffffffffffffffffffffffffffff16036116e357825f01549150826001015490506116f1565b82600101549150825f015490505b935093915050565b5f6001821161170a5781905061188e565b5f8290505f60019050700100000000000000000000000000000000821061173a57608082901c9150604081901b90505b68010000000000000000821061175957604082901c9150602081901b90505b640100000000821061177457602082901c9150601081901b90505b62010000821061178d57601082901c9150600881901b90505b61010082106117a557600882901c9150600481901b90505b601082106117bc57600482901c9150600281901b90505b600482106117cc57600181901b90505b600181600302901c905060018185816117e8576117e7611f2d565b5b048201901c9050600181858161180157611800611f2d565b5b048201901c9050600181858161181a57611819611f2d565b5b048201901c9050600181858161183357611832611f2d565b5b048201901c9050600181858161184c5761184b611f2d565b5b048201901c9050600181858161186557611864611f2d565b5b048201901c905061188781858161187f5761187e611f2d565b5b0482116118a9565b8103925050505b919050565b5f6118a182841084846118b4565b905092915050565b5f8115159050919050565b5f6118be846118a9565b82841802821890509392505050565b5f5ffd5b5f5ffd5b5f819050919050565b6118e7816118d5565b81146118f1575f5ffd5b50565b5f81359050611902816118de565b92915050565b5f5f5f6060848603121561191f5761191e6118cd565b5b5f61192c868287016118f4565b935050602061193d868287016118f4565b925050604061194e868287016118f4565b9150509250925092565b611961816118d5565b82525050565b5f60208201905061197a5f830184611958565b92915050565b5f5ffd5b5f5ffd5b5f5ffd5b5f5f83601f8401126119a1576119a0611980565b5b8235905067ffffffffffffffff8111156119be576119bd611984565b5b6020830191508360208202830111156119da576119d9611988565b5b9250929050565b5f73ffffffffffffffffffffffffffffffffffffffff82169050919050565b5f611a0a826119e1565b9050919050565b611a1a81611a00565b8114611a24575f5ffd5b50565b5f81359050611a3581611a11565b92915050565b5f5f5f5f5f5f60a08789031215611a5557611a546118cd565b5b5f611a6289828a016118f4565b9650506020611a7389828a016118f4565b955050604087013567ffffffffffffffff811115611a9457611a936118d1565b5b611aa089828a0161198c565b94509450506060611ab389828a01611a27565b9250506080611ac489828a016118f4565b9150509295509295509295565b5f81519050919050565b5f82825260208201905092915050565b5f819050602082019050919050565b611b03816118d5565b82525050565b5f611b148383611afa565b60208301905092915050565b5f602082019050919050565b5f611b3682611ad1565b611b408185611adb565b9350611b4b83611aeb565b805f5b83811015611b7b578151611b628882611b09565b9750611b6d83611b20565b925050600181019050611b4e565b5085935050505092915050565b5f6020820190508181035f830152611ba08184611b2c565b905092915050565b5f5f60408385031215611bbe57611bbd6118cd565b5b5f611bcb85828601611a27565b9250506020611bdc85828601611a27565b9150509250929050565b5f819050919050565b611bf881611be6565b8114611c02575f5ffd5b50565b5f81359050611c1381611bef565b92915050565b5f60208284031215611c2e57611c2d6118cd565b5b5f611c3b84828501611c05565b91505092915050565b5f606082019050611c575f830186611958565b611c646020830185611958565b611c716040830184611958565b949350505050565b5f5f5f5f5f5f5f60e0888a031215611c9457611c936118cd565b5b5f611ca18a828b01611a27565b9750506020611cb28a828b01611a27565b9650506040611cc38a828b016118f4565b9550506060611cd48a828b016118f4565b9450506080611ce58a828b016118f4565b93505060a0611cf68a828b01611a27565b92505060c0611d078a828b016118f4565b91505092959891949750929550565b5f604082019050611d295f830185611958565b611d366020830184611958565b9392505050565b5f5f5f5f5f5f5f5f610100898b031215611d5a57611d596118cd565b5b5f611d678b828c01611a27565b9850506020611d788b828c01611a27565b9750506040611d898b828c016118f4565b9650506060611d9a8b828c016118f4565b9550506080611dab8b828c016118f4565b94505060a0611dbc8b828c016118f4565b93505060c0611dcd8b828c01611a27565b92505060e0611dde8b828c016118f4565b9150509295985092959890939650565b5f82825260208201905092915050565b7f53696d706c65537761703a204461746f7320696e76616c69646f7320706172615f8201527f2063616c63756c6f2064652063616e74696461642064652073616c6964610000602082015250565b5f611e58603e83611dee565b9150611e6382611dfe565b604082019050919050565b5f6020820190508181035f830152611e8581611e4c565b9050919050565b7f4e487b71000000000000000000000000000000000000000000000000000000005f52601160045260245ffd5b5f611ec3826118d5565b9150611ece836118d5565b9250828201905080821115611ee657611ee5611e8c565b5b92915050565b5f611ef6826118d5565b9150611f01836118d5565b9250828202611f0f816118d5565b91508282048414831517611f2657611f25611e8c565b5b5092915050565b7f4e487b71000000000000000000000000000000000000000000000000000000005f52601260045260245ffd5b5f611f64826118d5565b9150611f6f836118d5565b925082611f7f57611f7e611f2d565b5b828204905092915050565b7f53696d706c65537761703a205472616e73616363696f6e2065787069726164615f82015250565b5f611fbe602083611dee565b9150611fc982611f8a565b602082019050919050565b5f6020820190508181035f830152611feb81611fb2565b9050919050565b7f53696d706c65537761703a20536f6c6f207365207065726d697465203120686f5f8201527f70202872757461206465203220746f6b656e7329000000000000000000000000602082015250565b5f61204c603483611dee565b915061205782611ff2565b604082019050919050565b5f6020820190508181035f83015261207981612040565b9050919050565b7f53696d706c65537761703a20446972656363696f6e2027746f2720696e76616c5f8201527f6964610000000000000000000000000000000000000000000000000000000000602082015250565b5f6120da602383611dee565b91506120e582612080565b604082019050919050565b5f6020820190508181035f830152612107816120ce565b9050919050565b7f53696d706c65537761703a2043616e746964616420646520656e7472616461205f8201527f6465626520736572203e20300000000000000000000000000000000000000000602082015250565b5f612168602c83611dee565b91506121738261210e565b604082019050919050565b5f6020820190508181035f8301526121958161215c565b9050919050565b7f4e487b71000000000000000000000000000000000000000000000000000000005f52603260045260245ffd5b5f602082840312156121de576121dd6118cd565b5b5f6121eb84828501611a27565b91505092915050565b7f53696d706c65537761703a20506f6f6c20766163696f206f2073696e206c69715f8201527f756964657a000000000000000000000000000000000000000000000000000000602082015250565b5f61224e602583611dee565b9150612259826121f4565b604082019050919050565b5f6020820190508181035f83015261227b81612242565b9050919050565b7f53696d706c65537761703a20536c69707061676520657863657369766f0000005f82015250565b5f6122b6601d83611dee565b91506122c182612282565b602082019050919050565b5f6020820190508181035f8301526122e3816122aa565b9050919050565b6122f381611a00565b82525050565b5f60608201905061230c5f8301866122ea565b61231960208301856122ea565b6123266040830184611958565b949350505050565b5f8115159050919050565b6123428161232e565b811461234c575f5ffd5b50565b5f8151905061235d81612339565b92915050565b5f60208284031215612378576123776118cd565b5b5f6123858482850161234f565b91505092915050565b5f6040820190506123a15f8301856122ea565b6123ae6020830184611958565b9392505050565b7f4e487b71000000000000000000000000000000000000000000000000000000005f52604160045260245ffd5b7f53696d706c65537761703a20446972656363696f6e657320646520746f6b656e5f8201527f20696e76616c6964617300000000000000000000000000000000000000000000602082015250565b5f61243c602a83611dee565b9150612447826123e2565b604082019050919050565b5f6020820190508181035f83015261246981612430565b9050919050565b7f53696d706c65537761703a204c6971756964657a20612072656d6f76657220645f8201527f65626520736572203e2030000000000000000000000000000000000000000000602082015250565b5f6124ca602b83611dee565b91506124d582612470565b604082019050919050565b5f6020820190508181035f8301526124f7816124be565b9050919050565b7f53696d706c65537761703a204c6971756964657a20696e737566696369656e745f8201527f652064656c207573756172696f00000000000000000000000000000000000000602082015250565b5f612558602d83611dee565b9150612563826124fe565b604082019050919050565b5f6020820190508181035f8301526125858161254c565b9050919050565b7f53696d706c65537761703a20506f6f6c206465206c6971756964657a207661635f8201527f696f000000000000000000000000000000000000000000000000000000000000602082015250565b5f6125e6602283611dee565b91506125f18261258c565b604082019050919050565b5f6020820190508181035f830152612613816125da565b9050919050565b7f53696d706c65537761703a20536c69707061676520657863657369766f20656e5f8201527f20546f6b656e204120616c2072656d6f76657200000000000000000000000000602082015250565b5f612674603383611dee565b915061267f8261261a565b604082019050919050565b5f6020820190508181035f8301526126a181612668565b9050919050565b7f53696d706c65537761703a20536c69707061676520657863657369766f20656e5f8201527f20546f6b656e204220616c2072656d6f76657200000000000000000000000000602082015250565b5f612702603383611dee565b915061270d826126a8565b604082019050919050565b5f6020820190508181035f83015261272f816126f6565b9050919050565b5f612740826118d5565b915061274b836118d5565b925082820390508181111561276357612762611e8c565b5b92915050565b5f8160601b9050919050565b5f61277f82612769565b9050919050565b5f61279082612775565b9050919050565b6127a86127a382611a00565b612786565b82525050565b5f6127b98285612797565b6014820191506127c98284612797565b6014820191508190509392505050565b7f53696d706c65537761703a20546f6b656e7320646562656e20736572206469665f8201527f6572656e74657300000000000000000000000000000000000000000000000000602082015250565b5f612833602783611dee565b915061283e826127d9565b604082019050919050565b5f6020820190508181035f83015261286081612827565b9050919050565b7f53696d706c65537761703a2043616e7469646164657320696e696369616c65735f8201527f20646562656e20736572203e2030000000000000000000000000000000000000602082015250565b5f6128c1602e83611dee565b91506128cc82612867565b604082019050919050565b5f6020820190508181035f8301526128ee816128b5565b9050919050565b7f53696d706c65537761703a20536c69707061676520657863657369766f20656e5f8201527f20546f6b656e2042000000000000000000000000000000000000000000000000602082015250565b5f61294f602883611dee565b915061295a826128f5565b604082019050919050565b5f6020820190508181035f83015261297c81612943565b9050919050565b7f53696d706c65537761703a20536c69707061676520657863657369766f20656e5f8201527f20546f6b656e2041000000000000000000000000000000000000000000000000602082015250565b5f6129dd602883611dee565b91506129e882612983565b604082019050919050565b5f6020820190508181035f830152612a0a816129d1565b9050919050565b7f53696d706c65537761703a204c6971756964657a20656d6974696461206465625f8201527f6520736572203e20300000000000000000000000000000000000000000000000602082015250565b5f612a6b602983611dee565b9150612a7682612a11565b604082019050919050565b5f6020820190508181035f830152612a9881612a5f565b905091905056fea26469706673582212209bcbc8222104e222b5326cb65f9a79aad32ab853f141a85e60f7e78643ed7e8664736f6c634300081e0033",
			"opcodes": "PUSH1 0x80 PUSH1 0x40 MSTORE CALLVALUE DUP1 ISZERO PUSH1 0xE JUMPI PUSH0 PUSH0 REVERT JUMPDEST POP PUSH1 0x1 PUSH0 DUP2 SWAP1 SSTORE POP PUSH2 0x2AD5 DUP1 PUSH2 0x23 PUSH0 CODECOPY PUSH0 RETURN INVALID PUSH1 0x80 PUSH1 0x40 MSTORE CALLVALUE DUP1 ISZERO PUSH2 0xF JUMPI PUSH0 PUSH0 REVERT JUMPDEST POP PUSH1 0x4 CALLDATASIZE LT PUSH2 0x60 JUMPI PUSH0 CALLDATALOAD PUSH1 0xE0 SHR DUP1 PUSH4 0x54D50D4 EQ PUSH2 0x64 JUMPI DUP1 PUSH4 0x38ED1739 EQ PUSH2 0x94 JUMPI DUP1 PUSH4 0xAC41865A EQ PUSH2 0xC4 JUMPI DUP1 PUSH4 0xB5217BB4 EQ PUSH2 0xF4 JUMPI DUP1 PUSH4 0xBAA2ABDE EQ PUSH2 0x126 JUMPI DUP1 PUSH4 0xE8E33700 EQ PUSH2 0x157 JUMPI JUMPDEST PUSH0 PUSH0 REVERT JUMPDEST PUSH2 0x7E PUSH1 0x4 DUP1 CALLDATASIZE SUB DUP2 ADD SWAP1 PUSH2 0x79 SWAP2 SWAP1 PUSH2 0x1908 JUMP JUMPDEST PUSH2 0x189 JUMP JUMPDEST PUSH1 0x40 MLOAD PUSH2 0x8B SWAP2 SWAP1 PUSH2 0x1967 JUMP JUMPDEST PUSH1 0x40 MLOAD DUP1 SWAP2 SUB SWAP1 RETURN JUMPDEST PUSH2 0xAE PUSH1 0x4 DUP1 CALLDATASIZE SUB DUP2 ADD SWAP1 PUSH2 0xA9 SWAP2 SWAP1 PUSH2 0x1A3B JUMP JUMPDEST PUSH2 0x20D JUMP JUMPDEST PUSH1 0x40 MLOAD PUSH2 0xBB SWAP2 SWAP1 PUSH2 0x1B88 JUMP JUMPDEST PUSH1 0x40 MLOAD DUP1 SWAP2 SUB SWAP1 RETURN JUMPDEST PUSH2 0xDE PUSH1 0x4 DUP1 CALLDATASIZE SUB DUP2 ADD SWAP1 PUSH2 0xD9 SWAP2 SWAP1 PUSH2 0x1BA8 JUMP JUMPDEST PUSH2 0x707 JUMP JUMPDEST PUSH1 0x40 MLOAD PUSH2 0xEB SWAP2 SWAP1 PUSH2 0x1967 JUMP JUMPDEST PUSH1 0x40 MLOAD DUP1 SWAP2 SUB SWAP1 RETURN JUMPDEST PUSH2 0x10E PUSH1 0x4 DUP1 CALLDATASIZE SUB DUP2 ADD SWAP1 PUSH2 0x109 SWAP2 SWAP1 PUSH2 0x1C19 JUMP JUMPDEST PUSH2 0x8B8 JUMP JUMPDEST PUSH1 0x40 MLOAD PUSH2 0x11D SWAP4 SWAP3 SWAP2 SWAP1 PUSH2 0x1C44 JUMP JUMPDEST PUSH1 0x40 MLOAD DUP1 SWAP2 SUB SWAP1 RETURN JUMPDEST PUSH2 0x140 PUSH1 0x4 DUP1 CALLDATASIZE SUB DUP2 ADD SWAP1 PUSH2 0x13B SWAP2 SWAP1 PUSH2 0x1C79 JUMP JUMPDEST PUSH2 0x8DE JUMP JUMPDEST PUSH1 0x40 MLOAD PUSH2 0x14E SWAP3 SWAP2 SWAP1 PUSH2 0x1D16 JUMP JUMPDEST PUSH1 0x40 MLOAD DUP1 SWAP2 SUB SWAP1 RETURN JUMPDEST PUSH2 0x171 PUSH1 0x4 DUP1 CALLDATASIZE SUB DUP2 ADD SWAP1 PUSH2 0x16C SWAP2 SWAP1 PUSH2 0x1D3D JUMP JUMPDEST PUSH2 0xE3B JUMP JUMPDEST PUSH1 0x40 MLOAD PUSH2 0x180 SWAP4 SWAP3 SWAP2 SWAP1 PUSH2 0x1C44 JUMP JUMPDEST PUSH1 0x40 MLOAD DUP1 SWAP2 SUB SWAP1 RETURN JUMPDEST PUSH0 PUSH0 DUP5 GT DUP1 ISZERO PUSH2 0x198 JUMPI POP PUSH0 DUP4 GT JUMPDEST DUP1 ISZERO PUSH2 0x1A3 JUMPI POP PUSH0 DUP3 GT JUMPDEST PUSH2 0x1E2 JUMPI PUSH1 0x40 MLOAD PUSH32 0x8C379A000000000000000000000000000000000000000000000000000000000 DUP2 MSTORE PUSH1 0x4 ADD PUSH2 0x1D9 SWAP1 PUSH2 0x1E6E JUMP JUMPDEST PUSH1 0x40 MLOAD DUP1 SWAP2 SUB SWAP1 REVERT JUMPDEST DUP4 DUP4 PUSH2 0x1EE SWAP2 SWAP1 PUSH2 0x1EB9 JUMP JUMPDEST DUP3 DUP6 PUSH2 0x1FA SWAP2 SWAP1 PUSH2 0x1EEC JUMP JUMPDEST PUSH2 0x204 SWAP2 SWAP1 PUSH2 0x1F5A JUMP JUMPDEST SWAP1 POP SWAP4 SWAP3 POP POP POP JUMP JUMPDEST PUSH1 0x60 PUSH2 0x217 PUSH2 0x10D2 JUMP JUMPDEST DUP2 TIMESTAMP GT ISZERO PUSH2 0x25A JUMPI PUSH1 0x40 MLOAD PUSH32 0x8C379A000000000000000000000000000000000000000000000000000000000 DUP2 MSTORE PUSH1 0x4 ADD PUSH2 0x251 SWAP1 PUSH2 0x1FD4 JUMP JUMPDEST PUSH1 0x40 MLOAD DUP1 SWAP2 SUB SWAP1 REVERT JUMPDEST PUSH1 0x2 DUP6 DUP6 SWAP1 POP EQ PUSH2 0x2A0 JUMPI PUSH1 0x40 MLOAD PUSH32 0x8C379A000000000000000000000000000000000000000000000000000000000 DUP2 MSTORE PUSH1 0x4 ADD PUSH2 0x297 SWAP1 PUSH2 0x2062 JUMP JUMPDEST PUSH1 0x40 MLOAD DUP1 SWAP2 SUB SWAP1 REVERT JUMPDEST PUSH0 PUSH20 0xFFFFFFFFFFFFFFFFFFFFFFFFFFFFFFFFFFFFFFFF AND DUP4 PUSH20 0xFFFFFFFFFFFFFFFFFFFFFFFFFFFFFFFFFFFFFFFF AND SUB PUSH2 0x30E JUMPI PUSH1 0x40 MLOAD PUSH32 0x8C379A000000000000000000000000000000000000000000000000000000000 DUP2 MSTORE PUSH1 0x4 ADD PUSH2 0x305 SWAP1 PUSH2 0x20F0 JUMP JUMPDEST PUSH1 0x40 MLOAD DUP1 SWAP2 SUB SWAP1 REVERT JUMPDEST PUSH0 DUP8 GT PUSH2 0x350 JUMPI PUSH1 0x40 MLOAD PUSH32 0x8C379A000000000000000000000000000000000000000000000000000000000 DUP2 MSTORE PUSH1 0x4 ADD PUSH2 0x347 SWAP1 PUSH2 0x217E JUMP JUMPDEST PUSH1 0x40 MLOAD DUP1 SWAP2 SUB SWAP1 REVERT JUMPDEST PUSH0 PUSH2 0x3AA DUP7 DUP7 PUSH0 DUP2 DUP2 LT PUSH2 0x367 JUMPI PUSH2 0x366 PUSH2 0x219C JUMP JUMPDEST JUMPDEST SWAP1 POP PUSH1 0x20 MUL ADD PUSH1 0x20 DUP2 ADD SWAP1 PUSH2 0x37C SWAP2 SWAP1 PUSH2 0x21C9 JUMP JUMPDEST DUP8 DUP8 PUSH1 0x1 DUP2 DUP2 LT PUSH2 0x390 JUMPI PUSH2 0x38F PUSH2 0x219C JUMP JUMPDEST JUMPDEST SWAP1 POP PUSH1 0x20 MUL ADD PUSH1 0x20 DUP2 ADD SWAP1 PUSH2 0x3A5 SWAP2 SWAP1 PUSH2 0x21C9 JUMP JUMPDEST PUSH2 0x1116 JUMP JUMPDEST SWAP1 POP PUSH0 PUSH1 0x1 PUSH0 DUP4 DUP2 MSTORE PUSH1 0x20 ADD SWAP1 DUP2 MSTORE PUSH1 0x20 ADD PUSH0 KECCAK256 SWAP1 POP PUSH0 PUSH0 PUSH2 0x41C DUP10 DUP10 PUSH0 DUP2 DUP2 LT PUSH2 0x3D8 JUMPI PUSH2 0x3D7 PUSH2 0x219C JUMP JUMPDEST JUMPDEST SWAP1 POP PUSH1 0x20 MUL ADD PUSH1 0x20 DUP2 ADD SWAP1 PUSH2 0x3ED SWAP2 SWAP1 PUSH2 0x21C9 JUMP JUMPDEST DUP11 DUP11 PUSH1 0x1 DUP2 DUP2 LT PUSH2 0x401 JUMPI PUSH2 0x400 PUSH2 0x219C JUMP JUMPDEST JUMPDEST SWAP1 POP PUSH1 0x20 MUL ADD PUSH1 0x20 DUP2 ADD SWAP1 PUSH2 0x416 SWAP2 SWAP1 PUSH2 0x21C9 JUMP JUMPDEST DUP6 PUSH2 0x11AA JUMP JUMPDEST SWAP2 POP SWAP2 POP PUSH0 DUP3 GT DUP1 ISZERO PUSH2 0x42E JUMPI POP PUSH0 DUP2 GT JUMPDEST PUSH2 0x46D JUMPI PUSH1 0x40 MLOAD PUSH32 0x8C379A000000000000000000000000000000000000000000000000000000000 DUP2 MSTORE PUSH1 0x4 ADD PUSH2 0x464 SWAP1 PUSH2 0x2264 JUMP JUMPDEST PUSH1 0x40 MLOAD DUP1 SWAP2 SUB SWAP1 REVERT JUMPDEST PUSH0 PUSH2 0x479 DUP13 DUP5 DUP5 PUSH2 0x189 JUMP JUMPDEST SWAP1 POP DUP11 DUP2 LT ISZERO PUSH2 0x4BE JUMPI PUSH1 0x40 MLOAD PUSH32 0x8C379A000000000000000000000000000000000000000000000000000000000 DUP2 MSTORE PUSH1 0x4 ADD PUSH2 0x4B5 SWAP1 PUSH2 0x22CC JUMP JUMPDEST PUSH1 0x40 MLOAD DUP1 SWAP2 SUB SWAP1 REVERT JUMPDEST DUP10 DUP10 PUSH0 DUP2 DUP2 LT PUSH2 0x4D1 JUMPI PUSH2 0x4D0 PUSH2 0x219C JUMP JUMPDEST JUMPDEST SWAP1 POP PUSH1 0x20 MUL ADD PUSH1 0x20 DUP2 ADD SWAP1 PUSH2 0x4E6 SWAP2 SWAP1 PUSH2 0x21C9 JUMP JUMPDEST PUSH20 0xFFFFFFFFFFFFFFFFFFFFFFFFFFFFFFFFFFFFFFFF AND PUSH4 0x23B872DD CALLER ADDRESS DUP16 PUSH1 0x40 MLOAD DUP5 PUSH4 0xFFFFFFFF AND PUSH1 0xE0 SHL DUP2 MSTORE PUSH1 0x4 ADD PUSH2 0x522 SWAP4 SWAP3 SWAP2 SWAP1 PUSH2 0x22F9 JUMP JUMPDEST PUSH1 0x20 PUSH1 0x40 MLOAD DUP1 DUP4 SUB DUP2 PUSH0 DUP8 GAS CALL ISZERO DUP1 ISZERO PUSH2 0x53E JUMPI RETURNDATASIZE PUSH0 PUSH0 RETURNDATACOPY RETURNDATASIZE PUSH0 REVERT JUMPDEST POP POP POP POP PUSH1 0x40 MLOAD RETURNDATASIZE PUSH1 0x1F NOT PUSH1 0x1F DUP3 ADD AND DUP3 ADD DUP1 PUSH1 0x40 MSTORE POP DUP2 ADD SWAP1 PUSH2 0x562 SWAP2 SWAP1 PUSH2 0x2363 JUMP JUMPDEST POP DUP10 DUP10 PUSH1 0x1 DUP2 DUP2 LT PUSH2 0x577 JUMPI PUSH2 0x576 PUSH2 0x219C JUMP JUMPDEST JUMPDEST SWAP1 POP PUSH1 0x20 MUL ADD PUSH1 0x20 DUP2 ADD SWAP1 PUSH2 0x58C SWAP2 SWAP1 PUSH2 0x21C9 JUMP JUMPDEST PUSH20 0xFFFFFFFFFFFFFFFFFFFFFFFFFFFFFFFFFFFFFFFF AND PUSH4 0xA9059CBB DUP10 DUP4 PUSH1 0x40 MLOAD DUP4 PUSH4 0xFFFFFFFF AND PUSH1 0xE0 SHL DUP2 MSTORE PUSH1 0x4 ADD PUSH2 0x5C6 SWAP3 SWAP2 SWAP1 PUSH2 0x238E JUMP JUMPDEST PUSH1 0x20 PUSH1 0x40 MLOAD DUP1 DUP4 SUB DUP2 PUSH0 DUP8 GAS CALL ISZERO DUP1 ISZERO PUSH2 0x5E2 JUMPI RETURNDATASIZE PUSH0 PUSH0 RETURNDATACOPY RETURNDATASIZE PUSH0 REVERT JUMPDEST POP POP POP POP PUSH1 0x40 MLOAD RETURNDATASIZE PUSH1 0x1F NOT PUSH1 0x1F DUP3 ADD AND DUP3 ADD DUP1 PUSH1 0x40 MSTORE POP DUP2 ADD SWAP1 PUSH2 0x606 SWAP2 SWAP1 PUSH2 0x2363 JUMP JUMPDEST POP PUSH2 0x663 DUP11 DUP11 PUSH0 DUP2 DUP2 LT PUSH2 0x61D JUMPI PUSH2 0x61C PUSH2 0x219C JUMP JUMPDEST JUMPDEST SWAP1 POP PUSH1 0x20 MUL ADD PUSH1 0x20 DUP2 ADD SWAP1 PUSH2 0x632 SWAP2 SWAP1 PUSH2 0x21C9 JUMP JUMPDEST DUP12 DUP12 PUSH1 0x1 DUP2 DUP2 LT PUSH2 0x646 JUMPI PUSH2 0x645 PUSH2 0x219C JUMP JUMPDEST JUMPDEST SWAP1 POP PUSH1 0x20 MUL ADD PUSH1 0x20 DUP2 ADD SWAP1 PUSH2 0x65B SWAP2 SWAP1 PUSH2 0x21C9 JUMP JUMPDEST DUP7 DUP16 DUP6 PUSH2 0x1251 JUMP JUMPDEST PUSH1 0x2 PUSH8 0xFFFFFFFFFFFFFFFF DUP2 GT ISZERO PUSH2 0x67E JUMPI PUSH2 0x67D PUSH2 0x23B5 JUMP JUMPDEST JUMPDEST PUSH1 0x40 MLOAD SWAP1 DUP1 DUP3 MSTORE DUP1 PUSH1 0x20 MUL PUSH1 0x20 ADD DUP3 ADD PUSH1 0x40 MSTORE DUP1 ISZERO PUSH2 0x6AC JUMPI DUP2 PUSH1 0x20 ADD PUSH1 0x20 DUP3 MUL DUP1 CALLDATASIZE DUP4 CALLDATACOPY DUP1 DUP3 ADD SWAP2 POP POP SWAP1 POP JUMPDEST POP SWAP6 POP DUP12 DUP7 PUSH0 DUP2 MLOAD DUP2 LT PUSH2 0x6C3 JUMPI PUSH2 0x6C2 PUSH2 0x219C JUMP JUMPDEST JUMPDEST PUSH1 0x20 MUL PUSH1 0x20 ADD ADD DUP2 DUP2 MSTORE POP POP DUP1 DUP7 PUSH1 0x1 DUP2 MLOAD DUP2 LT PUSH2 0x6E4 JUMPI PUSH2 0x6E3 PUSH2 0x219C JUMP JUMPDEST JUMPDEST PUSH1 0x20 MUL PUSH1 0x20 ADD ADD DUP2 DUP2 MSTORE POP POP POP POP POP POP POP PUSH2 0x6FD PUSH2 0x1341 JUMP JUMPDEST SWAP7 SWAP6 POP POP POP POP POP POP JUMP JUMPDEST PUSH0 PUSH0 PUSH20 0xFFFFFFFFFFFFFFFFFFFFFFFFFFFFFFFFFFFFFFFF AND DUP4 PUSH20 0xFFFFFFFFFFFFFFFFFFFFFFFFFFFFFFFFFFFFFFFF AND EQ ISZERO DUP1 ISZERO PUSH2 0x770 JUMPI POP PUSH0 PUSH20 0xFFFFFFFFFFFFFFFFFFFFFFFFFFFFFFFFFFFFFFFF AND DUP3 PUSH20 0xFFFFFFFFFFFFFFFFFFFFFFFFFFFFFFFFFFFFFFFF AND EQ ISZERO JUMPDEST PUSH2 0x7AF JUMPI PUSH1 0x40 MLOAD PUSH32 0x8C379A000000000000000000000000000000000000000000000000000000000 DUP2 MSTORE PUSH1 0x4 ADD PUSH2 0x7A6 SWAP1 PUSH2 0x2452 JUMP JUMPDEST PUSH1 0x40 MLOAD DUP1 SWAP2 SUB SWAP1 REVERT JUMPDEST PUSH0 PUSH2 0x7BA DUP5 DUP5 PUSH2 0x1116 JUMP JUMPDEST SWAP1 POP PUSH0 PUSH1 0x1 PUSH0 DUP4 DUP2 MSTORE PUSH1 0x20 ADD SWAP1 DUP2 MSTORE PUSH1 0x20 ADD PUSH0 KECCAK256 SWAP1 POP PUSH0 DUP2 PUSH0 ADD SLOAD GT DUP1 ISZERO PUSH2 0x7E5 JUMPI POP PUSH0 DUP2 PUSH1 0x1 ADD SLOAD GT JUMPDEST PUSH2 0x824 JUMPI PUSH1 0x40 MLOAD PUSH32 0x8C379A000000000000000000000000000000000000000000000000000000000 DUP2 MSTORE PUSH1 0x4 ADD PUSH2 0x81B SWAP1 PUSH2 0x2264 JUMP JUMPDEST PUSH1 0x40 MLOAD DUP1 SWAP2 SUB SWAP1 REVERT JUMPDEST DUP4 PUSH20 0xFFFFFFFFFFFFFFFFFFFFFFFFFFFFFFFFFFFFFFFF AND DUP6 PUSH20 0xFFFFFFFFFFFFFFFFFFFFFFFFFFFFFFFFFFFFFFFF AND LT ISZERO PUSH2 0x887 JUMPI DUP1 PUSH0 ADD SLOAD PUSH8 0xDE0B6B3A7640000 DUP3 PUSH1 0x1 ADD SLOAD PUSH2 0x874 SWAP2 SWAP1 PUSH2 0x1EEC JUMP JUMPDEST PUSH2 0x87E SWAP2 SWAP1 PUSH2 0x1F5A JUMP JUMPDEST SWAP3 POP POP POP PUSH2 0x8B2 JUMP JUMPDEST DUP1 PUSH1 0x1 ADD SLOAD PUSH8 0xDE0B6B3A7640000 DUP3 PUSH0 ADD SLOAD PUSH2 0x8A3 SWAP2 SWAP1 PUSH2 0x1EEC JUMP JUMPDEST PUSH2 0x8AD SWAP2 SWAP1 PUSH2 0x1F5A JUMP JUMPDEST SWAP3 POP POP POP JUMPDEST SWAP3 SWAP2 POP POP JUMP JUMPDEST PUSH1 0x1 PUSH1 0x20 MSTORE DUP1 PUSH0 MSTORE PUSH1 0x40 PUSH0 KECCAK256 PUSH0 SWAP2 POP SWAP1 POP DUP1 PUSH0 ADD SLOAD SWAP1 DUP1 PUSH1 0x1 ADD SLOAD SWAP1 DUP1 PUSH1 0x2 ADD SLOAD SWAP1 POP DUP4 JUMP JUMPDEST PUSH0 PUSH0 PUSH2 0x8E8 PUSH2 0x10D2 JUMP JUMPDEST DUP3 TIMESTAMP GT ISZERO PUSH2 0x92B JUMPI PUSH1 0x40 MLOAD PUSH32 0x8C379A000000000000000000000000000000000000000000000000000000000 DUP2 MSTORE PUSH1 0x4 ADD PUSH2 0x922 SWAP1 PUSH2 0x1FD4 JUMP JUMPDEST PUSH1 0x40 MLOAD DUP1 SWAP2 SUB SWAP1 REVERT JUMPDEST PUSH0 PUSH20 0xFFFFFFFFFFFFFFFFFFFFFFFFFFFFFFFFFFFFFFFF AND DUP5 PUSH20 0xFFFFFFFFFFFFFFFFFFFFFFFFFFFFFFFFFFFFFFFF AND SUB PUSH2 0x999 JUMPI PUSH1 0x40 MLOAD PUSH32 0x8C379A000000000000000000000000000000000000000000000000000000000 DUP2 MSTORE PUSH1 0x4 ADD PUSH2 0x990 SWAP1 PUSH2 0x20F0 JUMP JUMPDEST PUSH1 0x40 MLOAD DUP1 SWAP2 SUB SWAP1 REVERT JUMPDEST PUSH0 DUP8 GT PUSH2 0x9DB JUMPI PUSH1 0x40 MLOAD PUSH32 0x8C379A000000000000000000000000000000000000000000000000000000000 DUP2 MSTORE PUSH1 0x4 ADD PUSH2 0x9D2 SWAP1 PUSH2 0x24E0 JUMP JUMPDEST PUSH1 0x40 MLOAD DUP1 SWAP2 SUB SWAP1 REVERT JUMPDEST PUSH0 PUSH2 0x9E6 DUP11 DUP11 PUSH2 0x134A JUMP JUMPDEST POP SWAP1 POP PUSH0 PUSH2 0x9F4 DUP12 DUP12 PUSH2 0x1116 JUMP JUMPDEST SWAP1 POP PUSH0 PUSH1 0x1 PUSH0 DUP4 DUP2 MSTORE PUSH1 0x20 ADD SWAP1 DUP2 MSTORE PUSH1 0x20 ADD PUSH0 KECCAK256 SWAP1 POP DUP10 DUP2 PUSH1 0x3 ADD PUSH0 CALLER PUSH20 0xFFFFFFFFFFFFFFFFFFFFFFFFFFFFFFFFFFFFFFFF AND PUSH20 0xFFFFFFFFFFFFFFFFFFFFFFFFFFFFFFFFFFFFFFFF AND DUP2 MSTORE PUSH1 0x20 ADD SWAP1 DUP2 MSTORE PUSH1 0x20 ADD PUSH0 KECCAK256 SLOAD LT ISZERO PUSH2 0xA8C JUMPI PUSH1 0x40 MLOAD PUSH32 0x8C379A000000000000000000000000000000000000000000000000000000000 DUP2 MSTORE PUSH1 0x4 ADD PUSH2 0xA83 SWAP1 PUSH2 0x256E JUMP JUMPDEST PUSH1 0x40 MLOAD DUP1 SWAP2 SUB SWAP1 REVERT JUMPDEST PUSH0 DUP2 PUSH1 0x2 ADD SLOAD GT PUSH2 0xAD2 JUMPI PUSH1 0x40 MLOAD PUSH32 0x8C379A000000000000000000000000000000000000000000000000000000000 DUP2 MSTORE PUSH1 0x4 ADD PUSH2 0xAC9 SWAP1 PUSH2 0x25FC JUMP JUMPDEST PUSH1 0x40 MLOAD DUP1 SWAP2 SUB SWAP1 REVERT JUMPDEST PUSH0 DUP4 PUSH20 0xFFFFFFFFFFFFFFFFFFFFFFFFFFFFFFFFFFFFFFFF AND DUP14 PUSH20 0xFFFFFFFFFFFFFFFFFFFFFFFFFFFFFFFFFFFFFFFF AND EQ PUSH2 0xB10 JUMPI DUP2 PUSH1 0x1 ADD SLOAD PUSH2 0xB15 JUMP JUMPDEST DUP2 PUSH0 ADD SLOAD JUMPDEST SWAP1 POP PUSH0 DUP5 PUSH20 0xFFFFFFFFFFFFFFFFFFFFFFFFFFFFFFFFFFFFFFFF AND DUP15 PUSH20 0xFFFFFFFFFFFFFFFFFFFFFFFFFFFFFFFFFFFFFFFF AND EQ PUSH2 0xB54 JUMPI DUP3 PUSH0 ADD SLOAD PUSH2 0xB5A JUMP JUMPDEST DUP3 PUSH1 0x1 ADD SLOAD JUMPDEST SWAP1 POP DUP3 PUSH1 0x2 ADD SLOAD DUP3 DUP14 PUSH2 0xB6D SWAP2 SWAP1 PUSH2 0x1EEC JUMP JUMPDEST PUSH2 0xB77 SWAP2 SWAP1 PUSH2 0x1F5A JUMP JUMPDEST SWAP7 POP DUP3 PUSH1 0x2 ADD SLOAD DUP2 DUP14 PUSH2 0xB8A SWAP2 SWAP1 PUSH2 0x1EEC JUMP JUMPDEST PUSH2 0xB94 SWAP2 SWAP1 PUSH2 0x1F5A JUMP JUMPDEST SWAP6 POP DUP11 DUP8 LT ISZERO PUSH2 0xBD9 JUMPI PUSH1 0x40 MLOAD PUSH32 0x8C379A000000000000000000000000000000000000000000000000000000000 DUP2 MSTORE PUSH1 0x4 ADD PUSH2 0xBD0 SWAP1 PUSH2 0x268A JUMP JUMPDEST PUSH1 0x40 MLOAD DUP1 SWAP2 SUB SWAP1 REVERT JUMPDEST DUP10 DUP7 LT ISZERO PUSH2 0xC1C JUMPI PUSH1 0x40 MLOAD PUSH32 0x8C379A000000000000000000000000000000000000000000000000000000000 DUP2 MSTORE PUSH1 0x4 ADD PUSH2 0xC13 SWAP1 PUSH2 0x2718 JUMP JUMPDEST PUSH1 0x40 MLOAD DUP1 SWAP2 SUB SWAP1 REVERT JUMPDEST DUP12 DUP4 PUSH1 0x2 ADD PUSH0 DUP3 DUP3 SLOAD PUSH2 0xC2F SWAP2 SWAP1 PUSH2 0x2736 JUMP JUMPDEST SWAP3 POP POP DUP2 SWAP1 SSTORE POP DUP12 DUP4 PUSH1 0x3 ADD PUSH0 CALLER PUSH20 0xFFFFFFFFFFFFFFFFFFFFFFFFFFFFFFFFFFFFFFFF AND PUSH20 0xFFFFFFFFFFFFFFFFFFFFFFFFFFFFFFFFFFFFFFFF AND DUP2 MSTORE PUSH1 0x20 ADD SWAP1 DUP2 MSTORE PUSH1 0x20 ADD PUSH0 KECCAK256 PUSH0 DUP3 DUP3 SLOAD PUSH2 0xC84 SWAP2 SWAP1 PUSH2 0x2736 JUMP JUMPDEST SWAP3 POP POP DUP2 SWAP1 SSTORE POP DUP5 PUSH20 0xFFFFFFFFFFFFFFFFFFFFFFFFFFFFFFFFFFFFFFFF AND DUP15 PUSH20 0xFFFFFFFFFFFFFFFFFFFFFFFFFFFFFFFFFFFFFFFF AND SUB PUSH2 0xCF6 JUMPI DUP7 DUP4 PUSH0 ADD PUSH0 DUP3 DUP3 SLOAD PUSH2 0xCD0 SWAP2 SWAP1 PUSH2 0x2736 JUMP JUMPDEST SWAP3 POP POP DUP2 SWAP1 SSTORE POP DUP6 DUP4 PUSH1 0x1 ADD PUSH0 DUP3 DUP3 SLOAD PUSH2 0xCEA SWAP2 SWAP1 PUSH2 0x2736 JUMP JUMPDEST SWAP3 POP POP DUP2 SWAP1 SSTORE POP PUSH2 0xD2A JUMP JUMPDEST DUP6 DUP4 PUSH0 ADD PUSH0 DUP3 DUP3 SLOAD PUSH2 0xD08 SWAP2 SWAP1 PUSH2 0x2736 JUMP JUMPDEST SWAP3 POP POP DUP2 SWAP1 SSTORE POP DUP7 DUP4 PUSH1 0x1 ADD PUSH0 DUP3 DUP3 SLOAD PUSH2 0xD22 SWAP2 SWAP1 PUSH2 0x2736 JUMP JUMPDEST SWAP3 POP POP DUP2 SWAP1 SSTORE POP JUMPDEST DUP14 PUSH20 0xFFFFFFFFFFFFFFFFFFFFFFFFFFFFFFFFFFFFFFFF AND PUSH4 0xA9059CBB DUP11 DUP10 PUSH1 0x40 MLOAD DUP4 PUSH4 0xFFFFFFFF AND PUSH1 0xE0 SHL DUP2 MSTORE PUSH1 0x4 ADD PUSH2 0xD65 SWAP3 SWAP2 SWAP1 PUSH2 0x238E JUMP JUMPDEST PUSH1 0x20 PUSH1 0x40 MLOAD DUP1 DUP4 SUB DUP2 PUSH0 DUP8 GAS CALL ISZERO DUP1 ISZERO PUSH2 0xD81 JUMPI RETURNDATASIZE PUSH0 PUSH0 RETURNDATACOPY RETURNDATASIZE PUSH0 REVERT JUMPDEST POP POP POP POP PUSH1 0x40 MLOAD RETURNDATASIZE PUSH1 0x1F NOT PUSH1 0x1F DUP3 ADD AND DUP3 ADD DUP1 PUSH1 0x40 MSTORE POP DUP2 ADD SWAP1 PUSH2 0xDA5 SWAP2 SWAP1 PUSH2 0x2363 JUMP JUMPDEST POP DUP13 PUSH20 0xFFFFFFFFFFFFFFFFFFFFFFFFFFFFFFFFFFFFFFFF AND PUSH4 0xA9059CBB DUP11 DUP9 PUSH1 0x40 MLOAD DUP4 PUSH4 0xFFFFFFFF AND PUSH1 0xE0 SHL DUP2 MSTORE PUSH1 0x4 ADD PUSH2 0xDE1 SWAP3 SWAP2 SWAP1 PUSH2 0x238E JUMP JUMPDEST PUSH1 0x20 PUSH1 0x40 MLOAD DUP1 DUP4 SUB DUP2 PUSH0 DUP8 GAS CALL ISZERO DUP1 ISZERO PUSH2 0xDFD JUMPI RETURNDATASIZE PUSH0 PUSH0 RETURNDATACOPY RETURNDATASIZE PUSH0 REVERT JUMPDEST POP POP POP POP PUSH1 0x40 MLOAD RETURNDATASIZE PUSH1 0x1F NOT PUSH1 0x1F DUP3 ADD AND DUP3 ADD DUP1 PUSH1 0x40 MSTORE POP DUP2 ADD SWAP1 PUSH2 0xE21 SWAP2 SWAP1 PUSH2 0x2363 JUMP JUMPDEST POP POP POP POP POP POP PUSH2 0xE2F PUSH2 0x1341 JUMP JUMPDEST SWAP8 POP SWAP8 SWAP6 POP POP POP POP POP POP JUMP JUMPDEST PUSH0 PUSH0 PUSH0 PUSH2 0xE46 PUSH2 0x10D2 JUMP JUMPDEST DUP4 TIMESTAMP GT ISZERO PUSH2 0xE89 JUMPI PUSH1 0x40 MLOAD PUSH32 0x8C379A000000000000000000000000000000000000000000000000000000000 DUP2 MSTORE PUSH1 0x4 ADD PUSH2 0xE80 SWAP1 PUSH2 0x1FD4 JUMP JUMPDEST PUSH1 0x40 MLOAD DUP1 SWAP2 SUB SWAP1 REVERT JUMPDEST PUSH0 PUSH20 0xFFFFFFFFFFFFFFFFFFFFFFFFFFFFFFFFFFFFFFFF AND DUP6 PUSH20 0xFFFFFFFFFFFFFFFFFFFFFFFFFFFFFFFFFFFFFFFF AND SUB PUSH2 0xEF7 JUMPI PUSH1 0x40 MLOAD PUSH32 0x8C379A000000000000000000000000000000000000000000000000000000000 DUP2 MSTORE PUSH1 0x4 ADD PUSH2 0xEEE SWAP1 PUSH2 0x20F0 JUMP JUMPDEST PUSH1 0x40 MLOAD DUP1 SWAP2 SUB SWAP1 REVERT JUMPDEST PUSH0 PUSH2 0xF02 DUP13 DUP13 PUSH2 0x134A JUMP JUMPDEST POP SWAP1 POP PUSH0 PUSH2 0xF10 DUP14 DUP14 PUSH2 0x1116 JUMP JUMPDEST SWAP1 POP PUSH0 PUSH1 0x1 PUSH0 DUP4 DUP2 MSTORE PUSH1 0x20 ADD SWAP1 DUP2 MSTORE PUSH1 0x20 ADD PUSH0 KECCAK256 SWAP1 POP PUSH2 0xF35 DUP15 DUP5 DUP15 DUP15 DUP15 DUP15 DUP8 PUSH2 0x1402 JUMP JUMPDEST DUP1 SWAP7 POP DUP2 SWAP8 POP DUP3 SWAP9 POP POP POP POP DUP14 PUSH20 0xFFFFFFFFFFFFFFFFFFFFFFFFFFFFFFFFFFFFFFFF AND PUSH4 0x23B872DD CALLER ADDRESS DUP10 PUSH1 0x40 MLOAD DUP5 PUSH4 0xFFFFFFFF AND PUSH1 0xE0 SHL DUP2 MSTORE PUSH1 0x4 ADD PUSH2 0xF7E SWAP4 SWAP3 SWAP2 SWAP1 PUSH2 0x22F9 JUMP JUMPDEST PUSH1 0x20 PUSH1 0x40 MLOAD DUP1 DUP4 SUB DUP2 PUSH0 DUP8 GAS CALL ISZERO DUP1 ISZERO PUSH2 0xF9A JUMPI RETURNDATASIZE PUSH0 PUSH0 RETURNDATACOPY RETURNDATASIZE PUSH0 REVERT JUMPDEST POP POP POP POP PUSH1 0x40 MLOAD RETURNDATASIZE PUSH1 0x1F NOT PUSH1 0x1F DUP3 ADD AND DUP3 ADD DUP1 PUSH1 0x40 MSTORE POP DUP2 ADD SWAP1 PUSH2 0xFBE SWAP2 SWAP1 PUSH2 0x2363 JUMP JUMPDEST POP DUP13 PUSH20 0xFFFFFFFFFFFFFFFFFFFFFFFFFFFFFFFFFFFFFFFF AND PUSH4 0x23B872DD CALLER ADDRESS DUP9 PUSH1 0x40 MLOAD DUP5 PUSH4 0xFFFFFFFF AND PUSH1 0xE0 SHL DUP2 MSTORE PUSH1 0x4 ADD PUSH2 0xFFC SWAP4 SWAP3 SWAP2 SWAP1 PUSH2 0x22F9 JUMP JUMPDEST PUSH1 0x20 PUSH1 0x40 MLOAD DUP1 DUP4 SUB DUP2 PUSH0 DUP8 GAS CALL ISZERO DUP1 ISZERO PUSH2 0x1018 JUMPI RETURNDATASIZE PUSH0 PUSH0 RETURNDATACOPY RETURNDATASIZE PUSH0 REVERT JUMPDEST POP POP POP POP PUSH1 0x40 MLOAD RETURNDATASIZE PUSH1 0x1F NOT PUSH1 0x1F DUP3 ADD AND DUP3 ADD DUP1 PUSH1 0x40 MSTORE POP DUP2 ADD SWAP1 PUSH2 0x103C SWAP2 SWAP1 PUSH2 0x2363 JUMP JUMPDEST POP PUSH2 0x104A DUP15 DUP5 DUP4 DUP10 DUP10 PUSH2 0x15F6 JUMP JUMPDEST DUP4 DUP2 PUSH1 0x2 ADD PUSH0 DUP3 DUP3 SLOAD PUSH2 0x105D SWAP2 SWAP1 PUSH2 0x1EB9 JUMP JUMPDEST SWAP3 POP POP DUP2 SWAP1 SSTORE POP DUP4 DUP2 PUSH1 0x3 ADD PUSH0 DUP11 PUSH20 0xFFFFFFFFFFFFFFFFFFFFFFFFFFFFFFFFFFFFFFFF AND PUSH20 0xFFFFFFFFFFFFFFFFFFFFFFFFFFFFFFFFFFFFFFFF AND DUP2 MSTORE PUSH1 0x20 ADD SWAP1 DUP2 MSTORE PUSH1 0x20 ADD PUSH0 KECCAK256 PUSH0 DUP3 DUP3 SLOAD PUSH2 0x10B2 SWAP2 SWAP1 PUSH2 0x1EB9 JUMP JUMPDEST SWAP3 POP POP DUP2 SWAP1 SSTORE POP POP POP POP PUSH2 0x10C4 PUSH2 0x1341 JUMP JUMPDEST SWAP9 POP SWAP9 POP SWAP9 SWAP6 POP POP POP POP POP POP JUMP JUMPDEST PUSH1 0x2 PUSH0 SLOAD SUB PUSH2 0x110D JUMPI PUSH1 0x40 MLOAD PUSH32 0x3EE5AEB500000000000000000000000000000000000000000000000000000000 DUP2 MSTORE PUSH1 0x4 ADD PUSH1 0x40 MLOAD DUP1 SWAP2 SUB SWAP1 REVERT JUMPDEST PUSH1 0x2 PUSH0 DUP2 SWAP1 SSTORE POP JUMP JUMPDEST PUSH0 DUP2 PUSH20 0xFFFFFFFFFFFFFFFFFFFFFFFFFFFFFFFFFFFFFFFF AND DUP4 PUSH20 0xFFFFFFFFFFFFFFFFFFFFFFFFFFFFFFFFFFFFFFFF AND LT PUSH2 0x1178 JUMPI DUP2 DUP4 PUSH1 0x40 MLOAD PUSH1 0x20 ADD PUSH2 0x115D SWAP3 SWAP2 SWAP1 PUSH2 0x27AE JUMP JUMPDEST PUSH1 0x40 MLOAD PUSH1 0x20 DUP2 DUP4 SUB SUB DUP2 MSTORE SWAP1 PUSH1 0x40 MSTORE DUP1 MLOAD SWAP1 PUSH1 0x20 ADD KECCAK256 PUSH2 0x11A2 JUMP JUMPDEST DUP3 DUP3 PUSH1 0x40 MLOAD PUSH1 0x20 ADD PUSH2 0x118B SWAP3 SWAP2 SWAP1 PUSH2 0x27AE JUMP JUMPDEST PUSH1 0x40 MLOAD PUSH1 0x20 DUP2 DUP4 SUB SUB DUP2 MSTORE SWAP1 PUSH1 0x40 MSTORE DUP1 MLOAD SWAP1 PUSH1 0x20 ADD KECCAK256 JUMPDEST SWAP1 POP SWAP3 SWAP2 POP POP JUMP JUMPDEST PUSH0 PUSH0 PUSH0 PUSH0 DUP6 PUSH20 0xFFFFFFFFFFFFFFFFFFFFFFFFFFFFFFFFFFFFFFFF AND DUP8 PUSH20 0xFFFFFFFFFFFFFFFFFFFFFFFFFFFFFFFFFFFFFFFF AND LT ISZERO PUSH2 0x11ED JUMPI DUP7 SWAP2 POP DUP6 SWAP1 POP PUSH2 0x11F4 JUMP JUMPDEST DUP6 SWAP2 POP DUP7 SWAP1 POP JUMPDEST DUP2 PUSH20 0xFFFFFFFFFFFFFFFFFFFFFFFFFFFFFFFFFFFFFFFF AND DUP8 PUSH20 0xFFFFFFFFFFFFFFFFFFFFFFFFFFFFFFFFFFFFFFFF AND SUB PUSH2 0x1239 JUMPI DUP5 PUSH0 ADD SLOAD SWAP4 POP DUP5 PUSH1 0x1 ADD SLOAD SWAP3 POP PUSH2 0x1247 JUMP JUMPDEST DUP5 PUSH1 0x1 ADD SLOAD SWAP4 POP DUP5 PUSH0 ADD SLOAD SWAP3 POP JUMPDEST POP POP SWAP4 POP SWAP4 SWAP2 POP POP JUMP JUMPDEST PUSH0 PUSH0 DUP6 PUSH20 0xFFFFFFFFFFFFFFFFFFFFFFFFFFFFFFFFFFFFFFFF AND DUP8 PUSH20 0xFFFFFFFFFFFFFFFFFFFFFFFFFFFFFFFFFFFFFFFF AND LT ISZERO PUSH2 0x1292 JUMPI DUP7 SWAP2 POP DUP6 SWAP1 POP PUSH2 0x1299 JUMP JUMPDEST DUP6 SWAP2 POP DUP7 SWAP1 POP JUMPDEST DUP2 PUSH20 0xFFFFFFFFFFFFFFFFFFFFFFFFFFFFFFFFFFFFFFFF AND DUP8 PUSH20 0xFFFFFFFFFFFFFFFFFFFFFFFFFFFFFFFFFFFFFFFF AND SUB PUSH2 0x1304 JUMPI DUP4 DUP6 PUSH0 ADD PUSH0 DUP3 DUP3 SLOAD PUSH2 0x12DE SWAP2 SWAP1 PUSH2 0x1EB9 JUMP JUMPDEST SWAP3 POP POP DUP2 SWAP1 SSTORE POP DUP3 DUP6 PUSH1 0x1 ADD PUSH0 DUP3 DUP3 SLOAD PUSH2 0x12F8 SWAP2 SWAP1 PUSH2 0x2736 JUMP JUMPDEST SWAP3 POP POP DUP2 SWAP1 SSTORE POP PUSH2 0x1338 JUMP JUMPDEST DUP4 DUP6 PUSH1 0x1 ADD PUSH0 DUP3 DUP3 SLOAD PUSH2 0x1317 SWAP2 SWAP1 PUSH2 0x1EB9 JUMP JUMPDEST SWAP3 POP POP DUP2 SWAP1 SSTORE POP DUP3 DUP6 PUSH0 ADD PUSH0 DUP3 DUP3 SLOAD PUSH2 0x1330 SWAP2 SWAP1 PUSH2 0x2736 JUMP JUMPDEST SWAP3 POP POP DUP2 SWAP1 SSTORE POP JUMPDEST POP POP POP POP POP POP POP JUMP JUMPDEST PUSH1 0x1 PUSH0 DUP2 SWAP1 SSTORE POP JUMP JUMPDEST PUSH0 PUSH0 DUP3 PUSH20 0xFFFFFFFFFFFFFFFFFFFFFFFFFFFFFFFFFFFFFFFF AND DUP5 PUSH20 0xFFFFFFFFFFFFFFFFFFFFFFFFFFFFFFFFFFFFFFFF AND SUB PUSH2 0x13BA JUMPI PUSH1 0x40 MLOAD PUSH32 0x8C379A000000000000000000000000000000000000000000000000000000000 DUP2 MSTORE PUSH1 0x4 ADD PUSH2 0x13B1 SWAP1 PUSH2 0x2849 JUMP JUMPDEST PUSH1 0x40 MLOAD DUP1 SWAP2 SUB SWAP1 REVERT JUMPDEST DUP3 PUSH20 0xFFFFFFFFFFFFFFFFFFFFFFFFFFFFFFFFFFFFFFFF AND DUP5 PUSH20 0xFFFFFFFFFFFFFFFFFFFFFFFFFFFFFFFFFFFFFFFF AND LT PUSH2 0x13F4 JUMPI DUP3 DUP5 PUSH2 0x13F7 JUMP JUMPDEST DUP4 DUP4 JUMPDEST SWAP2 POP SWAP2 POP SWAP3 POP SWAP3 SWAP1 POP JUMP JUMPDEST PUSH0 PUSH0 PUSH0 PUSH0 PUSH0 PUSH2 0x1412 DUP13 DUP13 DUP9 PUSH2 0x169C JUMP JUMPDEST SWAP2 POP SWAP2 POP PUSH0 DUP7 PUSH1 0x2 ADD SLOAD SUB PUSH2 0x148F JUMPI DUP10 SWAP5 POP DUP9 SWAP4 POP PUSH0 DUP6 GT DUP1 ISZERO PUSH2 0x1435 JUMPI POP PUSH0 DUP5 GT JUMPDEST PUSH2 0x1474 JUMPI PUSH1 0x40 MLOAD PUSH32 0x8C379A000000000000000000000000000000000000000000000000000000000 DUP2 MSTORE PUSH1 0x4 ADD PUSH2 0x146B SWAP1 PUSH2 0x28D7 JUMP JUMPDEST PUSH1 0x40 MLOAD DUP1 SWAP2 SUB SWAP1 REVERT JUMPDEST PUSH2 0x1488 DUP5 DUP7 PUSH2 0x1483 SWAP2 SWAP1 PUSH2 0x1EEC JUMP JUMPDEST PUSH2 0x16F9 JUMP JUMPDEST SWAP3 POP PUSH2 0x15A5 JUMP JUMPDEST PUSH0 DUP3 DUP3 DUP13 PUSH2 0x149D SWAP2 SWAP1 PUSH2 0x1EEC JUMP JUMPDEST PUSH2 0x14A7 SWAP2 SWAP1 PUSH2 0x1F5A JUMP JUMPDEST SWAP1 POP DUP10 DUP2 GT PUSH2 0x14FE JUMPI DUP8 DUP2 LT ISZERO PUSH2 0x14F3 JUMPI PUSH1 0x40 MLOAD PUSH32 0x8C379A000000000000000000000000000000000000000000000000000000000 DUP2 MSTORE PUSH1 0x4 ADD PUSH2 0x14EA SWAP1 PUSH2 0x2965 JUMP JUMPDEST PUSH1 0x40 MLOAD DUP1 SWAP2 SUB SWAP1 REVERT JUMPDEST DUP11 SWAP6 POP DUP1 SWAP5 POP PUSH2 0x1563 JUMP JUMPDEST PUSH0 DUP3 DUP5 DUP13 PUSH2 0x150C SWAP2 SWAP1 PUSH2 0x1EEC JUMP JUMPDEST PUSH2 0x1516 SWAP2 SWAP1 PUSH2 0x1F5A JUMP JUMPDEST SWAP1 POP DUP10 DUP2 LT ISZERO PUSH2 0x155B JUMPI PUSH1 0x40 MLOAD PUSH32 0x8C379A000000000000000000000000000000000000000000000000000000000 DUP2 MSTORE PUSH1 0x4 ADD PUSH2 0x1552 SWAP1 PUSH2 0x29F3 JUMP JUMPDEST PUSH1 0x40 MLOAD DUP1 SWAP2 SUB SWAP1 REVERT JUMPDEST DUP1 SWAP7 POP DUP11 SWAP6 POP POP JUMPDEST PUSH2 0x15A1 DUP4 DUP9 PUSH1 0x2 ADD SLOAD DUP9 PUSH2 0x1577 SWAP2 SWAP1 PUSH2 0x1EEC JUMP JUMPDEST PUSH2 0x1581 SWAP2 SWAP1 PUSH2 0x1F5A JUMP JUMPDEST DUP4 DUP10 PUSH1 0x2 ADD SLOAD DUP9 PUSH2 0x1592 SWAP2 SWAP1 PUSH2 0x1EEC JUMP JUMPDEST PUSH2 0x159C SWAP2 SWAP1 PUSH2 0x1F5A JUMP JUMPDEST PUSH2 0x1893 JUMP JUMPDEST SWAP4 POP POP JUMPDEST PUSH0 DUP4 GT PUSH2 0x15E7 JUMPI PUSH1 0x40 MLOAD PUSH32 0x8C379A000000000000000000000000000000000000000000000000000000000 DUP2 MSTORE PUSH1 0x4 ADD PUSH2 0x15DE SWAP1 PUSH2 0x2A81 JUMP JUMPDEST PUSH1 0x40 MLOAD DUP1 SWAP2 SUB SWAP1 REVERT JUMPDEST POP POP SWAP8 POP SWAP8 POP SWAP8 SWAP5 POP POP POP POP POP JUMP JUMPDEST DUP4 PUSH20 0xFFFFFFFFFFFFFFFFFFFFFFFFFFFFFFFFFFFFFFFF AND DUP6 PUSH20 0xFFFFFFFFFFFFFFFFFFFFFFFFFFFFFFFFFFFFFFFF AND SUB PUSH2 0x1661 JUMPI DUP2 DUP4 PUSH0 ADD PUSH0 DUP3 DUP3 SLOAD PUSH2 0x163B SWAP2 SWAP1 PUSH2 0x1EB9 JUMP JUMPDEST SWAP3 POP POP DUP2 SWAP1 SSTORE POP DUP1 DUP4 PUSH1 0x1 ADD PUSH0 DUP3 DUP3 SLOAD PUSH2 0x1655 SWAP2 SWAP1 PUSH2 0x1EB9 JUMP JUMPDEST SWAP3 POP POP DUP2 SWAP1 SSTORE POP PUSH2 0x1695 JUMP JUMPDEST DUP1 DUP4 PUSH0 ADD PUSH0 DUP3 DUP3 SLOAD PUSH2 0x1673 SWAP2 SWAP1 PUSH2 0x1EB9 JUMP JUMPDEST SWAP3 POP POP DUP2 SWAP1 SSTORE POP DUP2 DUP4 PUSH1 0x1 ADD PUSH0 DUP3 DUP3 SLOAD PUSH2 0x168D SWAP2 SWAP1 PUSH2 0x1EB9 JUMP JUMPDEST SWAP3 POP POP DUP2 SWAP1 SSTORE POP JUMPDEST POP POP POP POP POP JUMP JUMPDEST PUSH0 PUSH0 DUP4 PUSH20 0xFFFFFFFFFFFFFFFFFFFFFFFFFFFFFFFFFFFFFFFF AND DUP6 PUSH20 0xFFFFFFFFFFFFFFFFFFFFFFFFFFFFFFFFFFFFFFFF AND SUB PUSH2 0x16E3 JUMPI DUP3 PUSH0 ADD SLOAD SWAP2 POP DUP3 PUSH1 0x1 ADD SLOAD SWAP1 POP PUSH2 0x16F1 JUMP JUMPDEST DUP3 PUSH1 0x1 ADD SLOAD SWAP2 POP DUP3 PUSH0 ADD SLOAD SWAP1 POP JUMPDEST SWAP4 POP SWAP4 SWAP2 POP POP JUMP JUMPDEST PUSH0 PUSH1 0x1 DUP3 GT PUSH2 0x170A JUMPI DUP2 SWAP1 POP PUSH2 0x188E JUMP JUMPDEST PUSH0 DUP3 SWAP1 POP PUSH0 PUSH1 0x1 SWAP1 POP PUSH17 0x100000000000000000000000000000000 DUP3 LT PUSH2 0x173A JUMPI PUSH1 0x80 DUP3 SWAP1 SHR SWAP2 POP PUSH1 0x40 DUP2 SWAP1 SHL SWAP1 POP JUMPDEST PUSH9 0x10000000000000000 DUP3 LT PUSH2 0x1759 JUMPI PUSH1 0x40 DUP3 SWAP1 SHR SWAP2 POP PUSH1 0x20 DUP2 SWAP1 SHL SWAP1 POP JUMPDEST PUSH5 0x100000000 DUP3 LT PUSH2 0x1774 JUMPI PUSH1 0x20 DUP3 SWAP1 SHR SWAP2 POP PUSH1 0x10 DUP2 SWAP1 SHL SWAP1 POP JUMPDEST PUSH3 0x10000 DUP3 LT PUSH2 0x178D JUMPI PUSH1 0x10 DUP3 SWAP1 SHR SWAP2 POP PUSH1 0x8 DUP2 SWAP1 SHL SWAP1 POP JUMPDEST PUSH2 0x100 DUP3 LT PUSH2 0x17A5 JUMPI PUSH1 0x8 DUP3 SWAP1 SHR SWAP2 POP PUSH1 0x4 DUP2 SWAP1 SHL SWAP1 POP JUMPDEST PUSH1 0x10 DUP3 LT PUSH2 0x17BC JUMPI PUSH1 0x4 DUP3 SWAP1 SHR SWAP2 POP PUSH1 0x2 DUP2 SWAP1 SHL SWAP1 POP JUMPDEST PUSH1 0x4 DUP3 LT PUSH2 0x17CC JUMPI PUSH1 0x1 DUP2 SWAP1 SHL SWAP1 POP JUMPDEST PUSH1 0x1 DUP2 PUSH1 0x3 MUL SWAP1 SHR SWAP1 POP PUSH1 0x1 DUP2 DUP6 DUP2 PUSH2 0x17E8 JUMPI PUSH2 0x17E7 PUSH2 0x1F2D JUMP JUMPDEST JUMPDEST DIV DUP3 ADD SWAP1 SHR SWAP1 POP PUSH1 0x1 DUP2 DUP6 DUP2 PUSH2 0x1801 JUMPI PUSH2 0x1800 PUSH2 0x1F2D JUMP JUMPDEST JUMPDEST DIV DUP3 ADD SWAP1 SHR SWAP1 POP PUSH1 0x1 DUP2 DUP6 DUP2 PUSH2 0x181A JUMPI PUSH2 0x1819 PUSH2 0x1F2D JUMP JUMPDEST JUMPDEST DIV DUP3 ADD SWAP1 SHR SWAP1 POP PUSH1 0x1 DUP2 DUP6 DUP2 PUSH2 0x1833 JUMPI PUSH2 0x1832 PUSH2 0x1F2D JUMP JUMPDEST JUMPDEST DIV DUP3 ADD SWAP1 SHR SWAP1 POP PUSH1 0x1 DUP2 DUP6 DUP2 PUSH2 0x184C JUMPI PUSH2 0x184B PUSH2 0x1F2D JUMP JUMPDEST JUMPDEST DIV DUP3 ADD SWAP1 SHR SWAP1 POP PUSH1 0x1 DUP2 DUP6 DUP2 PUSH2 0x1865 JUMPI PUSH2 0x1864 PUSH2 0x1F2D JUMP JUMPDEST JUMPDEST DIV DUP3 ADD SWAP1 SHR SWAP1 POP PUSH2 0x1887 DUP2 DUP6 DUP2 PUSH2 0x187F JUMPI PUSH2 0x187E PUSH2 0x1F2D JUMP JUMPDEST JUMPDEST DIV DUP3 GT PUSH2 0x18A9 JUMP JUMPDEST DUP2 SUB SWAP3 POP POP POP JUMPDEST SWAP2 SWAP1 POP JUMP JUMPDEST PUSH0 PUSH2 0x18A1 DUP3 DUP5 LT DUP5 DUP5 PUSH2 0x18B4 JUMP JUMPDEST SWAP1 POP SWAP3 SWAP2 POP POP JUMP JUMPDEST PUSH0 DUP2 ISZERO ISZERO SWAP1 POP SWAP2 SWAP1 POP JUMP JUMPDEST PUSH0 PUSH2 0x18BE DUP5 PUSH2 0x18A9 JUMP JUMPDEST DUP3 DUP5 XOR MUL DUP3 XOR SWAP1 POP SWAP4 SWAP3 POP POP POP JUMP JUMPDEST PUSH0 PUSH0 REVERT JUMPDEST PUSH0 PUSH0 REVERT JUMPDEST PUSH0 DUP2 SWAP1 POP SWAP2 SWAP1 POP JUMP JUMPDEST PUSH2 0x18E7 DUP2 PUSH2 0x18D5 JUMP JUMPDEST DUP2 EQ PUSH2 0x18F1 JUMPI PUSH0 PUSH0 REVERT JUMPDEST POP JUMP JUMPDEST PUSH0 DUP2 CALLDATALOAD SWAP1 POP PUSH2 0x1902 DUP2 PUSH2 0x18DE JUMP JUMPDEST SWAP3 SWAP2 POP POP JUMP JUMPDEST PUSH0 PUSH0 PUSH0 PUSH1 0x60 DUP5 DUP7 SUB SLT ISZERO PUSH2 0x191F JUMPI PUSH2 0x191E PUSH2 0x18CD JUMP JUMPDEST JUMPDEST PUSH0 PUSH2 0x192C DUP7 DUP3 DUP8 ADD PUSH2 0x18F4 JUMP JUMPDEST SWAP4 POP POP PUSH1 0x20 PUSH2 0x193D DUP7 DUP3 DUP8 ADD PUSH2 0x18F4 JUMP JUMPDEST SWAP3 POP POP PUSH1 0x40 PUSH2 0x194E DUP7 DUP3 DUP8 ADD PUSH2 0x18F4 JUMP JUMPDEST SWAP2 POP POP SWAP3 POP SWAP3 POP SWAP3 JUMP JUMPDEST PUSH2 0x1961 DUP2 PUSH2 0x18D5 JUMP JUMPDEST DUP3 MSTORE POP POP JUMP JUMPDEST PUSH0 PUSH1 0x20 DUP3 ADD SWAP1 POP PUSH2 0x197A PUSH0 DUP4 ADD DUP5 PUSH2 0x1958 JUMP JUMPDEST SWAP3 SWAP2 POP POP JUMP JUMPDEST PUSH0 PUSH0 REVERT JUMPDEST PUSH0 PUSH0 REVERT JUMPDEST PUSH0 PUSH0 REVERT JUMPDEST PUSH0 PUSH0 DUP4 PUSH1 0x1F DUP5 ADD SLT PUSH2 0x19A1 JUMPI PUSH2 0x19A0 PUSH2 0x1980 JUMP JUMPDEST JUMPDEST DUP3 CALLDATALOAD SWAP1 POP PUSH8 0xFFFFFFFFFFFFFFFF DUP2 GT ISZERO PUSH2 0x19BE JUMPI PUSH2 0x19BD PUSH2 0x1984 JUMP JUMPDEST JUMPDEST PUSH1 0x20 DUP4 ADD SWAP2 POP DUP4 PUSH1 0x20 DUP3 MUL DUP4 ADD GT ISZERO PUSH2 0x19DA JUMPI PUSH2 0x19D9 PUSH2 0x1988 JUMP JUMPDEST JUMPDEST SWAP3 POP SWAP3 SWAP1 POP JUMP JUMPDEST PUSH0 PUSH20 0xFFFFFFFFFFFFFFFFFFFFFFFFFFFFFFFFFFFFFFFF DUP3 AND SWAP1 POP SWAP2 SWAP1 POP JUMP JUMPDEST PUSH0 PUSH2 0x1A0A DUP3 PUSH2 0x19E1 JUMP JUMPDEST SWAP1 POP SWAP2 SWAP1 POP JUMP JUMPDEST PUSH2 0x1A1A DUP2 PUSH2 0x1A00 JUMP JUMPDEST DUP2 EQ PUSH2 0x1A24 JUMPI PUSH0 PUSH0 REVERT JUMPDEST POP JUMP JUMPDEST PUSH0 DUP2 CALLDATALOAD SWAP1 POP PUSH2 0x1A35 DUP2 PUSH2 0x1A11 JUMP JUMPDEST SWAP3 SWAP2 POP POP JUMP JUMPDEST PUSH0 PUSH0 PUSH0 PUSH0 PUSH0 PUSH0 PUSH1 0xA0 DUP8 DUP10 SUB SLT ISZERO PUSH2 0x1A55 JUMPI PUSH2 0x1A54 PUSH2 0x18CD JUMP JUMPDEST JUMPDEST PUSH0 PUSH2 0x1A62 DUP10 DUP3 DUP11 ADD PUSH2 0x18F4 JUMP JUMPDEST SWAP7 POP POP PUSH1 0x20 PUSH2 0x1A73 DUP10 DUP3 DUP11 ADD PUSH2 0x18F4 JUMP JUMPDEST SWAP6 POP POP PUSH1 0x40 DUP8 ADD CALLDATALOAD PUSH8 0xFFFFFFFFFFFFFFFF DUP2 GT ISZERO PUSH2 0x1A94 JUMPI PUSH2 0x1A93 PUSH2 0x18D1 JUMP JUMPDEST JUMPDEST PUSH2 0x1AA0 DUP10 DUP3 DUP11 ADD PUSH2 0x198C JUMP JUMPDEST SWAP5 POP SWAP5 POP POP PUSH1 0x60 PUSH2 0x1AB3 DUP10 DUP3 DUP11 ADD PUSH2 0x1A27 JUMP JUMPDEST SWAP3 POP POP PUSH1 0x80 PUSH2 0x1AC4 DUP10 DUP3 DUP11 ADD PUSH2 0x18F4 JUMP JUMPDEST SWAP2 POP POP SWAP3 SWAP6 POP SWAP3 SWAP6 POP SWAP3 SWAP6 JUMP JUMPDEST PUSH0 DUP2 MLOAD SWAP1 POP SWAP2 SWAP1 POP JUMP JUMPDEST PUSH0 DUP3 DUP3 MSTORE PUSH1 0x20 DUP3 ADD SWAP1 POP SWAP3 SWAP2 POP POP JUMP JUMPDEST PUSH0 DUP2 SWAP1 POP PUSH1 0x20 DUP3 ADD SWAP1 POP SWAP2 SWAP1 POP JUMP JUMPDEST PUSH2 0x1B03 DUP2 PUSH2 0x18D5 JUMP JUMPDEST DUP3 MSTORE POP POP JUMP JUMPDEST PUSH0 PUSH2 0x1B14 DUP4 DUP4 PUSH2 0x1AFA JUMP JUMPDEST PUSH1 0x20 DUP4 ADD SWAP1 POP SWAP3 SWAP2 POP POP JUMP JUMPDEST PUSH0 PUSH1 0x20 DUP3 ADD SWAP1 POP SWAP2 SWAP1 POP JUMP JUMPDEST PUSH0 PUSH2 0x1B36 DUP3 PUSH2 0x1AD1 JUMP JUMPDEST PUSH2 0x1B40 DUP2 DUP6 PUSH2 0x1ADB JUMP JUMPDEST SWAP4 POP PUSH2 0x1B4B DUP4 PUSH2 0x1AEB JUMP JUMPDEST DUP1 PUSH0 JUMPDEST DUP4 DUP2 LT ISZERO PUSH2 0x1B7B JUMPI DUP2 MLOAD PUSH2 0x1B62 DUP9 DUP3 PUSH2 0x1B09 JUMP JUMPDEST SWAP8 POP PUSH2 0x1B6D DUP4 PUSH2 0x1B20 JUMP JUMPDEST SWAP3 POP POP PUSH1 0x1 DUP2 ADD SWAP1 POP PUSH2 0x1B4E JUMP JUMPDEST POP DUP6 SWAP4 POP POP POP POP SWAP3 SWAP2 POP POP JUMP JUMPDEST PUSH0 PUSH1 0x20 DUP3 ADD SWAP1 POP DUP2 DUP2 SUB PUSH0 DUP4 ADD MSTORE PUSH2 0x1BA0 DUP2 DUP5 PUSH2 0x1B2C JUMP JUMPDEST SWAP1 POP SWAP3 SWAP2 POP POP JUMP JUMPDEST PUSH0 PUSH0 PUSH1 0x40 DUP4 DUP6 SUB SLT ISZERO PUSH2 0x1BBE JUMPI PUSH2 0x1BBD PUSH2 0x18CD JUMP JUMPDEST JUMPDEST PUSH0 PUSH2 0x1BCB DUP6 DUP3 DUP7 ADD PUSH2 0x1A27 JUMP JUMPDEST SWAP3 POP POP PUSH1 0x20 PUSH2 0x1BDC DUP6 DUP3 DUP7 ADD PUSH2 0x1A27 JUMP JUMPDEST SWAP2 POP POP SWAP3 POP SWAP3 SWAP1 POP JUMP JUMPDEST PUSH0 DUP2 SWAP1 POP SWAP2 SWAP1 POP JUMP JUMPDEST PUSH2 0x1BF8 DUP2 PUSH2 0x1BE6 JUMP JUMPDEST DUP2 EQ PUSH2 0x1C02 JUMPI PUSH0 PUSH0 REVERT JUMPDEST POP JUMP JUMPDEST PUSH0 DUP2 CALLDATALOAD SWAP1 POP PUSH2 0x1C13 DUP2 PUSH2 0x1BEF JUMP JUMPDEST SWAP3 SWAP2 POP POP JUMP JUMPDEST PUSH0 PUSH1 0x20 DUP3 DUP5 SUB SLT ISZERO PUSH2 0x1C2E JUMPI PUSH2 0x1C2D PUSH2 0x18CD JUMP JUMPDEST JUMPDEST PUSH0 PUSH2 0x1C3B DUP5 DUP3 DUP6 ADD PUSH2 0x1C05 JUMP JUMPDEST SWAP2 POP POP SWAP3 SWAP2 POP POP JUMP JUMPDEST PUSH0 PUSH1 0x60 DUP3 ADD SWAP1 POP PUSH2 0x1C57 PUSH0 DUP4 ADD DUP7 PUSH2 0x1958 JUMP JUMPDEST PUSH2 0x1C64 PUSH1 0x20 DUP4 ADD DUP6 PUSH2 0x1958 JUMP JUMPDEST PUSH2 0x1C71 PUSH1 0x40 DUP4 ADD DUP5 PUSH2 0x1958 JUMP JUMPDEST SWAP5 SWAP4 POP POP POP POP JUMP JUMPDEST PUSH0 PUSH0 PUSH0 PUSH0 PUSH0 PUSH0 PUSH0 PUSH1 0xE0 DUP9 DUP11 SUB SLT ISZERO PUSH2 0x1C94 JUMPI PUSH2 0x1C93 PUSH2 0x18CD JUMP JUMPDEST JUMPDEST PUSH0 PUSH2 0x1CA1 DUP11 DUP3 DUP12 ADD PUSH2 0x1A27 JUMP JUMPDEST SWAP8 POP POP PUSH1 0x20 PUSH2 0x1CB2 DUP11 DUP3 DUP12 ADD PUSH2 0x1A27 JUMP JUMPDEST SWAP7 POP POP PUSH1 0x40 PUSH2 0x1CC3 DUP11 DUP3 DUP12 ADD PUSH2 0x18F4 JUMP JUMPDEST SWAP6 POP POP PUSH1 0x60 PUSH2 0x1CD4 DUP11 DUP3 DUP12 ADD PUSH2 0x18F4 JUMP JUMPDEST SWAP5 POP POP PUSH1 0x80 PUSH2 0x1CE5 DUP11 DUP3 DUP12 ADD PUSH2 0x18F4 JUMP JUMPDEST SWAP4 POP POP PUSH1 0xA0 PUSH2 0x1CF6 DUP11 DUP3 DUP12 ADD PUSH2 0x1A27 JUMP JUMPDEST SWAP3 POP POP PUSH1 0xC0 PUSH2 0x1D07 DUP11 DUP3 DUP12 ADD PUSH2 0x18F4 JUMP JUMPDEST SWAP2 POP POP SWAP3 SWAP6 SWAP9 SWAP2 SWAP5 SWAP8 POP SWAP3 SWAP6 POP JUMP JUMPDEST PUSH0 PUSH1 0x40 DUP3 ADD SWAP1 POP PUSH2 0x1D29 PUSH0 DUP4 ADD DUP6 PUSH2 0x1958 JUMP JUMPDEST PUSH2 0x1D36 PUSH1 0x20 DUP4 ADD DUP5 PUSH2 0x1958 JUMP JUMPDEST SWAP4 SWAP3 POP POP POP JUMP JUMPDEST PUSH0 PUSH0 PUSH0 PUSH0 PUSH0 PUSH0 PUSH0 PUSH0 PUSH2 0x100 DUP10 DUP12 SUB SLT ISZERO PUSH2 0x1D5A JUMPI PUSH2 0x1D59 PUSH2 0x18CD JUMP JUMPDEST JUMPDEST PUSH0 PUSH2 0x1D67 DUP12 DUP3 DUP13 ADD PUSH2 0x1A27 JUMP JUMPDEST SWAP9 POP POP PUSH1 0x20 PUSH2 0x1D78 DUP12 DUP3 DUP13 ADD PUSH2 0x1A27 JUMP JUMPDEST SWAP8 POP POP PUSH1 0x40 PUSH2 0x1D89 DUP12 DUP3 DUP13 ADD PUSH2 0x18F4 JUMP JUMPDEST SWAP7 POP POP PUSH1 0x60 PUSH2 0x1D9A DUP12 DUP3 DUP13 ADD PUSH2 0x18F4 JUMP JUMPDEST SWAP6 POP POP PUSH1 0x80 PUSH2 0x1DAB DUP12 DUP3 DUP13 ADD PUSH2 0x18F4 JUMP JUMPDEST SWAP5 POP POP PUSH1 0xA0 PUSH2 0x1DBC DUP12 DUP3 DUP13 ADD PUSH2 0x18F4 JUMP JUMPDEST SWAP4 POP POP PUSH1 0xC0 PUSH2 0x1DCD DUP12 DUP3 DUP13 ADD PUSH2 0x1A27 JUMP JUMPDEST SWAP3 POP POP PUSH1 0xE0 PUSH2 0x1DDE DUP12 DUP3 DUP13 ADD PUSH2 0x18F4 JUMP JUMPDEST SWAP2 POP POP SWAP3 SWAP6 SWAP9 POP SWAP3 SWAP6 SWAP9 SWAP1 SWAP4 SWAP7 POP JUMP JUMPDEST PUSH0 DUP3 DUP3 MSTORE PUSH1 0x20 DUP3 ADD SWAP1 POP SWAP3 SWAP2 POP POP JUMP JUMPDEST PUSH32 0x53696D706C65537761703A204461746F7320696E76616C69646F732070617261 PUSH0 DUP3 ADD MSTORE PUSH32 0x2063616C63756C6F2064652063616E74696461642064652073616C6964610000 PUSH1 0x20 DUP3 ADD MSTORE POP JUMP JUMPDEST PUSH0 PUSH2 0x1E58 PUSH1 0x3E DUP4 PUSH2 0x1DEE JUMP JUMPDEST SWAP2 POP PUSH2 0x1E63 DUP3 PUSH2 0x1DFE JUMP JUMPDEST PUSH1 0x40 DUP3 ADD SWAP1 POP SWAP2 SWAP1 POP JUMP JUMPDEST PUSH0 PUSH1 0x20 DUP3 ADD SWAP1 POP DUP2 DUP2 SUB PUSH0 DUP4 ADD MSTORE PUSH2 0x1E85 DUP2 PUSH2 0x1E4C JUMP JUMPDEST SWAP1 POP SWAP2 SWAP1 POP JUMP JUMPDEST PUSH32 0x4E487B7100000000000000000000000000000000000000000000000000000000 PUSH0 MSTORE PUSH1 0x11 PUSH1 0x4 MSTORE PUSH1 0x24 PUSH0 REVERT JUMPDEST PUSH0 PUSH2 0x1EC3 DUP3 PUSH2 0x18D5 JUMP JUMPDEST SWAP2 POP PUSH2 0x1ECE DUP4 PUSH2 0x18D5 JUMP JUMPDEST SWAP3 POP DUP3 DUP3 ADD SWAP1 POP DUP1 DUP3 GT ISZERO PUSH2 0x1EE6 JUMPI PUSH2 0x1EE5 PUSH2 0x1E8C JUMP JUMPDEST JUMPDEST SWAP3 SWAP2 POP POP JUMP JUMPDEST PUSH0 PUSH2 0x1EF6 DUP3 PUSH2 0x18D5 JUMP JUMPDEST SWAP2 POP PUSH2 0x1F01 DUP4 PUSH2 0x18D5 JUMP JUMPDEST SWAP3 POP DUP3 DUP3 MUL PUSH2 0x1F0F DUP2 PUSH2 0x18D5 JUMP JUMPDEST SWAP2 POP DUP3 DUP3 DIV DUP5 EQ DUP4 ISZERO OR PUSH2 0x1F26 JUMPI PUSH2 0x1F25 PUSH2 0x1E8C JUMP JUMPDEST JUMPDEST POP SWAP3 SWAP2 POP POP JUMP JUMPDEST PUSH32 0x4E487B7100000000000000000000000000000000000000000000000000000000 PUSH0 MSTORE PUSH1 0x12 PUSH1 0x4 MSTORE PUSH1 0x24 PUSH0 REVERT JUMPDEST PUSH0 PUSH2 0x1F64 DUP3 PUSH2 0x18D5 JUMP JUMPDEST SWAP2 POP PUSH2 0x1F6F DUP4 PUSH2 0x18D5 JUMP JUMPDEST SWAP3 POP DUP3 PUSH2 0x1F7F JUMPI PUSH2 0x1F7E PUSH2 0x1F2D JUMP JUMPDEST JUMPDEST DUP3 DUP3 DIV SWAP1 POP SWAP3 SWAP2 POP POP JUMP JUMPDEST PUSH32 0x53696D706C65537761703A205472616E73616363696F6E206578706972616461 PUSH0 DUP3 ADD MSTORE POP JUMP JUMPDEST PUSH0 PUSH2 0x1FBE PUSH1 0x20 DUP4 PUSH2 0x1DEE JUMP JUMPDEST SWAP2 POP PUSH2 0x1FC9 DUP3 PUSH2 0x1F8A JUMP JUMPDEST PUSH1 0x20 DUP3 ADD SWAP1 POP SWAP2 SWAP1 POP JUMP JUMPDEST PUSH0 PUSH1 0x20 DUP3 ADD SWAP1 POP DUP2 DUP2 SUB PUSH0 DUP4 ADD MSTORE PUSH2 0x1FEB DUP2 PUSH2 0x1FB2 JUMP JUMPDEST SWAP1 POP SWAP2 SWAP1 POP JUMP JUMPDEST PUSH32 0x53696D706C65537761703A20536F6C6F207365207065726D697465203120686F PUSH0 DUP3 ADD MSTORE PUSH32 0x70202872757461206465203220746F6B656E7329000000000000000000000000 PUSH1 0x20 DUP3 ADD MSTORE POP JUMP JUMPDEST PUSH0 PUSH2 0x204C PUSH1 0x34 DUP4 PUSH2 0x1DEE JUMP JUMPDEST SWAP2 POP PUSH2 0x2057 DUP3 PUSH2 0x1FF2 JUMP JUMPDEST PUSH1 0x40 DUP3 ADD SWAP1 POP SWAP2 SWAP1 POP JUMP JUMPDEST PUSH0 PUSH1 0x20 DUP3 ADD SWAP1 POP DUP2 DUP2 SUB PUSH0 DUP4 ADD MSTORE PUSH2 0x2079 DUP2 PUSH2 0x2040 JUMP JUMPDEST SWAP1 POP SWAP2 SWAP1 POP JUMP JUMPDEST PUSH32 0x53696D706C65537761703A20446972656363696F6E2027746F2720696E76616C PUSH0 DUP3 ADD MSTORE PUSH32 0x6964610000000000000000000000000000000000000000000000000000000000 PUSH1 0x20 DUP3 ADD MSTORE POP JUMP JUMPDEST PUSH0 PUSH2 0x20DA PUSH1 0x23 DUP4 PUSH2 0x1DEE JUMP JUMPDEST SWAP2 POP PUSH2 0x20E5 DUP3 PUSH2 0x2080 JUMP JUMPDEST PUSH1 0x40 DUP3 ADD SWAP1 POP SWAP2 SWAP1 POP JUMP JUMPDEST PUSH0 PUSH1 0x20 DUP3 ADD SWAP1 POP DUP2 DUP2 SUB PUSH0 DUP4 ADD MSTORE PUSH2 0x2107 DUP2 PUSH2 0x20CE JUMP JUMPDEST SWAP1 POP SWAP2 SWAP1 POP JUMP JUMPDEST PUSH32 0x53696D706C65537761703A2043616E746964616420646520656E747261646120 PUSH0 DUP3 ADD MSTORE PUSH32 0x6465626520736572203E20300000000000000000000000000000000000000000 PUSH1 0x20 DUP3 ADD MSTORE POP JUMP JUMPDEST PUSH0 PUSH2 0x2168 PUSH1 0x2C DUP4 PUSH2 0x1DEE JUMP JUMPDEST SWAP2 POP PUSH2 0x2173 DUP3 PUSH2 0x210E JUMP JUMPDEST PUSH1 0x40 DUP3 ADD SWAP1 POP SWAP2 SWAP1 POP JUMP JUMPDEST PUSH0 PUSH1 0x20 DUP3 ADD SWAP1 POP DUP2 DUP2 SUB PUSH0 DUP4 ADD MSTORE PUSH2 0x2195 DUP2 PUSH2 0x215C JUMP JUMPDEST SWAP1 POP SWAP2 SWAP1 POP JUMP JUMPDEST PUSH32 0x4E487B7100000000000000000000000000000000000000000000000000000000 PUSH0 MSTORE PUSH1 0x32 PUSH1 0x4 MSTORE PUSH1 0x24 PUSH0 REVERT JUMPDEST PUSH0 PUSH1 0x20 DUP3 DUP5 SUB SLT ISZERO PUSH2 0x21DE JUMPI PUSH2 0x21DD PUSH2 0x18CD JUMP JUMPDEST JUMPDEST PUSH0 PUSH2 0x21EB DUP5 DUP3 DUP6 ADD PUSH2 0x1A27 JUMP JUMPDEST SWAP2 POP POP SWAP3 SWAP2 POP POP JUMP JUMPDEST PUSH32 0x53696D706C65537761703A20506F6F6C20766163696F206F2073696E206C6971 PUSH0 DUP3 ADD MSTORE PUSH32 0x756964657A000000000000000000000000000000000000000000000000000000 PUSH1 0x20 DUP3 ADD MSTORE POP JUMP JUMPDEST PUSH0 PUSH2 0x224E PUSH1 0x25 DUP4 PUSH2 0x1DEE JUMP JUMPDEST SWAP2 POP PUSH2 0x2259 DUP3 PUSH2 0x21F4 JUMP JUMPDEST PUSH1 0x40 DUP3 ADD SWAP1 POP SWAP2 SWAP1 POP JUMP JUMPDEST PUSH0 PUSH1 0x20 DUP3 ADD SWAP1 POP DUP2 DUP2 SUB PUSH0 DUP4 ADD MSTORE PUSH2 0x227B DUP2 PUSH2 0x2242 JUMP JUMPDEST SWAP1 POP SWAP2 SWAP1 POP JUMP JUMPDEST PUSH32 0x53696D706C65537761703A20536C69707061676520657863657369766F000000 PUSH0 DUP3 ADD MSTORE POP JUMP JUMPDEST PUSH0 PUSH2 0x22B6 PUSH1 0x1D DUP4 PUSH2 0x1DEE JUMP JUMPDEST SWAP2 POP PUSH2 0x22C1 DUP3 PUSH2 0x2282 JUMP JUMPDEST PUSH1 0x20 DUP3 ADD SWAP1 POP SWAP2 SWAP1 POP JUMP JUMPDEST PUSH0 PUSH1 0x20 DUP3 ADD SWAP1 POP DUP2 DUP2 SUB PUSH0 DUP4 ADD MSTORE PUSH2 0x22E3 DUP2 PUSH2 0x22AA JUMP JUMPDEST SWAP1 POP SWAP2 SWAP1 POP JUMP JUMPDEST PUSH2 0x22F3 DUP2 PUSH2 0x1A00 JUMP JUMPDEST DUP3 MSTORE POP POP JUMP JUMPDEST PUSH0 PUSH1 0x60 DUP3 ADD SWAP1 POP PUSH2 0x230C PUSH0 DUP4 ADD DUP7 PUSH2 0x22EA JUMP JUMPDEST PUSH2 0x2319 PUSH1 0x20 DUP4 ADD DUP6 PUSH2 0x22EA JUMP JUMPDEST PUSH2 0x2326 PUSH1 0x40 DUP4 ADD DUP5 PUSH2 0x1958 JUMP JUMPDEST SWAP5 SWAP4 POP POP POP POP JUMP JUMPDEST PUSH0 DUP2 ISZERO ISZERO SWAP1 POP SWAP2 SWAP1 POP JUMP JUMPDEST PUSH2 0x2342 DUP2 PUSH2 0x232E JUMP JUMPDEST DUP2 EQ PUSH2 0x234C JUMPI PUSH0 PUSH0 REVERT JUMPDEST POP JUMP JUMPDEST PUSH0 DUP2 MLOAD SWAP1 POP PUSH2 0x235D DUP2 PUSH2 0x2339 JUMP JUMPDEST SWAP3 SWAP2 POP POP JUMP JUMPDEST PUSH0 PUSH1 0x20 DUP3 DUP5 SUB SLT ISZERO PUSH2 0x2378 JUMPI PUSH2 0x2377 PUSH2 0x18CD JUMP JUMPDEST JUMPDEST PUSH0 PUSH2 0x2385 DUP5 DUP3 DUP6 ADD PUSH2 0x234F JUMP JUMPDEST SWAP2 POP POP SWAP3 SWAP2 POP POP JUMP JUMPDEST PUSH0 PUSH1 0x40 DUP3 ADD SWAP1 POP PUSH2 0x23A1 PUSH0 DUP4 ADD DUP6 PUSH2 0x22EA JUMP JUMPDEST PUSH2 0x23AE PUSH1 0x20 DUP4 ADD DUP5 PUSH2 0x1958 JUMP JUMPDEST SWAP4 SWAP3 POP POP POP JUMP JUMPDEST PUSH32 0x4E487B7100000000000000000000000000000000000000000000000000000000 PUSH0 MSTORE PUSH1 0x41 PUSH1 0x4 MSTORE PUSH1 0x24 PUSH0 REVERT JUMPDEST PUSH32 0x53696D706C65537761703A20446972656363696F6E657320646520746F6B656E PUSH0 DUP3 ADD MSTORE PUSH32 0x20696E76616C6964617300000000000000000000000000000000000000000000 PUSH1 0x20 DUP3 ADD MSTORE POP JUMP JUMPDEST PUSH0 PUSH2 0x243C PUSH1 0x2A DUP4 PUSH2 0x1DEE JUMP JUMPDEST SWAP2 POP PUSH2 0x2447 DUP3 PUSH2 0x23E2 JUMP JUMPDEST PUSH1 0x40 DUP3 ADD SWAP1 POP SWAP2 SWAP1 POP JUMP JUMPDEST PUSH0 PUSH1 0x20 DUP3 ADD SWAP1 POP DUP2 DUP2 SUB PUSH0 DUP4 ADD MSTORE PUSH2 0x2469 DUP2 PUSH2 0x2430 JUMP JUMPDEST SWAP1 POP SWAP2 SWAP1 POP JUMP JUMPDEST PUSH32 0x53696D706C65537761703A204C6971756964657A20612072656D6F7665722064 PUSH0 DUP3 ADD MSTORE PUSH32 0x65626520736572203E2030000000000000000000000000000000000000000000 PUSH1 0x20 DUP3 ADD MSTORE POP JUMP JUMPDEST PUSH0 PUSH2 0x24CA PUSH1 0x2B DUP4 PUSH2 0x1DEE JUMP JUMPDEST SWAP2 POP PUSH2 0x24D5 DUP3 PUSH2 0x2470 JUMP JUMPDEST PUSH1 0x40 DUP3 ADD SWAP1 POP SWAP2 SWAP1 POP JUMP JUMPDEST PUSH0 PUSH1 0x20 DUP3 ADD SWAP1 POP DUP2 DUP2 SUB PUSH0 DUP4 ADD MSTORE PUSH2 0x24F7 DUP2 PUSH2 0x24BE JUMP JUMPDEST SWAP1 POP SWAP2 SWAP1 POP JUMP JUMPDEST PUSH32 0x53696D706C65537761703A204C6971756964657A20696E737566696369656E74 PUSH0 DUP3 ADD MSTORE PUSH32 0x652064656C207573756172696F00000000000000000000000000000000000000 PUSH1 0x20 DUP3 ADD MSTORE POP JUMP JUMPDEST PUSH0 PUSH2 0x2558 PUSH1 0x2D DUP4 PUSH2 0x1DEE JUMP JUMPDEST SWAP2 POP PUSH2 0x2563 DUP3 PUSH2 0x24FE JUMP JUMPDEST PUSH1 0x40 DUP3 ADD SWAP1 POP SWAP2 SWAP1 POP JUMP JUMPDEST PUSH0 PUSH1 0x20 DUP3 ADD SWAP1 POP DUP2 DUP2 SUB PUSH0 DUP4 ADD MSTORE PUSH2 0x2585 DUP2 PUSH2 0x254C JUMP JUMPDEST SWAP1 POP SWAP2 SWAP1 POP JUMP JUMPDEST PUSH32 0x53696D706C65537761703A20506F6F6C206465206C6971756964657A20766163 PUSH0 DUP3 ADD MSTORE PUSH32 0x696F000000000000000000000000000000000000000000000000000000000000 PUSH1 0x20 DUP3 ADD MSTORE POP JUMP JUMPDEST PUSH0 PUSH2 0x25E6 PUSH1 0x22 DUP4 PUSH2 0x1DEE JUMP JUMPDEST SWAP2 POP PUSH2 0x25F1 DUP3 PUSH2 0x258C JUMP JUMPDEST PUSH1 0x40 DUP3 ADD SWAP1 POP SWAP2 SWAP1 POP JUMP JUMPDEST PUSH0 PUSH1 0x20 DUP3 ADD SWAP1 POP DUP2 DUP2 SUB PUSH0 DUP4 ADD MSTORE PUSH2 0x2613 DUP2 PUSH2 0x25DA JUMP JUMPDEST SWAP1 POP SWAP2 SWAP1 POP JUMP JUMPDEST PUSH32 0x53696D706C65537761703A20536C69707061676520657863657369766F20656E PUSH0 DUP3 ADD MSTORE PUSH32 0x20546F6B656E204120616C2072656D6F76657200000000000000000000000000 PUSH1 0x20 DUP3 ADD MSTORE POP JUMP JUMPDEST PUSH0 PUSH2 0x2674 PUSH1 0x33 DUP4 PUSH2 0x1DEE JUMP JUMPDEST SWAP2 POP PUSH2 0x267F DUP3 PUSH2 0x261A JUMP JUMPDEST PUSH1 0x40 DUP3 ADD SWAP1 POP SWAP2 SWAP1 POP JUMP JUMPDEST PUSH0 PUSH1 0x20 DUP3 ADD SWAP1 POP DUP2 DUP2 SUB PUSH0 DUP4 ADD MSTORE PUSH2 0x26A1 DUP2 PUSH2 0x2668 JUMP JUMPDEST SWAP1 POP SWAP2 SWAP1 POP JUMP JUMPDEST PUSH32 0x53696D706C65537761703A20536C69707061676520657863657369766F20656E PUSH0 DUP3 ADD MSTORE PUSH32 0x20546F6B656E204220616C2072656D6F76657200000000000000000000000000 PUSH1 0x20 DUP3 ADD MSTORE POP JUMP JUMPDEST PUSH0 PUSH2 0x2702 PUSH1 0x33 DUP4 PUSH2 0x1DEE JUMP JUMPDEST SWAP2 POP PUSH2 0x270D DUP3 PUSH2 0x26A8 JUMP JUMPDEST PUSH1 0x40 DUP3 ADD SWAP1 POP SWAP2 SWAP1 POP JUMP JUMPDEST PUSH0 PUSH1 0x20 DUP3 ADD SWAP1 POP DUP2 DUP2 SUB PUSH0 DUP4 ADD MSTORE PUSH2 0x272F DUP2 PUSH2 0x26F6 JUMP JUMPDEST SWAP1 POP SWAP2 SWAP1 POP JUMP JUMPDEST PUSH0 PUSH2 0x2740 DUP3 PUSH2 0x18D5 JUMP JUMPDEST SWAP2 POP PUSH2 0x274B DUP4 PUSH2 0x18D5 JUMP JUMPDEST SWAP3 POP DUP3 DUP3 SUB SWAP1 POP DUP2 DUP2 GT ISZERO PUSH2 0x2763 JUMPI PUSH2 0x2762 PUSH2 0x1E8C JUMP JUMPDEST JUMPDEST SWAP3 SWAP2 POP POP JUMP JUMPDEST PUSH0 DUP2 PUSH1 0x60 SHL SWAP1 POP SWAP2 SWAP1 POP JUMP JUMPDEST PUSH0 PUSH2 0x277F DUP3 PUSH2 0x2769 JUMP JUMPDEST SWAP1 POP SWAP2 SWAP1 POP JUMP JUMPDEST PUSH0 PUSH2 0x2790 DUP3 PUSH2 0x2775 JUMP JUMPDEST SWAP1 POP SWAP2 SWAP1 POP JUMP JUMPDEST PUSH2 0x27A8 PUSH2 0x27A3 DUP3 PUSH2 0x1A00 JUMP JUMPDEST PUSH2 0x2786 JUMP JUMPDEST DUP3 MSTORE POP POP JUMP JUMPDEST PUSH0 PUSH2 0x27B9 DUP3 DUP6 PUSH2 0x2797 JUMP JUMPDEST PUSH1 0x14 DUP3 ADD SWAP2 POP PUSH2 0x27C9 DUP3 DUP5 PUSH2 0x2797 JUMP JUMPDEST PUSH1 0x14 DUP3 ADD SWAP2 POP DUP2 SWAP1 POP SWAP4 SWAP3 POP POP POP JUMP JUMPDEST PUSH32 0x53696D706C65537761703A20546F6B656E7320646562656E2073657220646966 PUSH0 DUP3 ADD MSTORE PUSH32 0x6572656E74657300000000000000000000000000000000000000000000000000 PUSH1 0x20 DUP3 ADD MSTORE POP JUMP JUMPDEST PUSH0 PUSH2 0x2833 PUSH1 0x27 DUP4 PUSH2 0x1DEE JUMP JUMPDEST SWAP2 POP PUSH2 0x283E DUP3 PUSH2 0x27D9 JUMP JUMPDEST PUSH1 0x40 DUP3 ADD SWAP1 POP SWAP2 SWAP1 POP JUMP JUMPDEST PUSH0 PUSH1 0x20 DUP3 ADD SWAP1 POP DUP2 DUP2 SUB PUSH0 DUP4 ADD MSTORE PUSH2 0x2860 DUP2 PUSH2 0x2827 JUMP JUMPDEST SWAP1 POP SWAP2 SWAP1 POP JUMP JUMPDEST PUSH32 0x53696D706C65537761703A2043616E7469646164657320696E696369616C6573 PUSH0 DUP3 ADD MSTORE PUSH32 0x20646562656E20736572203E2030000000000000000000000000000000000000 PUSH1 0x20 DUP3 ADD MSTORE POP JUMP JUMPDEST PUSH0 PUSH2 0x28C1 PUSH1 0x2E DUP4 PUSH2 0x1DEE JUMP JUMPDEST SWAP2 POP PUSH2 0x28CC DUP3 PUSH2 0x2867 JUMP JUMPDEST PUSH1 0x40 DUP3 ADD SWAP1 POP SWAP2 SWAP1 POP JUMP JUMPDEST PUSH0 PUSH1 0x20 DUP3 ADD SWAP1 POP DUP2 DUP2 SUB PUSH0 DUP4 ADD MSTORE PUSH2 0x28EE DUP2 PUSH2 0x28B5 JUMP JUMPDEST SWAP1 POP SWAP2 SWAP1 POP JUMP JUMPDEST PUSH32 0x53696D706C65537761703A20536C69707061676520657863657369766F20656E PUSH0 DUP3 ADD MSTORE PUSH32 0x20546F6B656E2042000000000000000000000000000000000000000000000000 PUSH1 0x20 DUP3 ADD MSTORE POP JUMP JUMPDEST PUSH0 PUSH2 0x294F PUSH1 0x28 DUP4 PUSH2 0x1DEE JUMP JUMPDEST SWAP2 POP PUSH2 0x295A DUP3 PUSH2 0x28F5 JUMP JUMPDEST PUSH1 0x40 DUP3 ADD SWAP1 POP SWAP2 SWAP1 POP JUMP JUMPDEST PUSH0 PUSH1 0x20 DUP3 ADD SWAP1 POP DUP2 DUP2 SUB PUSH0 DUP4 ADD MSTORE PUSH2 0x297C DUP2 PUSH2 0x2943 JUMP JUMPDEST SWAP1 POP SWAP2 SWAP1 POP JUMP JUMPDEST PUSH32 0x53696D706C65537761703A20536C69707061676520657863657369766F20656E PUSH0 DUP3 ADD MSTORE PUSH32 0x20546F6B656E2041000000000000000000000000000000000000000000000000 PUSH1 0x20 DUP3 ADD MSTORE POP JUMP JUMPDEST PUSH0 PUSH2 0x29DD PUSH1 0x28 DUP4 PUSH2 0x1DEE JUMP JUMPDEST SWAP2 POP PUSH2 0x29E8 DUP3 PUSH2 0x2983 JUMP JUMPDEST PUSH1 0x40 DUP3 ADD SWAP1 POP SWAP2 SWAP1 POP JUMP JUMPDEST PUSH0 PUSH1 0x20 DUP3 ADD SWAP1 POP DUP2 DUP2 SUB PUSH0 DUP4 ADD MSTORE PUSH2 0x2A0A DUP2 PUSH2 0x29D1 JUMP JUMPDEST SWAP1 POP SWAP2 SWAP1 POP JUMP JUMPDEST PUSH32 0x53696D706C65537761703A204C6971756964657A20656D697469646120646562 PUSH0 DUP3 ADD MSTORE PUSH32 0x6520736572203E20300000000000000000000000000000000000000000000000 PUSH1 0x20 DUP3 ADD MSTORE POP JUMP JUMPDEST PUSH0 PUSH2 0x2A6B PUSH1 0x29 DUP4 PUSH2 0x1DEE JUMP JUMPDEST SWAP2 POP PUSH2 0x2A76 DUP3 PUSH2 0x2A11 JUMP JUMPDEST PUSH1 0x40 DUP3 ADD SWAP1 POP SWAP2 SWAP1 POP JUMP JUMPDEST PUSH0 PUSH1 0x20 DUP3 ADD SWAP1 POP DUP2 DUP2 SUB PUSH0 DUP4 ADD MSTORE PUSH2 0x2A98 DUP2 PUSH2 0x2A5F JUMP JUMPDEST SWAP1 POP SWAP2 SWAP1 POP JUMP INVALID LOG2 PUSH5 0x6970667358 0x22 SLT KECCAK256 SWAP12 0xCB 0xC8 0x22 0x21 DIV 0xE2 0x22 0xB5 ORIGIN PUSH13 0xB65F9A79AAD32AB853F141A85E PUSH1 0xF7 SWAPN 0x86 NUMBER 0xED PUSH31 0x8664736F6C634300081E003300000000000000000000000000000000000000 "
		},
		"gasEstimates": {
			"creation": {
				"codeDepositCost": "2193000",
				"executionCost": "24449",
				"totalCost": "2217449"
			},
			"external": {
				"addLiquidity(address,address,uint256,uint256,uint256,uint256,address,uint256)": "infinite",
				"getAmountOut(uint256,uint256,uint256)": "infinite",
				"getPrice(address,address)": "infinite",
				"pools(bytes32)": "infinite",
				"removeLiquidity(address,address,uint256,uint256,uint256,address,uint256)": "infinite",
				"swapExactTokensForTokens(uint256,uint256,address[],address,uint256)": "infinite"
			},
			"internal": {
				"_calculateAddLiquidityAmountsAndLiquidity(address,address,uint256,uint256,uint256,uint256,struct SimpleSwap.Pool storage pointer)": "infinite",
				"_getOrderedReserves(address,address,struct SimpleSwap.Pool storage pointer)": "4301",
				"_getPairHash(address,address)": "infinite",
				"_getReservesForSwap(address,address,struct SimpleSwap.Pool storage pointer)": "4374",
				"_sortTokens(address,address)": "infinite",
				"_updateAddLiquidityPoolReserves(address,address,struct SimpleSwap.Pool storage pointer,uint256,uint256)": "infinite",
				"_updatePoolReserves(address,address,struct SimpleSwap.Pool storage pointer,uint256,uint256)": "infinite"
			}
		},
		"methodIdentifiers": {
			"addLiquidity(address,address,uint256,uint256,uint256,uint256,address,uint256)": "e8e33700",
			"getAmountOut(uint256,uint256,uint256)": "054d50d4",
			"getPrice(address,address)": "ac41865a",
			"pools(bytes32)": "b5217bb4",
			"removeLiquidity(address,address,uint256,uint256,uint256,address,uint256)": "baa2abde",
			"swapExactTokensForTokens(uint256,uint256,address[],address,uint256)": "38ed1739"
		}
	},
	"abi": [
		{
			"inputs": [],
			"name": "ReentrancyGuardReentrantCall",
			"type": "error"
		},
		{
			"inputs": [
				{
					"internalType": "address",
					"name": "tokenA",
					"type": "address"
				},
				{
					"internalType": "address",
					"name": "tokenB",
					"type": "address"
				},
				{
					"internalType": "uint256",
					"name": "amountADesired",
					"type": "uint256"
				},
				{
					"internalType": "uint256",
					"name": "amountBDesired",
					"type": "uint256"
				},
				{
					"internalType": "uint256",
					"name": "amountAMin",
					"type": "uint256"
				},
				{
					"internalType": "uint256",
					"name": "amountBMin",
					"type": "uint256"
				},
				{
					"internalType": "address",
					"name": "to",
					"type": "address"
				},
				{
					"internalType": "uint256",
					"name": "deadline",
					"type": "uint256"
				}
			],
			"name": "addLiquidity",
			"outputs": [
				{
					"internalType": "uint256",
					"name": "amountA",
					"type": "uint256"
				},
				{
					"internalType": "uint256",
					"name": "amountB",
					"type": "uint256"
				},
				{
					"internalType": "uint256",
					"name": "liquidity",
					"type": "uint256"
				}
			],
			"stateMutability": "nonpayable",
			"type": "function"
		},
		{
			"inputs": [
				{
					"internalType": "uint256",
					"name": "amountIn",
					"type": "uint256"
				},
				{
					"internalType": "uint256",
					"name": "reserveIn",
					"type": "uint256"
				},
				{
					"internalType": "uint256",
					"name": "reserveOut",
					"type": "uint256"
				}
			],
			"name": "getAmountOut",
			"outputs": [
				{
					"internalType": "uint256",
					"name": "amountOut",
					"type": "uint256"
				}
			],
			"stateMutability": "pure",
			"type": "function"
		},
		{
			"inputs": [
				{
					"internalType": "address",
					"name": "tokenA",
					"type": "address"
				},
				{
					"internalType": "address",
					"name": "tokenB",
					"type": "address"
				}
			],
			"name": "getPrice",
			"outputs": [
				{
					"internalType": "uint256",
					"name": "price",
					"type": "uint256"
				}
			],
			"stateMutability": "view",
			"type": "function"
		},
		{
			"inputs": [
				{
					"internalType": "bytes32",
					"name": "",
					"type": "bytes32"
				}
			],
			"name": "pools",
			"outputs": [
				{
					"internalType": "uint256",
					"name": "reserveA",
					"type": "uint256"
				},
				{
					"internalType": "uint256",
					"name": "reserveB",
					"type": "uint256"
				},
				{
					"internalType": "uint256",
					"name": "totalLiquidity",
					"type": "uint256"
				}
			],
			"stateMutability": "view",
			"type": "function"
		},
		{
			"inputs": [
				{
					"internalType": "address",
					"name": "tokenA",
					"type": "address"
				},
				{
					"internalType": "address",
					"name": "tokenB",
					"type": "address"
				},
				{
					"internalType": "uint256",
					"name": "liquidity",
					"type": "uint256"
				},
				{
					"internalType": "uint256",
					"name": "amountAMin",
					"type": "uint256"
				},
				{
					"internalType": "uint256",
					"name": "amountBMin",
					"type": "uint256"
				},
				{
					"internalType": "address",
					"name": "to",
					"type": "address"
				},
				{
					"internalType": "uint256",
					"name": "deadline",
					"type": "uint256"
				}
			],
			"name": "removeLiquidity",
			"outputs": [
				{
					"internalType": "uint256",
					"name": "amountA",
					"type": "uint256"
				},
				{
					"internalType": "uint256",
					"name": "amountB",
					"type": "uint256"
				}
			],
			"stateMutability": "nonpayable",
			"type": "function"
		},
		{
			"inputs": [
				{
					"internalType": "uint256",
					"name": "amountIn",
					"type": "uint256"
				},
				{
					"internalType": "uint256",
					"name": "amountOutMin",
					"type": "uint256"
				},
				{
					"internalType": "address[]",
					"name": "path",
					"type": "address[]"
				},
				{
					"internalType": "address",
					"name": "to",
					"type": "address"
				},
				{
					"internalType": "uint256",
					"name": "deadline",
					"type": "uint256"
				}
			],
			"name": "swapExactTokensForTokens",
			"outputs": [
				{
					"internalType": "uint256[]",
					"name": "amounts",
					"type": "uint256[]"
				}
			],
			"stateMutability": "nonpayable",
			"type": "function"
		}
	]
}